{
  "_format": "hh-sol-artifact-1",
  "contractName": "Governance",
  "sourceName": "cache/solpp-generated-contracts/Governance.sol",
  "abi": [
    {
      "anonymous": false,
      "inputs": [
        {
          "indexed": true,
          "internalType": "uint32",
          "name": "creatorAccountId",
          "type": "uint32"
        },
        {
          "indexed": true,
          "internalType": "address",
          "name": "creatorAddress",
          "type": "address"
        },
        {
          "indexed": false,
          "internalType": "address",
          "name": "factoryAddress",
          "type": "address"
        }
      ],
      "name": "NFTFactoryRegisteredCreator",
      "type": "event"
    },
    {
      "anonymous": false,
      "inputs": [
        {
          "indexed": false,
          "internalType": "address",
          "name": "newGovernor",
          "type": "address"
        }
      ],
      "name": "NewGovernor",
      "type": "event"
    },
    {
      "anonymous": false,
      "inputs": [
        {
          "indexed": true,
          "internalType": "address",
          "name": "token",
          "type": "address"
        },
        {
          "indexed": true,
          "internalType": "uint16",
          "name": "tokenId",
          "type": "uint16"
        }
      ],
      "name": "NewToken",
      "type": "event"
    },
    {
      "anonymous": false,
      "inputs": [
        {
          "indexed": false,
          "internalType": "contract TokenGovernance",
          "name": "newTokenGovernance",
          "type": "address"
        }
      ],
      "name": "NewTokenGovernance",
      "type": "event"
    },
    {
      "anonymous": false,
      "inputs": [
        {
          "indexed": true,
          "internalType": "address",
          "name": "factory",
          "type": "address"
        }
      ],
      "name": "SetDefaultNFTFactory",
      "type": "event"
    },
    {
      "anonymous": false,
      "inputs": [
        {
          "indexed": true,
          "internalType": "address",
          "name": "token",
          "type": "address"
        },
        {
          "indexed": false,
          "internalType": "bool",
          "name": "paused",
          "type": "bool"
        }
      ],
      "name": "TokenPausedUpdate",
      "type": "event"
    },
    {
      "anonymous": false,
      "inputs": [
        {
          "indexed": true,
          "internalType": "address",
          "name": "validatorAddress",
          "type": "address"
        },
        {
          "indexed": false,
          "internalType": "bool",
          "name": "isActive",
          "type": "bool"
        }
      ],
      "name": "ValidatorStatusUpdate",
      "type": "event"
    },
    {
      "inputs": [
        {
          "internalType": "address",
          "name": "_token",
          "type": "address"
        }
      ],
      "name": "addToken",
      "outputs": [],
      "stateMutability": "nonpayable",
      "type": "function"
    },
    {
      "inputs": [
        {
          "internalType": "address",
          "name": "_newGovernor",
          "type": "address"
        }
      ],
      "name": "changeGovernor",
      "outputs": [],
      "stateMutability": "nonpayable",
      "type": "function"
    },
    {
      "inputs": [
        {
          "internalType": "contract TokenGovernance",
          "name": "_newTokenGovernance",
          "type": "address"
        }
      ],
      "name": "changeTokenGovernance",
      "outputs": [],
      "stateMutability": "nonpayable",
      "type": "function"
    },
    {
      "inputs": [],
      "name": "defaultFactory",
      "outputs": [
        {
          "internalType": "contract NFTFactory",
          "name": "",
          "type": "address"
        }
      ],
      "stateMutability": "view",
      "type": "function"
    },
    {
      "inputs": [
        {
          "internalType": "uint32",
          "name": "_creatorAccountId",
          "type": "uint32"
        },
        {
          "internalType": "address",
          "name": "_creatorAddress",
          "type": "address"
        }
      ],
      "name": "getNFTFactory",
      "outputs": [
        {
          "internalType": "contract NFTFactory",
          "name": "",
          "type": "address"
        }
      ],
      "stateMutability": "view",
      "type": "function"
    },
    {
      "inputs": [
        {
          "internalType": "bytes",
          "name": "initializationParameters",
          "type": "bytes"
        }
      ],
      "name": "initialize",
      "outputs": [],
      "stateMutability": "nonpayable",
      "type": "function"
    },
    {
      "inputs": [
        {
          "internalType": "uint16",
          "name": "_tokenId",
          "type": "uint16"
        }
      ],
      "name": "isValidTokenId",
      "outputs": [
        {
          "internalType": "bool",
          "name": "",
          "type": "bool"
        }
      ],
      "stateMutability": "view",
      "type": "function"
    },
    {
      "inputs": [],
      "name": "networkGovernor",
      "outputs": [
        {
          "internalType": "address",
          "name": "",
          "type": "address"
        }
      ],
      "stateMutability": "view",
      "type": "function"
    },
    {
      "inputs": [
        {
          "internalType": "uint32",
          "name": "",
          "type": "uint32"
        },
        {
          "internalType": "address",
          "name": "",
          "type": "address"
        }
      ],
      "name": "nftFactories",
      "outputs": [
        {
          "internalType": "contract NFTFactory",
          "name": "",
          "type": "address"
        }
      ],
      "stateMutability": "view",
      "type": "function"
    },
    {
      "inputs": [
        {
          "internalType": "uint16",
          "name": "",
          "type": "uint16"
        }
      ],
      "name": "pausedTokens",
      "outputs": [
        {
          "internalType": "bool",
          "name": "",
          "type": "bool"
        }
      ],
      "stateMutability": "view",
      "type": "function"
    },
    {
      "inputs": [
        {
          "internalType": "uint32",
          "name": "_creatorAccountId",
          "type": "uint32"
        },
        {
          "internalType": "address",
          "name": "_creatorAddress",
          "type": "address"
        },
        {
          "internalType": "bytes",
          "name": "_signature",
          "type": "bytes"
        }
      ],
      "name": "registerNFTFactoryCreator",
      "outputs": [],
      "stateMutability": "nonpayable",
      "type": "function"
    },
    {
      "inputs": [
        {
          "internalType": "address",
          "name": "_address",
          "type": "address"
        }
      ],
      "name": "requireActiveValidator",
      "outputs": [],
      "stateMutability": "view",
      "type": "function"
    },
    {
      "inputs": [
        {
          "internalType": "address",
          "name": "_address",
          "type": "address"
        }
      ],
      "name": "requireGovernor",
      "outputs": [],
      "stateMutability": "view",
      "type": "function"
    },
    {
      "inputs": [
        {
          "internalType": "address",
          "name": "_factory",
          "type": "address"
        }
      ],
      "name": "setDefaultNFTFactory",
      "outputs": [],
      "stateMutability": "nonpayable",
      "type": "function"
    },
    {
      "inputs": [
        {
          "internalType": "address",
          "name": "_tokenAddr",
          "type": "address"
        },
        {
          "internalType": "bool",
          "name": "_tokenPaused",
          "type": "bool"
        }
      ],
      "name": "setTokenPaused",
      "outputs": [],
      "stateMutability": "nonpayable",
      "type": "function"
    },
    {
      "inputs": [
        {
          "internalType": "address",
          "name": "_validator",
          "type": "address"
        },
        {
          "internalType": "bool",
          "name": "_active",
          "type": "bool"
        }
      ],
      "name": "setValidator",
      "outputs": [],
      "stateMutability": "nonpayable",
      "type": "function"
    },
    {
      "inputs": [
        {
          "internalType": "uint16",
          "name": "",
          "type": "uint16"
        }
      ],
      "name": "tokenAddresses",
      "outputs": [
        {
          "internalType": "address",
          "name": "",
          "type": "address"
        }
      ],
      "stateMutability": "view",
      "type": "function"
    },
    {
      "inputs": [],
      "name": "tokenGovernance",
      "outputs": [
        {
          "internalType": "contract TokenGovernance",
          "name": "",
          "type": "address"
        }
      ],
      "stateMutability": "view",
      "type": "function"
    },
    {
      "inputs": [
        {
          "internalType": "address",
          "name": "",
          "type": "address"
        }
      ],
      "name": "tokenIds",
      "outputs": [
        {
          "internalType": "uint16",
          "name": "",
          "type": "uint16"
        }
      ],
      "stateMutability": "view",
      "type": "function"
    },
    {
      "inputs": [],
      "name": "totalTokens",
      "outputs": [
        {
          "internalType": "uint16",
          "name": "",
          "type": "uint16"
        }
      ],
      "stateMutability": "view",
      "type": "function"
    },
    {
      "inputs": [
        {
          "internalType": "bytes",
          "name": "upgradeParameters",
          "type": "bytes"
        }
      ],
      "name": "upgrade",
      "outputs": [],
      "stateMutability": "nonpayable",
      "type": "function"
    },
    {
      "inputs": [
        {
          "internalType": "address",
          "name": "_tokenAddr",
          "type": "address"
        }
      ],
      "name": "validateTokenAddress",
      "outputs": [
        {
          "internalType": "uint16",
          "name": "",
          "type": "uint16"
        }
      ],
      "stateMutability": "view",
      "type": "function"
    },
    {
      "inputs": [
        {
          "internalType": "address",
          "name": "",
          "type": "address"
        }
      ],
      "name": "validators",
      "outputs": [
        {
          "internalType": "bool",
          "name": "",
          "type": "bool"
        }
      ],
      "stateMutability": "view",
      "type": "function"
    }
  ],
  "bytecode": "0x608060405234801561001057600080fd5b50611279806100206000396000f3fe608060405234801561001057600080fd5b506004361061014d5760003560e01c8063ce09e20d116100c3578063ead317621161007c578063ead3176214610514578063f39349ef1461053a578063f3a65bf914610542578063f5f84ed414610563578063fa52c7d814610589578063fc97a303146105af5761014d565b8063ce09e20d14610433578063d48bfca714610459578063d4b6846d1461047f578063e122b7d114610487578063e2c79268146104b9578063e4c0aaf4146104ee5761014d565b8063622574701161011557806362257470146102c557806378393d22146102f35780637e1c0c09146103195780638d1db94014610338578063b79eb8c714610340578063c4dcb92c146103725761014d565b806310603dad14610152578063253946451461018f578063439fab91146102015780634623c91d146102715780634b18bd0f1461029f575b600080fd5b6101736004803603602081101561016857600080fd5b503561ffff166105d5565b604080516001600160a01b039092168252519081900360200190f35b6101ff600480360360208110156101a557600080fd5b8101906020810181356401000000008111156101c057600080fd5b8201836020820111156101d257600080fd5b803590602001918460018302840111640100000000831117156101f457600080fd5b5090925090506105f0565b005b6101ff6004803603602081101561021757600080fd5b81019060208101813564010000000081111561023257600080fd5b82018360208201111561024457600080fd5b8035906020019184600183028401116401000000008311171561026657600080fd5b5090925090506105f4565b6101ff6004803603604081101561028757600080fd5b506001600160a01b038135169060200135151561062d565b6101ff600480360360208110156102b557600080fd5b50356001600160a01b03166106bc565b6101ff600480360360408110156102db57600080fd5b506001600160a01b0381351690602001351515610711565b6101ff6004803603602081101561030957600080fd5b50356001600160a01b0316610820565b610321610892565b6040805161ffff9092168252519081900360200190f35b6101736108a3565b6101736004803603604081101561035657600080fd5b50803563ffffffff1690602001356001600160a01b03166108b2565b6101ff6004803603606081101561038857600080fd5b63ffffffff823516916001600160a01b03602082013516918101906060810160408201356401000000008111156103be57600080fd5b8201836020820111156103d057600080fd5b803590602001918460018302840111640100000000831117156103f257600080fd5b91908080601f016020809104026020016040519081016040528093929190818152602001838380828437600092019190915250929550610940945050505050565b6101ff6004803603602081101561044957600080fd5b50356001600160a01b0316610aa0565b6101ff6004803603602081101561046f57600080fd5b50356001600160a01b0316610b78565b610173610cf8565b6101736004803603604081101561049d57600080fd5b50803563ffffffff1690602001356001600160a01b0316610d07565b6104da600480360360208110156104cf57600080fd5b503561ffff16610d2d565b604080519115158252519081900360200190f35b6101ff6004803603602081101561050457600080fd5b50356001600160a01b0316610d44565b6103216004803603602081101561052a57600080fd5b50356001600160a01b0316610db6565b610173610e0a565b6104da6004803603602081101561055857600080fd5b503561ffff16610e19565b6101ff6004803603602081101561057957600080fd5b50356001600160a01b0316610e2e565b6104da6004803603602081101561059f57600080fd5b50356001600160a01b0316610e75565b610321600480360360208110156105c557600080fd5b50356001600160a01b0316610e8a565b6001602052600090815260409020546001600160a01b031681565b5050565b60008282602081101561060657600080fd5b506000805491356001600160a01b03166001600160a01b0319909216919091179055505050565b61063633610e2e565b6001600160a01b03821660009081526003602052604090205460ff161515811515146105f0576001600160a01b038216600081815260036020908152604091829020805460ff1916851515908117909155825190815291517f065b77b53864e46fda3d8986acb51696223d6dde7ced42441eb150bae6d481369281900390910190a25050565b6001600160a01b03811660009081526003602052604090205460ff1661070e576040805162461bcd60e51b8152602060048201526002602482015261062d60f31b604482015290519081900360640190fd5b50565b61071a33610e2e565b6000306001600160a01b031663ead31762846040518263ffffffff1660e01b815260040180826001600160a01b0316815260200191505060206040518083038186803b15801561076957600080fd5b505afa15801561077d573d6000803e3d6000fd5b505050506040513d602081101561079357600080fd5b505161ffff811660009081526004602052604090205490915060ff1615158215151461081b5761ffff8116600090815260046020908152604091829020805460ff1916851515908117909155825190815291516001600160a01b038616927ff72cbadf0693609a042637541df35c63e7e074363dea6efb5c19d6c7814ceee992908290030190a25b505050565b61082933610e2e565b6005546001600160a01b0382811691161461070e57600580546001600160a01b0383166001600160a01b0319909116811790915560408051918252517fb24c0fc80a0c2a8c6a406f1f63ac240a949e45444715e77bcb06073a1a1d401c9181900360200190a150565b600054600160a01b900461ffff1681565b6005546001600160a01b031681565b63ffffffff821660009081526006602090815260408083206001600160a01b03808616855292528220541680610937576007546001600160a01b0316610924576040805162461bcd60e51b8152602060048201526002602482015261667360f01b604482015290519081900360640190fd5b50506007546001600160a01b031661093a565b90505b92915050565b63ffffffff831660009081526006602090815260408083206001600160a01b03868116855292529091205416156109a2576040805162461bcd60e51b81526020600482015260016024820152605160f81b604482015290519081900360640190fd5b60006109af848433610ea0565b80519060200120905060006109c48383611098565b9050836001600160a01b0316816001600160a01b03161480156109ef57506001600160a01b03811615155b610a25576040805162461bcd60e51b8152602060048201526002602482015261777360f01b604482015290519081900360640190fd5b63ffffffff851660008181526006602090815260408083206001600160a01b0389168085529083529281902080546001600160a01b03191633908117909155815190815290519293927fa31b86f0827cd4eabf087b77e866f658278cb60e2d7c291d407edaada53408e0929181900390910190a35050505050565b610aa933610e2e565b6001600160a01b038116610aea576040805162461bcd60e51b81526020600482015260036024820152626d623160e81b604482015290519081900360640190fd5b6007546001600160a01b031615610b2e576040805162461bcd60e51b815260206004820152600360248201526236b11960e91b604482015290519081900360640190fd5b600780546001600160a01b0319166001600160a01b0383169081179091556040517f9678384f56a2d29e9db5747e5910c194dde921293922f2463582d8c25b96533090600090a250565b6005546001600160a01b03163314610bbc576040805162461bcd60e51b8152602060048201526002602482015261314560f01b604482015290519081900360640190fd5b6001600160a01b03811660009081526002602052604090205461ffff1615610c10576040805162461bcd60e51b8152602060048201526002602482015261316560f01b604482015290519081900360640190fd5b6000546103ff600160a01b90910461ffff1610610c59576040805162461bcd60e51b815260206004820152600260248201526118b360f11b604482015290519081900360640190fd5b60008054600161ffff600160a01b808404821683018216810261ffff60a01b1990941693909317808555929092049091168083526020918252604080842080546001600160a01b0387166001600160a01b031990911681179091558085526002909352808420805461ffff1916831790555190928392917ffe74dea79bde70d1990ddb655bac45735b14f495ddc508cfab80b7729aa9d6689190a35050565b6007546001600160a01b031681565b60066020908152600092835260408084209091529082529020546001600160a01b031681565b600054600160a01b900461ffff9081169116111590565b610d4d33610e2e565b6000546001600160a01b0382811691161461070e57600080546001600160a01b0383166001600160a01b0319909116811790915560408051918252517f5425363a03f182281120f5919107c49c7a1a623acc1cbc6df468b6f0c11fcf8c9181900360200190a150565b6001600160a01b03811660009081526002602052604081205461ffff168061093a576040805162461bcd60e51b8152602060048201526002602482015261316960f01b604482015290519081900360640190fd5b6000546001600160a01b031681565b60046020526000908152604090205460ff1681565b6000546001600160a01b0382811691161461070e576040805162461bcd60e51b8152602060048201526002602482015261316760f01b604482015290519081900360640190fd5b60036020526000908152604090205460ff1681565b60026020526000908152604090205461ffff1681565b6060610ed384604051602001808263ffffffff1660e01b8152600401915050604051602081830303815290604052611160565b610f078460405160200180826001600160a01b031660601b8152601401915050604051602081830303815290604052611160565b610f3b8460405160200180826001600160a01b031660601b8152601401915050604051602081830303815290604052611160565b6040517f19457468657265756d205369676e6564204d6573736167653a0a3134310000006020820190815290603d016021611223823960210184805190602001908083835b60208310610f9f5780518252601f199092019160209182019101610f80565b51815160209384036101000a600019018019909216911617905268521b932b0ba37b91d160b51b919093019081528551600a90910192860191508083835b60208310610ffc5780518252601f199092019160209182019101610fdd565b51815160209384036101000a60001901801990921691161790526852330b1ba37b93c9d160b51b919093019081528451600a90910192850191508083835b602083106110595780518252601f19909201916020918201910161103a565b6001836020036101000a038019825116818451168082178552505050505050905001935050505060405160208183030381529060405290509392505050565b600082516041146110d4576040805162461bcd60e51b81526020600482015260016024820152600560fc1b604482015290519081900360640190fd5b60008060006020860151925060408601519150606086015160001a905060018582858560405160008152602001604052604051808581526020018460ff1681526020018381526020018281526020019450505050506020604051602081039080840390855afa15801561114b573d6000803e3d6000fd5b5050604051601f190151979650505050505050565b60606000825160020267ffffffffffffffff8111801561117f57600080fd5b506040519080825280601f01601f1916602001820160405280156111aa576020820181803683370190505b5090506020830183518101602083015b8183101561121857825160f81c6f6665646362613938373635343332313060088260041c021c60f81b82526f66656463626139383736353433323130600882600f16021c60f81b6001830152506001830192506002810190506111ba565b509194935050505056fe0a43726561746f722773206163636f756e7420494420696e207a6b53796e633a20a26469706673582212205d82594a5432018c35d086e7eea5ab6160046d2e3892a0a44da3b27288937bdb64736f6c63430007060033",
  "linkReferences": {},
  "deployedLinkReferences": {}
}