{
  "_format": "hh-sol-artifact-1",
  "contractName": "ZkSync",
  "sourceName": "cache/solpp-generated-contracts/ZkSync.sol",
  "abi": [
    {
      "anonymous": false,
      "inputs": [
        {
          "indexed": true,
          "internalType": "uint32",
          "name": "blockNumber",
          "type": "uint32"
        }
      ],
      "name": "BlockCommit",
      "type": "event"
    },
    {
      "anonymous": false,
      "inputs": [
        {
          "indexed": true,
          "internalType": "uint32",
          "name": "blockNumber",
          "type": "uint32"
        }
      ],
      "name": "BlockVerification",
      "type": "event"
    },
    {
      "anonymous": false,
      "inputs": [
        {
          "indexed": false,
          "internalType": "uint32",
          "name": "totalBlocksVerified",
          "type": "uint32"
        },
        {
          "indexed": false,
          "internalType": "uint32",
          "name": "totalBlocksCommitted",
          "type": "uint32"
        }
      ],
      "name": "BlocksRevert",
      "type": "event"
    },
    {
      "anonymous": false,
      "inputs": [
        {
          "indexed": true,
          "internalType": "uint16",
          "name": "tokenId",
          "type": "uint16"
        },
        {
          "indexed": false,
          "internalType": "uint128",
          "name": "amount",
          "type": "uint128"
        }
      ],
      "name": "Deposit",
      "type": "event"
    },
    {
      "anonymous": false,
      "inputs": [
        {
          "indexed": true,
          "internalType": "uint32",
          "name": "zkSyncBlockId",
          "type": "uint32"
        },
        {
          "indexed": true,
          "internalType": "uint32",
          "name": "accountId",
          "type": "uint32"
        },
        {
          "indexed": false,
          "internalType": "address",
          "name": "owner",
          "type": "address"
        },
        {
          "indexed": true,
          "internalType": "uint16",
          "name": "tokenId",
          "type": "uint16"
        },
        {
          "indexed": false,
          "internalType": "uint128",
          "name": "amount",
          "type": "uint128"
        }
      ],
      "name": "DepositCommit",
      "type": "event"
    },
    {
      "anonymous": false,
      "inputs": [],
      "name": "ExodusMode",
      "type": "event"
    },
    {
      "anonymous": false,
      "inputs": [
        {
          "indexed": true,
          "internalType": "address",
          "name": "sender",
          "type": "address"
        },
        {
          "indexed": false,
          "internalType": "uint32",
          "name": "nonce",
          "type": "uint32"
        },
        {
          "indexed": false,
          "internalType": "bytes",
          "name": "fact",
          "type": "bytes"
        }
      ],
      "name": "FactAuth",
      "type": "event"
    },
    {
      "anonymous": false,
      "inputs": [
        {
          "indexed": true,
          "internalType": "uint32",
          "name": "zkSyncBlockId",
          "type": "uint32"
        },
        {
          "indexed": true,
          "internalType": "uint32",
          "name": "accountId",
          "type": "uint32"
        },
        {
          "indexed": false,
          "internalType": "address",
          "name": "owner",
          "type": "address"
        },
        {
          "indexed": true,
          "internalType": "uint16",
          "name": "tokenId",
          "type": "uint16"
        },
        {
          "indexed": false,
          "internalType": "uint128",
          "name": "amount",
          "type": "uint128"
        }
      ],
      "name": "FullExitCommit",
      "type": "event"
    },
    {
      "anonymous": false,
      "inputs": [
        {
          "indexed": false,
          "internalType": "address",
          "name": "sender",
          "type": "address"
        },
        {
          "indexed": false,
          "internalType": "uint64",
          "name": "serialId",
          "type": "uint64"
        },
        {
          "indexed": false,
          "internalType": "enum Operations.OpType",
          "name": "opType",
          "type": "uint8"
        },
        {
          "indexed": false,
          "internalType": "bytes",
          "name": "pubData",
          "type": "bytes"
        },
        {
          "indexed": false,
          "internalType": "uint256",
          "name": "expirationBlock",
          "type": "uint256"
        }
      ],
      "name": "NewPriorityRequest",
      "type": "event"
    },
    {
      "anonymous": false,
      "inputs": [
        {
          "indexed": true,
          "internalType": "uint16",
          "name": "tokenId",
          "type": "uint16"
        },
        {
          "indexed": false,
          "internalType": "uint128",
          "name": "amount",
          "type": "uint128"
        }
      ],
      "name": "Withdrawal",
      "type": "event"
    },
    {
      "inputs": [
        {
          "internalType": "contract IERC20",
          "name": "_token",
          "type": "address"
        },
        {
          "internalType": "address",
          "name": "_to",
          "type": "address"
        },
        {
          "internalType": "uint128",
          "name": "_amount",
          "type": "uint128"
        },
        {
          "internalType": "uint128",
          "name": "_maxAmount",
          "type": "uint128"
        }
      ],
      "name": "_transferERC20",
      "outputs": [
        {
          "internalType": "uint128",
          "name": "withdrawnAmount",
          "type": "uint128"
        }
      ],
      "stateMutability": "nonpayable",
      "type": "function"
    },
    {
      "inputs": [],
      "name": "activateExodusMode",
      "outputs": [
        {
          "internalType": "bool",
          "name": "",
          "type": "bool"
        }
      ],
      "stateMutability": "nonpayable",
      "type": "function"
    },
    {
      "inputs": [
        {
          "internalType": "address",
          "name": "",
          "type": "address"
        },
        {
          "internalType": "uint32",
          "name": "",
          "type": "uint32"
        }
      ],
      "name": "authFacts",
      "outputs": [
        {
          "internalType": "bytes32",
          "name": "",
          "type": "bytes32"
        }
      ],
      "stateMutability": "view",
      "type": "function"
    },
    {
      "inputs": [
        {
          "internalType": "uint64",
          "name": "_n",
          "type": "uint64"
        },
        {
          "internalType": "bytes[]",
          "name": "_depositsPubdata",
          "type": "bytes[]"
        }
      ],
      "name": "cancelOutstandingDepositsForExodusMode",
      "outputs": [],
      "stateMutability": "nonpayable",
      "type": "function"
    },
    {
      "inputs": [
        {
          "components": [
            {
              "internalType": "uint32",
              "name": "blockNumber",
              "type": "uint32"
            },
            {
              "internalType": "uint64",
              "name": "priorityOperations",
              "type": "uint64"
            },
            {
              "internalType": "bytes32",
              "name": "pendingOnchainOperationsHash",
              "type": "bytes32"
            },
            {
              "internalType": "uint256",
              "name": "timestamp",
              "type": "uint256"
            },
            {
              "internalType": "bytes32",
              "name": "stateHash",
              "type": "bytes32"
            },
            {
              "internalType": "bytes32",
              "name": "commitment",
              "type": "bytes32"
            }
          ],
          "internalType": "struct Storage.StoredBlockInfo",
          "name": "_lastCommittedBlockData",
          "type": "tuple"
        },
        {
          "components": [
            {
              "internalType": "bytes32",
              "name": "newStateHash",
              "type": "bytes32"
            },
            {
              "internalType": "bytes",
              "name": "publicData",
              "type": "bytes"
            },
            {
              "internalType": "uint256",
              "name": "timestamp",
              "type": "uint256"
            },
            {
              "components": [
                {
                  "internalType": "bytes",
                  "name": "ethWitness",
                  "type": "bytes"
                },
                {
                  "internalType": "uint32",
                  "name": "publicDataOffset",
                  "type": "uint32"
                }
              ],
              "internalType": "struct ZkSync.OnchainOperationData[]",
              "name": "onchainOperations",
              "type": "tuple[]"
            },
            {
              "internalType": "uint32",
              "name": "blockNumber",
              "type": "uint32"
            },
            {
              "internalType": "uint32",
              "name": "feeAccount",
              "type": "uint32"
            }
          ],
          "internalType": "struct ZkSync.CommitBlockInfo[]",
          "name": "_newBlocksData",
          "type": "tuple[]"
        }
      ],
      "name": "commitBlocks",
      "outputs": [],
      "stateMutability": "nonpayable",
      "type": "function"
    },
    {
      "inputs": [
        {
          "internalType": "contract IERC20",
          "name": "_token",
          "type": "address"
        },
        {
          "internalType": "uint104",
          "name": "_amount",
          "type": "uint104"
        },
        {
          "internalType": "address",
          "name": "_zkSyncAddress",
          "type": "address"
        }
      ],
      "name": "depositERC20",
      "outputs": [],
      "stateMutability": "nonpayable",
      "type": "function"
    },
    {
      "inputs": [
        {
          "internalType": "address",
          "name": "_zkSyncAddress",
          "type": "address"
        }
      ],
      "name": "depositETH",
      "outputs": [],
      "stateMutability": "payable",
      "type": "function"
    },
    {
      "inputs": [
        {
          "components": [
            {
              "components": [
                {
                  "internalType": "uint32",
                  "name": "blockNumber",
                  "type": "uint32"
                },
                {
                  "internalType": "uint64",
                  "name": "priorityOperations",
                  "type": "uint64"
                },
                {
                  "internalType": "bytes32",
                  "name": "pendingOnchainOperationsHash",
                  "type": "bytes32"
                },
                {
                  "internalType": "uint256",
                  "name": "timestamp",
                  "type": "uint256"
                },
                {
                  "internalType": "bytes32",
                  "name": "stateHash",
                  "type": "bytes32"
                },
                {
                  "internalType": "bytes32",
                  "name": "commitment",
                  "type": "bytes32"
                }
              ],
              "internalType": "struct Storage.StoredBlockInfo",
              "name": "storedBlock",
              "type": "tuple"
            },
            {
              "internalType": "bytes[]",
              "name": "pendingOnchainOpsPubdata",
              "type": "bytes[]"
            }
          ],
          "internalType": "struct ZkSync.ExecuteBlockInfo[]",
          "name": "_blocksData",
          "type": "tuple[]"
        }
      ],
      "name": "executeBlocks",
      "outputs": [],
      "stateMutability": "nonpayable",
      "type": "function"
    },
    {
      "inputs": [],
      "name": "exodusMode",
      "outputs": [
        {
          "internalType": "bool",
          "name": "",
          "type": "bool"
        }
      ],
      "stateMutability": "view",
      "type": "function"
    },
    {
      "inputs": [],
      "name": "firstPriorityRequestId",
      "outputs": [
        {
          "internalType": "uint64",
          "name": "",
          "type": "uint64"
        }
      ],
      "stateMutability": "view",
      "type": "function"
    },
    {
      "inputs": [
        {
          "internalType": "uint32",
          "name": "_accountId",
          "type": "uint32"
        },
        {
          "internalType": "address",
          "name": "_token",
          "type": "address"
        }
      ],
      "name": "fullExit",
      "outputs": [],
      "stateMutability": "nonpayable",
      "type": "function"
    },
    {
      "inputs": [
        {
          "internalType": "address",
          "name": "_address",
          "type": "address"
        },
        {
          "internalType": "uint16",
          "name": "_tokenId",
          "type": "uint16"
        }
      ],
      "name": "getBalanceToWithdraw",
      "outputs": [
        {
          "internalType": "uint128",
          "name": "",
          "type": "uint128"
        }
      ],
      "stateMutability": "view",
      "type": "function"
    },
    {
      "inputs": [],
      "name": "getNoticePeriod",
      "outputs": [
        {
          "internalType": "uint256",
          "name": "",
          "type": "uint256"
        }
      ],
      "stateMutability": "pure",
      "type": "function"
    },
    {
      "inputs": [
        {
          "internalType": "address",
          "name": "_address",
          "type": "address"
        },
        {
          "internalType": "address",
          "name": "_token",
          "type": "address"
        }
      ],
      "name": "getPendingBalance",
      "outputs": [
        {
          "internalType": "uint128",
          "name": "",
          "type": "uint128"
        }
      ],
      "stateMutability": "view",
      "type": "function"
    },
    {
      "inputs": [],
      "name": "governance",
      "outputs": [
        {
          "internalType": "contract Governance",
          "name": "",
          "type": "address"
        }
      ],
      "stateMutability": "view",
      "type": "function"
    },
    {
      "inputs": [
        {
          "internalType": "bytes",
          "name": "initializationParameters",
          "type": "bytes"
        }
      ],
      "name": "initialize",
      "outputs": [],
      "stateMutability": "nonpayable",
      "type": "function"
    },
    {
      "inputs": [],
      "name": "isReadyForUpgrade",
      "outputs": [
        {
          "internalType": "bool",
          "name": "",
          "type": "bool"
        }
      ],
      "stateMutability": "view",
      "type": "function"
    },
    {
      "inputs": [
        {
          "components": [
            {
              "internalType": "uint32",
              "name": "blockNumber",
              "type": "uint32"
            },
            {
              "internalType": "uint64",
              "name": "priorityOperations",
              "type": "uint64"
            },
            {
              "internalType": "bytes32",
              "name": "pendingOnchainOperationsHash",
              "type": "bytes32"
            },
            {
              "internalType": "uint256",
              "name": "timestamp",
              "type": "uint256"
            },
            {
              "internalType": "bytes32",
              "name": "stateHash",
              "type": "bytes32"
            },
            {
              "internalType": "bytes32",
              "name": "commitment",
              "type": "bytes32"
            }
          ],
          "internalType": "struct Storage.StoredBlockInfo",
          "name": "_storedBlockInfo",
          "type": "tuple"
        },
        {
          "internalType": "address",
          "name": "_owner",
          "type": "address"
        },
        {
          "internalType": "uint32",
          "name": "_accountId",
          "type": "uint32"
        },
        {
          "internalType": "uint16",
          "name": "_tokenId",
          "type": "uint16"
        },
        {
          "internalType": "uint128",
          "name": "_amount",
          "type": "uint128"
        },
        {
          "internalType": "uint256[]",
          "name": "_proof",
          "type": "uint256[]"
        }
      ],
      "name": "performExodus",
      "outputs": [],
      "stateMutability": "nonpayable",
      "type": "function"
    },
    {
      "inputs": [
        {
          "internalType": "uint32",
          "name": "",
          "type": "uint32"
        },
        {
          "internalType": "uint16",
          "name": "",
          "type": "uint16"
        }
      ],
      "name": "performedExodus",
      "outputs": [
        {
          "internalType": "bool",
          "name": "",
          "type": "bool"
        }
      ],
      "stateMutability": "view",
      "type": "function"
    },
    {
      "inputs": [
        {
          "components": [
            {
              "internalType": "uint32",
              "name": "blockNumber",
              "type": "uint32"
            },
            {
              "internalType": "uint64",
              "name": "priorityOperations",
              "type": "uint64"
            },
            {
              "internalType": "bytes32",
              "name": "pendingOnchainOperationsHash",
              "type": "bytes32"
            },
            {
              "internalType": "uint256",
              "name": "timestamp",
              "type": "uint256"
            },
            {
              "internalType": "bytes32",
              "name": "stateHash",
              "type": "bytes32"
            },
            {
              "internalType": "bytes32",
              "name": "commitment",
              "type": "bytes32"
            }
          ],
          "internalType": "struct Storage.StoredBlockInfo[]",
          "name": "_committedBlocks",
          "type": "tuple[]"
        },
        {
          "components": [
            {
              "internalType": "uint256[]",
              "name": "recursiveInput",
              "type": "uint256[]"
            },
            {
              "internalType": "uint256[]",
              "name": "proof",
              "type": "uint256[]"
            },
            {
              "internalType": "uint256[]",
              "name": "commitments",
              "type": "uint256[]"
            },
            {
              "internalType": "uint8[]",
              "name": "vkIndexes",
              "type": "uint8[]"
            },
            {
              "internalType": "uint256[16]",
              "name": "subproofsLimbs",
              "type": "uint256[16]"
            }
          ],
          "internalType": "struct ZkSync.ProofInput",
          "name": "_proof",
          "type": "tuple"
        }
      ],
      "name": "proveBlocks",
      "outputs": [],
      "stateMutability": "nonpayable",
      "type": "function"
    },
    {
      "inputs": [
        {
          "internalType": "uint32",
          "name": "_accountId",
          "type": "uint32"
        },
        {
          "internalType": "address",
          "name": "_token",
          "type": "address"
        }
      ],
      "name": "requestFullExit",
      "outputs": [],
      "stateMutability": "nonpayable",
      "type": "function"
    },
    {
      "inputs": [
        {
          "components": [
            {
              "internalType": "uint32",
              "name": "blockNumber",
              "type": "uint32"
            },
            {
              "internalType": "uint64",
              "name": "priorityOperations",
              "type": "uint64"
            },
            {
              "internalType": "bytes32",
              "name": "pendingOnchainOperationsHash",
              "type": "bytes32"
            },
            {
              "internalType": "uint256",
              "name": "timestamp",
              "type": "uint256"
            },
            {
              "internalType": "bytes32",
              "name": "stateHash",
              "type": "bytes32"
            },
            {
              "internalType": "bytes32",
              "name": "commitment",
              "type": "bytes32"
            }
          ],
          "internalType": "struct Storage.StoredBlockInfo[]",
          "name": "_blocksToRevert",
          "type": "tuple[]"
        }
      ],
      "name": "revertBlocks",
      "outputs": [],
      "stateMutability": "nonpayable",
      "type": "function"
    },
    {
      "inputs": [
        {
          "internalType": "bytes",
          "name": "_pubkey_hash",
          "type": "bytes"
        },
        {
          "internalType": "uint32",
          "name": "_nonce",
          "type": "uint32"
        }
      ],
      "name": "setAuthPubkeyHash",
      "outputs": [],
      "stateMutability": "nonpayable",
      "type": "function"
    },
    {
      "inputs": [],
      "name": "totalBlocksCommitted",
      "outputs": [
        {
          "internalType": "uint32",
          "name": "",
          "type": "uint32"
        }
      ],
      "stateMutability": "view",
      "type": "function"
    },
    {
      "inputs": [],
      "name": "totalBlocksExecuted",
      "outputs": [
        {
          "internalType": "uint32",
          "name": "",
          "type": "uint32"
        }
      ],
      "stateMutability": "view",
      "type": "function"
    },
    {
      "inputs": [],
      "name": "totalBlocksProven",
      "outputs": [
        {
          "internalType": "uint32",
          "name": "",
          "type": "uint32"
        }
      ],
      "stateMutability": "view",
      "type": "function"
    },
    {
      "inputs": [],
      "name": "totalCommittedPriorityRequests",
      "outputs": [
        {
          "internalType": "uint64",
          "name": "",
          "type": "uint64"
        }
      ],
      "stateMutability": "view",
      "type": "function"
    },
    {
      "inputs": [],
      "name": "totalOpenPriorityRequests",
      "outputs": [
        {
          "internalType": "uint64",
          "name": "",
          "type": "uint64"
        }
      ],
      "stateMutability": "view",
      "type": "function"
    },
    {
      "inputs": [
        {
          "internalType": "bytes",
          "name": "upgradeParameters",
          "type": "bytes"
        }
      ],
      "name": "upgrade",
      "outputs": [],
      "stateMutability": "nonpayable",
      "type": "function"
    },
    {
      "inputs": [],
      "name": "upgradeCanceled",
      "outputs": [],
      "stateMutability": "nonpayable",
      "type": "function"
    },
    {
      "inputs": [],
      "name": "upgradeFinishes",
      "outputs": [],
      "stateMutability": "nonpayable",
      "type": "function"
    },
    {
      "inputs": [],
      "name": "upgradeNoticePeriodStarted",
      "outputs": [],
      "stateMutability": "nonpayable",
      "type": "function"
    },
    {
      "inputs": [],
      "name": "upgradePreparationStarted",
      "outputs": [],
      "stateMutability": "nonpayable",
      "type": "function"
    },
    {
      "inputs": [],
      "name": "verifier",
      "outputs": [
        {
          "internalType": "contract Verifier",
          "name": "",
          "type": "address"
        }
      ],
      "stateMutability": "view",
      "type": "function"
    },
    {
      "inputs": [
        {
          "internalType": "contract IERC20",
          "name": "_token",
          "type": "address"
        },
        {
          "internalType": "uint128",
          "name": "_amount",
          "type": "uint128"
        }
      ],
      "name": "withdrawERC20",
      "outputs": [],
      "stateMutability": "nonpayable",
      "type": "function"
    },
    {
      "inputs": [
        {
          "internalType": "uint128",
          "name": "_amount",
          "type": "uint128"
        }
      ],
      "name": "withdrawETH",
      "outputs": [],
      "stateMutability": "nonpayable",
      "type": "function"
    },
    {
      "inputs": [
        {
          "internalType": "address payable",
          "name": "_owner",
          "type": "address"
        },
        {
          "internalType": "address",
          "name": "_token",
          "type": "address"
        },
        {
          "internalType": "uint128",
          "name": "_amount",
          "type": "uint128"
        }
      ],
      "name": "withdrawPendingBalance",
      "outputs": [],
      "stateMutability": "nonpayable",
      "type": "function"
    }
  ],
  "bytecode": "0x608060405234801561001057600080fd5b50615f0280620000216000396000f3fe6080604052600436106102175760003560e01c80638398180811610123578063b4a8498c116100ab578063e17376b51161006f578063e17376b5146105b9578063ee5652fb146105d9578063f2235487146105f9578063fa6b53c31461060e578063faf4d8cb1461062e57610217565b8063b4a8498c14610524578063c488a09c14610544578063c57b22be14610564578063c94c5b7c14610579578063d514da501461059957610217565b80638ee1a74e116100f25780638ee1a74e146104af578063a7e7aacd146104cf578063ab9b2adf146104e4578063b0705b4214610504578063b269b9ae1461046557610217565b80638398180814610445578063871b8ff1146104655780638773334c1461047a5780638ae20dc91461048f57610217565b806345269298116101a6578063647b592311610175578063647b5923146103b957806367708dae146103db57806378b91e70146103f05780637efcfe85146104055780637f8ce19f1461042557610217565b80634526929814610337578063595a5ebc146103575780635aa6e675146103775780635aca41f61461038c57610217565b80632b7ac3f3116101ed5780632b7ac3f3146102ab5780632d2da806146102cd57806334f6bb1c146102e05780633b154b7314610302578063439fab911461031757610217565b8060e21461021c578063253946451461023e578063264c09121461025e5780632a3174f414610289575b600080fd5b34801561022857600080fd5b5061023c610237366004615241565b610643565b005b34801561024a57600080fd5b5061023c610259366004614ec0565b610651565b34801561026a57600080fd5b506102736108c8565b6040516102809190615736565b60405180910390f35b34801561029557600080fd5b5061029e6108d1565b6040516102809190615741565b3480156102b757600080fd5b506102c06108d7565b604051610280919061560a565b61023c6102db366004614b17565b6108e6565b3480156102ec57600080fd5b506102f5610905565b6040516102809190615dd2565b34801561030e57600080fd5b5061023c61091b565b34801561032357600080fd5b5061023c610332366004614ec0565b61091d565b34801561034357600080fd5b5061023c6103523660046150bf565b6109eb565b34801561036357600080fd5b5061023c610372366004614eff565b610c3c565b34801561038357600080fd5b506102c0610da1565b34801561039857600080fd5b506103ac6103a7366004614bd9565b610db0565b6040516102809190615d87565b3480156103c557600080fd5b506103ce610e81565b6040516102809190615daa565b3480156103e757600080fd5b506102f5610e8d565b3480156103fc57600080fd5b5061023c610e9c565b34801561041157600080fd5b5061023c610420366004615277565b610eb1565b34801561043157600080fd5b5061027361044036600461525c565b61117c565b34801561045157600080fd5b5061023c610460366004614d7c565b61119c565b34801561047157600080fd5b5061023c6113f0565b34801561048657600080fd5b506102736113ff565b34801561049b57600080fd5b5061029e6104aa366004614c3e565b611409565b3480156104bb57600080fd5b506103ac6104ca366004614f50565b611426565b3480156104db57600080fd5b506102736115c5565b3480156104f057600080fd5b5061023c6104ff366004615241565b61167d565b34801561051057600080fd5b5061023c61051f366004614c69565b611836565b34801561053057600080fd5b5061023c61053f366004614d4a565b611a95565b34801561055057600080fd5b5061023c61055f3660046151ed565b611d0b565b34801561057057600080fd5b506102f5611e0c565b34801561058557600080fd5b5061023c610594366004614ffb565b611e22565b3480156105a557600080fd5b5061023c6105b4366004614b8f565b611fd5565b3480156105c557600080fd5b5061023c6105d4366004614fab565b61222e565b3480156105e557600080fd5b5061023c6105f4366004615028565b612519565b34801561060557600080fd5b506103ce612734565b34801561061a57600080fd5b506103ac610629366004614c11565b612747565b34801561063a57600080fd5b506103ce612782565b61064d828261167d565b5050565b600080516020615ead8339815191525480610698576040805162461bcd60e51b815260206004820152600260248201526118b160f11b604482015290519081900360640190fd5b6000600080516020615ead833981519152556106b26115c5565b5081156106da5760405162461bcd60e51b81526004016106d190615803565b60405180910390fd5b600654600160601b810463ffffffff908116600160401b90920416146107125760405162461bcd60e51b81526004016106d190615bf0565b600654640100000000900463ffffffff16156107405760405162461bcd60e51b81526004016106d190615b84565b600c54600160401b90046001600160401b0316156107705760405162461bcd60e51b81526004016106d1906158c0565b60065463ffffffff600160401b9091048116600090815260076020908152604091829020825160c081018452815480861682526001600160401b03640100000000820416938201849052600160601b900490941692840192909252600182015460608401526002820154608084015260039091015460a0830152156108075760405162461bcd60e51b81526004016106d190615854565b6040805160c081018252600654600160401b900463ffffffff1681526020838101516001600160401b031690820152600080516020615e8d833981519152918101919091526000606082015260a0808301516080808401919091528301519082015261087281612795565b6006805463ffffffff600160401b9182900481166000908152600d60205260409020939093559054600e805463ffffffff19169290910490921617905550506001600080516020615ead83398151915255505050565b60095460ff1681565b60005b90565b6002546001600160a01b031681565b6108ee6127c6565b61090260006108fc346127e9565b8361282c565b50565b600c54600160801b90046001600160401b031681565b565b6109256128bf565b6000808061093584860186614b4f565b600280546001600160a01b038085166001600160a01b03199283161790925560038054928616929091169190911790556040805160c081018252600080825260208201819052600080516020615e8d83398151915292820192909252606081018290526080810183905260a081019190915292955090935091506109b881612795565b60008052600d6020527f81955a0a11e65eac625c29e8882660bae4e165a75d72780094acae8ece9a29ee55505050505050565b600080516020615ead8339815191525480610a32576040805162461bcd60e51b815260206004820152600260248201526118b160f11b604482015290519081900360640190fd5b6000600080516020615ead83398151915255610a4c6127c6565b600354604051634b18bd0f60e01b81526001600160a01b0390911690634b18bd0f90610a7c90339060040161560a565b60006040518083038186803b158015610a9457600080fd5b505afa158015610aa8573d6000803e3d6000fd5b50505050610ab583612795565b600654600160601b900463ffffffff166000908152600d602052604090205414610af15760405162461bcd60e51b81526004016106d190615ce3565b60005b82518163ffffffff161015610bbb57610b2684848363ffffffff1681518110610b1957fe5b60200260200101516128d3565b6020810151600c80546001600160401b03600160801b80830482169094011690920267ffffffffffffffff60801b199092169190911790559350610b6984612795565b845163ffffffff9081166000908152600d6020526040808220939093558651925192909116917f81a92942d0f9c33b897a438384c9c3d88be397776138efa3ba1a4fc8b62684249190a2600101610af4565b5081516006805463ffffffff600160601b80830482169094011690920263ffffffff60601b19909216919091179055600c546001600160401b03600160401b82048116600160801b909204161115610c255760405162461bcd60e51b81526004016106d190615b9f565b6001600080516020615ead83398151915255505050565b60148214610c5c5760405162461bcd60e51b81526004016106d190615aab565b336000908152600a6020908152604080832063ffffffff85168452909152902054610cc1578282604051610c9192919061536b565b6040805191829003909120336000908152600a602090815283822063ffffffff8616835290529190912055610d9c565b33600090815260106020908152604080832063ffffffff8516845290915290205480610d0f5733600090815260106020908152604080832063ffffffff861684529091529020429055610d9a565b62015180610d1d4283612a01565b1015610d3b5760405162461bcd60e51b81526004016106d19061597e565b33600090815260106020908152604080832063ffffffff861684529091528082209190915551610d6e908590859061536b565b6040805191829003909120336000908152600a602090815283822063ffffffff87168352905291909120555b505b505050565b6003546001600160a01b031681565b6000806001600160a01b03831615610e45576003546040516375698bb160e11b81526001600160a01b039091169063ead3176290610df290869060040161560a565b60206040518083038186803b158015610e0a57600080fd5b505afa158015610e1e573d6000803e3d6000fd5b505050506040513d601f19601f82011682018060405250810190610e429190615225565b90505b60046000610e538684612a2e565b6001600160501b03191681526020810191909152604001600020546001600160801b03169150505b92915050565b600e5463ffffffff1681565b600c546001600160401b031681565b6000805460ff19166001908117909155429055565b600080516020615ead8339815191525480610ef8576040805162461bcd60e51b815260206004820152600260248201526118b160f11b604482015290519081900360640190fd5b6000600080516020615ead8339815191525560095460ff16610f2c5760405162461bcd60e51b81526004016106d190615cad565b600c54600090610f4c90600160401b90046001600160401b031685612a4b565b90508251816001600160401b031614610f775760405162461bcd60e51b81526004016106d1906157e8565b6000816001600160401b031611610fa05760405162461bcd60e51b81526004016106d190615c5c565b600c546000906001600160401b03165b600c546001600160401b0390811684018116908216101561111a5760016001600160401b0382166000908152600f6020526040902054600160e01b900460ff166009811115610ffb57fe5b14156110ec57600085836001600160401b03168151811061101857fe5b6020908102919091018101516001600160401b0384166000908152600f90925260409091205490915060601b6001600160601b03191661105782612a73565b6001600160601b0319161461107e5760405162461bcd60e51b81526004016106d19061592d565b826001019250600061108f82612a81565b905060006110a582606001518360200151612a2e565b6040928301516001600160501b031991909116600090815260046020529290922080546001600160801b031981166001600160801b03918216909401169290921790915550505b6001600160401b0381166000908152600f6020526040902080546001600160e81b0319169055600101610fb0565b5050600c805467ffffffffffffffff60401b1967ffffffffffffffff1982166001600160401b039283168501831617908116600160401b918290048316949094039091160291909117905550506001600080516020615ead8339815191525550565b600860209081526000928352604080842090915290825290205460ff1681565b600080516020615ead83398151915254806111e3576040805162461bcd60e51b815260206004820152600260248201526118b160f11b604482015290519081900360640190fd5b6000600080516020615ead833981519152819055600e5463ffffffff16905b84518110156112d05763ffffffff60018301166000908152600d602052604090205485516112439087908490811061123657fe5b6020026020010151612795565b146112605760405162461bcd60e51b81526004016106d190615ac6565b8160010191506001600160fd1b0385828151811061127a57fe5b602002602001015160a0015160001c166001600160fd1b03856040015183815181106112a257fe5b602002602001015116146112c85760405162461bcd60e51b81526004016106d1906159ea565b600101611202565b506002548351602085015160608601516040808801516080890151915163054185eb60e51b81526000966001600160a01b03169563a830bd609561131c9591949093919260040161568a565b60206040518083038186803b15801561133457600080fd5b505afa158015611348573d6000803e3d6000fd5b505050506040513d601f19601f8201168201806040525081019061136c9190614e88565b90508061138b5760405162461bcd60e51b81526004016106d1906158a5565b60065463ffffffff600160601b909104811690831611156113be5760405162461bcd60e51b81526004016106d190615948565b50600e805463ffffffff191663ffffffff9290921691909117905550506001600080516020615ead8339815191525550565b6000805460ff19168155600155565b60095460ff161590565b600a60209081526000928352604080842090915290825290205481565b60003330146114475760405162461bcd60e51b81526004016106d190615c26565b6040516370a0823160e01b81526000906001600160a01b038716906370a082319061147690309060040161560a565b60206040518083038186803b15801561148e57600080fd5b505afa1580156114a2573d6000803e3d6000fd5b505050506040513d601f19601f820116820180604052508101906114c69190614ea8565b90506114dc8686866001600160801b0316612b0e565b6114f85760405162461bcd60e51b81526004016106d190615c92565b6040516370a0823160e01b81526000906001600160a01b038816906370a082319061152790309060040161560a565b60206040518083038186803b15801561153f57600080fd5b505afa158015611553573d6000803e3d6000fd5b505050506040513d601f19601f820116820180604052508101906115779190614ea8565b905060006115858383612a01565b9050846001600160801b03168111156115b05760405162461bcd60e51b81526004016106d1906159cf565b6115b9816127e9565b98975050505050505050565b600c546001600160401b039081166000908152600f602052604081205490918291600160a01b90041643108015906116205750600c546001600160401b039081166000908152600f6020526040902054600160a01b90041615155b905080156116735760095460ff16611669576009805460ff191660011790556040517fc71028c67eb0ef128ea270a59a674629e767d51c1af44ed6753fd2fad2c7b67790600090a15b60019150506108d4565b60009150506108d4565b600080516020615ead83398151915254806116c4576040805162461bcd60e51b815260206004820152600260248201526118b160f11b604482015290519081900360640190fd5b6000600080516020615ead833981519152556116de6127c6565b62ffffff63ffffffff841611156117075760405162461bcd60e51b81526004016106d190615b69565b60006001600160a01b03831661171f575060006117a2565b6003546040516375698bb160e11b81526001600160a01b039091169063ead317629061174f90869060040161560a565b60206040518083038186803b15801561176757600080fd5b505afa15801561177b573d6000803e3d6000fd5b505050506040513d601f19601f8201168201806040525081019061179f9190615225565b90505b6040805160808101825263ffffffff8616815233602082015261ffff8316918101919091526000606082018190526117d982612c34565b90506117e6600682612c6d565b60006117f23385612a2e565b6001600160501b0319166000908152600460205260409020805460ff60801b191660ff60801b17905550506001600080516020615ead833981519152555050505050565b600080516020615ead833981519152548061187d576040805162461bcd60e51b815260206004820152600260248201526118b160f11b604482015290519081900360640190fd5b6000600080516020615ead833981519152556118976127c6565b600354604051634b18bd0f60e01b81526001600160a01b0390911690634b18bd0f906118c790339060040161560a565b60006040518083038186803b1580156118df57600080fd5b505afa1580156118f3573d6000803e3d6000fd5b50508351600092509050815b8163ffffffff168163ffffffff1610156119b857611936858263ffffffff168151811061192857fe5b602002602001015182612dd5565b848163ffffffff168151811061194857fe5b6020026020010151600001516020015183019250848163ffffffff168151811061196e57fe5b6020026020010151600001516000015163ffffffff167f0cdbd8bd7813095001c5fe7917bd69d834dc01db7c1dfcf52ca135bd2038441360405160405180910390a26001016118ff565b50600c805467ffffffffffffffff60401b1967ffffffffffffffff60801b1967ffffffffffffffff1983166001600160401b039384168701841617908116600160801b918290048416879003841690910217908116600160401b918290048316869003909216810291909117909155600680546bffffffff00000000000000001981169083900463ffffffff9081168501811684029190911791829055600e54811692909104161115611a7d5760405162461bcd60e51b81526004016106d1906159b4565b50506001600080516020615ead833981519152555050565b600080516020615ead8339815191525480611adc576040805162461bcd60e51b815260206004820152600260248201526118b160f11b604482015290519081900360640190fd5b6000600080516020615ead83398151915255600354604051634b18bd0f60e01b81526001600160a01b0390911690634b18bd0f90611b1e90339060040161560a565b60006040518083038186803b158015611b3657600080fd5b505afa158015611b4a573d6000803e3d6000fd5b5050600654845163ffffffff600160601b83048116945060009350611b7892600160401b9004168403612fa7565b90506000805b8263ffffffff168163ffffffff161015611c1d576000868263ffffffff1681518110611ba657fe5b60200260200101519050611bb981612795565b63ffffffff86166000908152600d602052604090205414611bec5760405162461bcd60e51b81526004016106d190615963565b63ffffffff85166000908152600d602090815260408220919091550151600019909401939190910190600101611b7e565b506006805463ffffffff60601b1916600160601b63ffffffff86811682029290921792839055600c805467ffffffffffffffff60801b198116600160801b918290046001600160401b0390811688900316909102179055600e5482169204161015611ca757600654600e8054600160601b90920463ffffffff1663ffffffff199092169190911790555b7f6f3a8259cce1ea2680115053d21c971aa1764295a45850f520525f2bfdf3c9d3600660089054906101000a900463ffffffff1684604051611cea929190615dbb565b60405180910390a15050506001600080516020615ead833981519152555050565b600080516020615ead8339815191525480611d52576040805162461bcd60e51b815260206004820152600260248201526118b160f11b604482015290519081900360640190fd5b6000600080516020615ead83398151915255611d7060008333612fc2565b6000336001600160a01b0316836001600160801b0316604051611d92906108d4565b60006040518083038185875af1925050503d8060008114611dcf576040519150601f19603f3d011682016040523d82523d6000602084013e611dd4565b606091505b5050905080611df55760405162461bcd60e51b81526004016106d190615a5a565b506001600080516020615ead833981519152555050565b600c54600160401b90046001600160401b031681565b600080516020615ead8339815191525480611e69576040805162461bcd60e51b815260206004820152600260248201526118b160f11b604482015290519081900360640190fd5b6000600080516020615ead8339815191528190556003546040516375698bb160e11b81526001600160a01b039091169063ead3176290611ead90879060040161560a565b60206040518083038186803b158015611ec557600080fd5b505afa158015611ed9573d6000803e3d6000fd5b505050506040513d601f19601f82011682018060405250810190611efd9190615225565b90506000611f0b3383612a2e565b6001600160501b031981166000908152600460208190526040808320549051634770d3a760e11b81529394506001600160801b0316923091638ee1a74e91611f5b918b9133918c91899101615799565b602060405180830381600087803b158015611f7557600080fd5b505af1158015611f89573d6000803e3d6000fd5b505050506040513d601f19601f82011682018060405250810190611fad9190615209565b9050611fba848233612fc2565b505050506001600080516020615ead83398151915255505050565b600080516020615ead833981519152548061201c576040805162461bcd60e51b815260206004820152600260248201526118b160f11b604482015290519081900360640190fd5b6000600080516020615ead833981519152556001600160a01b0383166120d35761204860008386612fc2565b6000846001600160a01b0316836001600160801b031660405161206a906108d4565b60006040518083038185875af1925050503d80600081146120a7576040519150601f19603f3d011682016040523d82523d6000602084013e6120ac565b606091505b50509050806120cd5760405162461bcd60e51b81526004016106d190615cfe565b50612216565b6003546040516375698bb160e11b81526000916001600160a01b03169063ead317629061210490879060040161560a565b60206040518083038186803b15801561211c57600080fd5b505afa158015612130573d6000803e3d6000fd5b505050506040513d601f19601f820116820180604052508101906121549190615225565b905060006121628683612a2e565b6001600160501b031981166000908152600460208190526040808320549051634770d3a760e11b81529394506001600160801b0316923091638ee1a74e916121b2918b918d918c91899101615799565b602060405180830381600087803b1580156121cc57600080fd5b505af11580156121e0573d6000803e3d6000fd5b505050506040513d601f19601f820116820180604052508101906122049190615209565b905061221184828a612fc2565b505050505b6001600080516020615ead8339815191525550505050565b600080516020615ead8339815191525480612275576040805162461bcd60e51b815260206004820152600260248201526118b160f11b604482015290519081900360640190fd5b6000600080516020615ead8339815191525561228f6127c6565b6003546040516375698bb160e11b81526000916001600160a01b03169063ead31762906122c090889060040161560a565b60206040518083038186803b1580156122d857600080fd5b505afa1580156122ec573d6000803e3d6000fd5b505050506040513d601f19601f820116820180604052508101906123109190615225565b60035460405163f3a65bf960e01b81529192506001600160a01b03169063f3a65bf990612341908490600401615d9b565b60206040518083038186803b15801561235957600080fd5b505afa15801561236d573d6000803e3d6000fd5b505050506040513d601f19601f820116820180604052508101906123919190614e88565b156123ae5760405162461bcd60e51b81526004016106d190615bba565b6040516370a0823160e01b81526000906001600160a01b038716906370a08231906123dd90309060040161560a565b60206040518083038186803b1580156123f557600080fd5b505afa158015612409573d6000803e3d6000fd5b505050506040513d601f19601f8201168201806040525081019061242d9190614ea8565b905061245b86333061244d896cffffffffffffffffffffffffff166127e9565b6001600160801b031661306c565b6124775760405162461bcd60e51b81526004016106d190615839565b6040516370a0823160e01b81526000906001600160a01b038816906370a08231906124a690309060040161560a565b60206040518083038186803b1580156124be57600080fd5b505afa1580156124d2573d6000803e3d6000fd5b505050506040513d601f19601f820116820180604052508101906124f69190614ea8565b9050600061250c6125078385612a01565b6127e9565b905061221184828861282c565b600080516020615ead8339815191525480612560576040805162461bcd60e51b815260206004820152600260248201526118b160f11b604482015290519081900360640190fd5b6000600080516020615ead83398151915255600061257e8786612a2e565b60095490915060ff166125a35760405162461bcd60e51b81526004016106d190615a05565b63ffffffff8616600090815260086020908152604080832061ffff8916845290915290205460ff16156125e85760405162461bcd60e51b81526004016106d190615c0b565b6125f188612795565b600654600160401b900463ffffffff166000908152600d60205260409020541461262d5760405162461bcd60e51b81526004016106d1906158f6565b600254608089015160405163c81a27ad60e01b81526000926001600160a01b03169163c81a27ad9161266c91908b908d908c908c908c9060040161574a565b60206040518083038186803b15801561268457600080fd5b505afa158015612698573d6000803e3d6000fd5b505050506040513d601f19601f820116820180604052508101906126bc9190614e88565b9050806126db5760405162461bcd60e51b81526004016106d190615a75565b6126e58286613198565b50505063ffffffff909316600090815260086020908152604080832061ffff909516835293905291909120805460ff19166001908117909155600080516020615ead8339815191525550505050565b600654600160401b900463ffffffff1681565b6000600460006127578585612a2e565b6001600160501b03191681526020810191909152604001600020546001600160801b03169392505050565b600654600160601b900463ffffffff1681565b6000816040516020016127a89190615d34565b6040516020818303038152906040528051906020012090505b919050565b60095460ff161561091b5760405162461bcd60e51b81526004016106d190615ae2565b6000600160801b8210612828576040805162461bcd60e51b8152602060048201526002602482015261189b60f11b604482015290519081900360640190fd5b5090565b60408051608081018252600080825261ffff861660208301526001600160801b038516928201929092526001600160a01b03831660608201529061286f82613236565b905061287c600182612c6d565b8461ffff167f8f5f51448394699ad6a3b80cdadf4ec68c5d724c8c3fea09bea55b3c2d0e2dd0856040516128b09190615d87565b60405180910390a25050505050565b6001600080516020615ead83398151915255565b6128db61468d565b826000015160010163ffffffff16826080015163ffffffff16146129115760405162461bcd60e51b81526004016106d190615c41565b8260600151826040015110156129395760405162461bcd60e51b81526004016106d19061586f565b604082015160009061294e4262015180612a01565b1115905060006129604261038461325d565b8460400151111590508180156129735750805b61298f5760405162461bcd60e51b81526004016106d190615b4e565b5050600080600061299f8561329c565b92509250925060006129b2878784613652565b6040805160c0810182526080808a015163ffffffff1682526001600160401b039096166020820152808201969096528701516060860152865193850193909352505060a0820152905092915050565b6000612a278383604051806040016040528060018152602001603b60f91b815250613895565b9392505050565b60a01b61ffff60a01b166001600160a01b03919091161760501b90565b6000816001600160401b0316836001600160401b031610612a6c5781612a27565b5090919050565b805160209091012060601b90565b612a896146c2565b6001612a95838261392c565b63ffffffff1683529050612aa98382613945565b61ffff1660208401529050612abe8382613955565b6001600160801b031660408401529050612ad88382613965565b6001600160a01b031660608401529050602b8114612b085760405162461bcd60e51b81526004016106d190615a90565b50919050565b604080516001600160a01b038481166024830152604480830185905283518084039091018152606490920183526020820180516001600160e01b031663a9059cbb60e01b17815292518251600094859485948a16939092909182918083835b60208310612b8c5780518252601f199092019160209182019101612b6d565b6001836020036101000a0380198251168184511680821785525050505050509050019150506000604051808303816000865af19150503d8060008114612bee576040519150601f19603f3d011682016040523d82523d6000602084013e612bf3565b606091505b50915091506000815160001480612c1d5750818060200190516020811015612c1a57600080fd5b50515b9050828015612c295750805b979650505050505050565b6060600682516020808501516040808701519051612c57959493600091016155a4565b6040516020818303038152906040529050919050565b600c544361438001906001600160401b03808216600160401b90920416016000612c9684612a73565b90506040518060600160405280826bffffffffffffffffffffffff19168152602001846001600160401b03168152602001866009811115612cd357fe5b90526001600160401b038084166000908152600f60209081526040918290208451815492860151909416600160a01b0267ffffffffffffffff60a01b1960609590951c6001600160a01b03199093169290921793909316178083559083015190829060ff60e01b1916600160e01b836009811115612d4d57fe5b02179055509050507fd0943372c08b438a88d4b39d77216901079eda9ca59d45349841c099083b683033838787876001600160401b0316604051612d9595949392919061561e565b60405180910390a15050600c805460016001600160401b03600160401b808404821692909201160267ffffffffffffffff60401b19909116179055505050565b81515163ffffffff166000908152600d60205260409020548251612df890612795565b14612e155760405162461bcd60e51b81526004016106d190615a20565b600654825151600160401b90910463ffffffff90811683016001018116911614612e515760405162461bcd60e51b81526004016106d190615d19565b600080516020615e8d83398151915260005b8360200151518163ffffffff161015612f8257600084602001518263ffffffff1681518110612e8e57fe5b60200260200101519050600081600081518110612ea757fe5b016020015160f81c6009811115612eba57fe5b90506003816009811115612eca57fe5b1415612efa576000612edb83613975565b9050612ef48160000151826040015183602001516139ce565b50612f69565b6008816009811115612f0857fe5b1415612f19576000612edb83613b6d565b6006816009811115612f2757fe5b1415612f51576000612f3883613b81565b9050612ef48160400151826020015183606001516139ce565b60405162461bcd60e51b81526004016106d190615a3f565b612f738483613c08565b93505050806001019050612e63565b508251604001518114610d9c5760405162461bcd60e51b81526004016106d190615c77565b60008163ffffffff168363ffffffff1610612a6c5781612a27565b6000612fce8285612a2e565b6001600160501b031981166000908152600460205260409020549091506001600160801b0316612ffe8185613c17565b6001600160501b031983166000908152600460205260409081902080546001600160801b0319166001600160801b0393909316929092179091555161ffff8616907ff4bf32c167ee6e782944cd1db8174729b46adcd3bc732e282cc4a80793933154906128b0908790615d87565b604080516001600160a01b0385811660248301528481166044830152606480830185905283518084039091018152608490920183526020820180516001600160e01b03166323b872dd60e01b17815292518251600094859485948b16939092909182918083835b602083106130f25780518252601f1990920191602091820191016130d3565b6001836020036101000a0380198251168184511680821785525050505050509050019150506000604051808303816000865af19150503d8060008114613154576040519150601f19603f3d011682016040523d82523d6000602084013e613159565b606091505b50915091506000815160001480613183575081806020019051602081101561318057600080fd5b50515b90508280156115b95750979650505050505050565b6001600160501b03198216600090815260046020526040908190205481518083019092526001600160801b031690806131d18385613c3e565b6001600160801b03908116825260ff60209283018190526001600160501b031990961660009081526004835260409020835181549490930151909616600160801b0260ff60801b19929091166001600160801b03199093169290921716179092555050565b6060600160208084015160408086015160608701519151612c579594600094939101615541565b600082820183811015612a27576040805162461bcd60e51b81526020600482015260026024820152610c4d60f21b604482015290519081900360640190fd5b6020810151600c548151600080516020615e8d833981519152926000926060926001600160401b03808316600160801b90930416919091019060099006156132f65760405162461bcd60e51b81526004016106d1906157e8565b8151600990046001600160401b038111801561331157600080fd5b506040519080825280601f01601f19166020018201604052801561333c576020820181803683370190505b50925060005b8660600151518110156136485760008760600151828151811061336157fe5b602002602001015190506000816020015163ffffffff1690508451811061339a5760405162461bcd60e51b81526004016106d190615911565b60098106156133bb5760405162461bcd60e51b81526004016106d19061588a565b60006009820490508681815181106133cf57fe5b01602001516001600160f81b031916156133fb5760405162461bcd60e51b81526004016106d1906157cd565b600160f81b87828151811061340c57fe5b60200101906001600160f81b031916908160001a905350600086838151811061343157fe5b016020015160f81c600981111561344457fe5b9050600181600981111561345457fe5b141561349057600061346888856036613c89565b9050600061347582612a81565b9050613483818c8a01613d45565b5050600190980197613639565b600781600981111561349e57fe5b14156135835760006134b288856036613c89565b905060006134bf82613dd5565b865151909150156134ff5760006134da876000015183613e45565b9050806134f95760405162461bcd60e51b81526004016106d190615a5a565b5061357c565b600081602001516040516020016135169190615330565b60408051601f198184030181529181528151602092830120848201516001600160a01b03166000908152600a8452828120606087015163ffffffff1682529093529120541490508061357a5760405162461bcd60e51b81526004016106d190615999565b505b5050613639565b6060600382600981111561359357fe5b14156135ac576135a588856036613c89565b905061362b565b60088260098111156135ba57fe5b14156135cc576135a588856036613c89565b60068260098111156135da57fe5b1415613613576135ec88856036613c89565b905060006135f982613b81565b9050613607818c8a01613ee4565b5060019099019861362b565b60405162461bcd60e51b81526004016106d190615cc8565b6136358b82613c08565b9a50505b50505050806001019050613342565b5050509193909250565b6000806002846080015163ffffffff168560a0015163ffffffff1660405160200161367e92919061535d565b60408051601f19818403018152908290526136989161537b565b602060405180830381855afa1580156136b5573d6000803e3d6000fd5b5050506040513d601f19601f820116820180604052508101906136d89190614ea8565b905060028186608001516040516020016136f392919061535d565b60408051601f198184030181529082905261370d9161537b565b602060405180830381855afa15801561372a573d6000803e3d6000fd5b5050506040513d601f19601f8201168201806040525081019061374d9190614ea8565b845160405191925060029161376691849160200161535d565b60408051601f19818403018152908290526137809161537b565b602060405180830381855afa15801561379d573d6000803e3d6000fd5b5050506040513d601f19601f820116820180604052508101906137c09190614ea8565b905060028185604001516040516020016137db92919061535d565b60408051601f19818403018152908290526137f59161537b565b602060405180830381855afa158015613812573d6000803e3d6000fd5b5050506040513d601f19601f820116820180604052508101906138359190614ea8565b90506000846020015184604051602001613850929190615397565b60405160208183030381529060405290506040518151838352602082602083018560025afa81845280801561388457613886565bfe5b50509051979650505050505050565b600081848411156139245760405162461bcd60e51b81526004018080602001828103825283818151815260200191508051906020019080838360005b838110156138e95781810151838201526020016138d1565b50505050905090810190601f1680156139165780820380516001836020036101000a031916815260200191505b509250505060405180910390fd5b505050900390565b60048101600061393c8484613f74565b90509250929050565b60028101600061393c8484613fc2565b60108101600061393c8484614005565b60148101600061393c8484614048565b61397d6146e9565b60056139898382613945565b61ffff168352905061399b8382613955565b6001600160801b0316602084015260020190506139b88382613965565b6001600160a01b03166040840152509092915050565b60006139da8385612a2e565b9050600061ffff8516613a0357836139fb816001600160801b03861661408b565b915050613b15565b6003546040516310603dad60e01b81526000916001600160a01b0316906310603dad90613a34908990600401615d9b565b60206040518083038186803b158015613a4c57600080fd5b505afa158015613a60573d6000803e3d6000fd5b505050506040513d601f19601f82011682018060405250810190613a849190614b33565b604051634770d3a760e11b81529091503090638ee1a74e90620186a090613ab59085908a908a908190600401615799565b602060405180830381600088803b158015613acf57600080fd5b5087f193505050508015613b00575060408051601f3d908101601f19168201909252613afd91810190615209565b60015b613b0d5760009150613b13565b50600191505b505b8015613b5c578461ffff167ff4bf32c167ee6e782944cd1db8174729b46adcd3bc732e282cc4a8079393315484604051613b4f9190615d87565b60405180910390a2613b66565b613b668284613198565b5050505050565b613b756146e9565b60096139898382613945565b613b896146c2565b6001613b95838261392c565b63ffffffff1683529050613ba98382613965565b6001600160a01b031660208401529050613bc38382613945565b61ffff1660408401529050613bd88382613955565b6001600160801b031660608401529050602b8114612b085760405162461bcd60e51b81526004016106d190615bd5565b80519181526020909101902090565b6000612a27838360405180604001604052806002815260200161616160f01b8152506140f7565b60008282016001600160801b038085169082161015612a27576040805162461bcd60e51b8152602060048201526002602482015261189960f11b604482015290519081900360640190fd5b606081830184511015613cc7576040805162461bcd60e51b81526020600482015260016024820152602d60f91b604482015290519081900360640190fd5b6000826001600160401b0381118015613cdf57600080fd5b506040519080825280601f01601f191660200182016040528015613d0a576020820181803683370190505b5090508215613d3d57602081018381016020860187015b81831015613d39578051835260209283019201613d21565b5050505b949350505050565b6001600160401b0381166000908152600f6020526040902054600160e01b900460ff166001816009811115613d7657fe5b14613d935760405162461bcd60e51b81526004016106d1906158db565b6001600160401b0382166000908152600f602052604090205460601b613db9848261415c565b610d9a5760405162461bcd60e51b81526004016106d190615afd565b613ddd6146c2565b6001613de9838261392c565b63ffffffff1683529050613dfd838261418c565b6001600160601b03191660208401529050613e188382613965565b6001600160a01b031660408401529050613e32838261392c565b63ffffffff166060840152509092915050565b60008083600081518110613e5557fe5b016020015160f81c6002811115613e6857fe5b90506000816002811115613e7857fe5b1415613e9057613e88848461419c565b915050610e7b565b6001816002811115613e9e57fe5b1415613eae57613e888484614234565b6002816002811115613ebc57fe5b1415613ecc57613e88848461430c565b60405162461bcd60e51b81526004016106d19061581e565b6001600160401b0381166000908152600f6020526040902054600160e01b900460ff166006816009811115613f1557fe5b14613f325760405162461bcd60e51b81526004016106d190615b18565b6001600160401b0382166000908152600f602052604090205460601b613f588482614384565b610d9a5760405162461bcd60e51b81526004016106d190615b33565b6000808260040190508084511015613fb7576040805162461bcd60e51b81526020600482015260016024820152602b60f91b604482015290519081900360640190fd5b929092015192915050565b6000808260020190508084511015613fb7576040805162461bcd60e51b81526020600482015260016024820152601560fa1b604482015290519081900360640190fd5b6000808260100190508084511015613fb7576040805162461bcd60e51b81526020600482015260016024820152605760f81b604482015290519081900360640190fd5b6000808260140190508084511015613fb7576040805162461bcd60e51b81526020600482015260016024820152602960f91b604482015290519081900360640190fd5b600080836001600160a01b0316620186a0846040516140a9906108d4565b600060405180830381858888f193505050503d80600081146140e7576040519150601f19603f3d011682016040523d82523d6000602084013e6140ec565b606091505b509095945050505050565b6000836001600160801b0316836001600160801b0316111582906139245760405162461bcd60e51b81526020600482018181528351602484015283519092839260449091019190850190808383600083156138e95781810151838201526020016138d1565b60006001600160601b0319821661417a61417585613236565b612a73565b6001600160601b031916149392505050565b60148101600061393c848461439d565b6000806141ac84600160416143e5565b91505060008360200151846060015185600001516000801b6040516020016141d794939291906154e2565b60405160208183030381529060405280519060200120905060006141fb8383614400565b905084604001516001600160a01b0316816001600160a01b031614801561422a57506001600160a01b03811615155b9695505050505050565b600080808060016142458782613965565b9450905061425387826144c8565b9350905061426187826144c8565b60208089015160405192955092935060009261427f92879201615345565b60408051601f1981840301815290829052805160209182012092506000916142b7916001600160f81b031991899186918991016152fc565b6040516020818303038152906040528051906020012060001c905087604001516001600160a01b0316816001600160a01b03161480156142ff5750606088015163ffffffff16155b9998505050505050505050565b60008061431c84600160416143e5565b915050600061434d84602001516040516020016143399190615330565b6040516020818303038152906040526144d8565b61436261435d8660600151614599565b6144d8565b61437261435d8760000151614599565b6040516020016141d7939291906153c6565b60006001600160601b0319821661417a61417585612c34565b600081601401835110156143dc576040805162461bcd60e51b81526020600482015260016024820152605360f81b604482015290519081900360640190fd5b50016020015190565b600060606143f4858585613c89565b93909201949293505050565b6000825160411461443c576040805162461bcd60e51b81526020600482015260016024820152600560fc1b604482015290519081900360640190fd5b60008060006020860151925060408601519150606086015160001a905060018582858560405160008152602001604052604051808581526020018460ff1681526020018381526020018281526020019450505050506020604051602081039080840390855afa1580156144b3573d6000803e3d6000fd5b5050604051601f190151979650505050505050565b60208101600061393c84846145ac565b6060600082516002026001600160401b03811180156144f657600080fd5b506040519080825280601f01601f191660200182016040528015614521576020820181803683370190505b5090506020830183518101602083015b8183101561458f57825160f81c6f6665646362613938373635343332313060088260041c021c60f81b82526f66656463626139383736353433323130600882600f16021c60f81b600183015250600183019250600281019050614531565b5091949350505050565b6060610e7b8263ffffffff1660046145ef565b6000808260200190508084511015613fb7576040805162461bcd60e51b81526020600482015260016024820152605960f81b604482015290519081900360640190fd5b606060208260ff16111561462e576040805162461bcd60e51b81526020600482015260016024820152605160f81b604482015290519081900360640190fd5b8160ff166001600160401b038111801561464757600080fd5b506040519080825280601f01601f191660200182016040528015614672576020820181803683370190505b5060ff6008602094850302169390931b918301919091525090565b6040805160c081018252600080825260208201819052918101829052606081018290526080810182905260a081019190915290565b60408051608081018252600080825260208201819052918101829052606081019190915290565b604080516060810182526000808252602082018190529181019190915290565b600082601f830112614719578081fd5b8135602061472e61472983615e09565b615de6565b82815281810190858301855b8581101561476357614751898684358b0101614a0a565b8452928401929084019060010161473a565b5090979650505050505050565b600082601f830112614780578081fd5b8135602061479061472983615e09565b82815281810190858301855b858110156147635781358801604080601f19838d030112156147bc578889fd5b80518181016001600160401b0382821081831117156147d757fe5b9083528389013590808211156147eb578b8cfd5b506147fa8d8a83870101614a0a565b825250614808828401614aec565b8189015286525050928401929084019060010161479c565b600082601f830112614830578081fd5b8135602061484061472983615e09565b8281528181019085830160c08086028801850189101561485e578687fd5b865b86811015614884576148728a84614a6e565b85529385019391810191600101614860565b509198975050505050505050565b600082601f8301126148a2578081fd5b6040516102008082018281106001600160401b03821117156148c057fe5b60405281848281018710156148d3578485fd5b8492505b60108310156148f7578035825260019290920191602091820191016148d7565b509195945050505050565b600082601f830112614912578081fd5b8135602061492261472983615e09565b828152818101908583018385028701840188101561493e578586fd5b855b8581101561476357813584529284019290840190600101614940565b600082601f83011261496c578081fd5b8135602061497c61472983615e09565b8281528181019085830183850287018401881015614998578586fd5b855b8581101561476357813560ff811681146149b2578788fd5b8452928401929084019060010161499a565b60008083601f8401126149d5578182fd5b5081356001600160401b038111156149eb578182fd5b602083019150836020828501011115614a0357600080fd5b9250929050565b600082601f830112614a1a578081fd5b81356001600160401b03811115614a2d57fe5b614a40601f8201601f1916602001615de6565b818152846020838601011115614a54578283fd5b816020850160208301379081016020019190915292915050565b600060c08284031215614a7f578081fd5b60405160c081018181106001600160401b0382111715614a9b57fe5b604052905080614aaa83614aec565b8152614ab860208401614b00565b602082015260408301356040820152606083013560608201526080830135608082015260a083013560a08201525092915050565b803563ffffffff811681146127c157600080fd5b80356001600160401b03811681146127c157600080fd5b600060208284031215614b28578081fd5b8135612a2781615e52565b600060208284031215614b44578081fd5b8151612a2781615e52565b600080600060608486031215614b63578182fd5b8335614b6e81615e52565b92506020840135614b7e81615e52565b929592945050506040919091013590565b600080600060608486031215614ba3578081fd5b8335614bae81615e52565b92506020840135614bbe81615e52565b91506040840135614bce81615e67565b809150509250925092565b60008060408385031215614beb578182fd5b8235614bf681615e52565b91506020830135614c0681615e52565b809150509250929050565b60008060408385031215614c23578182fd5b8235614c2e81615e52565b91506020830135614c0681615e7c565b60008060408385031215614c50578182fd5b8235614c5b81615e52565b915061393c60208401614aec565b60006020808385031215614c7b578182fd5b82356001600160401b0380821115614c91578384fd5b818501915085601f830112614ca4578384fd5b8135614cb261472982615e09565b81815284810190848601875b84811015614d3b578135870160e080601f19838f03011215614cde578a8bfd5b604080518181018181108b82111715614cf357fe5b8252614d018f858e01614a6e565b8152918301359189831115614d14578c8dfd5b614d228f8d85870101614709565b818d015287525050509287019290870190600101614cbe565b50909998505050505050505050565b600060208284031215614d5b578081fd5b81356001600160401b03811115614d70578182fd5b613d3d84828501614820565b60008060408385031215614d8e578182fd5b82356001600160401b0380821115614da4578384fd5b614db086838701614820565b93506020850135915080821115614dc5578283fd5b908401906102808287031215614dd9578283fd5b614de360a0615de6565b823582811115614df1578485fd5b614dfd88828601614902565b825250602083013582811115614e11578485fd5b614e1d88828601614902565b602083015250604083013582811115614e34578485fd5b614e4088828601614902565b604083015250606083013582811115614e57578485fd5b614e638882860161495c565b606083015250614e768760808501614892565b60808201528093505050509250929050565b600060208284031215614e99578081fd5b81518015158114612a27578182fd5b600060208284031215614eb9578081fd5b5051919050565b60008060208385031215614ed2578182fd5b82356001600160401b03811115614ee7578283fd5b614ef3858286016149c4565b90969095509350505050565b600080600060408486031215614f13578081fd5b83356001600160401b03811115614f28578182fd5b614f34868287016149c4565b9094509250614f47905060208501614aec565b90509250925092565b60008060008060808587031215614f65578182fd5b8435614f7081615e52565b93506020850135614f8081615e52565b92506040850135614f9081615e67565b91506060850135614fa081615e67565b939692955090935050565b600080600060608486031215614fbf578081fd5b8335614fca81615e52565b925060208401356cffffffffffffffffffffffffff81168114614feb578182fd5b91506040840135614bce81615e52565b6000806040838503121561500d578182fd5b823561501881615e52565b91506020830135614c0681615e67565b6000806000806000806101608789031215615041578384fd5b61504b8888614a6e565b955060c087013561505b81615e52565b945061506960e08801614aec565b935061010087013561507a81615e7c565b925061012087013561508b81615e67565b91506101408701356001600160401b038111156150a6578182fd5b6150b289828a01614902565b9150509295509295509295565b60008060e083850312156150d1578182fd5b6150db8484614a6e565b915060c08301356001600160401b03808211156150f6578283fd5b818501915085601f830112615109578283fd5b8135602061511961472983615e09565b82815281810190858301875b858110156151dc578135880160c0818e03601f1901121561514457898afd5b61514e60c0615de6565b868201358152604082013589811115615165578b8cfd5b6151738f8983860101614a0a565b888301525060608201356040820152608082013589811115615193578b8cfd5b6151a18f8983860101614770565b6060830152506151b360a08301614aec565b60808201526151c460c08301614aec565b60a08201528552509284019290840190600101615125565b50979a909950975050505050505050565b6000602082840312156151fe578081fd5b8135612a2781615e67565b60006020828403121561521a578081fd5b8151612a2781615e67565b600060208284031215615236578081fd5b8151612a2781615e7c565b60008060408385031215615253578182fd5b614bf683614aec565b6000806040838503121561526e578182fd5b614c2e83614aec565b60008060408385031215615289578182fd5b61529283614b00565b915060208301356001600160401b038111156152ac578182fd5b6152b885828601614709565b9150509250929050565b6000815180845260208085019450808401835b838110156152f1578151875295820195908201906001016152d5565b509495945050505050565b6001600160f81b031994909416845260609290921b6001600160601b03191660018401526015830152603582015260550190565b6001600160601b031991909116815260140190565b9182526001600160601b031916602082015260340190565b918252602082015260400190565b6000828483379101908152919050565b6000825161538d818460208701615e26565b9190910192915050565b600083516153a9818460208801615e26565b8351908301906153bd818360208801615e26565b01949350505050565b60007f19457468657265756d205369676e6564204d6573736167653a0a31353200000082527f5265676973746572207a6b53796e63207075626b65793a0a0a00000000000000601d8301528451615424816036850160208901615e26565b600560f91b6036918401918201819052680dcdedcc6ca744060f60bb1b60378301528551615459816040850160208a01615e26565b60409201918201526d0c2c6c6deeadce840d2c8744060f60931b6041820152835161548b81604f840160208801615e26565b61050560f11b604f92909101918201527f4f6e6c79207369676e2074686973206d65737361676520666f7220612074727560518201526b7374656420636c69656e742160a01b6071820152607d0195945050505050565b7f19457468657265756d205369676e6564204d6573736167653a0a36300000000081526001600160601b031994909416601c8501526001600160e01b031960e093841b811660308601529190921b166034830152603882015260580190565b60f89590951b6001600160f81b03191685526001600160e01b031993909316600185015260f09190911b6001600160f01b031916600584015260801b6001600160801b031916600783015260601b6001600160601b0319166017820152602b0190565b60f89590951b6001600160f81b031916855260e09390931b6001600160e01b031916600185015260609190911b6001600160601b031916600584015260f01b6001600160f01b031916601983015260801b6001600160801b031916601b820152602b0190565b6001600160a01b0391909116815260200190565b6001600160a01b03861681526001600160401b03851660208201526000600a851061564557fe5b84604083015260a0606083015283518060a084015261566b8160c0850160208801615e26565b608083019390935250601f91909101601f19160160c001949350505050565b600061028080835261569e818401896152c2565b90506020838203818501526156b382896152c2565b84810360408601528751808252828901935090820190845b818110156156ea57845160ff16835293830193918301916001016156cb565b505084810360608601526156fe81886152c2565b9350506080840191508460005b60108110156157285781518452928201929082019060010161570b565b505050509695505050505050565b901515815260200190565b90815260200190565b86815263ffffffff861660208201526001600160a01b038516604082015261ffff841660608201526001600160801b038316608082015260c060a082018190526000906115b9908301846152c2565b6001600160a01b0394851681529290931660208301526001600160801b039081166040830152909116606082015260800190565b6020808252600190820152604360f81b604082015260600190565b6020808252600190820152604160f81b604082015260600190565b6020808252600190820152600360fc1b604082015260600190565b6020808252600190820152604760f81b604082015260600190565b6020808252600190820152606360f81b604082015260600190565b6020808252600190820152600d60fa1b604082015260600190565b6020808252600190820152606760f81b604082015260600190565b6020808252600190820152602160f91b604082015260600190565b6020808252600190820152600760fc1b604082015260600190565b6020808252600190820152603360f81b604082015260600190565b6020808252600190820152600960fb1b604082015260600190565b6020808252600190820152607560f81b604082015260600190565b602080825260029082015261413160f01b604082015260600190565b6020808252600190820152606160f81b604082015260600190565b6020808252600190820152607160f81b604082015260600190565b6020808252600190820152603960f91b604082015260600190565b6020808252600190820152603d60f91b604082015260600190565b6020808252600190820152604560f81b604082015260600190565b6020808252600190820152603760f91b604082015260600190565b6020808252600190820152603760f81b604082015260600190565b6020808252600190820152606f60f81b604082015260600190565b6020808252600190820152607360f81b604082015260600190565b602080825260059082015264065786531360dc1b604082015260600190565b6020808252600190820152601b60fa1b604082015260600190565b6020808252600190820152601160fa1b604082015260600190565b6020808252600190820152600f60fb1b604082015260600190565b6020808252600190820152602760f91b604082015260600190565b6020808252600190820152607960f81b604082015260600190565b6020808252600290820152616f3160f01b604082015260600190565b6020808252600190820152601360fa1b604082015260600190565b6020808252600190820152604960f81b604082015260600190565b6020808252600190820152602560f91b604082015260600190565b6020808252600190820152604b60f81b604082015260600190565b6020808252600190820152600d60fb1b604082015260600190565b6020808252600190820152606560f81b604082015260600190565b6020808252600190820152601960f91b604082015260600190565b6020808252600190820152603560f91b604082015260600190565b6020808252600190820152603160f91b604082015260600190565b6020808252600190820152604f60f81b604082015260600190565b6020808252600190820152603160f81b604082015260600190565b6020808252600190820152601d60fa1b604082015260600190565b6020808252600190820152603560f81b604082015260600190565b6020808252600190820152603360f91b604082015260600190565b6020808252600190820152603960f81b604082015260600190565b6020808252600190820152606d60f81b604082015260600190565b6020808252600190820152601b60f91b604082015260600190565b6020808252600190820152600760fb1b604082015260600190565b6020808252600190820152602360f91b604082015260600190565b6020808252600190820152606960f81b604082015260600190565b6020808252600190820152601960fa1b604082015260600190565b6020808252600190820152606b60f81b604082015260600190565b600060c08201905063ffffffff83511682526001600160401b03602084015116602083015260408301516040830152606083015160608301526080830151608083015260a083015160a083015292915050565b6001600160801b0391909116815260200190565b61ffff91909116815260200190565b63ffffffff91909116815260200190565b63ffffffff92831681529116602082015260400190565b6001600160401b0391909116815260200190565b6040518181016001600160401b0381118282101715615e0157fe5b604052919050565b60006001600160401b03821115615e1c57fe5b5060209081020190565b60005b83811015615e41578181015183820152602001615e29565b83811115610d9a5750506000910152565b6001600160a01b038116811461090257600080fd5b6001600160801b038116811461090257600080fd5b61ffff8116811461090257600080fdfec5d2460186f7233c927e7db2dcc703c0e500b653ca82273b7bfad8045d85a4708e94fed44239eb2314ab7a406345e6c5a8f0ccedf3b600de3d004e672c33abf4a26469706673582212200003246958a525003c0e5f779a8dc0d2878d05069f6bb32f45d52be4ab5d4ba964736f6c63430007060033",
  "linkReferences": {},
  "deployedLinkReferences": {}
}