{
  "_format": "hh-sol-artifact-1",
  "contractName": "ZkSync",
  "sourceName": "cache/solpp-generated-contracts/ZkSync.sol",
  "abi": [
    {
      "anonymous": false,
      "inputs": [
        {
          "indexed": true,
          "internalType": "uint32",
          "name": "blockNumber",
          "type": "uint32"
        }
      ],
      "name": "BlockCommit",
      "type": "event"
    },
    {
      "anonymous": false,
      "inputs": [
        {
          "indexed": true,
          "internalType": "uint32",
          "name": "blockNumber",
          "type": "uint32"
        }
      ],
      "name": "BlockVerification",
      "type": "event"
    },
    {
      "anonymous": false,
      "inputs": [
        {
          "indexed": false,
          "internalType": "uint32",
          "name": "totalBlocksVerified",
          "type": "uint32"
        },
        {
          "indexed": false,
          "internalType": "uint32",
          "name": "totalBlocksCommitted",
          "type": "uint32"
        }
      ],
      "name": "BlocksRevert",
      "type": "event"
    },
    {
      "anonymous": false,
      "inputs": [
        {
          "indexed": true,
          "internalType": "uint16",
          "name": "tokenId",
          "type": "uint16"
        },
        {
          "indexed": false,
          "internalType": "uint128",
          "name": "amount",
          "type": "uint128"
        }
      ],
      "name": "Deposit",
      "type": "event"
    },
    {
      "anonymous": false,
      "inputs": [
        {
          "indexed": true,
          "internalType": "uint32",
          "name": "zkSyncBlockId",
          "type": "uint32"
        },
        {
          "indexed": true,
          "internalType": "uint32",
          "name": "accountId",
          "type": "uint32"
        },
        {
          "indexed": false,
          "internalType": "address",
          "name": "owner",
          "type": "address"
        },
        {
          "indexed": true,
          "internalType": "uint16",
          "name": "tokenId",
          "type": "uint16"
        },
        {
          "indexed": false,
          "internalType": "uint128",
          "name": "amount",
          "type": "uint128"
        }
      ],
      "name": "DepositCommit",
      "type": "event"
    },
    {
      "anonymous": false,
      "inputs": [],
      "name": "ExodusMode",
      "type": "event"
    },
    {
      "anonymous": false,
      "inputs": [
        {
          "indexed": true,
          "internalType": "address",
          "name": "sender",
          "type": "address"
        },
        {
          "indexed": false,
          "internalType": "uint32",
          "name": "nonce",
          "type": "uint32"
        },
        {
          "indexed": false,
          "internalType": "bytes",
          "name": "fact",
          "type": "bytes"
        }
      ],
      "name": "FactAuth",
      "type": "event"
    },
    {
      "anonymous": false,
      "inputs": [
        {
          "indexed": true,
          "internalType": "uint32",
          "name": "zkSyncBlockId",
          "type": "uint32"
        },
        {
          "indexed": true,
          "internalType": "uint32",
          "name": "accountId",
          "type": "uint32"
        },
        {
          "indexed": false,
          "internalType": "address",
          "name": "owner",
          "type": "address"
        },
        {
          "indexed": true,
          "internalType": "uint16",
          "name": "tokenId",
          "type": "uint16"
        },
        {
          "indexed": false,
          "internalType": "uint128",
          "name": "amount",
          "type": "uint128"
        }
      ],
      "name": "FullExitCommit",
      "type": "event"
    },
    {
      "anonymous": false,
      "inputs": [
        {
          "indexed": false,
          "internalType": "address",
          "name": "sender",
          "type": "address"
        },
        {
          "indexed": false,
          "internalType": "uint64",
          "name": "serialId",
          "type": "uint64"
        },
        {
          "indexed": false,
          "internalType": "enum Operations.OpType",
          "name": "opType",
          "type": "uint8"
        },
        {
          "indexed": false,
          "internalType": "bytes",
          "name": "pubData",
          "type": "bytes"
        },
        {
          "indexed": false,
          "internalType": "uint256",
          "name": "expirationBlock",
          "type": "uint256"
        }
      ],
      "name": "NewPriorityRequest",
      "type": "event"
    },
    {
      "anonymous": false,
      "inputs": [
        {
          "indexed": true,
          "internalType": "uint16",
          "name": "tokenId",
          "type": "uint16"
        },
        {
          "indexed": false,
          "internalType": "uint128",
          "name": "amount",
          "type": "uint128"
        }
      ],
      "name": "Withdrawal",
      "type": "event"
    },
    {
      "anonymous": false,
      "inputs": [
        {
          "indexed": true,
          "internalType": "uint32",
          "name": "tokenId",
          "type": "uint32"
        }
      ],
      "name": "WithdrawalNFT",
      "type": "event"
    },
    {
      "inputs": [
        {
          "internalType": "contract IERC20",
          "name": "_token",
          "type": "address"
        },
        {
          "internalType": "address",
          "name": "_to",
          "type": "address"
        },
        {
          "internalType": "uint128",
          "name": "_amount",
          "type": "uint128"
        },
        {
          "internalType": "uint128",
          "name": "_maxAmount",
          "type": "uint128"
        }
      ],
      "name": "_transferERC20",
      "outputs": [
        {
          "internalType": "uint128",
          "name": "withdrawnAmount",
          "type": "uint128"
        }
      ],
      "stateMutability": "nonpayable",
      "type": "function"
    },
    {
      "inputs": [],
      "name": "activateExodusMode",
      "outputs": [
        {
          "internalType": "bool",
          "name": "",
          "type": "bool"
        }
      ],
      "stateMutability": "nonpayable",
      "type": "function"
    },
    {
      "inputs": [
        {
          "internalType": "address",
          "name": "",
          "type": "address"
        },
        {
          "internalType": "uint32",
          "name": "",
          "type": "uint32"
        }
      ],
      "name": "authFacts",
      "outputs": [
        {
          "internalType": "bytes32",
          "name": "",
          "type": "bytes32"
        }
      ],
      "stateMutability": "view",
      "type": "function"
    },
    {
      "inputs": [
        {
          "internalType": "uint64",
          "name": "_n",
          "type": "uint64"
        },
        {
          "internalType": "bytes[]",
          "name": "_depositsPubdata",
          "type": "bytes[]"
        }
      ],
      "name": "cancelOutstandingDepositsForExodusMode",
      "outputs": [],
      "stateMutability": "nonpayable",
      "type": "function"
    },
    {
      "inputs": [
        {
          "components": [
            {
              "internalType": "uint32",
              "name": "blockNumber",
              "type": "uint32"
            },
            {
              "internalType": "uint64",
              "name": "priorityOperations",
              "type": "uint64"
            },
            {
              "internalType": "bytes32",
              "name": "pendingOnchainOperationsHash",
              "type": "bytes32"
            },
            {
              "internalType": "uint256",
              "name": "timestamp",
              "type": "uint256"
            },
            {
              "internalType": "bytes32",
              "name": "stateHash",
              "type": "bytes32"
            },
            {
              "internalType": "bytes32",
              "name": "commitment",
              "type": "bytes32"
            }
          ],
          "internalType": "struct Storage.StoredBlockInfo",
          "name": "_lastCommittedBlockData",
          "type": "tuple"
        },
        {
          "components": [
            {
              "internalType": "bytes32",
              "name": "newStateHash",
              "type": "bytes32"
            },
            {
              "internalType": "bytes",
              "name": "publicData",
              "type": "bytes"
            },
            {
              "internalType": "uint256",
              "name": "timestamp",
              "type": "uint256"
            },
            {
              "components": [
                {
                  "internalType": "bytes",
                  "name": "ethWitness",
                  "type": "bytes"
                },
                {
                  "internalType": "uint32",
                  "name": "publicDataOffset",
                  "type": "uint32"
                }
              ],
              "internalType": "struct ZkSync.OnchainOperationData[]",
              "name": "onchainOperations",
              "type": "tuple[]"
            },
            {
              "internalType": "uint32",
              "name": "blockNumber",
              "type": "uint32"
            },
            {
              "internalType": "uint32",
              "name": "feeAccount",
              "type": "uint32"
            }
          ],
          "internalType": "struct ZkSync.CommitBlockInfo[]",
          "name": "_newBlocksData",
          "type": "tuple[]"
        }
      ],
      "name": "commitBlocks",
      "outputs": [],
      "stateMutability": "nonpayable",
      "type": "function"
    },
    {
      "inputs": [
        {
          "internalType": "contract IERC20",
          "name": "_token",
          "type": "address"
        },
        {
          "internalType": "uint104",
          "name": "_amount",
          "type": "uint104"
        },
        {
          "internalType": "address",
          "name": "_zkSyncAddress",
          "type": "address"
        }
      ],
      "name": "depositERC20",
      "outputs": [],
      "stateMutability": "nonpayable",
      "type": "function"
    },
    {
      "inputs": [
        {
          "internalType": "address",
          "name": "_zkSyncAddress",
          "type": "address"
        }
      ],
      "name": "depositETH",
      "outputs": [],
      "stateMutability": "payable",
      "type": "function"
    },
    {
      "inputs": [
        {
          "components": [
            {
              "components": [
                {
                  "internalType": "uint32",
                  "name": "blockNumber",
                  "type": "uint32"
                },
                {
                  "internalType": "uint64",
                  "name": "priorityOperations",
                  "type": "uint64"
                },
                {
                  "internalType": "bytes32",
                  "name": "pendingOnchainOperationsHash",
                  "type": "bytes32"
                },
                {
                  "internalType": "uint256",
                  "name": "timestamp",
                  "type": "uint256"
                },
                {
                  "internalType": "bytes32",
                  "name": "stateHash",
                  "type": "bytes32"
                },
                {
                  "internalType": "bytes32",
                  "name": "commitment",
                  "type": "bytes32"
                }
              ],
              "internalType": "struct Storage.StoredBlockInfo",
              "name": "storedBlock",
              "type": "tuple"
            },
            {
              "internalType": "bytes[]",
              "name": "pendingOnchainOpsPubdata",
              "type": "bytes[]"
            }
          ],
          "internalType": "struct ZkSync.ExecuteBlockInfo[]",
          "name": "_blocksData",
          "type": "tuple[]"
        }
      ],
      "name": "executeBlocks",
      "outputs": [],
      "stateMutability": "nonpayable",
      "type": "function"
    },
    {
      "inputs": [],
      "name": "exodusMode",
      "outputs": [
        {
          "internalType": "bool",
          "name": "",
          "type": "bool"
        }
      ],
      "stateMutability": "view",
      "type": "function"
    },
    {
      "inputs": [],
      "name": "getNoticePeriod",
      "outputs": [
        {
          "internalType": "uint256",
          "name": "",
          "type": "uint256"
        }
      ],
      "stateMutability": "pure",
      "type": "function"
    },
    {
      "inputs": [
        {
          "internalType": "address",
          "name": "_address",
          "type": "address"
        },
        {
          "internalType": "address",
          "name": "_token",
          "type": "address"
        }
      ],
      "name": "getPendingBalance",
      "outputs": [
        {
          "internalType": "uint128",
          "name": "",
          "type": "uint128"
        }
      ],
      "stateMutability": "view",
      "type": "function"
    },
    {
      "inputs": [
        {
          "internalType": "bytes",
          "name": "initializationParameters",
          "type": "bytes"
        }
      ],
      "name": "initialize",
      "outputs": [],
      "stateMutability": "nonpayable",
      "type": "function"
    },
    {
      "inputs": [],
      "name": "isReadyForUpgrade",
      "outputs": [
        {
          "internalType": "bool",
          "name": "",
          "type": "bool"
        }
      ],
      "stateMutability": "view",
      "type": "function"
    },
    {
      "inputs": [
        {
          "components": [
            {
              "internalType": "uint32",
              "name": "blockNumber",
              "type": "uint32"
            },
            {
              "internalType": "uint64",
              "name": "priorityOperations",
              "type": "uint64"
            },
            {
              "internalType": "bytes32",
              "name": "pendingOnchainOperationsHash",
              "type": "bytes32"
            },
            {
              "internalType": "uint256",
              "name": "timestamp",
              "type": "uint256"
            },
            {
              "internalType": "bytes32",
              "name": "stateHash",
              "type": "bytes32"
            },
            {
              "internalType": "bytes32",
              "name": "commitment",
              "type": "bytes32"
            }
          ],
          "internalType": "struct Storage.StoredBlockInfo[]",
          "name": "_committedBlocks",
          "type": "tuple[]"
        },
        {
          "components": [
            {
              "internalType": "uint256[]",
              "name": "recursiveInput",
              "type": "uint256[]"
            },
            {
              "internalType": "uint256[]",
              "name": "proof",
              "type": "uint256[]"
            },
            {
              "internalType": "uint256[]",
              "name": "commitments",
              "type": "uint256[]"
            },
            {
              "internalType": "uint8[]",
              "name": "vkIndexes",
              "type": "uint8[]"
            },
            {
              "internalType": "uint256[16]",
              "name": "subproofsLimbs",
              "type": "uint256[16]"
            }
          ],
          "internalType": "struct ZkSync.ProofInput",
          "name": "_proof",
          "type": "tuple"
        }
      ],
      "name": "proveBlocks",
      "outputs": [],
      "stateMutability": "nonpayable",
      "type": "function"
    },
    {
      "inputs": [
        {
          "internalType": "uint32",
          "name": "_accountId",
          "type": "uint32"
        },
        {
          "internalType": "address",
          "name": "_token",
          "type": "address"
        }
      ],
      "name": "requestFullExit",
      "outputs": [],
      "stateMutability": "nonpayable",
      "type": "function"
    },
    {
      "inputs": [
        {
          "internalType": "uint32",
          "name": "_accountId",
          "type": "uint32"
        },
        {
          "internalType": "uint32",
          "name": "_tokenId",
          "type": "uint32"
        }
      ],
      "name": "requestFullExitNFT",
      "outputs": [],
      "stateMutability": "nonpayable",
      "type": "function"
    },
    {
      "inputs": [
        {
          "components": [
            {
              "internalType": "uint32",
              "name": "blockNumber",
              "type": "uint32"
            },
            {
              "internalType": "uint64",
              "name": "priorityOperations",
              "type": "uint64"
            },
            {
              "internalType": "bytes32",
              "name": "pendingOnchainOperationsHash",
              "type": "bytes32"
            },
            {
              "internalType": "uint256",
              "name": "timestamp",
              "type": "uint256"
            },
            {
              "internalType": "bytes32",
              "name": "stateHash",
              "type": "bytes32"
            },
            {
              "internalType": "bytes32",
              "name": "commitment",
              "type": "bytes32"
            }
          ],
          "internalType": "struct Storage.StoredBlockInfo[]",
          "name": "_blocksToRevert",
          "type": "tuple[]"
        }
      ],
      "name": "revertBlocks",
      "outputs": [],
      "stateMutability": "nonpayable",
      "type": "function"
    },
    {
      "inputs": [
        {
          "internalType": "bytes",
          "name": "_pubkeyHash",
          "type": "bytes"
        },
        {
          "internalType": "uint32",
          "name": "_nonce",
          "type": "uint32"
        }
      ],
      "name": "setAuthPubkeyHash",
      "outputs": [],
      "stateMutability": "nonpayable",
      "type": "function"
    },
    {
      "inputs": [],
      "name": "totalBlocksCommitted",
      "outputs": [
        {
          "internalType": "uint32",
          "name": "",
          "type": "uint32"
        }
      ],
      "stateMutability": "view",
      "type": "function"
    },
    {
      "inputs": [],
      "name": "totalBlocksExecuted",
      "outputs": [
        {
          "internalType": "uint32",
          "name": "",
          "type": "uint32"
        }
      ],
      "stateMutability": "view",
      "type": "function"
    },
    {
      "inputs": [
        {
          "internalType": "bytes",
          "name": "upgradeParameters",
          "type": "bytes"
        }
      ],
      "name": "upgrade",
      "outputs": [],
      "stateMutability": "nonpayable",
      "type": "function"
    },
    {
      "inputs": [],
      "name": "upgradeCanceled",
      "outputs": [],
      "stateMutability": "nonpayable",
      "type": "function"
    },
    {
      "inputs": [],
      "name": "upgradeFinishes",
      "outputs": [],
      "stateMutability": "nonpayable",
      "type": "function"
    },
    {
      "inputs": [],
      "name": "upgradeNoticePeriodStarted",
      "outputs": [],
      "stateMutability": "nonpayable",
      "type": "function"
    },
    {
      "inputs": [],
      "name": "upgradePreparationStarted",
      "outputs": [],
      "stateMutability": "nonpayable",
      "type": "function"
    },
    {
      "inputs": [
        {
          "internalType": "address payable",
          "name": "_owner",
          "type": "address"
        },
        {
          "internalType": "address",
          "name": "_token",
          "type": "address"
        },
        {
          "internalType": "uint128",
          "name": "_amount",
          "type": "uint128"
        }
      ],
      "name": "withdrawPendingBalance",
      "outputs": [],
      "stateMutability": "nonpayable",
      "type": "function"
    },
    {
      "inputs": [
        {
          "internalType": "uint32",
          "name": "_tokenId",
          "type": "uint32"
        }
      ],
      "name": "withdrawPendingNFTBalance",
      "outputs": [],
      "stateMutability": "nonpayable",
      "type": "function"
    }
  ],
  "bytecode": "0x608060405234801561001057600080fd5b50615c8980620000216000396000f3fe60806040526004361061014c5760003560e01c806383981808116100bc57806383981808146102ea578063871b8ff11461030a5780638773334c1461031f5780638ae20dc9146103345780638ee1a74e14610354578063a7e7aacd14610374578063ab9b2adf14610389578063b0705b42146103a9578063b269b9ae1461030a578063b4a8498c146103c9578063d514da50146103e9578063e17376b514610409578063f223548714610429578063faf4d8cb1461044b5761014c565b806313d9787b146101515780632539464514610173578063264c0912146101935780632a3174f4146101be5780632d2da806146101e05780633b154b73146101f3578063439fab91146102085780634526929814610228578063505a757314610248578063595a5ebc146102685780635aca41f61461028857806378b91e70146102b55780637efcfe85146102ca575b600080fd5b34801561015d57600080fd5b5061017161016c36600461503f565b610460565b005b34801561017f57600080fd5b5061017161018e366004614d69565b6105d0565b34801561019f57600080fd5b506101a861062e565b6040516101b59190615597565b60405180910390f35b3480156101ca57600080fd5b506101d3610637565b6040516101b591906155a2565b6101716101ee3660046149ed565b61063d565b3480156101ff57600080fd5b50610171610685565b34801561021457600080fd5b50610171610223366004614d69565b610687565b34801561023457600080fd5b50610171610243366004614e9e565b610755565b34801561025457600080fd5b5061017161026336600461500a565b6109a5565b34801561027457600080fd5b50610171610283366004614da8565b610c48565b34801561029457600080fd5b506102a86102a3366004614aaf565b610dad565b6040516101b59190615b13565b3480156102c157600080fd5b50610171610e7e565b3480156102d657600080fd5b506101716102e536600461505a565b610e93565b3480156102f657600080fd5b50610171610305366004614c25565b61115c565b34801561031657600080fd5b506101716113b0565b34801561032b57600080fd5b506101a86113bf565b34801561034057600080fd5b506101d361034f366004614ae7565b6113c9565b34801561036057600080fd5b506102a861036f366004614df9565b6113e6565b34801561038057600080fd5b506101a8611585565b34801561039557600080fd5b506101716103a4366004615024565b61163d565b3480156103b557600080fd5b506101716103c4366004614b12565b61183c565b3480156103d557600080fd5b506101716103e4366004614bf3565b611a93565b3480156103f557600080fd5b50610171610404366004614a65565b611d08565b34801561041557600080fd5b50610171610424366004614e54565b611f61565b34801561043557600080fd5b5061043e61229f565b6040516101b59190615b36565b34801561045757600080fd5b5061043e6122b2565b600080516020615c3483398151915254806104a7576040805162461bcd60e51b815260206004820152600260248201526118b160f11b604482015290519081900360640190fd5b6000600080516020615c34833981519152556104c16122c5565b62ffffff63ffffffff841611156104f35760405162461bcd60e51b81526004016104ea9061592a565b60405180910390fd5b63ffffffff831662ffffff141561051c5760405162461bcd60e51b81526004016104ea906158f4565b63ffffffff821661ffff10801561053c5750637ffffffe63ffffffff8316105b6105585760405162461bcd60e51b81526004016104ea90615851565b604080516101008101825263ffffffff80861682523360208301528416918101919091526000606082018190526080820181905260a0820181905260c0820181905260e082018190526105aa826122e8565b90506105b7600682612329565b50506001600080516020615c3483398151915255505050565b600080516020615c348339815191525480610617576040805162461bcd60e51b815260206004820152600260248201526118b160f11b604482015290519081900360640190fd5b50506001600080516020615c348339815191525550565b60095460ff1681565b60005b90565b6001600160a01b0381811614156106665760405162461bcd60e51b81526004016104ea90615800565b61066e6122c5565b610682600061067c3461248b565b836124d2565b50565b565b61068f612565565b6000808061069f84860186614a25565b600280546001600160a01b038085166001600160a01b03199283161790925560038054928616929091169190911790556040805160c081018252600080825260208201819052600080516020615c1483398151915292820192909252606081018290526080810183905260a0810191909152929550909350915061072281612579565b60008052600d6020527f81955a0a11e65eac625c29e8882660bae4e165a75d72780094acae8ece9a29ee55505050505050565b600080516020615c34833981519152548061079c576040805162461bcd60e51b815260206004820152600260248201526118b160f11b604482015290519081900360640190fd5b6000600080516020615c34833981519152556107b66122c5565b600354604051634b18bd0f60e01b81526001600160a01b0390911690634b18bd0f906107e6903390600401615435565b60006040518083038186803b1580156107fe57600080fd5b505afa158015610812573d6000803e3d6000fd5b5050505061081f83612579565b600654600160601b900463ffffffff166000908152600d60205260409020541461085b5760405162461bcd60e51b81526004016104ea90615a6f565b60005b82518163ffffffff1610156109245761089084848363ffffffff168151811061088357fe5b60200260200101516125a9565b6020810151600c80546001600160401b03600160801b808304821690940116909202600160801b600160c01b031990921691909117905593506108d284612579565b845163ffffffff9081166000908152600d6020526040808220939093558651925192909116917f81a92942d0f9c33b897a438384c9c3d88be397776138efa3ba1a4fc8b62684249190a260010161085e565b5081516006805463ffffffff600160601b80830482169094011690920263ffffffff60601b19909216919091179055600c546001600160401b03600160401b82048116600160801b90920416111561098e5760405162461bcd60e51b81526004016104ea90615945565b6001600080516020615c3483398151915255505050565b600080516020615c3483398151915254806109ec576040805162461bcd60e51b815260206004820152600260248201526118b160f11b604482015290519081900360640190fd5b6000600080516020615c3483398151915281905563ffffffff808416825260126020908152604092839020835160c081018552815480851682526001600160a01b03600160201b82048116948301859052600160c01b909104851695820195909552600182015460608201526002909101549384166080820152600160a01b90930490911660a0830152610a925760405162461bcd60e51b81526004016104ea9061597b565b6003548151602083015160405163b79eb8c760e01b81526000936001600160a01b03169263b79eb8c792610ac892600401615b47565b60206040518083038186803b158015610ae057600080fd5b505afa158015610af4573d6000803e3d6000fd5b505050506040513d601f19601f82011682018060405250810190610b189190614a09565b9050806001600160a01b031663392bfdc083602001518460800151856040015186606001518760a001516040518663ffffffff1660e01b8152600401610b629594939291906154b5565b600060405180830381600087803b158015610b7c57600080fd5b505af1158015610b90573d6000803e3d6000fd5b5050505060a08201805163ffffffff90811660009081526011602052604080822080546001600160a01b0319166001600160a01b0387161790559251925192909116917f0b9f3586023bf754b8d962232407f7ac4d90fd19a1c4756c6619927abf0675609190a250505063ffffffff16600090815260126020526040812080546001600160e01b031916815560018082019290925560020180546001600160c01b0319169055600080516020615c3483398151915255565b60148214610c685760405162461bcd60e51b81526004016104ea90615836565b336000908152600a6020908152604080832063ffffffff85168452909152902054610ccd578282604051610c9d929190615170565b6040805191829003909120336000908152600a602090815283822063ffffffff8616835290529190912055610da8565b33600090815260106020908152604080832063ffffffff8516845290915290205480610d1b5733600090815260106020908152604080832063ffffffff861684529091529020429055610da6565b62015180610d2942836126d7565b1015610d475760405162461bcd60e51b81526004016104ea90615724565b33600090815260106020908152604080832063ffffffff861684529091528082209190915551610d7a9085908590615170565b6040805191829003909120336000908152600a602090815283822063ffffffff87168352905291909120555b505b505050565b6000806001600160a01b03831615610e42576003546040516375698bb160e11b81526001600160a01b039091169063ead3176290610def908690600401615435565b60206040518083038186803b158015610e0757600080fd5b505afa158015610e1b573d6000803e3d6000fd5b505050506040513d601f19601f82011682018060405250810190610e3f9190614fe8565b90505b60046000610e508684612704565b6001600160501b03191681526020810191909152604001600020546001600160801b03169150505b92915050565b6000805460ff19166001908117909155429055565b600080516020615c348339815191525480610eda576040805162461bcd60e51b815260206004820152600260248201526118b160f11b604482015290519081900360640190fd5b6000600080516020615c348339815191525560095460ff16610f0e5760405162461bcd60e51b81526004016104ea90615a39565b600c54600090610f2e90600160401b90046001600160401b031685612721565b90508251816001600160401b031614610f595760405162461bcd60e51b81526004016104ea906155fa565b6000816001600160401b031611610f825760405162461bcd60e51b81526004016104ea906159e8565b600c546000906001600160401b03165b600c546001600160401b039081168401811690821610156110fc5760016001600160401b0382166000908152600f6020526040902054600160e01b900460ff16600b811115610fdd57fe5b14156110ce57600085836001600160401b031681518110610ffa57fe5b6020908102919091018101516001600160401b0384166000908152600f90925260409091205490915060601b6001600160601b03191661103982612749565b6001600160601b031916146110605760405162461bcd60e51b81526004016104ea906156d3565b826001019250600061107182612757565b9050600061108782606001518360200151612704565b6040928301516001600160501b031991909116600090815260046020529290922080546001600160801b031981166001600160801b03918216909401169290921790915550505b6001600160401b0381166000908152600f6020526040902080546001600160e81b0319169055600101610f92565b5050600c8054600160401b600160801b03196001600160401b031982166001600160401b039283168501831617908116600160401b918290048316949094039091160291909117905550506001600080516020615c348339815191525550565b600080516020615c3483398151915254806111a3576040805162461bcd60e51b815260206004820152600260248201526118b160f11b604482015290519081900360640190fd5b6000600080516020615c34833981519152819055600e5463ffffffff16905b84518110156112905763ffffffff60018301166000908152600d60205260409020548551611203908790849081106111f657fe5b6020026020010151612579565b146112205760405162461bcd60e51b81526004016104ea9061586c565b8160010191506001600160fd1b0385828151811061123a57fe5b602002602001015160a0015160001c166001600160fd1b038560400151838151811061126257fe5b602002602001015116146112885760405162461bcd60e51b81526004016104ea90615790565b6001016111c2565b506002548351602085015160608601516040808801516080890151915163054185eb60e51b81526000966001600160a01b03169563a830bd60956112dc959194909391926004016154eb565b60206040518083038186803b1580156112f457600080fd5b505afa158015611308573d6000803e3d6000fd5b505050506040513d601f19601f8201168201806040525081019061132c9190614d31565b90508061134b5760405162461bcd60e51b81526004016104ea90615681565b60065463ffffffff600160601b9091048116908316111561137e5760405162461bcd60e51b81526004016104ea906156ee565b50600e805463ffffffff191663ffffffff9290921691909117905550506001600080516020615c348339815191525550565b6000805460ff19168155600155565b60095460ff161590565b600a60209081526000928352604080842090915290825290205481565b60003330146114075760405162461bcd60e51b81526004016104ea906159b2565b6040516370a0823160e01b81526000906001600160a01b038716906370a0823190611436903090600401615435565b60206040518083038186803b15801561144e57600080fd5b505afa158015611462573d6000803e3d6000fd5b505050506040513d601f19601f820116820180604052508101906114869190614d51565b905061149c8686866001600160801b03166127e6565b6114b85760405162461bcd60e51b81526004016104ea90615a1e565b6040516370a0823160e01b81526000906001600160a01b038816906370a08231906114e7903090600401615435565b60206040518083038186803b1580156114ff57600080fd5b505afa158015611513573d6000803e3d6000fd5b505050506040513d601f19601f820116820180604052508101906115379190614d51565b9050600061154583836126d7565b9050846001600160801b03168111156115705760405162461bcd60e51b81526004016104ea90615775565b6115798161248b565b98975050505050505050565b600c546001600160401b039081166000908152600f602052604081205490918291600160a01b90041643108015906115e05750600c546001600160401b039081166000908152600f6020526040902054600160a01b90041615155b905080156116335760095460ff16611629576009805460ff191660011790556040517fc71028c67eb0ef128ea270a59a674629e767d51c1af44ed6753fd2fad2c7b67790600090a15b600191505061063a565b600091505061063a565b600080516020615c348339815191525480611684576040805162461bcd60e51b815260206004820152600260248201526118b160f11b604482015290519081900360640190fd5b6000600080516020615c348339815191525561169e6122c5565b62ffffff63ffffffff841611156116c75760405162461bcd60e51b81526004016104ea9061592a565b63ffffffff831662ffffff14156116f05760405162461bcd60e51b81526004016104ea906158f4565b60006001600160a01b0383166117085750600061178b565b6003546040516375698bb160e11b81526001600160a01b039091169063ead3176290611738908690600401615435565b60206040518083038186803b15801561175057600080fd5b505afa158015611764573d6000803e3d6000fd5b505050506040513d601f19601f820116820180604052508101906117889190614fe8565b90505b604080516101008101825263ffffffff8616815233602082015261ffff8316918101919091526000606082018190526080820181905260a0820181905260c0820181905260e082018190526117df826122e8565b90506117ec600682612329565b60006117f83385612704565b6001600160501b0319166000908152600460205260409020805460ff60801b191660ff60801b17905550506001600080516020615c34833981519152555050505050565b600080516020615c348339815191525480611883576040805162461bcd60e51b815260206004820152600260248201526118b160f11b604482015290519081900360640190fd5b6000600080516020615c348339815191525561189d6122c5565b600354604051634b18bd0f60e01b81526001600160a01b0390911690634b18bd0f906118cd903390600401615435565b60006040518083038186803b1580156118e557600080fd5b505afa1580156118f9573d6000803e3d6000fd5b50508351600092509050815b8163ffffffff168163ffffffff1610156119be5761193c858263ffffffff168151811061192e57fe5b60200260200101518261290c565b848163ffffffff168151811061194e57fe5b6020026020010151600001516020015183019250848163ffffffff168151811061197457fe5b6020026020010151600001516000015163ffffffff167f0cdbd8bd7813095001c5fe7917bd69d834dc01db7c1dfcf52ca135bd2038441360405160405180910390a2600101611905565b50600c8054600160401b600160801b0319600160801b600160c01b03196001600160401b031983166001600160401b039384168701841617908116600160801b918290048416879003841690910217908116600160401b9182900483168690039092168102919091179091556006805463ffffffff60401b1981169083900463ffffffff9081168501811684029190911791829055600e54811692909104161115611a7b5760405162461bcd60e51b81526004016104ea9061575a565b50506001600080516020615c34833981519152555050565b600080516020615c348339815191525480611ada576040805162461bcd60e51b815260206004820152600260248201526118b160f11b604482015290519081900360640190fd5b6000600080516020615c3483398151915255600354604051634b18bd0f60e01b81526001600160a01b0390911690634b18bd0f90611b1c903390600401615435565b60006040518083038186803b158015611b3457600080fd5b505afa158015611b48573d6000803e3d6000fd5b5050600654845163ffffffff600160601b83048116945060009350611b7692600160401b9004168403612bb9565b90506000805b8263ffffffff168163ffffffff161015611c1b576000868263ffffffff1681518110611ba457fe5b60200260200101519050611bb781612579565b63ffffffff86166000908152600d602052604090205414611bea5760405162461bcd60e51b81526004016104ea90615709565b63ffffffff85166000908152600d602090815260408220919091550151600019909401939190910190600101611b7c565b506006805463ffffffff60601b1916600160601b63ffffffff86811682029290921792839055600c8054600160801b600160c01b03198116600160801b918290046001600160401b0390811688900316909102179055600e5482169204161015611ca457600654600e8054600160601b90920463ffffffff1663ffffffff199092169190911790555b7f6f3a8259cce1ea2680115053d21c971aa1764295a45850f520525f2bfdf3c9d3600660089054906101000a900463ffffffff1684604051611ce7929190615b66565b60405180910390a15050506001600080516020615c34833981519152555050565b600080516020615c348339815191525480611d4f576040805162461bcd60e51b815260206004820152600260248201526118b160f11b604482015290519081900360640190fd5b6000600080516020615c34833981519152556001600160a01b038316611e0657611d7b60008386612bd4565b6000846001600160a01b0316836001600160801b0316604051611d9d9061063a565b60006040518083038185875af1925050503d8060008114611dda576040519150601f19603f3d011682016040523d82523d6000602084013e611ddf565b606091505b5050905080611e005760405162461bcd60e51b81526004016104ea90615a8a565b50611f49565b6003546040516375698bb160e11b81526000916001600160a01b03169063ead3176290611e37908790600401615435565b60206040518083038186803b158015611e4f57600080fd5b505afa158015611e63573d6000803e3d6000fd5b505050506040513d601f19601f82011682018060405250810190611e879190614fe8565b90506000611e958683612704565b6001600160501b031981166000908152600460208190526040808320549051634770d3a760e11b81529394506001600160801b0316923091638ee1a74e91611ee5918b918d918c918991016155ab565b602060405180830381600087803b158015611eff57600080fd5b505af1158015611f13573d6000803e3d6000fd5b505050506040513d601f19601f82011682018060405250810190611f379190614fcc565b9050611f4484828a612bd4565b505050505b6001600080516020615c348339815191525550505050565b600080516020615c348339815191525480611fa8576040805162461bcd60e51b815260206004820152600260248201526118b160f11b604482015290519081900360640190fd5b6000600080516020615c34833981519152556001600160a01b038281161415611fe35760405162461bcd60e51b81526004016104ea90615800565b611feb6122c5565b6003546040516375698bb160e11b81526000916001600160a01b03169063ead317629061201c908890600401615435565b60206040518083038186803b15801561203457600080fd5b505afa158015612048573d6000803e3d6000fd5b505050506040513d601f19601f8201168201806040525081019061206c9190614fe8565b60035460405163f3a65bf960e01b81529192506001600160a01b03169063f3a65bf99061209d908490600401615b27565b60206040518083038186803b1580156120b557600080fd5b505afa1580156120c9573d6000803e3d6000fd5b505050506040513d601f19601f820116820180604052508101906120ed9190614d31565b1561210a5760405162461bcd60e51b81526004016104ea90615960565b6040516370a0823160e01b81526000906001600160a01b038716906370a0823190612139903090600401615435565b60206040518083038186803b15801561215157600080fd5b505afa158015612165573d6000803e3d6000fd5b505050506040513d601f19601f820116820180604052508101906121899190614d51565b90506121b18633306121a3896001600160681b031661248b565b6001600160801b0316612c7e565b6121cd5760405162461bcd60e51b81526004016104ea90615630565b6040516370a0823160e01b81526000906001600160a01b038816906370a08231906121fc903090600401615435565b60206040518083038186803b15801561221457600080fd5b505afa158015612228573d6000803e3d6000fd5b505050506040513d601f19601f8201168201806040525081019061224c9190614d51565b9050600061226261225d83856126d7565b61248b565b90506001600160681b036001600160801b03821611156122945760405162461bcd60e51b81526004016104ea906155df565b611f448482886124d2565b600654600160401b900463ffffffff1681565b600654600160601b900463ffffffff1681565b60095460ff16156106855760405162461bcd60e51b81526004016104ea90615888565b60606006825160208085015160408087015190516123139594936000918291829182918291016153a0565b6040516020818303038152906040529050919050565b600c544361438001906001600160401b03808216600160401b9092041601600061235284612749565b90506040518060600160405280826001600160601b0319168152602001846001600160401b0316815260200186600b81111561238a57fe5b90526001600160401b038084166000908152600f60209081526040918290208451815492860151909416600160a01b0267ffffffffffffffff60a01b1960609590951c6001600160a01b03199093169290921793909316178083559083015190829060ff60e01b1916600160e01b83600b81111561240457fe5b02179055509050507fd0943372c08b438a88d4b39d77216901079eda9ca59d45349841c099083b683033838787876001600160401b031660405161244c959493929190615449565b60405180910390a15050600c805460016001600160401b03600160401b8084048216929092011602600160401b600160801b0319909116179055505050565b6000600160801b82106124ca576040805162461bcd60e51b8152602060048201526002602482015261189b60f11b604482015290519081900360640190fd5b50805b919050565b60408051608081018252600080825261ffff861660208301526001600160801b038516928201929092526001600160a01b03831660608201529061251582612daa565b9050612522600182612329565b8461ffff167f8f5f51448394699ad6a3b80cdadf4ec68c5d724c8c3fea09bea55b3c2d0e2dd0856040516125569190615b13565b60405180910390a25050505050565b6001600080516020615c3483398151915255565b60008160405160200161258c9190615ac0565b604051602081830303815290604052805190602001209050919050565b6125b161451f565b826000015160010163ffffffff16826080015163ffffffff16146125e75760405162461bcd60e51b81526004016104ea906159cd565b82606001518260400151101561260f5760405162461bcd60e51b81526004016104ea9061564b565b604082015160009061262442620151806126d7565b11159050600061263642610384612dd1565b8460400151111590508180156126495750805b6126655760405162461bcd60e51b81526004016104ea9061590f565b5050600080600061267585612e10565b92509250925060006126888787846131e6565b6040805160c0810182526080808a015163ffffffff1682526001600160401b039096166020820152808201969096528701516060860152865193850193909352505060a0820152905092915050565b60006126fd8383604051806040016040528060018152602001603b60f91b815250613429565b9392505050565b60a01b61ffff60a01b166001600160a01b03919091161760501b90565b6000816001600160401b0316836001600160401b03161061274257816126fd565b5090919050565b805160209091012060601b90565b61275f614554565b600161276b83826134c0565b63ffffffff168352905061277f83826134c0565b63ffffffff166020840152905061279683826134d9565b6001600160801b0316604084015290506127b083826134e9565b6001600160a01b031660608401529050602d81146127e05760405162461bcd60e51b81526004016104ea9061581b565b50919050565b604080516001600160a01b038481166024830152604480830185905283518084039091018152606490920183526020820180516001600160e01b031663a9059cbb60e01b17815292518251600094859485948a16939092909182918083835b602083106128645780518252601f199092019160209182019101612845565b6001836020036101000a0380198251168184511680821785525050505050509050019150506000604051808303816000865af19150503d80600081146128c6576040519150601f19603f3d011682016040523d82523d6000602084013e6128cb565b606091505b509150915060008151600014806128f557508180602001905160208110156128f257600080fd5b50515b90508280156129015750805b979650505050505050565b81515163ffffffff166000908152600d6020526040902054825161292f90612579565b1461294c5760405162461bcd60e51b81526004016104ea906157ab565b600654825151600160401b90910463ffffffff908116830160010181169116146129885760405162461bcd60e51b81526004016104ea90615aa5565b600080516020615c1483398151915260005b8360200151518163ffffffff161015612b9457600084602001518263ffffffff16815181106129c557fe5b602002602001015190506000816000815181106129de57fe5b016020015160f81c600b8111156129f157fe5b9050600381600b811115612a0157fe5b1415612a31576000612a12836134f9565b9050612a2b816000015182604001518360200151613554565b50612b7b565b600881600b811115612a3f57fe5b1415612a50576000612a12836136f3565b600681600b811115612a5e57fe5b1415612b39576000612a6f83613707565b905061ffff63ffffffff16816040015163ffffffff1611612aa657612aa1816040015182602001518360600151613554565b612a2b565b80606001516001600160801b031660011415612a2b5760006040518060c00160405280836080015163ffffffff1681526020018360a001516001600160a01b031681526020018360c0015163ffffffff1681526020018360e00151815260200183602001516001600160a01b03168152602001836040015163ffffffff168152509050612b32816137e9565b5050612b7b565b600a81600b811115612b4757fe5b1415612b63576000612b5883613a11565b9050612a2b816137e9565b60405162461bcd60e51b81526004016104ea906157ca565b612b858483613aa8565b9350505080600101905061299a565b508251604001518114610da85760405162461bcd60e51b81526004016104ea90615a03565b60008163ffffffff168363ffffffff161061274257816126fd565b6000612be08285612704565b6001600160501b031981166000908152600460205260409020549091506001600160801b0316612c108185613ab7565b6001600160501b031983166000908152600460205260409081902080546001600160801b0319166001600160801b0393909316929092179091555161ffff8616907ff4bf32c167ee6e782944cd1db8174729b46adcd3bc732e282cc4a8079393315490612556908790615b13565b604080516001600160a01b0385811660248301528481166044830152606480830185905283518084039091018152608490920183526020820180516001600160e01b03166323b872dd60e01b17815292518251600094859485948b16939092909182918083835b60208310612d045780518252601f199092019160209182019101612ce5565b6001836020036101000a0380198251168184511680821785525050505050509050019150506000604051808303816000865af19150503d8060008114612d66576040519150601f19603f3d011682016040523d82523d6000602084013e612d6b565b606091505b50915091506000815160001480612d955750818060200190516020811015612d9257600080fd5b50515b90508280156115795750979650505050505050565b60606001602080840151604080860151606087015191516123139594600094939101615342565b6000828201838110156126fd576040805162461bcd60e51b81526020600482015260026024820152610c4d60f21b604482015290519081900360640190fd5b6020810151600c548151600080516020615c14833981519152926000926060926001600160401b03808316600160801b909304169190910190600a900615612e6a5760405162461bcd60e51b81526004016104ea906155fa565b8151600a90046001600160401b0381118015612e8557600080fd5b506040519080825280601f01601f191660200182016040528015612eb0576020820181803683370190505b50925060005b8660600151518110156131dc57600087606001518281518110612ed557fe5b602002602001015190506000816020015163ffffffff16905084518110612f0e5760405162461bcd60e51b81526004016104ea906156b7565b600a810615612f2f5760405162461bcd60e51b81526004016104ea90615666565b6000600a82049050868181518110612f4357fe5b01602001516001600160f81b03191615612f6f5760405162461bcd60e51b81526004016104ea906155df565b600160f81b878281518110612f8057fe5b60200101906001600160f81b031916908160001a9053506000868381518110612fa557fe5b016020015160f81c600b811115612fb857fe5b9050600181600b811115612fc857fe5b1415613004576000612fdc8885603c613ade565b90506000612fe982612757565b9050612ff7818c8a01613b9a565b50506001909801976131cd565b600781600b81111561301257fe5b14156130f75760006130268885603c613ade565b9050600061303382613c2a565b8651519091501561307357600061304e876000015183613c9a565b90508061306d5760405162461bcd60e51b81526004016104ea906157e5565b506130f0565b6000816020015160405160200161308a9190615135565b60408051601f198184030181529181528151602092830120848201516001600160a01b03166000908152600a8452828120606087015163ffffffff168252909352912054149050806130ee5760405162461bcd60e51b81526004016104ea9061573f565b505b50506131cd565b6060600382600b81111561310757fe5b1415613120576131198885603c613ade565b90506131bf565b600882600b81111561312e57fe5b1415613140576131198885603c613ade565b600a82600b81111561314e57fe5b14156131605761311988856064613ade565b600682600b81111561316e57fe5b14156131a7576131808885606e613ade565b9050600061318d82613707565b905061319b818c8a01613d39565b506001909901986131bf565b60405162461bcd60e51b81526004016104ea90615a54565b6131c98b82613aa8565b9a50505b50505050806001019050612eb6565b5050509193909250565b6000806002846080015163ffffffff168560a0015163ffffffff16604051602001613212929190615162565b60408051601f198184030181529082905261322c91615180565b602060405180830381855afa158015613249573d6000803e3d6000fd5b5050506040513d601f19601f8201168201806040525081019061326c9190614d51565b90506002818660800151604051602001613287929190615162565b60408051601f19818403018152908290526132a191615180565b602060405180830381855afa1580156132be573d6000803e3d6000fd5b5050506040513d601f19601f820116820180604052508101906132e19190614d51565b84516040519192506002916132fa918491602001615162565b60408051601f198184030181529082905261331491615180565b602060405180830381855afa158015613331573d6000803e3d6000fd5b5050506040513d601f19601f820116820180604052508101906133549190614d51565b9050600281856040015160405160200161336f929190615162565b60408051601f198184030181529082905261338991615180565b602060405180830381855afa1580156133a6573d6000803e3d6000fd5b5050506040513d601f19601f820116820180604052508101906133c99190614d51565b905060008460200151846040516020016133e492919061519c565b60405160208183030381529060405290506040518151838352602082602083018560025afa8184528080156134185761341a565bfe5b50509051979650505050505050565b600081848411156134b85760405162461bcd60e51b81526004018080602001828103825283818151815260200191508051906020019080838360005b8381101561347d578181015183820152602001613465565b50505050905090810190601f1680156134aa5780820380516001836020036101000a031916815260200191505b509250505060405180910390fd5b505050900390565b6004810160006134d08484613dc9565b90509250929050565b6010810160006134d08484613e17565b6014810160006134d08484613e5a565b61350161457b565b600561350d83826134c0565b63ffffffff168352905061352183826134d9565b6001600160801b03166020840152600201905061353e83826134e9565b6001600160a01b03166040840152509092915050565b60006135608385612704565b9050600061ffff85166135895783613581816001600160801b038616613e9d565b91505061369b565b6003546040516310603dad60e01b81526000916001600160a01b0316906310603dad906135ba908990600401615b27565b60206040518083038186803b1580156135d257600080fd5b505afa1580156135e6573d6000803e3d6000fd5b505050506040513d601f19601f8201168201806040525081019061360a9190614a09565b604051634770d3a760e11b81529091503090638ee1a74e90620186a09061363b9085908a908a9081906004016155ab565b602060405180830381600088803b15801561365557600080fd5b5087f193505050508015613686575060408051601f3d908101601f1916820190925261368391810190614fcc565b60015b6136935760009150613699565b50600191505b505b80156136e2578461ffff167ff4bf32c167ee6e782944cd1db8174729b46adcd3bc732e282cc4a80793933154846040516136d59190615b13565b60405180910390a26136ec565b6136ec8284613f09565b5050505050565b6136fb61457b565b600961350d83826134c0565b61370f61459b565b600161371b83826134c0565b63ffffffff168352905061372f83826134e9565b6001600160a01b03166020840152905061374983826134c0565b63ffffffff166040840152905061376083826134d9565b6001600160801b03166060840152905061377a83826134c0565b63ffffffff166080840152905061379183826134e9565b6001600160a01b031660a084015290506137ab83826134c0565b63ffffffff1660c084015290506137c28382613fa7565b60e08401529050606981146127e05760405162461bcd60e51b81526004016104ea90615997565b6003548151602083015160405163b79eb8c760e01b81526000936001600160a01b03169263b79eb8c79261381f92600401615b47565b60206040518083038186803b15801561383757600080fd5b505afa15801561384b573d6000803e3d6000fd5b505050506040513d601f19601f8201168201806040525081019061386f9190614a09565b9050806001600160a01b031663392bfdc0620186a084602001518560800151866040015187606001518860a001516040518763ffffffff1660e01b81526004016138bd9594939291906154b5565b600060405180830381600088803b1580156138d757600080fd5b5087f1935050505080156138e9575060015b6139a95760a08201805163ffffffff90811660009081526012602090815260409182902086518154928801519388015163ffffffff1990931690851617600160201b600160c01b031916600160201b6001600160a01b03948516021763ffffffff60c01b1916600160c01b928516929092029190911781556060860151600182015560808601516002909101805494516001600160a01b0319909516919092161763ffffffff60a01b1916600160a01b9390921692909202179055613a0d565b60a08201805163ffffffff90811660009081526011602052604080822080546001600160a01b0319166001600160a01b0387161790559251925192909116917f0b9f3586023bf754b8d962232407f7ac4d90fd19a1c4756c6619927abf0675609190a25b5050565b613a1961451f565b6005613a2583826134c0565b63ffffffff1683529050613a3983826134e9565b6001600160a01b031660208401529050613a5383826134c0565b63ffffffff1660408401529050613a6a8382613fa7565b60608401529050613a7b83826134e9565b6001600160a01b031660808401529050613a9583826134c0565b63ffffffff1660a0840152509092915050565b80519181526020909101902090565b60006126fd838360405180604001604052806002815260200161616160f01b815250613fb7565b606081830184511015613b1c576040805162461bcd60e51b81526020600482015260016024820152602d60f91b604482015290519081900360640190fd5b6000826001600160401b0381118015613b3457600080fd5b506040519080825280601f01601f191660200182016040528015613b5f576020820181803683370190505b5090508215613b9257602081018381016020860187015b81831015613b8e578051835260209283019201613b76565b5050505b949350505050565b6001600160401b0381166000908152600f6020526040902054600160e01b900460ff16600181600b811115613bcb57fe5b14613be85760405162461bcd60e51b81526004016104ea9061569c565b6001600160401b0382166000908152600f602052604090205460601b613c0e848261401c565b610da65760405162461bcd60e51b81526004016104ea906158a3565b613c32614554565b6001613c3e83826134c0565b63ffffffff1683529050613c52838261404c565b6001600160601b03191660208401529050613c6d83826134e9565b6001600160a01b031660408401529050613c8783826134c0565b63ffffffff166060840152509092915050565b60008083600081518110613caa57fe5b016020015160f81c6002811115613cbd57fe5b90506000816002811115613ccd57fe5b1415613ce557613cdd848461405c565b915050610e78565b6001816002811115613cf357fe5b1415613d0357613cdd84846140f4565b6002816002811115613d1157fe5b1415613d2157613cdd84846141cc565b60405162461bcd60e51b81526004016104ea90615615565b6001600160401b0381166000908152600f6020526040902054600160e01b900460ff16600681600b811115613d6a57fe5b14613d875760405162461bcd60e51b81526004016104ea906158be565b6001600160401b0382166000908152600f602052604090205460601b613dad8482614244565b610da65760405162461bcd60e51b81526004016104ea906158d9565b6000808260040190508084511015613e0c576040805162461bcd60e51b81526020600482015260016024820152602b60f91b604482015290519081900360640190fd5b929092015192915050565b6000808260100190508084511015613e0c576040805162461bcd60e51b81526020600482015260016024820152605760f81b604482015290519081900360640190fd5b6000808260140190508084511015613e0c576040805162461bcd60e51b81526020600482015260016024820152602960f91b604482015290519081900360640190fd5b600080836001600160a01b0316620186a084604051613ebb9061063a565b600060405180830381858888f193505050503d8060008114613ef9576040519150601f19603f3d011682016040523d82523d6000602084013e613efe565b606091505b509095945050505050565b6001600160501b03198216600090815260046020526040908190205481518083019092526001600160801b03169080613f42838561425d565b6001600160801b03908116825260ff60209283018190526001600160501b031990961660009081526004835260409020835181549490930151909616600160801b0260ff60801b19929091166001600160801b03199093169290921716179092555050565b6020810160006134d084846142a8565b6000836001600160801b0316836001600160801b0316111582906134b85760405162461bcd60e51b815260206004820181815283516024840152835190928392604490910191908501908083836000831561347d578181015183820152602001613465565b60006001600160601b0319821661403a61403585612daa565b612749565b6001600160601b031916149392505050565b6014810160006134d084846142eb565b60008061406c8460016041614333565b91505060008360200151846060015185600001516000801b60405160200161409794939291906152e4565b60405160208183030381529060405280519060200120905060006140bb838361434e565b905084604001516001600160a01b0316816001600160a01b03161480156140ea57506001600160a01b03811615155b9695505050505050565b6000808080600161410587826134e9565b945090506141138782613fa7565b935090506141218782613fa7565b60208089015160405192955092935060009261413f9287920161514a565b60408051601f198184030181529082905280516020918201209250600091614177916001600160f81b03199189918691899101615101565b6040516020818303038152906040528051906020012060001c905087604001516001600160a01b0316816001600160a01b03161480156141bf5750606088015163ffffffff16155b9998505050505050505050565b6000806141dc8460016041614333565b915050600061420d84602001516040516020016141f99190615135565b604051602081830303815290604052614416565b61422261421d86606001516144d7565b614416565b61423261421d87600001516144d7565b604051602001614097939291906151cb565b60006001600160601b0319821661403a614035856122e8565b60008282016001600160801b0380851690821610156126fd576040805162461bcd60e51b8152602060048201526002602482015261189960f11b604482015290519081900360640190fd5b6000808260200190508084511015613e0c576040805162461bcd60e51b81526020600482015260016024820152605960f81b604482015290519081900360640190fd5b6000816014018351101561432a576040805162461bcd60e51b81526020600482015260016024820152605360f81b604482015290519081900360640190fd5b50016020015190565b60006060614342858585613ade565b93909201949293505050565b6000825160411461438a576040805162461bcd60e51b81526020600482015260016024820152600560fc1b604482015290519081900360640190fd5b60008060006020860151925060408601519150606086015160001a905060018582858560405160008152602001604052604051808581526020018460ff1681526020018381526020018281526020019450505050506020604051602081039080840390855afa158015614401573d6000803e3d6000fd5b5050604051601f190151979650505050505050565b6060600082516002026001600160401b038111801561443457600080fd5b506040519080825280601f01601f19166020018201604052801561445f576020820181803683370190505b5090506020830183518101602083015b818310156144cd57825160f81c6f6665646362613938373635343332313060088260041c021c60f81b82526f66656463626139383736353433323130600882600f16021c60f81b60018301525060018301925060028101905061446f565b5091949350505050565b604080516004808252818301909252606091610e789163ffffffff85169190849082602082018180368337505050602092830360080260ff169390931b918301919091525090565b6040805160c081018252600080825260208201819052918101829052606081018290526080810182905260a081019190915290565b60408051608081018252600080825260208201819052918101829052606081019190915290565b604080516060810182526000808252602082018190529181019190915290565b6040805161010081018252600080825260208201819052918101829052606081018290526080810182905260a0810182905260c0810182905260e081019190915290565b600082601f8301126145ef578081fd5b813560206146046145ff83615ba0565b615b7d565b82815281810190858301855b8581101561463957614627898684358b01016148e0565b84529284019290840190600101614610565b5090979650505050505050565b600082601f830112614656578081fd5b813560206146666145ff83615ba0565b82815281810190858301855b858110156146395781358801604080601f19838d03011215614692578889fd5b80518181016001600160401b0382821081831117156146ad57fe5b9083528389013590808211156146c1578b8cfd5b506146d08d8a838701016148e0565b8252506146de8284016149c2565b81890152865250509284019290840190600101614672565b600082601f830112614706578081fd5b813560206147166145ff83615ba0565b8281528181019085830160c080860288018501891015614734578687fd5b865b8681101561475a576147488a84614944565b85529385019391810191600101614736565b509198975050505050505050565b600082601f830112614778578081fd5b6040516102008082018281106001600160401b038211171561479657fe5b60405281848281018710156147a9578485fd5b8492505b60108310156147cd578035825260019290920191602091820191016147ad565b509195945050505050565b600082601f8301126147e8578081fd5b813560206147f86145ff83615ba0565b8281528181019085830183850287018401881015614814578586fd5b855b8581101561463957813584529284019290840190600101614816565b600082601f830112614842578081fd5b813560206148526145ff83615ba0565b828152818101908583018385028701840188101561486e578586fd5b855b8581101561463957813560ff81168114614888578788fd5b84529284019290840190600101614870565b60008083601f8401126148ab578182fd5b5081356001600160401b038111156148c1578182fd5b6020830191508360208285010111156148d957600080fd5b9250929050565b600082601f8301126148f0578081fd5b81356001600160401b0381111561490357fe5b614916601f8201601f1916602001615b7d565b81815284602083860101111561492a578283fd5b816020850160208301379081016020019190915292915050565b600060c08284031215614955578081fd5b60405160c081018181106001600160401b038211171561497157fe5b604052905080614980836149c2565b815261498e602084016149d6565b602082015260408301356040820152606083013560608201526080830135608082015260a083013560a08201525092915050565b803563ffffffff811681146124cd57600080fd5b80356001600160401b03811681146124cd57600080fd5b6000602082840312156149fe578081fd5b81356126fd81615be9565b600060208284031215614a1a578081fd5b81516126fd81615be9565b600080600060608486031215614a39578182fd5b8335614a4481615be9565b92506020840135614a5481615be9565b929592945050506040919091013590565b600080600060608486031215614a79578081fd5b8335614a8481615be9565b92506020840135614a9481615be9565b91506040840135614aa481615bfe565b809150509250925092565b60008060408385031215614ac1578182fd5b8235614acc81615be9565b91506020830135614adc81615be9565b809150509250929050565b60008060408385031215614af9578182fd5b8235614b0481615be9565b91506134d0602084016149c2565b60006020808385031215614b24578182fd5b82356001600160401b0380821115614b3a578384fd5b818501915085601f830112614b4d578384fd5b8135614b5b6145ff82615ba0565b81815284810190848601875b84811015614be4578135870160e080601f19838f03011215614b87578a8bfd5b604080518181018181108b82111715614b9c57fe5b8252614baa8f858e01614944565b8152918301359189831115614bbd578c8dfd5b614bcb8f8d858701016145df565b818d015287525050509287019290870190600101614b67565b50909998505050505050505050565b600060208284031215614c04578081fd5b81356001600160401b03811115614c19578182fd5b613b92848285016146f6565b60008060408385031215614c37578182fd5b82356001600160401b0380821115614c4d578384fd5b614c59868387016146f6565b93506020850135915080821115614c6e578283fd5b908401906102808287031215614c82578283fd5b614c8c60a0615b7d565b823582811115614c9a578485fd5b614ca6888286016147d8565b825250602083013582811115614cba578485fd5b614cc6888286016147d8565b602083015250604083013582811115614cdd578485fd5b614ce9888286016147d8565b604083015250606083013582811115614d00578485fd5b614d0c88828601614832565b606083015250614d1f8760808501614768565b60808201528093505050509250929050565b600060208284031215614d42578081fd5b815180151581146126fd578182fd5b600060208284031215614d62578081fd5b5051919050565b60008060208385031215614d7b578182fd5b82356001600160401b03811115614d90578283fd5b614d9c8582860161489a565b90969095509350505050565b600080600060408486031215614dbc578081fd5b83356001600160401b03811115614dd1578182fd5b614ddd8682870161489a565b9094509250614df09050602085016149c2565b90509250925092565b60008060008060808587031215614e0e578182fd5b8435614e1981615be9565b93506020850135614e2981615be9565b92506040850135614e3981615bfe565b91506060850135614e4981615bfe565b939692955090935050565b600080600060608486031215614e68578081fd5b8335614e7381615be9565b925060208401356001600160681b0381168114614e8e578182fd5b91506040840135614aa481615be9565b60008060e08385031215614eb0578182fd5b614eba8484614944565b915060c08301356001600160401b0380821115614ed5578283fd5b818501915085601f830112614ee8578283fd5b81356020614ef86145ff83615ba0565b82815281810190858301875b85811015614fbb578135880160c0818e03601f19011215614f2357898afd5b614f2d60c0615b7d565b868201358152604082013589811115614f44578b8cfd5b614f528f89838601016148e0565b888301525060608201356040820152608082013589811115614f72578b8cfd5b614f808f8983860101614646565b606083015250614f9260a083016149c2565b6080820152614fa360c083016149c2565b60a08201528552509284019290840190600101614f04565b50979a909950975050505050505050565b600060208284031215614fdd578081fd5b81516126fd81615bfe565b600060208284031215614ff9578081fd5b815161ffff811681146126fd578182fd5b60006020828403121561501b578081fd5b6126fd826149c2565b60008060408385031215615036578182fd5b614acc836149c2565b60008060408385031215615051578182fd5b614b04836149c2565b6000806040838503121561506c578182fd5b615075836149d6565b915060208301356001600160401b0381111561508f578182fd5b61509b858286016145df565b9150509250929050565b60601b6001600160601b0319169052565b6000815180845260208085019450808401835b838110156150e5578151875295820195908201906001016150c9565b509495945050505050565b60e01b6001600160e01b0319169052565b6001600160f81b031994909416845260609290921b6001600160601b03191660018401526015830152603582015260550190565b6001600160601b031991909116815260140190565b9182526001600160601b031916602082015260340190565b918252602082015260400190565b6000828483379101908152919050565b60008251615192818460208701615bbd565b9190910192915050565b600083516151ae818460208801615bbd565b8351908301906151c2818360208801615bbd565b01949350505050565b7f19457468657265756d205369676e6564204d6573736167653a0a3135320000008152782932b3b4b9ba32b9103d35a9bcb73190383ab135b2bc9d050560391b601d8201528351600090615226816036850160208901615bbd565b600560f91b6036918401918201819052680dcdedcc6ca744060f60bb1b6037830152855161525b816040850160208a01615bbd565b60409201918201526d0c2c6c6deeadce840d2c8744060f60931b6041820152835161528d81604f840160208801615bbd565b61050560f11b604f92909101918201527f4f6e6c79207369676e2074686973206d65737361676520666f7220612074727560518201526b7374656420636c69656e742160a01b6071820152607d0195945050505050565b7b019457468657265756d205369676e6564204d6573736167653a0a36360241b81526001600160601b031994909416601c8501526001600160e01b031960e093841b811660308601529190921b166034830152603882015260580190565b60f89590951b6001600160f81b03191685526001600160e01b0319938416600186015260e09290921b909216600584015260809190911b6001600160801b031916600983015260601b6001600160601b0319166019820152602d0190565b6001600160f81b031960f88b901b1681526001600160e01b031960e08a811b821660018401526001600160601b031960608b901b16600584015288811b821660198401526001600160801b0319608089901b16601d84015286901b16602d820152600061541060318301866150a5565b61541d60458301856150f0565b50604981019190915260690198975050505050505050565b6001600160a01b0391909116815260200190565b6001600160a01b03861681526001600160401b03851660208201526000600c851061547057fe5b84604083015260a0606083015283518060a08401526154968160c0850160208801615bbd565b608083019390935250601f91909101601f19160160c001949350505050565b6001600160a01b03958616815293909416602084015263ffffffff91821660408401526060830152909116608082015260a00190565b60006102808083526154ff818401896150b6565b905060208382038185015261551482896150b6565b84810360408601528751808252828901935090820190845b8181101561554b57845160ff168352938301939183019160010161552c565b5050848103606086015261555f81886150b6565b9350506080840191508460005b60108110156155895781518452928201929082019060010161556c565b505050509695505050505050565b901515815260200190565b90815260200190565b6001600160a01b0394851681529290931660208301526001600160801b039081166040830152909116606082015260800190565b6020808252600190820152604360f81b604082015260600190565b6020808252600190820152604160f81b604082015260600190565b6020808252600190820152604760f81b604082015260600190565b6020808252600190820152606360f81b604082015260600190565b6020808252600190820152606760f81b604082015260600190565b6020808252600190820152602160f91b604082015260600190565b6020808252600190820152600760fc1b604082015260600190565b6020808252600190820152600960fb1b604082015260600190565b602080825260029082015261413160f01b604082015260600190565b6020808252600190820152606160f81b604082015260600190565b6020808252600190820152607160f81b604082015260600190565b6020808252600190820152603960f91b604082015260600190565b6020808252600190820152603d60f91b604082015260600190565b6020808252600190820152604560f81b604082015260600190565b6020808252600190820152603760f91b604082015260600190565b6020808252600190820152603760f81b604082015260600190565b6020808252600190820152606f60f81b604082015260600190565b602080825260059082015264065786531360dc1b604082015260600190565b6020808252600190820152601b60fa1b604082015260600190565b6020808252600190820152601160fa1b604082015260600190565b6020808252600190820152600560fc1b604082015260600190565b6020808252600190820152602760f91b604082015260600190565b6020808252600190820152607960f81b604082015260600190565b6020808252600190820152601560fa1b604082015260600190565b6020808252600290820152616f3160f01b604082015260600190565b6020808252600190820152601360fa1b604082015260600190565b6020808252600190820152604960f81b604082015260600190565b6020808252600190820152602560f91b604082015260600190565b6020808252600190820152604b60f81b604082015260600190565b6020808252600190820152603b60f91b604082015260600190565b6020808252600190820152600d60fb1b604082015260600190565b6020808252600190820152606560f81b604082015260600190565b6020808252600190820152603560f91b604082015260600190565b6020808252600190820152603160f91b604082015260600190565b60208082526002908201526106f760f41b604082015260600190565b6020808252600190820152604f60f81b604082015260600190565b6020808252600190820152603560f81b604082015260600190565b6020808252600190820152603360f91b604082015260600190565b6020808252600190820152603960f81b604082015260600190565b6020808252600190820152606d60f81b604082015260600190565b6020808252600190820152601b60f91b604082015260600190565b6020808252600190820152600760fb1b604082015260600190565b6020808252600190820152602360f91b604082015260600190565b6020808252600190820152606960f81b604082015260600190565b6020808252600190820152601960fa1b604082015260600190565b6020808252600190820152606b60f81b604082015260600190565b600060c08201905063ffffffff83511682526001600160401b03602084015116602083015260408301516040830152606083015160608301526080830151608083015260a083015160a083015292915050565b6001600160801b0391909116815260200190565b61ffff91909116815260200190565b63ffffffff91909116815260200190565b63ffffffff9290921682526001600160a01b0316602082015260400190565b63ffffffff92831681529116602082015260400190565b6040518181016001600160401b0381118282101715615b9857fe5b604052919050565b60006001600160401b03821115615bb357fe5b5060209081020190565b60005b83811015615bd8578181015183820152602001615bc0565b83811115610da65750506000910152565b6001600160a01b038116811461068257600080fd5b6001600160801b038116811461068257600080fdfec5d2460186f7233c927e7db2dcc703c0e500b653ca82273b7bfad8045d85a4708e94fed44239eb2314ab7a406345e6c5a8f0ccedf3b600de3d004e672c33abf4a2646970667358221220e9cd65b1707ab6eba4cb6c5086e2c1e0d75a2dedcbe4cf3ad95850213f176bf264736f6c63430007060033",
  "linkReferences": {},
  "deployedLinkReferences": {}
}