{
  "_format": "hh-sol-artifact-1",
  "contractName": "OperationsTest",
  "sourceName": "cache/solpp-generated-contracts/dev-contracts/OperationsTest.sol",
  "abi": [
    {
      "inputs": [
        {
          "internalType": "bytes",
          "name": "_pubdata",
          "type": "bytes"
        }
      ],
      "name": "parseDepositFromPubdata",
      "outputs": [
        {
          "internalType": "uint16",
          "name": "tokenId",
          "type": "uint16"
        },
        {
          "internalType": "uint128",
          "name": "amount",
          "type": "uint128"
        },
        {
          "internalType": "address",
          "name": "owner",
          "type": "address"
        }
      ],
      "stateMutability": "pure",
      "type": "function"
    },
    {
      "inputs": [
        {
          "internalType": "bytes",
          "name": "_pubdata",
          "type": "bytes"
        }
      ],
      "name": "parseFullExitFromPubdata",
      "outputs": [
        {
          "internalType": "uint32",
          "name": "accountId",
          "type": "uint32"
        },
        {
          "internalType": "address",
          "name": "owner",
          "type": "address"
        },
        {
          "internalType": "uint16",
          "name": "tokenId",
          "type": "uint16"
        },
        {
          "internalType": "uint128",
          "name": "amount",
          "type": "uint128"
        }
      ],
      "stateMutability": "pure",
      "type": "function"
    },
    {
      "inputs": [],
      "name": "testDeposit",
      "outputs": [
        {
          "internalType": "uint256",
          "name": "",
          "type": "uint256"
        },
        {
          "internalType": "uint256",
          "name": "",
          "type": "uint256"
        }
      ],
      "stateMutability": "pure",
      "type": "function"
    },
    {
      "inputs": [
        {
          "internalType": "bytes",
          "name": "offchain",
          "type": "bytes"
        }
      ],
      "name": "testDepositMatch",
      "outputs": [
        {
          "internalType": "bool",
          "name": "",
          "type": "bool"
        }
      ],
      "stateMutability": "pure",
      "type": "function"
    },
    {
      "inputs": [],
      "name": "testForcedExit",
      "outputs": [],
      "stateMutability": "pure",
      "type": "function"
    },
    {
      "inputs": [],
      "name": "testFullExit",
      "outputs": [],
      "stateMutability": "pure",
      "type": "function"
    },
    {
      "inputs": [
        {
          "internalType": "bytes",
          "name": "offchain",
          "type": "bytes"
        }
      ],
      "name": "testFullExitMatch",
      "outputs": [
        {
          "internalType": "bool",
          "name": "",
          "type": "bool"
        }
      ],
      "stateMutability": "pure",
      "type": "function"
    },
    {
      "inputs": [],
      "name": "testPartialExit",
      "outputs": [],
      "stateMutability": "pure",
      "type": "function"
    }
  ],
  "bytecode": "0x608060405234801561001057600080fd5b50611316806100206000396000f3fe608060405234801561001057600080fd5b50600436106100885760003560e01c80637f924c4e1161005b5780637f924c4e1461026a578063b45f94541461028b578063cf63f6aa14610293578063f1ecfbe41461029b57610088565b80632c46da551461008d57806337f4fc241461013c5780634c2d3c9c146101465780634d1c1831146101e8575b600080fd5b6100fb600480360360208110156100a357600080fd5b810190602081018135600160201b8111156100bd57600080fd5b8201836020820111156100cf57600080fd5b803590602001918460018302840111600160201b831117156100f057600080fd5b509092509050610309565b6040805163ffffffff90951685526001600160a01b03909316602085015261ffff909116838301526001600160801b03166060830152519081900360800190f35b610144610379565b005b6101b46004803603602081101561015c57600080fd5b810190602081018135600160201b81111561017657600080fd5b82018360208201111561018857600080fd5b803590602001918460018302840111600160201b831117156101a957600080fd5b509092509050610500565b6040805161ffff90941684526001600160801b0390921660208401526001600160a01b031682820152519081900360600190f35b610256600480360360208110156101fe57600080fd5b810190602081018135600160201b81111561021857600080fd5b82018360208201111561022a57600080fd5b803590602001918460018302840111600160201b8311171561024b57600080fd5b50909250905061056a565b604080519115158252519081900360200190f35b610272610609565b6040805192835260208301919091528051918290030190f35b61014461079c565b610144610916565b610256600480360360208110156102b157600080fd5b810190602081018135600160201b8111156102cb57600080fd5b8201836020820111156102dd57600080fd5b803590602001918460018302840111600160201b831117156102fe57600080fd5b509092509050610af8565b600080600080610317611299565b61035687878080601f016020809104026020016040519081016040528093929190818152602001838380828437600092019190915250610b9a92505050565b805160208201516040830151606090930151919a90995091975095509350505050565b6103816112c0565b50604080516060808201835261313282526f101112131415161718191a1b1c1d1e1f602083015273823b747710c5bc9b8a47243f2c3d1805f1aa00c592820192909252906103ce82610c44565b90506103d86112c0565b6103e182610cd6565b905080604001516001600160a01b031683604001516001600160a01b031614610443576040805162461bcd60e51b815260206004820152600f60248201526e0e8c2e4cecae840dad2e6dac2e8c6d608b1b604482015290519081900360640190fd5b8051835161ffff908116911614610494576040805162461bcd60e51b815260206004820152601060248201526f0e8ded6cadc92c840dad2e6dac2e8c6d60831b604482015290519081900360640190fd5b80602001516001600160801b031683602001516001600160801b0316146104fb576040805162461bcd60e51b81526020600482015260166024820152750e0c2c6d6cac840c2dadeeadce840dad2e6dac2e8c6d60531b604482015290519081900360640190fd5b505050565b600080600061050d611299565b61054c86868080601f016020809104026020016040519081016040528093929190818152602001838380828437600092019190915250610d2f92505050565b60208101516040820151606090920151909891975095509350505050565b6000610574611299565b50604080516080810182526301020304815273823b747710c5bc9b8a47243f2c3d1805f1aa00c560208201526131329181019190915260006060808301919091526105be82610dd3565b90506106008186868080601f016020809104026020016040519081016040528093929190818152602001838380828437600092019190915250610e5b92505050565b95945050505050565b600080610614611299565b50604080516080810182526000815261010260208201526f101112131415161718191a1b1c1d1e1f9181019190915273823b747710c5bc9b8a47243f2c3d1805f1aa00c560608083019190915261066a82610e84565b9050610674611299565b61067d82610d2f565b9050806020015161ffff16836020015161ffff16146106d6576040805162461bcd60e51b815260206004820152601060248201526f0e8ded6cadc92c840dad2e6dac2e8c6d60831b604482015290519081900360640190fd5b80604001516001600160801b031683604001516001600160801b031614610736576040805162461bcd60e51b815260206004820152600f60248201526e0c2dadeeadce840dad2e6dac2e8c6d608b1b604482015290519081900360640190fd5b80606001516001600160a01b031683606001516001600160a01b031614610795576040805162461bcd60e51b815260206004820152600e60248201526d0deeedccae440dad2e6dac2e8c6d60931b604482015290519081900360640190fd5b5050509091565b6107a46112c0565b50604080516060808201835261313282526f101112131415161718191a1b1c1d1e1f602083015273823b747710c5bc9b8a47243f2c3d1805f1aa00c592820192909252906107f182610ef8565b90506107fb6112c0565b61080482610f83565b905080604001516001600160a01b031683604001516001600160a01b031614610865576040805162461bcd60e51b815260206004820152600e60248201526d0deeedccae440dad2e6dac2e8c6d60931b604482015290519081900360640190fd5b8051835161ffff9081169116146108b6576040805162461bcd60e51b815260206004820152601060248201526f0e8ded6cadc92c840dad2e6dac2e8c6d60831b604482015290519081900360640190fd5b80602001516001600160801b031683602001516001600160801b0316146104fb576040805162461bcd60e51b815260206004820152600f60248201526e0c2dadeeadce840dad2e6dac2e8c6d608b1b604482015290519081900360640190fd5b61091e611299565b50604080516080810182526301020304815273823b747710c5bc9b8a47243f2c3d1805f1aa00c56020820152613132918101919091526f101112131415161718191a1b1c1d1e1f60608083019190915261097782610dd3565b9050610981611299565b61098a82610b9a565b8051845191925063ffffffff9182169116146109e2576040805162461bcd60e51b81526020600482015260126024820152710c2c6c6deeadce892c840dad2e6dac2e8c6d60731b604482015290519081900360640190fd5b80602001516001600160a01b031683602001516001600160a01b031614610a41576040805162461bcd60e51b815260206004820152600e60248201526d0deeedccae440dad2e6dac2e8c6d60931b604482015290519081900360640190fd5b806040015161ffff16836040015161ffff1614610a98576040805162461bcd60e51b815260206004820152601060248201526f0e8ded6cadc92c840dad2e6dac2e8c6d60831b604482015290519081900360640190fd5b80606001516001600160801b031683606001516001600160801b0316146104fb576040805162461bcd60e51b815260206004820152600f60248201526e0c2dadeeadce840dad2e6dac2e8c6d608b1b604482015290519081900360640190fd5b6000610b02611299565b50604080516080810182526000815261010260208201526f101112131415161718191a1b1c1d1e1f9181019190915273823b747710c5bc9b8a47243f2c3d1805f1aa00c5606080830191909152610b5882610e84565b90506106008186868080601f016020809104026020016040519081016040528093929190818152602001838380828437600092019190915250610f9792505050565b610ba2611299565b6001610bae8382610fda565b63ffffffff1683529050610bc28382610ff3565b6001600160a01b031660208401529050610bdc8382611003565b61ffff1660408401529050610bf18382611013565b6001600160801b031660608401529050602b8114610c3e576040805162461bcd60e51b8152602060048201526005602482015264072667031360dc1b604482015290519081900360640190fd5b50919050565b606060088251602080850151604095860151865160f89590951b6001600160f81b031916928501929092526000602185018190526025850181905260f09390931b6001600160f01b031916602985015260801b6001600160801b031916602b840152603b83019190915260601b6001600160601b031916603d8201528251808203603101815260519091019092525090565b610cde6112c0565b6009610cea8382611003565b61ffff1683529050610cfc8382611013565b6001600160801b031660208401526002019050610d198382610ff3565b6001600160a01b03166040840152509092915050565b610d37611299565b6001610d438382610fda565b63ffffffff1683529050610d578382611003565b61ffff1660208401529050610d6c8382611013565b6001600160801b031660408401529050610d868382610ff3565b6001600160a01b031660608401529050602b8114610c3e576040805162461bcd60e51b8152602060048201526005602482015264072647031360dc1b604482015290519081900360640190fd5b606060068260000151836020015184604001518560600151604051602001808660ff1660f81b81526001018563ffffffff1660e01b8152600401846001600160a01b031660601b81526014018361ffff1660f01b8152600201826001600160801b031660801b8152601001955050505050506040516020818303038152906040529050919050565b600080610e6984601b611023565b90506000610e7884601b611023565b91909114949350505050565b6020818101516040808401516060948501518251600160f81b958101959095526000602186015260f09390931b6001600160f01b031916602585015260801b6001600160801b0319166027840152921b6001600160601b03191660378201528151808203602b018152604b90910190915290565b606060038251602080850151604095860151865160f89590951b6001600160f81b0319169285019290925260006021850181905260f09390931b6001600160f01b031916602585015260801b6001600160801b0319166027840152603783019190915260601b6001600160601b03191660398201528251808203602d018152604d9091019092525090565b610f8b6112c0565b6005610cea8382611003565b600060056060610fa9858360266110b1565b90506060610fbc8584602b8190036110b1565b90508080519060200120828051906020012014935050505092915050565b600481016000610fea8484611172565b90509250929050565b601481016000610fea84846111c4565b600281016000610fea848461120b565b601081016000610fea8484611252565b60006020821115611063576040805162461bcd60e51b8152602060048201526005602482015264074726d31360dc1b604482015290519081900360640190fd5b81835110156110a1576040805162461bcd60e51b815260206004820152600560248201526474726d313160d81b604482015290519081900360640190fd5b5060209182015191036008021c90565b6060818301845110156110f3576040805162461bcd60e51b8152602060048201526005602482015264627365313160d81b604482015290519081900360640190fd5b60608267ffffffffffffffff8111801561110c57600080fd5b506040519080825280601f01601f191660200182016040528015611137576020820181803683370190505b509050821561116a57602081018381016020860187015b8183101561116657805183526020928301920161114e565b5050505b949350505050565b60008082600401905080845110156111b9576040805162461bcd60e51b8152602060048201526005602482015264189d1d4c0d60da1b604482015290519081900360640190fd5b929092015192915050565b60008082601401905080845110156111b9576040805162461bcd60e51b8152602060048201526005602482015264627461313160d81b604482015290519081900360640190fd5b60008082600201905080845110156111b9576040805162461bcd60e51b8152602060048201526005602482015264313a3a981960d91b604482015290519081900360640190fd5b60008082601001905080845110156111b9576040805162461bcd60e51b8152602060048201526005602482015264313a3a989b60d91b604482015290519081900360640190fd5b60408051608081018252600080825260208201819052918101829052606081019190915290565b60408051606081018252600080825260208201819052918101919091529056fea264697066735822122004fcb11c79b029306a6af9d8768f745cc7dee33616ba5023fd2c6b4601b9610364736f6c63430007030033",
  "linkReferences": {},
  "deployedLinkReferences": {}
}