{
  "abi": [
    {
      "anonymous": false,
      "inputs": [
        {
          "indexed": true,
          "internalType": "uint32",
          "name": "blockNumber",
          "type": "uint32"
        }
      ],
      "name": "BlockCommit",
      "type": "event"
    },
    {
      "anonymous": false,
      "inputs": [
        {
          "indexed": true,
          "internalType": "uint32",
          "name": "blockNumber",
          "type": "uint32"
        }
      ],
      "name": "BlockVerification",
      "type": "event"
    },
    {
      "anonymous": false,
      "inputs": [
        {
          "indexed": false,
          "internalType": "uint32",
          "name": "totalBlocksVerified",
          "type": "uint32"
        },
        {
          "indexed": false,
          "internalType": "uint32",
          "name": "totalBlocksCommitted",
          "type": "uint32"
        }
      ],
      "name": "BlocksRevert",
      "type": "event"
    },
    {
      "anonymous": false,
      "inputs": [
        {
          "indexed": true,
          "internalType": "uint32",
          "name": "zkSyncBlockId",
          "type": "uint32"
        },
        {
          "indexed": true,
          "internalType": "uint32",
          "name": "accountId",
          "type": "uint32"
        },
        {
          "indexed": false,
          "internalType": "address",
          "name": "owner",
          "type": "address"
        },
        {
          "indexed": true,
          "internalType": "uint16",
          "name": "tokenId",
          "type": "uint16"
        },
        {
          "indexed": false,
          "internalType": "uint128",
          "name": "amount",
          "type": "uint128"
        }
      ],
      "name": "DepositCommit",
      "type": "event"
    },
    {
      "anonymous": false,
      "inputs": [],
      "name": "ExodusMode",
      "type": "event"
    },
    {
      "anonymous": false,
      "inputs": [
        {
          "indexed": true,
          "internalType": "address",
          "name": "sender",
          "type": "address"
        },
        {
          "indexed": false,
          "internalType": "uint32",
          "name": "nonce",
          "type": "uint32"
        },
        {
          "indexed": false,
          "internalType": "bytes",
          "name": "fact",
          "type": "bytes"
        }
      ],
      "name": "FactAuth",
      "type": "event"
    },
    {
      "anonymous": false,
      "inputs": [
        {
          "indexed": true,
          "internalType": "uint32",
          "name": "zkSyncBlockId",
          "type": "uint32"
        },
        {
          "indexed": true,
          "internalType": "uint32",
          "name": "accountId",
          "type": "uint32"
        },
        {
          "indexed": false,
          "internalType": "address",
          "name": "owner",
          "type": "address"
        },
        {
          "indexed": true,
          "internalType": "uint16",
          "name": "tokenId",
          "type": "uint16"
        },
        {
          "indexed": false,
          "internalType": "uint128",
          "name": "amount",
          "type": "uint128"
        }
      ],
      "name": "FullExitCommit",
      "type": "event"
    },
    {
      "anonymous": false,
      "inputs": [
        {
          "indexed": false,
          "internalType": "address",
          "name": "sender",
          "type": "address"
        },
        {
          "indexed": false,
          "internalType": "uint64",
          "name": "serialId",
          "type": "uint64"
        },
        {
          "indexed": false,
          "internalType": "enum Operations.OpType",
          "name": "opType",
          "type": "uint8"
        },
        {
          "indexed": false,
          "internalType": "bytes",
          "name": "pubData",
          "type": "bytes"
        },
        {
          "indexed": false,
          "internalType": "uint256",
          "name": "expirationBlock",
          "type": "uint256"
        }
      ],
      "name": "NewPriorityRequest",
      "type": "event"
    },
    {
      "anonymous": false,
      "inputs": [
        {
          "indexed": true,
          "internalType": "address",
          "name": "sender",
          "type": "address"
        },
        {
          "indexed": true,
          "internalType": "uint16",
          "name": "tokenId",
          "type": "uint16"
        },
        {
          "indexed": false,
          "internalType": "uint128",
          "name": "amount",
          "type": "uint128"
        },
        {
          "indexed": true,
          "internalType": "address",
          "name": "owner",
          "type": "address"
        }
      ],
      "name": "OnchainDeposit",
      "type": "event"
    },
    {
      "anonymous": false,
      "inputs": [
        {
          "indexed": true,
          "internalType": "address",
          "name": "owner",
          "type": "address"
        },
        {
          "indexed": true,
          "internalType": "uint16",
          "name": "tokenId",
          "type": "uint16"
        },
        {
          "indexed": false,
          "internalType": "uint128",
          "name": "amount",
          "type": "uint128"
        }
      ],
      "name": "OnchainWithdrawal",
      "type": "event"
    },
    {
      "anonymous": false,
      "inputs": [
        {
          "indexed": false,
          "internalType": "uint32",
          "name": "queueStartIndex",
          "type": "uint32"
        },
        {
          "indexed": false,
          "internalType": "uint32",
          "name": "queueEndIndex",
          "type": "uint32"
        }
      ],
      "name": "PendingWithdrawalsAdd",
      "type": "event"
    },
    {
      "anonymous": false,
      "inputs": [
        {
          "indexed": false,
          "internalType": "uint32",
          "name": "queueStartIndex",
          "type": "uint32"
        },
        {
          "indexed": false,
          "internalType": "uint32",
          "name": "queueEndIndex",
          "type": "uint32"
        }
      ],
      "name": "PendingWithdrawalsComplete",
      "type": "event"
    },
    {
      "constant": true,
      "inputs": [],
      "name": "EMPTY_STRING_KECCAK",
      "outputs": [
        {
          "internalType": "bytes32",
          "name": "",
          "type": "bytes32"
        }
      ],
      "payable": false,
      "stateMutability": "view",
      "type": "function"
    },
    {
      "constant": true,
      "inputs": [
        {
          "internalType": "address",
          "name": "",
          "type": "address"
        },
        {
          "internalType": "uint32",
          "name": "",
          "type": "uint32"
        }
      ],
      "name": "authFacts",
      "outputs": [
        {
          "internalType": "bytes32",
          "name": "",
          "type": "bytes32"
        }
      ],
      "payable": false,
      "stateMutability": "view",
      "type": "function"
    },
    {
      "constant": true,
      "inputs": [
        {
          "internalType": "bytes22",
          "name": "",
          "type": "bytes22"
        }
      ],
      "name": "balancesToWithdraw",
      "outputs": [
        {
          "internalType": "uint128",
          "name": "balanceToWithdraw",
          "type": "uint128"
        },
        {
          "internalType": "uint8",
          "name": "gasReserveValue",
          "type": "uint8"
        }
      ],
      "payable": false,
      "stateMutability": "view",
      "type": "function"
    },
    {
      "constant": true,
      "inputs": [
        {
          "internalType": "uint32",
          "name": "",
          "type": "uint32"
        }
      ],
      "name": "blocks",
      "outputs": [
        {
          "internalType": "uint32",
          "name": "committedAtBlock",
          "type": "uint32"
        },
        {
          "internalType": "uint64",
          "name": "priorityOperations",
          "type": "uint64"
        },
        {
          "internalType": "uint32",
          "name": "chunks",
          "type": "uint32"
        },
        {
          "internalType": "bytes32",
          "name": "withdrawalsDataHash",
          "type": "bytes32"
        },
        {
          "internalType": "bytes32",
          "name": "commitment",
          "type": "bytes32"
        },
        {
          "internalType": "bytes32",
          "name": "stateRoot",
          "type": "bytes32"
        }
      ],
      "payable": false,
      "stateMutability": "view",
      "type": "function"
    },
    {
      "constant": false,
      "inputs": [
        {
          "internalType": "uint64",
          "name": "_n",
          "type": "uint64"
        }
      ],
      "name": "cancelOutstandingDepositsForExodusMode",
      "outputs": [],
      "payable": false,
      "stateMutability": "nonpayable",
      "type": "function"
    },
    {
      "constant": false,
      "inputs": [
        {
          "internalType": "uint32",
          "name": "_blockNumber",
          "type": "uint32"
        },
        {
          "internalType": "uint32",
          "name": "_feeAccount",
          "type": "uint32"
        },
        {
          "internalType": "bytes32[]",
          "name": "_newBlockInfo",
          "type": "bytes32[]"
        },
        {
          "internalType": "bytes",
          "name": "_publicData",
          "type": "bytes"
        },
        {
          "internalType": "bytes",
          "name": "_ethWitness",
          "type": "bytes"
        },
        {
          "internalType": "uint32[]",
          "name": "_ethWitnessSizes",
          "type": "uint32[]"
        }
      ],
      "name": "commitBlock",
      "outputs": [],
      "payable": false,
      "stateMutability": "nonpayable",
      "type": "function"
    },
    {
      "constant": false,
      "inputs": [
        {
          "internalType": "uint32",
          "name": "_n",
          "type": "uint32"
        }
      ],
      "name": "completeWithdrawals",
      "outputs": [],
      "payable": false,
      "stateMutability": "nonpayable",
      "type": "function"
    },
    {
      "constant": false,
      "inputs": [
        {
          "internalType": "contract IERC20",
          "name": "_token",
          "type": "address"
        },
        {
          "internalType": "uint104",
          "name": "_amount",
          "type": "uint104"
        },
        {
          "internalType": "address",
          "name": "_franklinAddr",
          "type": "address"
        }
      ],
      "name": "depositERC20",
      "outputs": [],
      "payable": false,
      "stateMutability": "nonpayable",
      "type": "function"
    },
    {
      "constant": false,
      "inputs": [
        {
          "internalType": "address",
          "name": "_franklinAddr",
          "type": "address"
        }
      ],
      "name": "depositETH",
      "outputs": [],
      "payable": true,
      "stateMutability": "payable",
      "type": "function"
    },
    {
      "constant": false,
      "inputs": [
        {
          "internalType": "uint32",
          "name": "_accountId",
          "type": "uint32"
        },
        {
          "internalType": "uint16",
          "name": "_tokenId",
          "type": "uint16"
        },
        {
          "internalType": "uint128",
          "name": "_amount",
          "type": "uint128"
        },
        {
          "internalType": "uint256[]",
          "name": "_proof",
          "type": "uint256[]"
        }
      ],
      "name": "exit",
      "outputs": [],
      "payable": false,
      "stateMutability": "nonpayable",
      "type": "function"
    },
    {
      "constant": true,
      "inputs": [
        {
          "internalType": "uint32",
          "name": "",
          "type": "uint32"
        },
        {
          "internalType": "uint16",
          "name": "",
          "type": "uint16"
        }
      ],
      "name": "exited",
      "outputs": [
        {
          "internalType": "bool",
          "name": "",
          "type": "bool"
        }
      ],
      "payable": false,
      "stateMutability": "view",
      "type": "function"
    },
    {
      "constant": true,
      "inputs": [],
      "name": "exodusMode",
      "outputs": [
        {
          "internalType": "bool",
          "name": "",
          "type": "bool"
        }
      ],
      "payable": false,
      "stateMutability": "view",
      "type": "function"
    },
    {
      "constant": true,
      "inputs": [],
      "name": "firstPendingWithdrawalIndex",
      "outputs": [
        {
          "internalType": "uint32",
          "name": "",
          "type": "uint32"
        }
      ],
      "payable": false,
      "stateMutability": "view",
      "type": "function"
    },
    {
      "constant": true,
      "inputs": [],
      "name": "firstPriorityRequestId",
      "outputs": [
        {
          "internalType": "uint64",
          "name": "",
          "type": "uint64"
        }
      ],
      "payable": false,
      "stateMutability": "view",
      "type": "function"
    },
    {
      "constant": false,
      "inputs": [
        {
          "internalType": "uint32",
          "name": "_accountId",
          "type": "uint32"
        },
        {
          "internalType": "address",
          "name": "_token",
          "type": "address"
        }
      ],
      "name": "fullExit",
      "outputs": [],
      "payable": false,
      "stateMutability": "nonpayable",
      "type": "function"
    },
    {
      "constant": true,
      "inputs": [
        {
          "internalType": "address",
          "name": "_address",
          "type": "address"
        },
        {
          "internalType": "uint16",
          "name": "_tokenId",
          "type": "uint16"
        }
      ],
      "name": "getBalanceToWithdraw",
      "outputs": [
        {
          "internalType": "uint128",
          "name": "",
          "type": "uint128"
        }
      ],
      "payable": false,
      "stateMutability": "view",
      "type": "function"
    },
    {
      "constant": false,
      "inputs": [],
      "name": "getNoticePeriod",
      "outputs": [
        {
          "internalType": "uint256",
          "name": "",
          "type": "uint256"
        }
      ],
      "payable": false,
      "stateMutability": "nonpayable",
      "type": "function"
    },
    {
      "constant": false,
      "inputs": [
        {
          "internalType": "bytes",
          "name": "initializationParameters",
          "type": "bytes"
        }
      ],
      "name": "initialize",
      "outputs": [],
      "payable": false,
      "stateMutability": "nonpayable",
      "type": "function"
    },
    {
      "constant": false,
      "inputs": [],
      "name": "isReadyForUpgrade",
      "outputs": [
        {
          "internalType": "bool",
          "name": "",
          "type": "bool"
        }
      ],
      "payable": false,
      "stateMutability": "nonpayable",
      "type": "function"
    },
    {
      "constant": true,
      "inputs": [],
      "name": "numberOfPendingWithdrawals",
      "outputs": [
        {
          "internalType": "uint32",
          "name": "",
          "type": "uint32"
        }
      ],
      "payable": false,
      "stateMutability": "view",
      "type": "function"
    },
    {
      "constant": true,
      "inputs": [
        {
          "internalType": "uint32",
          "name": "",
          "type": "uint32"
        }
      ],
      "name": "pendingWithdrawals",
      "outputs": [
        {
          "internalType": "address",
          "name": "to",
          "type": "address"
        },
        {
          "internalType": "uint16",
          "name": "tokenId",
          "type": "uint16"
        }
      ],
      "payable": false,
      "stateMutability": "view",
      "type": "function"
    },
    {
      "constant": true,
      "inputs": [
        {
          "internalType": "uint64",
          "name": "",
          "type": "uint64"
        }
      ],
      "name": "priorityRequests",
      "outputs": [
        {
          "internalType": "enum Operations.OpType",
          "name": "opType",
          "type": "uint8"
        },
        {
          "internalType": "bytes",
          "name": "pubData",
          "type": "bytes"
        },
        {
          "internalType": "uint256",
          "name": "expirationBlock",
          "type": "uint256"
        }
      ],
      "payable": false,
      "stateMutability": "view",
      "type": "function"
    },
    {
      "constant": false,
      "inputs": [
        {
          "internalType": "uint32",
          "name": "_maxBlocksToRevert",
          "type": "uint32"
        }
      ],
      "name": "revertBlocks",
      "outputs": [],
      "payable": false,
      "stateMutability": "nonpayable",
      "type": "function"
    },
    {
      "constant": false,
      "inputs": [
        {
          "internalType": "bytes",
          "name": "_pubkey_hash",
          "type": "bytes"
        },
        {
          "internalType": "uint32",
          "name": "_nonce",
          "type": "uint32"
        }
      ],
      "name": "setAuthPubkeyHash",
      "outputs": [],
      "payable": false,
      "stateMutability": "nonpayable",
      "type": "function"
    },
    {
      "constant": true,
      "inputs": [],
      "name": "totalBlocksCommitted",
      "outputs": [
        {
          "internalType": "uint32",
          "name": "",
          "type": "uint32"
        }
      ],
      "payable": false,
      "stateMutability": "view",
      "type": "function"
    },
    {
      "constant": true,
      "inputs": [],
      "name": "totalBlocksVerified",
      "outputs": [
        {
          "internalType": "uint32",
          "name": "",
          "type": "uint32"
        }
      ],
      "payable": false,
      "stateMutability": "view",
      "type": "function"
    },
    {
      "constant": true,
      "inputs": [],
      "name": "totalCommittedPriorityRequests",
      "outputs": [
        {
          "internalType": "uint64",
          "name": "",
          "type": "uint64"
        }
      ],
      "payable": false,
      "stateMutability": "view",
      "type": "function"
    },
    {
      "constant": true,
      "inputs": [],
      "name": "totalOpenPriorityRequests",
      "outputs": [
        {
          "internalType": "uint64",
          "name": "",
          "type": "uint64"
        }
      ],
      "payable": false,
      "stateMutability": "view",
      "type": "function"
    },
    {
      "constant": false,
      "inputs": [],
      "name": "triggerExodusIfNeeded",
      "outputs": [
        {
          "internalType": "bool",
          "name": "",
          "type": "bool"
        }
      ],
      "payable": false,
      "stateMutability": "nonpayable",
      "type": "function"
    },
    {
      "constant": false,
      "inputs": [
        {
          "internalType": "bytes",
          "name": "upgradeParameters",
          "type": "bytes"
        }
      ],
      "name": "upgrade",
      "outputs": [],
      "payable": false,
      "stateMutability": "nonpayable",
      "type": "function"
    },
    {
      "constant": false,
      "inputs": [],
      "name": "upgradeCanceled",
      "outputs": [],
      "payable": false,
      "stateMutability": "nonpayable",
      "type": "function"
    },
    {
      "constant": false,
      "inputs": [],
      "name": "upgradeFinishes",
      "outputs": [],
      "payable": false,
      "stateMutability": "nonpayable",
      "type": "function"
    },
    {
      "constant": false,
      "inputs": [],
      "name": "upgradeNoticePeriodStarted",
      "outputs": [],
      "payable": false,
      "stateMutability": "nonpayable",
      "type": "function"
    },
    {
      "constant": true,
      "inputs": [],
      "name": "upgradePreparationActivationTime",
      "outputs": [
        {
          "internalType": "uint256",
          "name": "",
          "type": "uint256"
        }
      ],
      "payable": false,
      "stateMutability": "view",
      "type": "function"
    },
    {
      "constant": true,
      "inputs": [],
      "name": "upgradePreparationActive",
      "outputs": [
        {
          "internalType": "bool",
          "name": "",
          "type": "bool"
        }
      ],
      "payable": false,
      "stateMutability": "view",
      "type": "function"
    },
    {
      "constant": false,
      "inputs": [],
      "name": "upgradePreparationStarted",
      "outputs": [],
      "payable": false,
      "stateMutability": "nonpayable",
      "type": "function"
    },
    {
      "constant": false,
      "inputs": [
        {
          "internalType": "uint32",
          "name": "_blockNumber",
          "type": "uint32"
        },
        {
          "internalType": "uint256[]",
          "name": "_proof",
          "type": "uint256[]"
        },
        {
          "internalType": "bytes",
          "name": "_withdrawalsData",
          "type": "bytes"
        }
      ],
      "name": "verifyBlock",
      "outputs": [],
      "payable": false,
      "stateMutability": "nonpayable",
      "type": "function"
    },
    {
      "constant": false,
      "inputs": [
        {
          "internalType": "contract IERC20",
          "name": "_token",
          "type": "address"
        },
        {
          "internalType": "uint128",
          "name": "_amount",
          "type": "uint128"
        }
      ],
      "name": "withdrawERC20",
      "outputs": [],
      "payable": false,
      "stateMutability": "nonpayable",
      "type": "function"
    },
    {
      "constant": false,
      "inputs": [
        {
          "internalType": "contract IERC20",
          "name": "_token",
          "type": "address"
        },
        {
          "internalType": "address",
          "name": "_to",
          "type": "address"
        },
        {
          "internalType": "uint128",
          "name": "_amount",
          "type": "uint128"
        },
        {
          "internalType": "uint128",
          "name": "_maxAmount",
          "type": "uint128"
        }
      ],
      "name": "withdrawERC20Guarded",
      "outputs": [
        {
          "internalType": "uint128",
          "name": "withdrawnAmount",
          "type": "uint128"
        }
      ],
      "payable": false,
      "stateMutability": "nonpayable",
      "type": "function"
    },
    {
      "constant": false,
      "inputs": [
        {
          "internalType": "uint128",
          "name": "_amount",
          "type": "uint128"
        }
      ],
      "name": "withdrawETH",
      "outputs": [],
      "payable": false,
      "stateMutability": "nonpayable",
      "type": "function"
    }
  ],
  "evm": {
    "bytecode": {
      "linkReferences": {},
      "object": "608060405234801561001057600080fd5b50615a1280620000216000396000f3fe6080604052600436106102385760003560e01c80636b27a0441161012e578063b269b9ae116100ab578063d6973fc61161006f578063d6973fc614610be8578063e17376b514610c89578063fa6b53c314610cdb578063faf4d8cb14610d18578063ffeec23714610d2d57610238565b8063b269b9ae146109d5578063c488a09c14610b49578063c57b22be14610b7c578063c94c5b7c14610b91578063cd24ee0814610bd357610238565b80638ae20dc9116100f25780638ae20dc9146109ff578063922e149214610a3e5780639a83400d14610a53578063a2f9f1ce14610ac3578063a6289e5a14610b1957610238565b80636b27a044146108e457806378b91e70146108f95780637d4907981461090e578063871b8ff1146109d55780638773334c146109ea57610238565b806334f6bb1c116101bc5780634e913cd9116101805780634e913cd914610626578063595a5ebc146107a75780635cd0783e1461082857806367708dae1461089f5780636a387fc9146108b457610238565b806334f6bb1c146104f75780633b154b73146105285780633c06e5141461053d5780633c6461a914610552578063439fab91146105ab57610238565b80632a3174f4116102035780632a3174f4146104215780632b8c062a146104365780632d24006c146104705780632d2da8061461049e5780632f804bd2146104c457610238565b8060e21461023d5780630231c02c1461027e57806321ae605414610356578063253946451461037d578063264c0912146103f8575b600080fd5b34801561024957600080fd5b5061027c6004803603604081101561026057600080fd5b50803563ffffffff1690602001356001600160a01b0316610d42565b005b34801561028a57600080fd5b5061027c600480360360608110156102a157600080fd5b63ffffffff8235169190810190604081016020820135600160201b8111156102c857600080fd5b8201836020820111156102da57600080fd5b803590602001918460208302840111600160201b831117156102fb57600080fd5b919390929091602081019035600160201b81111561031857600080fd5b82018360208201111561032a57600080fd5b803590602001918460018302840111600160201b8311171561034b57600080fd5b509092509050610f36565b34801561036257600080fd5b5061036b61127a565b60408051918252519081900360200190f35b34801561038957600080fd5b5061027c600480360360208110156103a057600080fd5b810190602081018135600160201b8111156103ba57600080fd5b8201836020820111156103cc57600080fd5b803590602001918460018302840111600160201b831117156103ed57600080fd5b50909250905061129e565b34801561040457600080fd5b5061040d6112a2565b604080519115158252519081900360200190f35b34801561042d57600080fd5b5061036b6112ab565b34801561044257600080fd5b5061040d6004803603604081101561045957600080fd5b50803563ffffffff16906020013561ffff166112b3565b34801561047c57600080fd5b506104856112d3565b6040805163ffffffff9092168252519081900360200190f35b61027c600480360360208110156104b457600080fd5b50356001600160a01b03166112e6565b3480156104d057600080fd5b5061027c600480360360208110156104e757600080fd5b50356001600160401b031661137a565b34801561050357600080fd5b5061050c6116a7565b604080516001600160401b039092168252519081900360200190f35b34801561053457600080fd5b5061027c6116bd565b34801561054957600080fd5b506104856116bf565b34801561055e57600080fd5b506105866004803603602081101561057557600080fd5b50356001600160501b0319166116d2565b604080516001600160801b03909316835260ff90911660208301528051918290030190f35b3480156105b757600080fd5b5061027c600480360360208110156105ce57600080fd5b810190602081018135600160201b8111156105e857600080fd5b8201836020820111156105fa57600080fd5b803590602001918460018302840111600160201b8311171561061b57600080fd5b5090925090506116f9565b34801561063257600080fd5b5061027c600480360360c081101561064957600080fd5b63ffffffff8235811692602081013590911691810190606081016040820135600160201b81111561067957600080fd5b82018360208201111561068b57600080fd5b803590602001918460208302840111600160201b831117156106ac57600080fd5b919390929091602081019035600160201b8111156106c957600080fd5b8201836020820111156106db57600080fd5b803590602001918460018302840111600160201b831117156106fc57600080fd5b919390929091602081019035600160201b81111561071957600080fd5b82018360208201111561072b57600080fd5b803590602001918460018302840111600160201b8311171561074c57600080fd5b919390929091602081019035600160201b81111561076957600080fd5b82018360208201111561077b57600080fd5b803590602001918460208302840111600160201b8311171561079c57600080fd5b509092509050611780565b3480156107b357600080fd5b5061027c600480360360408110156107ca57600080fd5b810190602081018135600160201b8111156107e457600080fd5b8201836020820111156107f657600080fd5b803590602001918460018302840111600160201b8311171561081757600080fd5b91935091503563ffffffff16611a88565b34801561083457600080fd5b506108586004803603602081101561084b57600080fd5b503563ffffffff16611c3f565b6040805163ffffffff97881681526001600160401b03909616602087015293909516848401526060840191909152608083015260a082019290925290519081900360c00190f35b3480156108ab57600080fd5b5061050c611c88565b3480156108c057600080fd5b5061027c600480360360208110156108d757600080fd5b503563ffffffff16611c97565b3480156108f057600080fd5b5061040d612077565b34801561090557600080fd5b5061027c612123565b34801561091a57600080fd5b506109416004803603602081101561093157600080fd5b50356001600160401b0316612138565b6040518084600881111561095157fe5b60ff16815260200180602001838152602001828103825284818151815260200191508051906020019080838360005b83811015610998578181015183820152602001610980565b50505050905090810190601f1680156109c55780820380516001836020036101000a031916815260200191505b5094505050505060405180910390f35b3480156109e157600080fd5b5061027c6121ec565b3480156109f657600080fd5b5061040d6121fb565b348015610a0b57600080fd5b5061036b60048036036040811015610a2257600080fd5b5080356001600160a01b0316906020013563ffffffff16612205565b348015610a4a57600080fd5b5061040d612222565b348015610a5f57600080fd5b50610aa760048036036080811015610a7657600080fd5b506001600160a01b0381358116916020810135909116906001600160801b036040820135811691606001351661222b565b604080516001600160801b039092168252519081900360200190f35b348015610acf57600080fd5b50610af360048036036020811015610ae657600080fd5b503563ffffffff16612415565b604080516001600160a01b03909316835261ffff90911660208301528051918290030190f35b348015610b2557600080fd5b5061027c60048036036020811015610b3c57600080fd5b503563ffffffff1661243d565b348015610b5557600080fd5b5061027c60048036036020811015610b6c57600080fd5b50356001600160801b031661275c565b348015610b8857600080fd5b5061050c612866565b348015610b9d57600080fd5b5061027c60048036036040811015610bb457600080fd5b5080356001600160a01b031690602001356001600160801b031661287c565b348015610bdf57600080fd5b50610485612a3e565b348015610bf457600080fd5b5061027c60048036036080811015610c0b57600080fd5b63ffffffff8235169161ffff602082013516916001600160801b036040830135169190810190608081016060820135600160201b811115610c4b57600080fd5b820183602082011115610c5d57600080fd5b803590602001918460208302840111600160201b83111715610c7e57600080fd5b509092509050612a4a565b348015610c9557600080fd5b5061027c60048036036060811015610cac57600080fd5b506001600160a01b0381358116916cffffffffffffffffffffffffff6020820135169160409091013516612d55565b348015610ce757600080fd5b50610aa760048036036040811015610cfe57600080fd5b5080356001600160a01b0316906020013561ffff16612fd6565b348015610d2457600080fd5b50610485613011565b348015610d3957600080fd5b5061036b613024565b60008051602061596b8339815191525480610d92576040805162461bcd60e51b815260206004820152601f602482015260008051602061594b833981519152604482015290519081900360640190fd5b600060008051602061596b83398151915255610dac61302a565b62ffffff63ffffffff84161115610df2576040805162461bcd60e51b8152602060048201526005602482015264666565313160d81b604482015290519081900360640190fd5b60006001600160a01b038316610e0a57506000610e86565b600354604080516375698bb160e11b81526001600160a01b0386811660048301529151919092169163ead31762916024808301926020929190829003018186803b158015610e5757600080fd5b505afa158015610e6b573d6000803e3d6000fd5b505050506040513d6020811015610e8157600080fd5b505190505b610e8e6157db565b60405180608001604052808663ffffffff168152602001336001600160a01b031681526020018361ffff16815260200160006001600160801b031681525090506060610ed98261306a565b9050610ee66006826130ff565b6000610ef233856132c2565b6001600160501b0319166000908152600460205260409020805460ff60801b191660ff60801b1790555050600160008051602061596b833981519152555050505050565b60008051602061596b8339815191525480610f86576040805162461bcd60e51b815260206004820152601f602482015260008051602061594b833981519152604482015290519081900360640190fd5b600060008051602061596b83398151915255610fa061302a565b600660089054906101000a900463ffffffff1660010163ffffffff168663ffffffff1614610ffd576040805162461bcd60e51b815260206004820152600560248201526466766b313160d81b604482015290519081900360640190fd5b60035460408051634b18bd0f60e01b815233600482015290516001600160a01b0390921691634b18bd0f91602480820192600092909190829003018186803b15801561104857600080fd5b505afa15801561105c573d6000803e3d6000fd5b50506002805463ffffffff808b166000908152600760209081526040918290209485015494549151633711baa560e21b815260248101869052600160601b90920490921660448201819052606060048301908152606483018c90526001600160a01b03909416965063dc46ea9495508b948b949093919290918291608401908790870280828437600081840152601f19601f8201169050808301925050509550505050505060206040518083038186803b15801561111957600080fd5b505afa15801561112d573d6000803e3d6000fd5b505050506040513d602081101561114357600080fd5b505161117e576040805162461bcd60e51b815260206004820152600560248201526466766b313360d81b604482015290519081900360640190fd5b6111d383838080601f016020809104026020016040519081016040528093929190818152602001838380828437600092018290525063ffffffff8c1681526007602052604090206001015492506132df915050565b63ffffffff861660009081526007602052604090205461120290600160201b90046001600160401b03166135ee565b6006805463ffffffff600160401b80830482166001018216026bffffffff00000000000000001990921691909117909155604051908716907f0cdbd8bd7813095001c5fe7917bd69d834dc01db7c1dfcf52ca135bd2038441390600090a2600160008051602061596b83398151915255505050505050565b7fc5d2460186f7233c927e7db2dcc703c0e500b653ca82273b7bfad8045d85a47081565b5050565b60095460ff1681565b620a8c005b90565b600860209081526000928352604080842090915290825290205460ff1681565b600654600160401b900463ffffffff1681565b60008051602061596b8339815191525480611336576040805162461bcd60e51b815260206004820152601f602482015260008051602061594b833981519152604482015290519081900360640190fd5b600060008051602061596b8339815191525561135061302a565b611364600061135e3461372e565b84613772565b600160008051602061596b833981519152555050565b60008051602061596b83398151915254806113ca576040805162461bcd60e51b815260206004820152601f602482015260008051602061594b833981519152604482015290519081900360640190fd5b600060008051602061596b8339815191525560095460ff1661141b576040805162461bcd60e51b8152602060048201526005602482015264636f65303160d81b604482015290519081900360640190fd5b600c5460009061143b90600160401b90046001600160401b031684613829565b90506000816001600160401b031611611483576040805162461bcd60e51b815260206004820152600560248201526431b7b2981960d91b604482015290519081900360640190fd5b600c546001600160401b03165b600c546001600160401b039081168301811690821610156116475760016001600160401b0382166000908152600b602052604090205460ff1660088111156114d457fe5b1415611607576114e26157db565b6115ab600b6000846001600160401b03166001600160401b031681526020019081526020016000206001018054600181600116156101000203166002900480601f0160208091040260200160405190810160405280929190818152602001828054600181600116156101000203166002900480156115a15780601f10611576576101008083540402835291602001916115a1565b820191906000526020600020905b81548152906001019060200180831161158457829003601f168201915b5050505050613853565b905060006115c1826060015183602001516132c2565b6040928301516001600160501b031991909116600090815260046020529290922080546001600160801b031981166001600160801b039182169094011692909217909155505b6001600160401b0381166000908152600b60205260408120805460ff19168155906116356001830182615802565b50600060029190910155600101611490565b50600c805467ffffffffffffffff60401b1967ffffffffffffffff1982166001600160401b039283168501831617908116600160401b91829004831694909403909116029190911790555050600160008051602061596b83398151915255565b600c54600160801b90046001600160401b031681565b565b600654600160201b900463ffffffff1681565b6004602052600090815260409020546001600160801b03811690600160801b900460ff1682565b6117016138fd565b60008060008484606081101561171657600080fd5b50600280546001600160a01b0360208481013582166001600160a01b031993841617909355600380548535909216919092161790556000805260079052604001357f6d5257204ebe7d88fd91ae87941cb2dd9d8062b64ae5a2bd2d28ec40b9fbf6e2555050505050565b60008051602061596b83398151915254806117d0576040805162461bcd60e51b815260206004820152601f602482015260008051602061594b833981519152604482015290519081900360640190fd5b600060008051602061596b833981519152556117ea61302a565b6006600c9054906101000a900463ffffffff1660010163ffffffff168b63ffffffff1614611847576040805162461bcd60e51b815260206004820152600560248201526466636b313160d81b604482015290519081900360640190fd5b60035460408051634b18bd0f60e01b815233600482015290516001600160a01b0390921691634b18bd0f91602480820192600092909190829003018186803b15801561189257600080fd5b505afa1580156118a6573d6000803e3d6000fd5b5050506001891490506118e8576040805162461bcd60e51b815260206004820152600560248201526466636b313360d81b604482015290519081900360640190fd5b606087878080601f016020809104026020016040519081016040528093929190818152602001838380828437600081840152601f19601f8201169050808301925050505050505090506000600c60109054906101000a90046001600160401b0316905060006119bf8e848a8a8080601f01602080910402602001604051908101604052809392919081815260200183838082843760009201919091525050604080516020808e0282810182019093528d82529093508d92508c91829185019084908082843760009201919091525061391192505050565b600c54909150600160801b90046001600160401b03168290036119f78f8f8f8f6000816119e857fe5b90506020020135878686613ffd565b6006600c81819054906101000a900463ffffffff168092919060010191906101000a81548163ffffffff021916908363ffffffff160217905550508e63ffffffff167f81a92942d0f9c33b897a438384c9c3d88be397776138efa3ba1a4fc8b626842460405160405180910390a250505050600160008051602061596b833981519152555050505050505050505050565b60008051602061596b8339815191525480611ad8576040805162461bcd60e51b815260206004820152601f602482015260008051602061594b833981519152604482015290519081900360640190fd5b600060008051602061596b8339815191525560148314611b27576040805162461bcd60e51b8152602060048201526005602482015264061686631360dc1b604482015290519081900360640190fd5b336000908152600a6020908152604080832063ffffffff8616845290915290205415611b82576040805162461bcd60e51b8152602060048201526005602482015264616866313160d81b604482015290519081900360640190fd5b83836040518083838082843760408051919093018190038120336000818152600a602090815286822063ffffffff8d16808452908252918790209390935583529082018481529382018a905295507f9ea39b45a0cc96a2139996ec8dd30326216111249750781e563ae27c31ae87669450879350899289925060608201848480828437600083820152604051601f909101601f1916909201829003965090945050505050a2600160008051602061596b8339815191525550505050565b600760205260009081526040902080546001820154600283015460039093015463ffffffff808416946001600160401b03600160201b86041694600160601b9004909116929186565b600c546001600160401b031681565b60008051602061596b8339815191525480611ce7576040805162461bcd60e51b815260206004820152601f602482015260008051602061594b833981519152604482015290519081900360640190fd5b600060008051602061596b833981519152556000611d1783600660049054906101000a900463ffffffff166141ec565b60068054600160201b80820463ffffffff908116859003811690910267ffffffff00000000198316178082168501821663ffffffff199091161790925591925016805b82820163ffffffff168163ffffffff16101561200d5763ffffffff8116600090815260056020526040812080546001600160b01b0319811690915561ffff600160a01b820416916001600160a01b0390911690611db782846132c2565b6001600160501b031981166000908152600460205260409020549091506001600160801b03168015611ffe576001600160501b03198216600090815260046020526040812080546001600160801b03808216859003166001600160801b031990911617905561ffff8516611e415783611e39816001600160801b038516614207565b915050611fbe565b600354604080516310603dad60e01b815261ffff8816600482015290516000926001600160a01b0316916310603dad916024808301926020929190829003018186803b158015611e9057600080fd5b505afa158015611ea4573d6000803e3d6000fd5b505050506040513d6020811015611eba57600080fd5b5051604080516001600160a01b038084166024830152881660448201526001600160801b038616606482018190526084808301919091528251808303909101815260a490910182526020810180516001600160e01b0316639a83400d60e01b1781529151815193945030936203d0909382918083835b60208310611f4f5780518252601f199092019160209182019101611f30565b6001836020036101000a03801982511681845116808217855250505050505090500191505060006040518083038160008787f1925050503d8060008114611fb2576040519150601f19603f3d011682016040523d82523d6000602084013e611fb7565b606091505b5090925050505b80611ffc576001600160501b03198316600090815260046020526040902080546001600160801b038082168501166001600160801b03199091161790555b505b50505050806001019050611d5a565b5063ffffffff82161561205f576040805163ffffffff808416825284840116602082015281517f9b5478c99b5ca41beec4f6f6084126d6f9e26382d017b4bb67c37c9e8453a313929181900390910190a15b5050600160008051602061596b833981519152555050565b600c546001600160401b03166000908152600b6020526040812060020154819043108015906120c25750600c546001600160401b03166000908152600b602052604090206002015415155b905080156121155760095460ff1661210b576009805460ff191660011790556040517fc71028c67eb0ef128ea270a59a674629e767d51c1af44ed6753fd2fad2c7b67790600090a15b60019150506112b0565b60009150506112b0565b5090565b6000805460ff19166001908117909155429055565b600b602090815260009182526040918290208054600180830180548651600261010094831615949094026000190190911692909204601f810186900486028301860190965285825260ff9092169492939092908301828280156121dc5780601f106121b1576101008083540402835291602001916121dc565b820191906000526020600020905b8154815290600101906020018083116121bf57829003601f168201915b5050505050908060020154905083565b6000805460ff19168155600155565b60095460ff161590565b600a60209081526000928352604080842090915290825290205481565b60005460ff1681565b6000333014612269576040805162461bcd60e51b8152602060048201526005602482015264077746731360dc1b604482015290519081900360640190fd5b604080516370a0823160e01b815230600482015290516000916001600160a01b038816916370a0823191602480820192602092909190829003018186803b1580156122b357600080fd5b505afa1580156122c7573d6000803e3d6000fd5b505050506040513d60208110156122dd57600080fd5b505190506122f586866001600160801b03871661426c565b61232e576040805162461bcd60e51b8152602060048201526005602482015264777467313160d81b604482015290519081900360640190fd5b604080516370a0823160e01b815230600482015290516000916001600160a01b038916916370a0823191602480820192602092909190829003018186803b15801561237857600080fd5b505afa15801561238c573d6000803e3d6000fd5b505050506040513d60208110156123a257600080fd5b5051905060006123b8838363ffffffff61439316565b9050846001600160801b0316811115612400576040805162461bcd60e51b81526020600482015260056024820152643bba33989960d91b604482015290519081900360640190fd5b6124098161372e565b98975050505050505050565b6005602052600090815260409020546001600160a01b03811690600160a01b900461ffff1682565b60008051602061596b833981519152548061248d576040805162461bcd60e51b815260206004820152601f602482015260008051602061594b833981519152604482015290519081900360640190fd5b600060008051602061596b833981519152556124a76143d5565b6124e0576040805162461bcd60e51b8152602060048201526005602482015264726273313160d81b604482015290519081900360640190fd5b60035460408051634b18bd0f60e01b815233600482015290516001600160a01b0390921691634b18bd0f91602480820192600092909190829003018186803b15801561252b57600080fd5b505afa15801561253f573d6000803e3d6000fd5b505060065463ffffffff600160601b8204811693506000925061256e918691600160401b9091041684036141ec565b600654909150600090600160601b900463ffffffff168290036001015b8363ffffffff168163ffffffff161161269d576125a6615849565b5063ffffffff808216600090815260076020908152604091829020825160c08101845281548086168083526001600160401b03600160201b83041694830194909452600160601b900490941692840192909252600182015460608401526002820154608084015260039091015460a0830152612651576040805162461bcd60e51b815260206004820152600560248201526466726b313160d81b604482015290519081900360640190fd5b60209081015163ffffffff8316600090815260079092526040822080546001600160801b031916815560018082018490556002820184905560039091019290925592909201910161258b565b506006805463ffffffff600160601b808304821686900382160263ffffffff60601b199092169190911791829055600c80546001600160401b03600160801b80830482168790039091160267ffffffffffffffff60801b1990911617905560408051600160401b90930482168352948490039081166020830152845190947f6f3a8259cce1ea2680115053d21c971aa1764295a45850f520525f2bfdf3c9d3928290030190a1505050600160008051602061596b833981519152555050565b60008051602061596b83398151915254806127ac576040805162461bcd60e51b815260206004820152601f602482015260008051602061594b833981519152604482015290519081900360640190fd5b600060008051602061596b833981519152556127ca6000833361445a565b604051600090339084908381818185875af1925050503d806000811461280c576040519150601f19603f3d011682016040523d82523d6000602084013e612811565b606091505b505090508061284f576040805162461bcd60e51b8152602060048201526005602482015264667765313160d81b604482015290519081900360640190fd5b50600160008051602061596b833981519152555050565b600c54600160401b90046001600160401b031681565b60008051602061596b83398151915254806128cc576040805162461bcd60e51b815260206004820152601f602482015260008051602061594b833981519152604482015290519081900360640190fd5b600060008051602061596b833981519152819055600354604080516375698bb160e11b81526001600160a01b0387811660048301529151919092169163ead31762916024808301926020929190829003018186803b15801561292d57600080fd5b505afa158015612941573d6000803e3d6000fd5b505050506040513d602081101561295757600080fd5b50519050600061296733836132c2565b6001600160501b031981166000908152600460208181526040808420548151639a83400d60e01b81526001600160a01b038c16948101949094523360248501526001600160801b038a8116604486015216606484018190529051949550933092639a83400d92608480830193919282900301818787803b1580156129ea57600080fd5b505af11580156129fe573d6000803e3d6000fd5b505050506040513d6020811015612a1457600080fd5b50519050612a2384823361445a565b50505050600160008051602061596b83398151915255505050565b60065463ffffffff1681565b60008051602061596b8339815191525480612a9a576040805162461bcd60e51b815260206004820152601f602482015260008051602061594b833981519152604482015290519081900360640190fd5b600060008051602061596b833981519152556000612ab833876132c2565b60095490915060ff16612afa576040805162461bcd60e51b8152602060048201526005602482015264666574313160d81b604482015290519081900360640190fd5b63ffffffff8716600090815260086020908152604080832061ffff8a16845290915290205460ff1615612b5c576040805162461bcd60e51b81526020600482015260056024820152643332ba189960d91b604482015290519081900360640190fd5b60025460065463ffffffff600160401b909104811660009081526007602090815260409182902060030154915163c81a27ad60e01b815260048101838152938c166024820152336044820181905261ffff8c1660648301526001600160801b038b16608483015260c060a4830190815260c483018a90526001600160a01b039096169563c81a27ad958e9492938e938e938e938e93909260e4909101908590850280828437600081840152601f19601f8201169050808301925050509850505050505050505060206040518083038186803b158015612c3a57600080fd5b505afa158015612c4e573d6000803e3d6000fd5b505050506040513d6020811015612c6457600080fd5b5051612c9f576040805162461bcd60e51b8152602060048201526005602482015264666574313360d81b604482015290519081900360640190fd5b6001600160501b031981166000908152600460205260409020546001600160801b0316612cd2818763ffffffff61451d16565b6001600160501b0319909216600090815260046020908152604080832080546001600160801b03969096166001600160801b03199096169590951790945563ffffffff90991681526008895282812061ffff909816815296909752909420805460ff1916600190811790915560008051602061596b833981519152555050505050565b60008051602061596b8339815191525480612da5576040805162461bcd60e51b815260206004820152601f602482015260008051602061594b833981519152604482015290519081900360640190fd5b600060008051602061596b83398151915255612dbf61302a565b600354604080516375698bb160e11b81526001600160a01b0387811660048301529151600093929092169163ead3176291602480820192602092909190829003018186803b158015612e1057600080fd5b505afa158015612e24573d6000803e3d6000fd5b505050506040513d6020811015612e3a57600080fd5b5051604080516370a0823160e01b815230600482015290519192506000916001600160a01b038816916370a08231916024808301926020929190829003018186803b158015612e8857600080fd5b505afa158015612e9c573d6000803e3d6000fd5b505050506040513d6020811015612eb257600080fd5b50519050612ee2863330612ed46cffffffffffffffffffffffffff8a1661372e565b6001600160801b0316614583565b612f1b576040805162461bcd60e51b8152602060048201526005602482015264333218189960d91b604482015290519081900360640190fd5b604080516370a0823160e01b815230600482015290516000916001600160a01b038916916370a0823191602480820192602092909190829003018186803b158015612f6557600080fd5b505afa158015612f79573d6000803e3d6000fd5b505050506040513d6020811015612f8f57600080fd5b505190506000612fad612fa8838563ffffffff61439316565b61372e565b9050612fba848288613772565b50505050600160008051602061596b8339815191525550505050565b600060046000612fe685856132c2565b6001600160501b03191681526020810191909152604001600020546001600160801b03169392505050565b600654600160601b900463ffffffff1681565b60015481565b60095460ff16156116bd576040805162461bcd60e51b8152602060048201526005602482015264667265313160d81b604482015290519081900360640190fd5b60608160000151826020015183604001518460600151604051602001808563ffffffff1663ffffffff1660e01b8152600401846001600160a01b03166001600160a01b031660601b81526014018361ffff1661ffff1660f01b8152600201826001600160801b03166001600160801b031660801b81526010019450505050506040516020818303038152906040529050919050565b600c5460408051606081019091524361438001916001600160401b03808216600160401b9092041601908085600881111561313657fe5b8152602080820186905260409182018590526001600160401b0384166000908152600b9091522081518154829060ff1916600183600881111561317557fe5b02179055506020828101518051613192926001850192019061587e565b50604082015181600201559050507fd0943372c08b438a88d4b39d77216901079eda9ca59d45349841c099083b6830338286868660405180866001600160a01b03166001600160a01b03168152602001856001600160401b03166001600160401b0316815260200184600881111561320657fe5b60ff16815260200180602001838152602001828103825284818151815260200191508051906020019080838360005b8381101561324d578181015183820152602001613235565b50505050905090810190601f16801561327a5780820380516001836020036101000a031916815260200191505b50965050505050505060405180910390a15050600c805460016001600160401b03600160401b808404821692909201160267ffffffffffffffff60401b199091161790555050565b60a01b61ffff60a01b166001600160a01b03919091161760501b90565b60278251816132ea57fe5b0615613325576040805162461bcd60e51b8152602060048201526005602482015264706f77313160d81b604482015290519081900360640190fd5b6006547fc5d2460186f7233c927e7db2dcc703c0e500b653ca82273b7bfad8045d85a47090600090600160201b900463ffffffff165b84518210156135175760008060008061337489876146b0565b9350935093509350600061338884846132c2565b6001600160501b03198116600090815260046020526040908190205481518083019092529192506001600160801b0390911690806133cc838663ffffffff61451d16565b6001600160801b03908116825260ff60209283018190526001600160501b0319861660009081526004845260409020845181549590940151909116600160801b0260ff60801b19939092166001600160801b0319909416939093179190911617905585156134ae576040805180820182526001600160a01b03878116825261ffff878116602080850191825260065463ffffffff9081168e011660009081526005909152949094209251835494516001600160a01b031990951692169190911761ffff60a01b1916600160a01b93909116929092029190911790556001909601955b505060408051602080820199909952941515858201526001600160a01b03909316606085015261ffff90911660808401526001600160801b031660a0808401919091528151808403909101815260c090920190528051930192909220916027919091019061335b565b838314613553576040805162461bcd60e51b81526020600482015260056024820152643837bb989960d91b604482015290519081900360640190fd5b60065463ffffffff828116600160201b90920416146135c3576006546040805163ffffffff808416600160201b9094048116840181168252928401909216602083015280517fc4faeb4e73f28a46e4a5fa2db5b89c39698816488534ab7f0717c46f0852c3669281900390910190a15b6006805463ffffffff909216600160201b0267ffffffff000000001990921691909117905550505050565b600c546001600160401b03600160401b90910481169082161115613641576040805162461bcd60e51b8152602060048201526005602482015264706373323160d81b604482015290519081900360640190fd5b600061364e826006613829565b600c549091506001600160401b0316805b8282016001600160401b0316816001600160401b031610156136bb576001600160401b0381166000908152600b60205260408120805460ff19168155906136a96001830182615802565b5060006002919091015560010161365f565b5050600c8054600160801b6001600160401b03600160401b808404821687900382160267ffffffffffffffff60401b19909316929092178083168601831667ffffffffffffffff19909116178181048316959095039091160267ffffffffffffffff60801b199093169290921790915550565b6000600160801b821061211f5760405162461bcd60e51b815260040180806020018281038252602781526020018061598b6027913960400191505060405180910390fd5b61377a6157db565b6040518060800160405280600063ffffffff1681526020018561ffff168152602001846001600160801b03168152602001836001600160a01b0316815250905060606137c5826146f7565b90506137d26001826130ff565b604080516001600160801b038616815290516001600160a01b0385169161ffff88169133917fb6866b029f3aa29cd9e2bff8159a8ccaa4389f7a087c710968e0b200c0c73b08919081900360200190a45050505050565b6000816001600160401b0316836001600160401b03161061384a578161384c565b825b9392505050565b61385b6157db565b60006138678382614761565b63ffffffff168352905061387b838261477a565b61ffff1660208401529050613890838261478a565b6001600160801b0316604084015290506138aa838261479a565b6001600160a01b031660608401529050602a81146138f7576040805162461bcd60e51b8152602060048201526005602482015264072647031360dc1b604482015290519081900360640190fd5b50919050565b600160008051602061596b83398151915255565b82516000906009900615613954576040805162461bcd60e51b8152602060048201526005602482015264666373313160d81b604482015290519081900360640190fd5b50600c5483517fc5d2460186f7233c927e7db2dcc703c0e500b653ca82273b7bfad8045d85a470916001600160401b03808216600160801b9092041601906020868101918291908801016000805b82851015613e9e57845160f81c60058160088111156139bd57fe5b14156139cf5760129590950194613e98565b60008160088111156139dd57fe5b14156139ef5760099590950194613e98565b60028160088111156139fd57fe5b1415613a0f5760369590950194613e98565b8486036001826008811115613a2057fe5b1415613a93576060613a378d6001840160356147aa565b9050613a416157db565b613a4a82613853565b9050613a568f82614854565b613a5e6158f8565b50604080518082019091526001815260208101839052613a7e818c6148de565b50506001909801975060369690960195613e96565b6003826008811115613aa157fe5b1415613b2b57613aaf615910565b613abc8d83600101614adf565b604080820151825160209384015183518086019f909f5260018f8501526001600160a01b0390921660608f015261ffff1660808e01526001600160801b031660a0808e01919091528151808e03909101815260c0909c0190528a519a0199909920985060369690960195613e96565b6008826008811115613b3957fe5b1415613b5457613b47615910565b613abc8d83600101614b3b565b6006826008811115613b6257fe5b1415613c60576060613b798d6001840160356147aa565b9050613b836157db565b613b8c82614b51565b9050613b988f82614bf5565b60008090508b818360200151846040015185606001516040516020018086815260200185151515158152602001846001600160a01b03166001600160a01b031681526020018361ffff1661ffff168152602001826001600160801b03166001600160801b0316815260200195505050505050604051602081830303815290604052805190602001209b50613c2a6158f8565b50604080518082019091526006815260208101849052613c4a818d6148de565b5050600190990198505060369690960195613e96565b6007826008811115613c6e57fe5b1415613e615789518361ffff1610613cb5576040805162461bcd60e51b8152602060048201526005602482015264666373313360d81b604482015290519081900360640190fd5b613cbd6157db565b613cca8d83600101614c7f565b90508a8461ffff1681518110613cdc57fe5b602002602001015163ffffffff16600014613d88576060613d248d876001600160401b03168e8861ffff1681518110613d1157fe5b602002602001015163ffffffff166147aa565b90506000613d45828460200151856060015186604001518760000151614cef565b905080613d81576040805162461bcd60e51b8152602060048201526005602482015264667070313560d81b604482015290519081900360640190fd5b5050613e25565b602080820151604080516001600160601b0319909216828401528051808303601401815260349092018152815191830191909120818401516001600160a01b03166000908152600a8452828120606086015163ffffffff1682529093529120541480613e23576040805162461bcd60e51b8152602060048201526005602482015264333838189b60d91b604482015290519081900360640190fd5b505b8a8461ffff1681518110613e3557fe5b602002602001015163ffffffff16850194508380600101945050600960060260ff168801975050613e96565b6040805162461bcd60e51b8152602060048201526005602482015264199c1c0c4d60da1b604482015290519081900360640190fd5b505b506139a2565b828514613eda576040805162461bcd60e51b81526020600482015260056024820152643331b9989960d91b604482015290519081900360640190fd5b8851826001600160401b031614613f20576040805162461bcd60e51b81526020600482015260056024820152641998dccc4d60da1b604482015290519081900360640190fd5b87518161ffff1614613f61576040805162461bcd60e51b8152602060048201526005602482015264666373313560d81b604482015290519081900360640190fd5b600c546001600160401b03808216600160401b90920481169190910181169087161115613fbd576040805162461bcd60e51b81526020600482015260056024820152643331b9989b60d91b604482015290519081900360640190fd5b5050600c80546001600160401b03808216909603909516600160801b0267ffffffffffffffff60801b199095169490941790935550919695505050505050565b8251600990061561403d576040805162461bcd60e51b8152602060048201526005602482015264063626231360dc1b604482015290519081900360640190fd5b82516002546040805163e54ee6b160e01b815263ffffffff6009909404938416600482015290516001600160a01b039092169163e54ee6b191602480820192602092909190829003018186803b15801561409657600080fd5b505afa1580156140aa573d6000803e3d6000fd5b505050506040513d60208110156140c057600080fd5b50516140fb576040805162461bcd60e51b8152602060048201526005602482015264636362313160d81b604482015290519081900360640190fd5b63ffffffff60001988011660009081526007602052604081206003015461412790899089908989614f0b565b6040805160c0810182524363ffffffff90811682526001600160401b03968716602080840191825296821683850190815260608401998a526080840195865260a084019b8c529c821660009081526007909752929095209051815492519b5163ffffffff19909316908616176bffffffffffffffff000000001916600160201b9b9096169a909a029490941763ffffffff60601b1916600160601b94909316939093029190911787555090516001860155516002850155505160039092019190915550565b60008163ffffffff168363ffffffff161061384a578161384c565b6040516000906127109082906001600160a01b038616908390869084818181858888f193505050503d806000811461425b576040519150601f19603f3d011682016040523d82523d6000602084013e614260565b606091505b50909695505050505050565b604080516001600160a01b038481166024830152604480830185905283518084039091018152606490920183526020820180516001600160e01b031663a9059cbb60e01b1781529251825160009485946060948a16939092909182918083835b602083106142eb5780518252601f1990920191602091820191016142cc565b6001836020036101000a0380198251168184511680821785525050505050509050019150506000604051808303816000865af19150503d806000811461434d576040519150601f19603f3d011682016040523d82523d6000602084013e614352565b606091505b5091509150600081516000148061437c575081806020019051602081101561437957600080fd5b50515b90508280156143885750805b979650505050505050565b600061384c83836040518060400160405280601e81526020017f536166654d6174683a207375627472616374696f6e206f766572666c6f77000081525061515b565b60065460009063ffffffff600160401b82048116600160601b909204161180156144245750600654600163ffffffff600160401b90920482160181166000908152600760205260409020541615155b80156144555750600654600160401b900463ffffffff90811660010181166000908152600760205260409020541643115b905090565b600061446682856132c2565b6001600160501b031981166000908152600460205260409020549091506001600160801b031661449c818563ffffffff6151f216565b6001600160501b0319831660009081526004602090815260409182902080546001600160801b0319166001600160801b0394851617905581519287168352905161ffff8816926001600160a01b038716927f3ac065a1e69cd78fa12ba7269660a2894da2ec7f1ff1135ed5ca04de4b4e389e92918290030190a35050505050565b60008282016001600160801b03808516908216101561384c576040805162461bcd60e51b815260206004820152601b60248201527f536166654d6174683a206164646974696f6e206f766572666c6f770000000000604482015290519081900360640190fd5b604080516001600160a01b0385811660248301528481166044830152606480830185905283518084039091018152608490920183526020820180516001600160e01b03166323b872dd60e01b1781529251825160009485946060948b16939092909182918083835b6020831061460a5780518252601f1990920191602091820191016145eb565b6001836020036101000a0380198251168184511680821785525050505050509050019150506000604051808303816000865af19150503d806000811461466c576040519150601f19603f3d011682016040523d82523d6000602084013e614671565b606091505b5091509150600081516000148061469b575081806020019051602081101561469857600080fd5b50515b90508280156124095750979650505050505050565b6000808080846146c08782615234565b955090506146ce878261479a565b945090506146dc878261477a565b935090506146ea878261478a565b9598949750929550505050565b602081810151604080840151606094850151825160009581019590955260f09390931b6001600160f01b031916602485015260801b6001600160801b0319166026840152921b6001600160601b03191660368201528151808203602a018152604a90910190915290565b6004810160006147718484615260565b90509250929050565b60028101600061477184846152b2565b60108101600061477184846152f9565b6014810160006147718484615340565b6060818301845110156147ec576040805162461bcd60e51b8152602060048201526005602482015264627365313160d81b604482015290519081900360640190fd5b6060826040519080825280601f01601f191660200182016040528015614819576020820181803883390190505b509050821561484c57602081018381016020860187015b81831015614848578051835260209283019201614830565b5050505b949350505050565b806020015161ffff16816000015163ffffffff168363ffffffff167fc4e73a5b67a0594d06ea2b5c311c2aa44aa340dd4dd9ec5a1a718dc391b644708460600151856040015160405180836001600160a01b03166001600160a01b03168152602001826001600160801b03166001600160801b031681526020019250505060405180910390a45050565b6001600160401b0381166000908152600b60209081526040918290208054600191820180548551600261010095831615959095026000190190911693909304601f810185900485028401850190955284835260ff9091169360609383018282801561498a5780601f1061495f5761010080835404028352916020019161498a565b820191906000526020600020905b81548152906001019060200180831161496d57829003601f168201915b50505050509050836000015160088111156149a157fe5b8260088111156149ad57fe5b146149e7576040805162461bcd60e51b8152602060048201526005602482015264373b38189960d91b604482015290519081900360640190fd5b6001845160088111156149f657fe5b1415614a4857614a0a818560200151615387565b614a43576040805162461bcd60e51b8152602060048201526005602482015264766e70313360d81b604482015290519081900360640190fd5b614ad9565b600684516008811115614a5757fe5b1415614aa457614a6b8185602001516153c6565b614a43576040805162461bcd60e51b81526020600482015260056024820152641d9b9c0c4d60da1b604482015290519081900360640190fd5b6040805162461bcd60e51b8152602060048201526005602482015264766e70313560d81b604482015290519081900360640190fd5b50505050565b614ae7615910565b60048201614af5848261477a565b61ffff1683529050614b07848261478a565b6001600160801b031660208401526002019050614b24848261479a565b6001600160a01b0316604084015250909392505050565b614b43615910565b60088201614af5848261477a565b614b596157db565b6000614b658382614761565b63ffffffff1683529050614b79838261479a565b6001600160a01b031660208401529050614b93838261477a565b61ffff1660408401529050614ba8838261478a565b6001600160801b031660608401529050602a81146138f7576040805162461bcd60e51b8152602060048201526005602482015264072667031360dc1b604482015290519081900360640190fd5b806040015161ffff16816000015163ffffffff168363ffffffff167f66fc63d751ecbefca61d4e2e7c534e4f29c61aed8ece23ed635277a7ea6f9bc48460200151856060015160405180836001600160a01b03166001600160a01b03168152602001826001600160801b03166001600160801b031681526020019250505060405180910390a45050565b614c876157db565b81614c928482614761565b63ffffffff1683529050614ca684826153ef565b6001600160601b03191660208401529050614cc1848261479a565b6001600160a01b031660408401529050614cdb8482614761565b63ffffffff16606084015250909392505050565b604080516001600160601b031986166020820152815180820360140181526034909101909152600090606090614d24906153ff565b614d35614d30876154a9565b6153ff565b614d41614d30866154a9565b60405160200180807f19457468657265756d205369676e6564204d6573736167653a0a313532000000815250601d01807f5265676973746572207a6b53796e63207075626b65793a0a0a0000000000000081525060190184805190602001908083835b60208310614dc35780518252601f199092019160209182019101614da4565b51815160209384036101000a6000190180199092169116179052600560f91b91909301908152680dcdedcc6ca744060f60bb1b60018201528551600a90910192860191508083835b60208310614e2a5780518252601f199092019160209182019101614e0b565b51815160209384036101000a6000190180199092169116179052600560f91b919093019081526d0c2c6c6deeadce840d2c8744060f60931b60018201528451600f90910192850191508083835b60208310614e965780518252601f199092019160209182019101614e77565b5181516020939093036101000a600019018019909116921691909117905261050560f11b920191825250600201602c6159b28239602c01935050505060405160208183030381529060405290506000614eef88836154c2565b6001600160a01b03908116908616149250505095945050505050565b60008060028763ffffffff168763ffffffff1660405160200180838152602001828152602001925050506040516020818303038152906040526040518082805190602001908083835b60208310614f735780518252601f199092019160209182019101614f54565b51815160209384036101000a60001901801990921691161790526040519190930194509192505080830381855afa158015614fb2573d6000803e3d6000fd5b5050506040513d6020811015614fc757600080fd5b5051604080516020818101849052818301899052825180830384018152606090920192839052815193945060029391929182918401908083835b602083106150205780518252601f199092019160209182019101615001565b51815160209384036101000a60001901801990921691161790526040519190930194509192505080830381855afa15801561505f573d6000803e3d6000fd5b5050506040513d602081101561507457600080fd5b5051604080516020818101849052818301889052825180830384018152606090920192839052815193945060029391929182918401908083835b602083106150cd5780518252601f1990920191602091820191016150ae565b51815160209384036101000a60001901801990921691161790526040519190930194509192505080830381855afa15801561510c573d6000803e3d6000fd5b5050506040513d602081101561512157600080fd5b50516040518451828652919250906020828282018760025afa8186528080156151495761514b565bfe5b5050905198975050505050505050565b600081848411156151ea5760405162461bcd60e51b81526004018080602001828103825283818151815260200191508051906020019080838360005b838110156151af578181015183820152602001615197565b50505050905090810190601f1680156151dc5780820380516001836020036101000a031916815260200191505b509250505060405180910390fd5b505050900390565b600061384c83836040518060400160405280601e81526020017f536166654d6174683a207375627472616374696f6e206f766572666c6f7700008152506155be565b60008082600101915083838151811061524957fe5b0160200151919460f89290921c1515935090915050565b60008082600401905080845110156152a7576040805162461bcd60e51b8152602060048201526005602482015264189d1d4c0d60da1b604482015290519081900360640190fd5b929092015192915050565b60008082600201905080845110156152a7576040805162461bcd60e51b8152602060048201526005602482015264313a3a981960d91b604482015290519081900360640190fd5b60008082601001905080845110156152a7576040805162461bcd60e51b8152602060048201526005602482015264313a3a989b60d91b604482015290519081900360640190fd5b60008082601401905080845110156152a7576040805162461bcd60e51b8152602060048201526005602482015264627461313160d81b604482015290519081900360640190fd5b6000606061539884600460266147aa565b905060606153a984600460266147aa565b905080805190602001208280519060200120149250505092915050565b6000806153d484601a615623565b905060006153e384601a615623565b91909114949350505050565b60148101600061477184846156b1565b60608082516002026040519080825280601f01601f191660200182016040528015615431576020820181803883390190505b5090506020830183518101602083015b8183101561549f57825160f81c6f6665646362613938373635343332313060088260041c021c60f81b82526f66656463626139383736353433323130600882600f16021c60f81b600183015250600183019250600281019050615441565b5091949350505050565b60606154bc8263ffffffff1660046156fd565b92915050565b60008251604114615502576040805162461bcd60e51b8152602060048201526005602482015264076657331360dc1b604482015290519081900360640190fd5b600080806155108682615789565b9350905061551e8682615789565b8093508192505050600086828151811061553457fe5b602001015160f81c60f81b60f81c90506001868051906020012082868660405160008152602001604052604051808581526020018460ff1660ff1681526020018381526020018281526020019450505050506020604051602081039080840390855afa1580156155a8573d6000803e3d6000fd5b5050604051601f19015198975050505050505050565b6000836001600160801b0316836001600160801b0316111582906151ea5760405162461bcd60e51b81526020600482018181528351602484015283519092839260449091019190850190808383600083156151af578181015183820152602001615197565b60006020821115615663576040805162461bcd60e51b8152602060048201526005602482015264074726d31360dc1b604482015290519081900360640190fd5b81835110156156a1576040805162461bcd60e51b815260206004820152600560248201526474726d313160d81b604482015290519081900360640190fd5b5060209182015191036008021c90565b600081601401835110156156f4576040805162461bcd60e51b8152602060048201526005602482015264062746232360dc1b604482015290519081900360640190fd5b50016020015190565b606060208260ff161115615740576040805162461bcd60e51b8152602060048201526005602482015264627432313160d81b604482015290519081900360640190fd5b8160ff166040519080825280601f01601f19166020018201604052801561576e576020820181803883390190505b5060ff6008602094850302169390931b918301919091525090565b602081016000614771848460008082602001905080845110156152a7576040805162461bcd60e51b8152602060048201526005602482015264313a31199960d91b604482015290519081900360640190fd5b60408051608081018252600080825260208201819052918101829052606081019190915290565b50805460018160011615610100020316600290046000825580601f106158285750615846565b601f0160209004906000526020600020908101906158469190615930565b50565b6040805160c081018252600080825260208201819052918101829052606081018290526080810182905260a081019190915290565b828054600181600116156101000203166002900490600052602060002090601f016020900481019282601f106158bf57805160ff19168380011785556158ec565b828001600101855582156158ec579182015b828111156158ec5782518255916020019190600101906158d1565b5061211f929150615930565b60408051808201909152600081526060602082015290565b604080516060810182526000808252602082018190529181019190915290565b6112b091905b8082111561211f576000815560010161593656fe5265656e7472616e637947756172643a207265656e7472616e742063616c6c008e94fed44239eb2314ab7a406345e6c5a8f0ccedf3b600de3d004e672c33abf453616665436173743a2076616c756520646f65736e27742066697420696e2031323820626974734f6e6c79207369676e2074686973206d65737361676520666f722061207472757374656420636c69656e7421a265627a7a72315820d3d4fa015b28da77289a74b56a107f485e19b85e3eb461ae369b8c10955102a864736f6c63430005110032",
      "opcodes": "PUSH1 0x80 PUSH1 0x40 MSTORE CALLVALUE DUP1 ISZERO PUSH2 0x10 JUMPI PUSH1 0x0 DUP1 REVERT JUMPDEST POP PUSH2 0x5A12 DUP1 PUSH3 0x21 PUSH1 0x0 CODECOPY PUSH1 0x0 RETURN INVALID PUSH1 0x80 PUSH1 0x40 MSTORE PUSH1 0x4 CALLDATASIZE LT PUSH2 0x238 JUMPI PUSH1 0x0 CALLDATALOAD PUSH1 0xE0 SHR DUP1 PUSH4 0x6B27A044 GT PUSH2 0x12E JUMPI DUP1 PUSH4 0xB269B9AE GT PUSH2 0xAB JUMPI DUP1 PUSH4 0xD6973FC6 GT PUSH2 0x6F JUMPI DUP1 PUSH4 0xD6973FC6 EQ PUSH2 0xBE8 JUMPI DUP1 PUSH4 0xE17376B5 EQ PUSH2 0xC89 JUMPI DUP1 PUSH4 0xFA6B53C3 EQ PUSH2 0xCDB JUMPI DUP1 PUSH4 0xFAF4D8CB EQ PUSH2 0xD18 JUMPI DUP1 PUSH4 0xFFEEC237 EQ PUSH2 0xD2D JUMPI PUSH2 0x238 JUMP JUMPDEST DUP1 PUSH4 0xB269B9AE EQ PUSH2 0x9D5 JUMPI DUP1 PUSH4 0xC488A09C EQ PUSH2 0xB49 JUMPI DUP1 PUSH4 0xC57B22BE EQ PUSH2 0xB7C JUMPI DUP1 PUSH4 0xC94C5B7C EQ PUSH2 0xB91 JUMPI DUP1 PUSH4 0xCD24EE08 EQ PUSH2 0xBD3 JUMPI PUSH2 0x238 JUMP JUMPDEST DUP1 PUSH4 0x8AE20DC9 GT PUSH2 0xF2 JUMPI DUP1 PUSH4 0x8AE20DC9 EQ PUSH2 0x9FF JUMPI DUP1 PUSH4 0x922E1492 EQ PUSH2 0xA3E JUMPI DUP1 PUSH4 0x9A83400D EQ PUSH2 0xA53 JUMPI DUP1 PUSH4 0xA2F9F1CE EQ PUSH2 0xAC3 JUMPI DUP1 PUSH4 0xA6289E5A EQ PUSH2 0xB19 JUMPI PUSH2 0x238 JUMP JUMPDEST DUP1 PUSH4 0x6B27A044 EQ PUSH2 0x8E4 JUMPI DUP1 PUSH4 0x78B91E70 EQ PUSH2 0x8F9 JUMPI DUP1 PUSH4 0x7D490798 EQ PUSH2 0x90E JUMPI DUP1 PUSH4 0x871B8FF1 EQ PUSH2 0x9D5 JUMPI DUP1 PUSH4 0x8773334C EQ PUSH2 0x9EA JUMPI PUSH2 0x238 JUMP JUMPDEST DUP1 PUSH4 0x34F6BB1C GT PUSH2 0x1BC JUMPI DUP1 PUSH4 0x4E913CD9 GT PUSH2 0x180 JUMPI DUP1 PUSH4 0x4E913CD9 EQ PUSH2 0x626 JUMPI DUP1 PUSH4 0x595A5EBC EQ PUSH2 0x7A7 JUMPI DUP1 PUSH4 0x5CD0783E EQ PUSH2 0x828 JUMPI DUP1 PUSH4 0x67708DAE EQ PUSH2 0x89F JUMPI DUP1 PUSH4 0x6A387FC9 EQ PUSH2 0x8B4 JUMPI PUSH2 0x238 JUMP JUMPDEST DUP1 PUSH4 0x34F6BB1C EQ PUSH2 0x4F7 JUMPI DUP1 PUSH4 0x3B154B73 EQ PUSH2 0x528 JUMPI DUP1 PUSH4 0x3C06E514 EQ PUSH2 0x53D JUMPI DUP1 PUSH4 0x3C6461A9 EQ PUSH2 0x552 JUMPI DUP1 PUSH4 0x439FAB91 EQ PUSH2 0x5AB JUMPI PUSH2 0x238 JUMP JUMPDEST DUP1 PUSH4 0x2A3174F4 GT PUSH2 0x203 JUMPI DUP1 PUSH4 0x2A3174F4 EQ PUSH2 0x421 JUMPI DUP1 PUSH4 0x2B8C062A EQ PUSH2 0x436 JUMPI DUP1 PUSH4 0x2D24006C EQ PUSH2 0x470 JUMPI DUP1 PUSH4 0x2D2DA806 EQ PUSH2 0x49E JUMPI DUP1 PUSH4 0x2F804BD2 EQ PUSH2 0x4C4 JUMPI PUSH2 0x238 JUMP JUMPDEST DUP1 PUSH1 0xE2 EQ PUSH2 0x23D JUMPI DUP1 PUSH4 0x231C02C EQ PUSH2 0x27E JUMPI DUP1 PUSH4 0x21AE6054 EQ PUSH2 0x356 JUMPI DUP1 PUSH4 0x25394645 EQ PUSH2 0x37D JUMPI DUP1 PUSH4 0x264C0912 EQ PUSH2 0x3F8 JUMPI JUMPDEST PUSH1 0x0 DUP1 REVERT JUMPDEST CALLVALUE DUP1 ISZERO PUSH2 0x249 JUMPI PUSH1 0x0 DUP1 REVERT JUMPDEST POP PUSH2 0x27C PUSH1 0x4 DUP1 CALLDATASIZE SUB PUSH1 0x40 DUP2 LT ISZERO PUSH2 0x260 JUMPI PUSH1 0x0 DUP1 REVERT JUMPDEST POP DUP1 CALLDATALOAD PUSH4 0xFFFFFFFF AND SWAP1 PUSH1 0x20 ADD CALLDATALOAD PUSH1 0x1 PUSH1 0x1 PUSH1 0xA0 SHL SUB AND PUSH2 0xD42 JUMP JUMPDEST STOP JUMPDEST CALLVALUE DUP1 ISZERO PUSH2 0x28A JUMPI PUSH1 0x0 DUP1 REVERT JUMPDEST POP PUSH2 0x27C PUSH1 0x4 DUP1 CALLDATASIZE SUB PUSH1 0x60 DUP2 LT ISZERO PUSH2 0x2A1 JUMPI PUSH1 0x0 DUP1 REVERT JUMPDEST PUSH4 0xFFFFFFFF DUP3 CALLDATALOAD AND SWAP2 SWAP1 DUP2 ADD SWAP1 PUSH1 0x40 DUP2 ADD PUSH1 0x20 DUP3 ADD CALLDATALOAD PUSH1 0x1 PUSH1 0x20 SHL DUP2 GT ISZERO PUSH2 0x2C8 JUMPI PUSH1 0x0 DUP1 REVERT JUMPDEST DUP3 ADD DUP4 PUSH1 0x20 DUP3 ADD GT ISZERO PUSH2 0x2DA JUMPI PUSH1 0x0 DUP1 REVERT JUMPDEST DUP1 CALLDATALOAD SWAP1 PUSH1 0x20 ADD SWAP2 DUP5 PUSH1 0x20 DUP4 MUL DUP5 ADD GT PUSH1 0x1 PUSH1 0x20 SHL DUP4 GT OR ISZERO PUSH2 0x2FB JUMPI PUSH1 0x0 DUP1 REVERT JUMPDEST SWAP2 SWAP4 SWAP1 SWAP3 SWAP1 SWAP2 PUSH1 0x20 DUP2 ADD SWAP1 CALLDATALOAD PUSH1 0x1 PUSH1 0x20 SHL DUP2 GT ISZERO PUSH2 0x318 JUMPI PUSH1 0x0 DUP1 REVERT JUMPDEST DUP3 ADD DUP4 PUSH1 0x20 DUP3 ADD GT ISZERO PUSH2 0x32A JUMPI PUSH1 0x0 DUP1 REVERT JUMPDEST DUP1 CALLDATALOAD SWAP1 PUSH1 0x20 ADD SWAP2 DUP5 PUSH1 0x1 DUP4 MUL DUP5 ADD GT PUSH1 0x1 PUSH1 0x20 SHL DUP4 GT OR ISZERO PUSH2 0x34B JUMPI PUSH1 0x0 DUP1 REVERT JUMPDEST POP SWAP1 SWAP3 POP SWAP1 POP PUSH2 0xF36 JUMP JUMPDEST CALLVALUE DUP1 ISZERO PUSH2 0x362 JUMPI PUSH1 0x0 DUP1 REVERT JUMPDEST POP PUSH2 0x36B PUSH2 0x127A JUMP JUMPDEST PUSH1 0x40 DUP1 MLOAD SWAP2 DUP3 MSTORE MLOAD SWAP1 DUP2 SWAP1 SUB PUSH1 0x20 ADD SWAP1 RETURN JUMPDEST CALLVALUE DUP1 ISZERO PUSH2 0x389 JUMPI PUSH1 0x0 DUP1 REVERT JUMPDEST POP PUSH2 0x27C PUSH1 0x4 DUP1 CALLDATASIZE SUB PUSH1 0x20 DUP2 LT ISZERO PUSH2 0x3A0 JUMPI PUSH1 0x0 DUP1 REVERT JUMPDEST DUP2 ADD SWAP1 PUSH1 0x20 DUP2 ADD DUP2 CALLDATALOAD PUSH1 0x1 PUSH1 0x20 SHL DUP2 GT ISZERO PUSH2 0x3BA JUMPI PUSH1 0x0 DUP1 REVERT JUMPDEST DUP3 ADD DUP4 PUSH1 0x20 DUP3 ADD GT ISZERO PUSH2 0x3CC JUMPI PUSH1 0x0 DUP1 REVERT JUMPDEST DUP1 CALLDATALOAD SWAP1 PUSH1 0x20 ADD SWAP2 DUP5 PUSH1 0x1 DUP4 MUL DUP5 ADD GT PUSH1 0x1 PUSH1 0x20 SHL DUP4 GT OR ISZERO PUSH2 0x3ED JUMPI PUSH1 0x0 DUP1 REVERT JUMPDEST POP SWAP1 SWAP3 POP SWAP1 POP PUSH2 0x129E JUMP JUMPDEST CALLVALUE DUP1 ISZERO PUSH2 0x404 JUMPI PUSH1 0x0 DUP1 REVERT JUMPDEST POP PUSH2 0x40D PUSH2 0x12A2 JUMP JUMPDEST PUSH1 0x40 DUP1 MLOAD SWAP2 ISZERO ISZERO DUP3 MSTORE MLOAD SWAP1 DUP2 SWAP1 SUB PUSH1 0x20 ADD SWAP1 RETURN JUMPDEST CALLVALUE DUP1 ISZERO PUSH2 0x42D JUMPI PUSH1 0x0 DUP1 REVERT JUMPDEST POP PUSH2 0x36B PUSH2 0x12AB JUMP JUMPDEST CALLVALUE DUP1 ISZERO PUSH2 0x442 JUMPI PUSH1 0x0 DUP1 REVERT JUMPDEST POP PUSH2 0x40D PUSH1 0x4 DUP1 CALLDATASIZE SUB PUSH1 0x40 DUP2 LT ISZERO PUSH2 0x459 JUMPI PUSH1 0x0 DUP1 REVERT JUMPDEST POP DUP1 CALLDATALOAD PUSH4 0xFFFFFFFF AND SWAP1 PUSH1 0x20 ADD CALLDATALOAD PUSH2 0xFFFF AND PUSH2 0x12B3 JUMP JUMPDEST CALLVALUE DUP1 ISZERO PUSH2 0x47C JUMPI PUSH1 0x0 DUP1 REVERT JUMPDEST POP PUSH2 0x485 PUSH2 0x12D3 JUMP JUMPDEST PUSH1 0x40 DUP1 MLOAD PUSH4 0xFFFFFFFF SWAP1 SWAP3 AND DUP3 MSTORE MLOAD SWAP1 DUP2 SWAP1 SUB PUSH1 0x20 ADD SWAP1 RETURN JUMPDEST PUSH2 0x27C PUSH1 0x4 DUP1 CALLDATASIZE SUB PUSH1 0x20 DUP2 LT ISZERO PUSH2 0x4B4 JUMPI PUSH1 0x0 DUP1 REVERT JUMPDEST POP CALLDATALOAD PUSH1 0x1 PUSH1 0x1 PUSH1 0xA0 SHL SUB AND PUSH2 0x12E6 JUMP JUMPDEST CALLVALUE DUP1 ISZERO PUSH2 0x4D0 JUMPI PUSH1 0x0 DUP1 REVERT JUMPDEST POP PUSH2 0x27C PUSH1 0x4 DUP1 CALLDATASIZE SUB PUSH1 0x20 DUP2 LT ISZERO PUSH2 0x4E7 JUMPI PUSH1 0x0 DUP1 REVERT JUMPDEST POP CALLDATALOAD PUSH1 0x1 PUSH1 0x1 PUSH1 0x40 SHL SUB AND PUSH2 0x137A JUMP JUMPDEST CALLVALUE DUP1 ISZERO PUSH2 0x503 JUMPI PUSH1 0x0 DUP1 REVERT JUMPDEST POP PUSH2 0x50C PUSH2 0x16A7 JUMP JUMPDEST PUSH1 0x40 DUP1 MLOAD PUSH1 0x1 PUSH1 0x1 PUSH1 0x40 SHL SUB SWAP1 SWAP3 AND DUP3 MSTORE MLOAD SWAP1 DUP2 SWAP1 SUB PUSH1 0x20 ADD SWAP1 RETURN JUMPDEST CALLVALUE DUP1 ISZERO PUSH2 0x534 JUMPI PUSH1 0x0 DUP1 REVERT JUMPDEST POP PUSH2 0x27C PUSH2 0x16BD JUMP JUMPDEST CALLVALUE DUP1 ISZERO PUSH2 0x549 JUMPI PUSH1 0x0 DUP1 REVERT JUMPDEST POP PUSH2 0x485 PUSH2 0x16BF JUMP JUMPDEST CALLVALUE DUP1 ISZERO PUSH2 0x55E JUMPI PUSH1 0x0 DUP1 REVERT JUMPDEST POP PUSH2 0x586 PUSH1 0x4 DUP1 CALLDATASIZE SUB PUSH1 0x20 DUP2 LT ISZERO PUSH2 0x575 JUMPI PUSH1 0x0 DUP1 REVERT JUMPDEST POP CALLDATALOAD PUSH1 0x1 PUSH1 0x1 PUSH1 0x50 SHL SUB NOT AND PUSH2 0x16D2 JUMP JUMPDEST PUSH1 0x40 DUP1 MLOAD PUSH1 0x1 PUSH1 0x1 PUSH1 0x80 SHL SUB SWAP1 SWAP4 AND DUP4 MSTORE PUSH1 0xFF SWAP1 SWAP2 AND PUSH1 0x20 DUP4 ADD MSTORE DUP1 MLOAD SWAP2 DUP3 SWAP1 SUB ADD SWAP1 RETURN JUMPDEST CALLVALUE DUP1 ISZERO PUSH2 0x5B7 JUMPI PUSH1 0x0 DUP1 REVERT JUMPDEST POP PUSH2 0x27C PUSH1 0x4 DUP1 CALLDATASIZE SUB PUSH1 0x20 DUP2 LT ISZERO PUSH2 0x5CE JUMPI PUSH1 0x0 DUP1 REVERT JUMPDEST DUP2 ADD SWAP1 PUSH1 0x20 DUP2 ADD DUP2 CALLDATALOAD PUSH1 0x1 PUSH1 0x20 SHL DUP2 GT ISZERO PUSH2 0x5E8 JUMPI PUSH1 0x0 DUP1 REVERT JUMPDEST DUP3 ADD DUP4 PUSH1 0x20 DUP3 ADD GT ISZERO PUSH2 0x5FA JUMPI PUSH1 0x0 DUP1 REVERT JUMPDEST DUP1 CALLDATALOAD SWAP1 PUSH1 0x20 ADD SWAP2 DUP5 PUSH1 0x1 DUP4 MUL DUP5 ADD GT PUSH1 0x1 PUSH1 0x20 SHL DUP4 GT OR ISZERO PUSH2 0x61B JUMPI PUSH1 0x0 DUP1 REVERT JUMPDEST POP SWAP1 SWAP3 POP SWAP1 POP PUSH2 0x16F9 JUMP JUMPDEST CALLVALUE DUP1 ISZERO PUSH2 0x632 JUMPI PUSH1 0x0 DUP1 REVERT JUMPDEST POP PUSH2 0x27C PUSH1 0x4 DUP1 CALLDATASIZE SUB PUSH1 0xC0 DUP2 LT ISZERO PUSH2 0x649 JUMPI PUSH1 0x0 DUP1 REVERT JUMPDEST PUSH4 0xFFFFFFFF DUP3 CALLDATALOAD DUP2 AND SWAP3 PUSH1 0x20 DUP2 ADD CALLDATALOAD SWAP1 SWAP2 AND SWAP2 DUP2 ADD SWAP1 PUSH1 0x60 DUP2 ADD PUSH1 0x40 DUP3 ADD CALLDATALOAD PUSH1 0x1 PUSH1 0x20 SHL DUP2 GT ISZERO PUSH2 0x679 JUMPI PUSH1 0x0 DUP1 REVERT JUMPDEST DUP3 ADD DUP4 PUSH1 0x20 DUP3 ADD GT ISZERO PUSH2 0x68B JUMPI PUSH1 0x0 DUP1 REVERT JUMPDEST DUP1 CALLDATALOAD SWAP1 PUSH1 0x20 ADD SWAP2 DUP5 PUSH1 0x20 DUP4 MUL DUP5 ADD GT PUSH1 0x1 PUSH1 0x20 SHL DUP4 GT OR ISZERO PUSH2 0x6AC JUMPI PUSH1 0x0 DUP1 REVERT JUMPDEST SWAP2 SWAP4 SWAP1 SWAP3 SWAP1 SWAP2 PUSH1 0x20 DUP2 ADD SWAP1 CALLDATALOAD PUSH1 0x1 PUSH1 0x20 SHL DUP2 GT ISZERO PUSH2 0x6C9 JUMPI PUSH1 0x0 DUP1 REVERT JUMPDEST DUP3 ADD DUP4 PUSH1 0x20 DUP3 ADD GT ISZERO PUSH2 0x6DB JUMPI PUSH1 0x0 DUP1 REVERT JUMPDEST DUP1 CALLDATALOAD SWAP1 PUSH1 0x20 ADD SWAP2 DUP5 PUSH1 0x1 DUP4 MUL DUP5 ADD GT PUSH1 0x1 PUSH1 0x20 SHL DUP4 GT OR ISZERO PUSH2 0x6FC JUMPI PUSH1 0x0 DUP1 REVERT JUMPDEST SWAP2 SWAP4 SWAP1 SWAP3 SWAP1 SWAP2 PUSH1 0x20 DUP2 ADD SWAP1 CALLDATALOAD PUSH1 0x1 PUSH1 0x20 SHL DUP2 GT ISZERO PUSH2 0x719 JUMPI PUSH1 0x0 DUP1 REVERT JUMPDEST DUP3 ADD DUP4 PUSH1 0x20 DUP3 ADD GT ISZERO PUSH2 0x72B JUMPI PUSH1 0x0 DUP1 REVERT JUMPDEST DUP1 CALLDATALOAD SWAP1 PUSH1 0x20 ADD SWAP2 DUP5 PUSH1 0x1 DUP4 MUL DUP5 ADD GT PUSH1 0x1 PUSH1 0x20 SHL DUP4 GT OR ISZERO PUSH2 0x74C JUMPI PUSH1 0x0 DUP1 REVERT JUMPDEST SWAP2 SWAP4 SWAP1 SWAP3 SWAP1 SWAP2 PUSH1 0x20 DUP2 ADD SWAP1 CALLDATALOAD PUSH1 0x1 PUSH1 0x20 SHL DUP2 GT ISZERO PUSH2 0x769 JUMPI PUSH1 0x0 DUP1 REVERT JUMPDEST DUP3 ADD DUP4 PUSH1 0x20 DUP3 ADD GT ISZERO PUSH2 0x77B JUMPI PUSH1 0x0 DUP1 REVERT JUMPDEST DUP1 CALLDATALOAD SWAP1 PUSH1 0x20 ADD SWAP2 DUP5 PUSH1 0x20 DUP4 MUL DUP5 ADD GT PUSH1 0x1 PUSH1 0x20 SHL DUP4 GT OR ISZERO PUSH2 0x79C JUMPI PUSH1 0x0 DUP1 REVERT JUMPDEST POP SWAP1 SWAP3 POP SWAP1 POP PUSH2 0x1780 JUMP JUMPDEST CALLVALUE DUP1 ISZERO PUSH2 0x7B3 JUMPI PUSH1 0x0 DUP1 REVERT JUMPDEST POP PUSH2 0x27C PUSH1 0x4 DUP1 CALLDATASIZE SUB PUSH1 0x40 DUP2 LT ISZERO PUSH2 0x7CA JUMPI PUSH1 0x0 DUP1 REVERT JUMPDEST DUP2 ADD SWAP1 PUSH1 0x20 DUP2 ADD DUP2 CALLDATALOAD PUSH1 0x1 PUSH1 0x20 SHL DUP2 GT ISZERO PUSH2 0x7E4 JUMPI PUSH1 0x0 DUP1 REVERT JUMPDEST DUP3 ADD DUP4 PUSH1 0x20 DUP3 ADD GT ISZERO PUSH2 0x7F6 JUMPI PUSH1 0x0 DUP1 REVERT JUMPDEST DUP1 CALLDATALOAD SWAP1 PUSH1 0x20 ADD SWAP2 DUP5 PUSH1 0x1 DUP4 MUL DUP5 ADD GT PUSH1 0x1 PUSH1 0x20 SHL DUP4 GT OR ISZERO PUSH2 0x817 JUMPI PUSH1 0x0 DUP1 REVERT JUMPDEST SWAP2 SWAP4 POP SWAP2 POP CALLDATALOAD PUSH4 0xFFFFFFFF AND PUSH2 0x1A88 JUMP JUMPDEST CALLVALUE DUP1 ISZERO PUSH2 0x834 JUMPI PUSH1 0x0 DUP1 REVERT JUMPDEST POP PUSH2 0x858 PUSH1 0x4 DUP1 CALLDATASIZE SUB PUSH1 0x20 DUP2 LT ISZERO PUSH2 0x84B JUMPI PUSH1 0x0 DUP1 REVERT JUMPDEST POP CALLDATALOAD PUSH4 0xFFFFFFFF AND PUSH2 0x1C3F JUMP JUMPDEST PUSH1 0x40 DUP1 MLOAD PUSH4 0xFFFFFFFF SWAP8 DUP9 AND DUP2 MSTORE PUSH1 0x1 PUSH1 0x1 PUSH1 0x40 SHL SUB SWAP1 SWAP7 AND PUSH1 0x20 DUP8 ADD MSTORE SWAP4 SWAP1 SWAP6 AND DUP5 DUP5 ADD MSTORE PUSH1 0x60 DUP5 ADD SWAP2 SWAP1 SWAP2 MSTORE PUSH1 0x80 DUP4 ADD MSTORE PUSH1 0xA0 DUP3 ADD SWAP3 SWAP1 SWAP3 MSTORE SWAP1 MLOAD SWAP1 DUP2 SWAP1 SUB PUSH1 0xC0 ADD SWAP1 RETURN JUMPDEST CALLVALUE DUP1 ISZERO PUSH2 0x8AB JUMPI PUSH1 0x0 DUP1 REVERT JUMPDEST POP PUSH2 0x50C PUSH2 0x1C88 JUMP JUMPDEST CALLVALUE DUP1 ISZERO PUSH2 0x8C0 JUMPI PUSH1 0x0 DUP1 REVERT JUMPDEST POP PUSH2 0x27C PUSH1 0x4 DUP1 CALLDATASIZE SUB PUSH1 0x20 DUP2 LT ISZERO PUSH2 0x8D7 JUMPI PUSH1 0x0 DUP1 REVERT JUMPDEST POP CALLDATALOAD PUSH4 0xFFFFFFFF AND PUSH2 0x1C97 JUMP JUMPDEST CALLVALUE DUP1 ISZERO PUSH2 0x8F0 JUMPI PUSH1 0x0 DUP1 REVERT JUMPDEST POP PUSH2 0x40D PUSH2 0x2077 JUMP JUMPDEST CALLVALUE DUP1 ISZERO PUSH2 0x905 JUMPI PUSH1 0x0 DUP1 REVERT JUMPDEST POP PUSH2 0x27C PUSH2 0x2123 JUMP JUMPDEST CALLVALUE DUP1 ISZERO PUSH2 0x91A JUMPI PUSH1 0x0 DUP1 REVERT JUMPDEST POP PUSH2 0x941 PUSH1 0x4 DUP1 CALLDATASIZE SUB PUSH1 0x20 DUP2 LT ISZERO PUSH2 0x931 JUMPI PUSH1 0x0 DUP1 REVERT JUMPDEST POP CALLDATALOAD PUSH1 0x1 PUSH1 0x1 PUSH1 0x40 SHL SUB AND PUSH2 0x2138 JUMP JUMPDEST PUSH1 0x40 MLOAD DUP1 DUP5 PUSH1 0x8 DUP2 GT ISZERO PUSH2 0x951 JUMPI INVALID JUMPDEST PUSH1 0xFF AND DUP2 MSTORE PUSH1 0x20 ADD DUP1 PUSH1 0x20 ADD DUP4 DUP2 MSTORE PUSH1 0x20 ADD DUP3 DUP2 SUB DUP3 MSTORE DUP5 DUP2 DUP2 MLOAD DUP2 MSTORE PUSH1 0x20 ADD SWAP2 POP DUP1 MLOAD SWAP1 PUSH1 0x20 ADD SWAP1 DUP1 DUP4 DUP4 PUSH1 0x0 JUMPDEST DUP4 DUP2 LT ISZERO PUSH2 0x998 JUMPI DUP2 DUP2 ADD MLOAD DUP4 DUP3 ADD MSTORE PUSH1 0x20 ADD PUSH2 0x980 JUMP JUMPDEST POP POP POP POP SWAP1 POP SWAP1 DUP2 ADD SWAP1 PUSH1 0x1F AND DUP1 ISZERO PUSH2 0x9C5 JUMPI DUP1 DUP3 SUB DUP1 MLOAD PUSH1 0x1 DUP4 PUSH1 0x20 SUB PUSH2 0x100 EXP SUB NOT AND DUP2 MSTORE PUSH1 0x20 ADD SWAP2 POP JUMPDEST POP SWAP5 POP POP POP POP POP PUSH1 0x40 MLOAD DUP1 SWAP2 SUB SWAP1 RETURN JUMPDEST CALLVALUE DUP1 ISZERO PUSH2 0x9E1 JUMPI PUSH1 0x0 DUP1 REVERT JUMPDEST POP PUSH2 0x27C PUSH2 0x21EC JUMP JUMPDEST CALLVALUE DUP1 ISZERO PUSH2 0x9F6 JUMPI PUSH1 0x0 DUP1 REVERT JUMPDEST POP PUSH2 0x40D PUSH2 0x21FB JUMP JUMPDEST CALLVALUE DUP1 ISZERO PUSH2 0xA0B JUMPI PUSH1 0x0 DUP1 REVERT JUMPDEST POP PUSH2 0x36B PUSH1 0x4 DUP1 CALLDATASIZE SUB PUSH1 0x40 DUP2 LT ISZERO PUSH2 0xA22 JUMPI PUSH1 0x0 DUP1 REVERT JUMPDEST POP DUP1 CALLDATALOAD PUSH1 0x1 PUSH1 0x1 PUSH1 0xA0 SHL SUB AND SWAP1 PUSH1 0x20 ADD CALLDATALOAD PUSH4 0xFFFFFFFF AND PUSH2 0x2205 JUMP JUMPDEST CALLVALUE DUP1 ISZERO PUSH2 0xA4A JUMPI PUSH1 0x0 DUP1 REVERT JUMPDEST POP PUSH2 0x40D PUSH2 0x2222 JUMP JUMPDEST CALLVALUE DUP1 ISZERO PUSH2 0xA5F JUMPI PUSH1 0x0 DUP1 REVERT JUMPDEST POP PUSH2 0xAA7 PUSH1 0x4 DUP1 CALLDATASIZE SUB PUSH1 0x80 DUP2 LT ISZERO PUSH2 0xA76 JUMPI PUSH1 0x0 DUP1 REVERT JUMPDEST POP PUSH1 0x1 PUSH1 0x1 PUSH1 0xA0 SHL SUB DUP2 CALLDATALOAD DUP2 AND SWAP2 PUSH1 0x20 DUP2 ADD CALLDATALOAD SWAP1 SWAP2 AND SWAP1 PUSH1 0x1 PUSH1 0x1 PUSH1 0x80 SHL SUB PUSH1 0x40 DUP3 ADD CALLDATALOAD DUP2 AND SWAP2 PUSH1 0x60 ADD CALLDATALOAD AND PUSH2 0x222B JUMP JUMPDEST PUSH1 0x40 DUP1 MLOAD PUSH1 0x1 PUSH1 0x1 PUSH1 0x80 SHL SUB SWAP1 SWAP3 AND DUP3 MSTORE MLOAD SWAP1 DUP2 SWAP1 SUB PUSH1 0x20 ADD SWAP1 RETURN JUMPDEST CALLVALUE DUP1 ISZERO PUSH2 0xACF JUMPI PUSH1 0x0 DUP1 REVERT JUMPDEST POP PUSH2 0xAF3 PUSH1 0x4 DUP1 CALLDATASIZE SUB PUSH1 0x20 DUP2 LT ISZERO PUSH2 0xAE6 JUMPI PUSH1 0x0 DUP1 REVERT JUMPDEST POP CALLDATALOAD PUSH4 0xFFFFFFFF AND PUSH2 0x2415 JUMP JUMPDEST PUSH1 0x40 DUP1 MLOAD PUSH1 0x1 PUSH1 0x1 PUSH1 0xA0 SHL SUB SWAP1 SWAP4 AND DUP4 MSTORE PUSH2 0xFFFF SWAP1 SWAP2 AND PUSH1 0x20 DUP4 ADD MSTORE DUP1 MLOAD SWAP2 DUP3 SWAP1 SUB ADD SWAP1 RETURN JUMPDEST CALLVALUE DUP1 ISZERO PUSH2 0xB25 JUMPI PUSH1 0x0 DUP1 REVERT JUMPDEST POP PUSH2 0x27C PUSH1 0x4 DUP1 CALLDATASIZE SUB PUSH1 0x20 DUP2 LT ISZERO PUSH2 0xB3C JUMPI PUSH1 0x0 DUP1 REVERT JUMPDEST POP CALLDATALOAD PUSH4 0xFFFFFFFF AND PUSH2 0x243D JUMP JUMPDEST CALLVALUE DUP1 ISZERO PUSH2 0xB55 JUMPI PUSH1 0x0 DUP1 REVERT JUMPDEST POP PUSH2 0x27C PUSH1 0x4 DUP1 CALLDATASIZE SUB PUSH1 0x20 DUP2 LT ISZERO PUSH2 0xB6C JUMPI PUSH1 0x0 DUP1 REVERT JUMPDEST POP CALLDATALOAD PUSH1 0x1 PUSH1 0x1 PUSH1 0x80 SHL SUB AND PUSH2 0x275C JUMP JUMPDEST CALLVALUE DUP1 ISZERO PUSH2 0xB88 JUMPI PUSH1 0x0 DUP1 REVERT JUMPDEST POP PUSH2 0x50C PUSH2 0x2866 JUMP JUMPDEST CALLVALUE DUP1 ISZERO PUSH2 0xB9D JUMPI PUSH1 0x0 DUP1 REVERT JUMPDEST POP PUSH2 0x27C PUSH1 0x4 DUP1 CALLDATASIZE SUB PUSH1 0x40 DUP2 LT ISZERO PUSH2 0xBB4 JUMPI PUSH1 0x0 DUP1 REVERT JUMPDEST POP DUP1 CALLDATALOAD PUSH1 0x1 PUSH1 0x1 PUSH1 0xA0 SHL SUB AND SWAP1 PUSH1 0x20 ADD CALLDATALOAD PUSH1 0x1 PUSH1 0x1 PUSH1 0x80 SHL SUB AND PUSH2 0x287C JUMP JUMPDEST CALLVALUE DUP1 ISZERO PUSH2 0xBDF JUMPI PUSH1 0x0 DUP1 REVERT JUMPDEST POP PUSH2 0x485 PUSH2 0x2A3E JUMP JUMPDEST CALLVALUE DUP1 ISZERO PUSH2 0xBF4 JUMPI PUSH1 0x0 DUP1 REVERT JUMPDEST POP PUSH2 0x27C PUSH1 0x4 DUP1 CALLDATASIZE SUB PUSH1 0x80 DUP2 LT ISZERO PUSH2 0xC0B JUMPI PUSH1 0x0 DUP1 REVERT JUMPDEST PUSH4 0xFFFFFFFF DUP3 CALLDATALOAD AND SWAP2 PUSH2 0xFFFF PUSH1 0x20 DUP3 ADD CALLDATALOAD AND SWAP2 PUSH1 0x1 PUSH1 0x1 PUSH1 0x80 SHL SUB PUSH1 0x40 DUP4 ADD CALLDATALOAD AND SWAP2 SWAP1 DUP2 ADD SWAP1 PUSH1 0x80 DUP2 ADD PUSH1 0x60 DUP3 ADD CALLDATALOAD PUSH1 0x1 PUSH1 0x20 SHL DUP2 GT ISZERO PUSH2 0xC4B JUMPI PUSH1 0x0 DUP1 REVERT JUMPDEST DUP3 ADD DUP4 PUSH1 0x20 DUP3 ADD GT ISZERO PUSH2 0xC5D JUMPI PUSH1 0x0 DUP1 REVERT JUMPDEST DUP1 CALLDATALOAD SWAP1 PUSH1 0x20 ADD SWAP2 DUP5 PUSH1 0x20 DUP4 MUL DUP5 ADD GT PUSH1 0x1 PUSH1 0x20 SHL DUP4 GT OR ISZERO PUSH2 0xC7E JUMPI PUSH1 0x0 DUP1 REVERT JUMPDEST POP SWAP1 SWAP3 POP SWAP1 POP PUSH2 0x2A4A JUMP JUMPDEST CALLVALUE DUP1 ISZERO PUSH2 0xC95 JUMPI PUSH1 0x0 DUP1 REVERT JUMPDEST POP PUSH2 0x27C PUSH1 0x4 DUP1 CALLDATASIZE SUB PUSH1 0x60 DUP2 LT ISZERO PUSH2 0xCAC JUMPI PUSH1 0x0 DUP1 REVERT JUMPDEST POP PUSH1 0x1 PUSH1 0x1 PUSH1 0xA0 SHL SUB DUP2 CALLDATALOAD DUP2 AND SWAP2 PUSH13 0xFFFFFFFFFFFFFFFFFFFFFFFFFF PUSH1 0x20 DUP3 ADD CALLDATALOAD AND SWAP2 PUSH1 0x40 SWAP1 SWAP2 ADD CALLDATALOAD AND PUSH2 0x2D55 JUMP JUMPDEST CALLVALUE DUP1 ISZERO PUSH2 0xCE7 JUMPI PUSH1 0x0 DUP1 REVERT JUMPDEST POP PUSH2 0xAA7 PUSH1 0x4 DUP1 CALLDATASIZE SUB PUSH1 0x40 DUP2 LT ISZERO PUSH2 0xCFE JUMPI PUSH1 0x0 DUP1 REVERT JUMPDEST POP DUP1 CALLDATALOAD PUSH1 0x1 PUSH1 0x1 PUSH1 0xA0 SHL SUB AND SWAP1 PUSH1 0x20 ADD CALLDATALOAD PUSH2 0xFFFF AND PUSH2 0x2FD6 JUMP JUMPDEST CALLVALUE DUP1 ISZERO PUSH2 0xD24 JUMPI PUSH1 0x0 DUP1 REVERT JUMPDEST POP PUSH2 0x485 PUSH2 0x3011 JUMP JUMPDEST CALLVALUE DUP1 ISZERO PUSH2 0xD39 JUMPI PUSH1 0x0 DUP1 REVERT JUMPDEST POP PUSH2 0x36B PUSH2 0x3024 JUMP JUMPDEST PUSH1 0x0 DUP1 MLOAD PUSH1 0x20 PUSH2 0x596B DUP4 CODECOPY DUP2 MLOAD SWAP2 MSTORE SLOAD DUP1 PUSH2 0xD92 JUMPI PUSH1 0x40 DUP1 MLOAD PUSH3 0x461BCD PUSH1 0xE5 SHL DUP2 MSTORE PUSH1 0x20 PUSH1 0x4 DUP3 ADD MSTORE PUSH1 0x1F PUSH1 0x24 DUP3 ADD MSTORE PUSH1 0x0 DUP1 MLOAD PUSH1 0x20 PUSH2 0x594B DUP4 CODECOPY DUP2 MLOAD SWAP2 MSTORE PUSH1 0x44 DUP3 ADD MSTORE SWAP1 MLOAD SWAP1 DUP2 SWAP1 SUB PUSH1 0x64 ADD SWAP1 REVERT JUMPDEST PUSH1 0x0 PUSH1 0x0 DUP1 MLOAD PUSH1 0x20 PUSH2 0x596B DUP4 CODECOPY DUP2 MLOAD SWAP2 MSTORE SSTORE PUSH2 0xDAC PUSH2 0x302A JUMP JUMPDEST PUSH3 0xFFFFFF PUSH4 0xFFFFFFFF DUP5 AND GT ISZERO PUSH2 0xDF2 JUMPI PUSH1 0x40 DUP1 MLOAD PUSH3 0x461BCD PUSH1 0xE5 SHL DUP2 MSTORE PUSH1 0x20 PUSH1 0x4 DUP3 ADD MSTORE PUSH1 0x5 PUSH1 0x24 DUP3 ADD MSTORE PUSH5 0x6665653131 PUSH1 0xD8 SHL PUSH1 0x44 DUP3 ADD MSTORE SWAP1 MLOAD SWAP1 DUP2 SWAP1 SUB PUSH1 0x64 ADD SWAP1 REVERT JUMPDEST PUSH1 0x0 PUSH1 0x1 PUSH1 0x1 PUSH1 0xA0 SHL SUB DUP4 AND PUSH2 0xE0A JUMPI POP PUSH1 0x0 PUSH2 0xE86 JUMP JUMPDEST PUSH1 0x3 SLOAD PUSH1 0x40 DUP1 MLOAD PUSH4 0x75698BB1 PUSH1 0xE1 SHL DUP2 MSTORE PUSH1 0x1 PUSH1 0x1 PUSH1 0xA0 SHL SUB DUP7 DUP2 AND PUSH1 0x4 DUP4 ADD MSTORE SWAP2 MLOAD SWAP2 SWAP1 SWAP3 AND SWAP2 PUSH4 0xEAD31762 SWAP2 PUSH1 0x24 DUP1 DUP4 ADD SWAP3 PUSH1 0x20 SWAP3 SWAP2 SWAP1 DUP3 SWAP1 SUB ADD DUP2 DUP7 DUP1 EXTCODESIZE ISZERO DUP1 ISZERO PUSH2 0xE57 JUMPI PUSH1 0x0 DUP1 REVERT JUMPDEST POP GAS STATICCALL ISZERO DUP1 ISZERO PUSH2 0xE6B JUMPI RETURNDATASIZE PUSH1 0x0 DUP1 RETURNDATACOPY RETURNDATASIZE PUSH1 0x0 REVERT JUMPDEST POP POP POP POP PUSH1 0x40 MLOAD RETURNDATASIZE PUSH1 0x20 DUP2 LT ISZERO PUSH2 0xE81 JUMPI PUSH1 0x0 DUP1 REVERT JUMPDEST POP MLOAD SWAP1 POP JUMPDEST PUSH2 0xE8E PUSH2 0x57DB JUMP JUMPDEST PUSH1 0x40 MLOAD DUP1 PUSH1 0x80 ADD PUSH1 0x40 MSTORE DUP1 DUP7 PUSH4 0xFFFFFFFF AND DUP2 MSTORE PUSH1 0x20 ADD CALLER PUSH1 0x1 PUSH1 0x1 PUSH1 0xA0 SHL SUB AND DUP2 MSTORE PUSH1 0x20 ADD DUP4 PUSH2 0xFFFF AND DUP2 MSTORE PUSH1 0x20 ADD PUSH1 0x0 PUSH1 0x1 PUSH1 0x1 PUSH1 0x80 SHL SUB AND DUP2 MSTORE POP SWAP1 POP PUSH1 0x60 PUSH2 0xED9 DUP3 PUSH2 0x306A JUMP JUMPDEST SWAP1 POP PUSH2 0xEE6 PUSH1 0x6 DUP3 PUSH2 0x30FF JUMP JUMPDEST PUSH1 0x0 PUSH2 0xEF2 CALLER DUP6 PUSH2 0x32C2 JUMP JUMPDEST PUSH1 0x1 PUSH1 0x1 PUSH1 0x50 SHL SUB NOT AND PUSH1 0x0 SWAP1 DUP2 MSTORE PUSH1 0x4 PUSH1 0x20 MSTORE PUSH1 0x40 SWAP1 KECCAK256 DUP1 SLOAD PUSH1 0xFF PUSH1 0x80 SHL NOT AND PUSH1 0xFF PUSH1 0x80 SHL OR SWAP1 SSTORE POP POP PUSH1 0x1 PUSH1 0x0 DUP1 MLOAD PUSH1 0x20 PUSH2 0x596B DUP4 CODECOPY DUP2 MLOAD SWAP2 MSTORE SSTORE POP POP POP POP POP JUMP JUMPDEST PUSH1 0x0 DUP1 MLOAD PUSH1 0x20 PUSH2 0x596B DUP4 CODECOPY DUP2 MLOAD SWAP2 MSTORE SLOAD DUP1 PUSH2 0xF86 JUMPI PUSH1 0x40 DUP1 MLOAD PUSH3 0x461BCD PUSH1 0xE5 SHL DUP2 MSTORE PUSH1 0x20 PUSH1 0x4 DUP3 ADD MSTORE PUSH1 0x1F PUSH1 0x24 DUP3 ADD MSTORE PUSH1 0x0 DUP1 MLOAD PUSH1 0x20 PUSH2 0x594B DUP4 CODECOPY DUP2 MLOAD SWAP2 MSTORE PUSH1 0x44 DUP3 ADD MSTORE SWAP1 MLOAD SWAP1 DUP2 SWAP1 SUB PUSH1 0x64 ADD SWAP1 REVERT JUMPDEST PUSH1 0x0 PUSH1 0x0 DUP1 MLOAD PUSH1 0x20 PUSH2 0x596B DUP4 CODECOPY DUP2 MLOAD SWAP2 MSTORE SSTORE PUSH2 0xFA0 PUSH2 0x302A JUMP JUMPDEST PUSH1 0x6 PUSH1 0x8 SWAP1 SLOAD SWAP1 PUSH2 0x100 EXP SWAP1 DIV PUSH4 0xFFFFFFFF AND PUSH1 0x1 ADD PUSH4 0xFFFFFFFF AND DUP7 PUSH4 0xFFFFFFFF AND EQ PUSH2 0xFFD JUMPI PUSH1 0x40 DUP1 MLOAD PUSH3 0x461BCD PUSH1 0xE5 SHL DUP2 MSTORE PUSH1 0x20 PUSH1 0x4 DUP3 ADD MSTORE PUSH1 0x5 PUSH1 0x24 DUP3 ADD MSTORE PUSH5 0x66766B3131 PUSH1 0xD8 SHL PUSH1 0x44 DUP3 ADD MSTORE SWAP1 MLOAD SWAP1 DUP2 SWAP1 SUB PUSH1 0x64 ADD SWAP1 REVERT JUMPDEST PUSH1 0x3 SLOAD PUSH1 0x40 DUP1 MLOAD PUSH4 0x4B18BD0F PUSH1 0xE0 SHL DUP2 MSTORE CALLER PUSH1 0x4 DUP3 ADD MSTORE SWAP1 MLOAD PUSH1 0x1 PUSH1 0x1 PUSH1 0xA0 SHL SUB SWAP1 SWAP3 AND SWAP2 PUSH4 0x4B18BD0F SWAP2 PUSH1 0x24 DUP1 DUP3 ADD SWAP3 PUSH1 0x0 SWAP3 SWAP1 SWAP2 SWAP1 DUP3 SWAP1 SUB ADD DUP2 DUP7 DUP1 EXTCODESIZE ISZERO DUP1 ISZERO PUSH2 0x1048 JUMPI PUSH1 0x0 DUP1 REVERT JUMPDEST POP GAS STATICCALL ISZERO DUP1 ISZERO PUSH2 0x105C JUMPI RETURNDATASIZE PUSH1 0x0 DUP1 RETURNDATACOPY RETURNDATASIZE PUSH1 0x0 REVERT JUMPDEST POP POP PUSH1 0x2 DUP1 SLOAD PUSH4 0xFFFFFFFF DUP1 DUP12 AND PUSH1 0x0 SWAP1 DUP2 MSTORE PUSH1 0x7 PUSH1 0x20 SWAP1 DUP2 MSTORE PUSH1 0x40 SWAP2 DUP3 SWAP1 KECCAK256 SWAP5 DUP6 ADD SLOAD SWAP5 SLOAD SWAP2 MLOAD PUSH4 0x3711BAA5 PUSH1 0xE2 SHL DUP2 MSTORE PUSH1 0x24 DUP2 ADD DUP7 SWAP1 MSTORE PUSH1 0x1 PUSH1 0x60 SHL SWAP1 SWAP3 DIV SWAP1 SWAP3 AND PUSH1 0x44 DUP3 ADD DUP2 SWAP1 MSTORE PUSH1 0x60 PUSH1 0x4 DUP4 ADD SWAP1 DUP2 MSTORE PUSH1 0x64 DUP4 ADD DUP13 SWAP1 MSTORE PUSH1 0x1 PUSH1 0x1 PUSH1 0xA0 SHL SUB SWAP1 SWAP5 AND SWAP7 POP PUSH4 0xDC46EA94 SWAP6 POP DUP12 SWAP5 DUP12 SWAP5 SWAP1 SWAP4 SWAP2 SWAP3 SWAP1 SWAP2 DUP3 SWAP2 PUSH1 0x84 ADD SWAP1 DUP8 SWAP1 DUP8 MUL DUP1 DUP3 DUP5 CALLDATACOPY PUSH1 0x0 DUP2 DUP5 ADD MSTORE PUSH1 0x1F NOT PUSH1 0x1F DUP3 ADD AND SWAP1 POP DUP1 DUP4 ADD SWAP3 POP POP POP SWAP6 POP POP POP POP POP POP PUSH1 0x20 PUSH1 0x40 MLOAD DUP1 DUP4 SUB DUP2 DUP7 DUP1 EXTCODESIZE ISZERO DUP1 ISZERO PUSH2 0x1119 JUMPI PUSH1 0x0 DUP1 REVERT JUMPDEST POP GAS STATICCALL ISZERO DUP1 ISZERO PUSH2 0x112D JUMPI RETURNDATASIZE PUSH1 0x0 DUP1 RETURNDATACOPY RETURNDATASIZE PUSH1 0x0 REVERT JUMPDEST POP POP POP POP PUSH1 0x40 MLOAD RETURNDATASIZE PUSH1 0x20 DUP2 LT ISZERO PUSH2 0x1143 JUMPI PUSH1 0x0 DUP1 REVERT JUMPDEST POP MLOAD PUSH2 0x117E JUMPI PUSH1 0x40 DUP1 MLOAD PUSH3 0x461BCD PUSH1 0xE5 SHL DUP2 MSTORE PUSH1 0x20 PUSH1 0x4 DUP3 ADD MSTORE PUSH1 0x5 PUSH1 0x24 DUP3 ADD MSTORE PUSH5 0x66766B3133 PUSH1 0xD8 SHL PUSH1 0x44 DUP3 ADD MSTORE SWAP1 MLOAD SWAP1 DUP2 SWAP1 SUB PUSH1 0x64 ADD SWAP1 REVERT JUMPDEST PUSH2 0x11D3 DUP4 DUP4 DUP1 DUP1 PUSH1 0x1F ADD PUSH1 0x20 DUP1 SWAP2 DIV MUL PUSH1 0x20 ADD PUSH1 0x40 MLOAD SWAP1 DUP2 ADD PUSH1 0x40 MSTORE DUP1 SWAP4 SWAP3 SWAP2 SWAP1 DUP2 DUP2 MSTORE PUSH1 0x20 ADD DUP4 DUP4 DUP1 DUP3 DUP5 CALLDATACOPY PUSH1 0x0 SWAP3 ADD DUP3 SWAP1 MSTORE POP PUSH4 0xFFFFFFFF DUP13 AND DUP2 MSTORE PUSH1 0x7 PUSH1 0x20 MSTORE PUSH1 0x40 SWAP1 KECCAK256 PUSH1 0x1 ADD SLOAD SWAP3 POP PUSH2 0x32DF SWAP2 POP POP JUMP JUMPDEST PUSH4 0xFFFFFFFF DUP7 AND PUSH1 0x0 SWAP1 DUP2 MSTORE PUSH1 0x7 PUSH1 0x20 MSTORE PUSH1 0x40 SWAP1 KECCAK256 SLOAD PUSH2 0x1202 SWAP1 PUSH1 0x1 PUSH1 0x20 SHL SWAP1 DIV PUSH1 0x1 PUSH1 0x1 PUSH1 0x40 SHL SUB AND PUSH2 0x35EE JUMP JUMPDEST PUSH1 0x6 DUP1 SLOAD PUSH4 0xFFFFFFFF PUSH1 0x1 PUSH1 0x40 SHL DUP1 DUP4 DIV DUP3 AND PUSH1 0x1 ADD DUP3 AND MUL PUSH12 0xFFFFFFFF0000000000000000 NOT SWAP1 SWAP3 AND SWAP2 SWAP1 SWAP2 OR SWAP1 SWAP2 SSTORE PUSH1 0x40 MLOAD SWAP1 DUP8 AND SWAP1 PUSH32 0xCDBD8BD7813095001C5FE7917BD69D834DC01DB7C1DFCF52CA135BD20384413 SWAP1 PUSH1 0x0 SWAP1 LOG2 PUSH1 0x1 PUSH1 0x0 DUP1 MLOAD PUSH1 0x20 PUSH2 0x596B DUP4 CODECOPY DUP2 MLOAD SWAP2 MSTORE SSTORE POP POP POP POP POP POP JUMP JUMPDEST PUSH32 0xC5D2460186F7233C927E7DB2DCC703C0E500B653CA82273B7BFAD8045D85A470 DUP2 JUMP JUMPDEST POP POP JUMP JUMPDEST PUSH1 0x9 SLOAD PUSH1 0xFF AND DUP2 JUMP JUMPDEST PUSH3 0xA8C00 JUMPDEST SWAP1 JUMP JUMPDEST PUSH1 0x8 PUSH1 0x20 SWAP1 DUP2 MSTORE PUSH1 0x0 SWAP3 DUP4 MSTORE PUSH1 0x40 DUP1 DUP5 KECCAK256 SWAP1 SWAP2 MSTORE SWAP1 DUP3 MSTORE SWAP1 KECCAK256 SLOAD PUSH1 0xFF AND DUP2 JUMP JUMPDEST PUSH1 0x6 SLOAD PUSH1 0x1 PUSH1 0x40 SHL SWAP1 DIV PUSH4 0xFFFFFFFF AND DUP2 JUMP JUMPDEST PUSH1 0x0 DUP1 MLOAD PUSH1 0x20 PUSH2 0x596B DUP4 CODECOPY DUP2 MLOAD SWAP2 MSTORE SLOAD DUP1 PUSH2 0x1336 JUMPI PUSH1 0x40 DUP1 MLOAD PUSH3 0x461BCD PUSH1 0xE5 SHL DUP2 MSTORE PUSH1 0x20 PUSH1 0x4 DUP3 ADD MSTORE PUSH1 0x1F PUSH1 0x24 DUP3 ADD MSTORE PUSH1 0x0 DUP1 MLOAD PUSH1 0x20 PUSH2 0x594B DUP4 CODECOPY DUP2 MLOAD SWAP2 MSTORE PUSH1 0x44 DUP3 ADD MSTORE SWAP1 MLOAD SWAP1 DUP2 SWAP1 SUB PUSH1 0x64 ADD SWAP1 REVERT JUMPDEST PUSH1 0x0 PUSH1 0x0 DUP1 MLOAD PUSH1 0x20 PUSH2 0x596B DUP4 CODECOPY DUP2 MLOAD SWAP2 MSTORE SSTORE PUSH2 0x1350 PUSH2 0x302A JUMP JUMPDEST PUSH2 0x1364 PUSH1 0x0 PUSH2 0x135E CALLVALUE PUSH2 0x372E JUMP JUMPDEST DUP5 PUSH2 0x3772 JUMP JUMPDEST PUSH1 0x1 PUSH1 0x0 DUP1 MLOAD PUSH1 0x20 PUSH2 0x596B DUP4 CODECOPY DUP2 MLOAD SWAP2 MSTORE SSTORE POP POP JUMP JUMPDEST PUSH1 0x0 DUP1 MLOAD PUSH1 0x20 PUSH2 0x596B DUP4 CODECOPY DUP2 MLOAD SWAP2 MSTORE SLOAD DUP1 PUSH2 0x13CA JUMPI PUSH1 0x40 DUP1 MLOAD PUSH3 0x461BCD PUSH1 0xE5 SHL DUP2 MSTORE PUSH1 0x20 PUSH1 0x4 DUP3 ADD MSTORE PUSH1 0x1F PUSH1 0x24 DUP3 ADD MSTORE PUSH1 0x0 DUP1 MLOAD PUSH1 0x20 PUSH2 0x594B DUP4 CODECOPY DUP2 MLOAD SWAP2 MSTORE PUSH1 0x44 DUP3 ADD MSTORE SWAP1 MLOAD SWAP1 DUP2 SWAP1 SUB PUSH1 0x64 ADD SWAP1 REVERT JUMPDEST PUSH1 0x0 PUSH1 0x0 DUP1 MLOAD PUSH1 0x20 PUSH2 0x596B DUP4 CODECOPY DUP2 MLOAD SWAP2 MSTORE SSTORE PUSH1 0x9 SLOAD PUSH1 0xFF AND PUSH2 0x141B JUMPI PUSH1 0x40 DUP1 MLOAD PUSH3 0x461BCD PUSH1 0xE5 SHL DUP2 MSTORE PUSH1 0x20 PUSH1 0x4 DUP3 ADD MSTORE PUSH1 0x5 PUSH1 0x24 DUP3 ADD MSTORE PUSH5 0x636F653031 PUSH1 0xD8 SHL PUSH1 0x44 DUP3 ADD MSTORE SWAP1 MLOAD SWAP1 DUP2 SWAP1 SUB PUSH1 0x64 ADD SWAP1 REVERT JUMPDEST PUSH1 0xC SLOAD PUSH1 0x0 SWAP1 PUSH2 0x143B SWAP1 PUSH1 0x1 PUSH1 0x40 SHL SWAP1 DIV PUSH1 0x1 PUSH1 0x1 PUSH1 0x40 SHL SUB AND DUP5 PUSH2 0x3829 JUMP JUMPDEST SWAP1 POP PUSH1 0x0 DUP2 PUSH1 0x1 PUSH1 0x1 PUSH1 0x40 SHL SUB AND GT PUSH2 0x1483 JUMPI PUSH1 0x40 DUP1 MLOAD PUSH3 0x461BCD PUSH1 0xE5 SHL DUP2 MSTORE PUSH1 0x20 PUSH1 0x4 DUP3 ADD MSTORE PUSH1 0x5 PUSH1 0x24 DUP3 ADD MSTORE PUSH5 0x31B7B29819 PUSH1 0xD9 SHL PUSH1 0x44 DUP3 ADD MSTORE SWAP1 MLOAD SWAP1 DUP2 SWAP1 SUB PUSH1 0x64 ADD SWAP1 REVERT JUMPDEST PUSH1 0xC SLOAD PUSH1 0x1 PUSH1 0x1 PUSH1 0x40 SHL SUB AND JUMPDEST PUSH1 0xC SLOAD PUSH1 0x1 PUSH1 0x1 PUSH1 0x40 SHL SUB SWAP1 DUP2 AND DUP4 ADD DUP2 AND SWAP1 DUP3 AND LT ISZERO PUSH2 0x1647 JUMPI PUSH1 0x1 PUSH1 0x1 PUSH1 0x1 PUSH1 0x40 SHL SUB DUP3 AND PUSH1 0x0 SWAP1 DUP2 MSTORE PUSH1 0xB PUSH1 0x20 MSTORE PUSH1 0x40 SWAP1 KECCAK256 SLOAD PUSH1 0xFF AND PUSH1 0x8 DUP2 GT ISZERO PUSH2 0x14D4 JUMPI INVALID JUMPDEST EQ ISZERO PUSH2 0x1607 JUMPI PUSH2 0x14E2 PUSH2 0x57DB JUMP JUMPDEST PUSH2 0x15AB PUSH1 0xB PUSH1 0x0 DUP5 PUSH1 0x1 PUSH1 0x1 PUSH1 0x40 SHL SUB AND PUSH1 0x1 PUSH1 0x1 PUSH1 0x40 SHL SUB AND DUP2 MSTORE PUSH1 0x20 ADD SWAP1 DUP2 MSTORE PUSH1 0x20 ADD PUSH1 0x0 KECCAK256 PUSH1 0x1 ADD DUP1 SLOAD PUSH1 0x1 DUP2 PUSH1 0x1 AND ISZERO PUSH2 0x100 MUL SUB AND PUSH1 0x2 SWAP1 DIV DUP1 PUSH1 0x1F ADD PUSH1 0x20 DUP1 SWAP2 DIV MUL PUSH1 0x20 ADD PUSH1 0x40 MLOAD SWAP1 DUP2 ADD PUSH1 0x40 MSTORE DUP1 SWAP3 SWAP2 SWAP1 DUP2 DUP2 MSTORE PUSH1 0x20 ADD DUP3 DUP1 SLOAD PUSH1 0x1 DUP2 PUSH1 0x1 AND ISZERO PUSH2 0x100 MUL SUB AND PUSH1 0x2 SWAP1 DIV DUP1 ISZERO PUSH2 0x15A1 JUMPI DUP1 PUSH1 0x1F LT PUSH2 0x1576 JUMPI PUSH2 0x100 DUP1 DUP4 SLOAD DIV MUL DUP4 MSTORE SWAP2 PUSH1 0x20 ADD SWAP2 PUSH2 0x15A1 JUMP JUMPDEST DUP3 ADD SWAP2 SWAP1 PUSH1 0x0 MSTORE PUSH1 0x20 PUSH1 0x0 KECCAK256 SWAP1 JUMPDEST DUP2 SLOAD DUP2 MSTORE SWAP1 PUSH1 0x1 ADD SWAP1 PUSH1 0x20 ADD DUP1 DUP4 GT PUSH2 0x1584 JUMPI DUP3 SWAP1 SUB PUSH1 0x1F AND DUP3 ADD SWAP2 JUMPDEST POP POP POP POP POP PUSH2 0x3853 JUMP JUMPDEST SWAP1 POP PUSH1 0x0 PUSH2 0x15C1 DUP3 PUSH1 0x60 ADD MLOAD DUP4 PUSH1 0x20 ADD MLOAD PUSH2 0x32C2 JUMP JUMPDEST PUSH1 0x40 SWAP3 DUP4 ADD MLOAD PUSH1 0x1 PUSH1 0x1 PUSH1 0x50 SHL SUB NOT SWAP2 SWAP1 SWAP2 AND PUSH1 0x0 SWAP1 DUP2 MSTORE PUSH1 0x4 PUSH1 0x20 MSTORE SWAP3 SWAP1 SWAP3 KECCAK256 DUP1 SLOAD PUSH1 0x1 PUSH1 0x1 PUSH1 0x80 SHL SUB NOT DUP2 AND PUSH1 0x1 PUSH1 0x1 PUSH1 0x80 SHL SUB SWAP2 DUP3 AND SWAP1 SWAP5 ADD AND SWAP3 SWAP1 SWAP3 OR SWAP1 SWAP2 SSTORE POP JUMPDEST PUSH1 0x1 PUSH1 0x1 PUSH1 0x40 SHL SUB DUP2 AND PUSH1 0x0 SWAP1 DUP2 MSTORE PUSH1 0xB PUSH1 0x20 MSTORE PUSH1 0x40 DUP2 KECCAK256 DUP1 SLOAD PUSH1 0xFF NOT AND DUP2 SSTORE SWAP1 PUSH2 0x1635 PUSH1 0x1 DUP4 ADD DUP3 PUSH2 0x5802 JUMP JUMPDEST POP PUSH1 0x0 PUSH1 0x2 SWAP2 SWAP1 SWAP2 ADD SSTORE PUSH1 0x1 ADD PUSH2 0x1490 JUMP JUMPDEST POP PUSH1 0xC DUP1 SLOAD PUSH8 0xFFFFFFFFFFFFFFFF PUSH1 0x40 SHL NOT PUSH8 0xFFFFFFFFFFFFFFFF NOT DUP3 AND PUSH1 0x1 PUSH1 0x1 PUSH1 0x40 SHL SUB SWAP3 DUP4 AND DUP6 ADD DUP4 AND OR SWAP1 DUP2 AND PUSH1 0x1 PUSH1 0x40 SHL SWAP2 DUP3 SWAP1 DIV DUP4 AND SWAP5 SWAP1 SWAP5 SUB SWAP1 SWAP2 AND MUL SWAP2 SWAP1 SWAP2 OR SWAP1 SSTORE POP POP PUSH1 0x1 PUSH1 0x0 DUP1 MLOAD PUSH1 0x20 PUSH2 0x596B DUP4 CODECOPY DUP2 MLOAD SWAP2 MSTORE SSTORE JUMP JUMPDEST PUSH1 0xC SLOAD PUSH1 0x1 PUSH1 0x80 SHL SWAP1 DIV PUSH1 0x1 PUSH1 0x1 PUSH1 0x40 SHL SUB AND DUP2 JUMP JUMPDEST JUMP JUMPDEST PUSH1 0x6 SLOAD PUSH1 0x1 PUSH1 0x20 SHL SWAP1 DIV PUSH4 0xFFFFFFFF AND DUP2 JUMP JUMPDEST PUSH1 0x4 PUSH1 0x20 MSTORE PUSH1 0x0 SWAP1 DUP2 MSTORE PUSH1 0x40 SWAP1 KECCAK256 SLOAD PUSH1 0x1 PUSH1 0x1 PUSH1 0x80 SHL SUB DUP2 AND SWAP1 PUSH1 0x1 PUSH1 0x80 SHL SWAP1 DIV PUSH1 0xFF AND DUP3 JUMP JUMPDEST PUSH2 0x1701 PUSH2 0x38FD JUMP JUMPDEST PUSH1 0x0 DUP1 PUSH1 0x0 DUP5 DUP5 PUSH1 0x60 DUP2 LT ISZERO PUSH2 0x1716 JUMPI PUSH1 0x0 DUP1 REVERT JUMPDEST POP PUSH1 0x2 DUP1 SLOAD PUSH1 0x1 PUSH1 0x1 PUSH1 0xA0 SHL SUB PUSH1 0x20 DUP5 DUP2 ADD CALLDATALOAD DUP3 AND PUSH1 0x1 PUSH1 0x1 PUSH1 0xA0 SHL SUB NOT SWAP4 DUP5 AND OR SWAP1 SWAP4 SSTORE PUSH1 0x3 DUP1 SLOAD DUP6 CALLDATALOAD SWAP1 SWAP3 AND SWAP2 SWAP1 SWAP3 AND OR SWAP1 SSTORE PUSH1 0x0 DUP1 MSTORE PUSH1 0x7 SWAP1 MSTORE PUSH1 0x40 ADD CALLDATALOAD PUSH32 0x6D5257204EBE7D88FD91AE87941CB2DD9D8062B64AE5A2BD2D28EC40B9FBF6E2 SSTORE POP POP POP POP POP JUMP JUMPDEST PUSH1 0x0 DUP1 MLOAD PUSH1 0x20 PUSH2 0x596B DUP4 CODECOPY DUP2 MLOAD SWAP2 MSTORE SLOAD DUP1 PUSH2 0x17D0 JUMPI PUSH1 0x40 DUP1 MLOAD PUSH3 0x461BCD PUSH1 0xE5 SHL DUP2 MSTORE PUSH1 0x20 PUSH1 0x4 DUP3 ADD MSTORE PUSH1 0x1F PUSH1 0x24 DUP3 ADD MSTORE PUSH1 0x0 DUP1 MLOAD PUSH1 0x20 PUSH2 0x594B DUP4 CODECOPY DUP2 MLOAD SWAP2 MSTORE PUSH1 0x44 DUP3 ADD MSTORE SWAP1 MLOAD SWAP1 DUP2 SWAP1 SUB PUSH1 0x64 ADD SWAP1 REVERT JUMPDEST PUSH1 0x0 PUSH1 0x0 DUP1 MLOAD PUSH1 0x20 PUSH2 0x596B DUP4 CODECOPY DUP2 MLOAD SWAP2 MSTORE SSTORE PUSH2 0x17EA PUSH2 0x302A JUMP JUMPDEST PUSH1 0x6 PUSH1 0xC SWAP1 SLOAD SWAP1 PUSH2 0x100 EXP SWAP1 DIV PUSH4 0xFFFFFFFF AND PUSH1 0x1 ADD PUSH4 0xFFFFFFFF AND DUP12 PUSH4 0xFFFFFFFF AND EQ PUSH2 0x1847 JUMPI PUSH1 0x40 DUP1 MLOAD PUSH3 0x461BCD PUSH1 0xE5 SHL DUP2 MSTORE PUSH1 0x20 PUSH1 0x4 DUP3 ADD MSTORE PUSH1 0x5 PUSH1 0x24 DUP3 ADD MSTORE PUSH5 0x66636B3131 PUSH1 0xD8 SHL PUSH1 0x44 DUP3 ADD MSTORE SWAP1 MLOAD SWAP1 DUP2 SWAP1 SUB PUSH1 0x64 ADD SWAP1 REVERT JUMPDEST PUSH1 0x3 SLOAD PUSH1 0x40 DUP1 MLOAD PUSH4 0x4B18BD0F PUSH1 0xE0 SHL DUP2 MSTORE CALLER PUSH1 0x4 DUP3 ADD MSTORE SWAP1 MLOAD PUSH1 0x1 PUSH1 0x1 PUSH1 0xA0 SHL SUB SWAP1 SWAP3 AND SWAP2 PUSH4 0x4B18BD0F SWAP2 PUSH1 0x24 DUP1 DUP3 ADD SWAP3 PUSH1 0x0 SWAP3 SWAP1 SWAP2 SWAP1 DUP3 SWAP1 SUB ADD DUP2 DUP7 DUP1 EXTCODESIZE ISZERO DUP1 ISZERO PUSH2 0x1892 JUMPI PUSH1 0x0 DUP1 REVERT JUMPDEST POP GAS STATICCALL ISZERO DUP1 ISZERO PUSH2 0x18A6 JUMPI RETURNDATASIZE PUSH1 0x0 DUP1 RETURNDATACOPY RETURNDATASIZE PUSH1 0x0 REVERT JUMPDEST POP POP POP PUSH1 0x1 DUP10 EQ SWAP1 POP PUSH2 0x18E8 JUMPI PUSH1 0x40 DUP1 MLOAD PUSH3 0x461BCD PUSH1 0xE5 SHL DUP2 MSTORE PUSH1 0x20 PUSH1 0x4 DUP3 ADD MSTORE PUSH1 0x5 PUSH1 0x24 DUP3 ADD MSTORE PUSH5 0x66636B3133 PUSH1 0xD8 SHL PUSH1 0x44 DUP3 ADD MSTORE SWAP1 MLOAD SWAP1 DUP2 SWAP1 SUB PUSH1 0x64 ADD SWAP1 REVERT JUMPDEST PUSH1 0x60 DUP8 DUP8 DUP1 DUP1 PUSH1 0x1F ADD PUSH1 0x20 DUP1 SWAP2 DIV MUL PUSH1 0x20 ADD PUSH1 0x40 MLOAD SWAP1 DUP2 ADD PUSH1 0x40 MSTORE DUP1 SWAP4 SWAP3 SWAP2 SWAP1 DUP2 DUP2 MSTORE PUSH1 0x20 ADD DUP4 DUP4 DUP1 DUP3 DUP5 CALLDATACOPY PUSH1 0x0 DUP2 DUP5 ADD MSTORE PUSH1 0x1F NOT PUSH1 0x1F DUP3 ADD AND SWAP1 POP DUP1 DUP4 ADD SWAP3 POP POP POP POP POP POP POP SWAP1 POP PUSH1 0x0 PUSH1 0xC PUSH1 0x10 SWAP1 SLOAD SWAP1 PUSH2 0x100 EXP SWAP1 DIV PUSH1 0x1 PUSH1 0x1 PUSH1 0x40 SHL SUB AND SWAP1 POP PUSH1 0x0 PUSH2 0x19BF DUP15 DUP5 DUP11 DUP11 DUP1 DUP1 PUSH1 0x1F ADD PUSH1 0x20 DUP1 SWAP2 DIV MUL PUSH1 0x20 ADD PUSH1 0x40 MLOAD SWAP1 DUP2 ADD PUSH1 0x40 MSTORE DUP1 SWAP4 SWAP3 SWAP2 SWAP1 DUP2 DUP2 MSTORE PUSH1 0x20 ADD DUP4 DUP4 DUP1 DUP3 DUP5 CALLDATACOPY PUSH1 0x0 SWAP3 ADD SWAP2 SWAP1 SWAP2 MSTORE POP POP PUSH1 0x40 DUP1 MLOAD PUSH1 0x20 DUP1 DUP15 MUL DUP3 DUP2 ADD DUP3 ADD SWAP1 SWAP4 MSTORE DUP14 DUP3 MSTORE SWAP1 SWAP4 POP DUP14 SWAP3 POP DUP13 SWAP2 DUP3 SWAP2 DUP6 ADD SWAP1 DUP5 SWAP1 DUP1 DUP3 DUP5 CALLDATACOPY PUSH1 0x0 SWAP3 ADD SWAP2 SWAP1 SWAP2 MSTORE POP PUSH2 0x3911 SWAP3 POP POP POP JUMP JUMPDEST PUSH1 0xC SLOAD SWAP1 SWAP2 POP PUSH1 0x1 PUSH1 0x80 SHL SWAP1 DIV PUSH1 0x1 PUSH1 0x1 PUSH1 0x40 SHL SUB AND DUP3 SWAP1 SUB PUSH2 0x19F7 DUP16 DUP16 DUP16 DUP16 PUSH1 0x0 DUP2 PUSH2 0x19E8 JUMPI INVALID JUMPDEST SWAP1 POP PUSH1 0x20 MUL ADD CALLDATALOAD DUP8 DUP7 DUP7 PUSH2 0x3FFD JUMP JUMPDEST PUSH1 0x6 PUSH1 0xC DUP2 DUP2 SWAP1 SLOAD SWAP1 PUSH2 0x100 EXP SWAP1 DIV PUSH4 0xFFFFFFFF AND DUP1 SWAP3 SWAP2 SWAP1 PUSH1 0x1 ADD SWAP2 SWAP1 PUSH2 0x100 EXP DUP2 SLOAD DUP2 PUSH4 0xFFFFFFFF MUL NOT AND SWAP1 DUP4 PUSH4 0xFFFFFFFF AND MUL OR SWAP1 SSTORE POP POP DUP15 PUSH4 0xFFFFFFFF AND PUSH32 0x81A92942D0F9C33B897A438384C9C3D88BE397776138EFA3BA1A4FC8B6268424 PUSH1 0x40 MLOAD PUSH1 0x40 MLOAD DUP1 SWAP2 SUB SWAP1 LOG2 POP POP POP POP PUSH1 0x1 PUSH1 0x0 DUP1 MLOAD PUSH1 0x20 PUSH2 0x596B DUP4 CODECOPY DUP2 MLOAD SWAP2 MSTORE SSTORE POP POP POP POP POP POP POP POP POP POP POP JUMP JUMPDEST PUSH1 0x0 DUP1 MLOAD PUSH1 0x20 PUSH2 0x596B DUP4 CODECOPY DUP2 MLOAD SWAP2 MSTORE SLOAD DUP1 PUSH2 0x1AD8 JUMPI PUSH1 0x40 DUP1 MLOAD PUSH3 0x461BCD PUSH1 0xE5 SHL DUP2 MSTORE PUSH1 0x20 PUSH1 0x4 DUP3 ADD MSTORE PUSH1 0x1F PUSH1 0x24 DUP3 ADD MSTORE PUSH1 0x0 DUP1 MLOAD PUSH1 0x20 PUSH2 0x594B DUP4 CODECOPY DUP2 MLOAD SWAP2 MSTORE PUSH1 0x44 DUP3 ADD MSTORE SWAP1 MLOAD SWAP1 DUP2 SWAP1 SUB PUSH1 0x64 ADD SWAP1 REVERT JUMPDEST PUSH1 0x0 PUSH1 0x0 DUP1 MLOAD PUSH1 0x20 PUSH2 0x596B DUP4 CODECOPY DUP2 MLOAD SWAP2 MSTORE SSTORE PUSH1 0x14 DUP4 EQ PUSH2 0x1B27 JUMPI PUSH1 0x40 DUP1 MLOAD PUSH3 0x461BCD PUSH1 0xE5 SHL DUP2 MSTORE PUSH1 0x20 PUSH1 0x4 DUP3 ADD MSTORE PUSH1 0x5 PUSH1 0x24 DUP3 ADD MSTORE PUSH5 0x616866313 PUSH1 0xDC SHL PUSH1 0x44 DUP3 ADD MSTORE SWAP1 MLOAD SWAP1 DUP2 SWAP1 SUB PUSH1 0x64 ADD SWAP1 REVERT JUMPDEST CALLER PUSH1 0x0 SWAP1 DUP2 MSTORE PUSH1 0xA PUSH1 0x20 SWAP1 DUP2 MSTORE PUSH1 0x40 DUP1 DUP4 KECCAK256 PUSH4 0xFFFFFFFF DUP7 AND DUP5 MSTORE SWAP1 SWAP2 MSTORE SWAP1 KECCAK256 SLOAD ISZERO PUSH2 0x1B82 JUMPI PUSH1 0x40 DUP1 MLOAD PUSH3 0x461BCD PUSH1 0xE5 SHL DUP2 MSTORE PUSH1 0x20 PUSH1 0x4 DUP3 ADD MSTORE PUSH1 0x5 PUSH1 0x24 DUP3 ADD MSTORE PUSH5 0x6168663131 PUSH1 0xD8 SHL PUSH1 0x44 DUP3 ADD MSTORE SWAP1 MLOAD SWAP1 DUP2 SWAP1 SUB PUSH1 0x64 ADD SWAP1 REVERT JUMPDEST DUP4 DUP4 PUSH1 0x40 MLOAD DUP1 DUP4 DUP4 DUP1 DUP3 DUP5 CALLDATACOPY PUSH1 0x40 DUP1 MLOAD SWAP2 SWAP1 SWAP4 ADD DUP2 SWAP1 SUB DUP2 KECCAK256 CALLER PUSH1 0x0 DUP2 DUP2 MSTORE PUSH1 0xA PUSH1 0x20 SWAP1 DUP2 MSTORE DUP7 DUP3 KECCAK256 PUSH4 0xFFFFFFFF DUP14 AND DUP1 DUP5 MSTORE SWAP1 DUP3 MSTORE SWAP2 DUP8 SWAP1 KECCAK256 SWAP4 SWAP1 SWAP4 SSTORE DUP4 MSTORE SWAP1 DUP3 ADD DUP5 DUP2 MSTORE SWAP4 DUP3 ADD DUP11 SWAP1 MSTORE SWAP6 POP PUSH32 0x9EA39B45A0CC96A2139996EC8DD30326216111249750781E563AE27C31AE8766 SWAP5 POP DUP8 SWAP4 POP DUP10 SWAP3 DUP10 SWAP3 POP PUSH1 0x60 DUP3 ADD DUP5 DUP5 DUP1 DUP3 DUP5 CALLDATACOPY PUSH1 0x0 DUP4 DUP3 ADD MSTORE PUSH1 0x40 MLOAD PUSH1 0x1F SWAP1 SWAP2 ADD PUSH1 0x1F NOT AND SWAP1 SWAP3 ADD DUP3 SWAP1 SUB SWAP7 POP SWAP1 SWAP5 POP POP POP POP POP LOG2 PUSH1 0x1 PUSH1 0x0 DUP1 MLOAD PUSH1 0x20 PUSH2 0x596B DUP4 CODECOPY DUP2 MLOAD SWAP2 MSTORE SSTORE POP POP POP POP JUMP JUMPDEST PUSH1 0x7 PUSH1 0x20 MSTORE PUSH1 0x0 SWAP1 DUP2 MSTORE PUSH1 0x40 SWAP1 KECCAK256 DUP1 SLOAD PUSH1 0x1 DUP3 ADD SLOAD PUSH1 0x2 DUP4 ADD SLOAD PUSH1 0x3 SWAP1 SWAP4 ADD SLOAD PUSH4 0xFFFFFFFF DUP1 DUP5 AND SWAP5 PUSH1 0x1 PUSH1 0x1 PUSH1 0x40 SHL SUB PUSH1 0x1 PUSH1 0x20 SHL DUP7 DIV AND SWAP5 PUSH1 0x1 PUSH1 0x60 SHL SWAP1 DIV SWAP1 SWAP2 AND SWAP3 SWAP2 DUP7 JUMP JUMPDEST PUSH1 0xC SLOAD PUSH1 0x1 PUSH1 0x1 PUSH1 0x40 SHL SUB AND DUP2 JUMP JUMPDEST PUSH1 0x0 DUP1 MLOAD PUSH1 0x20 PUSH2 0x596B DUP4 CODECOPY DUP2 MLOAD SWAP2 MSTORE SLOAD DUP1 PUSH2 0x1CE7 JUMPI PUSH1 0x40 DUP1 MLOAD PUSH3 0x461BCD PUSH1 0xE5 SHL DUP2 MSTORE PUSH1 0x20 PUSH1 0x4 DUP3 ADD MSTORE PUSH1 0x1F PUSH1 0x24 DUP3 ADD MSTORE PUSH1 0x0 DUP1 MLOAD PUSH1 0x20 PUSH2 0x594B DUP4 CODECOPY DUP2 MLOAD SWAP2 MSTORE PUSH1 0x44 DUP3 ADD MSTORE SWAP1 MLOAD SWAP1 DUP2 SWAP1 SUB PUSH1 0x64 ADD SWAP1 REVERT JUMPDEST PUSH1 0x0 PUSH1 0x0 DUP1 MLOAD PUSH1 0x20 PUSH2 0x596B DUP4 CODECOPY DUP2 MLOAD SWAP2 MSTORE SSTORE PUSH1 0x0 PUSH2 0x1D17 DUP4 PUSH1 0x6 PUSH1 0x4 SWAP1 SLOAD SWAP1 PUSH2 0x100 EXP SWAP1 DIV PUSH4 0xFFFFFFFF AND PUSH2 0x41EC JUMP JUMPDEST PUSH1 0x6 DUP1 SLOAD PUSH1 0x1 PUSH1 0x20 SHL DUP1 DUP3 DIV PUSH4 0xFFFFFFFF SWAP1 DUP2 AND DUP6 SWAP1 SUB DUP2 AND SWAP1 SWAP2 MUL PUSH8 0xFFFFFFFF00000000 NOT DUP4 AND OR DUP1 DUP3 AND DUP6 ADD DUP3 AND PUSH4 0xFFFFFFFF NOT SWAP1 SWAP2 AND OR SWAP1 SWAP3 SSTORE SWAP2 SWAP3 POP AND DUP1 JUMPDEST DUP3 DUP3 ADD PUSH4 0xFFFFFFFF AND DUP2 PUSH4 0xFFFFFFFF AND LT ISZERO PUSH2 0x200D JUMPI PUSH4 0xFFFFFFFF DUP2 AND PUSH1 0x0 SWAP1 DUP2 MSTORE PUSH1 0x5 PUSH1 0x20 MSTORE PUSH1 0x40 DUP2 KECCAK256 DUP1 SLOAD PUSH1 0x1 PUSH1 0x1 PUSH1 0xB0 SHL SUB NOT DUP2 AND SWAP1 SWAP2 SSTORE PUSH2 0xFFFF PUSH1 0x1 PUSH1 0xA0 SHL DUP3 DIV AND SWAP2 PUSH1 0x1 PUSH1 0x1 PUSH1 0xA0 SHL SUB SWAP1 SWAP2 AND SWAP1 PUSH2 0x1DB7 DUP3 DUP5 PUSH2 0x32C2 JUMP JUMPDEST PUSH1 0x1 PUSH1 0x1 PUSH1 0x50 SHL SUB NOT DUP2 AND PUSH1 0x0 SWAP1 DUP2 MSTORE PUSH1 0x4 PUSH1 0x20 MSTORE PUSH1 0x40 SWAP1 KECCAK256 SLOAD SWAP1 SWAP2 POP PUSH1 0x1 PUSH1 0x1 PUSH1 0x80 SHL SUB AND DUP1 ISZERO PUSH2 0x1FFE JUMPI PUSH1 0x1 PUSH1 0x1 PUSH1 0x50 SHL SUB NOT DUP3 AND PUSH1 0x0 SWAP1 DUP2 MSTORE PUSH1 0x4 PUSH1 0x20 MSTORE PUSH1 0x40 DUP2 KECCAK256 DUP1 SLOAD PUSH1 0x1 PUSH1 0x1 PUSH1 0x80 SHL SUB DUP1 DUP3 AND DUP6 SWAP1 SUB AND PUSH1 0x1 PUSH1 0x1 PUSH1 0x80 SHL SUB NOT SWAP1 SWAP2 AND OR SWAP1 SSTORE PUSH2 0xFFFF DUP6 AND PUSH2 0x1E41 JUMPI DUP4 PUSH2 0x1E39 DUP2 PUSH1 0x1 PUSH1 0x1 PUSH1 0x80 SHL SUB DUP6 AND PUSH2 0x4207 JUMP JUMPDEST SWAP2 POP POP PUSH2 0x1FBE JUMP JUMPDEST PUSH1 0x3 SLOAD PUSH1 0x40 DUP1 MLOAD PUSH4 0x10603DAD PUSH1 0xE0 SHL DUP2 MSTORE PUSH2 0xFFFF DUP9 AND PUSH1 0x4 DUP3 ADD MSTORE SWAP1 MLOAD PUSH1 0x0 SWAP3 PUSH1 0x1 PUSH1 0x1 PUSH1 0xA0 SHL SUB AND SWAP2 PUSH4 0x10603DAD SWAP2 PUSH1 0x24 DUP1 DUP4 ADD SWAP3 PUSH1 0x20 SWAP3 SWAP2 SWAP1 DUP3 SWAP1 SUB ADD DUP2 DUP7 DUP1 EXTCODESIZE ISZERO DUP1 ISZERO PUSH2 0x1E90 JUMPI PUSH1 0x0 DUP1 REVERT JUMPDEST POP GAS STATICCALL ISZERO DUP1 ISZERO PUSH2 0x1EA4 JUMPI RETURNDATASIZE PUSH1 0x0 DUP1 RETURNDATACOPY RETURNDATASIZE PUSH1 0x0 REVERT JUMPDEST POP POP POP POP PUSH1 0x40 MLOAD RETURNDATASIZE PUSH1 0x20 DUP2 LT ISZERO PUSH2 0x1EBA JUMPI PUSH1 0x0 DUP1 REVERT JUMPDEST POP MLOAD PUSH1 0x40 DUP1 MLOAD PUSH1 0x1 PUSH1 0x1 PUSH1 0xA0 SHL SUB DUP1 DUP5 AND PUSH1 0x24 DUP4 ADD MSTORE DUP9 AND PUSH1 0x44 DUP3 ADD MSTORE PUSH1 0x1 PUSH1 0x1 PUSH1 0x80 SHL SUB DUP7 AND PUSH1 0x64 DUP3 ADD DUP2 SWAP1 MSTORE PUSH1 0x84 DUP1 DUP4 ADD SWAP2 SWAP1 SWAP2 MSTORE DUP3 MLOAD DUP1 DUP4 SUB SWAP1 SWAP2 ADD DUP2 MSTORE PUSH1 0xA4 SWAP1 SWAP2 ADD DUP3 MSTORE PUSH1 0x20 DUP2 ADD DUP1 MLOAD PUSH1 0x1 PUSH1 0x1 PUSH1 0xE0 SHL SUB AND PUSH4 0x9A83400D PUSH1 0xE0 SHL OR DUP2 MSTORE SWAP2 MLOAD DUP2 MLOAD SWAP4 SWAP5 POP ADDRESS SWAP4 PUSH3 0x3D090 SWAP4 DUP3 SWAP2 DUP1 DUP4 DUP4 JUMPDEST PUSH1 0x20 DUP4 LT PUSH2 0x1F4F JUMPI DUP1 MLOAD DUP3 MSTORE PUSH1 0x1F NOT SWAP1 SWAP3 ADD SWAP2 PUSH1 0x20 SWAP2 DUP3 ADD SWAP2 ADD PUSH2 0x1F30 JUMP JUMPDEST PUSH1 0x1 DUP4 PUSH1 0x20 SUB PUSH2 0x100 EXP SUB DUP1 NOT DUP3 MLOAD AND DUP2 DUP5 MLOAD AND DUP1 DUP3 OR DUP6 MSTORE POP POP POP POP POP POP SWAP1 POP ADD SWAP2 POP POP PUSH1 0x0 PUSH1 0x40 MLOAD DUP1 DUP4 SUB DUP2 PUSH1 0x0 DUP8 DUP8 CALL SWAP3 POP POP POP RETURNDATASIZE DUP1 PUSH1 0x0 DUP2 EQ PUSH2 0x1FB2 JUMPI PUSH1 0x40 MLOAD SWAP2 POP PUSH1 0x1F NOT PUSH1 0x3F RETURNDATASIZE ADD AND DUP3 ADD PUSH1 0x40 MSTORE RETURNDATASIZE DUP3 MSTORE RETURNDATASIZE PUSH1 0x0 PUSH1 0x20 DUP5 ADD RETURNDATACOPY PUSH2 0x1FB7 JUMP JUMPDEST PUSH1 0x60 SWAP2 POP JUMPDEST POP SWAP1 SWAP3 POP POP POP JUMPDEST DUP1 PUSH2 0x1FFC JUMPI PUSH1 0x1 PUSH1 0x1 PUSH1 0x50 SHL SUB NOT DUP4 AND PUSH1 0x0 SWAP1 DUP2 MSTORE PUSH1 0x4 PUSH1 0x20 MSTORE PUSH1 0x40 SWAP1 KECCAK256 DUP1 SLOAD PUSH1 0x1 PUSH1 0x1 PUSH1 0x80 SHL SUB DUP1 DUP3 AND DUP6 ADD AND PUSH1 0x1 PUSH1 0x1 PUSH1 0x80 SHL SUB NOT SWAP1 SWAP2 AND OR SWAP1 SSTORE JUMPDEST POP JUMPDEST POP POP POP POP DUP1 PUSH1 0x1 ADD SWAP1 POP PUSH2 0x1D5A JUMP JUMPDEST POP PUSH4 0xFFFFFFFF DUP3 AND ISZERO PUSH2 0x205F JUMPI PUSH1 0x40 DUP1 MLOAD PUSH4 0xFFFFFFFF DUP1 DUP5 AND DUP3 MSTORE DUP5 DUP5 ADD AND PUSH1 0x20 DUP3 ADD MSTORE DUP2 MLOAD PUSH32 0x9B5478C99B5CA41BEEC4F6F6084126D6F9E26382D017B4BB67C37C9E8453A313 SWAP3 SWAP2 DUP2 SWAP1 SUB SWAP1 SWAP2 ADD SWAP1 LOG1 JUMPDEST POP POP PUSH1 0x1 PUSH1 0x0 DUP1 MLOAD PUSH1 0x20 PUSH2 0x596B DUP4 CODECOPY DUP2 MLOAD SWAP2 MSTORE SSTORE POP POP JUMP JUMPDEST PUSH1 0xC SLOAD PUSH1 0x1 PUSH1 0x1 PUSH1 0x40 SHL SUB AND PUSH1 0x0 SWAP1 DUP2 MSTORE PUSH1 0xB PUSH1 0x20 MSTORE PUSH1 0x40 DUP2 KECCAK256 PUSH1 0x2 ADD SLOAD DUP2 SWAP1 NUMBER LT DUP1 ISZERO SWAP1 PUSH2 0x20C2 JUMPI POP PUSH1 0xC SLOAD PUSH1 0x1 PUSH1 0x1 PUSH1 0x40 SHL SUB AND PUSH1 0x0 SWAP1 DUP2 MSTORE PUSH1 0xB PUSH1 0x20 MSTORE PUSH1 0x40 SWAP1 KECCAK256 PUSH1 0x2 ADD SLOAD ISZERO ISZERO JUMPDEST SWAP1 POP DUP1 ISZERO PUSH2 0x2115 JUMPI PUSH1 0x9 SLOAD PUSH1 0xFF AND PUSH2 0x210B JUMPI PUSH1 0x9 DUP1 SLOAD PUSH1 0xFF NOT AND PUSH1 0x1 OR SWAP1 SSTORE PUSH1 0x40 MLOAD PUSH32 0xC71028C67EB0EF128EA270A59A674629E767D51C1AF44ED6753FD2FAD2C7B677 SWAP1 PUSH1 0x0 SWAP1 LOG1 JUMPDEST PUSH1 0x1 SWAP2 POP POP PUSH2 0x12B0 JUMP JUMPDEST PUSH1 0x0 SWAP2 POP POP PUSH2 0x12B0 JUMP JUMPDEST POP SWAP1 JUMP JUMPDEST PUSH1 0x0 DUP1 SLOAD PUSH1 0xFF NOT AND PUSH1 0x1 SWAP1 DUP2 OR SWAP1 SWAP2 SSTORE TIMESTAMP SWAP1 SSTORE JUMP JUMPDEST PUSH1 0xB PUSH1 0x20 SWAP1 DUP2 MSTORE PUSH1 0x0 SWAP2 DUP3 MSTORE PUSH1 0x40 SWAP2 DUP3 SWAP1 KECCAK256 DUP1 SLOAD PUSH1 0x1 DUP1 DUP4 ADD DUP1 SLOAD DUP7 MLOAD PUSH1 0x2 PUSH2 0x100 SWAP5 DUP4 AND ISZERO SWAP5 SWAP1 SWAP5 MUL PUSH1 0x0 NOT ADD SWAP1 SWAP2 AND SWAP3 SWAP1 SWAP3 DIV PUSH1 0x1F DUP2 ADD DUP7 SWAP1 DIV DUP7 MUL DUP4 ADD DUP7 ADD SWAP1 SWAP7 MSTORE DUP6 DUP3 MSTORE PUSH1 0xFF SWAP1 SWAP3 AND SWAP5 SWAP3 SWAP4 SWAP1 SWAP3 SWAP1 DUP4 ADD DUP3 DUP3 DUP1 ISZERO PUSH2 0x21DC JUMPI DUP1 PUSH1 0x1F LT PUSH2 0x21B1 JUMPI PUSH2 0x100 DUP1 DUP4 SLOAD DIV MUL DUP4 MSTORE SWAP2 PUSH1 0x20 ADD SWAP2 PUSH2 0x21DC JUMP JUMPDEST DUP3 ADD SWAP2 SWAP1 PUSH1 0x0 MSTORE PUSH1 0x20 PUSH1 0x0 KECCAK256 SWAP1 JUMPDEST DUP2 SLOAD DUP2 MSTORE SWAP1 PUSH1 0x1 ADD SWAP1 PUSH1 0x20 ADD DUP1 DUP4 GT PUSH2 0x21BF JUMPI DUP3 SWAP1 SUB PUSH1 0x1F AND DUP3 ADD SWAP2 JUMPDEST POP POP POP POP POP SWAP1 DUP1 PUSH1 0x2 ADD SLOAD SWAP1 POP DUP4 JUMP JUMPDEST PUSH1 0x0 DUP1 SLOAD PUSH1 0xFF NOT AND DUP2 SSTORE PUSH1 0x1 SSTORE JUMP JUMPDEST PUSH1 0x9 SLOAD PUSH1 0xFF AND ISZERO SWAP1 JUMP JUMPDEST PUSH1 0xA PUSH1 0x20 SWAP1 DUP2 MSTORE PUSH1 0x0 SWAP3 DUP4 MSTORE PUSH1 0x40 DUP1 DUP5 KECCAK256 SWAP1 SWAP2 MSTORE SWAP1 DUP3 MSTORE SWAP1 KECCAK256 SLOAD DUP2 JUMP JUMPDEST PUSH1 0x0 SLOAD PUSH1 0xFF AND DUP2 JUMP JUMPDEST PUSH1 0x0 CALLER ADDRESS EQ PUSH2 0x2269 JUMPI PUSH1 0x40 DUP1 MLOAD PUSH3 0x461BCD PUSH1 0xE5 SHL DUP2 MSTORE PUSH1 0x20 PUSH1 0x4 DUP3 ADD MSTORE PUSH1 0x5 PUSH1 0x24 DUP3 ADD MSTORE PUSH5 0x777467313 PUSH1 0xDC SHL PUSH1 0x44 DUP3 ADD MSTORE SWAP1 MLOAD SWAP1 DUP2 SWAP1 SUB PUSH1 0x64 ADD SWAP1 REVERT JUMPDEST PUSH1 0x40 DUP1 MLOAD PUSH4 0x70A08231 PUSH1 0xE0 SHL DUP2 MSTORE ADDRESS PUSH1 0x4 DUP3 ADD MSTORE SWAP1 MLOAD PUSH1 0x0 SWAP2 PUSH1 0x1 PUSH1 0x1 PUSH1 0xA0 SHL SUB DUP9 AND SWAP2 PUSH4 0x70A08231 SWAP2 PUSH1 0x24 DUP1 DUP3 ADD SWAP3 PUSH1 0x20 SWAP3 SWAP1 SWAP2 SWAP1 DUP3 SWAP1 SUB ADD DUP2 DUP7 DUP1 EXTCODESIZE ISZERO DUP1 ISZERO PUSH2 0x22B3 JUMPI PUSH1 0x0 DUP1 REVERT JUMPDEST POP GAS STATICCALL ISZERO DUP1 ISZERO PUSH2 0x22C7 JUMPI RETURNDATASIZE PUSH1 0x0 DUP1 RETURNDATACOPY RETURNDATASIZE PUSH1 0x0 REVERT JUMPDEST POP POP POP POP PUSH1 0x40 MLOAD RETURNDATASIZE PUSH1 0x20 DUP2 LT ISZERO PUSH2 0x22DD JUMPI PUSH1 0x0 DUP1 REVERT JUMPDEST POP MLOAD SWAP1 POP PUSH2 0x22F5 DUP7 DUP7 PUSH1 0x1 PUSH1 0x1 PUSH1 0x80 SHL SUB DUP8 AND PUSH2 0x426C JUMP JUMPDEST PUSH2 0x232E JUMPI PUSH1 0x40 DUP1 MLOAD PUSH3 0x461BCD PUSH1 0xE5 SHL DUP2 MSTORE PUSH1 0x20 PUSH1 0x4 DUP3 ADD MSTORE PUSH1 0x5 PUSH1 0x24 DUP3 ADD MSTORE PUSH5 0x7774673131 PUSH1 0xD8 SHL PUSH1 0x44 DUP3 ADD MSTORE SWAP1 MLOAD SWAP1 DUP2 SWAP1 SUB PUSH1 0x64 ADD SWAP1 REVERT JUMPDEST PUSH1 0x40 DUP1 MLOAD PUSH4 0x70A08231 PUSH1 0xE0 SHL DUP2 MSTORE ADDRESS PUSH1 0x4 DUP3 ADD MSTORE SWAP1 MLOAD PUSH1 0x0 SWAP2 PUSH1 0x1 PUSH1 0x1 PUSH1 0xA0 SHL SUB DUP10 AND SWAP2 PUSH4 0x70A08231 SWAP2 PUSH1 0x24 DUP1 DUP3 ADD SWAP3 PUSH1 0x20 SWAP3 SWAP1 SWAP2 SWAP1 DUP3 SWAP1 SUB ADD DUP2 DUP7 DUP1 EXTCODESIZE ISZERO DUP1 ISZERO PUSH2 0x2378 JUMPI PUSH1 0x0 DUP1 REVERT JUMPDEST POP GAS STATICCALL ISZERO DUP1 ISZERO PUSH2 0x238C JUMPI RETURNDATASIZE PUSH1 0x0 DUP1 RETURNDATACOPY RETURNDATASIZE PUSH1 0x0 REVERT JUMPDEST POP POP POP POP PUSH1 0x40 MLOAD RETURNDATASIZE PUSH1 0x20 DUP2 LT ISZERO PUSH2 0x23A2 JUMPI PUSH1 0x0 DUP1 REVERT JUMPDEST POP MLOAD SWAP1 POP PUSH1 0x0 PUSH2 0x23B8 DUP4 DUP4 PUSH4 0xFFFFFFFF PUSH2 0x4393 AND JUMP JUMPDEST SWAP1 POP DUP5 PUSH1 0x1 PUSH1 0x1 PUSH1 0x80 SHL SUB AND DUP2 GT ISZERO PUSH2 0x2400 JUMPI PUSH1 0x40 DUP1 MLOAD PUSH3 0x461BCD PUSH1 0xE5 SHL DUP2 MSTORE PUSH1 0x20 PUSH1 0x4 DUP3 ADD MSTORE PUSH1 0x5 PUSH1 0x24 DUP3 ADD MSTORE PUSH5 0x3BBA339899 PUSH1 0xD9 SHL PUSH1 0x44 DUP3 ADD MSTORE SWAP1 MLOAD SWAP1 DUP2 SWAP1 SUB PUSH1 0x64 ADD SWAP1 REVERT JUMPDEST PUSH2 0x2409 DUP2 PUSH2 0x372E JUMP JUMPDEST SWAP9 SWAP8 POP POP POP POP POP POP POP POP JUMP JUMPDEST PUSH1 0x5 PUSH1 0x20 MSTORE PUSH1 0x0 SWAP1 DUP2 MSTORE PUSH1 0x40 SWAP1 KECCAK256 SLOAD PUSH1 0x1 PUSH1 0x1 PUSH1 0xA0 SHL SUB DUP2 AND SWAP1 PUSH1 0x1 PUSH1 0xA0 SHL SWAP1 DIV PUSH2 0xFFFF AND DUP3 JUMP JUMPDEST PUSH1 0x0 DUP1 MLOAD PUSH1 0x20 PUSH2 0x596B DUP4 CODECOPY DUP2 MLOAD SWAP2 MSTORE SLOAD DUP1 PUSH2 0x248D JUMPI PUSH1 0x40 DUP1 MLOAD PUSH3 0x461BCD PUSH1 0xE5 SHL DUP2 MSTORE PUSH1 0x20 PUSH1 0x4 DUP3 ADD MSTORE PUSH1 0x1F PUSH1 0x24 DUP3 ADD MSTORE PUSH1 0x0 DUP1 MLOAD PUSH1 0x20 PUSH2 0x594B DUP4 CODECOPY DUP2 MLOAD SWAP2 MSTORE PUSH1 0x44 DUP3 ADD MSTORE SWAP1 MLOAD SWAP1 DUP2 SWAP1 SUB PUSH1 0x64 ADD SWAP1 REVERT JUMPDEST PUSH1 0x0 PUSH1 0x0 DUP1 MLOAD PUSH1 0x20 PUSH2 0x596B DUP4 CODECOPY DUP2 MLOAD SWAP2 MSTORE SSTORE PUSH2 0x24A7 PUSH2 0x43D5 JUMP JUMPDEST PUSH2 0x24E0 JUMPI PUSH1 0x40 DUP1 MLOAD PUSH3 0x461BCD PUSH1 0xE5 SHL DUP2 MSTORE PUSH1 0x20 PUSH1 0x4 DUP3 ADD MSTORE PUSH1 0x5 PUSH1 0x24 DUP3 ADD MSTORE PUSH5 0x7262733131 PUSH1 0xD8 SHL PUSH1 0x44 DUP3 ADD MSTORE SWAP1 MLOAD SWAP1 DUP2 SWAP1 SUB PUSH1 0x64 ADD SWAP1 REVERT JUMPDEST PUSH1 0x3 SLOAD PUSH1 0x40 DUP1 MLOAD PUSH4 0x4B18BD0F PUSH1 0xE0 SHL DUP2 MSTORE CALLER PUSH1 0x4 DUP3 ADD MSTORE SWAP1 MLOAD PUSH1 0x1 PUSH1 0x1 PUSH1 0xA0 SHL SUB SWAP1 SWAP3 AND SWAP2 PUSH4 0x4B18BD0F SWAP2 PUSH1 0x24 DUP1 DUP3 ADD SWAP3 PUSH1 0x0 SWAP3 SWAP1 SWAP2 SWAP1 DUP3 SWAP1 SUB ADD DUP2 DUP7 DUP1 EXTCODESIZE ISZERO DUP1 ISZERO PUSH2 0x252B JUMPI PUSH1 0x0 DUP1 REVERT JUMPDEST POP GAS STATICCALL ISZERO DUP1 ISZERO PUSH2 0x253F JUMPI RETURNDATASIZE PUSH1 0x0 DUP1 RETURNDATACOPY RETURNDATASIZE PUSH1 0x0 REVERT JUMPDEST POP POP PUSH1 0x6 SLOAD PUSH4 0xFFFFFFFF PUSH1 0x1 PUSH1 0x60 SHL DUP3 DIV DUP2 AND SWAP4 POP PUSH1 0x0 SWAP3 POP PUSH2 0x256E SWAP2 DUP7 SWAP2 PUSH1 0x1 PUSH1 0x40 SHL SWAP1 SWAP2 DIV AND DUP5 SUB PUSH2 0x41EC JUMP JUMPDEST PUSH1 0x6 SLOAD SWAP1 SWAP2 POP PUSH1 0x0 SWAP1 PUSH1 0x1 PUSH1 0x60 SHL SWAP1 DIV PUSH4 0xFFFFFFFF AND DUP3 SWAP1 SUB PUSH1 0x1 ADD JUMPDEST DUP4 PUSH4 0xFFFFFFFF AND DUP2 PUSH4 0xFFFFFFFF AND GT PUSH2 0x269D JUMPI PUSH2 0x25A6 PUSH2 0x5849 JUMP JUMPDEST POP PUSH4 0xFFFFFFFF DUP1 DUP3 AND PUSH1 0x0 SWAP1 DUP2 MSTORE PUSH1 0x7 PUSH1 0x20 SWAP1 DUP2 MSTORE PUSH1 0x40 SWAP2 DUP3 SWAP1 KECCAK256 DUP3 MLOAD PUSH1 0xC0 DUP2 ADD DUP5 MSTORE DUP2 SLOAD DUP1 DUP7 AND DUP1 DUP4 MSTORE PUSH1 0x1 PUSH1 0x1 PUSH1 0x40 SHL SUB PUSH1 0x1 PUSH1 0x20 SHL DUP4 DIV AND SWAP5 DUP4 ADD SWAP5 SWAP1 SWAP5 MSTORE PUSH1 0x1 PUSH1 0x60 SHL SWAP1 DIV SWAP1 SWAP5 AND SWAP3 DUP5 ADD SWAP3 SWAP1 SWAP3 MSTORE PUSH1 0x1 DUP3 ADD SLOAD PUSH1 0x60 DUP5 ADD MSTORE PUSH1 0x2 DUP3 ADD SLOAD PUSH1 0x80 DUP5 ADD MSTORE PUSH1 0x3 SWAP1 SWAP2 ADD SLOAD PUSH1 0xA0 DUP4 ADD MSTORE PUSH2 0x2651 JUMPI PUSH1 0x40 DUP1 MLOAD PUSH3 0x461BCD PUSH1 0xE5 SHL DUP2 MSTORE PUSH1 0x20 PUSH1 0x4 DUP3 ADD MSTORE PUSH1 0x5 PUSH1 0x24 DUP3 ADD MSTORE PUSH5 0x66726B3131 PUSH1 0xD8 SHL PUSH1 0x44 DUP3 ADD MSTORE SWAP1 MLOAD SWAP1 DUP2 SWAP1 SUB PUSH1 0x64 ADD SWAP1 REVERT JUMPDEST PUSH1 0x20 SWAP1 DUP2 ADD MLOAD PUSH4 0xFFFFFFFF DUP4 AND PUSH1 0x0 SWAP1 DUP2 MSTORE PUSH1 0x7 SWAP1 SWAP3 MSTORE PUSH1 0x40 DUP3 KECCAK256 DUP1 SLOAD PUSH1 0x1 PUSH1 0x1 PUSH1 0x80 SHL SUB NOT AND DUP2 SSTORE PUSH1 0x1 DUP1 DUP3 ADD DUP5 SWAP1 SSTORE PUSH1 0x2 DUP3 ADD DUP5 SWAP1 SSTORE PUSH1 0x3 SWAP1 SWAP2 ADD SWAP3 SWAP1 SWAP3 SSTORE SWAP3 SWAP1 SWAP3 ADD SWAP2 ADD PUSH2 0x258B JUMP JUMPDEST POP PUSH1 0x6 DUP1 SLOAD PUSH4 0xFFFFFFFF PUSH1 0x1 PUSH1 0x60 SHL DUP1 DUP4 DIV DUP3 AND DUP7 SWAP1 SUB DUP3 AND MUL PUSH4 0xFFFFFFFF PUSH1 0x60 SHL NOT SWAP1 SWAP3 AND SWAP2 SWAP1 SWAP2 OR SWAP2 DUP3 SWAP1 SSTORE PUSH1 0xC DUP1 SLOAD PUSH1 0x1 PUSH1 0x1 PUSH1 0x40 SHL SUB PUSH1 0x1 PUSH1 0x80 SHL DUP1 DUP4 DIV DUP3 AND DUP8 SWAP1 SUB SWAP1 SWAP2 AND MUL PUSH8 0xFFFFFFFFFFFFFFFF PUSH1 0x80 SHL NOT SWAP1 SWAP2 AND OR SWAP1 SSTORE PUSH1 0x40 DUP1 MLOAD PUSH1 0x1 PUSH1 0x40 SHL SWAP1 SWAP4 DIV DUP3 AND DUP4 MSTORE SWAP5 DUP5 SWAP1 SUB SWAP1 DUP2 AND PUSH1 0x20 DUP4 ADD MSTORE DUP5 MLOAD SWAP1 SWAP5 PUSH32 0x6F3A8259CCE1EA2680115053D21C971AA1764295A45850F520525F2BFDF3C9D3 SWAP3 DUP3 SWAP1 SUB ADD SWAP1 LOG1 POP POP POP PUSH1 0x1 PUSH1 0x0 DUP1 MLOAD PUSH1 0x20 PUSH2 0x596B DUP4 CODECOPY DUP2 MLOAD SWAP2 MSTORE SSTORE POP POP JUMP JUMPDEST PUSH1 0x0 DUP1 MLOAD PUSH1 0x20 PUSH2 0x596B DUP4 CODECOPY DUP2 MLOAD SWAP2 MSTORE SLOAD DUP1 PUSH2 0x27AC JUMPI PUSH1 0x40 DUP1 MLOAD PUSH3 0x461BCD PUSH1 0xE5 SHL DUP2 MSTORE PUSH1 0x20 PUSH1 0x4 DUP3 ADD MSTORE PUSH1 0x1F PUSH1 0x24 DUP3 ADD MSTORE PUSH1 0x0 DUP1 MLOAD PUSH1 0x20 PUSH2 0x594B DUP4 CODECOPY DUP2 MLOAD SWAP2 MSTORE PUSH1 0x44 DUP3 ADD MSTORE SWAP1 MLOAD SWAP1 DUP2 SWAP1 SUB PUSH1 0x64 ADD SWAP1 REVERT JUMPDEST PUSH1 0x0 PUSH1 0x0 DUP1 MLOAD PUSH1 0x20 PUSH2 0x596B DUP4 CODECOPY DUP2 MLOAD SWAP2 MSTORE SSTORE PUSH2 0x27CA PUSH1 0x0 DUP4 CALLER PUSH2 0x445A JUMP JUMPDEST PUSH1 0x40 MLOAD PUSH1 0x0 SWAP1 CALLER SWAP1 DUP5 SWAP1 DUP4 DUP2 DUP2 DUP2 DUP6 DUP8 GAS CALL SWAP3 POP POP POP RETURNDATASIZE DUP1 PUSH1 0x0 DUP2 EQ PUSH2 0x280C JUMPI PUSH1 0x40 MLOAD SWAP2 POP PUSH1 0x1F NOT PUSH1 0x3F RETURNDATASIZE ADD AND DUP3 ADD PUSH1 0x40 MSTORE RETURNDATASIZE DUP3 MSTORE RETURNDATASIZE PUSH1 0x0 PUSH1 0x20 DUP5 ADD RETURNDATACOPY PUSH2 0x2811 JUMP JUMPDEST PUSH1 0x60 SWAP2 POP JUMPDEST POP POP SWAP1 POP DUP1 PUSH2 0x284F JUMPI PUSH1 0x40 DUP1 MLOAD PUSH3 0x461BCD PUSH1 0xE5 SHL DUP2 MSTORE PUSH1 0x20 PUSH1 0x4 DUP3 ADD MSTORE PUSH1 0x5 PUSH1 0x24 DUP3 ADD MSTORE PUSH5 0x6677653131 PUSH1 0xD8 SHL PUSH1 0x44 DUP3 ADD MSTORE SWAP1 MLOAD SWAP1 DUP2 SWAP1 SUB PUSH1 0x64 ADD SWAP1 REVERT JUMPDEST POP PUSH1 0x1 PUSH1 0x0 DUP1 MLOAD PUSH1 0x20 PUSH2 0x596B DUP4 CODECOPY DUP2 MLOAD SWAP2 MSTORE SSTORE POP POP JUMP JUMPDEST PUSH1 0xC SLOAD PUSH1 0x1 PUSH1 0x40 SHL SWAP1 DIV PUSH1 0x1 PUSH1 0x1 PUSH1 0x40 SHL SUB AND DUP2 JUMP JUMPDEST PUSH1 0x0 DUP1 MLOAD PUSH1 0x20 PUSH2 0x596B DUP4 CODECOPY DUP2 MLOAD SWAP2 MSTORE SLOAD DUP1 PUSH2 0x28CC JUMPI PUSH1 0x40 DUP1 MLOAD PUSH3 0x461BCD PUSH1 0xE5 SHL DUP2 MSTORE PUSH1 0x20 PUSH1 0x4 DUP3 ADD MSTORE PUSH1 0x1F PUSH1 0x24 DUP3 ADD MSTORE PUSH1 0x0 DUP1 MLOAD PUSH1 0x20 PUSH2 0x594B DUP4 CODECOPY DUP2 MLOAD SWAP2 MSTORE PUSH1 0x44 DUP3 ADD MSTORE SWAP1 MLOAD SWAP1 DUP2 SWAP1 SUB PUSH1 0x64 ADD SWAP1 REVERT JUMPDEST PUSH1 0x0 PUSH1 0x0 DUP1 MLOAD PUSH1 0x20 PUSH2 0x596B DUP4 CODECOPY DUP2 MLOAD SWAP2 MSTORE DUP2 SWAP1 SSTORE PUSH1 0x3 SLOAD PUSH1 0x40 DUP1 MLOAD PUSH4 0x75698BB1 PUSH1 0xE1 SHL DUP2 MSTORE PUSH1 0x1 PUSH1 0x1 PUSH1 0xA0 SHL SUB DUP8 DUP2 AND PUSH1 0x4 DUP4 ADD MSTORE SWAP2 MLOAD SWAP2 SWAP1 SWAP3 AND SWAP2 PUSH4 0xEAD31762 SWAP2 PUSH1 0x24 DUP1 DUP4 ADD SWAP3 PUSH1 0x20 SWAP3 SWAP2 SWAP1 DUP3 SWAP1 SUB ADD DUP2 DUP7 DUP1 EXTCODESIZE ISZERO DUP1 ISZERO PUSH2 0x292D JUMPI PUSH1 0x0 DUP1 REVERT JUMPDEST POP GAS STATICCALL ISZERO DUP1 ISZERO PUSH2 0x2941 JUMPI RETURNDATASIZE PUSH1 0x0 DUP1 RETURNDATACOPY RETURNDATASIZE PUSH1 0x0 REVERT JUMPDEST POP POP POP POP PUSH1 0x40 MLOAD RETURNDATASIZE PUSH1 0x20 DUP2 LT ISZERO PUSH2 0x2957 JUMPI PUSH1 0x0 DUP1 REVERT JUMPDEST POP MLOAD SWAP1 POP PUSH1 0x0 PUSH2 0x2967 CALLER DUP4 PUSH2 0x32C2 JUMP JUMPDEST PUSH1 0x1 PUSH1 0x1 PUSH1 0x50 SHL SUB NOT DUP2 AND PUSH1 0x0 SWAP1 DUP2 MSTORE PUSH1 0x4 PUSH1 0x20 DUP2 DUP2 MSTORE PUSH1 0x40 DUP1 DUP5 KECCAK256 SLOAD DUP2 MLOAD PUSH4 0x9A83400D PUSH1 0xE0 SHL DUP2 MSTORE PUSH1 0x1 PUSH1 0x1 PUSH1 0xA0 SHL SUB DUP13 AND SWAP5 DUP2 ADD SWAP5 SWAP1 SWAP5 MSTORE CALLER PUSH1 0x24 DUP6 ADD MSTORE PUSH1 0x1 PUSH1 0x1 PUSH1 0x80 SHL SUB DUP11 DUP2 AND PUSH1 0x44 DUP7 ADD MSTORE AND PUSH1 0x64 DUP5 ADD DUP2 SWAP1 MSTORE SWAP1 MLOAD SWAP5 SWAP6 POP SWAP4 ADDRESS SWAP3 PUSH4 0x9A83400D SWAP3 PUSH1 0x84 DUP1 DUP4 ADD SWAP4 SWAP2 SWAP3 DUP3 SWAP1 SUB ADD DUP2 DUP8 DUP8 DUP1 EXTCODESIZE ISZERO DUP1 ISZERO PUSH2 0x29EA JUMPI PUSH1 0x0 DUP1 REVERT JUMPDEST POP GAS CALL ISZERO DUP1 ISZERO PUSH2 0x29FE JUMPI RETURNDATASIZE PUSH1 0x0 DUP1 RETURNDATACOPY RETURNDATASIZE PUSH1 0x0 REVERT JUMPDEST POP POP POP POP PUSH1 0x40 MLOAD RETURNDATASIZE PUSH1 0x20 DUP2 LT ISZERO PUSH2 0x2A14 JUMPI PUSH1 0x0 DUP1 REVERT JUMPDEST POP MLOAD SWAP1 POP PUSH2 0x2A23 DUP5 DUP3 CALLER PUSH2 0x445A JUMP JUMPDEST POP POP POP POP PUSH1 0x1 PUSH1 0x0 DUP1 MLOAD PUSH1 0x20 PUSH2 0x596B DUP4 CODECOPY DUP2 MLOAD SWAP2 MSTORE SSTORE POP POP POP JUMP JUMPDEST PUSH1 0x6 SLOAD PUSH4 0xFFFFFFFF AND DUP2 JUMP JUMPDEST PUSH1 0x0 DUP1 MLOAD PUSH1 0x20 PUSH2 0x596B DUP4 CODECOPY DUP2 MLOAD SWAP2 MSTORE SLOAD DUP1 PUSH2 0x2A9A JUMPI PUSH1 0x40 DUP1 MLOAD PUSH3 0x461BCD PUSH1 0xE5 SHL DUP2 MSTORE PUSH1 0x20 PUSH1 0x4 DUP3 ADD MSTORE PUSH1 0x1F PUSH1 0x24 DUP3 ADD MSTORE PUSH1 0x0 DUP1 MLOAD PUSH1 0x20 PUSH2 0x594B DUP4 CODECOPY DUP2 MLOAD SWAP2 MSTORE PUSH1 0x44 DUP3 ADD MSTORE SWAP1 MLOAD SWAP1 DUP2 SWAP1 SUB PUSH1 0x64 ADD SWAP1 REVERT JUMPDEST PUSH1 0x0 PUSH1 0x0 DUP1 MLOAD PUSH1 0x20 PUSH2 0x596B DUP4 CODECOPY DUP2 MLOAD SWAP2 MSTORE SSTORE PUSH1 0x0 PUSH2 0x2AB8 CALLER DUP8 PUSH2 0x32C2 JUMP JUMPDEST PUSH1 0x9 SLOAD SWAP1 SWAP2 POP PUSH1 0xFF AND PUSH2 0x2AFA JUMPI PUSH1 0x40 DUP1 MLOAD PUSH3 0x461BCD PUSH1 0xE5 SHL DUP2 MSTORE PUSH1 0x20 PUSH1 0x4 DUP3 ADD MSTORE PUSH1 0x5 PUSH1 0x24 DUP3 ADD MSTORE PUSH5 0x6665743131 PUSH1 0xD8 SHL PUSH1 0x44 DUP3 ADD MSTORE SWAP1 MLOAD SWAP1 DUP2 SWAP1 SUB PUSH1 0x64 ADD SWAP1 REVERT JUMPDEST PUSH4 0xFFFFFFFF DUP8 AND PUSH1 0x0 SWAP1 DUP2 MSTORE PUSH1 0x8 PUSH1 0x20 SWAP1 DUP2 MSTORE PUSH1 0x40 DUP1 DUP4 KECCAK256 PUSH2 0xFFFF DUP11 AND DUP5 MSTORE SWAP1 SWAP2 MSTORE SWAP1 KECCAK256 SLOAD PUSH1 0xFF AND ISZERO PUSH2 0x2B5C JUMPI PUSH1 0x40 DUP1 MLOAD PUSH3 0x461BCD PUSH1 0xE5 SHL DUP2 MSTORE PUSH1 0x20 PUSH1 0x4 DUP3 ADD MSTORE PUSH1 0x5 PUSH1 0x24 DUP3 ADD MSTORE PUSH5 0x3332BA1899 PUSH1 0xD9 SHL PUSH1 0x44 DUP3 ADD MSTORE SWAP1 MLOAD SWAP1 DUP2 SWAP1 SUB PUSH1 0x64 ADD SWAP1 REVERT JUMPDEST PUSH1 0x2 SLOAD PUSH1 0x6 SLOAD PUSH4 0xFFFFFFFF PUSH1 0x1 PUSH1 0x40 SHL SWAP1 SWAP2 DIV DUP2 AND PUSH1 0x0 SWAP1 DUP2 MSTORE PUSH1 0x7 PUSH1 0x20 SWAP1 DUP2 MSTORE PUSH1 0x40 SWAP2 DUP3 SWAP1 KECCAK256 PUSH1 0x3 ADD SLOAD SWAP2 MLOAD PUSH4 0xC81A27AD PUSH1 0xE0 SHL DUP2 MSTORE PUSH1 0x4 DUP2 ADD DUP4 DUP2 MSTORE SWAP4 DUP13 AND PUSH1 0x24 DUP3 ADD MSTORE CALLER PUSH1 0x44 DUP3 ADD DUP2 SWAP1 MSTORE PUSH2 0xFFFF DUP13 AND PUSH1 0x64 DUP4 ADD MSTORE PUSH1 0x1 PUSH1 0x1 PUSH1 0x80 SHL SUB DUP12 AND PUSH1 0x84 DUP4 ADD MSTORE PUSH1 0xC0 PUSH1 0xA4 DUP4 ADD SWAP1 DUP2 MSTORE PUSH1 0xC4 DUP4 ADD DUP11 SWAP1 MSTORE PUSH1 0x1 PUSH1 0x1 PUSH1 0xA0 SHL SUB SWAP1 SWAP7 AND SWAP6 PUSH4 0xC81A27AD SWAP6 DUP15 SWAP5 SWAP3 SWAP4 DUP15 SWAP4 DUP15 SWAP4 DUP15 SWAP4 DUP15 SWAP4 SWAP1 SWAP3 PUSH1 0xE4 SWAP1 SWAP2 ADD SWAP1 DUP6 SWAP1 DUP6 MUL DUP1 DUP3 DUP5 CALLDATACOPY PUSH1 0x0 DUP2 DUP5 ADD MSTORE PUSH1 0x1F NOT PUSH1 0x1F DUP3 ADD AND SWAP1 POP DUP1 DUP4 ADD SWAP3 POP POP POP SWAP9 POP POP POP POP POP POP POP POP POP PUSH1 0x20 PUSH1 0x40 MLOAD DUP1 DUP4 SUB DUP2 DUP7 DUP1 EXTCODESIZE ISZERO DUP1 ISZERO PUSH2 0x2C3A JUMPI PUSH1 0x0 DUP1 REVERT JUMPDEST POP GAS STATICCALL ISZERO DUP1 ISZERO PUSH2 0x2C4E JUMPI RETURNDATASIZE PUSH1 0x0 DUP1 RETURNDATACOPY RETURNDATASIZE PUSH1 0x0 REVERT JUMPDEST POP POP POP POP PUSH1 0x40 MLOAD RETURNDATASIZE PUSH1 0x20 DUP2 LT ISZERO PUSH2 0x2C64 JUMPI PUSH1 0x0 DUP1 REVERT JUMPDEST POP MLOAD PUSH2 0x2C9F JUMPI PUSH1 0x40 DUP1 MLOAD PUSH3 0x461BCD PUSH1 0xE5 SHL DUP2 MSTORE PUSH1 0x20 PUSH1 0x4 DUP3 ADD MSTORE PUSH1 0x5 PUSH1 0x24 DUP3 ADD MSTORE PUSH5 0x6665743133 PUSH1 0xD8 SHL PUSH1 0x44 DUP3 ADD MSTORE SWAP1 MLOAD SWAP1 DUP2 SWAP1 SUB PUSH1 0x64 ADD SWAP1 REVERT JUMPDEST PUSH1 0x1 PUSH1 0x1 PUSH1 0x50 SHL SUB NOT DUP2 AND PUSH1 0x0 SWAP1 DUP2 MSTORE PUSH1 0x4 PUSH1 0x20 MSTORE PUSH1 0x40 SWAP1 KECCAK256 SLOAD PUSH1 0x1 PUSH1 0x1 PUSH1 0x80 SHL SUB AND PUSH2 0x2CD2 DUP2 DUP8 PUSH4 0xFFFFFFFF PUSH2 0x451D AND JUMP JUMPDEST PUSH1 0x1 PUSH1 0x1 PUSH1 0x50 SHL SUB NOT SWAP1 SWAP3 AND PUSH1 0x0 SWAP1 DUP2 MSTORE PUSH1 0x4 PUSH1 0x20 SWAP1 DUP2 MSTORE PUSH1 0x40 DUP1 DUP4 KECCAK256 DUP1 SLOAD PUSH1 0x1 PUSH1 0x1 PUSH1 0x80 SHL SUB SWAP7 SWAP1 SWAP7 AND PUSH1 0x1 PUSH1 0x1 PUSH1 0x80 SHL SUB NOT SWAP1 SWAP7 AND SWAP6 SWAP1 SWAP6 OR SWAP1 SWAP5 SSTORE PUSH4 0xFFFFFFFF SWAP1 SWAP10 AND DUP2 MSTORE PUSH1 0x8 DUP10 MSTORE DUP3 DUP2 KECCAK256 PUSH2 0xFFFF SWAP1 SWAP9 AND DUP2 MSTORE SWAP7 SWAP1 SWAP8 MSTORE SWAP1 SWAP5 KECCAK256 DUP1 SLOAD PUSH1 0xFF NOT AND PUSH1 0x1 SWAP1 DUP2 OR SWAP1 SWAP2 SSTORE PUSH1 0x0 DUP1 MLOAD PUSH1 0x20 PUSH2 0x596B DUP4 CODECOPY DUP2 MLOAD SWAP2 MSTORE SSTORE POP POP POP POP POP JUMP JUMPDEST PUSH1 0x0 DUP1 MLOAD PUSH1 0x20 PUSH2 0x596B DUP4 CODECOPY DUP2 MLOAD SWAP2 MSTORE SLOAD DUP1 PUSH2 0x2DA5 JUMPI PUSH1 0x40 DUP1 MLOAD PUSH3 0x461BCD PUSH1 0xE5 SHL DUP2 MSTORE PUSH1 0x20 PUSH1 0x4 DUP3 ADD MSTORE PUSH1 0x1F PUSH1 0x24 DUP3 ADD MSTORE PUSH1 0x0 DUP1 MLOAD PUSH1 0x20 PUSH2 0x594B DUP4 CODECOPY DUP2 MLOAD SWAP2 MSTORE PUSH1 0x44 DUP3 ADD MSTORE SWAP1 MLOAD SWAP1 DUP2 SWAP1 SUB PUSH1 0x64 ADD SWAP1 REVERT JUMPDEST PUSH1 0x0 PUSH1 0x0 DUP1 MLOAD PUSH1 0x20 PUSH2 0x596B DUP4 CODECOPY DUP2 MLOAD SWAP2 MSTORE SSTORE PUSH2 0x2DBF PUSH2 0x302A JUMP JUMPDEST PUSH1 0x3 SLOAD PUSH1 0x40 DUP1 MLOAD PUSH4 0x75698BB1 PUSH1 0xE1 SHL DUP2 MSTORE PUSH1 0x1 PUSH1 0x1 PUSH1 0xA0 SHL SUB DUP8 DUP2 AND PUSH1 0x4 DUP4 ADD MSTORE SWAP2 MLOAD PUSH1 0x0 SWAP4 SWAP3 SWAP1 SWAP3 AND SWAP2 PUSH4 0xEAD31762 SWAP2 PUSH1 0x24 DUP1 DUP3 ADD SWAP3 PUSH1 0x20 SWAP3 SWAP1 SWAP2 SWAP1 DUP3 SWAP1 SUB ADD DUP2 DUP7 DUP1 EXTCODESIZE ISZERO DUP1 ISZERO PUSH2 0x2E10 JUMPI PUSH1 0x0 DUP1 REVERT JUMPDEST POP GAS STATICCALL ISZERO DUP1 ISZERO PUSH2 0x2E24 JUMPI RETURNDATASIZE PUSH1 0x0 DUP1 RETURNDATACOPY RETURNDATASIZE PUSH1 0x0 REVERT JUMPDEST POP POP POP POP PUSH1 0x40 MLOAD RETURNDATASIZE PUSH1 0x20 DUP2 LT ISZERO PUSH2 0x2E3A JUMPI PUSH1 0x0 DUP1 REVERT JUMPDEST POP MLOAD PUSH1 0x40 DUP1 MLOAD PUSH4 0x70A08231 PUSH1 0xE0 SHL DUP2 MSTORE ADDRESS PUSH1 0x4 DUP3 ADD MSTORE SWAP1 MLOAD SWAP2 SWAP3 POP PUSH1 0x0 SWAP2 PUSH1 0x1 PUSH1 0x1 PUSH1 0xA0 SHL SUB DUP9 AND SWAP2 PUSH4 0x70A08231 SWAP2 PUSH1 0x24 DUP1 DUP4 ADD SWAP3 PUSH1 0x20 SWAP3 SWAP2 SWAP1 DUP3 SWAP1 SUB ADD DUP2 DUP7 DUP1 EXTCODESIZE ISZERO DUP1 ISZERO PUSH2 0x2E88 JUMPI PUSH1 0x0 DUP1 REVERT JUMPDEST POP GAS STATICCALL ISZERO DUP1 ISZERO PUSH2 0x2E9C JUMPI RETURNDATASIZE PUSH1 0x0 DUP1 RETURNDATACOPY RETURNDATASIZE PUSH1 0x0 REVERT JUMPDEST POP POP POP POP PUSH1 0x40 MLOAD RETURNDATASIZE PUSH1 0x20 DUP2 LT ISZERO PUSH2 0x2EB2 JUMPI PUSH1 0x0 DUP1 REVERT JUMPDEST POP MLOAD SWAP1 POP PUSH2 0x2EE2 DUP7 CALLER ADDRESS PUSH2 0x2ED4 PUSH13 0xFFFFFFFFFFFFFFFFFFFFFFFFFF DUP11 AND PUSH2 0x372E JUMP JUMPDEST PUSH1 0x1 PUSH1 0x1 PUSH1 0x80 SHL SUB AND PUSH2 0x4583 JUMP JUMPDEST PUSH2 0x2F1B JUMPI PUSH1 0x40 DUP1 MLOAD PUSH3 0x461BCD PUSH1 0xE5 SHL DUP2 MSTORE PUSH1 0x20 PUSH1 0x4 DUP3 ADD MSTORE PUSH1 0x5 PUSH1 0x24 DUP3 ADD MSTORE PUSH5 0x3332181899 PUSH1 0xD9 SHL PUSH1 0x44 DUP3 ADD MSTORE SWAP1 MLOAD SWAP1 DUP2 SWAP1 SUB PUSH1 0x64 ADD SWAP1 REVERT JUMPDEST PUSH1 0x40 DUP1 MLOAD PUSH4 0x70A08231 PUSH1 0xE0 SHL DUP2 MSTORE ADDRESS PUSH1 0x4 DUP3 ADD MSTORE SWAP1 MLOAD PUSH1 0x0 SWAP2 PUSH1 0x1 PUSH1 0x1 PUSH1 0xA0 SHL SUB DUP10 AND SWAP2 PUSH4 0x70A08231 SWAP2 PUSH1 0x24 DUP1 DUP3 ADD SWAP3 PUSH1 0x20 SWAP3 SWAP1 SWAP2 SWAP1 DUP3 SWAP1 SUB ADD DUP2 DUP7 DUP1 EXTCODESIZE ISZERO DUP1 ISZERO PUSH2 0x2F65 JUMPI PUSH1 0x0 DUP1 REVERT JUMPDEST POP GAS STATICCALL ISZERO DUP1 ISZERO PUSH2 0x2F79 JUMPI RETURNDATASIZE PUSH1 0x0 DUP1 RETURNDATACOPY RETURNDATASIZE PUSH1 0x0 REVERT JUMPDEST POP POP POP POP PUSH1 0x40 MLOAD RETURNDATASIZE PUSH1 0x20 DUP2 LT ISZERO PUSH2 0x2F8F JUMPI PUSH1 0x0 DUP1 REVERT JUMPDEST POP MLOAD SWAP1 POP PUSH1 0x0 PUSH2 0x2FAD PUSH2 0x2FA8 DUP4 DUP6 PUSH4 0xFFFFFFFF PUSH2 0x4393 AND JUMP JUMPDEST PUSH2 0x372E JUMP JUMPDEST SWAP1 POP PUSH2 0x2FBA DUP5 DUP3 DUP9 PUSH2 0x3772 JUMP JUMPDEST POP POP POP POP PUSH1 0x1 PUSH1 0x0 DUP1 MLOAD PUSH1 0x20 PUSH2 0x596B DUP4 CODECOPY DUP2 MLOAD SWAP2 MSTORE SSTORE POP POP POP POP JUMP JUMPDEST PUSH1 0x0 PUSH1 0x4 PUSH1 0x0 PUSH2 0x2FE6 DUP6 DUP6 PUSH2 0x32C2 JUMP JUMPDEST PUSH1 0x1 PUSH1 0x1 PUSH1 0x50 SHL SUB NOT AND DUP2 MSTORE PUSH1 0x20 DUP2 ADD SWAP2 SWAP1 SWAP2 MSTORE PUSH1 0x40 ADD PUSH1 0x0 KECCAK256 SLOAD PUSH1 0x1 PUSH1 0x1 PUSH1 0x80 SHL SUB AND SWAP4 SWAP3 POP POP POP JUMP JUMPDEST PUSH1 0x6 SLOAD PUSH1 0x1 PUSH1 0x60 SHL SWAP1 DIV PUSH4 0xFFFFFFFF AND DUP2 JUMP JUMPDEST PUSH1 0x1 SLOAD DUP2 JUMP JUMPDEST PUSH1 0x9 SLOAD PUSH1 0xFF AND ISZERO PUSH2 0x16BD JUMPI PUSH1 0x40 DUP1 MLOAD PUSH3 0x461BCD PUSH1 0xE5 SHL DUP2 MSTORE PUSH1 0x20 PUSH1 0x4 DUP3 ADD MSTORE PUSH1 0x5 PUSH1 0x24 DUP3 ADD MSTORE PUSH5 0x6672653131 PUSH1 0xD8 SHL PUSH1 0x44 DUP3 ADD MSTORE SWAP1 MLOAD SWAP1 DUP2 SWAP1 SUB PUSH1 0x64 ADD SWAP1 REVERT JUMPDEST PUSH1 0x60 DUP2 PUSH1 0x0 ADD MLOAD DUP3 PUSH1 0x20 ADD MLOAD DUP4 PUSH1 0x40 ADD MLOAD DUP5 PUSH1 0x60 ADD MLOAD PUSH1 0x40 MLOAD PUSH1 0x20 ADD DUP1 DUP6 PUSH4 0xFFFFFFFF AND PUSH4 0xFFFFFFFF AND PUSH1 0xE0 SHL DUP2 MSTORE PUSH1 0x4 ADD DUP5 PUSH1 0x1 PUSH1 0x1 PUSH1 0xA0 SHL SUB AND PUSH1 0x1 PUSH1 0x1 PUSH1 0xA0 SHL SUB AND PUSH1 0x60 SHL DUP2 MSTORE PUSH1 0x14 ADD DUP4 PUSH2 0xFFFF AND PUSH2 0xFFFF AND PUSH1 0xF0 SHL DUP2 MSTORE PUSH1 0x2 ADD DUP3 PUSH1 0x1 PUSH1 0x1 PUSH1 0x80 SHL SUB AND PUSH1 0x1 PUSH1 0x1 PUSH1 0x80 SHL SUB AND PUSH1 0x80 SHL DUP2 MSTORE PUSH1 0x10 ADD SWAP5 POP POP POP POP POP PUSH1 0x40 MLOAD PUSH1 0x20 DUP2 DUP4 SUB SUB DUP2 MSTORE SWAP1 PUSH1 0x40 MSTORE SWAP1 POP SWAP2 SWAP1 POP JUMP JUMPDEST PUSH1 0xC SLOAD PUSH1 0x40 DUP1 MLOAD PUSH1 0x60 DUP2 ADD SWAP1 SWAP2 MSTORE NUMBER PUSH2 0x4380 ADD SWAP2 PUSH1 0x1 PUSH1 0x1 PUSH1 0x40 SHL SUB DUP1 DUP3 AND PUSH1 0x1 PUSH1 0x40 SHL SWAP1 SWAP3 DIV AND ADD SWAP1 DUP1 DUP6 PUSH1 0x8 DUP2 GT ISZERO PUSH2 0x3136 JUMPI INVALID JUMPDEST DUP2 MSTORE PUSH1 0x20 DUP1 DUP3 ADD DUP7 SWAP1 MSTORE PUSH1 0x40 SWAP2 DUP3 ADD DUP6 SWAP1 MSTORE PUSH1 0x1 PUSH1 0x1 PUSH1 0x40 SHL SUB DUP5 AND PUSH1 0x0 SWAP1 DUP2 MSTORE PUSH1 0xB SWAP1 SWAP2 MSTORE KECCAK256 DUP2 MLOAD DUP2 SLOAD DUP3 SWAP1 PUSH1 0xFF NOT AND PUSH1 0x1 DUP4 PUSH1 0x8 DUP2 GT ISZERO PUSH2 0x3175 JUMPI INVALID JUMPDEST MUL OR SWAP1 SSTORE POP PUSH1 0x20 DUP3 DUP2 ADD MLOAD DUP1 MLOAD PUSH2 0x3192 SWAP3 PUSH1 0x1 DUP6 ADD SWAP3 ADD SWAP1 PUSH2 0x587E JUMP JUMPDEST POP PUSH1 0x40 DUP3 ADD MLOAD DUP2 PUSH1 0x2 ADD SSTORE SWAP1 POP POP PUSH32 0xD0943372C08B438A88D4B39D77216901079EDA9CA59D45349841C099083B6830 CALLER DUP3 DUP7 DUP7 DUP7 PUSH1 0x40 MLOAD DUP1 DUP7 PUSH1 0x1 PUSH1 0x1 PUSH1 0xA0 SHL SUB AND PUSH1 0x1 PUSH1 0x1 PUSH1 0xA0 SHL SUB AND DUP2 MSTORE PUSH1 0x20 ADD DUP6 PUSH1 0x1 PUSH1 0x1 PUSH1 0x40 SHL SUB AND PUSH1 0x1 PUSH1 0x1 PUSH1 0x40 SHL SUB AND DUP2 MSTORE PUSH1 0x20 ADD DUP5 PUSH1 0x8 DUP2 GT ISZERO PUSH2 0x3206 JUMPI INVALID JUMPDEST PUSH1 0xFF AND DUP2 MSTORE PUSH1 0x20 ADD DUP1 PUSH1 0x20 ADD DUP4 DUP2 MSTORE PUSH1 0x20 ADD DUP3 DUP2 SUB DUP3 MSTORE DUP5 DUP2 DUP2 MLOAD DUP2 MSTORE PUSH1 0x20 ADD SWAP2 POP DUP1 MLOAD SWAP1 PUSH1 0x20 ADD SWAP1 DUP1 DUP4 DUP4 PUSH1 0x0 JUMPDEST DUP4 DUP2 LT ISZERO PUSH2 0x324D JUMPI DUP2 DUP2 ADD MLOAD DUP4 DUP3 ADD MSTORE PUSH1 0x20 ADD PUSH2 0x3235 JUMP JUMPDEST POP POP POP POP SWAP1 POP SWAP1 DUP2 ADD SWAP1 PUSH1 0x1F AND DUP1 ISZERO PUSH2 0x327A JUMPI DUP1 DUP3 SUB DUP1 MLOAD PUSH1 0x1 DUP4 PUSH1 0x20 SUB PUSH2 0x100 EXP SUB NOT AND DUP2 MSTORE PUSH1 0x20 ADD SWAP2 POP JUMPDEST POP SWAP7 POP POP POP POP POP POP POP PUSH1 0x40 MLOAD DUP1 SWAP2 SUB SWAP1 LOG1 POP POP PUSH1 0xC DUP1 SLOAD PUSH1 0x1 PUSH1 0x1 PUSH1 0x1 PUSH1 0x40 SHL SUB PUSH1 0x1 PUSH1 0x40 SHL DUP1 DUP5 DIV DUP3 AND SWAP3 SWAP1 SWAP3 ADD AND MUL PUSH8 0xFFFFFFFFFFFFFFFF PUSH1 0x40 SHL NOT SWAP1 SWAP2 AND OR SWAP1 SSTORE POP POP JUMP JUMPDEST PUSH1 0xA0 SHL PUSH2 0xFFFF PUSH1 0xA0 SHL AND PUSH1 0x1 PUSH1 0x1 PUSH1 0xA0 SHL SUB SWAP2 SWAP1 SWAP2 AND OR PUSH1 0x50 SHL SWAP1 JUMP JUMPDEST PUSH1 0x27 DUP3 MLOAD DUP2 PUSH2 0x32EA JUMPI INVALID JUMPDEST MOD ISZERO PUSH2 0x3325 JUMPI PUSH1 0x40 DUP1 MLOAD PUSH3 0x461BCD PUSH1 0xE5 SHL DUP2 MSTORE PUSH1 0x20 PUSH1 0x4 DUP3 ADD MSTORE PUSH1 0x5 PUSH1 0x24 DUP3 ADD MSTORE PUSH5 0x706F773131 PUSH1 0xD8 SHL PUSH1 0x44 DUP3 ADD MSTORE SWAP1 MLOAD SWAP1 DUP2 SWAP1 SUB PUSH1 0x64 ADD SWAP1 REVERT JUMPDEST PUSH1 0x6 SLOAD PUSH32 0xC5D2460186F7233C927E7DB2DCC703C0E500B653CA82273B7BFAD8045D85A470 SWAP1 PUSH1 0x0 SWAP1 PUSH1 0x1 PUSH1 0x20 SHL SWAP1 DIV PUSH4 0xFFFFFFFF AND JUMPDEST DUP5 MLOAD DUP3 LT ISZERO PUSH2 0x3517 JUMPI PUSH1 0x0 DUP1 PUSH1 0x0 DUP1 PUSH2 0x3374 DUP10 DUP8 PUSH2 0x46B0 JUMP JUMPDEST SWAP4 POP SWAP4 POP SWAP4 POP SWAP4 POP PUSH1 0x0 PUSH2 0x3388 DUP5 DUP5 PUSH2 0x32C2 JUMP JUMPDEST PUSH1 0x1 PUSH1 0x1 PUSH1 0x50 SHL SUB NOT DUP2 AND PUSH1 0x0 SWAP1 DUP2 MSTORE PUSH1 0x4 PUSH1 0x20 MSTORE PUSH1 0x40 SWAP1 DUP2 SWAP1 KECCAK256 SLOAD DUP2 MLOAD DUP1 DUP4 ADD SWAP1 SWAP3 MSTORE SWAP2 SWAP3 POP PUSH1 0x1 PUSH1 0x1 PUSH1 0x80 SHL SUB SWAP1 SWAP2 AND SWAP1 DUP1 PUSH2 0x33CC DUP4 DUP7 PUSH4 0xFFFFFFFF PUSH2 0x451D AND JUMP JUMPDEST PUSH1 0x1 PUSH1 0x1 PUSH1 0x80 SHL SUB SWAP1 DUP2 AND DUP3 MSTORE PUSH1 0xFF PUSH1 0x20 SWAP3 DUP4 ADD DUP2 SWAP1 MSTORE PUSH1 0x1 PUSH1 0x1 PUSH1 0x50 SHL SUB NOT DUP7 AND PUSH1 0x0 SWAP1 DUP2 MSTORE PUSH1 0x4 DUP5 MSTORE PUSH1 0x40 SWAP1 KECCAK256 DUP5 MLOAD DUP2 SLOAD SWAP6 SWAP1 SWAP5 ADD MLOAD SWAP1 SWAP2 AND PUSH1 0x1 PUSH1 0x80 SHL MUL PUSH1 0xFF PUSH1 0x80 SHL NOT SWAP4 SWAP1 SWAP3 AND PUSH1 0x1 PUSH1 0x1 PUSH1 0x80 SHL SUB NOT SWAP1 SWAP5 AND SWAP4 SWAP1 SWAP4 OR SWAP2 SWAP1 SWAP2 AND OR SWAP1 SSTORE DUP6 ISZERO PUSH2 0x34AE JUMPI PUSH1 0x40 DUP1 MLOAD DUP1 DUP3 ADD DUP3 MSTORE PUSH1 0x1 PUSH1 0x1 PUSH1 0xA0 SHL SUB DUP8 DUP2 AND DUP3 MSTORE PUSH2 0xFFFF DUP8 DUP2 AND PUSH1 0x20 DUP1 DUP6 ADD SWAP2 DUP3 MSTORE PUSH1 0x6 SLOAD PUSH4 0xFFFFFFFF SWAP1 DUP2 AND DUP15 ADD AND PUSH1 0x0 SWAP1 DUP2 MSTORE PUSH1 0x5 SWAP1 SWAP2 MSTORE SWAP5 SWAP1 SWAP5 KECCAK256 SWAP3 MLOAD DUP4 SLOAD SWAP5 MLOAD PUSH1 0x1 PUSH1 0x1 PUSH1 0xA0 SHL SUB NOT SWAP1 SWAP6 AND SWAP3 AND SWAP2 SWAP1 SWAP2 OR PUSH2 0xFFFF PUSH1 0xA0 SHL NOT AND PUSH1 0x1 PUSH1 0xA0 SHL SWAP4 SWAP1 SWAP2 AND SWAP3 SWAP1 SWAP3 MUL SWAP2 SWAP1 SWAP2 OR SWAP1 SSTORE PUSH1 0x1 SWAP1 SWAP7 ADD SWAP6 JUMPDEST POP POP PUSH1 0x40 DUP1 MLOAD PUSH1 0x20 DUP1 DUP3 ADD SWAP10 SWAP1 SWAP10 MSTORE SWAP5 ISZERO ISZERO DUP6 DUP3 ADD MSTORE PUSH1 0x1 PUSH1 0x1 PUSH1 0xA0 SHL SUB SWAP1 SWAP4 AND PUSH1 0x60 DUP6 ADD MSTORE PUSH2 0xFFFF SWAP1 SWAP2 AND PUSH1 0x80 DUP5 ADD MSTORE PUSH1 0x1 PUSH1 0x1 PUSH1 0x80 SHL SUB AND PUSH1 0xA0 DUP1 DUP5 ADD SWAP2 SWAP1 SWAP2 MSTORE DUP2 MLOAD DUP1 DUP5 SUB SWAP1 SWAP2 ADD DUP2 MSTORE PUSH1 0xC0 SWAP1 SWAP3 ADD SWAP1 MSTORE DUP1 MLOAD SWAP4 ADD SWAP3 SWAP1 SWAP3 KECCAK256 SWAP2 PUSH1 0x27 SWAP2 SWAP1 SWAP2 ADD SWAP1 PUSH2 0x335B JUMP JUMPDEST DUP4 DUP4 EQ PUSH2 0x3553 JUMPI PUSH1 0x40 DUP1 MLOAD PUSH3 0x461BCD PUSH1 0xE5 SHL DUP2 MSTORE PUSH1 0x20 PUSH1 0x4 DUP3 ADD MSTORE PUSH1 0x5 PUSH1 0x24 DUP3 ADD MSTORE PUSH5 0x3837BB9899 PUSH1 0xD9 SHL PUSH1 0x44 DUP3 ADD MSTORE SWAP1 MLOAD SWAP1 DUP2 SWAP1 SUB PUSH1 0x64 ADD SWAP1 REVERT JUMPDEST PUSH1 0x6 SLOAD PUSH4 0xFFFFFFFF DUP3 DUP2 AND PUSH1 0x1 PUSH1 0x20 SHL SWAP1 SWAP3 DIV AND EQ PUSH2 0x35C3 JUMPI PUSH1 0x6 SLOAD PUSH1 0x40 DUP1 MLOAD PUSH4 0xFFFFFFFF DUP1 DUP5 AND PUSH1 0x1 PUSH1 0x20 SHL SWAP1 SWAP5 DIV DUP2 AND DUP5 ADD DUP2 AND DUP3 MSTORE SWAP3 DUP5 ADD SWAP1 SWAP3 AND PUSH1 0x20 DUP4 ADD MSTORE DUP1 MLOAD PUSH32 0xC4FAEB4E73F28A46E4A5FA2DB5B89C39698816488534AB7F0717C46F0852C366 SWAP3 DUP2 SWAP1 SUB SWAP1 SWAP2 ADD SWAP1 LOG1 JUMPDEST PUSH1 0x6 DUP1 SLOAD PUSH4 0xFFFFFFFF SWAP1 SWAP3 AND PUSH1 0x1 PUSH1 0x20 SHL MUL PUSH8 0xFFFFFFFF00000000 NOT SWAP1 SWAP3 AND SWAP2 SWAP1 SWAP2 OR SWAP1 SSTORE POP POP POP POP JUMP JUMPDEST PUSH1 0xC SLOAD PUSH1 0x1 PUSH1 0x1 PUSH1 0x40 SHL SUB PUSH1 0x1 PUSH1 0x40 SHL SWAP1 SWAP2 DIV DUP2 AND SWAP1 DUP3 AND GT ISZERO PUSH2 0x3641 JUMPI PUSH1 0x40 DUP1 MLOAD PUSH3 0x461BCD PUSH1 0xE5 SHL DUP2 MSTORE PUSH1 0x20 PUSH1 0x4 DUP3 ADD MSTORE PUSH1 0x5 PUSH1 0x24 DUP3 ADD MSTORE PUSH5 0x7063733231 PUSH1 0xD8 SHL PUSH1 0x44 DUP3 ADD MSTORE SWAP1 MLOAD SWAP1 DUP2 SWAP1 SUB PUSH1 0x64 ADD SWAP1 REVERT JUMPDEST PUSH1 0x0 PUSH2 0x364E DUP3 PUSH1 0x6 PUSH2 0x3829 JUMP JUMPDEST PUSH1 0xC SLOAD SWAP1 SWAP2 POP PUSH1 0x1 PUSH1 0x1 PUSH1 0x40 SHL SUB AND DUP1 JUMPDEST DUP3 DUP3 ADD PUSH1 0x1 PUSH1 0x1 PUSH1 0x40 SHL SUB AND DUP2 PUSH1 0x1 PUSH1 0x1 PUSH1 0x40 SHL SUB AND LT ISZERO PUSH2 0x36BB JUMPI PUSH1 0x1 PUSH1 0x1 PUSH1 0x40 SHL SUB DUP2 AND PUSH1 0x0 SWAP1 DUP2 MSTORE PUSH1 0xB PUSH1 0x20 MSTORE PUSH1 0x40 DUP2 KECCAK256 DUP1 SLOAD PUSH1 0xFF NOT AND DUP2 SSTORE SWAP1 PUSH2 0x36A9 PUSH1 0x1 DUP4 ADD DUP3 PUSH2 0x5802 JUMP JUMPDEST POP PUSH1 0x0 PUSH1 0x2 SWAP2 SWAP1 SWAP2 ADD SSTORE PUSH1 0x1 ADD PUSH2 0x365F JUMP JUMPDEST POP POP PUSH1 0xC DUP1 SLOAD PUSH1 0x1 PUSH1 0x80 SHL PUSH1 0x1 PUSH1 0x1 PUSH1 0x40 SHL SUB PUSH1 0x1 PUSH1 0x40 SHL DUP1 DUP5 DIV DUP3 AND DUP8 SWAP1 SUB DUP3 AND MUL PUSH8 0xFFFFFFFFFFFFFFFF PUSH1 0x40 SHL NOT SWAP1 SWAP4 AND SWAP3 SWAP1 SWAP3 OR DUP1 DUP4 AND DUP7 ADD DUP4 AND PUSH8 0xFFFFFFFFFFFFFFFF NOT SWAP1 SWAP2 AND OR DUP2 DUP2 DIV DUP4 AND SWAP6 SWAP1 SWAP6 SUB SWAP1 SWAP2 AND MUL PUSH8 0xFFFFFFFFFFFFFFFF PUSH1 0x80 SHL NOT SWAP1 SWAP4 AND SWAP3 SWAP1 SWAP3 OR SWAP1 SWAP2 SSTORE POP JUMP JUMPDEST PUSH1 0x0 PUSH1 0x1 PUSH1 0x80 SHL DUP3 LT PUSH2 0x211F JUMPI PUSH1 0x40 MLOAD PUSH3 0x461BCD PUSH1 0xE5 SHL DUP2 MSTORE PUSH1 0x4 ADD DUP1 DUP1 PUSH1 0x20 ADD DUP3 DUP2 SUB DUP3 MSTORE PUSH1 0x27 DUP2 MSTORE PUSH1 0x20 ADD DUP1 PUSH2 0x598B PUSH1 0x27 SWAP2 CODECOPY PUSH1 0x40 ADD SWAP2 POP POP PUSH1 0x40 MLOAD DUP1 SWAP2 SUB SWAP1 REVERT JUMPDEST PUSH2 0x377A PUSH2 0x57DB JUMP JUMPDEST PUSH1 0x40 MLOAD DUP1 PUSH1 0x80 ADD PUSH1 0x40 MSTORE DUP1 PUSH1 0x0 PUSH4 0xFFFFFFFF AND DUP2 MSTORE PUSH1 0x20 ADD DUP6 PUSH2 0xFFFF AND DUP2 MSTORE PUSH1 0x20 ADD DUP5 PUSH1 0x1 PUSH1 0x1 PUSH1 0x80 SHL SUB AND DUP2 MSTORE PUSH1 0x20 ADD DUP4 PUSH1 0x1 PUSH1 0x1 PUSH1 0xA0 SHL SUB AND DUP2 MSTORE POP SWAP1 POP PUSH1 0x60 PUSH2 0x37C5 DUP3 PUSH2 0x46F7 JUMP JUMPDEST SWAP1 POP PUSH2 0x37D2 PUSH1 0x1 DUP3 PUSH2 0x30FF JUMP JUMPDEST PUSH1 0x40 DUP1 MLOAD PUSH1 0x1 PUSH1 0x1 PUSH1 0x80 SHL SUB DUP7 AND DUP2 MSTORE SWAP1 MLOAD PUSH1 0x1 PUSH1 0x1 PUSH1 0xA0 SHL SUB DUP6 AND SWAP2 PUSH2 0xFFFF DUP9 AND SWAP2 CALLER SWAP2 PUSH32 0xB6866B029F3AA29CD9E2BFF8159A8CCAA4389F7A087C710968E0B200C0C73B08 SWAP2 SWAP1 DUP2 SWAP1 SUB PUSH1 0x20 ADD SWAP1 LOG4 POP POP POP POP POP JUMP JUMPDEST PUSH1 0x0 DUP2 PUSH1 0x1 PUSH1 0x1 PUSH1 0x40 SHL SUB AND DUP4 PUSH1 0x1 PUSH1 0x1 PUSH1 0x40 SHL SUB AND LT PUSH2 0x384A JUMPI DUP2 PUSH2 0x384C JUMP JUMPDEST DUP3 JUMPDEST SWAP4 SWAP3 POP POP POP JUMP JUMPDEST PUSH2 0x385B PUSH2 0x57DB JUMP JUMPDEST PUSH1 0x0 PUSH2 0x3867 DUP4 DUP3 PUSH2 0x4761 JUMP JUMPDEST PUSH4 0xFFFFFFFF AND DUP4 MSTORE SWAP1 POP PUSH2 0x387B DUP4 DUP3 PUSH2 0x477A JUMP JUMPDEST PUSH2 0xFFFF AND PUSH1 0x20 DUP5 ADD MSTORE SWAP1 POP PUSH2 0x3890 DUP4 DUP3 PUSH2 0x478A JUMP JUMPDEST PUSH1 0x1 PUSH1 0x1 PUSH1 0x80 SHL SUB AND PUSH1 0x40 DUP5 ADD MSTORE SWAP1 POP PUSH2 0x38AA DUP4 DUP3 PUSH2 0x479A JUMP JUMPDEST PUSH1 0x1 PUSH1 0x1 PUSH1 0xA0 SHL SUB AND PUSH1 0x60 DUP5 ADD MSTORE SWAP1 POP PUSH1 0x2A DUP2 EQ PUSH2 0x38F7 JUMPI PUSH1 0x40 DUP1 MLOAD PUSH3 0x461BCD PUSH1 0xE5 SHL DUP2 MSTORE PUSH1 0x20 PUSH1 0x4 DUP3 ADD MSTORE PUSH1 0x5 PUSH1 0x24 DUP3 ADD MSTORE PUSH5 0x726470313 PUSH1 0xDC SHL PUSH1 0x44 DUP3 ADD MSTORE SWAP1 MLOAD SWAP1 DUP2 SWAP1 SUB PUSH1 0x64 ADD SWAP1 REVERT JUMPDEST POP SWAP2 SWAP1 POP JUMP JUMPDEST PUSH1 0x1 PUSH1 0x0 DUP1 MLOAD PUSH1 0x20 PUSH2 0x596B DUP4 CODECOPY DUP2 MLOAD SWAP2 MSTORE SSTORE JUMP JUMPDEST DUP3 MLOAD PUSH1 0x0 SWAP1 PUSH1 0x9 SWAP1 MOD ISZERO PUSH2 0x3954 JUMPI PUSH1 0x40 DUP1 MLOAD PUSH3 0x461BCD PUSH1 0xE5 SHL DUP2 MSTORE PUSH1 0x20 PUSH1 0x4 DUP3 ADD MSTORE PUSH1 0x5 PUSH1 0x24 DUP3 ADD MSTORE PUSH5 0x6663733131 PUSH1 0xD8 SHL PUSH1 0x44 DUP3 ADD MSTORE SWAP1 MLOAD SWAP1 DUP2 SWAP1 SUB PUSH1 0x64 ADD SWAP1 REVERT JUMPDEST POP PUSH1 0xC SLOAD DUP4 MLOAD PUSH32 0xC5D2460186F7233C927E7DB2DCC703C0E500B653CA82273B7BFAD8045D85A470 SWAP2 PUSH1 0x1 PUSH1 0x1 PUSH1 0x40 SHL SUB DUP1 DUP3 AND PUSH1 0x1 PUSH1 0x80 SHL SWAP1 SWAP3 DIV AND ADD SWAP1 PUSH1 0x20 DUP7 DUP2 ADD SWAP2 DUP3 SWAP2 SWAP1 DUP9 ADD ADD PUSH1 0x0 DUP1 JUMPDEST DUP3 DUP6 LT ISZERO PUSH2 0x3E9E JUMPI DUP5 MLOAD PUSH1 0xF8 SHR PUSH1 0x5 DUP2 PUSH1 0x8 DUP2 GT ISZERO PUSH2 0x39BD JUMPI INVALID JUMPDEST EQ ISZERO PUSH2 0x39CF JUMPI PUSH1 0x12 SWAP6 SWAP1 SWAP6 ADD SWAP5 PUSH2 0x3E98 JUMP JUMPDEST PUSH1 0x0 DUP2 PUSH1 0x8 DUP2 GT ISZERO PUSH2 0x39DD JUMPI INVALID JUMPDEST EQ ISZERO PUSH2 0x39EF JUMPI PUSH1 0x9 SWAP6 SWAP1 SWAP6 ADD SWAP5 PUSH2 0x3E98 JUMP JUMPDEST PUSH1 0x2 DUP2 PUSH1 0x8 DUP2 GT ISZERO PUSH2 0x39FD JUMPI INVALID JUMPDEST EQ ISZERO PUSH2 0x3A0F JUMPI PUSH1 0x36 SWAP6 SWAP1 SWAP6 ADD SWAP5 PUSH2 0x3E98 JUMP JUMPDEST DUP5 DUP7 SUB PUSH1 0x1 DUP3 PUSH1 0x8 DUP2 GT ISZERO PUSH2 0x3A20 JUMPI INVALID JUMPDEST EQ ISZERO PUSH2 0x3A93 JUMPI PUSH1 0x60 PUSH2 0x3A37 DUP14 PUSH1 0x1 DUP5 ADD PUSH1 0x35 PUSH2 0x47AA JUMP JUMPDEST SWAP1 POP PUSH2 0x3A41 PUSH2 0x57DB JUMP JUMPDEST PUSH2 0x3A4A DUP3 PUSH2 0x3853 JUMP JUMPDEST SWAP1 POP PUSH2 0x3A56 DUP16 DUP3 PUSH2 0x4854 JUMP JUMPDEST PUSH2 0x3A5E PUSH2 0x58F8 JUMP JUMPDEST POP PUSH1 0x40 DUP1 MLOAD DUP1 DUP3 ADD SWAP1 SWAP2 MSTORE PUSH1 0x1 DUP2 MSTORE PUSH1 0x20 DUP2 ADD DUP4 SWAP1 MSTORE PUSH2 0x3A7E DUP2 DUP13 PUSH2 0x48DE JUMP JUMPDEST POP POP PUSH1 0x1 SWAP1 SWAP9 ADD SWAP8 POP PUSH1 0x36 SWAP7 SWAP1 SWAP7 ADD SWAP6 PUSH2 0x3E96 JUMP JUMPDEST PUSH1 0x3 DUP3 PUSH1 0x8 DUP2 GT ISZERO PUSH2 0x3AA1 JUMPI INVALID JUMPDEST EQ ISZERO PUSH2 0x3B2B JUMPI PUSH2 0x3AAF PUSH2 0x5910 JUMP JUMPDEST PUSH2 0x3ABC DUP14 DUP4 PUSH1 0x1 ADD PUSH2 0x4ADF JUMP JUMPDEST PUSH1 0x40 DUP1 DUP3 ADD MLOAD DUP3 MLOAD PUSH1 0x20 SWAP4 DUP5 ADD MLOAD DUP4 MLOAD DUP1 DUP7 ADD SWAP16 SWAP1 SWAP16 MSTORE PUSH1 0x1 DUP16 DUP6 ADD MSTORE PUSH1 0x1 PUSH1 0x1 PUSH1 0xA0 SHL SUB SWAP1 SWAP3 AND PUSH1 0x60 DUP16 ADD MSTORE PUSH2 0xFFFF AND PUSH1 0x80 DUP15 ADD MSTORE PUSH1 0x1 PUSH1 0x1 PUSH1 0x80 SHL SUB AND PUSH1 0xA0 DUP1 DUP15 ADD SWAP2 SWAP1 SWAP2 MSTORE DUP2 MLOAD DUP1 DUP15 SUB SWAP1 SWAP2 ADD DUP2 MSTORE PUSH1 0xC0 SWAP1 SWAP13 ADD SWAP1 MSTORE DUP11 MLOAD SWAP11 ADD SWAP10 SWAP1 SWAP10 KECCAK256 SWAP9 POP PUSH1 0x36 SWAP7 SWAP1 SWAP7 ADD SWAP6 PUSH2 0x3E96 JUMP JUMPDEST PUSH1 0x8 DUP3 PUSH1 0x8 DUP2 GT ISZERO PUSH2 0x3B39 JUMPI INVALID JUMPDEST EQ ISZERO PUSH2 0x3B54 JUMPI PUSH2 0x3B47 PUSH2 0x5910 JUMP JUMPDEST PUSH2 0x3ABC DUP14 DUP4 PUSH1 0x1 ADD PUSH2 0x4B3B JUMP JUMPDEST PUSH1 0x6 DUP3 PUSH1 0x8 DUP2 GT ISZERO PUSH2 0x3B62 JUMPI INVALID JUMPDEST EQ ISZERO PUSH2 0x3C60 JUMPI PUSH1 0x60 PUSH2 0x3B79 DUP14 PUSH1 0x1 DUP5 ADD PUSH1 0x35 PUSH2 0x47AA JUMP JUMPDEST SWAP1 POP PUSH2 0x3B83 PUSH2 0x57DB JUMP JUMPDEST PUSH2 0x3B8C DUP3 PUSH2 0x4B51 JUMP JUMPDEST SWAP1 POP PUSH2 0x3B98 DUP16 DUP3 PUSH2 0x4BF5 JUMP JUMPDEST PUSH1 0x0 DUP1 SWAP1 POP DUP12 DUP2 DUP4 PUSH1 0x20 ADD MLOAD DUP5 PUSH1 0x40 ADD MLOAD DUP6 PUSH1 0x60 ADD MLOAD PUSH1 0x40 MLOAD PUSH1 0x20 ADD DUP1 DUP7 DUP2 MSTORE PUSH1 0x20 ADD DUP6 ISZERO ISZERO ISZERO ISZERO DUP2 MSTORE PUSH1 0x20 ADD DUP5 PUSH1 0x1 PUSH1 0x1 PUSH1 0xA0 SHL SUB AND PUSH1 0x1 PUSH1 0x1 PUSH1 0xA0 SHL SUB AND DUP2 MSTORE PUSH1 0x20 ADD DUP4 PUSH2 0xFFFF AND PUSH2 0xFFFF AND DUP2 MSTORE PUSH1 0x20 ADD DUP3 PUSH1 0x1 PUSH1 0x1 PUSH1 0x80 SHL SUB AND PUSH1 0x1 PUSH1 0x1 PUSH1 0x80 SHL SUB AND DUP2 MSTORE PUSH1 0x20 ADD SWAP6 POP POP POP POP POP POP PUSH1 0x40 MLOAD PUSH1 0x20 DUP2 DUP4 SUB SUB DUP2 MSTORE SWAP1 PUSH1 0x40 MSTORE DUP1 MLOAD SWAP1 PUSH1 0x20 ADD KECCAK256 SWAP12 POP PUSH2 0x3C2A PUSH2 0x58F8 JUMP JUMPDEST POP PUSH1 0x40 DUP1 MLOAD DUP1 DUP3 ADD SWAP1 SWAP2 MSTORE PUSH1 0x6 DUP2 MSTORE PUSH1 0x20 DUP2 ADD DUP5 SWAP1 MSTORE PUSH2 0x3C4A DUP2 DUP14 PUSH2 0x48DE JUMP JUMPDEST POP POP PUSH1 0x1 SWAP1 SWAP10 ADD SWAP9 POP POP PUSH1 0x36 SWAP7 SWAP1 SWAP7 ADD SWAP6 PUSH2 0x3E96 JUMP JUMPDEST PUSH1 0x7 DUP3 PUSH1 0x8 DUP2 GT ISZERO PUSH2 0x3C6E JUMPI INVALID JUMPDEST EQ ISZERO PUSH2 0x3E61 JUMPI DUP10 MLOAD DUP4 PUSH2 0xFFFF AND LT PUSH2 0x3CB5 JUMPI PUSH1 0x40 DUP1 MLOAD PUSH3 0x461BCD PUSH1 0xE5 SHL DUP2 MSTORE PUSH1 0x20 PUSH1 0x4 DUP3 ADD MSTORE PUSH1 0x5 PUSH1 0x24 DUP3 ADD MSTORE PUSH5 0x6663733133 PUSH1 0xD8 SHL PUSH1 0x44 DUP3 ADD MSTORE SWAP1 MLOAD SWAP1 DUP2 SWAP1 SUB PUSH1 0x64 ADD SWAP1 REVERT JUMPDEST PUSH2 0x3CBD PUSH2 0x57DB JUMP JUMPDEST PUSH2 0x3CCA DUP14 DUP4 PUSH1 0x1 ADD PUSH2 0x4C7F JUMP JUMPDEST SWAP1 POP DUP11 DUP5 PUSH2 0xFFFF AND DUP2 MLOAD DUP2 LT PUSH2 0x3CDC JUMPI INVALID JUMPDEST PUSH1 0x20 MUL PUSH1 0x20 ADD ADD MLOAD PUSH4 0xFFFFFFFF AND PUSH1 0x0 EQ PUSH2 0x3D88 JUMPI PUSH1 0x60 PUSH2 0x3D24 DUP14 DUP8 PUSH1 0x1 PUSH1 0x1 PUSH1 0x40 SHL SUB AND DUP15 DUP9 PUSH2 0xFFFF AND DUP2 MLOAD DUP2 LT PUSH2 0x3D11 JUMPI INVALID JUMPDEST PUSH1 0x20 MUL PUSH1 0x20 ADD ADD MLOAD PUSH4 0xFFFFFFFF AND PUSH2 0x47AA JUMP JUMPDEST SWAP1 POP PUSH1 0x0 PUSH2 0x3D45 DUP3 DUP5 PUSH1 0x20 ADD MLOAD DUP6 PUSH1 0x60 ADD MLOAD DUP7 PUSH1 0x40 ADD MLOAD DUP8 PUSH1 0x0 ADD MLOAD PUSH2 0x4CEF JUMP JUMPDEST SWAP1 POP DUP1 PUSH2 0x3D81 JUMPI PUSH1 0x40 DUP1 MLOAD PUSH3 0x461BCD PUSH1 0xE5 SHL DUP2 MSTORE PUSH1 0x20 PUSH1 0x4 DUP3 ADD MSTORE PUSH1 0x5 PUSH1 0x24 DUP3 ADD MSTORE PUSH5 0x6670703135 PUSH1 0xD8 SHL PUSH1 0x44 DUP3 ADD MSTORE SWAP1 MLOAD SWAP1 DUP2 SWAP1 SUB PUSH1 0x64 ADD SWAP1 REVERT JUMPDEST POP POP PUSH2 0x3E25 JUMP JUMPDEST PUSH1 0x20 DUP1 DUP3 ADD MLOAD PUSH1 0x40 DUP1 MLOAD PUSH1 0x1 PUSH1 0x1 PUSH1 0x60 SHL SUB NOT SWAP1 SWAP3 AND DUP3 DUP5 ADD MSTORE DUP1 MLOAD DUP1 DUP4 SUB PUSH1 0x14 ADD DUP2 MSTORE PUSH1 0x34 SWAP1 SWAP3 ADD DUP2 MSTORE DUP2 MLOAD SWAP2 DUP4 ADD SWAP2 SWAP1 SWAP2 KECCAK256 DUP2 DUP5 ADD MLOAD PUSH1 0x1 PUSH1 0x1 PUSH1 0xA0 SHL SUB AND PUSH1 0x0 SWAP1 DUP2 MSTORE PUSH1 0xA DUP5 MSTORE DUP3 DUP2 KECCAK256 PUSH1 0x60 DUP7 ADD MLOAD PUSH4 0xFFFFFFFF AND DUP3 MSTORE SWAP1 SWAP4 MSTORE SWAP2 KECCAK256 SLOAD EQ DUP1 PUSH2 0x3E23 JUMPI PUSH1 0x40 DUP1 MLOAD PUSH3 0x461BCD PUSH1 0xE5 SHL DUP2 MSTORE PUSH1 0x20 PUSH1 0x4 DUP3 ADD MSTORE PUSH1 0x5 PUSH1 0x24 DUP3 ADD MSTORE PUSH5 0x333838189B PUSH1 0xD9 SHL PUSH1 0x44 DUP3 ADD MSTORE SWAP1 MLOAD SWAP1 DUP2 SWAP1 SUB PUSH1 0x64 ADD SWAP1 REVERT JUMPDEST POP JUMPDEST DUP11 DUP5 PUSH2 0xFFFF AND DUP2 MLOAD DUP2 LT PUSH2 0x3E35 JUMPI INVALID JUMPDEST PUSH1 0x20 MUL PUSH1 0x20 ADD ADD MLOAD PUSH4 0xFFFFFFFF AND DUP6 ADD SWAP5 POP DUP4 DUP1 PUSH1 0x1 ADD SWAP5 POP POP PUSH1 0x9 PUSH1 0x6 MUL PUSH1 0xFF AND DUP9 ADD SWAP8 POP POP PUSH2 0x3E96 JUMP JUMPDEST PUSH1 0x40 DUP1 MLOAD PUSH3 0x461BCD PUSH1 0xE5 SHL DUP2 MSTORE PUSH1 0x20 PUSH1 0x4 DUP3 ADD MSTORE PUSH1 0x5 PUSH1 0x24 DUP3 ADD MSTORE PUSH5 0x199C1C0C4D PUSH1 0xDA SHL PUSH1 0x44 DUP3 ADD MSTORE SWAP1 MLOAD SWAP1 DUP2 SWAP1 SUB PUSH1 0x64 ADD SWAP1 REVERT JUMPDEST POP JUMPDEST POP PUSH2 0x39A2 JUMP JUMPDEST DUP3 DUP6 EQ PUSH2 0x3EDA JUMPI PUSH1 0x40 DUP1 MLOAD PUSH3 0x461BCD PUSH1 0xE5 SHL DUP2 MSTORE PUSH1 0x20 PUSH1 0x4 DUP3 ADD MSTORE PUSH1 0x5 PUSH1 0x24 DUP3 ADD MSTORE PUSH5 0x3331B99899 PUSH1 0xD9 SHL PUSH1 0x44 DUP3 ADD MSTORE SWAP1 MLOAD SWAP1 DUP2 SWAP1 SUB PUSH1 0x64 ADD SWAP1 REVERT JUMPDEST DUP9 MLOAD DUP3 PUSH1 0x1 PUSH1 0x1 PUSH1 0x40 SHL SUB AND EQ PUSH2 0x3F20 JUMPI PUSH1 0x40 DUP1 MLOAD PUSH3 0x461BCD PUSH1 0xE5 SHL DUP2 MSTORE PUSH1 0x20 PUSH1 0x4 DUP3 ADD MSTORE PUSH1 0x5 PUSH1 0x24 DUP3 ADD MSTORE PUSH5 0x1998DCCC4D PUSH1 0xDA SHL PUSH1 0x44 DUP3 ADD MSTORE SWAP1 MLOAD SWAP1 DUP2 SWAP1 SUB PUSH1 0x64 ADD SWAP1 REVERT JUMPDEST DUP8 MLOAD DUP2 PUSH2 0xFFFF AND EQ PUSH2 0x3F61 JUMPI PUSH1 0x40 DUP1 MLOAD PUSH3 0x461BCD PUSH1 0xE5 SHL DUP2 MSTORE PUSH1 0x20 PUSH1 0x4 DUP3 ADD MSTORE PUSH1 0x5 PUSH1 0x24 DUP3 ADD MSTORE PUSH5 0x6663733135 PUSH1 0xD8 SHL PUSH1 0x44 DUP3 ADD MSTORE SWAP1 MLOAD SWAP1 DUP2 SWAP1 SUB PUSH1 0x64 ADD SWAP1 REVERT JUMPDEST PUSH1 0xC SLOAD PUSH1 0x1 PUSH1 0x1 PUSH1 0x40 SHL SUB DUP1 DUP3 AND PUSH1 0x1 PUSH1 0x40 SHL SWAP1 SWAP3 DIV DUP2 AND SWAP2 SWAP1 SWAP2 ADD DUP2 AND SWAP1 DUP8 AND GT ISZERO PUSH2 0x3FBD JUMPI PUSH1 0x40 DUP1 MLOAD PUSH3 0x461BCD PUSH1 0xE5 SHL DUP2 MSTORE PUSH1 0x20 PUSH1 0x4 DUP3 ADD MSTORE PUSH1 0x5 PUSH1 0x24 DUP3 ADD MSTORE PUSH5 0x3331B9989B PUSH1 0xD9 SHL PUSH1 0x44 DUP3 ADD MSTORE SWAP1 MLOAD SWAP1 DUP2 SWAP1 SUB PUSH1 0x64 ADD SWAP1 REVERT JUMPDEST POP POP PUSH1 0xC DUP1 SLOAD PUSH1 0x1 PUSH1 0x1 PUSH1 0x40 SHL SUB DUP1 DUP3 AND SWAP1 SWAP7 SUB SWAP1 SWAP6 AND PUSH1 0x1 PUSH1 0x80 SHL MUL PUSH8 0xFFFFFFFFFFFFFFFF PUSH1 0x80 SHL NOT SWAP1 SWAP6 AND SWAP5 SWAP1 SWAP5 OR SWAP1 SWAP4 SSTORE POP SWAP2 SWAP7 SWAP6 POP POP POP POP POP POP JUMP JUMPDEST DUP3 MLOAD PUSH1 0x9 SWAP1 MOD ISZERO PUSH2 0x403D JUMPI PUSH1 0x40 DUP1 MLOAD PUSH3 0x461BCD PUSH1 0xE5 SHL DUP2 MSTORE PUSH1 0x20 PUSH1 0x4 DUP3 ADD MSTORE PUSH1 0x5 PUSH1 0x24 DUP3 ADD MSTORE PUSH5 0x636262313 PUSH1 0xDC SHL PUSH1 0x44 DUP3 ADD MSTORE SWAP1 MLOAD SWAP1 DUP2 SWAP1 SUB PUSH1 0x64 ADD SWAP1 REVERT JUMPDEST DUP3 MLOAD PUSH1 0x2 SLOAD PUSH1 0x40 DUP1 MLOAD PUSH4 0xE54EE6B1 PUSH1 0xE0 SHL DUP2 MSTORE PUSH4 0xFFFFFFFF PUSH1 0x9 SWAP1 SWAP5 DIV SWAP4 DUP5 AND PUSH1 0x4 DUP3 ADD MSTORE SWAP1 MLOAD PUSH1 0x1 PUSH1 0x1 PUSH1 0xA0 SHL SUB SWAP1 SWAP3 AND SWAP2 PUSH4 0xE54EE6B1 SWAP2 PUSH1 0x24 DUP1 DUP3 ADD SWAP3 PUSH1 0x20 SWAP3 SWAP1 SWAP2 SWAP1 DUP3 SWAP1 SUB ADD DUP2 DUP7 DUP1 EXTCODESIZE ISZERO DUP1 ISZERO PUSH2 0x4096 JUMPI PUSH1 0x0 DUP1 REVERT JUMPDEST POP GAS STATICCALL ISZERO DUP1 ISZERO PUSH2 0x40AA JUMPI RETURNDATASIZE PUSH1 0x0 DUP1 RETURNDATACOPY RETURNDATASIZE PUSH1 0x0 REVERT JUMPDEST POP POP POP POP PUSH1 0x40 MLOAD RETURNDATASIZE PUSH1 0x20 DUP2 LT ISZERO PUSH2 0x40C0 JUMPI PUSH1 0x0 DUP1 REVERT JUMPDEST POP MLOAD PUSH2 0x40FB JUMPI PUSH1 0x40 DUP1 MLOAD PUSH3 0x461BCD PUSH1 0xE5 SHL DUP2 MSTORE PUSH1 0x20 PUSH1 0x4 DUP3 ADD MSTORE PUSH1 0x5 PUSH1 0x24 DUP3 ADD MSTORE PUSH5 0x6363623131 PUSH1 0xD8 SHL PUSH1 0x44 DUP3 ADD MSTORE SWAP1 MLOAD SWAP1 DUP2 SWAP1 SUB PUSH1 0x64 ADD SWAP1 REVERT JUMPDEST PUSH4 0xFFFFFFFF PUSH1 0x0 NOT DUP9 ADD AND PUSH1 0x0 SWAP1 DUP2 MSTORE PUSH1 0x7 PUSH1 0x20 MSTORE PUSH1 0x40 DUP2 KECCAK256 PUSH1 0x3 ADD SLOAD PUSH2 0x4127 SWAP1 DUP10 SWAP1 DUP10 SWAP1 DUP10 DUP10 PUSH2 0x4F0B JUMP JUMPDEST PUSH1 0x40 DUP1 MLOAD PUSH1 0xC0 DUP2 ADD DUP3 MSTORE NUMBER PUSH4 0xFFFFFFFF SWAP1 DUP2 AND DUP3 MSTORE PUSH1 0x1 PUSH1 0x1 PUSH1 0x40 SHL SUB SWAP7 DUP8 AND PUSH1 0x20 DUP1 DUP5 ADD SWAP2 DUP3 MSTORE SWAP7 DUP3 AND DUP4 DUP6 ADD SWAP1 DUP2 MSTORE PUSH1 0x60 DUP5 ADD SWAP10 DUP11 MSTORE PUSH1 0x80 DUP5 ADD SWAP6 DUP7 MSTORE PUSH1 0xA0 DUP5 ADD SWAP12 DUP13 MSTORE SWAP13 DUP3 AND PUSH1 0x0 SWAP1 DUP2 MSTORE PUSH1 0x7 SWAP1 SWAP8 MSTORE SWAP3 SWAP1 SWAP6 KECCAK256 SWAP1 MLOAD DUP2 SLOAD SWAP3 MLOAD SWAP12 MLOAD PUSH4 0xFFFFFFFF NOT SWAP1 SWAP4 AND SWAP1 DUP7 AND OR PUSH12 0xFFFFFFFFFFFFFFFF00000000 NOT AND PUSH1 0x1 PUSH1 0x20 SHL SWAP12 SWAP1 SWAP7 AND SWAP11 SWAP1 SWAP11 MUL SWAP5 SWAP1 SWAP5 OR PUSH4 0xFFFFFFFF PUSH1 0x60 SHL NOT AND PUSH1 0x1 PUSH1 0x60 SHL SWAP5 SWAP1 SWAP4 AND SWAP4 SWAP1 SWAP4 MUL SWAP2 SWAP1 SWAP2 OR DUP8 SSTORE POP SWAP1 MLOAD PUSH1 0x1 DUP7 ADD SSTORE MLOAD PUSH1 0x2 DUP6 ADD SSTORE POP MLOAD PUSH1 0x3 SWAP1 SWAP3 ADD SWAP2 SWAP1 SWAP2 SSTORE POP JUMP JUMPDEST PUSH1 0x0 DUP2 PUSH4 0xFFFFFFFF AND DUP4 PUSH4 0xFFFFFFFF AND LT PUSH2 0x384A JUMPI DUP2 PUSH2 0x384C JUMP JUMPDEST PUSH1 0x40 MLOAD PUSH1 0x0 SWAP1 PUSH2 0x2710 SWAP1 DUP3 SWAP1 PUSH1 0x1 PUSH1 0x1 PUSH1 0xA0 SHL SUB DUP7 AND SWAP1 DUP4 SWAP1 DUP7 SWAP1 DUP5 DUP2 DUP2 DUP2 DUP6 DUP9 DUP9 CALL SWAP4 POP POP POP POP RETURNDATASIZE DUP1 PUSH1 0x0 DUP2 EQ PUSH2 0x425B JUMPI PUSH1 0x40 MLOAD SWAP2 POP PUSH1 0x1F NOT PUSH1 0x3F RETURNDATASIZE ADD AND DUP3 ADD PUSH1 0x40 MSTORE RETURNDATASIZE DUP3 MSTORE RETURNDATASIZE PUSH1 0x0 PUSH1 0x20 DUP5 ADD RETURNDATACOPY PUSH2 0x4260 JUMP JUMPDEST PUSH1 0x60 SWAP2 POP JUMPDEST POP SWAP1 SWAP7 SWAP6 POP POP POP POP POP POP JUMP JUMPDEST PUSH1 0x40 DUP1 MLOAD PUSH1 0x1 PUSH1 0x1 PUSH1 0xA0 SHL SUB DUP5 DUP2 AND PUSH1 0x24 DUP4 ADD MSTORE PUSH1 0x44 DUP1 DUP4 ADD DUP6 SWAP1 MSTORE DUP4 MLOAD DUP1 DUP5 SUB SWAP1 SWAP2 ADD DUP2 MSTORE PUSH1 0x64 SWAP1 SWAP3 ADD DUP4 MSTORE PUSH1 0x20 DUP3 ADD DUP1 MLOAD PUSH1 0x1 PUSH1 0x1 PUSH1 0xE0 SHL SUB AND PUSH4 0xA9059CBB PUSH1 0xE0 SHL OR DUP2 MSTORE SWAP3 MLOAD DUP3 MLOAD PUSH1 0x0 SWAP5 DUP6 SWAP5 PUSH1 0x60 SWAP5 DUP11 AND SWAP4 SWAP1 SWAP3 SWAP1 SWAP2 DUP3 SWAP2 DUP1 DUP4 DUP4 JUMPDEST PUSH1 0x20 DUP4 LT PUSH2 0x42EB JUMPI DUP1 MLOAD DUP3 MSTORE PUSH1 0x1F NOT SWAP1 SWAP3 ADD SWAP2 PUSH1 0x20 SWAP2 DUP3 ADD SWAP2 ADD PUSH2 0x42CC JUMP JUMPDEST PUSH1 0x1 DUP4 PUSH1 0x20 SUB PUSH2 0x100 EXP SUB DUP1 NOT DUP3 MLOAD AND DUP2 DUP5 MLOAD AND DUP1 DUP3 OR DUP6 MSTORE POP POP POP POP POP POP SWAP1 POP ADD SWAP2 POP POP PUSH1 0x0 PUSH1 0x40 MLOAD DUP1 DUP4 SUB DUP2 PUSH1 0x0 DUP7 GAS CALL SWAP2 POP POP RETURNDATASIZE DUP1 PUSH1 0x0 DUP2 EQ PUSH2 0x434D JUMPI PUSH1 0x40 MLOAD SWAP2 POP PUSH1 0x1F NOT PUSH1 0x3F RETURNDATASIZE ADD AND DUP3 ADD PUSH1 0x40 MSTORE RETURNDATASIZE DUP3 MSTORE RETURNDATASIZE PUSH1 0x0 PUSH1 0x20 DUP5 ADD RETURNDATACOPY PUSH2 0x4352 JUMP JUMPDEST PUSH1 0x60 SWAP2 POP JUMPDEST POP SWAP2 POP SWAP2 POP PUSH1 0x0 DUP2 MLOAD PUSH1 0x0 EQ DUP1 PUSH2 0x437C JUMPI POP DUP2 DUP1 PUSH1 0x20 ADD SWAP1 MLOAD PUSH1 0x20 DUP2 LT ISZERO PUSH2 0x4379 JUMPI PUSH1 0x0 DUP1 REVERT JUMPDEST POP MLOAD JUMPDEST SWAP1 POP DUP3 DUP1 ISZERO PUSH2 0x4388 JUMPI POP DUP1 JUMPDEST SWAP8 SWAP7 POP POP POP POP POP POP POP JUMP JUMPDEST PUSH1 0x0 PUSH2 0x384C DUP4 DUP4 PUSH1 0x40 MLOAD DUP1 PUSH1 0x40 ADD PUSH1 0x40 MSTORE DUP1 PUSH1 0x1E DUP2 MSTORE PUSH1 0x20 ADD PUSH32 0x536166654D6174683A207375627472616374696F6E206F766572666C6F770000 DUP2 MSTORE POP PUSH2 0x515B JUMP JUMPDEST PUSH1 0x6 SLOAD PUSH1 0x0 SWAP1 PUSH4 0xFFFFFFFF PUSH1 0x1 PUSH1 0x40 SHL DUP3 DIV DUP2 AND PUSH1 0x1 PUSH1 0x60 SHL SWAP1 SWAP3 DIV AND GT DUP1 ISZERO PUSH2 0x4424 JUMPI POP PUSH1 0x6 SLOAD PUSH1 0x1 PUSH4 0xFFFFFFFF PUSH1 0x1 PUSH1 0x40 SHL SWAP1 SWAP3 DIV DUP3 AND ADD DUP2 AND PUSH1 0x0 SWAP1 DUP2 MSTORE PUSH1 0x7 PUSH1 0x20 MSTORE PUSH1 0x40 SWAP1 KECCAK256 SLOAD AND ISZERO ISZERO JUMPDEST DUP1 ISZERO PUSH2 0x4455 JUMPI POP PUSH1 0x6 SLOAD PUSH1 0x1 PUSH1 0x40 SHL SWAP1 DIV PUSH4 0xFFFFFFFF SWAP1 DUP2 AND PUSH1 0x1 ADD DUP2 AND PUSH1 0x0 SWAP1 DUP2 MSTORE PUSH1 0x7 PUSH1 0x20 MSTORE PUSH1 0x40 SWAP1 KECCAK256 SLOAD AND NUMBER GT JUMPDEST SWAP1 POP SWAP1 JUMP JUMPDEST PUSH1 0x0 PUSH2 0x4466 DUP3 DUP6 PUSH2 0x32C2 JUMP JUMPDEST PUSH1 0x1 PUSH1 0x1 PUSH1 0x50 SHL SUB NOT DUP2 AND PUSH1 0x0 SWAP1 DUP2 MSTORE PUSH1 0x4 PUSH1 0x20 MSTORE PUSH1 0x40 SWAP1 KECCAK256 SLOAD SWAP1 SWAP2 POP PUSH1 0x1 PUSH1 0x1 PUSH1 0x80 SHL SUB AND PUSH2 0x449C DUP2 DUP6 PUSH4 0xFFFFFFFF PUSH2 0x51F2 AND JUMP JUMPDEST PUSH1 0x1 PUSH1 0x1 PUSH1 0x50 SHL SUB NOT DUP4 AND PUSH1 0x0 SWAP1 DUP2 MSTORE PUSH1 0x4 PUSH1 0x20 SWAP1 DUP2 MSTORE PUSH1 0x40 SWAP2 DUP3 SWAP1 KECCAK256 DUP1 SLOAD PUSH1 0x1 PUSH1 0x1 PUSH1 0x80 SHL SUB NOT AND PUSH1 0x1 PUSH1 0x1 PUSH1 0x80 SHL SUB SWAP5 DUP6 AND OR SWAP1 SSTORE DUP2 MLOAD SWAP3 DUP8 AND DUP4 MSTORE SWAP1 MLOAD PUSH2 0xFFFF DUP9 AND SWAP3 PUSH1 0x1 PUSH1 0x1 PUSH1 0xA0 SHL SUB DUP8 AND SWAP3 PUSH32 0x3AC065A1E69CD78FA12BA7269660A2894DA2EC7F1FF1135ED5CA04DE4B4E389E SWAP3 SWAP2 DUP3 SWAP1 SUB ADD SWAP1 LOG3 POP POP POP POP POP JUMP JUMPDEST PUSH1 0x0 DUP3 DUP3 ADD PUSH1 0x1 PUSH1 0x1 PUSH1 0x80 SHL SUB DUP1 DUP6 AND SWAP1 DUP3 AND LT ISZERO PUSH2 0x384C JUMPI PUSH1 0x40 DUP1 MLOAD PUSH3 0x461BCD PUSH1 0xE5 SHL DUP2 MSTORE PUSH1 0x20 PUSH1 0x4 DUP3 ADD MSTORE PUSH1 0x1B PUSH1 0x24 DUP3 ADD MSTORE PUSH32 0x536166654D6174683A206164646974696F6E206F766572666C6F770000000000 PUSH1 0x44 DUP3 ADD MSTORE SWAP1 MLOAD SWAP1 DUP2 SWAP1 SUB PUSH1 0x64 ADD SWAP1 REVERT JUMPDEST PUSH1 0x40 DUP1 MLOAD PUSH1 0x1 PUSH1 0x1 PUSH1 0xA0 SHL SUB DUP6 DUP2 AND PUSH1 0x24 DUP4 ADD MSTORE DUP5 DUP2 AND PUSH1 0x44 DUP4 ADD MSTORE PUSH1 0x64 DUP1 DUP4 ADD DUP6 SWAP1 MSTORE DUP4 MLOAD DUP1 DUP5 SUB SWAP1 SWAP2 ADD DUP2 MSTORE PUSH1 0x84 SWAP1 SWAP3 ADD DUP4 MSTORE PUSH1 0x20 DUP3 ADD DUP1 MLOAD PUSH1 0x1 PUSH1 0x1 PUSH1 0xE0 SHL SUB AND PUSH4 0x23B872DD PUSH1 0xE0 SHL OR DUP2 MSTORE SWAP3 MLOAD DUP3 MLOAD PUSH1 0x0 SWAP5 DUP6 SWAP5 PUSH1 0x60 SWAP5 DUP12 AND SWAP4 SWAP1 SWAP3 SWAP1 SWAP2 DUP3 SWAP2 DUP1 DUP4 DUP4 JUMPDEST PUSH1 0x20 DUP4 LT PUSH2 0x460A JUMPI DUP1 MLOAD DUP3 MSTORE PUSH1 0x1F NOT SWAP1 SWAP3 ADD SWAP2 PUSH1 0x20 SWAP2 DUP3 ADD SWAP2 ADD PUSH2 0x45EB JUMP JUMPDEST PUSH1 0x1 DUP4 PUSH1 0x20 SUB PUSH2 0x100 EXP SUB DUP1 NOT DUP3 MLOAD AND DUP2 DUP5 MLOAD AND DUP1 DUP3 OR DUP6 MSTORE POP POP POP POP POP POP SWAP1 POP ADD SWAP2 POP POP PUSH1 0x0 PUSH1 0x40 MLOAD DUP1 DUP4 SUB DUP2 PUSH1 0x0 DUP7 GAS CALL SWAP2 POP POP RETURNDATASIZE DUP1 PUSH1 0x0 DUP2 EQ PUSH2 0x466C JUMPI PUSH1 0x40 MLOAD SWAP2 POP PUSH1 0x1F NOT PUSH1 0x3F RETURNDATASIZE ADD AND DUP3 ADD PUSH1 0x40 MSTORE RETURNDATASIZE DUP3 MSTORE RETURNDATASIZE PUSH1 0x0 PUSH1 0x20 DUP5 ADD RETURNDATACOPY PUSH2 0x4671 JUMP JUMPDEST PUSH1 0x60 SWAP2 POP JUMPDEST POP SWAP2 POP SWAP2 POP PUSH1 0x0 DUP2 MLOAD PUSH1 0x0 EQ DUP1 PUSH2 0x469B JUMPI POP DUP2 DUP1 PUSH1 0x20 ADD SWAP1 MLOAD PUSH1 0x20 DUP2 LT ISZERO PUSH2 0x4698 JUMPI PUSH1 0x0 DUP1 REVERT JUMPDEST POP MLOAD JUMPDEST SWAP1 POP DUP3 DUP1 ISZERO PUSH2 0x2409 JUMPI POP SWAP8 SWAP7 POP POP POP POP POP POP POP JUMP JUMPDEST PUSH1 0x0 DUP1 DUP1 DUP1 DUP5 PUSH2 0x46C0 DUP8 DUP3 PUSH2 0x5234 JUMP JUMPDEST SWAP6 POP SWAP1 POP PUSH2 0x46CE DUP8 DUP3 PUSH2 0x479A JUMP JUMPDEST SWAP5 POP SWAP1 POP PUSH2 0x46DC DUP8 DUP3 PUSH2 0x477A JUMP JUMPDEST SWAP4 POP SWAP1 POP PUSH2 0x46EA DUP8 DUP3 PUSH2 0x478A JUMP JUMPDEST SWAP6 SWAP9 SWAP5 SWAP8 POP SWAP3 SWAP6 POP POP POP POP JUMP JUMPDEST PUSH1 0x20 DUP2 DUP2 ADD MLOAD PUSH1 0x40 DUP1 DUP5 ADD MLOAD PUSH1 0x60 SWAP5 DUP6 ADD MLOAD DUP3 MLOAD PUSH1 0x0 SWAP6 DUP2 ADD SWAP6 SWAP1 SWAP6 MSTORE PUSH1 0xF0 SWAP4 SWAP1 SWAP4 SHL PUSH1 0x1 PUSH1 0x1 PUSH1 0xF0 SHL SUB NOT AND PUSH1 0x24 DUP6 ADD MSTORE PUSH1 0x80 SHL PUSH1 0x1 PUSH1 0x1 PUSH1 0x80 SHL SUB NOT AND PUSH1 0x26 DUP5 ADD MSTORE SWAP3 SHL PUSH1 0x1 PUSH1 0x1 PUSH1 0x60 SHL SUB NOT AND PUSH1 0x36 DUP3 ADD MSTORE DUP2 MLOAD DUP1 DUP3 SUB PUSH1 0x2A ADD DUP2 MSTORE PUSH1 0x4A SWAP1 SWAP2 ADD SWAP1 SWAP2 MSTORE SWAP1 JUMP JUMPDEST PUSH1 0x4 DUP2 ADD PUSH1 0x0 PUSH2 0x4771 DUP5 DUP5 PUSH2 0x5260 JUMP JUMPDEST SWAP1 POP SWAP3 POP SWAP3 SWAP1 POP JUMP JUMPDEST PUSH1 0x2 DUP2 ADD PUSH1 0x0 PUSH2 0x4771 DUP5 DUP5 PUSH2 0x52B2 JUMP JUMPDEST PUSH1 0x10 DUP2 ADD PUSH1 0x0 PUSH2 0x4771 DUP5 DUP5 PUSH2 0x52F9 JUMP JUMPDEST PUSH1 0x14 DUP2 ADD PUSH1 0x0 PUSH2 0x4771 DUP5 DUP5 PUSH2 0x5340 JUMP JUMPDEST PUSH1 0x60 DUP2 DUP4 ADD DUP5 MLOAD LT ISZERO PUSH2 0x47EC JUMPI PUSH1 0x40 DUP1 MLOAD PUSH3 0x461BCD PUSH1 0xE5 SHL DUP2 MSTORE PUSH1 0x20 PUSH1 0x4 DUP3 ADD MSTORE PUSH1 0x5 PUSH1 0x24 DUP3 ADD MSTORE PUSH5 0x6273653131 PUSH1 0xD8 SHL PUSH1 0x44 DUP3 ADD MSTORE SWAP1 MLOAD SWAP1 DUP2 SWAP1 SUB PUSH1 0x64 ADD SWAP1 REVERT JUMPDEST PUSH1 0x60 DUP3 PUSH1 0x40 MLOAD SWAP1 DUP1 DUP3 MSTORE DUP1 PUSH1 0x1F ADD PUSH1 0x1F NOT AND PUSH1 0x20 ADD DUP3 ADD PUSH1 0x40 MSTORE DUP1 ISZERO PUSH2 0x4819 JUMPI PUSH1 0x20 DUP3 ADD DUP2 DUP1 CODESIZE DUP4 CODECOPY ADD SWAP1 POP JUMPDEST POP SWAP1 POP DUP3 ISZERO PUSH2 0x484C JUMPI PUSH1 0x20 DUP2 ADD DUP4 DUP2 ADD PUSH1 0x20 DUP7 ADD DUP8 ADD JUMPDEST DUP2 DUP4 LT ISZERO PUSH2 0x4848 JUMPI DUP1 MLOAD DUP4 MSTORE PUSH1 0x20 SWAP3 DUP4 ADD SWAP3 ADD PUSH2 0x4830 JUMP JUMPDEST POP POP POP JUMPDEST SWAP5 SWAP4 POP POP POP POP JUMP JUMPDEST DUP1 PUSH1 0x20 ADD MLOAD PUSH2 0xFFFF AND DUP2 PUSH1 0x0 ADD MLOAD PUSH4 0xFFFFFFFF AND DUP4 PUSH4 0xFFFFFFFF AND PUSH32 0xC4E73A5B67A0594D06EA2B5C311C2AA44AA340DD4DD9EC5A1A718DC391B64470 DUP5 PUSH1 0x60 ADD MLOAD DUP6 PUSH1 0x40 ADD MLOAD PUSH1 0x40 MLOAD DUP1 DUP4 PUSH1 0x1 PUSH1 0x1 PUSH1 0xA0 SHL SUB AND PUSH1 0x1 PUSH1 0x1 PUSH1 0xA0 SHL SUB AND DUP2 MSTORE PUSH1 0x20 ADD DUP3 PUSH1 0x1 PUSH1 0x1 PUSH1 0x80 SHL SUB AND PUSH1 0x1 PUSH1 0x1 PUSH1 0x80 SHL SUB AND DUP2 MSTORE PUSH1 0x20 ADD SWAP3 POP POP POP PUSH1 0x40 MLOAD DUP1 SWAP2 SUB SWAP1 LOG4 POP POP JUMP JUMPDEST PUSH1 0x1 PUSH1 0x1 PUSH1 0x40 SHL SUB DUP2 AND PUSH1 0x0 SWAP1 DUP2 MSTORE PUSH1 0xB PUSH1 0x20 SWAP1 DUP2 MSTORE PUSH1 0x40 SWAP2 DUP3 SWAP1 KECCAK256 DUP1 SLOAD PUSH1 0x1 SWAP2 DUP3 ADD DUP1 SLOAD DUP6 MLOAD PUSH1 0x2 PUSH2 0x100 SWAP6 DUP4 AND ISZERO SWAP6 SWAP1 SWAP6 MUL PUSH1 0x0 NOT ADD SWAP1 SWAP2 AND SWAP4 SWAP1 SWAP4 DIV PUSH1 0x1F DUP2 ADD DUP6 SWAP1 DIV DUP6 MUL DUP5 ADD DUP6 ADD SWAP1 SWAP6 MSTORE DUP5 DUP4 MSTORE PUSH1 0xFF SWAP1 SWAP2 AND SWAP4 PUSH1 0x60 SWAP4 DUP4 ADD DUP3 DUP3 DUP1 ISZERO PUSH2 0x498A JUMPI DUP1 PUSH1 0x1F LT PUSH2 0x495F JUMPI PUSH2 0x100 DUP1 DUP4 SLOAD DIV MUL DUP4 MSTORE SWAP2 PUSH1 0x20 ADD SWAP2 PUSH2 0x498A JUMP JUMPDEST DUP3 ADD SWAP2 SWAP1 PUSH1 0x0 MSTORE PUSH1 0x20 PUSH1 0x0 KECCAK256 SWAP1 JUMPDEST DUP2 SLOAD DUP2 MSTORE SWAP1 PUSH1 0x1 ADD SWAP1 PUSH1 0x20 ADD DUP1 DUP4 GT PUSH2 0x496D JUMPI DUP3 SWAP1 SUB PUSH1 0x1F AND DUP3 ADD SWAP2 JUMPDEST POP POP POP POP POP SWAP1 POP DUP4 PUSH1 0x0 ADD MLOAD PUSH1 0x8 DUP2 GT ISZERO PUSH2 0x49A1 JUMPI INVALID JUMPDEST DUP3 PUSH1 0x8 DUP2 GT ISZERO PUSH2 0x49AD JUMPI INVALID JUMPDEST EQ PUSH2 0x49E7 JUMPI PUSH1 0x40 DUP1 MLOAD PUSH3 0x461BCD PUSH1 0xE5 SHL DUP2 MSTORE PUSH1 0x20 PUSH1 0x4 DUP3 ADD MSTORE PUSH1 0x5 PUSH1 0x24 DUP3 ADD MSTORE PUSH5 0x373B381899 PUSH1 0xD9 SHL PUSH1 0x44 DUP3 ADD MSTORE SWAP1 MLOAD SWAP1 DUP2 SWAP1 SUB PUSH1 0x64 ADD SWAP1 REVERT JUMPDEST PUSH1 0x1 DUP5 MLOAD PUSH1 0x8 DUP2 GT ISZERO PUSH2 0x49F6 JUMPI INVALID JUMPDEST EQ ISZERO PUSH2 0x4A48 JUMPI PUSH2 0x4A0A DUP2 DUP6 PUSH1 0x20 ADD MLOAD PUSH2 0x5387 JUMP JUMPDEST PUSH2 0x4A43 JUMPI PUSH1 0x40 DUP1 MLOAD PUSH3 0x461BCD PUSH1 0xE5 SHL DUP2 MSTORE PUSH1 0x20 PUSH1 0x4 DUP3 ADD MSTORE PUSH1 0x5 PUSH1 0x24 DUP3 ADD MSTORE PUSH5 0x766E703133 PUSH1 0xD8 SHL PUSH1 0x44 DUP3 ADD MSTORE SWAP1 MLOAD SWAP1 DUP2 SWAP1 SUB PUSH1 0x64 ADD SWAP1 REVERT JUMPDEST PUSH2 0x4AD9 JUMP JUMPDEST PUSH1 0x6 DUP5 MLOAD PUSH1 0x8 DUP2 GT ISZERO PUSH2 0x4A57 JUMPI INVALID JUMPDEST EQ ISZERO PUSH2 0x4AA4 JUMPI PUSH2 0x4A6B DUP2 DUP6 PUSH1 0x20 ADD MLOAD PUSH2 0x53C6 JUMP JUMPDEST PUSH2 0x4A43 JUMPI PUSH1 0x40 DUP1 MLOAD PUSH3 0x461BCD PUSH1 0xE5 SHL DUP2 MSTORE PUSH1 0x20 PUSH1 0x4 DUP3 ADD MSTORE PUSH1 0x5 PUSH1 0x24 DUP3 ADD MSTORE PUSH5 0x1D9B9C0C4D PUSH1 0xDA SHL PUSH1 0x44 DUP3 ADD MSTORE SWAP1 MLOAD SWAP1 DUP2 SWAP1 SUB PUSH1 0x64 ADD SWAP1 REVERT JUMPDEST PUSH1 0x40 DUP1 MLOAD PUSH3 0x461BCD PUSH1 0xE5 SHL DUP2 MSTORE PUSH1 0x20 PUSH1 0x4 DUP3 ADD MSTORE PUSH1 0x5 PUSH1 0x24 DUP3 ADD MSTORE PUSH5 0x766E703135 PUSH1 0xD8 SHL PUSH1 0x44 DUP3 ADD MSTORE SWAP1 MLOAD SWAP1 DUP2 SWAP1 SUB PUSH1 0x64 ADD SWAP1 REVERT JUMPDEST POP POP POP POP JUMP JUMPDEST PUSH2 0x4AE7 PUSH2 0x5910 JUMP JUMPDEST PUSH1 0x4 DUP3 ADD PUSH2 0x4AF5 DUP5 DUP3 PUSH2 0x477A JUMP JUMPDEST PUSH2 0xFFFF AND DUP4 MSTORE SWAP1 POP PUSH2 0x4B07 DUP5 DUP3 PUSH2 0x478A JUMP JUMPDEST PUSH1 0x1 PUSH1 0x1 PUSH1 0x80 SHL SUB AND PUSH1 0x20 DUP5 ADD MSTORE PUSH1 0x2 ADD SWAP1 POP PUSH2 0x4B24 DUP5 DUP3 PUSH2 0x479A JUMP JUMPDEST PUSH1 0x1 PUSH1 0x1 PUSH1 0xA0 SHL SUB AND PUSH1 0x40 DUP5 ADD MSTORE POP SWAP1 SWAP4 SWAP3 POP POP POP JUMP JUMPDEST PUSH2 0x4B43 PUSH2 0x5910 JUMP JUMPDEST PUSH1 0x8 DUP3 ADD PUSH2 0x4AF5 DUP5 DUP3 PUSH2 0x477A JUMP JUMPDEST PUSH2 0x4B59 PUSH2 0x57DB JUMP JUMPDEST PUSH1 0x0 PUSH2 0x4B65 DUP4 DUP3 PUSH2 0x4761 JUMP JUMPDEST PUSH4 0xFFFFFFFF AND DUP4 MSTORE SWAP1 POP PUSH2 0x4B79 DUP4 DUP3 PUSH2 0x479A JUMP JUMPDEST PUSH1 0x1 PUSH1 0x1 PUSH1 0xA0 SHL SUB AND PUSH1 0x20 DUP5 ADD MSTORE SWAP1 POP PUSH2 0x4B93 DUP4 DUP3 PUSH2 0x477A JUMP JUMPDEST PUSH2 0xFFFF AND PUSH1 0x40 DUP5 ADD MSTORE SWAP1 POP PUSH2 0x4BA8 DUP4 DUP3 PUSH2 0x478A JUMP JUMPDEST PUSH1 0x1 PUSH1 0x1 PUSH1 0x80 SHL SUB AND PUSH1 0x60 DUP5 ADD MSTORE SWAP1 POP PUSH1 0x2A DUP2 EQ PUSH2 0x38F7 JUMPI PUSH1 0x40 DUP1 MLOAD PUSH3 0x461BCD PUSH1 0xE5 SHL DUP2 MSTORE PUSH1 0x20 PUSH1 0x4 DUP3 ADD MSTORE PUSH1 0x5 PUSH1 0x24 DUP3 ADD MSTORE PUSH5 0x726670313 PUSH1 0xDC SHL PUSH1 0x44 DUP3 ADD MSTORE SWAP1 MLOAD SWAP1 DUP2 SWAP1 SUB PUSH1 0x64 ADD SWAP1 REVERT JUMPDEST DUP1 PUSH1 0x40 ADD MLOAD PUSH2 0xFFFF AND DUP2 PUSH1 0x0 ADD MLOAD PUSH4 0xFFFFFFFF AND DUP4 PUSH4 0xFFFFFFFF AND PUSH32 0x66FC63D751ECBEFCA61D4E2E7C534E4F29C61AED8ECE23ED635277A7EA6F9BC4 DUP5 PUSH1 0x20 ADD MLOAD DUP6 PUSH1 0x60 ADD MLOAD PUSH1 0x40 MLOAD DUP1 DUP4 PUSH1 0x1 PUSH1 0x1 PUSH1 0xA0 SHL SUB AND PUSH1 0x1 PUSH1 0x1 PUSH1 0xA0 SHL SUB AND DUP2 MSTORE PUSH1 0x20 ADD DUP3 PUSH1 0x1 PUSH1 0x1 PUSH1 0x80 SHL SUB AND PUSH1 0x1 PUSH1 0x1 PUSH1 0x80 SHL SUB AND DUP2 MSTORE PUSH1 0x20 ADD SWAP3 POP POP POP PUSH1 0x40 MLOAD DUP1 SWAP2 SUB SWAP1 LOG4 POP POP JUMP JUMPDEST PUSH2 0x4C87 PUSH2 0x57DB JUMP JUMPDEST DUP2 PUSH2 0x4C92 DUP5 DUP3 PUSH2 0x4761 JUMP JUMPDEST PUSH4 0xFFFFFFFF AND DUP4 MSTORE SWAP1 POP PUSH2 0x4CA6 DUP5 DUP3 PUSH2 0x53EF JUMP JUMPDEST PUSH1 0x1 PUSH1 0x1 PUSH1 0x60 SHL SUB NOT AND PUSH1 0x20 DUP5 ADD MSTORE SWAP1 POP PUSH2 0x4CC1 DUP5 DUP3 PUSH2 0x479A JUMP JUMPDEST PUSH1 0x1 PUSH1 0x1 PUSH1 0xA0 SHL SUB AND PUSH1 0x40 DUP5 ADD MSTORE SWAP1 POP PUSH2 0x4CDB DUP5 DUP3 PUSH2 0x4761 JUMP JUMPDEST PUSH4 0xFFFFFFFF AND PUSH1 0x60 DUP5 ADD MSTORE POP SWAP1 SWAP4 SWAP3 POP POP POP JUMP JUMPDEST PUSH1 0x40 DUP1 MLOAD PUSH1 0x1 PUSH1 0x1 PUSH1 0x60 SHL SUB NOT DUP7 AND PUSH1 0x20 DUP3 ADD MSTORE DUP2 MLOAD DUP1 DUP3 SUB PUSH1 0x14 ADD DUP2 MSTORE PUSH1 0x34 SWAP1 SWAP2 ADD SWAP1 SWAP2 MSTORE PUSH1 0x0 SWAP1 PUSH1 0x60 SWAP1 PUSH2 0x4D24 SWAP1 PUSH2 0x53FF JUMP JUMPDEST PUSH2 0x4D35 PUSH2 0x4D30 DUP8 PUSH2 0x54A9 JUMP JUMPDEST PUSH2 0x53FF JUMP JUMPDEST PUSH2 0x4D41 PUSH2 0x4D30 DUP7 PUSH2 0x54A9 JUMP JUMPDEST PUSH1 0x40 MLOAD PUSH1 0x20 ADD DUP1 DUP1 PUSH32 0x19457468657265756D205369676E6564204D6573736167653A0A313532000000 DUP2 MSTORE POP PUSH1 0x1D ADD DUP1 PUSH32 0x5265676973746572207A6B53796E63207075626B65793A0A0A00000000000000 DUP2 MSTORE POP PUSH1 0x19 ADD DUP5 DUP1 MLOAD SWAP1 PUSH1 0x20 ADD SWAP1 DUP1 DUP4 DUP4 JUMPDEST PUSH1 0x20 DUP4 LT PUSH2 0x4DC3 JUMPI DUP1 MLOAD DUP3 MSTORE PUSH1 0x1F NOT SWAP1 SWAP3 ADD SWAP2 PUSH1 0x20 SWAP2 DUP3 ADD SWAP2 ADD PUSH2 0x4DA4 JUMP JUMPDEST MLOAD DUP2 MLOAD PUSH1 0x20 SWAP4 DUP5 SUB PUSH2 0x100 EXP PUSH1 0x0 NOT ADD DUP1 NOT SWAP1 SWAP3 AND SWAP2 AND OR SWAP1 MSTORE PUSH1 0x5 PUSH1 0xF9 SHL SWAP2 SWAP1 SWAP4 ADD SWAP1 DUP2 MSTORE PUSH9 0xDCDEDCC6CA744060F PUSH1 0xBB SHL PUSH1 0x1 DUP3 ADD MSTORE DUP6 MLOAD PUSH1 0xA SWAP1 SWAP2 ADD SWAP3 DUP7 ADD SWAP2 POP DUP1 DUP4 DUP4 JUMPDEST PUSH1 0x20 DUP4 LT PUSH2 0x4E2A JUMPI DUP1 MLOAD DUP3 MSTORE PUSH1 0x1F NOT SWAP1 SWAP3 ADD SWAP2 PUSH1 0x20 SWAP2 DUP3 ADD SWAP2 ADD PUSH2 0x4E0B JUMP JUMPDEST MLOAD DUP2 MLOAD PUSH1 0x20 SWAP4 DUP5 SUB PUSH2 0x100 EXP PUSH1 0x0 NOT ADD DUP1 NOT SWAP1 SWAP3 AND SWAP2 AND OR SWAP1 MSTORE PUSH1 0x5 PUSH1 0xF9 SHL SWAP2 SWAP1 SWAP4 ADD SWAP1 DUP2 MSTORE PUSH14 0xC2C6C6DEEADCE840D2C8744060F PUSH1 0x93 SHL PUSH1 0x1 DUP3 ADD MSTORE DUP5 MLOAD PUSH1 0xF SWAP1 SWAP2 ADD SWAP3 DUP6 ADD SWAP2 POP DUP1 DUP4 DUP4 JUMPDEST PUSH1 0x20 DUP4 LT PUSH2 0x4E96 JUMPI DUP1 MLOAD DUP3 MSTORE PUSH1 0x1F NOT SWAP1 SWAP3 ADD SWAP2 PUSH1 0x20 SWAP2 DUP3 ADD SWAP2 ADD PUSH2 0x4E77 JUMP JUMPDEST MLOAD DUP2 MLOAD PUSH1 0x20 SWAP4 SWAP1 SWAP4 SUB PUSH2 0x100 EXP PUSH1 0x0 NOT ADD DUP1 NOT SWAP1 SWAP2 AND SWAP3 AND SWAP2 SWAP1 SWAP2 OR SWAP1 MSTORE PUSH2 0x505 PUSH1 0xF1 SHL SWAP3 ADD SWAP2 DUP3 MSTORE POP PUSH1 0x2 ADD PUSH1 0x2C PUSH2 0x59B2 DUP3 CODECOPY PUSH1 0x2C ADD SWAP4 POP POP POP POP PUSH1 0x40 MLOAD PUSH1 0x20 DUP2 DUP4 SUB SUB DUP2 MSTORE SWAP1 PUSH1 0x40 MSTORE SWAP1 POP PUSH1 0x0 PUSH2 0x4EEF DUP9 DUP4 PUSH2 0x54C2 JUMP JUMPDEST PUSH1 0x1 PUSH1 0x1 PUSH1 0xA0 SHL SUB SWAP1 DUP2 AND SWAP1 DUP7 AND EQ SWAP3 POP POP POP SWAP6 SWAP5 POP POP POP POP POP JUMP JUMPDEST PUSH1 0x0 DUP1 PUSH1 0x2 DUP8 PUSH4 0xFFFFFFFF AND DUP8 PUSH4 0xFFFFFFFF AND PUSH1 0x40 MLOAD PUSH1 0x20 ADD DUP1 DUP4 DUP2 MSTORE PUSH1 0x20 ADD DUP3 DUP2 MSTORE PUSH1 0x20 ADD SWAP3 POP POP POP PUSH1 0x40 MLOAD PUSH1 0x20 DUP2 DUP4 SUB SUB DUP2 MSTORE SWAP1 PUSH1 0x40 MSTORE PUSH1 0x40 MLOAD DUP1 DUP3 DUP1 MLOAD SWAP1 PUSH1 0x20 ADD SWAP1 DUP1 DUP4 DUP4 JUMPDEST PUSH1 0x20 DUP4 LT PUSH2 0x4F73 JUMPI DUP1 MLOAD DUP3 MSTORE PUSH1 0x1F NOT SWAP1 SWAP3 ADD SWAP2 PUSH1 0x20 SWAP2 DUP3 ADD SWAP2 ADD PUSH2 0x4F54 JUMP JUMPDEST MLOAD DUP2 MLOAD PUSH1 0x20 SWAP4 DUP5 SUB PUSH2 0x100 EXP PUSH1 0x0 NOT ADD DUP1 NOT SWAP1 SWAP3 AND SWAP2 AND OR SWAP1 MSTORE PUSH1 0x40 MLOAD SWAP2 SWAP1 SWAP4 ADD SWAP5 POP SWAP2 SWAP3 POP POP DUP1 DUP4 SUB DUP2 DUP6 GAS STATICCALL ISZERO DUP1 ISZERO PUSH2 0x4FB2 JUMPI RETURNDATASIZE PUSH1 0x0 DUP1 RETURNDATACOPY RETURNDATASIZE PUSH1 0x0 REVERT JUMPDEST POP POP POP PUSH1 0x40 MLOAD RETURNDATASIZE PUSH1 0x20 DUP2 LT ISZERO PUSH2 0x4FC7 JUMPI PUSH1 0x0 DUP1 REVERT JUMPDEST POP MLOAD PUSH1 0x40 DUP1 MLOAD PUSH1 0x20 DUP2 DUP2 ADD DUP5 SWAP1 MSTORE DUP2 DUP4 ADD DUP10 SWAP1 MSTORE DUP3 MLOAD DUP1 DUP4 SUB DUP5 ADD DUP2 MSTORE PUSH1 0x60 SWAP1 SWAP3 ADD SWAP3 DUP4 SWAP1 MSTORE DUP2 MLOAD SWAP4 SWAP5 POP PUSH1 0x2 SWAP4 SWAP2 SWAP3 SWAP2 DUP3 SWAP2 DUP5 ADD SWAP1 DUP1 DUP4 DUP4 JUMPDEST PUSH1 0x20 DUP4 LT PUSH2 0x5020 JUMPI DUP1 MLOAD DUP3 MSTORE PUSH1 0x1F NOT SWAP1 SWAP3 ADD SWAP2 PUSH1 0x20 SWAP2 DUP3 ADD SWAP2 ADD PUSH2 0x5001 JUMP JUMPDEST MLOAD DUP2 MLOAD PUSH1 0x20 SWAP4 DUP5 SUB PUSH2 0x100 EXP PUSH1 0x0 NOT ADD DUP1 NOT SWAP1 SWAP3 AND SWAP2 AND OR SWAP1 MSTORE PUSH1 0x40 MLOAD SWAP2 SWAP1 SWAP4 ADD SWAP5 POP SWAP2 SWAP3 POP POP DUP1 DUP4 SUB DUP2 DUP6 GAS STATICCALL ISZERO DUP1 ISZERO PUSH2 0x505F JUMPI RETURNDATASIZE PUSH1 0x0 DUP1 RETURNDATACOPY RETURNDATASIZE PUSH1 0x0 REVERT JUMPDEST POP POP POP PUSH1 0x40 MLOAD RETURNDATASIZE PUSH1 0x20 DUP2 LT ISZERO PUSH2 0x5074 JUMPI PUSH1 0x0 DUP1 REVERT JUMPDEST POP MLOAD PUSH1 0x40 DUP1 MLOAD PUSH1 0x20 DUP2 DUP2 ADD DUP5 SWAP1 MSTORE DUP2 DUP4 ADD DUP9 SWAP1 MSTORE DUP3 MLOAD DUP1 DUP4 SUB DUP5 ADD DUP2 MSTORE PUSH1 0x60 SWAP1 SWAP3 ADD SWAP3 DUP4 SWAP1 MSTORE DUP2 MLOAD SWAP4 SWAP5 POP PUSH1 0x2 SWAP4 SWAP2 SWAP3 SWAP2 DUP3 SWAP2 DUP5 ADD SWAP1 DUP1 DUP4 DUP4 JUMPDEST PUSH1 0x20 DUP4 LT PUSH2 0x50CD JUMPI DUP1 MLOAD DUP3 MSTORE PUSH1 0x1F NOT SWAP1 SWAP3 ADD SWAP2 PUSH1 0x20 SWAP2 DUP3 ADD SWAP2 ADD PUSH2 0x50AE JUMP JUMPDEST MLOAD DUP2 MLOAD PUSH1 0x20 SWAP4 DUP5 SUB PUSH2 0x100 EXP PUSH1 0x0 NOT ADD DUP1 NOT SWAP1 SWAP3 AND SWAP2 AND OR SWAP1 MSTORE PUSH1 0x40 MLOAD SWAP2 SWAP1 SWAP4 ADD SWAP5 POP SWAP2 SWAP3 POP POP DUP1 DUP4 SUB DUP2 DUP6 GAS STATICCALL ISZERO DUP1 ISZERO PUSH2 0x510C JUMPI RETURNDATASIZE PUSH1 0x0 DUP1 RETURNDATACOPY RETURNDATASIZE PUSH1 0x0 REVERT JUMPDEST POP POP POP PUSH1 0x40 MLOAD RETURNDATASIZE PUSH1 0x20 DUP2 LT ISZERO PUSH2 0x5121 JUMPI PUSH1 0x0 DUP1 REVERT JUMPDEST POP MLOAD PUSH1 0x40 MLOAD DUP5 MLOAD DUP3 DUP7 MSTORE SWAP2 SWAP3 POP SWAP1 PUSH1 0x20 DUP3 DUP3 DUP3 ADD DUP8 PUSH1 0x2 GAS STATICCALL DUP2 DUP7 MSTORE DUP1 DUP1 ISZERO PUSH2 0x5149 JUMPI PUSH2 0x514B JUMP JUMPDEST INVALID JUMPDEST POP POP SWAP1 MLOAD SWAP9 SWAP8 POP POP POP POP POP POP POP POP JUMP JUMPDEST PUSH1 0x0 DUP2 DUP5 DUP5 GT ISZERO PUSH2 0x51EA JUMPI PUSH1 0x40 MLOAD PUSH3 0x461BCD PUSH1 0xE5 SHL DUP2 MSTORE PUSH1 0x4 ADD DUP1 DUP1 PUSH1 0x20 ADD DUP3 DUP2 SUB DUP3 MSTORE DUP4 DUP2 DUP2 MLOAD DUP2 MSTORE PUSH1 0x20 ADD SWAP2 POP DUP1 MLOAD SWAP1 PUSH1 0x20 ADD SWAP1 DUP1 DUP4 DUP4 PUSH1 0x0 JUMPDEST DUP4 DUP2 LT ISZERO PUSH2 0x51AF JUMPI DUP2 DUP2 ADD MLOAD DUP4 DUP3 ADD MSTORE PUSH1 0x20 ADD PUSH2 0x5197 JUMP JUMPDEST POP POP POP POP SWAP1 POP SWAP1 DUP2 ADD SWAP1 PUSH1 0x1F AND DUP1 ISZERO PUSH2 0x51DC JUMPI DUP1 DUP3 SUB DUP1 MLOAD PUSH1 0x1 DUP4 PUSH1 0x20 SUB PUSH2 0x100 EXP SUB NOT AND DUP2 MSTORE PUSH1 0x20 ADD SWAP2 POP JUMPDEST POP SWAP3 POP POP POP PUSH1 0x40 MLOAD DUP1 SWAP2 SUB SWAP1 REVERT JUMPDEST POP POP POP SWAP1 SUB SWAP1 JUMP JUMPDEST PUSH1 0x0 PUSH2 0x384C DUP4 DUP4 PUSH1 0x40 MLOAD DUP1 PUSH1 0x40 ADD PUSH1 0x40 MSTORE DUP1 PUSH1 0x1E DUP2 MSTORE PUSH1 0x20 ADD PUSH32 0x536166654D6174683A207375627472616374696F6E206F766572666C6F770000 DUP2 MSTORE POP PUSH2 0x55BE JUMP JUMPDEST PUSH1 0x0 DUP1 DUP3 PUSH1 0x1 ADD SWAP2 POP DUP4 DUP4 DUP2 MLOAD DUP2 LT PUSH2 0x5249 JUMPI INVALID JUMPDEST ADD PUSH1 0x20 ADD MLOAD SWAP2 SWAP5 PUSH1 0xF8 SWAP3 SWAP1 SWAP3 SHR ISZERO ISZERO SWAP4 POP SWAP1 SWAP2 POP POP JUMP JUMPDEST PUSH1 0x0 DUP1 DUP3 PUSH1 0x4 ADD SWAP1 POP DUP1 DUP5 MLOAD LT ISZERO PUSH2 0x52A7 JUMPI PUSH1 0x40 DUP1 MLOAD PUSH3 0x461BCD PUSH1 0xE5 SHL DUP2 MSTORE PUSH1 0x20 PUSH1 0x4 DUP3 ADD MSTORE PUSH1 0x5 PUSH1 0x24 DUP3 ADD MSTORE PUSH5 0x189D1D4C0D PUSH1 0xDA SHL PUSH1 0x44 DUP3 ADD MSTORE SWAP1 MLOAD SWAP1 DUP2 SWAP1 SUB PUSH1 0x64 ADD SWAP1 REVERT JUMPDEST SWAP3 SWAP1 SWAP3 ADD MLOAD SWAP3 SWAP2 POP POP JUMP JUMPDEST PUSH1 0x0 DUP1 DUP3 PUSH1 0x2 ADD SWAP1 POP DUP1 DUP5 MLOAD LT ISZERO PUSH2 0x52A7 JUMPI PUSH1 0x40 DUP1 MLOAD PUSH3 0x461BCD PUSH1 0xE5 SHL DUP2 MSTORE PUSH1 0x20 PUSH1 0x4 DUP3 ADD MSTORE PUSH1 0x5 PUSH1 0x24 DUP3 ADD MSTORE PUSH5 0x313A3A9819 PUSH1 0xD9 SHL PUSH1 0x44 DUP3 ADD MSTORE SWAP1 MLOAD SWAP1 DUP2 SWAP1 SUB PUSH1 0x64 ADD SWAP1 REVERT JUMPDEST PUSH1 0x0 DUP1 DUP3 PUSH1 0x10 ADD SWAP1 POP DUP1 DUP5 MLOAD LT ISZERO PUSH2 0x52A7 JUMPI PUSH1 0x40 DUP1 MLOAD PUSH3 0x461BCD PUSH1 0xE5 SHL DUP2 MSTORE PUSH1 0x20 PUSH1 0x4 DUP3 ADD MSTORE PUSH1 0x5 PUSH1 0x24 DUP3 ADD MSTORE PUSH5 0x313A3A989B PUSH1 0xD9 SHL PUSH1 0x44 DUP3 ADD MSTORE SWAP1 MLOAD SWAP1 DUP2 SWAP1 SUB PUSH1 0x64 ADD SWAP1 REVERT JUMPDEST PUSH1 0x0 DUP1 DUP3 PUSH1 0x14 ADD SWAP1 POP DUP1 DUP5 MLOAD LT ISZERO PUSH2 0x52A7 JUMPI PUSH1 0x40 DUP1 MLOAD PUSH3 0x461BCD PUSH1 0xE5 SHL DUP2 MSTORE PUSH1 0x20 PUSH1 0x4 DUP3 ADD MSTORE PUSH1 0x5 PUSH1 0x24 DUP3 ADD MSTORE PUSH5 0x6274613131 PUSH1 0xD8 SHL PUSH1 0x44 DUP3 ADD MSTORE SWAP1 MLOAD SWAP1 DUP2 SWAP1 SUB PUSH1 0x64 ADD SWAP1 REVERT JUMPDEST PUSH1 0x0 PUSH1 0x60 PUSH2 0x5398 DUP5 PUSH1 0x4 PUSH1 0x26 PUSH2 0x47AA JUMP JUMPDEST SWAP1 POP PUSH1 0x60 PUSH2 0x53A9 DUP5 PUSH1 0x4 PUSH1 0x26 PUSH2 0x47AA JUMP JUMPDEST SWAP1 POP DUP1 DUP1 MLOAD SWAP1 PUSH1 0x20 ADD KECCAK256 DUP3 DUP1 MLOAD SWAP1 PUSH1 0x20 ADD KECCAK256 EQ SWAP3 POP POP POP SWAP3 SWAP2 POP POP JUMP JUMPDEST PUSH1 0x0 DUP1 PUSH2 0x53D4 DUP5 PUSH1 0x1A PUSH2 0x5623 JUMP JUMPDEST SWAP1 POP PUSH1 0x0 PUSH2 0x53E3 DUP5 PUSH1 0x1A PUSH2 0x5623 JUMP JUMPDEST SWAP2 SWAP1 SWAP2 EQ SWAP5 SWAP4 POP POP POP POP JUMP JUMPDEST PUSH1 0x14 DUP2 ADD PUSH1 0x0 PUSH2 0x4771 DUP5 DUP5 PUSH2 0x56B1 JUMP JUMPDEST PUSH1 0x60 DUP1 DUP3 MLOAD PUSH1 0x2 MUL PUSH1 0x40 MLOAD SWAP1 DUP1 DUP3 MSTORE DUP1 PUSH1 0x1F ADD PUSH1 0x1F NOT AND PUSH1 0x20 ADD DUP3 ADD PUSH1 0x40 MSTORE DUP1 ISZERO PUSH2 0x5431 JUMPI PUSH1 0x20 DUP3 ADD DUP2 DUP1 CODESIZE DUP4 CODECOPY ADD SWAP1 POP JUMPDEST POP SWAP1 POP PUSH1 0x20 DUP4 ADD DUP4 MLOAD DUP2 ADD PUSH1 0x20 DUP4 ADD JUMPDEST DUP2 DUP4 LT ISZERO PUSH2 0x549F JUMPI DUP3 MLOAD PUSH1 0xF8 SHR PUSH16 0x66656463626139383736353433323130 PUSH1 0x8 DUP3 PUSH1 0x4 SHR MUL SHR PUSH1 0xF8 SHL DUP3 MSTORE PUSH16 0x66656463626139383736353433323130 PUSH1 0x8 DUP3 PUSH1 0xF AND MUL SHR PUSH1 0xF8 SHL PUSH1 0x1 DUP4 ADD MSTORE POP PUSH1 0x1 DUP4 ADD SWAP3 POP PUSH1 0x2 DUP2 ADD SWAP1 POP PUSH2 0x5441 JUMP JUMPDEST POP SWAP2 SWAP5 SWAP4 POP POP POP POP JUMP JUMPDEST PUSH1 0x60 PUSH2 0x54BC DUP3 PUSH4 0xFFFFFFFF AND PUSH1 0x4 PUSH2 0x56FD JUMP JUMPDEST SWAP3 SWAP2 POP POP JUMP JUMPDEST PUSH1 0x0 DUP3 MLOAD PUSH1 0x41 EQ PUSH2 0x5502 JUMPI PUSH1 0x40 DUP1 MLOAD PUSH3 0x461BCD PUSH1 0xE5 SHL DUP2 MSTORE PUSH1 0x20 PUSH1 0x4 DUP3 ADD MSTORE PUSH1 0x5 PUSH1 0x24 DUP3 ADD MSTORE PUSH5 0x766573313 PUSH1 0xDC SHL PUSH1 0x44 DUP3 ADD MSTORE SWAP1 MLOAD SWAP1 DUP2 SWAP1 SUB PUSH1 0x64 ADD SWAP1 REVERT JUMPDEST PUSH1 0x0 DUP1 DUP1 PUSH2 0x5510 DUP7 DUP3 PUSH2 0x5789 JUMP JUMPDEST SWAP4 POP SWAP1 POP PUSH2 0x551E DUP7 DUP3 PUSH2 0x5789 JUMP JUMPDEST DUP1 SWAP4 POP DUP2 SWAP3 POP POP POP PUSH1 0x0 DUP7 DUP3 DUP2 MLOAD DUP2 LT PUSH2 0x5534 JUMPI INVALID JUMPDEST PUSH1 0x20 ADD ADD MLOAD PUSH1 0xF8 SHR PUSH1 0xF8 SHL PUSH1 0xF8 SHR SWAP1 POP PUSH1 0x1 DUP7 DUP1 MLOAD SWAP1 PUSH1 0x20 ADD KECCAK256 DUP3 DUP7 DUP7 PUSH1 0x40 MLOAD PUSH1 0x0 DUP2 MSTORE PUSH1 0x20 ADD PUSH1 0x40 MSTORE PUSH1 0x40 MLOAD DUP1 DUP6 DUP2 MSTORE PUSH1 0x20 ADD DUP5 PUSH1 0xFF AND PUSH1 0xFF AND DUP2 MSTORE PUSH1 0x20 ADD DUP4 DUP2 MSTORE PUSH1 0x20 ADD DUP3 DUP2 MSTORE PUSH1 0x20 ADD SWAP5 POP POP POP POP POP PUSH1 0x20 PUSH1 0x40 MLOAD PUSH1 0x20 DUP2 SUB SWAP1 DUP1 DUP5 SUB SWAP1 DUP6 GAS STATICCALL ISZERO DUP1 ISZERO PUSH2 0x55A8 JUMPI RETURNDATASIZE PUSH1 0x0 DUP1 RETURNDATACOPY RETURNDATASIZE PUSH1 0x0 REVERT JUMPDEST POP POP PUSH1 0x40 MLOAD PUSH1 0x1F NOT ADD MLOAD SWAP9 SWAP8 POP POP POP POP POP POP POP POP JUMP JUMPDEST PUSH1 0x0 DUP4 PUSH1 0x1 PUSH1 0x1 PUSH1 0x80 SHL SUB AND DUP4 PUSH1 0x1 PUSH1 0x1 PUSH1 0x80 SHL SUB AND GT ISZERO DUP3 SWAP1 PUSH2 0x51EA JUMPI PUSH1 0x40 MLOAD PUSH3 0x461BCD PUSH1 0xE5 SHL DUP2 MSTORE PUSH1 0x20 PUSH1 0x4 DUP3 ADD DUP2 DUP2 MSTORE DUP4 MLOAD PUSH1 0x24 DUP5 ADD MSTORE DUP4 MLOAD SWAP1 SWAP3 DUP4 SWAP3 PUSH1 0x44 SWAP1 SWAP2 ADD SWAP2 SWAP1 DUP6 ADD SWAP1 DUP1 DUP4 DUP4 PUSH1 0x0 DUP4 ISZERO PUSH2 0x51AF JUMPI DUP2 DUP2 ADD MLOAD DUP4 DUP3 ADD MSTORE PUSH1 0x20 ADD PUSH2 0x5197 JUMP JUMPDEST PUSH1 0x0 PUSH1 0x20 DUP3 GT ISZERO PUSH2 0x5663 JUMPI PUSH1 0x40 DUP1 MLOAD PUSH3 0x461BCD PUSH1 0xE5 SHL DUP2 MSTORE PUSH1 0x20 PUSH1 0x4 DUP3 ADD MSTORE PUSH1 0x5 PUSH1 0x24 DUP3 ADD MSTORE PUSH5 0x74726D313 PUSH1 0xDC SHL PUSH1 0x44 DUP3 ADD MSTORE SWAP1 MLOAD SWAP1 DUP2 SWAP1 SUB PUSH1 0x64 ADD SWAP1 REVERT JUMPDEST DUP2 DUP4 MLOAD LT ISZERO PUSH2 0x56A1 JUMPI PUSH1 0x40 DUP1 MLOAD PUSH3 0x461BCD PUSH1 0xE5 SHL DUP2 MSTORE PUSH1 0x20 PUSH1 0x4 DUP3 ADD MSTORE PUSH1 0x5 PUSH1 0x24 DUP3 ADD MSTORE PUSH5 0x74726D3131 PUSH1 0xD8 SHL PUSH1 0x44 DUP3 ADD MSTORE SWAP1 MLOAD SWAP1 DUP2 SWAP1 SUB PUSH1 0x64 ADD SWAP1 REVERT JUMPDEST POP PUSH1 0x20 SWAP2 DUP3 ADD MLOAD SWAP2 SUB PUSH1 0x8 MUL SHR SWAP1 JUMP JUMPDEST PUSH1 0x0 DUP2 PUSH1 0x14 ADD DUP4 MLOAD LT ISZERO PUSH2 0x56F4 JUMPI PUSH1 0x40 DUP1 MLOAD PUSH3 0x461BCD PUSH1 0xE5 SHL DUP2 MSTORE PUSH1 0x20 PUSH1 0x4 DUP3 ADD MSTORE PUSH1 0x5 PUSH1 0x24 DUP3 ADD MSTORE PUSH5 0x627462323 PUSH1 0xDC SHL PUSH1 0x44 DUP3 ADD MSTORE SWAP1 MLOAD SWAP1 DUP2 SWAP1 SUB PUSH1 0x64 ADD SWAP1 REVERT JUMPDEST POP ADD PUSH1 0x20 ADD MLOAD SWAP1 JUMP JUMPDEST PUSH1 0x60 PUSH1 0x20 DUP3 PUSH1 0xFF AND GT ISZERO PUSH2 0x5740 JUMPI PUSH1 0x40 DUP1 MLOAD PUSH3 0x461BCD PUSH1 0xE5 SHL DUP2 MSTORE PUSH1 0x20 PUSH1 0x4 DUP3 ADD MSTORE PUSH1 0x5 PUSH1 0x24 DUP3 ADD MSTORE PUSH5 0x6274323131 PUSH1 0xD8 SHL PUSH1 0x44 DUP3 ADD MSTORE SWAP1 MLOAD SWAP1 DUP2 SWAP1 SUB PUSH1 0x64 ADD SWAP1 REVERT JUMPDEST DUP2 PUSH1 0xFF AND PUSH1 0x40 MLOAD SWAP1 DUP1 DUP3 MSTORE DUP1 PUSH1 0x1F ADD PUSH1 0x1F NOT AND PUSH1 0x20 ADD DUP3 ADD PUSH1 0x40 MSTORE DUP1 ISZERO PUSH2 0x576E JUMPI PUSH1 0x20 DUP3 ADD DUP2 DUP1 CODESIZE DUP4 CODECOPY ADD SWAP1 POP JUMPDEST POP PUSH1 0xFF PUSH1 0x8 PUSH1 0x20 SWAP5 DUP6 SUB MUL AND SWAP4 SWAP1 SWAP4 SHL SWAP2 DUP4 ADD SWAP2 SWAP1 SWAP2 MSTORE POP SWAP1 JUMP JUMPDEST PUSH1 0x20 DUP2 ADD PUSH1 0x0 PUSH2 0x4771 DUP5 DUP5 PUSH1 0x0 DUP1 DUP3 PUSH1 0x20 ADD SWAP1 POP DUP1 DUP5 MLOAD LT ISZERO PUSH2 0x52A7 JUMPI PUSH1 0x40 DUP1 MLOAD PUSH3 0x461BCD PUSH1 0xE5 SHL DUP2 MSTORE PUSH1 0x20 PUSH1 0x4 DUP3 ADD MSTORE PUSH1 0x5 PUSH1 0x24 DUP3 ADD MSTORE PUSH5 0x313A311999 PUSH1 0xD9 SHL PUSH1 0x44 DUP3 ADD MSTORE SWAP1 MLOAD SWAP1 DUP2 SWAP1 SUB PUSH1 0x64 ADD SWAP1 REVERT JUMPDEST PUSH1 0x40 DUP1 MLOAD PUSH1 0x80 DUP2 ADD DUP3 MSTORE PUSH1 0x0 DUP1 DUP3 MSTORE PUSH1 0x20 DUP3 ADD DUP2 SWAP1 MSTORE SWAP2 DUP2 ADD DUP3 SWAP1 MSTORE PUSH1 0x60 DUP2 ADD SWAP2 SWAP1 SWAP2 MSTORE SWAP1 JUMP JUMPDEST POP DUP1 SLOAD PUSH1 0x1 DUP2 PUSH1 0x1 AND ISZERO PUSH2 0x100 MUL SUB AND PUSH1 0x2 SWAP1 DIV PUSH1 0x0 DUP3 SSTORE DUP1 PUSH1 0x1F LT PUSH2 0x5828 JUMPI POP PUSH2 0x5846 JUMP JUMPDEST PUSH1 0x1F ADD PUSH1 0x20 SWAP1 DIV SWAP1 PUSH1 0x0 MSTORE PUSH1 0x20 PUSH1 0x0 KECCAK256 SWAP1 DUP2 ADD SWAP1 PUSH2 0x5846 SWAP2 SWAP1 PUSH2 0x5930 JUMP JUMPDEST POP JUMP JUMPDEST PUSH1 0x40 DUP1 MLOAD PUSH1 0xC0 DUP2 ADD DUP3 MSTORE PUSH1 0x0 DUP1 DUP3 MSTORE PUSH1 0x20 DUP3 ADD DUP2 SWAP1 MSTORE SWAP2 DUP2 ADD DUP3 SWAP1 MSTORE PUSH1 0x60 DUP2 ADD DUP3 SWAP1 MSTORE PUSH1 0x80 DUP2 ADD DUP3 SWAP1 MSTORE PUSH1 0xA0 DUP2 ADD SWAP2 SWAP1 SWAP2 MSTORE SWAP1 JUMP JUMPDEST DUP3 DUP1 SLOAD PUSH1 0x1 DUP2 PUSH1 0x1 AND ISZERO PUSH2 0x100 MUL SUB AND PUSH1 0x2 SWAP1 DIV SWAP1 PUSH1 0x0 MSTORE PUSH1 0x20 PUSH1 0x0 KECCAK256 SWAP1 PUSH1 0x1F ADD PUSH1 0x20 SWAP1 DIV DUP2 ADD SWAP3 DUP3 PUSH1 0x1F LT PUSH2 0x58BF JUMPI DUP1 MLOAD PUSH1 0xFF NOT AND DUP4 DUP1 ADD OR DUP6 SSTORE PUSH2 0x58EC JUMP JUMPDEST DUP3 DUP1 ADD PUSH1 0x1 ADD DUP6 SSTORE DUP3 ISZERO PUSH2 0x58EC JUMPI SWAP2 DUP3 ADD JUMPDEST DUP3 DUP2 GT ISZERO PUSH2 0x58EC JUMPI DUP3 MLOAD DUP3 SSTORE SWAP2 PUSH1 0x20 ADD SWAP2 SWAP1 PUSH1 0x1 ADD SWAP1 PUSH2 0x58D1 JUMP JUMPDEST POP PUSH2 0x211F SWAP3 SWAP2 POP PUSH2 0x5930 JUMP JUMPDEST PUSH1 0x40 DUP1 MLOAD DUP1 DUP3 ADD SWAP1 SWAP2 MSTORE PUSH1 0x0 DUP2 MSTORE PUSH1 0x60 PUSH1 0x20 DUP3 ADD MSTORE SWAP1 JUMP JUMPDEST PUSH1 0x40 DUP1 MLOAD PUSH1 0x60 DUP2 ADD DUP3 MSTORE PUSH1 0x0 DUP1 DUP3 MSTORE PUSH1 0x20 DUP3 ADD DUP2 SWAP1 MSTORE SWAP2 DUP2 ADD SWAP2 SWAP1 SWAP2 MSTORE SWAP1 JUMP JUMPDEST PUSH2 0x12B0 SWAP2 SWAP1 JUMPDEST DUP1 DUP3 GT ISZERO PUSH2 0x211F JUMPI PUSH1 0x0 DUP2 SSTORE PUSH1 0x1 ADD PUSH2 0x5936 JUMP INVALID MSTORE PUSH6 0x656E7472616E PUSH4 0x79477561 PUSH19 0x643A207265656E7472616E742063616C6C008E SWAP5 INVALID 0xD4 TIMESTAMP CODECOPY 0xEB 0x23 EQ 0xAB PUSH27 0x406345E6C5A8F0CCEDF3B600DE3D004E672C33ABF4536166654361 PUSH20 0x743A2076616C756520646F65736E277420666974 KECCAK256 PUSH10 0x6E203132382062697473 0x4F PUSH15 0x6C79207369676E2074686973206D65 PUSH20 0x7361676520666F72206120747275737465642063 PUSH13 0x69656E7421A265627A7A723158 KECCAK256 0xD3 0xD4 STATICCALL ADD JUMPDEST 0x28 0xDA PUSH24 0x289A74B56A107F485E19B85E3EB461AE369B8C10955102A8 PUSH5 0x736F6C6343 STOP SDIV GT STOP ORIGIN "
    }
  }
}