{
  "_format": "hh-sol-artifact-1",
  "contractName": "MintableERC20FeeAndDividendsTest",
  "sourceName": "cache/solpp-generated-contracts/dev-contracts/tokens/MintableERC20FeeAndDividendsTest.sol",
  "abi": [
    {
      "inputs": [
        {
          "internalType": "bool",
          "name": "shouldBeFeeTransfers",
          "type": "bool"
        },
        {
          "internalType": "bool",
          "name": "senderUnintuitiveProcess",
          "type": "bool"
        }
      ],
      "stateMutability": "nonpayable",
      "type": "constructor"
    },
    {
      "anonymous": false,
      "inputs": [
        {
          "indexed": true,
          "internalType": "address",
          "name": "owner",
          "type": "address"
        },
        {
          "indexed": true,
          "internalType": "address",
          "name": "spender",
          "type": "address"
        },
        {
          "indexed": false,
          "internalType": "uint256",
          "name": "value",
          "type": "uint256"
        }
      ],
      "name": "Approval",
      "type": "event"
    },
    {
      "anonymous": false,
      "inputs": [
        {
          "indexed": true,
          "internalType": "address",
          "name": "from",
          "type": "address"
        },
        {
          "indexed": true,
          "internalType": "address",
          "name": "to",
          "type": "address"
        },
        {
          "indexed": false,
          "internalType": "uint256",
          "name": "value",
          "type": "uint256"
        }
      ],
      "name": "Transfer",
      "type": "event"
    },
    {
      "inputs": [],
      "name": "DIVIDEND_AMOUNT_AS_VALUE",
      "outputs": [
        {
          "internalType": "uint256",
          "name": "",
          "type": "uint256"
        }
      ],
      "stateMutability": "view",
      "type": "function"
    },
    {
      "inputs": [],
      "name": "FEE_AMOUNT_AS_VALUE",
      "outputs": [
        {
          "internalType": "uint256",
          "name": "",
          "type": "uint256"
        }
      ],
      "stateMutability": "view",
      "type": "function"
    },
    {
      "inputs": [
        {
          "internalType": "address",
          "name": "owner",
          "type": "address"
        },
        {
          "internalType": "address",
          "name": "spender",
          "type": "address"
        }
      ],
      "name": "allowance",
      "outputs": [
        {
          "internalType": "uint256",
          "name": "",
          "type": "uint256"
        }
      ],
      "stateMutability": "view",
      "type": "function"
    },
    {
      "inputs": [
        {
          "internalType": "address",
          "name": "spender",
          "type": "address"
        },
        {
          "internalType": "uint256",
          "name": "amount",
          "type": "uint256"
        }
      ],
      "name": "approve",
      "outputs": [
        {
          "internalType": "bool",
          "name": "",
          "type": "bool"
        }
      ],
      "stateMutability": "nonpayable",
      "type": "function"
    },
    {
      "inputs": [
        {
          "internalType": "address",
          "name": "account",
          "type": "address"
        }
      ],
      "name": "balanceOf",
      "outputs": [
        {
          "internalType": "uint256",
          "name": "",
          "type": "uint256"
        }
      ],
      "stateMutability": "view",
      "type": "function"
    },
    {
      "inputs": [
        {
          "internalType": "address",
          "name": "spender",
          "type": "address"
        },
        {
          "internalType": "uint256",
          "name": "subtractedValue",
          "type": "uint256"
        }
      ],
      "name": "decreaseAllowance",
      "outputs": [
        {
          "internalType": "bool",
          "name": "",
          "type": "bool"
        }
      ],
      "stateMutability": "nonpayable",
      "type": "function"
    },
    {
      "inputs": [
        {
          "internalType": "address",
          "name": "spender",
          "type": "address"
        },
        {
          "internalType": "uint256",
          "name": "addedValue",
          "type": "uint256"
        }
      ],
      "name": "increaseAllowance",
      "outputs": [
        {
          "internalType": "bool",
          "name": "",
          "type": "bool"
        }
      ],
      "stateMutability": "nonpayable",
      "type": "function"
    },
    {
      "inputs": [
        {
          "internalType": "address",
          "name": "to",
          "type": "address"
        },
        {
          "internalType": "uint256",
          "name": "amount",
          "type": "uint256"
        }
      ],
      "name": "mint",
      "outputs": [],
      "stateMutability": "nonpayable",
      "type": "function"
    },
    {
      "inputs": [],
      "name": "totalSupply",
      "outputs": [
        {
          "internalType": "uint256",
          "name": "",
          "type": "uint256"
        }
      ],
      "stateMutability": "view",
      "type": "function"
    },
    {
      "inputs": [
        {
          "internalType": "address",
          "name": "recipient",
          "type": "address"
        },
        {
          "internalType": "uint256",
          "name": "amount",
          "type": "uint256"
        }
      ],
      "name": "transfer",
      "outputs": [
        {
          "internalType": "bool",
          "name": "",
          "type": "bool"
        }
      ],
      "stateMutability": "nonpayable",
      "type": "function"
    },
    {
      "inputs": [
        {
          "internalType": "address",
          "name": "sender",
          "type": "address"
        },
        {
          "internalType": "address",
          "name": "recipient",
          "type": "address"
        },
        {
          "internalType": "uint256",
          "name": "amount",
          "type": "uint256"
        }
      ],
      "name": "transferFrom",
      "outputs": [
        {
          "internalType": "bool",
          "name": "",
          "type": "bool"
        }
      ],
      "stateMutability": "nonpayable",
      "type": "function"
    }
  ],
  "bytecode": "0x6080604052600f600455600760055534801561001a57600080fd5b50604051610c0a380380610c0a8339818101604052604081101561003d57600080fd5b5080516020909101516003805460ff19169215159290921761ff00191661010091151591909102179055610b94806100766000396000f3fe608060405234801561001057600080fd5b50600436106100a95760003560e01c806340c10f191161007157806340c10f191461017257806370a08231146101a0578063a21996ea146101c6578063a457c2d7146101ce578063a9059cbb146101fa578063dd62ed3e14610226576100a9565b8063095ea7b3146100ae57806318160ddd146100ee57806318d4efff1461010857806323b872dd146101105780633950935114610146575b600080fd5b6100da600480360360408110156100c457600080fd5b506001600160a01b038135169060200135610254565b604080519115158252519081900360200190f35b6100f6610271565b60408051918252519081900360200190f35b6100f6610277565b6100da6004803603606081101561012657600080fd5b506001600160a01b0381358116916020810135909116906040013561027d565b6100da6004803603604081101561015c57600080fd5b506001600160a01b038135169060200135610304565b61019e6004803603604081101561018857600080fd5b506001600160a01b038135169060200135610352565b005b6100f6600480360360208110156101b657600080fd5b50356001600160a01b0316610360565b6100f661037b565b6100da600480360360408110156101e457600080fd5b506001600160a01b038135169060200135610381565b6100da6004803603604081101561021057600080fd5b506001600160a01b0381351690602001356103e9565b6100f66004803603604081101561023c57600080fd5b506001600160a01b03813581169160200135166103fd565b6000610268610261610428565b848461042c565b50600192915050565b60025490565b60055481565b600061028a848484610518565b6102fa84610296610428565b6102f585604051806060016040528060288152602001610aa8602891396001600160a01b038a166000908152600160205260408120906102d4610428565b6001600160a01b03168152602081019190915260400160002054919061070c565b61042c565b5060019392505050565b6000610268610311610428565b846102f58560016000610322610428565b6001600160a01b03908116825260208083019390935260409182016000908120918c1681529252902054906107a3565b61035c8282610804565b5050565b6001600160a01b031660009081526020819052604090205490565b60045481565b600061026861038e610428565b846102f585604051806060016040528060258152602001610b3a60259139600160006103b8610428565b6001600160a01b03908116825260208083019390935260409182016000908120918d1681529252902054919061070c565b60006102686103f6610428565b8484610518565b6001600160a01b03918216600090815260016020908152604080832093909416825291909152205490565b3390565b6001600160a01b0383166104715760405162461bcd60e51b8152600401808060200182810382526024815260200180610b166024913960400191505060405180910390fd5b6001600160a01b0382166104b65760405162461bcd60e51b8152600401808060200182810382526022815260200180610a606022913960400191505060405180910390fd5b6001600160a01b03808416600081815260016020908152604080832094871680845294825291829020859055815185815291517f8c5be1e5ebec7d5bd14f71427d1e84f3dd0314c0f7b2291e5b200ac8c7c3b9259281900390910190a3505050565b6001600160a01b03831661055d5760405162461bcd60e51b8152600401808060200182810382526025815260200180610af16025913960400191505060405180910390fd5b6001600160a01b0382166105a25760405162461bcd60e51b8152600401808060200182810382526023815260200180610a1b6023913960400191505060405180910390fd5b6105df81604051806060016040528060268152602001610a82602691396001600160a01b038616600090815260208190526040902054919061070c565b6001600160a01b03808516600090815260208190526040808220939093559084168152205461060e90826107a3565b6001600160a01b038084166000818152602081815260409182902094909455805185815290519193928716927fddf252ad1be2c89b69c2b068fc378daa952ba7f163c4a11628f55a4df523b3ef92918290030190a360035460ff16156106df578060045411156106ad576040805162461bcd60e51b8152602060048201526005602482015264074657431360dc1b604482015290519081900360640190fd5b600354610100900460ff16156106ce576106c9836004546108e8565b6106da565b6106da826004546108e8565b610707565b600354610100900460ff16156106fb576106da83600554610804565b61070782600554610804565b505050565b6000818484111561079b5760405162461bcd60e51b81526004018080602001828103825283818151815260200191508051906020019080838360005b83811015610760578181015183820152602001610748565b50505050905090810190601f16801561078d5780820380516001836020036101000a031916815260200191505b509250505060405180910390fd5b505050900390565b6000828201838110156107fd576040805162461bcd60e51b815260206004820152601b60248201527f536166654d6174683a206164646974696f6e206f766572666c6f770000000000604482015290519081900360640190fd5b9392505050565b6001600160a01b03821661085f576040805162461bcd60e51b815260206004820152601f60248201527f45524332303a206d696e7420746f20746865207a65726f206164647265737300604482015290519081900360640190fd5b60025461086c90826107a3565b6002556001600160a01b03821660009081526020819052604090205461089290826107a3565b6001600160a01b0383166000818152602081815260408083209490945583518581529351929391927fddf252ad1be2c89b69c2b068fc378daa952ba7f163c4a11628f55a4df523b3ef9281900390910190a35050565b6001600160a01b03821661092d5760405162461bcd60e51b8152600401808060200182810382526021815260200180610ad06021913960400191505060405180910390fd5b61096a81604051806060016040528060228152602001610a3e602291396001600160a01b038516600090815260208190526040902054919061070c565b6001600160a01b03831660009081526020819052604090205560025461099090826109d8565b6002556040805182815290516000916001600160a01b038516917fddf252ad1be2c89b69c2b068fc378daa952ba7f163c4a11628f55a4df523b3ef9181900360200190a35050565b60006107fd83836040518060400160405280601e81526020017f536166654d6174683a207375627472616374696f6e206f766572666c6f77000081525061070c56fe45524332303a207472616e7366657220746f20746865207a65726f206164647265737345524332303a206275726e20616d6f756e7420657863656564732062616c616e636545524332303a20617070726f766520746f20746865207a65726f206164647265737345524332303a207472616e7366657220616d6f756e7420657863656564732062616c616e636545524332303a207472616e7366657220616d6f756e74206578636565647320616c6c6f77616e636545524332303a206275726e2066726f6d20746865207a65726f206164647265737345524332303a207472616e736665722066726f6d20746865207a65726f206164647265737345524332303a20617070726f76652066726f6d20746865207a65726f206164647265737345524332303a2064656372656173656420616c6c6f77616e63652062656c6f77207a65726fa26469706673582212205c755af930bf29d0f54f9b5d648706e5741ebb21f97bcae893844bef5d404df864736f6c63430007030033",
  "linkReferences": {},
  "deployedLinkReferences": {}
}