{
  "_format": "hh-sol-artifact-1",
  "contractName": "DummyFirst",
  "sourceName": "cache/solpp-generated-contracts/dev-contracts/DummyTarget.sol",
  "abi": [
    {
      "inputs": [],
      "name": "getNoticePeriod",
      "outputs": [
        {
          "internalType": "uint256",
          "name": "",
          "type": "uint256"
        }
      ],
      "stateMutability": "pure",
      "type": "function"
    },
    {
      "inputs": [],
      "name": "get_DUMMY_INDEX",
      "outputs": [
        {
          "internalType": "uint256",
          "name": "",
          "type": "uint256"
        }
      ],
      "stateMutability": "pure",
      "type": "function"
    },
    {
      "inputs": [],
      "name": "get_UPGRADE_NOTICE_PERIOD",
      "outputs": [
        {
          "internalType": "uint256",
          "name": "",
          "type": "uint256"
        }
      ],
      "stateMutability": "pure",
      "type": "function"
    },
    {
      "inputs": [
        {
          "internalType": "bytes",
          "name": "initializationParameters",
          "type": "bytes"
        }
      ],
      "name": "initialize",
      "outputs": [],
      "stateMutability": "nonpayable",
      "type": "function"
    },
    {
      "inputs": [],
      "name": "isReadyForUpgrade",
      "outputs": [
        {
          "internalType": "bool",
          "name": "",
          "type": "bool"
        }
      ],
      "stateMutability": "view",
      "type": "function"
    },
    {
      "inputs": [
        {
          "internalType": "bytes",
          "name": "upgradeParameters",
          "type": "bytes"
        }
      ],
      "name": "upgrade",
      "outputs": [],
      "stateMutability": "nonpayable",
      "type": "function"
    },
    {
      "inputs": [],
      "name": "upgradeCanceled",
      "outputs": [],
      "stateMutability": "nonpayable",
      "type": "function"
    },
    {
      "inputs": [],
      "name": "upgradeFinishes",
      "outputs": [],
      "stateMutability": "nonpayable",
      "type": "function"
    },
    {
      "inputs": [],
      "name": "upgradeNoticePeriodStarted",
      "outputs": [],
      "stateMutability": "nonpayable",
      "type": "function"
    },
    {
      "inputs": [],
      "name": "upgradePreparationStarted",
      "outputs": [],
      "stateMutability": "nonpayable",
      "type": "function"
    },
    {
      "inputs": [],
      "name": "verifyPriorityOperation",
      "outputs": [],
      "stateMutability": "nonpayable",
      "type": "function"
    }
  ],
  "bytecode": "0x608060405234801561001057600080fd5b506102c7806100206000396000f3fe608060405234801561001057600080fd5b50600436106100a95760003560e01c80636255c9b6116100715780636255c9b61461012857806378b91e7014610142578063871b8ff1146101425780638773334c146101ba578063b269b9ae14610142578063f0898ed0146101d6576100a9565b80630f8d1dbe146100ae57806325394645146100b85780632a3174f4146101285780633b154b7314610142578063439fab911461014a575b600080fd5b6100b66101de565b005b6100b6600480360360208110156100ce57600080fd5b8101906020810181356401000000008111156100e957600080fd5b8201836020820111156100fb57600080fd5b8035906020019184600183028401116401000000008311171561011d57600080fd5b509092509050610204565b610130610208565b60408051918252519081900360200190f35b6100b661020d565b6100b66004803603602081101561016057600080fd5b81019060208101813564010000000081111561017b57600080fd5b82018360208201111561018d57600080fd5b803590602001918460018302840111640100000000831117156101af57600080fd5b50909250905061020f565b6101c261024f565b604080519115158252519081900360200190f35b61013061027c565b6000805467ffffffffffffffff8082166001011667ffffffffffffffff19909116179055565b5050565b600490565b565b60008282600081811061021e57fe5b919091013560f81c9150600090508383600181811061023957fe5b600194909455509091013560f81c600255505050565b600061025961027c565b67ffffffffffffffff1661026b610281565b67ffffffffffffffff161015905090565b600190565b60005467ffffffffffffffff169056fea264697066735822122000620d3e6a31a8d0c3e4a688fe76c23e6b98aa77d74092a1eb603da0a6e56b6e64736f6c63430007030033",
  "linkReferences": {},
  "deployedLinkReferences": {}
}