{
  "_format": "hh-sol-artifact-1",
  "contractName": "Ownable",
  "sourceName": "cache/solpp-generated-contracts/Ownable.sol",
  "abi": [
    {
      "inputs": [
        {
          "internalType": "address",
          "name": "masterAddress",
          "type": "address"
        }
      ],
      "stateMutability": "nonpayable",
      "type": "constructor"
    },
    {
      "inputs": [],
      "name": "getMaster",
      "outputs": [
        {
          "internalType": "address",
          "name": "master",
          "type": "address"
        }
      ],
      "stateMutability": "view",
      "type": "function"
    },
    {
      "inputs": [
        {
          "internalType": "address",
          "name": "_newMaster",
          "type": "address"
        }
      ],
      "name": "transferMastership",
      "outputs": [],
      "stateMutability": "nonpayable",
      "type": "function"
    }
  ],
  "bytecode": "0x608060405234801561001057600080fd5b5060405161022a38038061022a8339818101604052602081101561003357600080fd5b505161003e81610044565b50610068565b7fb53127684a568b3173ae13b9f8a6016e243e63b6e8ee1178d6a717850b5d610355565b6101b3806100776000396000f3fe608060405234801561001057600080fd5b50600436106100365760003560e01c80635a99719e1461003b578063c3f596871461005f575b600080fd5b610043610087565b604080516001600160a01b039092168252519081900360200190f35b6100856004803603602081101561007557600080fd5b50356001600160a01b03166100ac565b005b7fb53127684a568b3173ae13b9f8a6016e243e63b6e8ee1178d6a717850b5d61035490565b6100b533610104565b6001600160a01b0381166100f8576040805162461bcd60e51b81526020600482015260056024820152646f7470313160d81b604482015290519081900360640190fd5b61010181610159565b50565b61010c610087565b6001600160a01b0316816001600160a01b031614610101576040805162461bcd60e51b81526020600482015260056024820152646f726f313160d81b604482015290519081900360640190fd5b7fb53127684a568b3173ae13b9f8a6016e243e63b6e8ee1178d6a717850b5d61035556fea26469706673582212209a4ad67c39f11968aa1c3953140282773a46e40ef268cca8bcb4bc45bca5405c64736f6c63430007030033",
  "linkReferences": {},
  "deployedLinkReferences": {}
}