{
  "_format": "hh-sol-artifact-1",
  "contractName": "BytesTest",
  "sourceName": "cache/solpp-generated-contracts/dev-contracts/BytesTest.sol",
  "abi": [
    {
      "inputs": [
        {
          "internalType": "bytes",
          "name": "_data",
          "type": "bytes"
        },
        {
          "internalType": "uint256",
          "name": "_offset",
          "type": "uint256"
        },
        {
          "internalType": "uint256",
          "name": "_len",
          "type": "uint256"
        }
      ],
      "name": "read",
      "outputs": [
        {
          "internalType": "uint256",
          "name": "new_offset",
          "type": "uint256"
        },
        {
          "internalType": "bytes",
          "name": "data",
          "type": "bytes"
        }
      ],
      "stateMutability": "pure",
      "type": "function"
    },
    {
      "inputs": [
        {
          "internalType": "uint24",
          "name": "x",
          "type": "uint24"
        }
      ],
      "name": "testUInt24",
      "outputs": [
        {
          "internalType": "uint24",
          "name": "r",
          "type": "uint24"
        },
        {
          "internalType": "uint256",
          "name": "offset",
          "type": "uint256"
        }
      ],
      "stateMutability": "pure",
      "type": "function"
    }
  ],
  "bytecode": "0x608060405234801561001057600080fd5b5061044d806100206000396000f3fe608060405234801561001057600080fd5b50600436106100365760003560e01c80631c2768391461003b5780635b5ddb941461007c575b600080fd5b61005d6004803603602081101561005157600080fd5b503562ffffff16610171565b6040805162ffffff909316835260208301919091528051918290030190f35b6100f26004803603606081101561009257600080fd5b8101906020810181356401000000008111156100ad57600080fd5b8201836020820111156100bf57600080fd5b803590602001918460018302840111640100000000831117156100e157600080fd5b9193509150803590602001356101c1565b6040518083815260200180602001828103825283818151815260200191508051906020019080838360005b8381101561013557818101518382015260200161011d565b50505050905090810190601f1680156101625780820380516001836020036101000a031916815260200191505b50935050505060405180910390f35b6040805160008082526020820180845282518120828252928401938490525190922082911461019f57600080fd5b60606101aa84610215565b90506101b781600061022d565b9590945092505050565b6000606061020886868080601f0160208091040260200160405190810160405280939291908181526020018383808284376000920191909152508892508791506102469050565b9150915094509492505050565b60606102278262ffffff166003610261565b92915050565b60038101600061023d8484610304565b90509250929050565b60006060610255858585610356565b93909201949293505050565b606060208260ff1611156102a4576040805162461bcd60e51b8152602060048201526005602482015264627432313160d81b604482015290519081900360640190fd5b8160ff1667ffffffffffffffff811180156102be57600080fd5b506040519080825280601f01601f1916602001820160405280156102e9576020820181803683370190505b5060ff6008602094850302169390931b918301919091525090565b600080826003019050808451101561034b576040805162461bcd60e51b8152602060048201526005602482015264627475303360d81b604482015290519081900360640190fd5b929092015192915050565b606081830184511015610398576040805162461bcd60e51b8152602060048201526005602482015264627365313160d81b604482015290519081900360640190fd5b60608267ffffffffffffffff811180156103b157600080fd5b506040519080825280601f01601f1916602001820160405280156103dc576020820181803683370190505b509050821561040f57602081018381016020860187015b8183101561040b5780518352602092830192016103f3565b5050505b94935050505056fea264697066735822122066b01992fd6490075af00db63e2d7ce3667436b0e442e0b943b24b644cb4bad464736f6c63430007030033",
  "linkReferences": {},
  "deployedLinkReferences": {}
}