{
  "_format": "hh-sol-artifact-1",
  "contractName": "MintableERC20NoTransferReturnValueTest",
  "sourceName": "cache/solpp-generated-contracts/dev-contracts/tokens/MintableERC20NoTransferReturnValueTest.sol",
  "abi": [
    {
      "anonymous": false,
      "inputs": [
        {
          "indexed": true,
          "internalType": "address",
          "name": "owner",
          "type": "address"
        },
        {
          "indexed": true,
          "internalType": "address",
          "name": "spender",
          "type": "address"
        },
        {
          "indexed": false,
          "internalType": "uint256",
          "name": "value",
          "type": "uint256"
        }
      ],
      "name": "Approval",
      "type": "event"
    },
    {
      "anonymous": false,
      "inputs": [
        {
          "indexed": true,
          "internalType": "address",
          "name": "from",
          "type": "address"
        },
        {
          "indexed": true,
          "internalType": "address",
          "name": "to",
          "type": "address"
        },
        {
          "indexed": false,
          "internalType": "uint256",
          "name": "value",
          "type": "uint256"
        }
      ],
      "name": "Transfer",
      "type": "event"
    },
    {
      "inputs": [
        {
          "internalType": "address",
          "name": "owner",
          "type": "address"
        },
        {
          "internalType": "address",
          "name": "spender",
          "type": "address"
        }
      ],
      "name": "allowance",
      "outputs": [
        {
          "internalType": "uint256",
          "name": "",
          "type": "uint256"
        }
      ],
      "stateMutability": "view",
      "type": "function"
    },
    {
      "inputs": [
        {
          "internalType": "address",
          "name": "spender",
          "type": "address"
        },
        {
          "internalType": "uint256",
          "name": "amount",
          "type": "uint256"
        }
      ],
      "name": "approve",
      "outputs": [
        {
          "internalType": "bool",
          "name": "",
          "type": "bool"
        }
      ],
      "stateMutability": "nonpayable",
      "type": "function"
    },
    {
      "inputs": [
        {
          "internalType": "address",
          "name": "account",
          "type": "address"
        }
      ],
      "name": "balanceOf",
      "outputs": [
        {
          "internalType": "uint256",
          "name": "",
          "type": "uint256"
        }
      ],
      "stateMutability": "view",
      "type": "function"
    },
    {
      "inputs": [
        {
          "internalType": "address",
          "name": "spender",
          "type": "address"
        },
        {
          "internalType": "uint256",
          "name": "subtractedValue",
          "type": "uint256"
        }
      ],
      "name": "decreaseAllowance",
      "outputs": [
        {
          "internalType": "bool",
          "name": "",
          "type": "bool"
        }
      ],
      "stateMutability": "nonpayable",
      "type": "function"
    },
    {
      "inputs": [
        {
          "internalType": "address",
          "name": "spender",
          "type": "address"
        },
        {
          "internalType": "uint256",
          "name": "addedValue",
          "type": "uint256"
        }
      ],
      "name": "increaseAllowance",
      "outputs": [
        {
          "internalType": "bool",
          "name": "",
          "type": "bool"
        }
      ],
      "stateMutability": "nonpayable",
      "type": "function"
    },
    {
      "inputs": [
        {
          "internalType": "address",
          "name": "to",
          "type": "address"
        },
        {
          "internalType": "uint256",
          "name": "amount",
          "type": "uint256"
        }
      ],
      "name": "mint",
      "outputs": [],
      "stateMutability": "nonpayable",
      "type": "function"
    },
    {
      "inputs": [],
      "name": "totalSupply",
      "outputs": [
        {
          "internalType": "uint256",
          "name": "",
          "type": "uint256"
        }
      ],
      "stateMutability": "view",
      "type": "function"
    },
    {
      "inputs": [
        {
          "internalType": "address",
          "name": "recipient",
          "type": "address"
        },
        {
          "internalType": "uint256",
          "name": "amount",
          "type": "uint256"
        }
      ],
      "name": "transfer",
      "outputs": [],
      "stateMutability": "nonpayable",
      "type": "function"
    },
    {
      "inputs": [
        {
          "internalType": "address",
          "name": "sender",
          "type": "address"
        },
        {
          "internalType": "address",
          "name": "recipient",
          "type": "address"
        },
        {
          "internalType": "uint256",
          "name": "amount",
          "type": "uint256"
        }
      ],
      "name": "transferFrom",
      "outputs": [],
      "stateMutability": "nonpayable",
      "type": "function"
    }
  ],
  "bytecode": "0x608060405234801561001057600080fd5b50610940806100206000396000f3fe608060405234801561001057600080fd5b50600436106100935760003560e01c806340c10f191161006657806340c10f191461015657806370a0823114610182578063a457c2d7146101a8578063a9059cbb146101d4578063dd62ed3e1461020057610093565b8063095ea7b31461009857806318160ddd146100d857806323b872dd146100f2578063395093511461012a575b600080fd5b6100c4600480360360408110156100ae57600080fd5b506001600160a01b03813516906020013561022e565b604080519115158252519081900360200190f35b6100e061024b565b60408051918252519081900360200190f35b6101286004803603606081101561010857600080fd5b506001600160a01b03813581169160208101359091169060400135610251565b005b6100c46004803603604081101561014057600080fd5b506001600160a01b0381351690602001356102d1565b6101286004803603604081101561016c57600080fd5b506001600160a01b03813516906020013561031f565b6100e06004803603602081101561019857600080fd5b50356001600160a01b031661032d565b6100c4600480360360408110156101be57600080fd5b506001600160a01b038135169060200135610348565b610128600480360360408110156101ea57600080fd5b506001600160a01b0381351690602001356103b0565b6100e06004803603604081101561021657600080fd5b506001600160a01b03813581169160200135166103c2565b600061024261023b6103ed565b84846103f1565b50600192915050565b60025490565b61025c8383836104dd565b6102cc836102686103ed565b6102c784604051806060016040528060288152602001610875602891396001600160a01b0389166000908152600160205260408120906102a66103ed565b6001600160a01b03168152602081019190915260400160002054919061062d565b6103f1565b505050565b60006102426102de6103ed565b846102c785600160006102ef6103ed565b6001600160a01b03908116825260208083019390935260409182016000908120918c1681529252902054906106c4565b6103298282610725565b5050565b6001600160a01b031660009081526020819052604090205490565b60006102426103556103ed565b846102c7856040518060600160405280602581526020016108e6602591396001600061037f6103ed565b6001600160a01b03908116825260208083019390935260409182016000908120918d1681529252902054919061062d565b6103296103bb6103ed565b83836104dd565b6001600160a01b03918216600090815260016020908152604080832093909416825291909152205490565b3390565b6001600160a01b0383166104365760405162461bcd60e51b81526004018080602001828103825260248152602001806108c26024913960400191505060405180910390fd5b6001600160a01b03821661047b5760405162461bcd60e51b815260040180806020018281038252602281526020018061082d6022913960400191505060405180910390fd5b6001600160a01b03808416600081815260016020908152604080832094871680845294825291829020859055815185815291517f8c5be1e5ebec7d5bd14f71427d1e84f3dd0314c0f7b2291e5b200ac8c7c3b9259281900390910190a3505050565b6001600160a01b0383166105225760405162461bcd60e51b815260040180806020018281038252602581526020018061089d6025913960400191505060405180910390fd5b6001600160a01b0382166105675760405162461bcd60e51b815260040180806020018281038252602381526020018061080a6023913960400191505060405180910390fd5b6105a48160405180606001604052806026815260200161084f602691396001600160a01b038616600090815260208190526040902054919061062d565b6001600160a01b0380851660009081526020819052604080822093909355908416815220546105d390826106c4565b6001600160a01b038084166000818152602081815260409182902094909455805185815290519193928716927fddf252ad1be2c89b69c2b068fc378daa952ba7f163c4a11628f55a4df523b3ef92918290030190a3505050565b600081848411156106bc5760405162461bcd60e51b81526004018080602001828103825283818151815260200191508051906020019080838360005b83811015610681578181015183820152602001610669565b50505050905090810190601f1680156106ae5780820380516001836020036101000a031916815260200191505b509250505060405180910390fd5b505050900390565b60008282018381101561071e576040805162461bcd60e51b815260206004820152601b60248201527f536166654d6174683a206164646974696f6e206f766572666c6f770000000000604482015290519081900360640190fd5b9392505050565b6001600160a01b038216610780576040805162461bcd60e51b815260206004820152601f60248201527f45524332303a206d696e7420746f20746865207a65726f206164647265737300604482015290519081900360640190fd5b60025461078d90826106c4565b6002556001600160a01b0382166000908152602081905260409020546107b390826106c4565b6001600160a01b0383166000818152602081815260408083209490945583518581529351929391927fddf252ad1be2c89b69c2b068fc378daa952ba7f163c4a11628f55a4df523b3ef9281900390910190a3505056fe45524332303a207472616e7366657220746f20746865207a65726f206164647265737345524332303a20617070726f766520746f20746865207a65726f206164647265737345524332303a207472616e7366657220616d6f756e7420657863656564732062616c616e636545524332303a207472616e7366657220616d6f756e74206578636565647320616c6c6f77616e636545524332303a207472616e736665722066726f6d20746865207a65726f206164647265737345524332303a20617070726f76652066726f6d20746865207a65726f206164647265737345524332303a2064656372656173656420616c6c6f77616e63652062656c6f77207a65726fa2646970667358221220fcc757a7d9e2f483aadd5b6a74577d3bc28ea6e34c5c63ffa4caa354b5759f1464736f6c63430007030033",
  "linkReferences": {},
  "deployedLinkReferences": {}
}