{
  "contractName": "PlasmaTester",
  "abi": [
    {
      "constant": true,
      "inputs": [],
      "name": "lastVerifiedRoot",
      "outputs": [
        {
          "name": "",
          "type": "bytes32"
        }
      ],
      "payable": false,
      "stateMutability": "view",
      "type": "function"
    },
    {
      "constant": false,
      "inputs": [
        {
          "name": "newBatchFee",
          "type": "uint128"
        }
      ],
      "name": "changeExitBatchFee",
      "outputs": [],
      "payable": false,
      "stateMutability": "nonpayable",
      "type": "function"
    },
    {
      "constant": true,
      "inputs": [
        {
          "name": "",
          "type": "address"
        }
      ],
      "name": "operators",
      "outputs": [
        {
          "name": "",
          "type": "bool"
        }
      ],
      "payable": false,
      "stateMutability": "view",
      "type": "function"
    },
    {
      "constant": false,
      "inputs": [],
      "name": "startNextDepositBatch",
      "outputs": [],
      "payable": false,
      "stateMutability": "nonpayable",
      "type": "function"
    },
    {
      "constant": true,
      "inputs": [],
      "name": "SPECIAL_ACCOUNT_EXITS",
      "outputs": [
        {
          "name": "",
          "type": "uint24"
        }
      ],
      "payable": false,
      "stateMutability": "view",
      "type": "function"
    },
    {
      "constant": true,
      "inputs": [],
      "name": "totalDepositRequests",
      "outputs": [
        {
          "name": "",
          "type": "uint256"
        }
      ],
      "payable": false,
      "stateMutability": "view",
      "type": "function"
    },
    {
      "constant": true,
      "inputs": [],
      "name": "exitor",
      "outputs": [
        {
          "name": "",
          "type": "address"
        }
      ],
      "payable": false,
      "stateMutability": "view",
      "type": "function"
    },
    {
      "constant": true,
      "inputs": [
        {
          "name": "",
          "type": "address"
        }
      ],
      "name": "balances",
      "outputs": [
        {
          "name": "",
          "type": "uint256"
        }
      ],
      "payable": false,
      "stateMutability": "view",
      "type": "function"
    },
    {
      "constant": true,
      "inputs": [],
      "name": "totalExitRequests",
      "outputs": [
        {
          "name": "",
          "type": "uint256"
        }
      ],
      "payable": false,
      "stateMutability": "view",
      "type": "function"
    },
    {
      "constant": true,
      "inputs": [
        {
          "name": "",
          "type": "address"
        },
        {
          "name": "",
          "type": "uint32"
        }
      ],
      "name": "exitLeafs",
      "outputs": [
        {
          "name": "nextID",
          "type": "uint32"
        },
        {
          "name": "amount",
          "type": "uint128"
        }
      ],
      "payable": false,
      "stateMutability": "view",
      "type": "function"
    },
    {
      "constant": true,
      "inputs": [
        {
          "name": "value",
          "type": "uint256"
        }
      ],
      "name": "scaleIntoPlasmaUnitsFromWei",
      "outputs": [
        {
          "name": "",
          "type": "uint128"
        }
      ],
      "payable": false,
      "stateMutability": "pure",
      "type": "function"
    },
    {
      "constant": false,
      "inputs": [
        {
          "name": "batchNumber",
          "type": "uint256"
        },
        {
          "name": "blockNumber",
          "type": "uint32"
        },
        {
          "name": "proof",
          "type": "uint256[8]"
        }
      ],
      "name": "verifyExitBlock",
      "outputs": [],
      "payable": false,
      "stateMutability": "nonpayable",
      "type": "function"
    },
    {
      "constant": true,
      "inputs": [],
      "name": "DEPOSIT_BATCH_SIZE",
      "outputs": [
        {
          "name": "",
          "type": "uint256"
        }
      ],
      "payable": false,
      "stateMutability": "view",
      "type": "function"
    },
    {
      "constant": false,
      "inputs": [],
      "name": "cancelDeposit",
      "outputs": [],
      "payable": false,
      "stateMutability": "nonpayable",
      "type": "function"
    },
    {
      "constant": true,
      "inputs": [],
      "name": "MAX_DELAY",
      "outputs": [
        {
          "name": "",
          "type": "uint64"
        }
      ],
      "payable": false,
      "stateMutability": "view",
      "type": "function"
    },
    {
      "constant": true,
      "inputs": [
        {
          "name": "float",
          "type": "uint16"
        }
      ],
      "name": "parseFloat",
      "outputs": [
        {
          "name": "scaledValue",
          "type": "uint128"
        }
      ],
      "payable": false,
      "stateMutability": "pure",
      "type": "function"
    },
    {
      "constant": true,
      "inputs": [],
      "name": "lastCommittedExitBatch",
      "outputs": [
        {
          "name": "",
          "type": "uint256"
        }
      ],
      "payable": false,
      "stateMutability": "view",
      "type": "function"
    },
    {
      "constant": true,
      "inputs": [
        {
          "name": "",
          "type": "uint256"
        },
        {
          "name": "",
          "type": "uint24"
        }
      ],
      "name": "depositRequests",
      "outputs": [
        {
          "name": "amount",
          "type": "uint128"
        }
      ],
      "payable": false,
      "stateMutability": "view",
      "type": "function"
    },
    {
      "constant": false,
      "inputs": [
        {
          "name": "batchNumber",
          "type": "uint256"
        },
        {
          "name": "accoundIDs",
          "type": "uint24[1]"
        },
        {
          "name": "blockNumber",
          "type": "uint32"
        },
        {
          "name": "newRoot",
          "type": "bytes32"
        }
      ],
      "name": "commitDepositBlock",
      "outputs": [],
      "payable": false,
      "stateMutability": "nonpayable",
      "type": "function"
    },
    {
      "constant": true,
      "inputs": [],
      "name": "currentExitBatchFee",
      "outputs": [
        {
          "name": "",
          "type": "uint128"
        }
      ],
      "payable": false,
      "stateMutability": "view",
      "type": "function"
    },
    {
      "constant": true,
      "inputs": [
        {
          "name": "",
          "type": "uint32"
        }
      ],
      "name": "blocks",
      "outputs": [
        {
          "name": "circuit",
          "type": "uint8"
        },
        {
          "name": "deadline",
          "type": "uint64"
        },
        {
          "name": "totalFees",
          "type": "uint128"
        },
        {
          "name": "newRoot",
          "type": "bytes32"
        },
        {
          "name": "publicDataCommitment",
          "type": "bytes32"
        },
        {
          "name": "prover",
          "type": "address"
        }
      ],
      "payable": false,
      "stateMutability": "view",
      "type": "function"
    },
    {
      "constant": false,
      "inputs": [
        {
          "name": "accountID",
          "type": "uint24"
        },
        {
          "name": "maxFee",
          "type": "uint128"
        }
      ],
      "name": "depositInto",
      "outputs": [],
      "payable": true,
      "stateMutability": "payable",
      "type": "function"
    },
    {
      "constant": true,
      "inputs": [
        {
          "name": "blockNumber",
          "type": "uint32"
        },
        {
          "name": "txDataPacked",
          "type": "bytes"
        }
      ],
      "name": "createPublicDataCommitmentForDeposit",
      "outputs": [
        {
          "name": "h",
          "type": "bytes32"
        }
      ],
      "payable": false,
      "stateMutability": "pure",
      "type": "function"
    },
    {
      "constant": true,
      "inputs": [],
      "name": "lastVerifiedDepositBatch",
      "outputs": [
        {
          "name": "",
          "type": "uint256"
        }
      ],
      "payable": false,
      "stateMutability": "view",
      "type": "function"
    },
    {
      "constant": true,
      "inputs": [],
      "name": "TRANSFER_BLOCK_SIZE",
      "outputs": [
        {
          "name": "",
          "type": "uint256"
        }
      ],
      "payable": false,
      "stateMutability": "view",
      "type": "function"
    },
    {
      "constant": true,
      "inputs": [],
      "name": "stopped",
      "outputs": [
        {
          "name": "",
          "type": "bool"
        }
      ],
      "payable": false,
      "stateMutability": "view",
      "type": "function"
    },
    {
      "constant": false,
      "inputs": [
        {
          "name": "batchNumber",
          "type": "uint256"
        },
        {
          "name": "accoundIDs",
          "type": "uint24[1]"
        },
        {
          "name": "blockNumber",
          "type": "uint32"
        },
        {
          "name": "txDataPacked",
          "type": "bytes"
        },
        {
          "name": "newRoot",
          "type": "bytes32"
        }
      ],
      "name": "commitExitBlock",
      "outputs": [],
      "payable": false,
      "stateMutability": "nonpayable",
      "type": "function"
    },
    {
      "constant": true,
      "inputs": [
        {
          "name": "",
          "type": "uint24"
        }
      ],
      "name": "accounts",
      "outputs": [
        {
          "name": "state",
          "type": "uint8"
        },
        {
          "name": "exitBatchNumber",
          "type": "uint32"
        },
        {
          "name": "owner",
          "type": "address"
        },
        {
          "name": "publicKey",
          "type": "uint256"
        },
        {
          "name": "exitListHead",
          "type": "uint32"
        },
        {
          "name": "exitListTail",
          "type": "uint32"
        }
      ],
      "payable": false,
      "stateMutability": "view",
      "type": "function"
    },
    {
      "constant": true,
      "inputs": [],
      "name": "lastCommittedBlockNumber",
      "outputs": [
        {
          "name": "",
          "type": "uint32"
        }
      ],
      "payable": false,
      "stateMutability": "view",
      "type": "function"
    },
    {
      "constant": true,
      "inputs": [
        {
          "name": "",
          "type": "address"
        }
      ],
      "name": "ethereumAddressToAccountID",
      "outputs": [
        {
          "name": "",
          "type": "uint24"
        }
      ],
      "payable": false,
      "stateMutability": "view",
      "type": "function"
    },
    {
      "constant": false,
      "inputs": [
        {
          "name": "publicKey",
          "type": "uint256[2]"
        },
        {
          "name": "maxFee",
          "type": "uint128"
        }
      ],
      "name": "deposit",
      "outputs": [],
      "payable": true,
      "stateMutability": "payable",
      "type": "function"
    },
    {
      "constant": true,
      "inputs": [
        {
          "name": "blockNumber",
          "type": "uint32"
        },
        {
          "name": "txDataPacked",
          "type": "bytes"
        }
      ],
      "name": "createPublicDataCommitmentForExit",
      "outputs": [
        {
          "name": "h",
          "type": "bytes32"
        }
      ],
      "payable": false,
      "stateMutability": "pure",
      "type": "function"
    },
    {
      "constant": true,
      "inputs": [],
      "name": "transactor",
      "outputs": [
        {
          "name": "",
          "type": "address"
        }
      ],
      "payable": false,
      "stateMutability": "view",
      "type": "function"
    },
    {
      "constant": true,
      "inputs": [],
      "name": "DENOMINATOR",
      "outputs": [
        {
          "name": "",
          "type": "uint256"
        }
      ],
      "payable": false,
      "stateMutability": "view",
      "type": "function"
    },
    {
      "constant": false,
      "inputs": [
        {
          "name": "blockNumber",
          "type": "uint32"
        },
        {
          "name": "proof",
          "type": "uint256[8]"
        }
      ],
      "name": "verifyTransferBlock",
      "outputs": [],
      "payable": false,
      "stateMutability": "nonpayable",
      "type": "function"
    },
    {
      "constant": false,
      "inputs": [
        {
          "name": "batchNumber",
          "type": "uint256"
        },
        {
          "name": "accoundIDs",
          "type": "uint24[1]"
        },
        {
          "name": "blockNumber",
          "type": "uint32"
        },
        {
          "name": "proof",
          "type": "uint256[8]"
        }
      ],
      "name": "verifyDepositBlock",
      "outputs": [],
      "payable": false,
      "stateMutability": "nonpayable",
      "type": "function"
    },
    {
      "constant": true,
      "inputs": [
        {
          "name": "",
          "type": "uint256"
        }
      ],
      "name": "exitBatches",
      "outputs": [
        {
          "name": "state",
          "type": "uint8"
        },
        {
          "name": "blockNumber",
          "type": "uint32"
        },
        {
          "name": "timestamp",
          "type": "uint64"
        },
        {
          "name": "batchFee",
          "type": "uint128"
        }
      ],
      "payable": false,
      "stateMutability": "view",
      "type": "function"
    },
    {
      "constant": true,
      "inputs": [],
      "name": "DEADLINE",
      "outputs": [
        {
          "name": "",
          "type": "uint256"
        }
      ],
      "payable": false,
      "stateMutability": "view",
      "type": "function"
    },
    {
      "constant": true,
      "inputs": [],
      "name": "currentDepositBatchFee",
      "outputs": [
        {
          "name": "",
          "type": "uint128"
        }
      ],
      "payable": false,
      "stateMutability": "view",
      "type": "function"
    },
    {
      "constant": true,
      "inputs": [
        {
          "name": "value",
          "type": "uint128"
        }
      ],
      "name": "scaleFromPlasmaUnitsIntoWei",
      "outputs": [
        {
          "name": "",
          "type": "uint256"
        }
      ],
      "payable": false,
      "stateMutability": "pure",
      "type": "function"
    },
    {
      "constant": false,
      "inputs": [
        {
          "name": "iterationsLimit",
          "type": "uint256"
        }
      ],
      "name": "withdrawUserBalance",
      "outputs": [],
      "payable": false,
      "stateMutability": "nonpayable",
      "type": "function"
    },
    {
      "constant": true,
      "inputs": [
        {
          "name": "publicKey",
          "type": "uint256[2]"
        }
      ],
      "name": "packAndValidatePublicKey",
      "outputs": [
        {
          "name": "packed",
          "type": "uint256"
        }
      ],
      "payable": false,
      "stateMutability": "pure",
      "type": "function"
    },
    {
      "constant": true,
      "inputs": [],
      "name": "SPECIAL_ACCOUNT_DEPOSITS",
      "outputs": [
        {
          "name": "",
          "type": "uint24"
        }
      ],
      "payable": false,
      "stateMutability": "view",
      "type": "function"
    },
    {
      "constant": true,
      "inputs": [
        {
          "name": "blockNumber",
          "type": "uint32"
        },
        {
          "name": "totalFees",
          "type": "uint128"
        },
        {
          "name": "txDataPacked",
          "type": "bytes"
        }
      ],
      "name": "createPublicDataCommitmentForTransfer",
      "outputs": [
        {
          "name": "h",
          "type": "bytes32"
        }
      ],
      "payable": false,
      "stateMutability": "pure",
      "type": "function"
    },
    {
      "constant": false,
      "inputs": [],
      "name": "exit",
      "outputs": [],
      "payable": true,
      "stateMutability": "payable",
      "type": "function"
    },
    {
      "constant": true,
      "inputs": [],
      "name": "lastVerifiedExitBatch",
      "outputs": [
        {
          "name": "",
          "type": "uint256"
        }
      ],
      "payable": false,
      "stateMutability": "view",
      "type": "function"
    },
    {
      "constant": true,
      "inputs": [],
      "name": "nextAccountToRegister",
      "outputs": [
        {
          "name": "",
          "type": "uint24"
        }
      ],
      "payable": false,
      "stateMutability": "view",
      "type": "function"
    },
    {
      "constant": false,
      "inputs": [
        {
          "name": "blockNumber",
          "type": "uint32"
        },
        {
          "name": "totalFees",
          "type": "uint128"
        },
        {
          "name": "txDataPacked",
          "type": "bytes"
        },
        {
          "name": "newRoot",
          "type": "bytes32"
        }
      ],
      "name": "commitTransferBlock",
      "outputs": [],
      "payable": false,
      "stateMutability": "nonpayable",
      "type": "function"
    },
    {
      "constant": true,
      "inputs": [],
      "name": "lastVerifiedBlockNumber",
      "outputs": [
        {
          "name": "",
          "type": "uint32"
        }
      ],
      "payable": false,
      "stateMutability": "view",
      "type": "function"
    },
    {
      "constant": false,
      "inputs": [
        {
          "name": "newBatchFee",
          "type": "uint128"
        }
      ],
      "name": "changeDepositBatchFee",
      "outputs": [],
      "payable": false,
      "stateMutability": "nonpayable",
      "type": "function"
    },
    {
      "constant": true,
      "inputs": [
        {
          "name": "",
          "type": "uint256"
        }
      ],
      "name": "depositBatches",
      "outputs": [
        {
          "name": "state",
          "type": "uint8"
        },
        {
          "name": "numRequests",
          "type": "uint24"
        },
        {
          "name": "blockNumber",
          "type": "uint32"
        },
        {
          "name": "timestamp",
          "type": "uint64"
        },
        {
          "name": "batchFee",
          "type": "uint128"
        }
      ],
      "payable": false,
      "stateMutability": "view",
      "type": "function"
    },
    {
      "constant": true,
      "inputs": [],
      "name": "lastCommittedDepositBatch",
      "outputs": [
        {
          "name": "",
          "type": "uint256"
        }
      ],
      "payable": false,
      "stateMutability": "view",
      "type": "function"
    },
    {
      "constant": false,
      "inputs": [],
      "name": "cancelExit",
      "outputs": [],
      "payable": false,
      "stateMutability": "nonpayable",
      "type": "function"
    },
    {
      "constant": false,
      "inputs": [],
      "name": "startNextExitBatch",
      "outputs": [],
      "payable": false,
      "stateMutability": "nonpayable",
      "type": "function"
    },
    {
      "inputs": [
        {
          "name": "defaultPublicKeys",
          "type": "uint256[3]"
        }
      ],
      "payable": false,
      "stateMutability": "nonpayable",
      "type": "constructor"
    },
    {
      "payable": true,
      "stateMutability": "payable",
      "type": "fallback"
    },
    {
      "anonymous": false,
      "inputs": [
        {
          "indexed": true,
          "name": "blockNumber",
          "type": "uint32"
        }
      ],
      "name": "BlockCommitted",
      "type": "event"
    },
    {
      "anonymous": false,
      "inputs": [
        {
          "indexed": true,
          "name": "blockNumber",
          "type": "uint32"
        }
      ],
      "name": "BlockVerified",
      "type": "event"
    },
    {
      "anonymous": false,
      "inputs": [
        {
          "indexed": true,
          "name": "batchNumber",
          "type": "uint256"
        },
        {
          "indexed": true,
          "name": "accountID",
          "type": "uint24"
        },
        {
          "indexed": true,
          "name": "publicKey",
          "type": "uint256"
        },
        {
          "indexed": false,
          "name": "amount",
          "type": "uint128"
        }
      ],
      "name": "LogDepositRequest",
      "type": "event"
    },
    {
      "anonymous": false,
      "inputs": [
        {
          "indexed": true,
          "name": "batchNumber",
          "type": "uint256"
        },
        {
          "indexed": true,
          "name": "accountID",
          "type": "uint24"
        }
      ],
      "name": "LogCancelDepositRequest",
      "type": "event"
    },
    {
      "anonymous": false,
      "inputs": [
        {
          "indexed": true,
          "name": "batchNumber",
          "type": "uint256"
        },
        {
          "indexed": true,
          "name": "accountID",
          "type": "uint24"
        }
      ],
      "name": "LogExitRequest",
      "type": "event"
    },
    {
      "anonymous": false,
      "inputs": [
        {
          "indexed": true,
          "name": "batchNumber",
          "type": "uint256"
        },
        {
          "indexed": true,
          "name": "accountID",
          "type": "uint24"
        }
      ],
      "name": "LogCancelExitRequest",
      "type": "event"
    },
    {
      "anonymous": false,
      "inputs": [
        {
          "indexed": true,
          "name": "ethereumAddress",
          "type": "address"
        },
        {
          "indexed": true,
          "name": "blockNumber",
          "type": "uint32"
        }
      ],
      "name": "LogExit",
      "type": "event"
    },
    {
      "anonymous": false,
      "inputs": [
        {
          "indexed": true,
          "name": "ethereumAddress",
          "type": "address"
        },
        {
          "indexed": true,
          "name": "blockNumber",
          "type": "uint32"
        },
        {
          "indexed": false,
          "name": "accountID",
          "type": "uint24"
        }
      ],
      "name": "LogCompleteExit",
      "type": "event"
    }
  ],
  "bytecode": "0x608060405260046014806101000a81548162ffffff021916908362ffffff1602179055503480156200003057600080fd5b50604051606080620085d8833981018060405281019080919050506200005562000299565b60007e3f7e15e4de3453fe13e11fb4b007f1fce6a5b0f0353b3b8208910143aaa2f76001026006816000191690555060018060003373ffffffffffffffffffffffffffffffffffffffff1673ffffffffffffffffffffffffffffffffffffffff16815260200190815260200160002060006101000a81548160ff021916908315150217905550600190505b600462ffffff168162ffffff161015620002905760c060405190810160405280600160038111156200010e57fe5b60ff168152602001600063ffffffff1681526020013373ffffffffffffffffffffffffffffffffffffffff168152602001846001840362ffffff166003811015156200015657fe5b60200201518152602001600063ffffffff168152602001600063ffffffff16815250915081600460008362ffffff1662ffffff16815260200190815260200160002060008201518160000160006101000a81548160ff021916908360ff16021790555060208201518160000160016101000a81548163ffffffff021916908363ffffffff16021790555060408201518160000160056101000a81548173ffffffffffffffffffffffffffffffffffffffff021916908373ffffffffffffffffffffffffffffffffffffffff1602179055506060820151816001015560808201518160020160006101000a81548163ffffffff021916908363ffffffff16021790555060a08201518160020160046101000a81548163ffffffff021916908363ffffffff1602179055509050508080600101915050620000e0565b505050620002fb565b60c060405190810160405280600060ff168152602001600063ffffffff168152602001600073ffffffffffffffffffffffffffffffffffffffff16815260200160008152602001600063ffffffff168152602001600063ffffffff1681525090565b6182cd806200030b6000396000f300608060405260043610610288576000357c0100000000000000000000000000000000000000000000000000000000900463ffffffff16806309b7f497146102e25780630a05e9b61461031557806313e7c9d81461035457806318a63d9c146103af5780631e8072a2146103c6578063254e88e2146103fb5780632713ad691461042657806327e235e31461047d57806329a081ac146104d45780632ad67a96146104ff5780632c87c6c91461059d5780632e94523e14610602578063351eb7511461066f5780633d5616021461069a5780634125ff90146106b157806345146cf3146106f05780634c5ff682146107595780635300e41014610784578063533de30a146107f857806357d2ae24146108725780635cd0783e146108c15780635df1b433146109a5578063609293b7146109e657806363d078aa14610a7b57806369935b6914610aa657806375f12b2114610ad157806379b2ad7014610b005780637dc38ab914610bc0578063838e204914610c7f5780638512153f14610cb657806385611d2614610d175780638756c9be14610d785780638ecb72d114610e0d578063918f867414610e6457806392f1c2b414610e8f57806395b5d61714610ef25780639d9c941914610f8e578063a082c86e1461102e578063a15ff0c314611059578063a315c91b146110a8578063abc3cf05146110fb578063c47ba19d14611128578063cd7543c01461118e578063dd67b1a0146111c3578063e9fad8ee14611274578063ed03f5631461127e578063f47932ad146112a9578063f487b28e146112de578063f4c163a414611381578063f648a6c7146113b8578063fb0cd20f146113f7578063fb1d5010146114a8578063fdf364e4146114d3578063feeeaa53146114ea575b6000601460009054906101000a900473ffffffffffffffffffffffffffffffffffffffff1690506040513660008237368101806040526040813684866107d05a03f43d806000843e81600081146102dd578184f35b600080fd5b3480156102ee57600080fd5b506102f7611501565b60405180826000191660001916815260200191505060405180910390f35b34801561032157600080fd5b5061035260048036038101908080356fffffffffffffffffffffffffffffffff169060200190929190505050611507565b005b34801561036057600080fd5b50610395600480360381019080803573ffffffffffffffffffffffffffffffffffffffff169060200190929190505050611795565b604051808215151515815260200191505060405180910390f35b3480156103bb57600080fd5b506103c46117b5565b005b3480156103d257600080fd5b506103db611a26565b604051808262ffffff1662ffffff16815260200191505060405180910390f35b34801561040757600080fd5b50610410611a2b565b6040518082815260200191505060405180910390f35b34801561043257600080fd5b5061043b611a31565b604051808273ffffffffffffffffffffffffffffffffffffffff1673ffffffffffffffffffffffffffffffffffffffff16815260200191505060405180910390f35b34801561048957600080fd5b506104be600480360381019080803573ffffffffffffffffffffffffffffffffffffffff169060200190929190505050611a57565b6040518082815260200191505060405180910390f35b3480156104e057600080fd5b506104e9611a6f565b6040518082815260200191505060405180910390f35b34801561050b57600080fd5b50610550600480360381019080803573ffffffffffffffffffffffffffffffffffffffff169060200190929190803563ffffffff169060200190929190505050611a75565b604051808363ffffffff1663ffffffff168152602001826fffffffffffffffffffffffffffffffff166fffffffffffffffffffffffffffffffff1681526020019250505060405180910390f35b3480156105a957600080fd5b506105c860048036038101908080359060200190929190505050611ad2565b60405180826fffffffffffffffffffffffffffffffff166fffffffffffffffffffffffffffffffff16815260200191505060405180910390f35b34801561060e57600080fd5b5061066d60048036038101908080359060200190929190803563ffffffff169060200190929190806101000190600880602002604051908101604052809291908260086020028082843782019150505050509192919290505050611c1f565b005b34801561067b57600080fd5b50610684612217565b6040518082815260200191505060405180910390f35b3480156106a657600080fd5b506106af61221c565b005b3480156106bd57600080fd5b506106c6612704565b604051808267ffffffffffffffff1667ffffffffffffffff16815260200191505060405180910390f35b3480156106fc57600080fd5b5061071f600480360381019080803561ffff16906020019092919050505061270b565b60405180826fffffffffffffffffffffffffffffffff166fffffffffffffffffffffffffffffffff16815260200191505060405180910390f35b34801561076557600080fd5b5061076e6127b6565b6040518082815260200191505060405180910390f35b34801561079057600080fd5b506107be60048036038101908080359060200190929190803562ffffff1690602001909291905050506127bc565b60405180826fffffffffffffffffffffffffffffffff166fffffffffffffffffffffffffffffffff16815260200191505060405180910390f35b34801561080457600080fd5b50610870600480360381019080803590602001909291908060200190600180602002604051908101604052809291908260016020028082843782019150505050509192919290803563ffffffff1690602001909291908035600019169060200190929190505050612803565b005b34801561087e57600080fd5b50610887612da4565b60405180826fffffffffffffffffffffffffffffffff166fffffffffffffffffffffffffffffffff16815260200191505060405180910390f35b3480156108cd57600080fd5b506108f2600480360381019080803563ffffffff169060200190929190505050612dc6565b604051808760ff1660ff1681526020018667ffffffffffffffff1667ffffffffffffffff168152602001856fffffffffffffffffffffffffffffffff166fffffffffffffffffffffffffffffffff168152602001846000191660001916815260200183600019166000191681526020018273ffffffffffffffffffffffffffffffffffffffff1673ffffffffffffffffffffffffffffffffffffffff168152602001965050505050505060405180910390f35b6109e4600480360381019080803562ffffff16906020019092919080356fffffffffffffffffffffffffffffffff169060200190929190505050612e5f565b005b3480156109f257600080fd5b50610a5d600480360381019080803563ffffffff169060200190929190803590602001908201803590602001908080601f0160208091040260200160405190810160405280939291908181526020018383808284378201915050505050509192919290505050613651565b60405180826000191660001916815260200191505060405180910390f35b348015610a8757600080fd5b50610a9061384a565b6040518082815260200191505060405180910390f35b348015610ab257600080fd5b50610abb613850565b6040518082815260200191505060405180910390f35b348015610add57600080fd5b50610ae6613855565b604051808215151515815260200191505060405180910390f35b348015610b0c57600080fd5b50610bbe600480360381019080803590602001909291908060200190600180602002604051908101604052809291908260016020028082843782019150505050509192919290803563ffffffff169060200190929190803590602001908201803590602001908080601f01602080910402602001604051908101604052809392919081815260200183838082843782019150505050505091929192908035600019169060200190929190505050613868565b005b348015610bcc57600080fd5b50610bf0600480360381019080803562ffffff169060200190929190505050613d5a565b604051808760ff1660ff1681526020018663ffffffff1663ffffffff1681526020018573ffffffffffffffffffffffffffffffffffffffff1673ffffffffffffffffffffffffffffffffffffffff1681526020018481526020018363ffffffff1663ffffffff1681526020018263ffffffff1663ffffffff168152602001965050505050505060405180910390f35b348015610c8b57600080fd5b50610c94613df3565b604051808263ffffffff1663ffffffff16815260200191505060405180910390f35b348015610cc257600080fd5b50610cf7600480360381019080803573ffffffffffffffffffffffffffffffffffffffff169060200190929190505050613e09565b604051808262ffffff1662ffffff16815260200191505060405180910390f35b610d76600480360381019080806040019060028060200260405190810160405280929190826002602002808284378201915050505050919291929080356fffffffffffffffffffffffffffffffff169060200190929190505050613e2b565b005b348015610d8457600080fd5b50610def600480360381019080803563ffffffff169060200190929190803590602001908201803590602001908080601f0160208091040260200160405190810160405280939291908181526020018383808284378201915050505050509192919290505050614184565b60405180826000191660001916815260200191505060405180910390f35b348015610e1957600080fd5b50610e2261437d565b604051808273ffffffffffffffffffffffffffffffffffffffff1673ffffffffffffffffffffffffffffffffffffffff16815260200191505060405180910390f35b348015610e7057600080fd5b50610e796143a3565b6040518082815260200191505060405180910390f35b348015610e9b57600080fd5b50610ef0600480360381019080803563ffffffff1690602001909291908061010001906008806020026040519081016040528092919082600860200280828437820191505050505091929192905050506143ac565b005b348015610efe57600080fd5b50610f8c600480360381019080803590602001909291908060200190600180602002604051908101604052809291908260016020028082843782019150505050509192919290803563ffffffff16906020019092919080610100019060088060200260405190810160405280929190826008602002808284378201915050505050919291929050505061494b565b005b348015610f9a57600080fd5b50610fb960048036038101908080359060200190929190505050615096565b604051808560ff1660ff1681526020018463ffffffff1663ffffffff1681526020018367ffffffffffffffff1667ffffffffffffffff168152602001826fffffffffffffffffffffffffffffffff166fffffffffffffffffffffffffffffffff16815260200194505050505060405180910390f35b34801561103a57600080fd5b50611043615113565b6040518082815260200191505060405180910390f35b34801561106557600080fd5b5061106e615119565b60405180826fffffffffffffffffffffffffffffffff166fffffffffffffffffffffffffffffffff16815260200191505060405180910390f35b3480156110b457600080fd5b506110e560048036038101908080356fffffffffffffffffffffffffffffffff16906020019092919050505061513b565b6040518082815260200191505060405180910390f35b34801561110757600080fd5b506111266004803603810190808035906020019092919050505061515e565b005b34801561113457600080fd5b50611178600480360381019080806040019060028060200260405190810160405280929190826002602002808284378201915050505050919291929050505061581a565b6040518082815260200191505060405180910390f35b34801561119a57600080fd5b506111a36158d6565b604051808262ffffff1662ffffff16815260200191505060405180910390f35b3480156111cf57600080fd5b50611256600480360381019080803563ffffffff16906020019092919080356fffffffffffffffffffffffffffffffff169060200190929190803590602001908201803590602001908080601f01602080910402602001604051908101604052809392919081815260200183838082843782019150505050505091929192905050506158db565b60405180826000191660001916815260200191505060405180910390f35b61127c615aef565b005b34801561128a57600080fd5b50611293615f27565b6040518082815260200191505060405180910390f35b3480156112b557600080fd5b506112be615f2d565b604051808262ffffff1662ffffff16815260200191505060405180910390f35b3480156112ea57600080fd5b5061137f600480360381019080803563ffffffff16906020019092919080356fffffffffffffffffffffffffffffffff169060200190929190803590602001908201803590602001908080601f01602080910402602001604051908101604052809392919081815260200183838082843782019150505050505091929192908035600019169060200190929190505050615f41565b005b34801561138d57600080fd5b506113966162e7565b604051808263ffffffff1663ffffffff16815260200191505060405180910390f35b3480156113c457600080fd5b506113f560048036038101908080356fffffffffffffffffffffffffffffffff1690602001909291905050506162fc565b005b34801561140357600080fd5b506114226004803603810190808035906020019092919050505061658f565b604051808660ff1660ff1681526020018562ffffff1662ffffff1681526020018463ffffffff1663ffffffff1681526020018367ffffffffffffffff1667ffffffffffffffff168152602001826fffffffffffffffffffffffffffffffff166fffffffffffffffffffffffffffffffff1681526020019550505050505060405180910390f35b3480156114b457600080fd5b506114bd616621565b6040518082815260200191505060405180910390f35b3480156114df57600080fd5b506114e8616627565b005b3480156114f657600080fd5b506114ff616a02565b005b60065481565b60011515600160003373ffffffffffffffffffffffffffffffffffffffff1673ffffffffffffffffffffffffffffffffffffffff16815260200190815260200160002060009054906101000a900460ff1615151415156115f5576040517f08c379a00000000000000000000000000000000000000000000000000000000081526004018080602001828103825260258152602001807f73656e6465722073686f756c64206265206f6e65206f6620746865206f70657281526020017f61746f727300000000000000000000000000000000000000000000000000000081525060400191505060405180910390fd5b6000601060009054906101000a90046fffffffffffffffffffffffffffffffff166fffffffffffffffffffffffffffffffff16141561169c576040517f08c379a00000000000000000000000000000000000000000000000000000000081526004018080602001828103825260198152602001807f66656520697320616c7265616479206174206d696e696d756d0000000000000081525060200191505060405180910390fd5b601060009054906101000a90046fffffffffffffffffffffffffffffffff166fffffffffffffffffffffffffffffffff16816fffffffffffffffffffffffffffffffff1610156117245780601060006101000a8154816fffffffffffffffffffffffffffffffff02191690836fffffffffffffffffffffffffffffffff160217905550611792565b6040517f08c379a000000000000000000000000000000000000000000000000000000000815260040180806020018281038252601c8152602001807f63616e206e6f7420696e63726561736520616e2065786974206665650000000081525060200191505060405180910390fd5b50565b60016020528060005260406000206000915054906101000a900460ff1681565b600080600560009054906101000a900460ff16151515611863576040517f08c379a00000000000000000000000000000000000000000000000000000000081526004018080602001828103825260278152602001807f636f6e74726163742073686f756c64206e6f7420626520676c6f62616c6c792081526020017f73746f707065640000000000000000000000000000000000000000000000000081525060400191505060405180910390fd5b60011515600160003373ffffffffffffffffffffffffffffffffffffffff1673ffffffffffffffffffffffffffffffffffffffff16815260200190815260200160002060009054906101000a900460ff161515141515611951576040517f08c379a00000000000000000000000000000000000000000000000000000000081526004018080602001828103825260258152602001807f73656e6465722073686f756c64206265206f6e65206f6620746865206f70657281526020017f61746f727300000000000000000000000000000000000000000000000000000081525060400191505060405180910390fd5b600160075481151561195f57fe5b049150600160075481151561197057fe5b06905060008114151561198e57600180830102600781905550611a22565b6040517f08c379a000000000000000000000000000000000000000000000000000000000815260040180806020018281038252602b8152602001807f69742773206e6f74206e656365737361727920746f2062756d7020746865206281526020017f61746368206e756d62657200000000000000000000000000000000000000000081525060400191505060405180910390fd5b5050565b600081565b60075481565b601460009054906101000a900473ffffffffffffffffffffffffffffffffffffffff1681565b60026020528060005260406000206000915090505481565b600d5481565b6012602052816000526040600020602052806000526040600020600091509150508060000160009054906101000a900463ffffffff16908060000160049054906101000a90046fffffffffffffffffffffffffffffffff16905082565b600080600064e8d4a51000915060008285811515611aec57fe5b06141515611b88576040517f08c379a00000000000000000000000000000000000000000000000000000000081526004018080602001828103825260298152602001807f616d6f756e74206861732068696768657220707265636973696f6e207468616e81526020017f20706f737369626c65000000000000000000000000000000000000000000000081525060400191505060405180910390fd5b8184811515611b9357fe5b049050608060019060020a0281101515611c15576040517f08c379a000000000000000000000000000000000000000000000000000000000815260040180806020018281038252601a8152602001807f6465706f73697420616d6f756e7420697320746f6f206869676800000000000081525060200191505060405180910390fd5b8092505050919050565b600080600060011515600160003373ffffffffffffffffffffffffffffffffffffffff1673ffffffffffffffffffffffffffffffffffffffff16815260200190815260200160002060009054906101000a900460ff161515141515611d12576040517f08c379a00000000000000000000000000000000000000000000000000000000081526004018080602001828103825260258152602001807f73656e6465722073686f756c64206265206f6e65206f6620746865206f70657281526020017f61746f727300000000000000000000000000000000000000000000000000000081525060400191505060405180910390fd5b600560019054906101000a900463ffffffff1663ffffffff166005809054906101000a900463ffffffff1663ffffffff16101515611db8576040517f08c379a000000000000000000000000000000000000000000000000000000000815260040180806020018281038252601c8152602001807f6e6f20636f6d6d697474656420626c6f636b20746f207665726966790000000081525060200191505060405180910390fd5b60016005809054906101000a900463ffffffff160163ffffffff168563ffffffff16141515611e4f576040517f08c379a000000000000000000000000000000000000000000000000000000000815260040180806020018281038252601a8152602001807f6d6179206f6e6c7920766572696679206e65787420626c6f636b00000000000081525060200191505060405180910390fd5b600f5486141515611eee576040517f08c379a00000000000000000000000000000000000000000000000000000000081526004018080602001828103825260228152602001807f747279696e6720746f2070726f7665206261746368206f7574206f66206f726481526020017f657200000000000000000000000000000000000000000000000000000000000081525060400191505060405180910390fd5b6000808663ffffffff1663ffffffff1681526020019081526020016000209250600280811115611f1a57fe5b60ff168360000160009054906101000a900460ff1660ff16141515611fcd576040517f08c379a00000000000000000000000000000000000000000000000000000000081526004018080602001828103825260398152602001807f747279696e6720746f2070726f76652074686520696e76616c6964206369726381526020017f75697420666f72207468697320626c6f636b206e756d6265720000000000000081525060400191505060405180910390fd5b6011600087815260200190815260200160002091508463ffffffff168260000160019054906101000a900463ffffffff1663ffffffff1614151561209f576040517f08c379a00000000000000000000000000000000000000000000000000000000081526004018080602001828103825260308152602001807f626c6f636b206e756d62657220696e207265666572656e63696e6720696e766181526020017f6c6964206261746368206e756d6265720000000000000000000000000000000081525060400191505060405180910390fd5b6002808111156120ab57fe5b8260000160006101000a81548160ff021916908360ff160217905550428260000160056101000a81548167ffffffffffffffff021916908367ffffffffffffffff16021790555061210a60028560065486600101548760020154616bc8565b9050801515612181576040517f08c379a000000000000000000000000000000000000000000000000000000000815260040180806020018281038252600d8152602001807f696e76616c69642070726f6f660000000000000000000000000000000000000081525060200191505060405180910390fd5b8463ffffffff167fca558d7524956f89ce1ec833efe8a265ed2b1e92b20ff4fe2fb87fb1a042e52460405160405180910390a260058081819054906101000a900463ffffffff168092919060010191906101000a81548163ffffffff021916908363ffffffff16021790555050600f60008154809291906001019190505550826001015460068160001916905550505050505050565b600181565b600080600080600080600360003373ffffffffffffffffffffffffffffffffffffffff1673ffffffffffffffffffffffffffffffffffffffff16815260200190815260200160002060009054906101000a900462ffffff16955060008662ffffff161415151561231a576040517f08c379a00000000000000000000000000000000000000000000000000000000081526004018080602001828103825260338152602001807f747279696e6720746f2063616e63656c2061206465706f73697420666f72206e81526020017f6f6e2d6578697374696e67206163636f756e740000000000000000000000000081525060400191505060405180910390fd5b600160075481151561232857fe5b049450600160075481151561233957fe5b069350600c600086815260200190815260200160002092506000600281111561235e57fe5b60ff168360000160009054906101000a900460ff1660ff16141515612411576040517f08c379a00000000000000000000000000000000000000000000000000000000081526004018080602001828103825260408152602001807f63616e63656c696e67206973206f6e6c7920616c6c6f77656420666f7220626181526020017f7463686573207468617420617265206e6f742079657420636f6d6d697474656481525060400191505060405180910390fd5b600b600086815260200190815260200160002060008762ffffff1662ffffff16815260200190815260200160002091508160000160009054906101000a90046fffffffffffffffffffffffffffffffff1690506000816fffffffffffffffffffffffffffffffff16111515612514576040517f08c379a00000000000000000000000000000000000000000000000000000000081526004018080602001828103825260218152602001807f747279696e6720746f2063616e63656c20616e20656d707479206465706f736981526020017f740000000000000000000000000000000000000000000000000000000000000081525060400191505060405180910390fd5b8260000160109054906101000a90046fffffffffffffffffffffffffffffffff16810190508562ffffff16857fd99f8eb80f2e84189fe41fb9bed3506f73da9be70a0df39e2b4a997e92dbd61a60405160405180910390a3600084141561260b57600c6000868152602001908152602001600020600080820160006101000a81549060ff02191690556000820160016101000a81549062ffffff02191690556000820160046101000a81549063ffffffff02191690556000820160086101000a81549067ffffffffffffffff02191690556000820160106101000a8154906fffffffffffffffffffffffffffffffff021916905550505b600b600086815260200190815260200160002060008762ffffff1662ffffff168152602001908152602001600020600080820160006101000a8154906fffffffffffffffffffffffffffffffff021916905550506007600081548092919060019003919050555082600001600181819054906101000a900462ffffff16809291906001900391906101000a81548162ffffff021916908362ffffff160217905550503373ffffffffffffffffffffffffffffffffffffffff166108fc6126d08361513b565b9081150290604051600060405180830381858888f193505050501580156126fb573d6000803e3d6000fd5b50505050505050565b6201518081565b600080600080600080935060019250600091505b600582101561275a57600082600f0360019060020a028761ffff161611156127475782840193505b600283029250818060010192505061271f565b83600a0a93506000905060019250600091505b600b8210156127a857600082600a0360019060020a028761ffff161611156127955782810190505b600283029250818060010192505061276d565b808402945050505050919050565b600e5481565b600b602052816000526040600020602052806000526040600020600091509150508060000160009054906101000a90046fffffffffffffffffffffffffffffffff16905081565b600060606000600560009054906101000a900460ff161515156128b4576040517f08c379a00000000000000000000000000000000000000000000000000000000081526004018080602001828103825260278152602001807f636f6e74726163742073686f756c64206e6f7420626520676c6f62616c6c792081526020017f73746f707065640000000000000000000000000000000000000000000000000081525060400191505060405180910390fd5b60011515600160003373ffffffffffffffffffffffffffffffffffffffff1673ffffffffffffffffffffffffffffffffffffffff16815260200190815260200160002060009054906101000a900460ff1615151415156129a2576040517f08c379a00000000000000000000000000000000000000000000000000000000081526004018080602001828103825260258152602001807f73656e6465722073686f756c64206265206f6e65206f6620746865206f70657281526020017f61746f727300000000000000000000000000000000000000000000000000000081525060400191505060405180910390fd5b6001600560019054906101000a900463ffffffff160163ffffffff168563ffffffff16141515612a3a576040517f08c379a000000000000000000000000000000000000000000000000000000000815260040180806020018281038252601a8152602001807f6d6179206f6e6c7920636f6d6d6974206e65787420626c6f636b00000000000081525060200191505060405180910390fd5b60085487141515612ad9576040517f08c379a00000000000000000000000000000000000000000000000000000000081526004018080602001828103825260238152602001807f747279696e6720746f20636f6d6d6974206261746368206f7574206f66206f7281526020017f646572000000000000000000000000000000000000000000000000000000000081525060400191505060405180910390fd5b600c6000888152602001908152602001600020925060016002811115612afb57fe5b8360000160006101000a81548160ff021916908360ff160217905550848360000160046101000a81548163ffffffff021916908363ffffffff160217905550428360000160086101000a81548167ffffffffffffffff021916908367ffffffffffffffff160217905550612b6f8787616bd7565b9150612b7b8583613651565b905060c06040519081016040528060006002811115612b9657fe5b60ff1681526020016201518067ffffffffffffffff16420167ffffffffffffffff16815260200160006fffffffffffffffffffffffffffffffff16815260200185600019168152602001826000191681526020013373ffffffffffffffffffffffffffffffffffffffff168152506000808763ffffffff1663ffffffff16815260200190815260200160002060008201518160000160006101000a81548160ff021916908360ff16021790555060208201518160000160016101000a81548167ffffffffffffffff021916908367ffffffffffffffff16021790555060408201518160000160096101000a8154816fffffffffffffffffffffffffffffffff02191690836fffffffffffffffffffffffffffffffff160217905550606082015181600101906000191690556080820151816002019060001916905560a08201518160030160006101000a81548173ffffffffffffffffffffffffffffffffffffffff021916908373ffffffffffffffffffffffffffffffffffffffff1602179055509050508463ffffffff167fdf39762be389bd636a9efb2e4f3b26ac7d22eda4f0840f389209987a09e50fc960405160405180910390a26005600181819054906101000a900463ffffffff168092919060010191906101000a81548163ffffffff021916908363ffffffff1602179055505060086000815480929190600101919050555050505050505050565b601060009054906101000a90046fffffffffffffffffffffffffffffffff1681565b60006020528060005260406000206000915090508060000160009054906101000a900460ff16908060000160019054906101000a900467ffffffffffffffff16908060000160099054906101000a90046fffffffffffffffffffffffffffffffff16908060010154908060020154908060030160009054906101000a900473ffffffffffffffffffffffffffffffffffffffff16905086565b6000612e69618181565b6000806000600560009054906101000a900460ff16151515612f19576040517f08c379a00000000000000000000000000000000000000000000000000000000081526004018080602001828103825260278152602001807f636f6e74726163742073686f756c64206e6f7420626520676c6f62616c6c792081526020017f73746f707065640000000000000000000000000000000000000000000000000081525060400191505060405180910390fd5b600a60009054906101000a90046fffffffffffffffffffffffffffffffff166fffffffffffffffffffffffffffffffff16866fffffffffffffffffffffffffffffffff1610151515612ff9576040517f08c379a00000000000000000000000000000000000000000000000000000000081526004018080602001828103825260218152602001807f6465706f73697420666565206973206c657373207468616e207265717569726581526020017f640000000000000000000000000000000000000000000000000000000000000081525060400191505060405180910390fd5b61300234611ad2565b9450600a60009054906101000a90046fffffffffffffffffffffffffffffffff166fffffffffffffffffffffffffffffffff16856fffffffffffffffffffffffffffffffff16101515156130e4576040517f08c379a00000000000000000000000000000000000000000000000000000000081526004018080602001828103825260238152602001807f6465706f73697420616d6f756e742073686f756c6420636f766572207468652081526020017f666565000000000000000000000000000000000000000000000000000000000081525060400191505060405180910390fd5b600a60109054906101000a900462ffffff1662ffffff168762ffffff1610151561319c576040517f08c379a00000000000000000000000000000000000000000000000000000000081526004018080602001828103825260358152602001807f666f72206e6f77206f6e6c7920616c6c6f7720746f206465706f73697420696e81526020017f746f206e6f6e2d656d707479206163636f756e7473000000000000000000000081525060400191505060405180910390fd5b600460008862ffffff1662ffffff16815260200190815260200160002060c060405190810160405290816000820160009054906101000a900460ff1660ff1660ff1681526020016000820160019054906101000a900463ffffffff1663ffffffff1663ffffffff1681526020016000820160059054906101000a900473ffffffffffffffffffffffffffffffffffffffff1673ffffffffffffffffffffffffffffffffffffffff1673ffffffffffffffffffffffffffffffffffffffff168152602001600182015481526020016002820160009054906101000a900463ffffffff1663ffffffff1663ffffffff1681526020016002820160049054906101000a900463ffffffff1663ffffffff1663ffffffff16815250509350600160038111156132c357fe5b60ff16846000015160ff16141515613369576040517f08c379a00000000000000000000000000000000000000000000000000000000081526004018080602001828103825260288152602001807f63616e206f6e6c79206465706f73697420696e746f207265676973746572656481526020017f206163636f756e7400000000000000000000000000000000000000000000000081525060400191505060405180910390fd5b600160075481151561337757fe5b049250600c6000848152602001908152602001600020915060008260000160089054906101000a900467ffffffffffffffff1667ffffffffffffffff16141561348a57600060028111156133c757fe5b8260000160006101000a81548160ff021916908360ff16021790555060008260000160016101000a81548162ffffff021916908362ffffff160217905550428260000160086101000a81548167ffffffffffffffff021916908367ffffffffffffffff160217905550600a60009054906101000a90046fffffffffffffffffffffffffffffffff168260000160106101000a8154816fffffffffffffffffffffffffffffffff02191690836fffffffffffffffffffffffffffffffff1602179055505b600a60009054906101000a90046fffffffffffffffffffffffffffffffff1685039450600b600084815260200190815260200160002060008862ffffff1662ffffff168152602001908152602001600020905060008160000160009054906101000a90046fffffffffffffffffffffffffffffffff166fffffffffffffffffffffffffffffffff1614156135655781600001600181819054906101000a900462ffffff168092919060010191906101000a81548162ffffff021916908362ffffff160217905550506007600081548092919060010191905055505b848160000160008282829054906101000a90046fffffffffffffffffffffffffffffffff160192506101000a8154816fffffffffffffffffffffffffffffffff02191690836fffffffffffffffffffffffffffffffff16021790555083606001518762ffffff16847f77576c82d939ce0a49902463e0dd51c0257e560ff4f55a51a702af4ed76912668460000160009054906101000a90046fffffffffffffffffffffffffffffffff1660405180826fffffffffffffffffffffffffffffffff166fffffffffffffffffffffffffffffffff16815260200191505060405180910390a450505050505050565b600080600060028563ffffffff16604051602001808281526020019150506040516020818303038152906040526040518082805190602001908083835b6020831015156136b3578051825260208201915060208101905060208303925061368e565b6001836020036101000a0380198251168184511680821785525050505050509050019150506020604051808303816000865af11580156136f7573d6000803e3d6000fd5b5050506040513d602081101561370c57600080fd5b810190808051906020019092919050505091506002828560405160200180836000191660001916815260200182805190602001908083835b6020831015156137695780518252602082019150602081019050602083039250613744565b6001836020036101000a038019825116818451168082178552505050505050905001925050506040516020818303038152906040526040518082805190602001908083835b6020831015156137d357805182526020820191506020810190506020830392506137ae565b6001836020036101000a0380198251168184511680821785525050505050509050019150506020604051808303816000865af1158015613817573d6000803e3d6000fd5b5050506040513d602081101561382c57600080fd5b81019080805190602001909291905050509050809250505092915050565b60095481565b608081565b600560009054906101000a900460ff1681565b60008060011515600160003373ffffffffffffffffffffffffffffffffffffffff1673ffffffffffffffffffffffffffffffffffffffff16815260200190815260200160002060009054906101000a900460ff161515141515613959576040517f08c379a00000000000000000000000000000000000000000000000000000000081526004018080602001828103825260258152602001807f73656e6465722073686f756c64206265206f6e65206f6620746865206f70657281526020017f61746f727300000000000000000000000000000000000000000000000000000081525060400191505060405180910390fd5b6001600560019054906101000a900463ffffffff160163ffffffff168563ffffffff161415156139f1576040517f08c379a000000000000000000000000000000000000000000000000000000000815260040180806020018281038252601a8152602001807f6d6179206f6e6c7920636f6d6d6974206e65787420626c6f636b00000000000081525060200191505060405180910390fd5b600e5487141515613a90576040517f08c379a00000000000000000000000000000000000000000000000000000000081526004018080602001828103825260238152602001807f747279696e6720746f20636f6d6d6974206261746368206f7574206f66206f7281526020017f646572000000000000000000000000000000000000000000000000000000000081525060400191505060405180910390fd5b60116000888152602001908152602001600020915060016002811115613ab257fe5b8260000160006101000a81548160ff021916908360ff160217905550848260000160016101000a81548163ffffffff021916908363ffffffff160217905550428260000160056101000a81548167ffffffffffffffff021916908367ffffffffffffffff160217905550613b268585614184565b905060c060405190810160405280600280811115613b4057fe5b60ff1681526020016201518067ffffffffffffffff16420167ffffffffffffffff16815260200160006fffffffffffffffffffffffffffffffff16815260200184600019168152602001826000191681526020013373ffffffffffffffffffffffffffffffffffffffff168152506000808763ffffffff1663ffffffff16815260200190815260200160002060008201518160000160006101000a81548160ff021916908360ff16021790555060208201518160000160016101000a81548167ffffffffffffffff021916908367ffffffffffffffff16021790555060408201518160000160096101000a8154816fffffffffffffffffffffffffffffffff02191690836fffffffffffffffffffffffffffffffff160217905550606082015181600101906000191690556080820151816002019060001916905560a08201518160030160006101000a81548173ffffffffffffffffffffffffffffffffffffffff021916908373ffffffffffffffffffffffffffffffffffffffff1602179055509050508463ffffffff167fdf39762be389bd636a9efb2e4f3b26ac7d22eda4f0840f389209987a09e50fc960405160405180910390a26005600181819054906101000a900463ffffffff168092919060010191906101000a81548163ffffffff021916908363ffffffff16021790555050600e60008154809291906001019190505550613d5187868887616fe6565b50505050505050565b60046020528060005260406000206000915090508060000160009054906101000a900460ff16908060000160019054906101000a900463ffffffff16908060000160059054906101000a900473ffffffffffffffffffffffffffffffffffffffff16908060010154908060020160009054906101000a900463ffffffff16908060020160049054906101000a900463ffffffff16905086565b600560019054906101000a900463ffffffff1681565b60036020528060005260406000206000915054906101000a900462ffffff1681565b600080613e36618181565b600560009054906101000a900460ff16151515613ee1576040517f08c379a00000000000000000000000000000000000000000000000000000000081526004018080602001828103825260278152602001807f636f6e74726163742073686f756c64206e6f7420626520676c6f62616c6c792081526020017f73746f707065640000000000000000000000000000000000000000000000000081525060400191505060405180910390fd5b600360003373ffffffffffffffffffffffffffffffffffffffff1673ffffffffffffffffffffffffffffffffffffffff16815260200190815260200160002060009054906101000a900462ffffff16925060008362ffffff16141561417357613f498561581a565b9150600a60109054906101000a900462ffffff16600360003373ffffffffffffffffffffffffffffffffffffffff1673ffffffffffffffffffffffffffffffffffffffff16815260200190815260200160002060006101000a81548162ffffff021916908362ffffff16021790555060c06040519081016040528060016003811115613fd157fe5b60ff168152602001600063ffffffff1681526020013373ffffffffffffffffffffffffffffffffffffffff168152602001838152602001600063ffffffff168152602001600063ffffffff168152509050600a60109054906101000a900462ffffff16925080600460008562ffffff1662ffffff16815260200190815260200160002060008201518160000160006101000a81548160ff021916908360ff16021790555060208201518160000160016101000a81548163ffffffff021916908363ffffffff16021790555060408201518160000160056101000a81548173ffffffffffffffffffffffffffffffffffffffff021916908373ffffffffffffffffffffffffffffffffffffffff1602179055506060820151816001015560808201518160020160006101000a81548163ffffffff021916908363ffffffff16021790555060a08201518160020160046101000a81548163ffffffff021916908363ffffffff1602179055509050506001600a60108282829054906101000a900462ffffff160192506101000a81548162ffffff021916908362ffffff1602179055505b61417d8385612e5f565b5050505050565b600080600060028563ffffffff16604051602001808281526020019150506040516020818303038152906040526040518082805190602001908083835b6020831015156141e657805182526020820191506020810190506020830392506141c1565b6001836020036101000a0380198251168184511680821785525050505050509050019150506020604051808303816000865af115801561422a573d6000803e3d6000fd5b5050506040513d602081101561423f57600080fd5b810190808051906020019092919050505091506002828560405160200180836000191660001916815260200182805190602001908083835b60208310151561429c5780518252602082019150602081019050602083039250614277565b6001836020036101000a038019825116818451168082178552505050505050905001925050506040516020818303038152906040526040518082805190602001908083835b60208310151561430657805182526020820191506020810190506020830392506142e1565b6001836020036101000a0380198251168184511680821785525050505050509050019150506020604051808303816000865af115801561434a573d6000803e3d6000fd5b5050506040513d602081101561435f57600080fd5b81019080805190602001909291905050509050809250505092915050565b601360009054906101000a900473ffffffffffffffffffffffffffffffffffffffff1681565b64e8d4a5100081565b6143b46181e3565b600060011515600160003373ffffffffffffffffffffffffffffffffffffffff1673ffffffffffffffffffffffffffffffffffffffff16815260200190815260200160002060009054906101000a900460ff1615151415156144a4576040517f08c379a00000000000000000000000000000000000000000000000000000000081526004018080602001828103825260258152602001807f73656e6465722073686f756c64206265206f6e65206f6620746865206f70657281526020017f61746f727300000000000000000000000000000000000000000000000000000081525060400191505060405180910390fd5b600560019054906101000a900463ffffffff1663ffffffff166005809054906101000a900463ffffffff1663ffffffff1610151561454a576040517f08c379a000000000000000000000000000000000000000000000000000000000815260040180806020018281038252601c8152602001807f6e6f20636f6d6d697474656420626c6f636b20746f207665726966790000000081525060200191505060405180910390fd5b60016005809054906101000a900463ffffffff160163ffffffff168463ffffffff161415156145e1576040517f08c379a000000000000000000000000000000000000000000000000000000000815260040180806020018281038252601a8152602001807f6d6179206f6e6c7920766572696679206e65787420626c6f636b00000000000081525060200191505060405180910390fd5b6000808563ffffffff1663ffffffff16815260200190815260200160002060c060405190810160405290816000820160009054906101000a900460ff1660ff1660ff1681526020016000820160019054906101000a900467ffffffffffffffff1667ffffffffffffffff1667ffffffffffffffff1681526020016000820160099054906101000a90046fffffffffffffffffffffffffffffffff166fffffffffffffffffffffffffffffffff166fffffffffffffffffffffffffffffffff1681526020016001820154600019166000191681526020016002820154600019166000191681526020016003820160009054906101000a900473ffffffffffffffffffffffffffffffffffffffff1673ffffffffffffffffffffffffffffffffffffffff1673ffffffffffffffffffffffffffffffffffffffff168152505091506001600281111561472d57fe5b60ff16826000015160ff161415156147d3576040517f08c379a00000000000000000000000000000000000000000000000000000000081526004018080602001828103825260398152602001807f747279696e6720746f2070726f76652074686520696e76616c6964206369726381526020017f75697420666f72207468697320626c6f636b206e756d6265720000000000000081525060400191505060405180910390fd5b6147eb60018460065485606001518660800151616bc8565b9050801515614862576040517f08c379a000000000000000000000000000000000000000000000000000000000815260040180806020018281038252600d8152602001807f696e76616c69642070726f6f660000000000000000000000000000000000000081525060200191505060405180910390fd5b8363ffffffff167fca558d7524956f89ce1ec833efe8a265ed2b1e92b20ff4fe2fb87fb1a042e52460405160405180910390a260058081819054906101000a900463ffffffff168092919060010191906101000a81548163ffffffff021916908363ffffffff1602179055505081606001516006816000191690555081604001516fffffffffffffffffffffffffffffffff16600260008460a0015173ffffffffffffffffffffffffffffffffffffffff1673ffffffffffffffffffffffffffffffffffffffff1681526020019081526020016000206000828254019250508190555050505050565b600080600080600560009054906101000a900460ff161515156149fc576040517f08c379a00000000000000000000000000000000000000000000000000000000081526004018080602001828103825260278152602001807f636f6e74726163742073686f756c64206e6f7420626520676c6f62616c6c792081526020017f73746f707065640000000000000000000000000000000000000000000000000081525060400191505060405180910390fd5b60011515600160003373ffffffffffffffffffffffffffffffffffffffff1673ffffffffffffffffffffffffffffffffffffffff16815260200190815260200160002060009054906101000a900460ff161515141515614aea576040517f08c379a00000000000000000000000000000000000000000000000000000000081526004018080602001828103825260258152602001807f73656e6465722073686f756c64206265206f6e65206f6620746865206f70657281526020017f61746f727300000000000000000000000000000000000000000000000000000081525060400191505060405180910390fd5b600560019054906101000a900463ffffffff1663ffffffff166005809054906101000a900463ffffffff1663ffffffff16101515614b90576040517f08c379a000000000000000000000000000000000000000000000000000000000815260040180806020018281038252601c8152602001807f6e6f20636f6d6d697474656420626c6f636b20746f207665726966790000000081525060200191505060405180910390fd5b60016005809054906101000a900463ffffffff160163ffffffff168663ffffffff16141515614c27576040517f08c379a000000000000000000000000000000000000000000000000000000000815260040180806020018281038252601a8152602001807f6d6179206f6e6c7920766572696679206e65787420626c6f636b00000000000081525060200191505060405180910390fd5b60095488141515614ca0576040517f08c379a000000000000000000000000000000000000000000000000000000000815260040180806020018281038252601c8152602001807f6d75737420766572696679206261746368657320696e206f726465720000000081525060200191505060405180910390fd5b6000808763ffffffff1663ffffffff168152602001908152602001600020935060006002811115614ccd57fe5b60ff168460000160009054906101000a900460ff1660ff16141515614d80576040517f08c379a00000000000000000000000000000000000000000000000000000000081526004018080602001828103825260398152602001807f747279696e6720746f2070726f76652074686520696e76616c6964206369726381526020017f75697420666f72207468697320626c6f636b206e756d6265720000000000000081525060400191505060405180910390fd5b600c600089815260200190815260200160002092508563ffffffff168360000160049054906101000a900463ffffffff1663ffffffff16141515614e52576040517f08c379a00000000000000000000000000000000000000000000000000000000081526004018080602001828103825260308152602001807f626c6f636b206e756d62657220696e207265666572656e63696e6720696e766181526020017f6c6964206261746368206e756d6265720000000000000000000000000000000081525060400191505060405180910390fd5b600280811115614e5e57fe5b8360000160006101000a81548160ff021916908360ff160217905550428360000160086101000a81548167ffffffffffffffff021916908367ffffffffffffffff160217905550614ebd60008660065487600101548860020154616bc8565b9150811515614f34576040517f08c379a000000000000000000000000000000000000000000000000000000000815260040180806020018281038252600d8152602001807f696e76616c69642070726f6f660000000000000000000000000000000000000081525060200191505060405180910390fd5b8563ffffffff167fca558d7524956f89ce1ec833efe8a265ed2b1e92b20ff4fe2fb87fb1a042e52460405160405180910390a260058081819054906101000a900463ffffffff168092919060010191906101000a81548163ffffffff021916908363ffffffff16021790555050600960008154809291906001019190505550836001015460068160001916905550614fcc888861778f565b9050808460000160096101000a8154816fffffffffffffffffffffffffffffffff02191690836fffffffffffffffffffffffffffffffff160217905550806fffffffffffffffffffffffffffffffff16600260008660030160009054906101000a900473ffffffffffffffffffffffffffffffffffffffff1673ffffffffffffffffffffffffffffffffffffffff1673ffffffffffffffffffffffffffffffffffffffff168152602001908152602001600020600082825401925050819055505050505050505050565b60116020528060005260406000206000915090508060000160009054906101000a900460ff16908060000160019054906101000a900463ffffffff16908060000160059054906101000a900467ffffffffffffffff169080600001600d9054906101000a90046fffffffffffffffffffffffffffffffff16905084565b610e1081565b600a60009054906101000a90046fffffffffffffffffffffffffffffffff1681565b600064e8d4a51000826fffffffffffffffffffffffffffffffff16029050919050565b60008060008060008060008060008060008b1115156151e5576040517f08c379a000000000000000000000000000000000000000000000000000000000815260040180806020018281038252600c8152602001807f6d7573742069746572617465000000000000000000000000000000000000000081525060200191505060405180910390fd5b600360003373ffffffffffffffffffffffffffffffffffffffff1673ffffffffffffffffffffffffffffffffffffffff16815260200190815260200160002060009054906101000a900462ffffff16975060008862ffffff1614151515615300576040517f08c379a000000000000000000000000000000000000000000000000000000000815260040180806020018281038252604b8152602001807f746869732073686f756c64206e6f742068617070656e2061732065786974696e81526020017f672068617070656e73206f6e65206279206f6e6520756e74696c20746865206381526020017f6f6d706c657465206f6e6500000000000000000000000000000000000000000081525060600191505060405180910390fd5b600460008962ffffff1662ffffff16815260200190815260200160002096508660020160009054906101000a900463ffffffff169550859450600093505b8a84101561576e576005809054906101000a900463ffffffff1663ffffffff168663ffffffff1611156153e75760008414156153e2576040517f08c379a00000000000000000000000000000000000000000000000000000000081526004018080602001828103825260128152602001807f6e6f7468696e6720746f2070726f63657373000000000000000000000000000081525060200191505060405180910390fd5b61580d565b601260003373ffffffffffffffffffffffffffffffffffffffff1673ffffffffffffffffffffffffffffffffffffffff16815260200190815260200160002060008763ffffffff1663ffffffff168152602001908152602001600020925061546e8360000160049054906101000a90046fffffffffffffffffffffffffffffffff1661513b565b9850888a0199508260000160009054906101000a900463ffffffff169450601260003373ffffffffffffffffffffffffffffffffffffffff1673ffffffffffffffffffffffffffffffffffffffff16815260200190815260200160002060008763ffffffff1663ffffffff168152602001908152602001600020600080820160006101000a81549063ffffffff02191690556000820160046101000a8154906fffffffffffffffffffffffffffffffff0219169055505060008563ffffffff1614801561555c575060038081111561554257fe5b60ff168760000160009054906101000a900460ff1660ff16145b1561574a578660000160019054906101000a900463ffffffff1663ffffffff1691506011600083815260200190815260200160002090508060000160019054906101000a900463ffffffff1663ffffffff168663ffffffff16141515615650576040517f08c379a000000000000000000000000000000000000000000000000000000000815260040180806020018281038252603a8152602001807f6c617374206974656d20696e20746865206c6973742073686f756c64206d617481526020017f63682074686520636f6d706c657465206578697420626c6f636b00000000000081525060400191505060405180910390fd5b600460008962ffffff1662ffffff168152602001908152602001600020600080820160006101000a81549060ff02191690556000820160016101000a81549063ffffffff02191690556000820160056101000a81549073ffffffffffffffffffffffffffffffffffffffff021916905560018201600090556002820160006101000a81549063ffffffff02191690556002820160046101000a81549063ffffffff02191690555050600360003373ffffffffffffffffffffffffffffffffffffffff1673ffffffffffffffffffffffffffffffffffffffff16815260200190815260200160002060006101000a81549062ffffff02191690555b60008563ffffffff16141561575e5761576e565b849550838060010194505061533e565b848760020160006101000a81548163ffffffff021916908363ffffffff16021790555060008563ffffffff1614156157c55760008760020160046101000a81548163ffffffff021916908363ffffffff1602179055505b3373ffffffffffffffffffffffffffffffffffffffff166108fc8b9081150290604051600060405180830381858888f1935050505015801561580b573d6000803e3d6000fd5b505b5050505050505050505050565b60006158258261799d565b1515615899576040517f08c379a000000000000000000000000000000000000000000000000000000000815260040180806020018281038252601f8152602001807f7075626c6963206b6579206d757374206265206f6e207468652063757276650081525060200191505060405180910390fd5b60ff60018360006002811015156158ac57fe5b6020020151169060020a028260016002811015156158c657fe5b6020020151019050809050919050565b600181565b600080600060028663ffffffff16866fffffffffffffffffffffffffffffffff1660405160200180838152602001828152602001925050506040516020818303038152906040526040518082805190602001908083835b6020831015156159575780518252602082019150602081019050602083039250615932565b6001836020036101000a0380198251168184511680821785525050505050509050019150506020604051808303816000865af115801561599b573d6000803e3d6000fd5b5050506040513d60208110156159b057600080fd5b810190808051906020019092919050505091506002828560405160200180836000191660001916815260200182805190602001908083835b602083101515615a0d57805182526020820191506020810190506020830392506159e8565b6001836020036101000a038019825116818451168082178552505050505050905001925050506040516020818303038152906040526040518082805190602001908083835b602083101515615a775780518252602082019150602081019050602083039250615a52565b6001836020036101000a0380198251168184511680821785525050505050509050019150506020604051808303816000865af1158015615abb573d6000803e3d6000fd5b5050506040513d6020811015615ad057600080fd5b8101908080519060200190929190505050905080925050509392505050565b6000806000806000615b0034611ad2565b9450601060009054906101000a90046fffffffffffffffffffffffffffffffff166fffffffffffffffffffffffffffffffff16856fffffffffffffffffffffffffffffffff1610151515615be2576040517f08c379a00000000000000000000000000000000000000000000000000000000081526004018080602001828103825260358152602001807f65786974206665652073686f756c64206265206d6f7265207468616e2072657181526020017f756972656420627920746865206f70657261746f72000000000000000000000081525060400191505060405180910390fd5b600360003373ffffffffffffffffffffffffffffffffffffffff1673ffffffffffffffffffffffffffffffffffffffff16815260200190815260200160002060009054906101000a900462ffffff16935060008462ffffff1614151515615cb1576040517f08c379a000000000000000000000000000000000000000000000000000000000815260040180806020018281038252601b8152602001807f656d707479206163636f756e74732063616e206e6f742065786974000000000081525060200191505060405180910390fd5b6001600d54811515615cbf57fe5b04925060116000848152602001908152602001600020915060008260000160059054906101000a900467ffffffffffffffff1667ffffffffffffffff161415615db05760006002811115615d0f57fe5b8260000160006101000a81548160ff021916908360ff160217905550428260000160056101000a81548167ffffffffffffffff021916908367ffffffffffffffff160217905550601060009054906101000a90046fffffffffffffffffffffffffffffffff1682600001600d6101000a8154816fffffffffffffffffffffffffffffffff02191690836fffffffffffffffffffffffffffffffff1602179055505b600460008562ffffff1662ffffff168152602001908152602001600020905060016003811115615ddc57fe5b60ff168160000160009054906101000a900460ff1660ff16141515615e8f576040517f08c379a000000000000000000000000000000000000000000000000000000000815260040180806020018281038252603f8152602001807f6f6e6c79206163636f756e74732074686174206172652072656769737465726581526020017f6420616e64206e6f742070656e64696e6720657869742063616e20657869740081525060400191505060405180910390fd5b60026003811115615e9c57fe5b8160000160006101000a81548160ff021916908360ff160217905550828160000160016101000a81548163ffffffff021916908363ffffffff160217905550600d600081548092919060010191905055508362ffffff16837f236e3f00e03d1484fd608958ad56082729315788fd4541cc50b5cdac4bce07f060405160405180910390a35050505050565b600f5481565b6014809054906101000a900462ffffff1681565b600060011515600160003373ffffffffffffffffffffffffffffffffffffffff1673ffffffffffffffffffffffffffffffffffffffff16815260200190815260200160002060009054906101000a900460ff161515141515616031576040517f08c379a00000000000000000000000000000000000000000000000000000000081526004018080602001828103825260258152602001807f73656e6465722073686f756c64206265206f6e65206f6620746865206f70657281526020017f61746f727300000000000000000000000000000000000000000000000000000081525060400191505060405180910390fd5b6001600560019054906101000a900463ffffffff160163ffffffff168563ffffffff161415156160c9576040517f08c379a000000000000000000000000000000000000000000000000000000000815260040180806020018281038252601a8152602001807f6d6179206f6e6c7920636f6d6d6974206e65787420626c6f636b00000000000081525060200191505060405180910390fd5b6160d48585856158db565b905060c060405190810160405280600160028111156160ef57fe5b60ff168152602001610e10420167ffffffffffffffff168152602001856fffffffffffffffffffffffffffffffff16815260200183600019168152602001826000191681526020013373ffffffffffffffffffffffffffffffffffffffff168152506000808763ffffffff1663ffffffff16815260200190815260200160002060008201518160000160006101000a81548160ff021916908360ff16021790555060208201518160000160016101000a81548167ffffffffffffffff021916908367ffffffffffffffff16021790555060408201518160000160096101000a8154816fffffffffffffffffffffffffffffffff02191690836fffffffffffffffffffffffffffffffff160217905550606082015181600101906000191690556080820151816002019060001916905560a08201518160030160006101000a81548173ffffffffffffffffffffffffffffffffffffffff021916908373ffffffffffffffffffffffffffffffffffffffff1602179055509050508463ffffffff167fdf39762be389bd636a9efb2e4f3b26ac7d22eda4f0840f389209987a09e50fc960405160405180910390a26162a585846179f5565b6005600181819054906101000a900463ffffffff168092919060010191906101000a81548163ffffffff021916908363ffffffff160217905550505050505050565b6005809054906101000a900463ffffffff1681565b600560009054906101000a900460ff161515156163a7576040517f08c379a00000000000000000000000000000000000000000000000000000000081526004018080602001828103825260278152602001807f636f6e74726163742073686f756c64206e6f7420626520676c6f62616c6c792081526020017f73746f707065640000000000000000000000000000000000000000000000000081525060400191505060405180910390fd5b60011515600160003373ffffffffffffffffffffffffffffffffffffffff1673ffffffffffffffffffffffffffffffffffffffff16815260200190815260200160002060009054906101000a900460ff161515141515616495576040517f08c379a00000000000000000000000000000000000000000000000000000000081526004018080602001828103825260258152602001807f73656e6465722073686f756c64206265206f6e65206f6620746865206f70657281526020017f61746f727300000000000000000000000000000000000000000000000000000081525060400191505060405180910390fd5b806fffffffffffffffffffffffffffffffff16600a60009054906101000a90046fffffffffffffffffffffffffffffffff166fffffffffffffffffffffffffffffffff1614151561651e5780600a60006101000a8154816fffffffffffffffffffffffffffffffff02191690836fffffffffffffffffffffffffffffffff16021790555061658c565b6040517f08c379a000000000000000000000000000000000000000000000000000000000815260040180806020018281038252601d8152602001807f6665652061646a7573746d656e74206d616b6573206e6f2073656e736500000081525060200191505060405180910390fd5b50565b600c6020528060005260406000206000915090508060000160009054906101000a900460ff16908060000160019054906101000a900462ffffff16908060000160049054906101000a900463ffffffff16908060000160089054906101000a900467ffffffffffffffff16908060000160109054906101000a90046fffffffffffffffffffffffffffffffff16905085565b60085481565b600080600080600360003373ffffffffffffffffffffffffffffffffffffffff1673ffffffffffffffffffffffffffffffffffffffff16815260200190815260200160002060009054906101000a900462ffffff16935060008462ffffff1614151515616722576040517f08c379a00000000000000000000000000000000000000000000000000000000081526004018080602001828103825260338152602001807f747279696e6720746f2063616e63656c2061206465706f73697420666f72206e81526020017f6f6e2d6578697374696e67206163636f756e740000000000000000000000000081525060400191505060405180910390fd5b6001600d5481151561673057fe5b0492506001600d5481151561674157fe5b06915060008214156167cd5760116000848152602001908152602001600020600080820160006101000a81549060ff02191690556000820160016101000a81549063ffffffff02191690556000820160056101000a81549067ffffffffffffffff021916905560008201600d6101000a8154906fffffffffffffffffffffffffffffffff021916905550505b600460008562ffffff1662ffffff1681526020019081526020016000209050600260038111156167f957fe5b60ff168160000160009054906101000a900460ff1660ff161415156168ac576040517f08c379a00000000000000000000000000000000000000000000000000000000081526004018080602001828103825260388152602001807f63616e206f6e6c792063616e63656c20657869747320666f72206163636f756e81526020017f74732074686174206172652070656e64696e672065786974000000000000000081525060400191505060405180910390fd5b8263ffffffff168160000160019054906101000a900463ffffffff1663ffffffff16141515616969576040517f08c379a000000000000000000000000000000000000000000000000000000000815260040180806020018281038252603d8152602001807f63616e206e6f742063616e63656c20616e206578697420696e2074686520626181526020017f74636820746861742077617320616c726561647920616363657074656400000081525060400191505060405180910390fd5b6001600381111561697657fe5b8160000160006101000a81548160ff021916908360ff16021790555060008160000160016101000a81548163ffffffff021916908363ffffffff1602179055508362ffffff16837f09754f168d20bdac07b81b649e49ed48fe35f1a08ea551c1ae0366f324d6a3b460405160405180910390a3600d600081548092919060019003919050555050505050565b60008060011515600160003373ffffffffffffffffffffffffffffffffffffffff1673ffffffffffffffffffffffffffffffffffffffff16815260200190815260200160002060009054906101000a900460ff161515141515616af3576040517f08c379a00000000000000000000000000000000000000000000000000000000081526004018080602001828103825260258152602001807f73656e6465722073686f756c64206265206f6e65206f6620746865206f70657281526020017f61746f727300000000000000000000000000000000000000000000000000000081525060400191505060405180910390fd5b6001600d54811515616b0157fe5b0491506001600d54811515616b1257fe5b069050600081141515616b3057600180830102600d81905550616bc4565b6040517f08c379a000000000000000000000000000000000000000000000000000000000815260040180806020018281038252602b8152602001807f69742773206e6f74206e656365737361727920746f2062756d7020746865206281526020017f61746368206e756d62657200000000000000000000000000000000000000000081525060400191505060405180910390fd5b5050565b60006001905095945050505050565b606060008060008060008060008060336001026040519080825280601f01601f191660200182016040528015616c1c5781602001602082028038833980820191505090505b5098506020945060019350600c60008c815260200190815260200160002060000160019054906101000a900462ffffff1662ffffff169250600090505b82811015616eb7576000811480616ca057508960018203600181101515616c7c57fe5b602002015162ffffff168a82600181101515616c9457fe5b602002015162ffffff16115b1515616d3a576040517f08c379a00000000000000000000000000000000000000000000000000000000081526004018080602001828103825260228152602001807f6163636f756e74494420617265206e6f742070726f7065726c79206f7264657281526020017f656400000000000000000000000000000000000000000000000000000000000081525060400191505060405180910390fd5b8981600181101515616d4857fe5b602002015191508362ffffff168262ffffff1614151515616df7576040517f08c379a000000000000000000000000000000000000000000000000000000000815260040180806020018281038252602f8152602001807f62617463682073686f756c6420636f6e7461696e206e6f6e2d70616464696e6781526020017f206163636f756e7473206669727374000000000000000000000000000000000081525060400191505060405180910390fd5b600b60008c815260200190815260200160002060008362ffffff1662ffffff16815260200190815260200160002060000160009054906101000a90046fffffffffffffffffffffffffffffffff169650600460008362ffffff1662ffffff1681526020019081526020016000206001015495506068876fffffffffffffffffffffffffffffffff1660808462ffffff169060020a02019060020a02975087858a015260138501945085858a01526020850194508080600101915050616c59565b60e88462ffffff169060020a029750600460008562ffffff1662ffffff1681526020019081526020016000206001015495508290505b6001811015616fd5578981600181101515616f0457fe5b602002015191508362ffffff168262ffffff16141515616fb2576040517f08c379a00000000000000000000000000000000000000000000000000000000081526004018080602001828103825260328152602001807f70616464696e672073686f756c6420626520646f6e652077697468207370656381526020017f69616c206163636f756e74206e756d626572000000000000000000000000000081525060400191505060405180910390fd5b87858a015260138501945085858a01526020850194508080600101915050616eed565b889850505050505050505092915050565b6000806000806000806000616ff9618255565b600060209750600093505b60018410156177805760008b8560018110151561701d57fe5b602002015162ffffff16141561703257617773565b600084148061707157508a6001850360018110151561704d57fe5b602002015162ffffff168b8560018110151561706557fe5b602002015162ffffff16115b151561710b576040517f08c379a00000000000000000000000000000000000000000000000000000000081526004018080602001828103825260238152602001807f6163636f756e7449447320617265206e6f742070726f7065726c79206f72646581526020017f726564000000000000000000000000000000000000000000000000000000000081525060400191505060405180910390fd5b878a0151985060138801975060e8899060020a90048b8560018110151561712e57fe5b602002015162ffffff161415156171ad576040517f08c379a00000000000000000000000000000000000000000000000000000000081526004018080602001828103825260208152602001807f696e76616c6964206163636f756e7420494420696e20636f6d6d69746d656e7481525060200191505060405180910390fd5b600460008c866001811015156171bf57fe5b602002015162ffffff1662ffffff1681526020019081526020016000209250600260038111156171eb57fe5b60ff168360000160009054906101000a900460ff1660ff16141515617278576040517f08c379a000000000000000000000000000000000000000000000000000000000815260040180806020018281038252601e8152602001807f746865726520776173206e6f207375636820657869742072657175657374000081525060200191505060405180910390fd5b8c63ffffffff168360000160019054906101000a900463ffffffff1663ffffffff16141515617335576040517f08c379a00000000000000000000000000000000000000000000000000000000081526004018080602001828103825260308152602001807f6163636f756e7420776173207265676973746572656420666f7220657869742081526020017f696e20616e6f746865722062617463680000000000000000000000000000000081525060400191505060405180910390fd5b608060188a9060020a029060020a900495508260020160049054906101000a900463ffffffff16945060008563ffffffff1614156174af576040805190810160405280600063ffffffff168152602001876fffffffffffffffffffffffffffffffff16815250915081601260008560000160059054906101000a900473ffffffffffffffffffffffffffffffffffffffff1673ffffffffffffffffffffffffffffffffffffffff1673ffffffffffffffffffffffffffffffffffffffff16815260200190815260200160002060008e63ffffffff1663ffffffff16815260200190815260200160002060008201518160000160006101000a81548163ffffffff021916908363ffffffff16021790555060208201518160000160046101000a8154816fffffffffffffffffffffffffffffffff02191690836fffffffffffffffffffffffffffffffff1602179055509050508b8360020160046101000a81548163ffffffff021916908363ffffffff160217905550617692565b601260008460000160059054906101000a900473ffffffffffffffffffffffffffffffffffffffff1673ffffffffffffffffffffffffffffffffffffffff1673ffffffffffffffffffffffffffffffffffffffff16815260200190815260200160002060008663ffffffff1663ffffffff16815260200190815260200160002090506040805190810160405280600063ffffffff168152602001876fffffffffffffffffffffffffffffffff1681525091508b8160000160006101000a81548163ffffffff021916908363ffffffff16021790555081601260008560000160059054906101000a900473ffffffffffffffffffffffffffffffffffffffff1673ffffffffffffffffffffffffffffffffffffffff1673ffffffffffffffffffffffffffffffffffffffff16815260200190815260200160002060008e63ffffffff1663ffffffff16815260200190815260200160002060008201518160000160006101000a81548163ffffffff021916908363ffffffff16021790555060208201518160000160046101000a8154816fffffffffffffffffffffffffffffffff02191690836fffffffffffffffffffffffffffffffff1602179055509050508b8360020160046101000a81548163ffffffff021916908363ffffffff1602179055505b60008360020160009054906101000a900463ffffffff1663ffffffff1614156176d9578b8360020160006101000a81548163ffffffff021916908363ffffffff1602179055505b6003808111156176e557fe5b8360000160006101000a81548160ff021916908360ff1602179055508b63ffffffff168773ffffffffffffffffffffffffffffffffffffffff167fbd4f8ad55cac8b7705cb6fbc17b28e416d8e82c39b33e21cc95965d23fc906e68d8760018110151561774e57fe5b6020020151604051808262ffffff1662ffffff16815260200191505060405180910390a35b8380600101945050617004565b50505050505050505050505050565b600080600080600c600087815260200190815260200160002060000160109054906101000a90046fffffffffffffffffffffffffffffffff169250600091505b600182101561799157600085836001811015156177e857fe5b602002015162ffffff1614156177fd57617984565b600082148061783c5750846001830360018110151561781857fe5b602002015162ffffff16858360018110151561783057fe5b602002015162ffffff16115b15156178d6576040517f08c379a00000000000000000000000000000000000000000000000000000000081526004018080602001828103825260228152602001807f6163636f756e74494420617265206e6f742070726f7065726c79206f7264657281526020017f656400000000000000000000000000000000000000000000000000000000000081525060400191505060405180910390fd5b600b6000878152602001908152602001600020600086846001811015156178f957fe5b602002015162ffffff1662ffffff1681526020019081526020016000209050600b60008781526020019081526020016000206000868460018110151561793b57fe5b602002015162ffffff1662ffffff168152602001908152602001600020600080820160006101000a8154906fffffffffffffffffffffffffffffffff0219169055505082840193505b81806001019250506177cf565b83935050505092915050565b60006179a7618287565b60408051908101604052808460006002811015156179c157fe5b602002015181526020018460016002811015156179da57fe5b602002015181525090506179ed8161805d565b915050919050565b600080600080600080600080617a09618255565b60008060209950600094505b60098c51811515617a2257fe5b0485101561804e57898c01519a5060098a01995060e860188c9060020a029060020a9004985060008962ffffff1614156180405760e88b9060020a9004975060008862ffffff161415617a7457618041565b60f060308c9060020a029060020a90049550600460008962ffffff1662ffffff1681526020019081526020016000209350600073ffffffffffffffffffffffffffffffffffffffff168460000160059054906101000a900473ffffffffffffffffffffffffffffffffffffffff1673ffffffffffffffffffffffffffffffffffffffff161415617b0357618041565b617b0c8661270b565b965060008460020160049054906101000a900463ffffffff1663ffffffff161415617c73576040805190810160405280600063ffffffff168152602001886fffffffffffffffffffffffffffffffff16815250925082601260008660000160059054906101000a900473ffffffffffffffffffffffffffffffffffffffff1673ffffffffffffffffffffffffffffffffffffffff1673ffffffffffffffffffffffffffffffffffffffff16815260200190815260200160002060008f63ffffffff1663ffffffff16815260200190815260200160002060008201518160000160006101000a81548163ffffffff021916908363ffffffff16021790555060208201518160000160046101000a8154816fffffffffffffffffffffffffffffffff02191690836fffffffffffffffffffffffffffffffff1602179055509050508c8460020160046101000a81548163ffffffff021916908363ffffffff160217905550617f8a565b8c63ffffffff168460020160049054906101000a900463ffffffff1663ffffffff161415617d9257601260008560000160059054906101000a900473ffffffffffffffffffffffffffffffffffffffff1673ffffffffffffffffffffffffffffffffffffffff1673ffffffffffffffffffffffffffffffffffffffff16815260200190815260200160002060008560020160049054906101000a900463ffffffff1663ffffffff1663ffffffff1681526020019081526020016000209150868260000160048282829054906101000a90046fffffffffffffffffffffffffffffffff160192506101000a8154816fffffffffffffffffffffffffffffffff02191690836fffffffffffffffffffffffffffffffff160217905550617f89565b601260008560000160059054906101000a900473ffffffffffffffffffffffffffffffffffffffff1673ffffffffffffffffffffffffffffffffffffffff1673ffffffffffffffffffffffffffffffffffffffff16815260200190815260200160002060008560020160049054906101000a900463ffffffff1663ffffffff1663ffffffff16815260200190815260200160002090506040805190810160405280600063ffffffff168152602001886fffffffffffffffffffffffffffffffff1681525092508c8160000160006101000a81548163ffffffff021916908363ffffffff16021790555082601260008660000160059054906101000a900473ffffffffffffffffffffffffffffffffffffffff1673ffffffffffffffffffffffffffffffffffffffff1673ffffffffffffffffffffffffffffffffffffffff16815260200190815260200160002060008f63ffffffff1663ffffffff16815260200190815260200160002060008201518160000160006101000a81548163ffffffff021916908363ffffffff16021790555060208201518160000160046101000a8154816fffffffffffffffffffffffffffffffff02191690836fffffffffffffffffffffffffffffffff1602179055509050508c8460020160046101000a81548163ffffffff021916908363ffffffff1602179055505b5b60008460020160009054906101000a900463ffffffff1663ffffffff161415617fd1578c8460020160006101000a81548163ffffffff021916908363ffffffff1602179055505b8c63ffffffff168460000160059054906101000a900473ffffffffffffffffffffffffffffffffffffffff1673ffffffffffffffffffffffffffffffffffffffff167f6030852c9631bc119530851caef56a18b04441ffde1a59c38e046ea25d001e7860405160405180910390a35b5b8480600101955050617a15565b50505050505050505050505050565b600080600080600080600080618071618109565b965061807b618131565b9550618085618159565b94508680151561809157fe5b89600001518a60000151099350868015156180a857fe5b89602001518a60200151099250868015156180bf57fe5b83888015156180ca57fe5b868909089150868015156180da57fe5b878015156180e457fe5b888015156180ee57fe5b85870987096001089050808214975050505050505050919050565b60007f30644e72e131a029b85045b68181585d2833e84879b9709143e1f593f0000001905090565b60007f30644e72e131a029b85045b68181585d2833e84879b9709143e1f593f0000000905090565b60007f1aee90f15f2189693df072d799fd11fc039b2959ebb7c867d075ca8cf4d7eb8e905090565b60c060405190810160405280600060ff168152602001600063ffffffff168152602001600073ffffffffffffffffffffffffffffffffffffffff16815260200160008152602001600063ffffffff168152602001600063ffffffff1681525090565b60c060405190810160405280600060ff168152602001600067ffffffffffffffff16815260200160006fffffffffffffffffffffffffffffffff1681526020016000801916815260200160008019168152602001600073ffffffffffffffffffffffffffffffffffffffff1681525090565b6040805190810160405280600063ffffffff16815260200160006fffffffffffffffffffffffffffffffff1681525090565b6040805190810160405280600081526020016000815250905600a165627a7a723058204133deeca4051bfaa3eb0e481d9ea24aa41665bf04cc1c7c41cf3b15b208f4f70029",
  "source": "pragma solidity ^0.4.24;\n\nimport {PlasmaTransactor} from \"./PlasmaTransactor.sol\";\nimport {PlasmaDepositor} from \"./PlasmaDepositor.sol\";\nimport {PlasmaExitor} from \"./PlasmaExitor.sol\";\n\ncontract PlasmaTester is PlasmaDepositor, PlasmaExitor, PlasmaTransactor {\n    uint256 constant DEPOSIT_BATCH_SIZE = 1;\n\n    uint24 constant operatorsAccounts = 4;\n    uint24 public nextAccountToRegister = operatorsAccounts;\n\n    // create technological accounts for an operator. \n    constructor(uint256[operatorsAccounts - 1] memory defaultPublicKeys) public {\n        lastVerifiedRoot = EMPTY_TREE_ROOT;\n        operators[msg.sender] = true;\n        // account number 0 is NEVER registered\n        Account memory freshAccount;\n        for (uint24 i = 1; i < operatorsAccounts; i++) {\n            freshAccount = Account(\n                uint8(AccountState.REGISTERED),\n                uint32(0),\n                msg.sender,\n                defaultPublicKeys[i-1],\n                uint32(0),\n                uint32(0)\n            );\n            accounts[i] = freshAccount;\n        }\n    }\n\n    function verifyProof(Circuit, uint256[8] memory, bytes32, bytes32, bytes32) internal view returns (bool valid)\n    {\n        return true;\n    }\n}",
  "sourcePath": "/Users/alex/src/shamatar/zk_stuff/plasma/contracts/contracts/PlasmaTester.sol",
  "compiler": {
    "name": "solc",
    "version": "0.4.24+commit.e67f0147.Emscripten.clang"
  },
  "schemaVersion": "3.0.0",
  "updatedAt": "2019-03-04T15:11:49.058Z",
  "devdoc": {
    "methods": {}
  },
  "userdoc": {
    "methods": {}
  }
}