{
  "contractName": "PlasmaExitor",
  "abi": [
    {
      "constant": true,
      "inputs": [],
      "name": "lastVerifiedRoot",
      "outputs": [
        {
          "name": "",
          "type": "bytes32"
        }
      ],
      "payable": false,
      "stateMutability": "view",
      "type": "function",
      "signature": "0x09b7f497"
    },
    {
      "constant": true,
      "inputs": [
        {
          "name": "",
          "type": "address"
        }
      ],
      "name": "operators",
      "outputs": [
        {
          "name": "",
          "type": "bool"
        }
      ],
      "payable": false,
      "stateMutability": "view",
      "type": "function",
      "signature": "0x13e7c9d8"
    },
    {
      "constant": true,
      "inputs": [],
      "name": "SPECIAL_ACCOUNT_EXITS",
      "outputs": [
        {
          "name": "",
          "type": "uint24"
        }
      ],
      "payable": false,
      "stateMutability": "view",
      "type": "function",
      "signature": "0x1e8072a2"
    },
    {
      "constant": true,
      "inputs": [],
      "name": "totalDepositRequests",
      "outputs": [
        {
          "name": "",
          "type": "uint256"
        }
      ],
      "payable": false,
      "stateMutability": "view",
      "type": "function",
      "signature": "0x254e88e2"
    },
    {
      "constant": true,
      "inputs": [],
      "name": "exitor",
      "outputs": [
        {
          "name": "",
          "type": "address"
        }
      ],
      "payable": false,
      "stateMutability": "view",
      "type": "function",
      "signature": "0x2713ad69"
    },
    {
      "constant": true,
      "inputs": [
        {
          "name": "",
          "type": "address"
        }
      ],
      "name": "balances",
      "outputs": [
        {
          "name": "",
          "type": "uint256"
        }
      ],
      "payable": false,
      "stateMutability": "view",
      "type": "function",
      "signature": "0x27e235e3"
    },
    {
      "constant": true,
      "inputs": [],
      "name": "totalExitRequests",
      "outputs": [
        {
          "name": "",
          "type": "uint256"
        }
      ],
      "payable": false,
      "stateMutability": "view",
      "type": "function",
      "signature": "0x29a081ac"
    },
    {
      "constant": true,
      "inputs": [
        {
          "name": "",
          "type": "address"
        },
        {
          "name": "",
          "type": "uint32"
        }
      ],
      "name": "exitLeafs",
      "outputs": [
        {
          "name": "nextID",
          "type": "uint32"
        },
        {
          "name": "amount",
          "type": "uint128"
        }
      ],
      "payable": false,
      "stateMutability": "view",
      "type": "function",
      "signature": "0x2ad67a96"
    },
    {
      "constant": true,
      "inputs": [
        {
          "name": "value",
          "type": "uint256"
        }
      ],
      "name": "scaleIntoPlasmaUnitsFromWei",
      "outputs": [
        {
          "name": "",
          "type": "uint128"
        }
      ],
      "payable": false,
      "stateMutability": "pure",
      "type": "function",
      "signature": "0x2c87c6c9"
    },
    {
      "constant": true,
      "inputs": [],
      "name": "DEPOSIT_BATCH_SIZE",
      "outputs": [
        {
          "name": "",
          "type": "uint256"
        }
      ],
      "payable": false,
      "stateMutability": "view",
      "type": "function",
      "signature": "0x351eb751"
    },
    {
      "constant": true,
      "inputs": [],
      "name": "MAX_DELAY",
      "outputs": [
        {
          "name": "",
          "type": "uint64"
        }
      ],
      "payable": false,
      "stateMutability": "view",
      "type": "function",
      "signature": "0x4125ff90"
    },
    {
      "constant": true,
      "inputs": [],
      "name": "lastCommittedExitBatch",
      "outputs": [
        {
          "name": "",
          "type": "uint256"
        }
      ],
      "payable": false,
      "stateMutability": "view",
      "type": "function",
      "signature": "0x4c5ff682"
    },
    {
      "constant": true,
      "inputs": [
        {
          "name": "",
          "type": "uint256"
        },
        {
          "name": "",
          "type": "uint24"
        }
      ],
      "name": "depositRequests",
      "outputs": [
        {
          "name": "amount",
          "type": "uint128"
        }
      ],
      "payable": false,
      "stateMutability": "view",
      "type": "function",
      "signature": "0x5300e410"
    },
    {
      "constant": true,
      "inputs": [],
      "name": "currentExitBatchFee",
      "outputs": [
        {
          "name": "",
          "type": "uint128"
        }
      ],
      "payable": false,
      "stateMutability": "view",
      "type": "function",
      "signature": "0x57d2ae24"
    },
    {
      "constant": true,
      "inputs": [
        {
          "name": "",
          "type": "uint32"
        }
      ],
      "name": "blocks",
      "outputs": [
        {
          "name": "circuit",
          "type": "uint8"
        },
        {
          "name": "deadline",
          "type": "uint64"
        },
        {
          "name": "totalFees",
          "type": "uint128"
        },
        {
          "name": "newRoot",
          "type": "bytes32"
        },
        {
          "name": "publicDataCommitment",
          "type": "bytes32"
        },
        {
          "name": "prover",
          "type": "address"
        }
      ],
      "payable": false,
      "stateMutability": "view",
      "type": "function",
      "signature": "0x5cd0783e"
    },
    {
      "constant": true,
      "inputs": [],
      "name": "lastVerifiedDepositBatch",
      "outputs": [
        {
          "name": "",
          "type": "uint256"
        }
      ],
      "payable": false,
      "stateMutability": "view",
      "type": "function",
      "signature": "0x63d078aa"
    },
    {
      "constant": true,
      "inputs": [],
      "name": "TRANSFER_BLOCK_SIZE",
      "outputs": [
        {
          "name": "",
          "type": "uint256"
        }
      ],
      "payable": false,
      "stateMutability": "view",
      "type": "function",
      "signature": "0x69935b69"
    },
    {
      "constant": true,
      "inputs": [],
      "name": "stopped",
      "outputs": [
        {
          "name": "",
          "type": "bool"
        }
      ],
      "payable": false,
      "stateMutability": "view",
      "type": "function",
      "signature": "0x75f12b21"
    },
    {
      "constant": true,
      "inputs": [
        {
          "name": "",
          "type": "uint24"
        }
      ],
      "name": "accounts",
      "outputs": [
        {
          "name": "state",
          "type": "uint8"
        },
        {
          "name": "exitBatchNumber",
          "type": "uint32"
        },
        {
          "name": "owner",
          "type": "address"
        },
        {
          "name": "publicKey",
          "type": "uint256"
        },
        {
          "name": "exitListHead",
          "type": "uint32"
        },
        {
          "name": "exitListTail",
          "type": "uint32"
        }
      ],
      "payable": false,
      "stateMutability": "view",
      "type": "function",
      "signature": "0x7dc38ab9"
    },
    {
      "constant": true,
      "inputs": [],
      "name": "lastCommittedBlockNumber",
      "outputs": [
        {
          "name": "",
          "type": "uint32"
        }
      ],
      "payable": false,
      "stateMutability": "view",
      "type": "function",
      "signature": "0x838e2049"
    },
    {
      "constant": true,
      "inputs": [
        {
          "name": "",
          "type": "address"
        }
      ],
      "name": "ethereumAddressToAccountID",
      "outputs": [
        {
          "name": "",
          "type": "uint24"
        }
      ],
      "payable": false,
      "stateMutability": "view",
      "type": "function",
      "signature": "0x8512153f"
    },
    {
      "constant": true,
      "inputs": [],
      "name": "transactor",
      "outputs": [
        {
          "name": "",
          "type": "address"
        }
      ],
      "payable": false,
      "stateMutability": "view",
      "type": "function",
      "signature": "0x8ecb72d1"
    },
    {
      "constant": true,
      "inputs": [],
      "name": "DENOMINATOR",
      "outputs": [
        {
          "name": "",
          "type": "uint256"
        }
      ],
      "payable": false,
      "stateMutability": "view",
      "type": "function",
      "signature": "0x918f8674"
    },
    {
      "constant": true,
      "inputs": [
        {
          "name": "",
          "type": "uint256"
        }
      ],
      "name": "exitBatches",
      "outputs": [
        {
          "name": "state",
          "type": "uint8"
        },
        {
          "name": "blockNumber",
          "type": "uint32"
        },
        {
          "name": "timestamp",
          "type": "uint64"
        },
        {
          "name": "batchFee",
          "type": "uint128"
        }
      ],
      "payable": false,
      "stateMutability": "view",
      "type": "function",
      "signature": "0x9d9c9419"
    },
    {
      "constant": true,
      "inputs": [],
      "name": "DEADLINE",
      "outputs": [
        {
          "name": "",
          "type": "uint256"
        }
      ],
      "payable": false,
      "stateMutability": "view",
      "type": "function",
      "signature": "0xa082c86e"
    },
    {
      "constant": true,
      "inputs": [],
      "name": "currentDepositBatchFee",
      "outputs": [
        {
          "name": "",
          "type": "uint128"
        }
      ],
      "payable": false,
      "stateMutability": "view",
      "type": "function",
      "signature": "0xa15ff0c3"
    },
    {
      "constant": true,
      "inputs": [
        {
          "name": "value",
          "type": "uint128"
        }
      ],
      "name": "scaleFromPlasmaUnitsIntoWei",
      "outputs": [
        {
          "name": "",
          "type": "uint256"
        }
      ],
      "payable": false,
      "stateMutability": "pure",
      "type": "function",
      "signature": "0xa315c91b"
    },
    {
      "constant": true,
      "inputs": [],
      "name": "SPECIAL_ACCOUNT_DEPOSITS",
      "outputs": [
        {
          "name": "",
          "type": "uint24"
        }
      ],
      "payable": false,
      "stateMutability": "view",
      "type": "function",
      "signature": "0xcd7543c0"
    },
    {
      "constant": true,
      "inputs": [],
      "name": "lastVerifiedExitBatch",
      "outputs": [
        {
          "name": "",
          "type": "uint256"
        }
      ],
      "payable": false,
      "stateMutability": "view",
      "type": "function",
      "signature": "0xed03f563"
    },
    {
      "constant": true,
      "inputs": [],
      "name": "nextAccountToRegister",
      "outputs": [
        {
          "name": "",
          "type": "uint24"
        }
      ],
      "payable": false,
      "stateMutability": "view",
      "type": "function",
      "signature": "0xf47932ad"
    },
    {
      "constant": true,
      "inputs": [],
      "name": "lastVerifiedBlockNumber",
      "outputs": [
        {
          "name": "",
          "type": "uint32"
        }
      ],
      "payable": false,
      "stateMutability": "view",
      "type": "function",
      "signature": "0xf4c163a4"
    },
    {
      "constant": true,
      "inputs": [
        {
          "name": "",
          "type": "uint256"
        }
      ],
      "name": "depositBatches",
      "outputs": [
        {
          "name": "state",
          "type": "uint8"
        },
        {
          "name": "numRequests",
          "type": "uint24"
        },
        {
          "name": "blockNumber",
          "type": "uint32"
        },
        {
          "name": "timestamp",
          "type": "uint64"
        },
        {
          "name": "batchFee",
          "type": "uint128"
        }
      ],
      "payable": false,
      "stateMutability": "view",
      "type": "function",
      "signature": "0xfb0cd20f"
    },
    {
      "constant": true,
      "inputs": [],
      "name": "lastCommittedDepositBatch",
      "outputs": [
        {
          "name": "",
          "type": "uint256"
        }
      ],
      "payable": false,
      "stateMutability": "view",
      "type": "function",
      "signature": "0xfb1d5010"
    },
    {
      "anonymous": false,
      "inputs": [
        {
          "indexed": true,
          "name": "blockNumber",
          "type": "uint32"
        }
      ],
      "name": "BlockCommitted",
      "type": "event",
      "signature": "0xdf39762be389bd636a9efb2e4f3b26ac7d22eda4f0840f389209987a09e50fc9"
    },
    {
      "anonymous": false,
      "inputs": [
        {
          "indexed": true,
          "name": "blockNumber",
          "type": "uint32"
        }
      ],
      "name": "BlockVerified",
      "type": "event",
      "signature": "0xca558d7524956f89ce1ec833efe8a265ed2b1e92b20ff4fe2fb87fb1a042e524"
    },
    {
      "anonymous": false,
      "inputs": [
        {
          "indexed": true,
          "name": "batchNumber",
          "type": "uint256"
        },
        {
          "indexed": true,
          "name": "accountID",
          "type": "uint24"
        },
        {
          "indexed": true,
          "name": "publicKey",
          "type": "uint256"
        },
        {
          "indexed": false,
          "name": "amount",
          "type": "uint128"
        }
      ],
      "name": "LogDepositRequest",
      "type": "event",
      "signature": "0x77576c82d939ce0a49902463e0dd51c0257e560ff4f55a51a702af4ed7691266"
    },
    {
      "anonymous": false,
      "inputs": [
        {
          "indexed": true,
          "name": "batchNumber",
          "type": "uint256"
        },
        {
          "indexed": true,
          "name": "accountID",
          "type": "uint24"
        }
      ],
      "name": "LogCancelDepositRequest",
      "type": "event",
      "signature": "0xd99f8eb80f2e84189fe41fb9bed3506f73da9be70a0df39e2b4a997e92dbd61a"
    },
    {
      "anonymous": false,
      "inputs": [
        {
          "indexed": true,
          "name": "batchNumber",
          "type": "uint256"
        },
        {
          "indexed": true,
          "name": "accountID",
          "type": "uint24"
        }
      ],
      "name": "LogExitRequest",
      "type": "event",
      "signature": "0x236e3f00e03d1484fd608958ad56082729315788fd4541cc50b5cdac4bce07f0"
    },
    {
      "anonymous": false,
      "inputs": [
        {
          "indexed": true,
          "name": "batchNumber",
          "type": "uint256"
        },
        {
          "indexed": true,
          "name": "accountID",
          "type": "uint24"
        }
      ],
      "name": "LogCancelExitRequest",
      "type": "event",
      "signature": "0x09754f168d20bdac07b81b649e49ed48fe35f1a08ea551c1ae0366f324d6a3b4"
    },
    {
      "anonymous": false,
      "inputs": [
        {
          "indexed": true,
          "name": "ethereumAddress",
          "type": "address"
        },
        {
          "indexed": true,
          "name": "blockNumber",
          "type": "uint32"
        }
      ],
      "name": "LogExit",
      "type": "event",
      "signature": "0x6030852c9631bc119530851caef56a18b04441ffde1a59c38e046ea25d001e78"
    },
    {
      "anonymous": false,
      "inputs": [
        {
          "indexed": true,
          "name": "ethereumAddress",
          "type": "address"
        },
        {
          "indexed": true,
          "name": "blockNumber",
          "type": "uint32"
        },
        {
          "indexed": false,
          "name": "accountID",
          "type": "uint24"
        }
      ],
      "name": "LogCompleteExit",
      "type": "event",
      "signature": "0xbd4f8ad55cac8b7705cb6fbc17b28e416d8e82c39b33e21cc95965d23fc906e6"
    },
    {
      "constant": false,
      "inputs": [],
      "name": "exit",
      "outputs": [],
      "payable": true,
      "stateMutability": "payable",
      "type": "function",
      "signature": "0xe9fad8ee"
    },
    {
      "constant": false,
      "inputs": [],
      "name": "cancelExit",
      "outputs": [],
      "payable": false,
      "stateMutability": "nonpayable",
      "type": "function",
      "signature": "0xfdf364e4"
    },
    {
      "constant": false,
      "inputs": [],
      "name": "startNextExitBatch",
      "outputs": [],
      "payable": false,
      "stateMutability": "nonpayable",
      "type": "function",
      "signature": "0xfeeeaa53"
    },
    {
      "constant": false,
      "inputs": [
        {
          "name": "newBatchFee",
          "type": "uint128"
        }
      ],
      "name": "changeExitBatchFee",
      "outputs": [],
      "payable": false,
      "stateMutability": "nonpayable",
      "type": "function",
      "signature": "0x0a05e9b6"
    },
    {
      "constant": true,
      "inputs": [
        {
          "name": "blockNumber",
          "type": "uint32"
        },
        {
          "name": "txDataPacked",
          "type": "bytes"
        }
      ],
      "name": "createPublicDataCommitmentForExit",
      "outputs": [
        {
          "name": "h",
          "type": "bytes32"
        }
      ],
      "payable": false,
      "stateMutability": "pure",
      "type": "function",
      "signature": "0x8756c9be"
    },
    {
      "constant": false,
      "inputs": [
        {
          "name": "batchNumber",
          "type": "uint256"
        },
        {
          "name": "accoundIDs",
          "type": "uint24[1]"
        },
        {
          "name": "blockNumber",
          "type": "uint32"
        },
        {
          "name": "txDataPacked",
          "type": "bytes"
        },
        {
          "name": "newRoot",
          "type": "bytes32"
        }
      ],
      "name": "commitExitBlock",
      "outputs": [],
      "payable": false,
      "stateMutability": "nonpayable",
      "type": "function",
      "signature": "0x79b2ad70"
    },
    {
      "constant": false,
      "inputs": [
        {
          "name": "batchNumber",
          "type": "uint256"
        },
        {
          "name": "blockNumber",
          "type": "uint32"
        },
        {
          "name": "proof",
          "type": "uint256[8]"
        }
      ],
      "name": "verifyExitBlock",
      "outputs": [],
      "payable": false,
      "stateMutability": "nonpayable",
      "type": "function",
      "signature": "0x2e94523e"
    },
    {
      "constant": false,
      "inputs": [
        {
          "name": "iterationsLimit",
          "type": "uint256"
        }
      ],
      "name": "withdrawUserBalance",
      "outputs": [],
      "payable": false,
      "stateMutability": "nonpayable",
      "type": "function",
      "signature": "0xabc3cf05"
    }
  ],
  "bytecode": "0x608060405234801561001057600080fd5b5061554b806100206000396000f3006080604052600436106101f9576000357c0100000000000000000000000000000000000000000000000000000000900463ffffffff16806309b7f497146101fe5780630a05e9b61461023157806313e7c9d8146102705780631e8072a2146102cb578063254e88e2146103005780632713ad691461032b57806327e235e31461038257806329a081ac146103d95780632ad67a96146104045780632c87c6c9146104a25780632e94523e14610507578063351eb751146105745780634125ff901461059f5780634c5ff682146105de5780635300e4101461060957806357d2ae241461067d5780635cd0783e146106cc57806363d078aa146107b057806369935b69146107db57806375f12b211461080657806379b2ad70146108355780637dc38ab9146108f5578063838e2049146109b45780638512153f146109eb5780638756c9be14610a4c5780638ecb72d114610ae1578063918f867414610b385780639d9c941914610b63578063a082c86e14610c03578063a15ff0c314610c2e578063a315c91b14610c7d578063abc3cf0514610cd0578063cd7543c014610cfd578063e9fad8ee14610d32578063ed03f56314610d3c578063f47932ad14610d67578063f4c163a414610d9c578063fb0cd20f14610dd3578063fb1d501014610e84578063fdf364e414610eaf578063feeeaa5314610ec6575b600080fd5b34801561020a57600080fd5b50610213610edd565b60405180826000191660001916815260200191505060405180910390f35b34801561023d57600080fd5b5061026e60048036038101908080356fffffffffffffffffffffffffffffffff169060200190929190505050610ee3565b005b34801561027c57600080fd5b506102b1600480360381019080803573ffffffffffffffffffffffffffffffffffffffff169060200190929190505050611171565b604051808215151515815260200191505060405180910390f35b3480156102d757600080fd5b506102e0611191565b604051808262ffffff1662ffffff16815260200191505060405180910390f35b34801561030c57600080fd5b50610315611196565b6040518082815260200191505060405180910390f35b34801561033757600080fd5b5061034061119c565b604051808273ffffffffffffffffffffffffffffffffffffffff1673ffffffffffffffffffffffffffffffffffffffff16815260200191505060405180910390f35b34801561038e57600080fd5b506103c3600480360381019080803573ffffffffffffffffffffffffffffffffffffffff1690602001909291905050506111c2565b6040518082815260200191505060405180910390f35b3480156103e557600080fd5b506103ee6111da565b6040518082815260200191505060405180910390f35b34801561041057600080fd5b50610455600480360381019080803573ffffffffffffffffffffffffffffffffffffffff169060200190929190803563ffffffff1690602001909291905050506111e0565b604051808363ffffffff1663ffffffff168152602001826fffffffffffffffffffffffffffffffff166fffffffffffffffffffffffffffffffff1681526020019250505060405180910390f35b3480156104ae57600080fd5b506104cd6004803603810190808035906020019092919050505061123d565b60405180826fffffffffffffffffffffffffffffffff166fffffffffffffffffffffffffffffffff16815260200191505060405180910390f35b34801561051357600080fd5b5061057260048036038101908080359060200190929190803563ffffffff16906020019092919080610100019060088060200260405190810160405280929190826008602002808284378201915050505050919291929050505061138a565b005b34801561058057600080fd5b50610589611982565b6040518082815260200191505060405180910390f35b3480156105ab57600080fd5b506105b4611987565b604051808267ffffffffffffffff1667ffffffffffffffff16815260200191505060405180910390f35b3480156105ea57600080fd5b506105f361198e565b6040518082815260200191505060405180910390f35b34801561061557600080fd5b5061064360048036038101908080359060200190929190803562ffffff169060200190929190505050611994565b60405180826fffffffffffffffffffffffffffffffff166fffffffffffffffffffffffffffffffff16815260200191505060405180910390f35b34801561068957600080fd5b506106926119db565b60405180826fffffffffffffffffffffffffffffffff166fffffffffffffffffffffffffffffffff16815260200191505060405180910390f35b3480156106d857600080fd5b506106fd600480360381019080803563ffffffff1690602001909291905050506119fd565b604051808760ff1660ff1681526020018667ffffffffffffffff1667ffffffffffffffff168152602001856fffffffffffffffffffffffffffffffff166fffffffffffffffffffffffffffffffff168152602001846000191660001916815260200183600019166000191681526020018273ffffffffffffffffffffffffffffffffffffffff1673ffffffffffffffffffffffffffffffffffffffff168152602001965050505050505060405180910390f35b3480156107bc57600080fd5b506107c5611a96565b6040518082815260200191505060405180910390f35b3480156107e757600080fd5b506107f0611a9c565b6040518082815260200191505060405180910390f35b34801561081257600080fd5b5061081b611aa1565b604051808215151515815260200191505060405180910390f35b34801561084157600080fd5b506108f3600480360381019080803590602001909291908060200190600180602002604051908101604052809291908260016020028082843782019150505050509192919290803563ffffffff169060200190929190803590602001908201803590602001908080601f01602080910402602001604051908101604052809392919081815260200183838082843782019150505050505091929192908035600019169060200190929190505050611ab4565b005b34801561090157600080fd5b50610925600480360381019080803562ffffff169060200190929190505050611fa6565b604051808760ff1660ff1681526020018663ffffffff1663ffffffff1681526020018573ffffffffffffffffffffffffffffffffffffffff1673ffffffffffffffffffffffffffffffffffffffff1681526020018481526020018363ffffffff1663ffffffff1681526020018263ffffffff1663ffffffff168152602001965050505050505060405180910390f35b3480156109c057600080fd5b506109c961203f565b604051808263ffffffff1663ffffffff16815260200191505060405180910390f35b3480156109f757600080fd5b50610a2c600480360381019080803573ffffffffffffffffffffffffffffffffffffffff169060200190929190505050612055565b604051808262ffffff1662ffffff16815260200191505060405180910390f35b348015610a5857600080fd5b50610ac3600480360381019080803563ffffffff169060200190929190803590602001908201803590602001908080601f0160208091040260200160405190810160405280939291908181526020018383808284378201915050505050509192919290505050612077565b60405180826000191660001916815260200191505060405180910390f35b348015610aed57600080fd5b50610af6612270565b604051808273ffffffffffffffffffffffffffffffffffffffff1673ffffffffffffffffffffffffffffffffffffffff16815260200191505060405180910390f35b348015610b4457600080fd5b50610b4d612296565b6040518082815260200191505060405180910390f35b348015610b6f57600080fd5b50610b8e6004803603810190808035906020019092919050505061229f565b604051808560ff1660ff1681526020018463ffffffff1663ffffffff1681526020018367ffffffffffffffff1667ffffffffffffffff168152602001826fffffffffffffffffffffffffffffffff166fffffffffffffffffffffffffffffffff16815260200194505050505060405180910390f35b348015610c0f57600080fd5b50610c1861231c565b6040518082815260200191505060405180910390f35b348015610c3a57600080fd5b50610c43612322565b60405180826fffffffffffffffffffffffffffffffff166fffffffffffffffffffffffffffffffff16815260200191505060405180910390f35b348015610c8957600080fd5b50610cba60048036038101908080356fffffffffffffffffffffffffffffffff169060200190929190505050612344565b6040518082815260200191505060405180910390f35b348015610cdc57600080fd5b50610cfb60048036038101908080359060200190929190505050612367565b005b348015610d0957600080fd5b50610d12612a23565b604051808262ffffff1662ffffff16815260200191505060405180910390f35b610d3a612a28565b005b348015610d4857600080fd5b50610d51612e60565b6040518082815260200191505060405180910390f35b348015610d7357600080fd5b50610d7c612e66565b604051808262ffffff1662ffffff16815260200191505060405180910390f35b348015610da857600080fd5b50610db1612e7b565b604051808263ffffffff1663ffffffff16815260200191505060405180910390f35b348015610ddf57600080fd5b50610dfe60048036038101908080359060200190929190505050612e90565b604051808660ff1660ff1681526020018562ffffff1662ffffff1681526020018463ffffffff1663ffffffff1681526020018367ffffffffffffffff1667ffffffffffffffff168152602001826fffffffffffffffffffffffffffffffff166fffffffffffffffffffffffffffffffff1681526020019550505050505060405180910390f35b348015610e9057600080fd5b50610e99612f22565b6040518082815260200191505060405180910390f35b348015610ebb57600080fd5b50610ec4612f28565b005b348015610ed257600080fd5b50610edb613303565b005b60065481565b60011515600160003373ffffffffffffffffffffffffffffffffffffffff1673ffffffffffffffffffffffffffffffffffffffff16815260200190815260200160002060009054906101000a900460ff161515141515610fd1576040517f08c379a00000000000000000000000000000000000000000000000000000000081526004018080602001828103825260258152602001807f73656e6465722073686f756c64206265206f6e65206f6620746865206f70657281526020017f61746f727300000000000000000000000000000000000000000000000000000081525060400191505060405180910390fd5b6000601060009054906101000a90046fffffffffffffffffffffffffffffffff166fffffffffffffffffffffffffffffffff161415611078576040517f08c379a00000000000000000000000000000000000000000000000000000000081526004018080602001828103825260198152602001807f66656520697320616c7265616479206174206d696e696d756d0000000000000081525060200191505060405180910390fd5b601060009054906101000a90046fffffffffffffffffffffffffffffffff166fffffffffffffffffffffffffffffffff16816fffffffffffffffffffffffffffffffff1610156111005780601060006101000a8154816fffffffffffffffffffffffffffffffff02191690836fffffffffffffffffffffffffffffffff16021790555061116e565b6040517f08c379a000000000000000000000000000000000000000000000000000000000815260040180806020018281038252601c8152602001807f63616e206e6f7420696e63726561736520616e2065786974206665650000000081525060200191505060405180910390fd5b50565b60016020528060005260406000206000915054906101000a900460ff1681565b600081565b60075481565b601460009054906101000a900473ffffffffffffffffffffffffffffffffffffffff1681565b60026020528060005260406000206000915090505481565b600d5481565b6012602052816000526040600020602052806000526040600020600091509150508060000160009054906101000a900463ffffffff16908060000160049054906101000a90046fffffffffffffffffffffffffffffffff16905082565b600080600064e8d4a5100091506000828581151561125757fe5b061415156112f3576040517f08c379a00000000000000000000000000000000000000000000000000000000081526004018080602001828103825260298152602001807f616d6f756e74206861732068696768657220707265636973696f6e207468616e81526020017f20706f737369626c65000000000000000000000000000000000000000000000081525060400191505060405180910390fd5b81848115156112fe57fe5b049050608060019060020a0281101515611380576040517f08c379a000000000000000000000000000000000000000000000000000000000815260040180806020018281038252601a8152602001807f6465706f73697420616d6f756e7420697320746f6f206869676800000000000081525060200191505060405180910390fd5b8092505050919050565b600080600060011515600160003373ffffffffffffffffffffffffffffffffffffffff1673ffffffffffffffffffffffffffffffffffffffff16815260200190815260200160002060009054906101000a900460ff16151514151561147d576040517f08c379a00000000000000000000000000000000000000000000000000000000081526004018080602001828103825260258152602001807f73656e6465722073686f756c64206265206f6e65206f6620746865206f70657281526020017f61746f727300000000000000000000000000000000000000000000000000000081525060400191505060405180910390fd5b600560019054906101000a900463ffffffff1663ffffffff166005809054906101000a900463ffffffff1663ffffffff16101515611523576040517f08c379a000000000000000000000000000000000000000000000000000000000815260040180806020018281038252601c8152602001807f6e6f20636f6d6d697474656420626c6f636b20746f207665726966790000000081525060200191505060405180910390fd5b60016005809054906101000a900463ffffffff160163ffffffff168563ffffffff161415156115ba576040517f08c379a000000000000000000000000000000000000000000000000000000000815260040180806020018281038252601a8152602001807f6d6179206f6e6c7920766572696679206e65787420626c6f636b00000000000081525060200191505060405180910390fd5b600f5486141515611659576040517f08c379a00000000000000000000000000000000000000000000000000000000081526004018080602001828103825260228152602001807f747279696e6720746f2070726f7665206261746368206f7574206f66206f726481526020017f657200000000000000000000000000000000000000000000000000000000000081525060400191505060405180910390fd5b6000808663ffffffff1663ffffffff168152602001908152602001600020925060028081111561168557fe5b60ff168360000160009054906101000a900460ff1660ff16141515611738576040517f08c379a00000000000000000000000000000000000000000000000000000000081526004018080602001828103825260398152602001807f747279696e6720746f2070726f76652074686520696e76616c6964206369726381526020017f75697420666f72207468697320626c6f636b206e756d6265720000000000000081525060400191505060405180910390fd5b6011600087815260200190815260200160002091508463ffffffff168260000160019054906101000a900463ffffffff1663ffffffff1614151561180a576040517f08c379a00000000000000000000000000000000000000000000000000000000081526004018080602001828103825260308152602001807f626c6f636b206e756d62657220696e207265666572656e63696e6720696e766181526020017f6c6964206261746368206e756d6265720000000000000000000000000000000081525060400191505060405180910390fd5b60028081111561181657fe5b8260000160006101000a81548160ff021916908360ff160217905550428260000160056101000a81548167ffffffffffffffff021916908367ffffffffffffffff160217905550611875600285600654866001015487600201546134c9565b90508015156118ec576040517f08c379a000000000000000000000000000000000000000000000000000000000815260040180806020018281038252600d8152602001807f696e76616c69642070726f6f660000000000000000000000000000000000000081525060200191505060405180910390fd5b8463ffffffff167fca558d7524956f89ce1ec833efe8a265ed2b1e92b20ff4fe2fb87fb1a042e52460405160405180910390a260058081819054906101000a900463ffffffff168092919060010191906101000a81548163ffffffff021916908363ffffffff16021790555050600f60008154809291906001019190505550826001015460068160001916905550505050505050565b600181565b6201518081565b600e5481565b600b602052816000526040600020602052806000526040600020600091509150508060000160009054906101000a90046fffffffffffffffffffffffffffffffff16905081565b601060009054906101000a90046fffffffffffffffffffffffffffffffff1681565b60006020528060005260406000206000915090508060000160009054906101000a900460ff16908060000160019054906101000a900467ffffffffffffffff16908060000160099054906101000a90046fffffffffffffffffffffffffffffffff16908060010154908060020154908060030160009054906101000a900473ffffffffffffffffffffffffffffffffffffffff16905086565b60095481565b608081565b600560009054906101000a900460ff1681565b60008060011515600160003373ffffffffffffffffffffffffffffffffffffffff1673ffffffffffffffffffffffffffffffffffffffff16815260200190815260200160002060009054906101000a900460ff161515141515611ba5576040517f08c379a00000000000000000000000000000000000000000000000000000000081526004018080602001828103825260258152602001807f73656e6465722073686f756c64206265206f6e65206f6620746865206f70657281526020017f61746f727300000000000000000000000000000000000000000000000000000081525060400191505060405180910390fd5b6001600560019054906101000a900463ffffffff160163ffffffff168563ffffffff16141515611c3d576040517f08c379a000000000000000000000000000000000000000000000000000000000815260040180806020018281038252601a8152602001807f6d6179206f6e6c7920636f6d6d6974206e65787420626c6f636b00000000000081525060200191505060405180910390fd5b600e5487141515611cdc576040517f08c379a00000000000000000000000000000000000000000000000000000000081526004018080602001828103825260238152602001807f747279696e6720746f20636f6d6d6974206261746368206f7574206f66206f7281526020017f646572000000000000000000000000000000000000000000000000000000000081525060400191505060405180910390fd5b60116000888152602001908152602001600020915060016002811115611cfe57fe5b8260000160006101000a81548160ff021916908360ff160217905550848260000160016101000a81548163ffffffff021916908363ffffffff160217905550428260000160056101000a81548167ffffffffffffffff021916908367ffffffffffffffff160217905550611d728585612077565b905060c060405190810160405280600280811115611d8c57fe5b60ff1681526020016201518067ffffffffffffffff16420167ffffffffffffffff16815260200160006fffffffffffffffffffffffffffffffff16815260200184600019168152602001826000191681526020013373ffffffffffffffffffffffffffffffffffffffff168152506000808763ffffffff1663ffffffff16815260200190815260200160002060008201518160000160006101000a81548160ff021916908360ff16021790555060208201518160000160016101000a81548167ffffffffffffffff021916908367ffffffffffffffff16021790555060408201518160000160096101000a8154816fffffffffffffffffffffffffffffffff02191690836fffffffffffffffffffffffffffffffff160217905550606082015181600101906000191690556080820151816002019060001916905560a08201518160030160006101000a81548173ffffffffffffffffffffffffffffffffffffffff021916908373ffffffffffffffffffffffffffffffffffffffff1602179055509050508463ffffffff167fdf39762be389bd636a9efb2e4f3b26ac7d22eda4f0840f389209987a09e50fc960405160405180910390a26005600181819054906101000a900463ffffffff168092919060010191906101000a81548163ffffffff021916908363ffffffff16021790555050600e60008154809291906001019190505550611f9d87868887613641565b50505050505050565b60046020528060005260406000206000915090508060000160009054906101000a900460ff16908060000160019054906101000a900463ffffffff16908060000160059054906101000a900473ffffffffffffffffffffffffffffffffffffffff16908060010154908060020160009054906101000a900463ffffffff16908060020160049054906101000a900463ffffffff16905086565b600560019054906101000a900463ffffffff1681565b60036020528060005260406000206000915054906101000a900462ffffff1681565b600080600060028563ffffffff16604051602001808281526020019150506040516020818303038152906040526040518082805190602001908083835b6020831015156120d957805182526020820191506020810190506020830392506120b4565b6001836020036101000a0380198251168184511680821785525050505050509050019150506020604051808303816000865af115801561211d573d6000803e3d6000fd5b5050506040513d602081101561213257600080fd5b810190808051906020019092919050505091506002828560405160200180836000191660001916815260200182805190602001908083835b60208310151561218f578051825260208201915060208101905060208303925061216a565b6001836020036101000a038019825116818451168082178552505050505050905001925050506040516020818303038152906040526040518082805190602001908083835b6020831015156121f957805182526020820191506020810190506020830392506121d4565b6001836020036101000a0380198251168184511680821785525050505050509050019150506020604051808303816000865af115801561223d573d6000803e3d6000fd5b5050506040513d602081101561225257600080fd5b81019080805190602001909291905050509050809250505092915050565b601360009054906101000a900473ffffffffffffffffffffffffffffffffffffffff1681565b64e8d4a5100081565b60116020528060005260406000206000915090508060000160009054906101000a900460ff16908060000160019054906101000a900463ffffffff16908060000160059054906101000a900467ffffffffffffffff169080600001600d9054906101000a90046fffffffffffffffffffffffffffffffff16905084565b610e1081565b600a60009054906101000a90046fffffffffffffffffffffffffffffffff1681565b600064e8d4a51000826fffffffffffffffffffffffffffffffff16029050919050565b60008060008060008060008060008060008b1115156123ee576040517f08c379a000000000000000000000000000000000000000000000000000000000815260040180806020018281038252600c8152602001807f6d7573742069746572617465000000000000000000000000000000000000000081525060200191505060405180910390fd5b600360003373ffffffffffffffffffffffffffffffffffffffff1673ffffffffffffffffffffffffffffffffffffffff16815260200190815260200160002060009054906101000a900462ffffff16975060008862ffffff1614151515612509576040517f08c379a000000000000000000000000000000000000000000000000000000000815260040180806020018281038252604b8152602001807f746869732073686f756c64206e6f742068617070656e2061732065786974696e81526020017f672068617070656e73206f6e65206279206f6e6520756e74696c20746865206381526020017f6f6d706c657465206f6e6500000000000000000000000000000000000000000081525060600191505060405180910390fd5b600460008962ffffff1662ffffff16815260200190815260200160002096508660020160009054906101000a900463ffffffff169550859450600093505b8a841015612977576005809054906101000a900463ffffffff1663ffffffff168663ffffffff1611156125f05760008414156125eb576040517f08c379a00000000000000000000000000000000000000000000000000000000081526004018080602001828103825260128152602001807f6e6f7468696e6720746f2070726f63657373000000000000000000000000000081525060200191505060405180910390fd5b612a16565b601260003373ffffffffffffffffffffffffffffffffffffffff1673ffffffffffffffffffffffffffffffffffffffff16815260200190815260200160002060008763ffffffff1663ffffffff16815260200190815260200160002092506126778360000160049054906101000a90046fffffffffffffffffffffffffffffffff16612344565b9850888a0199508260000160009054906101000a900463ffffffff169450601260003373ffffffffffffffffffffffffffffffffffffffff1673ffffffffffffffffffffffffffffffffffffffff16815260200190815260200160002060008763ffffffff1663ffffffff168152602001908152602001600020600080820160006101000a81549063ffffffff02191690556000820160046101000a8154906fffffffffffffffffffffffffffffffff0219169055505060008563ffffffff16148015612765575060038081111561274b57fe5b60ff168760000160009054906101000a900460ff1660ff16145b15612953578660000160019054906101000a900463ffffffff1663ffffffff1691506011600083815260200190815260200160002090508060000160019054906101000a900463ffffffff1663ffffffff168663ffffffff16141515612859576040517f08c379a000000000000000000000000000000000000000000000000000000000815260040180806020018281038252603a8152602001807f6c617374206974656d20696e20746865206c6973742073686f756c64206d617481526020017f63682074686520636f6d706c657465206578697420626c6f636b00000000000081525060400191505060405180910390fd5b600460008962ffffff1662ffffff168152602001908152602001600020600080820160006101000a81549060ff02191690556000820160016101000a81549063ffffffff02191690556000820160056101000a81549073ffffffffffffffffffffffffffffffffffffffff021916905560018201600090556002820160006101000a81549063ffffffff02191690556002820160046101000a81549063ffffffff02191690555050600360003373ffffffffffffffffffffffffffffffffffffffff1673ffffffffffffffffffffffffffffffffffffffff16815260200190815260200160002060006101000a81549062ffffff02191690555b60008563ffffffff16141561296757612977565b8495508380600101945050612547565b848760020160006101000a81548163ffffffff021916908363ffffffff16021790555060008563ffffffff1614156129ce5760008760020160046101000a81548163ffffffff021916908363ffffffff1602179055505b3373ffffffffffffffffffffffffffffffffffffffff166108fc8b9081150290604051600060405180830381858888f19350505050158015612a14573d6000803e3d6000fd5b505b5050505050505050505050565b600181565b6000806000806000612a393461123d565b9450601060009054906101000a90046fffffffffffffffffffffffffffffffff166fffffffffffffffffffffffffffffffff16856fffffffffffffffffffffffffffffffff1610151515612b1b576040517f08c379a00000000000000000000000000000000000000000000000000000000081526004018080602001828103825260358152602001807f65786974206665652073686f756c64206265206d6f7265207468616e2072657181526020017f756972656420627920746865206f70657261746f72000000000000000000000081525060400191505060405180910390fd5b600360003373ffffffffffffffffffffffffffffffffffffffff1673ffffffffffffffffffffffffffffffffffffffff16815260200190815260200160002060009054906101000a900462ffffff16935060008462ffffff1614151515612bea576040517f08c379a000000000000000000000000000000000000000000000000000000000815260040180806020018281038252601b8152602001807f656d707479206163636f756e74732063616e206e6f742065786974000000000081525060200191505060405180910390fd5b6001600d54811515612bf857fe5b04925060116000848152602001908152602001600020915060008260000160059054906101000a900467ffffffffffffffff1667ffffffffffffffff161415612ce95760006002811115612c4857fe5b8260000160006101000a81548160ff021916908360ff160217905550428260000160056101000a81548167ffffffffffffffff021916908367ffffffffffffffff160217905550601060009054906101000a90046fffffffffffffffffffffffffffffffff1682600001600d6101000a8154816fffffffffffffffffffffffffffffffff02191690836fffffffffffffffffffffffffffffffff1602179055505b600460008562ffffff1662ffffff168152602001908152602001600020905060016003811115612d1557fe5b60ff168160000160009054906101000a900460ff1660ff16141515612dc8576040517f08c379a000000000000000000000000000000000000000000000000000000000815260040180806020018281038252603f8152602001807f6f6e6c79206163636f756e74732074686174206172652072656769737465726581526020017f6420616e64206e6f742070656e64696e6720657869742063616e20657869740081525060400191505060405180910390fd5b60026003811115612dd557fe5b8160000160006101000a81548160ff021916908360ff160217905550828160000160016101000a81548163ffffffff021916908363ffffffff160217905550600d600081548092919060010191905055508362ffffff16837f236e3f00e03d1484fd608958ad56082729315788fd4541cc50b5cdac4bce07f060405160405180910390a35050505050565b600f5481565b600a60109054906101000a900462ffffff1681565b6005809054906101000a900463ffffffff1681565b600c6020528060005260406000206000915090508060000160009054906101000a900460ff16908060000160019054906101000a900462ffffff16908060000160049054906101000a900463ffffffff16908060000160089054906101000a900467ffffffffffffffff16908060000160109054906101000a90046fffffffffffffffffffffffffffffffff16905085565b60085481565b600080600080600360003373ffffffffffffffffffffffffffffffffffffffff1673ffffffffffffffffffffffffffffffffffffffff16815260200190815260200160002060009054906101000a900462ffffff16935060008462ffffff1614151515613023576040517f08c379a00000000000000000000000000000000000000000000000000000000081526004018080602001828103825260338152602001807f747279696e6720746f2063616e63656c2061206465706f73697420666f72206e81526020017f6f6e2d6578697374696e67206163636f756e740000000000000000000000000081525060400191505060405180910390fd5b6001600d5481151561303157fe5b0492506001600d5481151561304257fe5b06915060008214156130ce5760116000848152602001908152602001600020600080820160006101000a81549060ff02191690556000820160016101000a81549063ffffffff02191690556000820160056101000a81549067ffffffffffffffff021916905560008201600d6101000a8154906fffffffffffffffffffffffffffffffff021916905550505b600460008562ffffff1662ffffff1681526020019081526020016000209050600260038111156130fa57fe5b60ff168160000160009054906101000a900460ff1660ff161415156131ad576040517f08c379a00000000000000000000000000000000000000000000000000000000081526004018080602001828103825260388152602001807f63616e206f6e6c792063616e63656c20657869747320666f72206163636f756e81526020017f74732074686174206172652070656e64696e672065786974000000000000000081525060400191505060405180910390fd5b8263ffffffff168160000160019054906101000a900463ffffffff1663ffffffff1614151561326a576040517f08c379a000000000000000000000000000000000000000000000000000000000815260040180806020018281038252603d8152602001807f63616e206e6f742063616e63656c20616e206578697420696e2074686520626181526020017f74636820746861742077617320616c726561647920616363657074656400000081525060400191505060405180910390fd5b6001600381111561327757fe5b8160000160006101000a81548160ff021916908360ff16021790555060008160000160016101000a81548163ffffffff021916908363ffffffff1602179055508362ffffff16837f09754f168d20bdac07b81b649e49ed48fe35f1a08ea551c1ae0366f324d6a3b460405160405180910390a3600d600081548092919060019003919050555050505050565b60008060011515600160003373ffffffffffffffffffffffffffffffffffffffff1673ffffffffffffffffffffffffffffffffffffffff16815260200190815260200160002060009054906101000a900460ff1615151415156133f4576040517f08c379a00000000000000000000000000000000000000000000000000000000081526004018080602001828103825260258152602001807f73656e6465722073686f756c64206265206f6e65206f6620746865206f70657281526020017f61746f727300000000000000000000000000000000000000000000000000000081525060400191505060405180910390fd5b6001600d5481151561340257fe5b0491506001600d5481151561341357fe5b06905060008114151561343157600180830102600d819055506134c5565b6040517f08c379a000000000000000000000000000000000000000000000000000000000815260040180806020018281038252602b8152602001807f69742773206e6f74206e656365737361727920746f2062756d7020746865206281526020017f61746368206e756d62657200000000000000000000000000000000000000000081525060400191505060405180910390fd5b5050565b6000806134d461543c565b60608060036000199060020a90049350600060028111156134f157fe5b8a60028111156134fd57fe5b14156135185761350b613dea565b809350819450505061358a565b6001600281111561352557fe5b8a600281111561353157fe5b141561354c5761353f614339565b8093508194505050613589565b60028081111561355857fe5b8a600281111561356457fe5b141561357f57613572614888565b8093508194505050613588565b60009450613634565b5b5b60036040519080825280602002602001820160405280156135ba5781602001602082028038833980820191505090505b50905087600190048160008151811015156135d157fe5b906020019060200201818152505086600190048160018151811015156135f357fe5b90602001906020020181815250508386600190041681600281518110151561361757fe5b906020019060200201818152505061363183838b84614dd7565b94505b5050505095945050505050565b6000806000806000806000613654615460565b600060209750600093505b6001841015613ddb5760008b8560018110151561367857fe5b602002015162ffffff16141561368d57613dce565b60008414806136cc57508a600185036001811015156136a857fe5b602002015162ffffff168b856001811015156136c057fe5b602002015162ffffff16115b1515613766576040517f08c379a00000000000000000000000000000000000000000000000000000000081526004018080602001828103825260238152602001807f6163636f756e7449447320617265206e6f742070726f7065726c79206f72646581526020017f726564000000000000000000000000000000000000000000000000000000000081525060400191505060405180910390fd5b878a0151985060138801975060e8899060020a90048b8560018110151561378957fe5b602002015162ffffff16141515613808576040517f08c379a00000000000000000000000000000000000000000000000000000000081526004018080602001828103825260208152602001807f696e76616c6964206163636f756e7420494420696e20636f6d6d69746d656e7481525060200191505060405180910390fd5b600460008c8660018110151561381a57fe5b602002015162ffffff1662ffffff16815260200190815260200160002092506002600381111561384657fe5b60ff168360000160009054906101000a900460ff1660ff161415156138d3576040517f08c379a000000000000000000000000000000000000000000000000000000000815260040180806020018281038252601e8152602001807f746865726520776173206e6f207375636820657869742072657175657374000081525060200191505060405180910390fd5b8c63ffffffff168360000160019054906101000a900463ffffffff1663ffffffff16141515613990576040517f08c379a00000000000000000000000000000000000000000000000000000000081526004018080602001828103825260308152602001807f6163636f756e7420776173207265676973746572656420666f7220657869742081526020017f696e20616e6f746865722062617463680000000000000000000000000000000081525060400191505060405180910390fd5b608060188a9060020a029060020a900495508260020160049054906101000a900463ffffffff16945060008563ffffffff161415613b0a576040805190810160405280600063ffffffff168152602001876fffffffffffffffffffffffffffffffff16815250915081601260008560000160059054906101000a900473ffffffffffffffffffffffffffffffffffffffff1673ffffffffffffffffffffffffffffffffffffffff1673ffffffffffffffffffffffffffffffffffffffff16815260200190815260200160002060008e63ffffffff1663ffffffff16815260200190815260200160002060008201518160000160006101000a81548163ffffffff021916908363ffffffff16021790555060208201518160000160046101000a8154816fffffffffffffffffffffffffffffffff02191690836fffffffffffffffffffffffffffffffff1602179055509050508b8360020160046101000a81548163ffffffff021916908363ffffffff160217905550613ced565b601260008460000160059054906101000a900473ffffffffffffffffffffffffffffffffffffffff1673ffffffffffffffffffffffffffffffffffffffff1673ffffffffffffffffffffffffffffffffffffffff16815260200190815260200160002060008663ffffffff1663ffffffff16815260200190815260200160002090506040805190810160405280600063ffffffff168152602001876fffffffffffffffffffffffffffffffff1681525091508b8160000160006101000a81548163ffffffff021916908363ffffffff16021790555081601260008560000160059054906101000a900473ffffffffffffffffffffffffffffffffffffffff1673ffffffffffffffffffffffffffffffffffffffff1673ffffffffffffffffffffffffffffffffffffffff16815260200190815260200160002060008e63ffffffff1663ffffffff16815260200190815260200160002060008201518160000160006101000a81548163ffffffff021916908363ffffffff16021790555060208201518160000160046101000a8154816fffffffffffffffffffffffffffffffff02191690836fffffffffffffffffffffffffffffffff1602179055509050508b8360020160046101000a81548163ffffffff021916908363ffffffff1602179055505b60008360020160009054906101000a900463ffffffff1663ffffffff161415613d34578b8360020160006101000a81548163ffffffff021916908363ffffffff1602179055505b600380811115613d4057fe5b8360000160006101000a81548160ff021916908360ff1602179055508b63ffffffff168773ffffffffffffffffffffffffffffffffffffffff167fbd4f8ad55cac8b7705cb6fbc17b28e416d8e82c39b33e21cc95965d23fc906e68d87600181101515613da957fe5b6020020151604051808262ffffff1662ffffff16815260200191505060405180910390a35b838060010194505061365f565b50505050505050505050505050565b613df261543c565b60607f2806ceee6e1d1eb6f31ff675b92143dba13b3fbad614f843f5c3afd6568b205a826000600e81101515613e2457fe5b6020020181815250507f122808a613a8f598c4b867f4b2ff0d43f0bb6d88eeb8ee75eb6f24d359bbf8e0826001600e81101515613e5d57fe5b6020020181815250507f22448ceb94acf3cd1d15bcaa5b0fea9b93517c5845177e084089d9ee6d79ff50826002600e81101515613e9657fe5b6020020181815250507f031a214677d973a795d26219598bb0512ea0dc76e75dbce39cbc9d9b17a2cc8c826003600e81101515613ecf57fe5b6020020181815250507f0a9a3bef0fd1d79ae409f82733e8e462b75ff5f05bea6422066b95ca9e02c9dd826004600e81101515613f0857fe5b6020020181815250507f0c6fa2f476a8f04a57dbcb68e2425440062630c908d6e198c875d875130025e9826005600e81101515613f4157fe5b6020020181815250507f0ae5cc9692f99a91d35fe9abfd2e3786b3ad14b327d0fb9e51c514f0bd95959c826006600e81101515613f7a57fe5b6020020181815250507f1d3950dce5e030d612b1167e70c34ab4cf1d9c4320206047652747915ed67097826007600e81101515613fb357fe5b6020020181815250507f0a9138320c05f4c5d26da0bc8d508398b027cabffd4dd36fb65f29d9fa3cc3dd826008600e81101515613fec57fe5b6020020181815250507f2a5daa065c803df8f429e946f2c5700026c2d12dc172e192d270dc73fdc8cc39826009600e8110151561402557fe5b6020020181815250507f27863bde61126110d0d6f2f31947e2f63c3cdd6594caf3ec225babfa7afa4f2382600a600e8110151561405e57fe5b6020020181815250507f20fd57765a2d6a84f2bee03afefaf5bd42fb5804b8a5c0874762d19afafc1f4182600b600e8110151561409757fe5b6020020181815250507f0b451a37fed071dd2ae876826a32f4fe0a58d990c624cfde92096cc2b3fd4a0882600c600e811015156140d057fe5b6020020181815250507f2920445cbffbb49c761e20d864dccf560258c3cd7302773accaa7d78aa206ba982600d600e8110151561410957fe5b60200201818152505060086040519080825280602002602001820160405280156141425781602001602082028038833980820191505090505b5090507f2d8c931ff562a4d5a349685f6fdf2a30a0883e2cfcb8a27a642687a41189557781600081518110151561417557fe5b90602001906020020181815250507f2530d4a3fcaea9d34725f2f02100be77a511c2a507e084e6e379e068d4cde5598160018151811015156141b357fe5b90602001906020020181815250507f01e3781d1f0a0f6beac8e3aa47a8c509d80406326c5c4594aa04f4c0f9b0138a8160028151811015156141f157fe5b90602001906020020181815250507f235683ea39dc02e4919b9f99e14c927399f26c3c24935caf3d7f745377fd762981600381518110151561422f57fe5b90602001906020020181815250507f2fbf7af8adca023e9744087f7845cc19f2bdb9cbba20c57dc77edaa6115625fb81600481518110151561426d57fe5b90602001906020020181815250507f1c3ad616391a8022720659ceb30a65391117df3b0e501f0e19d99800fea0d6628160058151811015156142ab57fe5b90602001906020020181815250507f1bc9897f50972e9924dfcc9dc9c9104c50588c168b7e137526f9ab8cfdc624828160068151811015156142e957fe5b90602001906020020181815250507f04f9efe4f42e792c6abffbb1b5431a71f8b7712a3e65011f07c7bb348914d0d081600781518110151561432757fe5b90602001906020020181815250509091565b61434161543c565b60607f20fabca7a936d76e2de75f334d12408a85a3038b2c748e884a7d10b6c8e785ae826000600e8110151561437357fe5b6020020181815250507f05b7926cd85113320bdad329a22fa8a7bb13fee4e5ae784441c975f7be24b144826001600e811015156143ac57fe5b6020020181815250507f17f95798ad37dc5d5842e0a25085bb7091525e5a19a4e664c4325d43996733bb826002600e811015156143e557fe5b6020020181815250507f02943aa487fcc67df949c6e2481e6a61b992ce4ad6f5d92372f59b93d15c0d30826003600e8110151561441e57fe5b6020020181815250507f0131b8773666df90359fdbe663c451881a09b24df4564be75dd86ceb485bc16c826004600e8110151561445757fe5b6020020181815250507f091b92109b2c58ee59d43f1646b910e20203dcb95676b139509886a314e00806826005600e8110151561449057fe5b6020020181815250507f18d2e27fdde751997e5ac3146a828702404f47c56072d5fd9e628bd9d00b5aac826006600e811015156144c957fe5b6020020181815250507f0cf19a2bf4b4e09843df3cd201709e55ae3a5ff31d8b59cd89d7b6eb06b98703826007600e8110151561450257fe5b6020020181815250507f14eaf5b1216b2adc72b75a80df5c202eb16953605656165177035432a6f88b8f826008600e8110151561453b57fe5b6020020181815250507f0f19e2b9bb71cab73500652d5728fe94843dcef2e73a2fd97739f6e8fd83369a826009600e8110151561457457fe5b6020020181815250507f0135e689579dbf14165032a60d35c70c95fc8fcf56f16a5335c62ef49e4fdfc482600a600e811015156145ad57fe5b6020020181815250507f196c80c924953fae60eb1c57c03beed305ed22454b359ade4265a434f6aef11482600b600e811015156145e657fe5b6020020181815250507f0a282bf79f6d625029d9746a596c33e286ec52ba4fd14c87577b39cdbc656dbc82600c600e8110151561461f57fe5b6020020181815250507f216dd1c95ba7a7408e093cb8010c09addcb31e54d9ac23493341660ce3b9d74282600d600e8110151561465857fe5b60200201818152505060086040519080825280602002602001820160405280156146915781602001602082028038833980820191505090505b5090507f29c50e44a59741be3b553316fa0181329ec5275b046bb428eb3e041a1d6a40178160008151811015156146c457fe5b90602001906020020181815250507f1f799ade5130abbb234abfaa536226b602cd2e2e77c3afb5c6c29bb7835117b181600181518110151561470257fe5b90602001906020020181815250507f20ca58d0e2b5c393272802f45e7fef3d27efa2696c0be7bd7f31435b3403acbd81600281518110151561474057fe5b90602001906020020181815250507f2b7f914981d405bc613a0c2c3accb5ac825b900ddbef5b7689567e0ffdf8406081600381518110151561477e57fe5b90602001906020020181815250507f0be03143ab86092d0872260b1ed87202fd2816e0ddc15e4dda842688ff3f8bba8160048151811015156147bc57fe5b90602001906020020181815250507f1c4900581b3dc146c77b6bf15ceffd90ca3d34fd69b393ee562e8cc614decf918160058151811015156147fa57fe5b90602001906020020181815250507f1261a3e53a4815cb7237aa39113f0dd33d7464e80a317a1a35ed33a21705358481600681518110151561483857fe5b90602001906020020181815250507f17599c2506b56e759ba24bf30920525cfd12337392ed0cebc0b851a142802ca081600781518110151561487657fe5b90602001906020020181815250509091565b61489061543c565b60607f08730c8e1cbb3eb57ea2c4d8d5c48fc56aa910d331ef8723e74c9e5750fb943a826000600e811015156148c257fe5b6020020181815250507f29d8dc5dd6f9b1a692a37c4982faa894119b98dbc35fe5b0e20363ffce6c5fea826001600e811015156148fb57fe5b6020020181815250507f016411e5a45fa79352c47a455eeaddb12059d5bb5579487e8abb4ffd2f472c5a826002600e8110151561493457fe5b6020020181815250507f27084dc459b5dd6d1c60cccda8d78a80755ae23436dd44aca13d44962dea244a826003600e8110151561496d57fe5b6020020181815250507f16c4a816a173596179da516fcc694c68878da66042afe8c35f098742482ab0a0826004600e811015156149a657fe5b6020020181815250507f02318a621109b9e543cc09e7bcde9cfe15386429572fb31d08c88a42b418fe8e826005600e811015156149df57fe5b6020020181815250507f0f10cfbdfaf1753d7214d6d0f2644458bddd10ab5619d19e7e41ac709b30b3ef826006600e81101515614a1857fe5b6020020181815250507f21f68a12e4e0ce060910e1335703431d20ce5ac7109baa52e34423fdcc659c54826007600e81101515614a5157fe5b6020020181815250507f2c505db2e660d4ea4e6f41e0f3b921c8358d6b3bcedaaf8349f01fbf56b03d4f826008600e81101515614a8a57fe5b6020020181815250507f0733f6edbaef053203c0654afd9eea4b8909c88473b1f1aa72afdd5a4cded36e826009600e81101515614ac357fe5b6020020181815250507f1a4c2e2c731b7de65f7b0cad686b5c7964fe162741385a33c72b08c903791e2982600a600e81101515614afc57fe5b6020020181815250507f1efc25b88bfac326220c61f7ab065be1c77af7b74f67f63262c2e66613eebdac82600b600e81101515614b3557fe5b6020020181815250507f264f4171cfa70441d121f28ce3c8186fa9011a9a2611ce7c920cba0d8cb3f82682600c600e81101515614b6e57fe5b6020020181815250507f126ba4be6253be58ceb3bb5bf94045b310baea07bc35d669283a10ffdf90853082600d600e81101515614ba757fe5b6020020181815250506008604051908082528060200260200182016040528015614be05781602001602082028038833980820191505090505b5090507f01b0002b9d1ceb70fe45b66103672ab9500327509572c1701d3250b00c299e88816000815181101515614c1357fe5b90602001906020020181815250507f080c6552831b1c735ac286a537343522bd10083d3b3fed202ffae1e83ff87cc0816001815181101515614c5157fe5b90602001906020020181815250507f2e13eae69b931076d3e4ce5a0764aabf54030b14f53653627d13def87840df07816002815181101515614c8f57fe5b90602001906020020181815250507f0b2032652364ded806919e92594a508eafae7eabb42bb6e731c1bfc0b3918b6c816003815181101515614ccd57fe5b90602001906020020181815250507f024ba284020edb04f39d1eeeccc5f826826086f2bac64e0b233114cd523043e4816004815181101515614d0b57fe5b90602001906020020181815250507f082cb9dada50204406112d784129e28ce9fea7d999f0540fe36131aee46ad632816005815181101515614d4957fe5b90602001906020020181815250507f2b661ab87456646811a53fbb055addc96eef2396827889305bf2ce7ab8c1ea44816006815181101515614d8757fe5b90602001906020020181815250507f118ee65eb15ec1db1b648d4c64e490977198de8a01580399d5a3835576d602b9816007815181101515614dc557fe5b90602001906020020181815250509091565b6000614de1615492565b614de96154b5565b6000806000614df66154d8565b614dfe6154fc565b8851600160028d51811515614e0f57fe5b0403141515614e86576040517f08c379a000000000000000000000000000000000000000000000000000000000815260040180806020018281038252601f8152602001807f496e76616c6964206e756d626572206f66207075626c696320696e707574730081525060200191505060405180910390fd5b600293508a6000815181101515614e9957fe5b90602001906020020151866000600481101515614eb257fe5b6020020181815250508a6001815181101515614eca57fe5b90602001906020020151866001600481101515614ee357fe5b602002018181525050600092505b88518310156150af578a84806001019550815181101515614f0e57fe5b90602001906020020151876000600381101515614f2757fe5b6020020181815250508a84806001019550815181101515614f4457fe5b90602001906020020151876001600381101515614f5d57fe5b6020020181815250508883815181101515614f7457fe5b90602001906020020151876002600381101515614f8d57fe5b602002018181525050604080870160608960076107d05a03fa945084151561501d576040517f08c379a000000000000000000000000000000000000000000000000000000000815260040180806020018281038252601f8152602001807f4661696c656420746f2063616c6c2045434d554c20707265636f6d70696c650081525060200191505060405180910390fd5b60408660808860066107d05a03fa94508415156150a2576040517f08c379a000000000000000000000000000000000000000000000000000000000815260040180806020018281038252601f8152602001807f4661696c656420746f2063616c6c20454341444420707265636f6d70696c650081525060200191505060405180910390fd5b8280600101935050614ef1565b610300604051908101604052808b60006008811015156150cb57fe5b602002015181526020018b60016008811015156150e457fe5b602002015181526020018b60026008811015156150fd57fe5b602002015181526020018b600360088110151561511657fe5b602002015181526020018b600460088110151561512f57fe5b602002015181526020018b600560088110151561514857fe5b602002015181526020018d6000600e8110151561516157fe5b602002015181526020016151878e6001600e8110151561517d57fe5b6020020151615400565b81526020018d6002600e8110151561519b57fe5b602002015181526020018d6003600e811015156151b457fe5b602002015181526020018d6004600e811015156151cd57fe5b602002015181526020018d6005600e811015156151e657fe5b602002015181526020018760006004811015156151ff57fe5b6020020151815260200161522588600160048110151561521b57fe5b6020020151615400565b81526020018d6006600e8110151561523957fe5b602002015181526020018d6007600e8110151561525257fe5b602002015181526020018d6008600e8110151561526b57fe5b602002015181526020018d6009600e8110151561528457fe5b602002015181526020018b600660088110151561529d57fe5b602002015181526020016152c38c60076008811015156152b957fe5b6020020151615400565b81526020018d600a600e811015156152d757fe5b602002015181526020018d600b600e811015156152f057fe5b602002015181526020018d600c600e8110151561530957fe5b602002015181526020018d600d600e8110151561532257fe5b602002015181525091506020816103008460086107d05a03fa94508415156153d8576040517f08c379a00000000000000000000000000000000000000000000000000000000081526004018080602001828103825260218152602001807f4661696c656420746f2063616c6c2070616972696e6720707265636f6d70696c81526020017f650000000000000000000000000000000000000000000000000000000000000081525060400191505060405180910390fd5b60018160006001811015156153e957fe5b602002015114975050505050505050949350505050565b6000807f30644e72e131a029b85045b68181585d97816a916871ca8d3c208c16d87cfd479050808381151561543157fe5b068103915050919050565b6101c060405190810160405280600e90602082028038833980820191505090505090565b6040805190810160405280600063ffffffff16815260200160006fffffffffffffffffffffffffffffffff1681525090565b606060405190810160405280600390602082028038833980820191505090505090565b608060405190810160405280600490602082028038833980820191505090505090565b61030060405190810160405280601890602082028038833980820191505090505090565b6020604051908101604052806001906020820280388339808201915050905050905600a165627a7a723058203732072bd031db2f5a9af5095e09940270762b9f5cc6f5ccace868857293225e0029",
  "source": "pragma solidity ^0.4.24;\n\nimport {Plasma} from \"./Plasma.sol\";\n\n// this procedure is a one-time full exit with a removal \n// of the public key from the tree\ncontract PlasmaExitor is Plasma {\n\n    function exit() \n    public \n    payable\n    {\n        uint128 userFee = scaleIntoPlasmaUnitsFromWei(msg.value);\n        require(userFee >= currentExitBatchFee, \"exit fee should be more than required by the operator\");\n        uint24 accountID = ethereumAddressToAccountID[msg.sender];\n        require(accountID != 0, \"empty accounts can not exit\");\n\n        uint256 currentBatch = totalExitRequests/EXIT_BATCH_SIZE;\n        // write aux info about the batch\n        ExitBatch storage batch = exitBatches[currentBatch];\n        // batch countdown start from the first request\n        if (batch.timestamp == 0) {\n            batch.state = uint8(ExitBatchState.CREATED);\n            batch.timestamp = uint64(block.timestamp);\n            batch.batchFee = currentExitBatchFee;\n        }\n\n        Account storage account = accounts[accountID];\n        require(account.state == uint8(AccountState.REGISTERED), \"only accounts that are registered and not pending exit can exit\");\n        account.state = uint8(AccountState.PENDING_EXIT);\n        account.exitBatchNumber = uint32(currentBatch);\n\n        totalExitRequests++;\n\n        emit LogExitRequest(currentBatch, accountID);\n    }\n\n    // allow users to cancel an exit if the work on the next proof is not yet started\n    function cancelExit()\n    public\n    {\n        uint24 accountID = ethereumAddressToAccountID[msg.sender];\n        require(accountID != 0, \"trying to cancel a deposit for non-existing account\");\n        uint256 currentBatch = totalExitRequests/EXIT_BATCH_SIZE;\n        uint256 requestsInThisBatch = totalExitRequests % EXIT_BATCH_SIZE;\n\n        // if the first request in a batch is canceled - clear it to stop the countdown\n        if (requestsInThisBatch == 0) {\n            delete exitBatches[currentBatch];\n        }\n\n        Account storage account = accounts[accountID];\n        require(account.state == uint8(AccountState.PENDING_EXIT), \"can only cancel exits for accounts that are pending exit\");\n        require(account.exitBatchNumber == uint32(currentBatch), \"can not cancel an exit in the batch that was already accepted\");\n        account.state = uint8(AccountState.REGISTERED);\n        account.exitBatchNumber = 0;\n\n        emit LogCancelExitRequest(currentBatch, accountID);\n\n        totalExitRequests--;\n\n        // TODO may be return an fee that was collected\n    }\n\n    // this does not work in multi-operator mode\n    function startNextExitBatch()\n    public\n    operator_only()\n    {\n        uint256 currentBatch = totalExitRequests/EXIT_BATCH_SIZE;\n        uint256 inTheCurrentBatch = totalExitRequests % EXIT_BATCH_SIZE;\n        if (inTheCurrentBatch != 0) {\n            totalExitRequests = (currentBatch + 1) * EXIT_BATCH_SIZE;\n        } else {\n            revert(\"it's not necessary to bump the batch number\");\n        }\n    }\n\n    // this does not work in multi-operator mode\n    function changeExitBatchFee(uint128 newBatchFee)\n    public\n    operator_only()\n    {\n        if (currentExitBatchFee == 0) {\n            revert(\"fee is already at minimum\");\n        }\n        if (newBatchFee < currentExitBatchFee) {\n            currentExitBatchFee = newBatchFee;\n        } else {\n            revert(\"can not increase an exit fee\");\n        }\n    }\n\n    // pure function to calculate commitment formats\n    function createPublicDataCommitmentForExit(uint32 blockNumber, bytes memory txDataPacked)\n    public \n    pure\n    returns (bytes32 h) {\n\n        bytes32 initialHash = sha256(abi.encodePacked(uint256(blockNumber)));\n        bytes32 finalHash = sha256(abi.encodePacked(initialHash, txDataPacked));\n        \n        return finalHash;\n    }\n\n    // on commitment to some block we just commit to SOME public data, that will be parsed \n    // ONLY when proof is presented\n    \n    function commitExitBlock(\n        uint256 batchNumber,\n        uint24[EXIT_BATCH_SIZE] memory accoundIDs, \n        uint32 blockNumber, \n        bytes memory txDataPacked, \n        bytes32 newRoot\n    ) \n    public \n    operator_only \n    {\n        require(blockNumber == lastCommittedBlockNumber + 1, \"may only commit next block\");\n        require(batchNumber == lastCommittedExitBatch, \"trying to commit batch out of order\");\n        \n        ExitBatch storage batch = exitBatches[batchNumber];\n        batch.state = uint8(ExitBatchState.COMMITTED);\n        batch.blockNumber = blockNumber;\n        batch.timestamp = uint64(block.timestamp);\n                \n        bytes32 publicDataCommitment = createPublicDataCommitmentForExit(blockNumber, txDataPacked);\n\n        blocks[blockNumber] = Block(\n            uint8(Circuit.EXIT), \n            uint64(block.timestamp + MAX_DELAY), \n            0, \n            newRoot, \n            publicDataCommitment, \n            msg.sender\n        );\n        emit BlockCommitted(blockNumber);\n        lastCommittedBlockNumber++;\n        lastCommittedExitBatch++;\n\n        // process the block information\n        processExitBlockData(batchNumber, blockNumber, accoundIDs, txDataPacked);\n    }\n\n    // exit block is special - to avoid storge writes an exit data is sent on verification,\n    // but not on commitment\n    function verifyExitBlock(\n        uint256 batchNumber, \n        uint32 blockNumber, \n        uint256[8] memory proof\n    ) \n    public \n    operator_only \n    {\n        require(lastVerifiedBlockNumber < lastCommittedBlockNumber, \"no committed block to verify\");\n        require(blockNumber == lastVerifiedBlockNumber + 1, \"may only verify next block\");\n        require(batchNumber == lastVerifiedExitBatch, \"trying to prove batch out of order\");\n\n        Block storage committed = blocks[blockNumber];\n        require(committed.circuit == uint8(Circuit.EXIT), \"trying to prove the invalid circuit for this block number\");\n\n        ExitBatch storage batch = exitBatches[batchNumber];\n        require(batch.blockNumber == blockNumber, \"block number in referencing invalid batch number\");\n        batch.state = uint8(ExitBatchState.VERIFIED);\n        batch.timestamp = uint64(block.timestamp);\n        // do actual verification\n\n        bool verification_success = verifyProof(\n            Circuit.EXIT, \n            proof, \n            lastVerifiedRoot, \n            committed.newRoot, \n            committed.publicDataCommitment\n        );\n        require(verification_success, \"invalid proof\");\n\n        emit BlockVerified(blockNumber);\n        lastVerifiedBlockNumber++;\n        lastVerifiedExitBatch++;\n        lastVerifiedRoot = committed.newRoot;\n    }\n\n    // transaction data is trivial: 3 bytes of in-plasma address, 16 bytes of amount\n    // same a for partial exits - write to storage, so users can pull the balances later\n    function processExitBlockData(\n        uint256 batchNumber, \n        uint32 blockNumber,\n        uint24[EXIT_BATCH_SIZE] memory accountIDs, \n        bytes memory txData\n    ) \n    internal \n    {\n        uint256 chunk;\n        uint256 pointer = 32;\n        address accountOwner;\n        uint128 scaledAmount;\n        uint32 tail;\n        for (uint256 i = 0; i < EXIT_BATCH_SIZE; i++) { \n            // this is a cheap way to ensure that all requests are unique, without O(n) MSTORE\n            // it also automatically guarantees that all requests requests from the batch have been executed\n            if (accountIDs[i] == 0) {\n                continue;\n            }\n            require(i == 0 || accountIDs[i] > accountIDs[i-1], \"accountIDs are not properly ordered\");\n            assembly {\n                chunk := mload(add(txData, pointer))\n            }\n            pointer += 19;\n            \n            require(accountIDs[i] == chunk >> 232, \"invalid account ID in commitment\");\n            Account storage account = accounts[accountIDs[i]];\n            require(account.state == uint8(AccountState.PENDING_EXIT), \"there was no such exit request\");\n            require(account.exitBatchNumber == uint32(batchNumber), \"account was registered for exit in another batch\");\n\n            // accountOwner = accounts[accountIDs[i]].owner;\n            scaledAmount = uint128(chunk << 24 >> 128);\n   \n            ExitLeaf memory newLeaf;\n            tail = account.exitListTail;\n            if (tail == 0) {\n                // create a fresh list that is both head and tail\n                newLeaf = ExitLeaf(0, scaledAmount);\n                exitLeafs[account.owner][blockNumber] = newLeaf;\n                account.exitListTail = blockNumber;\n            } else {\n                // previous tail is somewhere in the past\n                ExitLeaf storage previousExitLeaf = exitLeafs[account.owner][tail];\n\n                newLeaf = ExitLeaf(0, scaledAmount);\n                previousExitLeaf.nextID = blockNumber;\n\n                exitLeafs[account.owner][blockNumber] = newLeaf;\n                account.exitListTail = blockNumber;\n            }\n\n            // if there was no head - point to here\n            if (account.exitListHead == 0) {\n                account.exitListHead = blockNumber;\n            }\n\n            // exitAmounts[accountOwner][blockNumber] = scaledAmount;\n            account.state = uint8(AccountState.UNCONFIRMED_EXIT);\n\n            emit LogCompleteExit(accountOwner, blockNumber, accountIDs[i]);\n        }\n    }\n\n    // function withdrawUserBalance(\n    //     uint32[] blockNumbers\n    // )\n    // public\n    // {\n    //     require(blockNumbers.length > 0, \"requires non-empty set\");\n    //     uint256 totalAmountInWei;\n    //     uint32 blockNumber;\n    //     for (uint256 i = 0; i < blockNumbers.length; i++) {\n    //         blockNumber = blockNumbers[i]; \n\n    //         require(blockNumber <= lastVerifiedBlockNumber, \"can only process exits from verified blocks\");\n    //         uint24 accountID = ethereumAddressToAccountID[msg.sender];\n    //         uint128 balance;\n    //         uint256 amountInWei;\n    //         if (accountID != 0) {\n    //             // user either didn't fully exit or didn't take full exit balance yet\n    //             Account storage account = accounts[accountID];\n    //             if (account.state == uint8(AccountState.UNCONFIRMED_EXIT)) {\n    //                 uint256 batchNumber = account.exitBatchNumber;\n    //                 ExitBatch storage batch = exitBatches[batchNumber];\n    //                 if (blockNumber == batch.blockNumber) {\n    //                     balance = exitAmounts[msg.sender][blockNumber];\n\n    //                     delete accounts[accountID];\n    //                     delete ethereumAddressToAccountID[msg.sender];\n    //                     delete exitAmounts[msg.sender][blockNumber];\n\n    //                     amountInWei = scaleFromPlasmaUnitsIntoWei(balance);\n    //                     totalAmountInWei += amountInWei;\n    //                     continue;\n    //                 }\n    //             }\n    //         }\n    //         // user account information is already deleted or it's not the block number where a full exit has happened\n    //         // we require a non-zero balance in this case cause chain cleanup is not required\n    //         balance = exitAmounts[msg.sender][blockNumber];\n\n    //         require(balance != 0, \"nothing to exit\");\n    //         delete exitAmounts[msg.sender][blockNumber];\n\n    //         amountInWei = scaleFromPlasmaUnitsIntoWei(balance);\n    //         totalAmountInWei += amountInWei;\n    //     }\n    //     msg.sender.transfer(totalAmountInWei);\n    // }\n\n    function withdrawUserBalance(\n        uint256 iterationsLimit\n    )\n    public\n    {\n        require(iterationsLimit > 0, \"must iterate\");\n        uint256 totalAmountInWei;\n        uint256 amountInWei;\n        uint24 accountID = ethereumAddressToAccountID[msg.sender];\n        require(accountID != 0, \"this should not happen as exiting happens one by one until the complete one\");\n        Account storage account = accounts[accountID];\n\n        uint32 currentHead = account.exitListHead;\n        uint32 nextHead = currentHead;\n\n        for (uint256 i = 0; i < iterationsLimit; i++) {\n            if (currentHead > lastVerifiedBlockNumber) {\n                if (i == 0) {\n                    revert(\"nothing to process\");\n                } else {\n                    return;\n                }\n            }\n            ExitLeaf storage leaf = exitLeafs[msg.sender][currentHead];\n\n            amountInWei = scaleFromPlasmaUnitsIntoWei(leaf.amount);\n            totalAmountInWei += amountInWei;\n\n            // no matter if the next leafID is empty or not we can assign it\n\n            nextHead = leaf.nextID;\n            delete exitLeafs[msg.sender][currentHead];\n\n            if (nextHead == 0 && account.state == uint8(AccountState.UNCONFIRMED_EXIT)) {\n                // there is no next element AND account is exiting, so it must be the complete exit leaf\n                uint256 batchNumber = account.exitBatchNumber;\n                ExitBatch storage batch = exitBatches[batchNumber];\n                require(currentHead == batch.blockNumber, \"last item in the list should match the complete exit block\");\n                delete accounts[accountID];\n                delete ethereumAddressToAccountID[msg.sender];\n            }\n\n            if (nextHead == 0) {\n                // this is an end of the list\n                break;\n            } else {\n                currentHead = nextHead;\n            }\n\n        }\n\n        account.exitListHead = nextHead;\n        if (nextHead == 0) {\n            account.exitListTail = 0;\n        }\n\n        msg.sender.transfer(totalAmountInWei);\n    }\n\n}",
  "sourcePath": "/Users/alex/src/shamatar/zk_stuff/plasma/contracts/contracts/PlasmaExitor.sol",
  "compiler": {
    "name": "solc",
    "version": "0.4.24+commit.e67f0147.Emscripten.clang"
  },
  "schemaVersion": "3.0.0",
  "updatedAt": "2019-04-02T13:07:33.569Z",
  "devdoc": {
    "methods": {}
  },
  "userdoc": {
    "methods": {}
  }
}