{
  "contractName": "Plasma",
  "abi": [
    {
      "constant": true,
      "inputs": [],
      "name": "lastVerifiedRoot",
      "outputs": [
        {
          "name": "",
          "type": "bytes32"
        }
      ],
      "payable": false,
      "stateMutability": "view",
      "type": "function"
    },
    {
      "constant": true,
      "inputs": [
        {
          "name": "",
          "type": "address"
        }
      ],
      "name": "operators",
      "outputs": [
        {
          "name": "",
          "type": "bool"
        }
      ],
      "payable": false,
      "stateMutability": "view",
      "type": "function"
    },
    {
      "constant": true,
      "inputs": [],
      "name": "SPECIAL_ACCOUNT_EXITS",
      "outputs": [
        {
          "name": "",
          "type": "uint24"
        }
      ],
      "payable": false,
      "stateMutability": "view",
      "type": "function"
    },
    {
      "constant": true,
      "inputs": [],
      "name": "totalDepositRequests",
      "outputs": [
        {
          "name": "",
          "type": "uint256"
        }
      ],
      "payable": false,
      "stateMutability": "view",
      "type": "function"
    },
    {
      "constant": true,
      "inputs": [],
      "name": "exitor",
      "outputs": [
        {
          "name": "",
          "type": "address"
        }
      ],
      "payable": false,
      "stateMutability": "view",
      "type": "function"
    },
    {
      "constant": true,
      "inputs": [
        {
          "name": "",
          "type": "address"
        }
      ],
      "name": "balances",
      "outputs": [
        {
          "name": "",
          "type": "uint256"
        }
      ],
      "payable": false,
      "stateMutability": "view",
      "type": "function"
    },
    {
      "constant": true,
      "inputs": [],
      "name": "totalExitRequests",
      "outputs": [
        {
          "name": "",
          "type": "uint256"
        }
      ],
      "payable": false,
      "stateMutability": "view",
      "type": "function"
    },
    {
      "constant": true,
      "inputs": [
        {
          "name": "",
          "type": "address"
        },
        {
          "name": "",
          "type": "uint32"
        }
      ],
      "name": "exitLeafs",
      "outputs": [
        {
          "name": "nextID",
          "type": "uint32"
        },
        {
          "name": "amount",
          "type": "uint128"
        }
      ],
      "payable": false,
      "stateMutability": "view",
      "type": "function"
    },
    {
      "constant": true,
      "inputs": [
        {
          "name": "value",
          "type": "uint256"
        }
      ],
      "name": "scaleIntoPlasmaUnitsFromWei",
      "outputs": [
        {
          "name": "",
          "type": "uint128"
        }
      ],
      "payable": false,
      "stateMutability": "pure",
      "type": "function"
    },
    {
      "constant": true,
      "inputs": [],
      "name": "DEPOSIT_BATCH_SIZE",
      "outputs": [
        {
          "name": "",
          "type": "uint256"
        }
      ],
      "payable": false,
      "stateMutability": "view",
      "type": "function"
    },
    {
      "constant": true,
      "inputs": [],
      "name": "MAX_DELAY",
      "outputs": [
        {
          "name": "",
          "type": "uint64"
        }
      ],
      "payable": false,
      "stateMutability": "view",
      "type": "function"
    },
    {
      "constant": true,
      "inputs": [],
      "name": "lastCommittedExitBatch",
      "outputs": [
        {
          "name": "",
          "type": "uint256"
        }
      ],
      "payable": false,
      "stateMutability": "view",
      "type": "function"
    },
    {
      "constant": true,
      "inputs": [
        {
          "name": "",
          "type": "uint256"
        },
        {
          "name": "",
          "type": "uint24"
        }
      ],
      "name": "depositRequests",
      "outputs": [
        {
          "name": "amount",
          "type": "uint128"
        }
      ],
      "payable": false,
      "stateMutability": "view",
      "type": "function"
    },
    {
      "constant": true,
      "inputs": [],
      "name": "currentExitBatchFee",
      "outputs": [
        {
          "name": "",
          "type": "uint128"
        }
      ],
      "payable": false,
      "stateMutability": "view",
      "type": "function"
    },
    {
      "constant": true,
      "inputs": [
        {
          "name": "",
          "type": "uint32"
        }
      ],
      "name": "blocks",
      "outputs": [
        {
          "name": "circuit",
          "type": "uint8"
        },
        {
          "name": "deadline",
          "type": "uint64"
        },
        {
          "name": "totalFees",
          "type": "uint128"
        },
        {
          "name": "newRoot",
          "type": "bytes32"
        },
        {
          "name": "publicDataCommitment",
          "type": "bytes32"
        },
        {
          "name": "prover",
          "type": "address"
        }
      ],
      "payable": false,
      "stateMutability": "view",
      "type": "function"
    },
    {
      "constant": true,
      "inputs": [],
      "name": "lastVerifiedDepositBatch",
      "outputs": [
        {
          "name": "",
          "type": "uint256"
        }
      ],
      "payable": false,
      "stateMutability": "view",
      "type": "function"
    },
    {
      "constant": true,
      "inputs": [],
      "name": "TRANSFER_BLOCK_SIZE",
      "outputs": [
        {
          "name": "",
          "type": "uint256"
        }
      ],
      "payable": false,
      "stateMutability": "view",
      "type": "function"
    },
    {
      "constant": true,
      "inputs": [],
      "name": "stopped",
      "outputs": [
        {
          "name": "",
          "type": "bool"
        }
      ],
      "payable": false,
      "stateMutability": "view",
      "type": "function"
    },
    {
      "constant": true,
      "inputs": [
        {
          "name": "",
          "type": "uint24"
        }
      ],
      "name": "accounts",
      "outputs": [
        {
          "name": "state",
          "type": "uint8"
        },
        {
          "name": "exitBatchNumber",
          "type": "uint32"
        },
        {
          "name": "owner",
          "type": "address"
        },
        {
          "name": "publicKey",
          "type": "uint256"
        },
        {
          "name": "exitListHead",
          "type": "uint32"
        },
        {
          "name": "exitListTail",
          "type": "uint32"
        }
      ],
      "payable": false,
      "stateMutability": "view",
      "type": "function"
    },
    {
      "constant": true,
      "inputs": [],
      "name": "lastCommittedBlockNumber",
      "outputs": [
        {
          "name": "",
          "type": "uint32"
        }
      ],
      "payable": false,
      "stateMutability": "view",
      "type": "function"
    },
    {
      "constant": true,
      "inputs": [
        {
          "name": "",
          "type": "address"
        }
      ],
      "name": "ethereumAddressToAccountID",
      "outputs": [
        {
          "name": "",
          "type": "uint24"
        }
      ],
      "payable": false,
      "stateMutability": "view",
      "type": "function"
    },
    {
      "constant": true,
      "inputs": [],
      "name": "transactor",
      "outputs": [
        {
          "name": "",
          "type": "address"
        }
      ],
      "payable": false,
      "stateMutability": "view",
      "type": "function"
    },
    {
      "constant": true,
      "inputs": [],
      "name": "DENOMINATOR",
      "outputs": [
        {
          "name": "",
          "type": "uint256"
        }
      ],
      "payable": false,
      "stateMutability": "view",
      "type": "function"
    },
    {
      "constant": true,
      "inputs": [
        {
          "name": "",
          "type": "uint256"
        }
      ],
      "name": "exitBatches",
      "outputs": [
        {
          "name": "state",
          "type": "uint8"
        },
        {
          "name": "blockNumber",
          "type": "uint32"
        },
        {
          "name": "timestamp",
          "type": "uint64"
        },
        {
          "name": "batchFee",
          "type": "uint128"
        }
      ],
      "payable": false,
      "stateMutability": "view",
      "type": "function"
    },
    {
      "constant": true,
      "inputs": [],
      "name": "DEADLINE",
      "outputs": [
        {
          "name": "",
          "type": "uint256"
        }
      ],
      "payable": false,
      "stateMutability": "view",
      "type": "function"
    },
    {
      "constant": true,
      "inputs": [],
      "name": "currentDepositBatchFee",
      "outputs": [
        {
          "name": "",
          "type": "uint128"
        }
      ],
      "payable": false,
      "stateMutability": "view",
      "type": "function"
    },
    {
      "constant": true,
      "inputs": [
        {
          "name": "value",
          "type": "uint128"
        }
      ],
      "name": "scaleFromPlasmaUnitsIntoWei",
      "outputs": [
        {
          "name": "",
          "type": "uint256"
        }
      ],
      "payable": false,
      "stateMutability": "pure",
      "type": "function"
    },
    {
      "constant": true,
      "inputs": [],
      "name": "SPECIAL_ACCOUNT_DEPOSITS",
      "outputs": [
        {
          "name": "",
          "type": "uint24"
        }
      ],
      "payable": false,
      "stateMutability": "view",
      "type": "function"
    },
    {
      "constant": true,
      "inputs": [],
      "name": "lastVerifiedExitBatch",
      "outputs": [
        {
          "name": "",
          "type": "uint256"
        }
      ],
      "payable": false,
      "stateMutability": "view",
      "type": "function"
    },
    {
      "constant": true,
      "inputs": [],
      "name": "nextAccountToRegister",
      "outputs": [
        {
          "name": "",
          "type": "uint24"
        }
      ],
      "payable": false,
      "stateMutability": "view",
      "type": "function"
    },
    {
      "constant": true,
      "inputs": [],
      "name": "lastVerifiedBlockNumber",
      "outputs": [
        {
          "name": "",
          "type": "uint32"
        }
      ],
      "payable": false,
      "stateMutability": "view",
      "type": "function"
    },
    {
      "constant": true,
      "inputs": [
        {
          "name": "",
          "type": "uint256"
        }
      ],
      "name": "depositBatches",
      "outputs": [
        {
          "name": "state",
          "type": "uint8"
        },
        {
          "name": "numRequests",
          "type": "uint24"
        },
        {
          "name": "blockNumber",
          "type": "uint32"
        },
        {
          "name": "timestamp",
          "type": "uint64"
        },
        {
          "name": "batchFee",
          "type": "uint128"
        }
      ],
      "payable": false,
      "stateMutability": "view",
      "type": "function"
    },
    {
      "constant": true,
      "inputs": [],
      "name": "lastCommittedDepositBatch",
      "outputs": [
        {
          "name": "",
          "type": "uint256"
        }
      ],
      "payable": false,
      "stateMutability": "view",
      "type": "function"
    },
    {
      "anonymous": false,
      "inputs": [
        {
          "indexed": true,
          "name": "blockNumber",
          "type": "uint32"
        }
      ],
      "name": "BlockCommitted",
      "type": "event"
    },
    {
      "anonymous": false,
      "inputs": [
        {
          "indexed": true,
          "name": "blockNumber",
          "type": "uint32"
        }
      ],
      "name": "BlockVerified",
      "type": "event"
    },
    {
      "anonymous": false,
      "inputs": [
        {
          "indexed": true,
          "name": "batchNumber",
          "type": "uint256"
        },
        {
          "indexed": true,
          "name": "accountID",
          "type": "uint24"
        },
        {
          "indexed": true,
          "name": "publicKey",
          "type": "uint256"
        },
        {
          "indexed": false,
          "name": "amount",
          "type": "uint128"
        }
      ],
      "name": "LogDepositRequest",
      "type": "event"
    },
    {
      "anonymous": false,
      "inputs": [
        {
          "indexed": true,
          "name": "batchNumber",
          "type": "uint256"
        },
        {
          "indexed": true,
          "name": "accountID",
          "type": "uint24"
        }
      ],
      "name": "LogCancelDepositRequest",
      "type": "event"
    },
    {
      "anonymous": false,
      "inputs": [
        {
          "indexed": true,
          "name": "batchNumber",
          "type": "uint256"
        },
        {
          "indexed": true,
          "name": "accountID",
          "type": "uint24"
        }
      ],
      "name": "LogExitRequest",
      "type": "event"
    },
    {
      "anonymous": false,
      "inputs": [
        {
          "indexed": true,
          "name": "batchNumber",
          "type": "uint256"
        },
        {
          "indexed": true,
          "name": "accountID",
          "type": "uint24"
        }
      ],
      "name": "LogCancelExitRequest",
      "type": "event"
    },
    {
      "anonymous": false,
      "inputs": [
        {
          "indexed": true,
          "name": "ethereumAddress",
          "type": "address"
        },
        {
          "indexed": true,
          "name": "blockNumber",
          "type": "uint32"
        }
      ],
      "name": "LogExit",
      "type": "event"
    },
    {
      "anonymous": false,
      "inputs": [
        {
          "indexed": true,
          "name": "ethereumAddress",
          "type": "address"
        },
        {
          "indexed": true,
          "name": "blockNumber",
          "type": "uint32"
        },
        {
          "indexed": false,
          "name": "accountID",
          "type": "uint24"
        }
      ],
      "name": "LogCompleteExit",
      "type": "event"
    }
  ],
  "bytecode": "0x608060405234801561001057600080fd5b50611231806100206000396000f3006080604052600436106101a1576000357c0100000000000000000000000000000000000000000000000000000000900463ffffffff16806309b7f497146101a657806313e7c9d8146101d95780631e8072a214610234578063254e88e2146102695780632713ad691461029457806327e235e3146102eb57806329a081ac146103425780632ad67a961461036d5780632c87c6c91461040b578063351eb751146104705780634125ff901461049b5780634c5ff682146104da5780635300e4101461050557806357d2ae24146105795780635cd0783e146105c857806363d078aa146106ac57806369935b69146106d757806375f12b21146107025780637dc38ab914610731578063838e2049146107f05780638512153f146108275780638ecb72d114610888578063918f8674146108df5780639d9c94191461090a578063a082c86e146109aa578063a15ff0c3146109d5578063a315c91b14610a24578063cd7543c014610a77578063ed03f56314610aac578063f47932ad14610ad7578063f4c163a414610b0c578063fb0cd20f14610b43578063fb1d501014610bf4575b600080fd5b3480156101b257600080fd5b506101bb610c1f565b60405180826000191660001916815260200191505060405180910390f35b3480156101e557600080fd5b5061021a600480360381019080803573ffffffffffffffffffffffffffffffffffffffff169060200190929190505050610c25565b604051808215151515815260200191505060405180910390f35b34801561024057600080fd5b50610249610c45565b604051808262ffffff1662ffffff16815260200191505060405180910390f35b34801561027557600080fd5b5061027e610c4a565b6040518082815260200191505060405180910390f35b3480156102a057600080fd5b506102a9610c50565b604051808273ffffffffffffffffffffffffffffffffffffffff1673ffffffffffffffffffffffffffffffffffffffff16815260200191505060405180910390f35b3480156102f757600080fd5b5061032c600480360381019080803573ffffffffffffffffffffffffffffffffffffffff169060200190929190505050610c76565b6040518082815260200191505060405180910390f35b34801561034e57600080fd5b50610357610c8e565b6040518082815260200191505060405180910390f35b34801561037957600080fd5b506103be600480360381019080803573ffffffffffffffffffffffffffffffffffffffff169060200190929190803563ffffffff169060200190929190505050610c94565b604051808363ffffffff1663ffffffff168152602001826fffffffffffffffffffffffffffffffff166fffffffffffffffffffffffffffffffff1681526020019250505060405180910390f35b34801561041757600080fd5b5061043660048036038101908080359060200190929190505050610cf1565b60405180826fffffffffffffffffffffffffffffffff166fffffffffffffffffffffffffffffffff16815260200191505060405180910390f35b34801561047c57600080fd5b50610485610e3e565b6040518082815260200191505060405180910390f35b3480156104a757600080fd5b506104b0610e43565b604051808267ffffffffffffffff1667ffffffffffffffff16815260200191505060405180910390f35b3480156104e657600080fd5b506104ef610e4a565b6040518082815260200191505060405180910390f35b34801561051157600080fd5b5061053f60048036038101908080359060200190929190803562ffffff169060200190929190505050610e50565b60405180826fffffffffffffffffffffffffffffffff166fffffffffffffffffffffffffffffffff16815260200191505060405180910390f35b34801561058557600080fd5b5061058e610e97565b60405180826fffffffffffffffffffffffffffffffff166fffffffffffffffffffffffffffffffff16815260200191505060405180910390f35b3480156105d457600080fd5b506105f9600480360381019080803563ffffffff169060200190929190505050610eb9565b604051808760ff1660ff1681526020018667ffffffffffffffff1667ffffffffffffffff168152602001856fffffffffffffffffffffffffffffffff166fffffffffffffffffffffffffffffffff168152602001846000191660001916815260200183600019166000191681526020018273ffffffffffffffffffffffffffffffffffffffff1673ffffffffffffffffffffffffffffffffffffffff168152602001965050505050505060405180910390f35b3480156106b857600080fd5b506106c1610f52565b6040518082815260200191505060405180910390f35b3480156106e357600080fd5b506106ec610f58565b6040518082815260200191505060405180910390f35b34801561070e57600080fd5b50610717610f5d565b604051808215151515815260200191505060405180910390f35b34801561073d57600080fd5b50610761600480360381019080803562ffffff169060200190929190505050610f70565b604051808760ff1660ff1681526020018663ffffffff1663ffffffff1681526020018573ffffffffffffffffffffffffffffffffffffffff1673ffffffffffffffffffffffffffffffffffffffff1681526020018481526020018363ffffffff1663ffffffff1681526020018263ffffffff1663ffffffff168152602001965050505050505060405180910390f35b3480156107fc57600080fd5b50610805611009565b604051808263ffffffff1663ffffffff16815260200191505060405180910390f35b34801561083357600080fd5b50610868600480360381019080803573ffffffffffffffffffffffffffffffffffffffff16906020019092919050505061101f565b604051808262ffffff1662ffffff16815260200191505060405180910390f35b34801561089457600080fd5b5061089d611041565b604051808273ffffffffffffffffffffffffffffffffffffffff1673ffffffffffffffffffffffffffffffffffffffff16815260200191505060405180910390f35b3480156108eb57600080fd5b506108f4611067565b6040518082815260200191505060405180910390f35b34801561091657600080fd5b5061093560048036038101908080359060200190929190505050611070565b604051808560ff1660ff1681526020018463ffffffff1663ffffffff1681526020018367ffffffffffffffff1667ffffffffffffffff168152602001826fffffffffffffffffffffffffffffffff166fffffffffffffffffffffffffffffffff16815260200194505050505060405180910390f35b3480156109b657600080fd5b506109bf6110ed565b6040518082815260200191505060405180910390f35b3480156109e157600080fd5b506109ea6110f3565b60405180826fffffffffffffffffffffffffffffffff166fffffffffffffffffffffffffffffffff16815260200191505060405180910390f35b348015610a3057600080fd5b50610a6160048036038101908080356fffffffffffffffffffffffffffffffff169060200190929190505050611115565b6040518082815260200191505060405180910390f35b348015610a8357600080fd5b50610a8c611138565b604051808262ffffff1662ffffff16815260200191505060405180910390f35b348015610ab857600080fd5b50610ac161113d565b6040518082815260200191505060405180910390f35b348015610ae357600080fd5b50610aec611143565b604051808262ffffff1662ffffff16815260200191505060405180910390f35b348015610b1857600080fd5b50610b21611158565b604051808263ffffffff1663ffffffff16815260200191505060405180910390f35b348015610b4f57600080fd5b50610b6e6004803603810190808035906020019092919050505061116d565b604051808660ff1660ff1681526020018562ffffff1662ffffff1681526020018463ffffffff1663ffffffff1681526020018367ffffffffffffffff1667ffffffffffffffff168152602001826fffffffffffffffffffffffffffffffff166fffffffffffffffffffffffffffffffff1681526020019550505050505060405180910390f35b348015610c0057600080fd5b50610c096111ff565b6040518082815260200191505060405180910390f35b60065481565b60016020528060005260406000206000915054906101000a900460ff1681565b600081565b60075481565b601460009054906101000a900473ffffffffffffffffffffffffffffffffffffffff1681565b60026020528060005260406000206000915090505481565b600d5481565b6012602052816000526040600020602052806000526040600020600091509150508060000160009054906101000a900463ffffffff16908060000160049054906101000a90046fffffffffffffffffffffffffffffffff16905082565b600080600064e8d4a51000915060008285811515610d0b57fe5b06141515610da7576040517f08c379a00000000000000000000000000000000000000000000000000000000081526004018080602001828103825260298152602001807f616d6f756e74206861732068696768657220707265636973696f6e207468616e81526020017f20706f737369626c65000000000000000000000000000000000000000000000081525060400191505060405180910390fd5b8184811515610db257fe5b049050608060019060020a0281101515610e34576040517f08c379a000000000000000000000000000000000000000000000000000000000815260040180806020018281038252601a8152602001807f6465706f73697420616d6f756e7420697320746f6f206869676800000000000081525060200191505060405180910390fd5b8092505050919050565b600181565b6201518081565b600e5481565b600b602052816000526040600020602052806000526040600020600091509150508060000160009054906101000a90046fffffffffffffffffffffffffffffffff16905081565b601060009054906101000a90046fffffffffffffffffffffffffffffffff1681565b60006020528060005260406000206000915090508060000160009054906101000a900460ff16908060000160019054906101000a900467ffffffffffffffff16908060000160099054906101000a90046fffffffffffffffffffffffffffffffff16908060010154908060020154908060030160009054906101000a900473ffffffffffffffffffffffffffffffffffffffff16905086565b60095481565b608081565b600560009054906101000a900460ff1681565b60046020528060005260406000206000915090508060000160009054906101000a900460ff16908060000160019054906101000a900463ffffffff16908060000160059054906101000a900473ffffffffffffffffffffffffffffffffffffffff16908060010154908060020160009054906101000a900463ffffffff16908060020160049054906101000a900463ffffffff16905086565b600560019054906101000a900463ffffffff1681565b60036020528060005260406000206000915054906101000a900462ffffff1681565b601360009054906101000a900473ffffffffffffffffffffffffffffffffffffffff1681565b64e8d4a5100081565b60116020528060005260406000206000915090508060000160009054906101000a900460ff16908060000160019054906101000a900463ffffffff16908060000160059054906101000a900467ffffffffffffffff169080600001600d9054906101000a90046fffffffffffffffffffffffffffffffff16905084565b610e1081565b600a60009054906101000a90046fffffffffffffffffffffffffffffffff1681565b600064e8d4a51000826fffffffffffffffffffffffffffffffff16029050919050565b600181565b600f5481565b600a60109054906101000a900462ffffff1681565b6005809054906101000a900463ffffffff1681565b600c6020528060005260406000206000915090508060000160009054906101000a900460ff16908060000160019054906101000a900462ffffff16908060000160049054906101000a900463ffffffff16908060000160089054906101000a900467ffffffffffffffff16908060000160109054906101000a90046fffffffffffffffffffffffffffffffff16905085565b600854815600a165627a7a723058207bcf34f6876968dc3fce36de487ed0d9e8e16c6172c9f7d3837b52cfbbad09a70029",
  "source": "pragma solidity ^0.4.24;\n\nimport \"./Verifier.sol\";\nimport \"./VerificationKeys.sol\";\nimport \"./PlasmaStorage.sol\";\n\n// Single operator mode\n\ncontract PlasmaStub is VerificationKeys, PlasmaStorage {\n\n    modifier active_only() {\n        require(!stopped, \"contract should not be globally stopped\");\n        _;\n    }\n\n    modifier operator_only() {\n        require(operators[msg.sender] == true, \"sender should be one of the operators\");\n        _;\n    }\n\n    // unit normalization functions\n    function scaleIntoPlasmaUnitsFromWei(uint256 value)\n    public\n    pure\n    returns (uint128) {\n        uint256 den = DENOMINATOR;\n        require(value % den == 0, \"amount has higher precision than possible\");\n        uint256 scaled = value / den;\n        require(scaled < uint256(1) << 128, \"deposit amount is too high\");\n        return uint128(scaled);\n    }\n\n\n    function scaleFromPlasmaUnitsIntoWei(uint128 value)\n    public\n    pure\n    returns (uint256) {\n        return uint256(value) * DENOMINATOR;\n    }\n\n    // stubs\n    // verification\n    function verifyProof(Circuit, uint256[8] memory, bytes32, bytes32, bytes32) internal view returns (bool valid);\n}\n\ncontract Plasma is PlasmaStub, Verifier {\n    // Implementation\n\n    function verifyProof(Circuit circuitType, uint256[8] memory proof, bytes32 oldRoot, bytes32 newRoot, bytes32 finalHash)\n        internal view returns (bool valid)\n    {\n        uint256 mask = (~uint256(0)) >> 3;\n        uint256[14] memory vk;\n        uint256[] memory gammaABC;\n        if (circuitType == Circuit.DEPOSIT) {\n            (vk, gammaABC) = getVkDepositCircuit();\n        } else if (circuitType == Circuit.TRANSFER) {\n            (vk, gammaABC) = getVkTransferCircuit();\n        } else if (circuitType == Circuit.EXIT) {\n            (vk, gammaABC) = getVkExitCircuit();\n        } else {\n            return false;\n        }\n        uint256[] memory inputs = new uint256[](3);\n        inputs[0] = uint256(oldRoot);\n        inputs[1] = uint256(newRoot);\n        inputs[2] = uint256(finalHash) & mask;\n        return Verify(vk, gammaABC, proof, inputs);\n    }\n\n}",
  "sourcePath": "/Users/alex/src/shamatar/zk_stuff/plasma/contracts/contracts/Plasma.sol",
  "compiler": {
    "name": "solc",
    "version": "0.4.24+commit.e67f0147.Emscripten.clang"
  },
  "schemaVersion": "3.0.0",
  "updatedAt": "2019-03-02T07:38:04.111Z",
  "devdoc": {
    "methods": {}
  },
  "userdoc": {
    "methods": {}
  }
}