{
  "contractName": "PlasmaTransactor",
  "abi": [
    {
      "constant": true,
      "inputs": [],
      "name": "lastVerifiedRoot",
      "outputs": [
        {
          "name": "",
          "type": "bytes32"
        }
      ],
      "payable": false,
      "stateMutability": "view",
      "type": "function",
      "signature": "0x09b7f497"
    },
    {
      "constant": true,
      "inputs": [
        {
          "name": "",
          "type": "address"
        }
      ],
      "name": "operators",
      "outputs": [
        {
          "name": "",
          "type": "bool"
        }
      ],
      "payable": false,
      "stateMutability": "view",
      "type": "function",
      "signature": "0x13e7c9d8"
    },
    {
      "constant": true,
      "inputs": [],
      "name": "SPECIAL_ACCOUNT_EXITS",
      "outputs": [
        {
          "name": "",
          "type": "uint24"
        }
      ],
      "payable": false,
      "stateMutability": "view",
      "type": "function",
      "signature": "0x1e8072a2"
    },
    {
      "constant": true,
      "inputs": [],
      "name": "totalDepositRequests",
      "outputs": [
        {
          "name": "",
          "type": "uint256"
        }
      ],
      "payable": false,
      "stateMutability": "view",
      "type": "function",
      "signature": "0x254e88e2"
    },
    {
      "constant": true,
      "inputs": [],
      "name": "exitor",
      "outputs": [
        {
          "name": "",
          "type": "address"
        }
      ],
      "payable": false,
      "stateMutability": "view",
      "type": "function",
      "signature": "0x2713ad69"
    },
    {
      "constant": true,
      "inputs": [
        {
          "name": "",
          "type": "address"
        }
      ],
      "name": "balances",
      "outputs": [
        {
          "name": "",
          "type": "uint256"
        }
      ],
      "payable": false,
      "stateMutability": "view",
      "type": "function",
      "signature": "0x27e235e3"
    },
    {
      "constant": true,
      "inputs": [],
      "name": "totalExitRequests",
      "outputs": [
        {
          "name": "",
          "type": "uint256"
        }
      ],
      "payable": false,
      "stateMutability": "view",
      "type": "function",
      "signature": "0x29a081ac"
    },
    {
      "constant": true,
      "inputs": [
        {
          "name": "",
          "type": "address"
        },
        {
          "name": "",
          "type": "uint32"
        }
      ],
      "name": "exitLeafs",
      "outputs": [
        {
          "name": "nextID",
          "type": "uint32"
        },
        {
          "name": "amount",
          "type": "uint128"
        }
      ],
      "payable": false,
      "stateMutability": "view",
      "type": "function",
      "signature": "0x2ad67a96"
    },
    {
      "constant": true,
      "inputs": [
        {
          "name": "value",
          "type": "uint256"
        }
      ],
      "name": "scaleIntoPlasmaUnitsFromWei",
      "outputs": [
        {
          "name": "",
          "type": "uint128"
        }
      ],
      "payable": false,
      "stateMutability": "pure",
      "type": "function",
      "signature": "0x2c87c6c9"
    },
    {
      "constant": true,
      "inputs": [],
      "name": "DEPOSIT_BATCH_SIZE",
      "outputs": [
        {
          "name": "",
          "type": "uint256"
        }
      ],
      "payable": false,
      "stateMutability": "view",
      "type": "function",
      "signature": "0x351eb751"
    },
    {
      "constant": true,
      "inputs": [],
      "name": "MAX_DELAY",
      "outputs": [
        {
          "name": "",
          "type": "uint64"
        }
      ],
      "payable": false,
      "stateMutability": "view",
      "type": "function",
      "signature": "0x4125ff90"
    },
    {
      "constant": true,
      "inputs": [],
      "name": "lastCommittedExitBatch",
      "outputs": [
        {
          "name": "",
          "type": "uint256"
        }
      ],
      "payable": false,
      "stateMutability": "view",
      "type": "function",
      "signature": "0x4c5ff682"
    },
    {
      "constant": true,
      "inputs": [
        {
          "name": "",
          "type": "uint256"
        },
        {
          "name": "",
          "type": "uint24"
        }
      ],
      "name": "depositRequests",
      "outputs": [
        {
          "name": "amount",
          "type": "uint128"
        }
      ],
      "payable": false,
      "stateMutability": "view",
      "type": "function",
      "signature": "0x5300e410"
    },
    {
      "constant": true,
      "inputs": [],
      "name": "currentExitBatchFee",
      "outputs": [
        {
          "name": "",
          "type": "uint128"
        }
      ],
      "payable": false,
      "stateMutability": "view",
      "type": "function",
      "signature": "0x57d2ae24"
    },
    {
      "constant": true,
      "inputs": [
        {
          "name": "",
          "type": "uint32"
        }
      ],
      "name": "blocks",
      "outputs": [
        {
          "name": "circuit",
          "type": "uint8"
        },
        {
          "name": "deadline",
          "type": "uint64"
        },
        {
          "name": "totalFees",
          "type": "uint128"
        },
        {
          "name": "newRoot",
          "type": "bytes32"
        },
        {
          "name": "publicDataCommitment",
          "type": "bytes32"
        },
        {
          "name": "prover",
          "type": "address"
        }
      ],
      "payable": false,
      "stateMutability": "view",
      "type": "function",
      "signature": "0x5cd0783e"
    },
    {
      "constant": true,
      "inputs": [],
      "name": "lastVerifiedDepositBatch",
      "outputs": [
        {
          "name": "",
          "type": "uint256"
        }
      ],
      "payable": false,
      "stateMutability": "view",
      "type": "function",
      "signature": "0x63d078aa"
    },
    {
      "constant": true,
      "inputs": [],
      "name": "TRANSFER_BLOCK_SIZE",
      "outputs": [
        {
          "name": "",
          "type": "uint256"
        }
      ],
      "payable": false,
      "stateMutability": "view",
      "type": "function",
      "signature": "0x69935b69"
    },
    {
      "constant": true,
      "inputs": [],
      "name": "stopped",
      "outputs": [
        {
          "name": "",
          "type": "bool"
        }
      ],
      "payable": false,
      "stateMutability": "view",
      "type": "function",
      "signature": "0x75f12b21"
    },
    {
      "constant": true,
      "inputs": [
        {
          "name": "",
          "type": "uint24"
        }
      ],
      "name": "accounts",
      "outputs": [
        {
          "name": "state",
          "type": "uint8"
        },
        {
          "name": "exitBatchNumber",
          "type": "uint32"
        },
        {
          "name": "owner",
          "type": "address"
        },
        {
          "name": "publicKey",
          "type": "uint256"
        },
        {
          "name": "exitListHead",
          "type": "uint32"
        },
        {
          "name": "exitListTail",
          "type": "uint32"
        }
      ],
      "payable": false,
      "stateMutability": "view",
      "type": "function",
      "signature": "0x7dc38ab9"
    },
    {
      "constant": true,
      "inputs": [],
      "name": "lastCommittedBlockNumber",
      "outputs": [
        {
          "name": "",
          "type": "uint32"
        }
      ],
      "payable": false,
      "stateMutability": "view",
      "type": "function",
      "signature": "0x838e2049"
    },
    {
      "constant": true,
      "inputs": [
        {
          "name": "",
          "type": "address"
        }
      ],
      "name": "ethereumAddressToAccountID",
      "outputs": [
        {
          "name": "",
          "type": "uint24"
        }
      ],
      "payable": false,
      "stateMutability": "view",
      "type": "function",
      "signature": "0x8512153f"
    },
    {
      "constant": true,
      "inputs": [],
      "name": "transactor",
      "outputs": [
        {
          "name": "",
          "type": "address"
        }
      ],
      "payable": false,
      "stateMutability": "view",
      "type": "function",
      "signature": "0x8ecb72d1"
    },
    {
      "constant": true,
      "inputs": [],
      "name": "DENOMINATOR",
      "outputs": [
        {
          "name": "",
          "type": "uint256"
        }
      ],
      "payable": false,
      "stateMutability": "view",
      "type": "function",
      "signature": "0x918f8674"
    },
    {
      "constant": true,
      "inputs": [
        {
          "name": "",
          "type": "uint256"
        }
      ],
      "name": "exitBatches",
      "outputs": [
        {
          "name": "state",
          "type": "uint8"
        },
        {
          "name": "blockNumber",
          "type": "uint32"
        },
        {
          "name": "timestamp",
          "type": "uint64"
        },
        {
          "name": "batchFee",
          "type": "uint128"
        }
      ],
      "payable": false,
      "stateMutability": "view",
      "type": "function",
      "signature": "0x9d9c9419"
    },
    {
      "constant": true,
      "inputs": [],
      "name": "DEADLINE",
      "outputs": [
        {
          "name": "",
          "type": "uint256"
        }
      ],
      "payable": false,
      "stateMutability": "view",
      "type": "function",
      "signature": "0xa082c86e"
    },
    {
      "constant": true,
      "inputs": [],
      "name": "currentDepositBatchFee",
      "outputs": [
        {
          "name": "",
          "type": "uint128"
        }
      ],
      "payable": false,
      "stateMutability": "view",
      "type": "function",
      "signature": "0xa15ff0c3"
    },
    {
      "constant": true,
      "inputs": [
        {
          "name": "value",
          "type": "uint128"
        }
      ],
      "name": "scaleFromPlasmaUnitsIntoWei",
      "outputs": [
        {
          "name": "",
          "type": "uint256"
        }
      ],
      "payable": false,
      "stateMutability": "pure",
      "type": "function",
      "signature": "0xa315c91b"
    },
    {
      "constant": true,
      "inputs": [],
      "name": "SPECIAL_ACCOUNT_DEPOSITS",
      "outputs": [
        {
          "name": "",
          "type": "uint24"
        }
      ],
      "payable": false,
      "stateMutability": "view",
      "type": "function",
      "signature": "0xcd7543c0"
    },
    {
      "constant": true,
      "inputs": [],
      "name": "lastVerifiedExitBatch",
      "outputs": [
        {
          "name": "",
          "type": "uint256"
        }
      ],
      "payable": false,
      "stateMutability": "view",
      "type": "function",
      "signature": "0xed03f563"
    },
    {
      "constant": true,
      "inputs": [],
      "name": "nextAccountToRegister",
      "outputs": [
        {
          "name": "",
          "type": "uint24"
        }
      ],
      "payable": false,
      "stateMutability": "view",
      "type": "function",
      "signature": "0xf47932ad"
    },
    {
      "constant": true,
      "inputs": [],
      "name": "lastVerifiedBlockNumber",
      "outputs": [
        {
          "name": "",
          "type": "uint32"
        }
      ],
      "payable": false,
      "stateMutability": "view",
      "type": "function",
      "signature": "0xf4c163a4"
    },
    {
      "constant": true,
      "inputs": [
        {
          "name": "",
          "type": "uint256"
        }
      ],
      "name": "depositBatches",
      "outputs": [
        {
          "name": "state",
          "type": "uint8"
        },
        {
          "name": "numRequests",
          "type": "uint24"
        },
        {
          "name": "blockNumber",
          "type": "uint32"
        },
        {
          "name": "timestamp",
          "type": "uint64"
        },
        {
          "name": "batchFee",
          "type": "uint128"
        }
      ],
      "payable": false,
      "stateMutability": "view",
      "type": "function",
      "signature": "0xfb0cd20f"
    },
    {
      "constant": true,
      "inputs": [],
      "name": "lastCommittedDepositBatch",
      "outputs": [
        {
          "name": "",
          "type": "uint256"
        }
      ],
      "payable": false,
      "stateMutability": "view",
      "type": "function",
      "signature": "0xfb1d5010"
    },
    {
      "payable": true,
      "stateMutability": "payable",
      "type": "fallback"
    },
    {
      "anonymous": false,
      "inputs": [
        {
          "indexed": true,
          "name": "blockNumber",
          "type": "uint32"
        }
      ],
      "name": "BlockCommitted",
      "type": "event",
      "signature": "0xdf39762be389bd636a9efb2e4f3b26ac7d22eda4f0840f389209987a09e50fc9"
    },
    {
      "anonymous": false,
      "inputs": [
        {
          "indexed": true,
          "name": "blockNumber",
          "type": "uint32"
        }
      ],
      "name": "BlockVerified",
      "type": "event",
      "signature": "0xca558d7524956f89ce1ec833efe8a265ed2b1e92b20ff4fe2fb87fb1a042e524"
    },
    {
      "anonymous": false,
      "inputs": [
        {
          "indexed": true,
          "name": "batchNumber",
          "type": "uint256"
        },
        {
          "indexed": true,
          "name": "accountID",
          "type": "uint24"
        },
        {
          "indexed": true,
          "name": "publicKey",
          "type": "uint256"
        },
        {
          "indexed": false,
          "name": "amount",
          "type": "uint128"
        }
      ],
      "name": "LogDepositRequest",
      "type": "event",
      "signature": "0x77576c82d939ce0a49902463e0dd51c0257e560ff4f55a51a702af4ed7691266"
    },
    {
      "anonymous": false,
      "inputs": [
        {
          "indexed": true,
          "name": "batchNumber",
          "type": "uint256"
        },
        {
          "indexed": true,
          "name": "accountID",
          "type": "uint24"
        }
      ],
      "name": "LogCancelDepositRequest",
      "type": "event",
      "signature": "0xd99f8eb80f2e84189fe41fb9bed3506f73da9be70a0df39e2b4a997e92dbd61a"
    },
    {
      "anonymous": false,
      "inputs": [
        {
          "indexed": true,
          "name": "batchNumber",
          "type": "uint256"
        },
        {
          "indexed": true,
          "name": "accountID",
          "type": "uint24"
        }
      ],
      "name": "LogExitRequest",
      "type": "event",
      "signature": "0x236e3f00e03d1484fd608958ad56082729315788fd4541cc50b5cdac4bce07f0"
    },
    {
      "anonymous": false,
      "inputs": [
        {
          "indexed": true,
          "name": "batchNumber",
          "type": "uint256"
        },
        {
          "indexed": true,
          "name": "accountID",
          "type": "uint24"
        }
      ],
      "name": "LogCancelExitRequest",
      "type": "event",
      "signature": "0x09754f168d20bdac07b81b649e49ed48fe35f1a08ea551c1ae0366f324d6a3b4"
    },
    {
      "anonymous": false,
      "inputs": [
        {
          "indexed": true,
          "name": "ethereumAddress",
          "type": "address"
        },
        {
          "indexed": true,
          "name": "blockNumber",
          "type": "uint32"
        }
      ],
      "name": "LogExit",
      "type": "event",
      "signature": "0x6030852c9631bc119530851caef56a18b04441ffde1a59c38e046ea25d001e78"
    },
    {
      "anonymous": false,
      "inputs": [
        {
          "indexed": true,
          "name": "ethereumAddress",
          "type": "address"
        },
        {
          "indexed": true,
          "name": "blockNumber",
          "type": "uint32"
        },
        {
          "indexed": false,
          "name": "accountID",
          "type": "uint24"
        }
      ],
      "name": "LogCompleteExit",
      "type": "event",
      "signature": "0xbd4f8ad55cac8b7705cb6fbc17b28e416d8e82c39b33e21cc95965d23fc906e6"
    },
    {
      "constant": false,
      "inputs": [
        {
          "name": "blockNumber",
          "type": "uint32"
        },
        {
          "name": "totalFees",
          "type": "uint128"
        },
        {
          "name": "txDataPacked",
          "type": "bytes"
        },
        {
          "name": "newRoot",
          "type": "bytes32"
        }
      ],
      "name": "commitTransferBlock",
      "outputs": [],
      "payable": false,
      "stateMutability": "nonpayable",
      "type": "function",
      "signature": "0xf487b28e"
    },
    {
      "constant": false,
      "inputs": [
        {
          "name": "blockNumber",
          "type": "uint32"
        },
        {
          "name": "proof",
          "type": "uint256[8]"
        }
      ],
      "name": "verifyTransferBlock",
      "outputs": [],
      "payable": false,
      "stateMutability": "nonpayable",
      "type": "function",
      "signature": "0x92f1c2b4"
    },
    {
      "constant": true,
      "inputs": [
        {
          "name": "blockNumber",
          "type": "uint32"
        },
        {
          "name": "totalFees",
          "type": "uint128"
        },
        {
          "name": "txDataPacked",
          "type": "bytes"
        }
      ],
      "name": "createPublicDataCommitmentForTransfer",
      "outputs": [
        {
          "name": "h",
          "type": "bytes32"
        }
      ],
      "payable": false,
      "stateMutability": "pure",
      "type": "function",
      "signature": "0xdd67b1a0"
    },
    {
      "constant": true,
      "inputs": [
        {
          "name": "float",
          "type": "uint16"
        }
      ],
      "name": "parseFloat",
      "outputs": [
        {
          "name": "scaledValue",
          "type": "uint128"
        }
      ],
      "payable": false,
      "stateMutability": "pure",
      "type": "function",
      "signature": "0x45146cf3"
    }
  ],
  "bytecode": "0x608060405234801561001057600080fd5b5061405d806100206000396000f3006080604052600436106101cd576000357c0100000000000000000000000000000000000000000000000000000000900463ffffffff16806309b7f4971461022757806313e7c9d81461025a5780631e8072a2146102b5578063254e88e2146102ea5780632713ad691461031557806327e235e31461036c57806329a081ac146103c35780632ad67a96146103ee5780632c87c6c91461048c578063351eb751146104f15780634125ff901461051c57806345146cf31461055b5780634c5ff682146105c45780635300e410146105ef57806357d2ae24146106635780635cd0783e146106b257806363d078aa1461079657806369935b69146107c157806375f12b21146107ec5780637dc38ab91461081b578063838e2049146108da5780638512153f146109115780638ecb72d114610972578063918f8674146109c957806392f1c2b4146109f45780639d9c941914610a57578063a082c86e14610af7578063a15ff0c314610b22578063a315c91b14610b71578063cd7543c014610bc4578063dd67b1a014610bf9578063ed03f56314610caa578063f47932ad14610cd5578063f487b28e14610d0a578063f4c163a414610dad578063fb0cd20f14610de4578063fb1d501014610e95575b6000601460009054906101000a900473ffffffffffffffffffffffffffffffffffffffff1690506040513660008237368101806040526040813684866107d05a03f43d806000843e8160008114610222578184f35b600080fd5b34801561023357600080fd5b5061023c610ec0565b60405180826000191660001916815260200191505060405180910390f35b34801561026657600080fd5b5061029b600480360381019080803573ffffffffffffffffffffffffffffffffffffffff169060200190929190505050610ec6565b604051808215151515815260200191505060405180910390f35b3480156102c157600080fd5b506102ca610ee6565b604051808262ffffff1662ffffff16815260200191505060405180910390f35b3480156102f657600080fd5b506102ff610eeb565b6040518082815260200191505060405180910390f35b34801561032157600080fd5b5061032a610ef1565b604051808273ffffffffffffffffffffffffffffffffffffffff1673ffffffffffffffffffffffffffffffffffffffff16815260200191505060405180910390f35b34801561037857600080fd5b506103ad600480360381019080803573ffffffffffffffffffffffffffffffffffffffff169060200190929190505050610f17565b6040518082815260200191505060405180910390f35b3480156103cf57600080fd5b506103d8610f2f565b6040518082815260200191505060405180910390f35b3480156103fa57600080fd5b5061043f600480360381019080803573ffffffffffffffffffffffffffffffffffffffff169060200190929190803563ffffffff169060200190929190505050610f35565b604051808363ffffffff1663ffffffff168152602001826fffffffffffffffffffffffffffffffff166fffffffffffffffffffffffffffffffff1681526020019250505060405180910390f35b34801561049857600080fd5b506104b760048036038101908080359060200190929190505050610f92565b60405180826fffffffffffffffffffffffffffffffff166fffffffffffffffffffffffffffffffff16815260200191505060405180910390f35b3480156104fd57600080fd5b506105066110df565b6040518082815260200191505060405180910390f35b34801561052857600080fd5b506105316110e4565b604051808267ffffffffffffffff1667ffffffffffffffff16815260200191505060405180910390f35b34801561056757600080fd5b5061058a600480360381019080803561ffff1690602001909291905050506110eb565b60405180826fffffffffffffffffffffffffffffffff166fffffffffffffffffffffffffffffffff16815260200191505060405180910390f35b3480156105d057600080fd5b506105d9611196565b6040518082815260200191505060405180910390f35b3480156105fb57600080fd5b5061062960048036038101908080359060200190929190803562ffffff16906020019092919050505061119c565b60405180826fffffffffffffffffffffffffffffffff166fffffffffffffffffffffffffffffffff16815260200191505060405180910390f35b34801561066f57600080fd5b506106786111e3565b60405180826fffffffffffffffffffffffffffffffff166fffffffffffffffffffffffffffffffff16815260200191505060405180910390f35b3480156106be57600080fd5b506106e3600480360381019080803563ffffffff169060200190929190505050611205565b604051808760ff1660ff1681526020018667ffffffffffffffff1667ffffffffffffffff168152602001856fffffffffffffffffffffffffffffffff166fffffffffffffffffffffffffffffffff168152602001846000191660001916815260200183600019166000191681526020018273ffffffffffffffffffffffffffffffffffffffff1673ffffffffffffffffffffffffffffffffffffffff168152602001965050505050505060405180910390f35b3480156107a257600080fd5b506107ab61129e565b6040518082815260200191505060405180910390f35b3480156107cd57600080fd5b506107d66112a4565b6040518082815260200191505060405180910390f35b3480156107f857600080fd5b506108016112a9565b604051808215151515815260200191505060405180910390f35b34801561082757600080fd5b5061084b600480360381019080803562ffffff1690602001909291905050506112bc565b604051808760ff1660ff1681526020018663ffffffff1663ffffffff1681526020018573ffffffffffffffffffffffffffffffffffffffff1673ffffffffffffffffffffffffffffffffffffffff1681526020018481526020018363ffffffff1663ffffffff1681526020018263ffffffff1663ffffffff168152602001965050505050505060405180910390f35b3480156108e657600080fd5b506108ef611355565b604051808263ffffffff1663ffffffff16815260200191505060405180910390f35b34801561091d57600080fd5b50610952600480360381019080803573ffffffffffffffffffffffffffffffffffffffff16906020019092919050505061136b565b604051808262ffffff1662ffffff16815260200191505060405180910390f35b34801561097e57600080fd5b5061098761138d565b604051808273ffffffffffffffffffffffffffffffffffffffff1673ffffffffffffffffffffffffffffffffffffffff16815260200191505060405180910390f35b3480156109d557600080fd5b506109de6113b3565b6040518082815260200191505060405180910390f35b348015610a0057600080fd5b50610a55600480360381019080803563ffffffff1690602001909291908061010001906008806020026040519081016040528092919082600860200280828437820191505050505091929192905050506113bc565b005b348015610a6357600080fd5b50610a826004803603810190808035906020019092919050505061195b565b604051808560ff1660ff1681526020018463ffffffff1663ffffffff1681526020018367ffffffffffffffff1667ffffffffffffffff168152602001826fffffffffffffffffffffffffffffffff166fffffffffffffffffffffffffffffffff16815260200194505050505060405180910390f35b348015610b0357600080fd5b50610b0c6119d8565b6040518082815260200191505060405180910390f35b348015610b2e57600080fd5b50610b376119de565b60405180826fffffffffffffffffffffffffffffffff166fffffffffffffffffffffffffffffffff16815260200191505060405180910390f35b348015610b7d57600080fd5b50610bae60048036038101908080356fffffffffffffffffffffffffffffffff169060200190929190505050611a00565b6040518082815260200191505060405180910390f35b348015610bd057600080fd5b50610bd9611a23565b604051808262ffffff1662ffffff16815260200191505060405180910390f35b348015610c0557600080fd5b50610c8c600480360381019080803563ffffffff16906020019092919080356fffffffffffffffffffffffffffffffff169060200190929190803590602001908201803590602001908080601f0160208091040260200160405190810160405280939291908181526020018383808284378201915050505050509192919290505050611a28565b60405180826000191660001916815260200191505060405180910390f35b348015610cb657600080fd5b50610cbf611c3c565b6040518082815260200191505060405180910390f35b348015610ce157600080fd5b50610cea611c42565b604051808262ffffff1662ffffff16815260200191505060405180910390f35b348015610d1657600080fd5b50610dab600480360381019080803563ffffffff16906020019092919080356fffffffffffffffffffffffffffffffff169060200190929190803590602001908201803590602001908080601f01602080910402602001604051908101604052809392919081815260200183838082843782019150505050505091929192908035600019169060200190929190505050611c57565b005b348015610db957600080fd5b50610dc2611ffd565b604051808263ffffffff1663ffffffff16815260200191505060405180910390f35b348015610df057600080fd5b50610e0f60048036038101908080359060200190929190505050612012565b604051808660ff1660ff1681526020018562ffffff1662ffffff1681526020018463ffffffff1663ffffffff1681526020018367ffffffffffffffff1667ffffffffffffffff168152602001826fffffffffffffffffffffffffffffffff166fffffffffffffffffffffffffffffffff1681526020019550505050505060405180910390f35b348015610ea157600080fd5b50610eaa6120a4565b6040518082815260200191505060405180910390f35b60065481565b60016020528060005260406000206000915054906101000a900460ff1681565b600081565b60075481565b601460009054906101000a900473ffffffffffffffffffffffffffffffffffffffff1681565b60026020528060005260406000206000915090505481565b600d5481565b6012602052816000526040600020602052806000526040600020600091509150508060000160009054906101000a900463ffffffff16908060000160049054906101000a90046fffffffffffffffffffffffffffffffff16905082565b600080600064e8d4a51000915060008285811515610fac57fe5b06141515611048576040517f08c379a00000000000000000000000000000000000000000000000000000000081526004018080602001828103825260298152602001807f616d6f756e74206861732068696768657220707265636973696f6e207468616e81526020017f20706f737369626c65000000000000000000000000000000000000000000000081525060400191505060405180910390fd5b818481151561105357fe5b049050608060019060020a02811015156110d5576040517f08c379a000000000000000000000000000000000000000000000000000000000815260040180806020018281038252601a8152602001807f6465706f73697420616d6f756e7420697320746f6f206869676800000000000081525060200191505060405180910390fd5b8092505050919050565b600181565b6201518081565b600080600080600080935060019250600091505b600582101561113a57600082600f0360019060020a028761ffff161611156111275782840193505b60028302925081806001019250506110ff565b83600a0a93506000905060019250600091505b600b82101561118857600082600a0360019060020a028761ffff161611156111755782810190505b600283029250818060010192505061114d565b808402945050505050919050565b600e5481565b600b602052816000526040600020602052806000526040600020600091509150508060000160009054906101000a90046fffffffffffffffffffffffffffffffff16905081565b601060009054906101000a90046fffffffffffffffffffffffffffffffff1681565b60006020528060005260406000206000915090508060000160009054906101000a900460ff16908060000160019054906101000a900467ffffffffffffffff16908060000160099054906101000a90046fffffffffffffffffffffffffffffffff16908060010154908060020154908060030160009054906101000a900473ffffffffffffffffffffffffffffffffffffffff16905086565b60095481565b608081565b600560009054906101000a900460ff1681565b60046020528060005260406000206000915090508060000160009054906101000a900460ff16908060000160019054906101000a900463ffffffff16908060000160059054906101000a900473ffffffffffffffffffffffffffffffffffffffff16908060010154908060020160009054906101000a900463ffffffff16908060020160049054906101000a900463ffffffff16905086565b600560019054906101000a900463ffffffff1681565b60036020528060005260406000206000915054906101000a900462ffffff1681565b601360009054906101000a900473ffffffffffffffffffffffffffffffffffffffff1681565b64e8d4a5100081565b6113c4613edc565b600060011515600160003373ffffffffffffffffffffffffffffffffffffffff1673ffffffffffffffffffffffffffffffffffffffff16815260200190815260200160002060009054906101000a900460ff1615151415156114b4576040517f08c379a00000000000000000000000000000000000000000000000000000000081526004018080602001828103825260258152602001807f73656e6465722073686f756c64206265206f6e65206f6620746865206f70657281526020017f61746f727300000000000000000000000000000000000000000000000000000081525060400191505060405180910390fd5b600560019054906101000a900463ffffffff1663ffffffff166005809054906101000a900463ffffffff1663ffffffff1610151561155a576040517f08c379a000000000000000000000000000000000000000000000000000000000815260040180806020018281038252601c8152602001807f6e6f20636f6d6d697474656420626c6f636b20746f207665726966790000000081525060200191505060405180910390fd5b60016005809054906101000a900463ffffffff160163ffffffff168463ffffffff161415156115f1576040517f08c379a000000000000000000000000000000000000000000000000000000000815260040180806020018281038252601a8152602001807f6d6179206f6e6c7920766572696679206e65787420626c6f636b00000000000081525060200191505060405180910390fd5b6000808563ffffffff1663ffffffff16815260200190815260200160002060c060405190810160405290816000820160009054906101000a900460ff1660ff1660ff1681526020016000820160019054906101000a900467ffffffffffffffff1667ffffffffffffffff1667ffffffffffffffff1681526020016000820160099054906101000a90046fffffffffffffffffffffffffffffffff166fffffffffffffffffffffffffffffffff166fffffffffffffffffffffffffffffffff1681526020016001820154600019166000191681526020016002820154600019166000191681526020016003820160009054906101000a900473ffffffffffffffffffffffffffffffffffffffff1673ffffffffffffffffffffffffffffffffffffffff1673ffffffffffffffffffffffffffffffffffffffff168152505091506001600281111561173d57fe5b60ff16826000015160ff161415156117e3576040517f08c379a00000000000000000000000000000000000000000000000000000000081526004018080602001828103825260398152602001807f747279696e6720746f2070726f76652074686520696e76616c6964206369726381526020017f75697420666f72207468697320626c6f636b206e756d6265720000000000000081525060400191505060405180910390fd5b6117fb600184600654856060015186608001516120aa565b9050801515611872576040517f08c379a000000000000000000000000000000000000000000000000000000000815260040180806020018281038252600d8152602001807f696e76616c69642070726f6f660000000000000000000000000000000000000081525060200191505060405180910390fd5b8363ffffffff167fca558d7524956f89ce1ec833efe8a265ed2b1e92b20ff4fe2fb87fb1a042e52460405160405180910390a260058081819054906101000a900463ffffffff168092919060010191906101000a81548163ffffffff021916908363ffffffff1602179055505081606001516006816000191690555081604001516fffffffffffffffffffffffffffffffff16600260008460a0015173ffffffffffffffffffffffffffffffffffffffff1673ffffffffffffffffffffffffffffffffffffffff1681526020019081526020016000206000828254019250508190555050505050565b60116020528060005260406000206000915090508060000160009054906101000a900460ff16908060000160019054906101000a900463ffffffff16908060000160059054906101000a900467ffffffffffffffff169080600001600d9054906101000a90046fffffffffffffffffffffffffffffffff16905084565b610e1081565b600a60009054906101000a90046fffffffffffffffffffffffffffffffff1681565b600064e8d4a51000826fffffffffffffffffffffffffffffffff16029050919050565b600181565b600080600060028663ffffffff16866fffffffffffffffffffffffffffffffff1660405160200180838152602001828152602001925050506040516020818303038152906040526040518082805190602001908083835b602083101515611aa45780518252602082019150602081019050602083039250611a7f565b6001836020036101000a0380198251168184511680821785525050505050509050019150506020604051808303816000865af1158015611ae8573d6000803e3d6000fd5b5050506040513d6020811015611afd57600080fd5b810190808051906020019092919050505091506002828560405160200180836000191660001916815260200182805190602001908083835b602083101515611b5a5780518252602082019150602081019050602083039250611b35565b6001836020036101000a038019825116818451168082178552505050505050905001925050506040516020818303038152906040526040518082805190602001908083835b602083101515611bc45780518252602082019150602081019050602083039250611b9f565b6001836020036101000a0380198251168184511680821785525050505050509050019150506020604051808303816000865af1158015611c08573d6000803e3d6000fd5b5050506040513d6020811015611c1d57600080fd5b8101908080519060200190929190505050905080925050509392505050565b600f5481565b600a60109054906101000a900462ffffff1681565b600060011515600160003373ffffffffffffffffffffffffffffffffffffffff1673ffffffffffffffffffffffffffffffffffffffff16815260200190815260200160002060009054906101000a900460ff161515141515611d47576040517f08c379a00000000000000000000000000000000000000000000000000000000081526004018080602001828103825260258152602001807f73656e6465722073686f756c64206265206f6e65206f6620746865206f70657281526020017f61746f727300000000000000000000000000000000000000000000000000000081525060400191505060405180910390fd5b6001600560019054906101000a900463ffffffff160163ffffffff168563ffffffff16141515611ddf576040517f08c379a000000000000000000000000000000000000000000000000000000000815260040180806020018281038252601a8152602001807f6d6179206f6e6c7920636f6d6d6974206e65787420626c6f636b00000000000081525060200191505060405180910390fd5b611dea858585611a28565b905060c06040519081016040528060016002811115611e0557fe5b60ff168152602001610e10420167ffffffffffffffff168152602001856fffffffffffffffffffffffffffffffff16815260200183600019168152602001826000191681526020013373ffffffffffffffffffffffffffffffffffffffff168152506000808763ffffffff1663ffffffff16815260200190815260200160002060008201518160000160006101000a81548160ff021916908360ff16021790555060208201518160000160016101000a81548167ffffffffffffffff021916908367ffffffffffffffff16021790555060408201518160000160096101000a8154816fffffffffffffffffffffffffffffffff02191690836fffffffffffffffffffffffffffffffff160217905550606082015181600101906000191690556080820151816002019060001916905560a08201518160030160006101000a81548173ffffffffffffffffffffffffffffffffffffffff021916908373ffffffffffffffffffffffffffffffffffffffff1602179055509050508463ffffffff167fdf39762be389bd636a9efb2e4f3b26ac7d22eda4f0840f389209987a09e50fc960405160405180910390a2611fbb8584612222565b6005600181819054906101000a900463ffffffff168092919060010191906101000a81548163ffffffff021916908363ffffffff160217905550505050505050565b6005809054906101000a900463ffffffff1681565b600c6020528060005260406000206000915090508060000160009054906101000a900460ff16908060000160019054906101000a900462ffffff16908060000160049054906101000a900463ffffffff16908060000160089054906101000a900467ffffffffffffffff16908060000160109054906101000a90046fffffffffffffffffffffffffffffffff16905085565b60085481565b6000806120b5613f4e565b60608060036000199060020a90049350600060028111156120d257fe5b8a60028111156120de57fe5b14156120f9576120ec61288a565b809350819450505061216b565b6001600281111561210657fe5b8a600281111561211257fe5b141561212d57612120612dd9565b809350819450505061216a565b60028081111561213957fe5b8a600281111561214557fe5b141561216057612153613328565b8093508194505050612169565b60009450612215565b5b5b600360405190808252806020026020018201604052801561219b5781602001602082028038833980820191505090505b50905087600190048160008151811015156121b257fe5b906020019060200201818152505086600190048160018151811015156121d457fe5b9060200190602002018181525050838660019004168160028151811015156121f857fe5b906020019060200201818152505061221283838b84613877565b94505b5050505095945050505050565b600080600080600080600080612236613f72565b60008060209950600094505b60098c5181151561224f57fe5b0485101561287b57898c01519a5060098a01995060e860188c9060020a029060020a9004985060008962ffffff16141561286d5760e88b9060020a9004975060008862ffffff1614156122a15761286e565b60f060308c9060020a029060020a90049550600460008962ffffff1662ffffff1681526020019081526020016000209350600073ffffffffffffffffffffffffffffffffffffffff168460000160059054906101000a900473ffffffffffffffffffffffffffffffffffffffff1673ffffffffffffffffffffffffffffffffffffffff1614156123305761286e565b612339866110eb565b965060008460020160049054906101000a900463ffffffff1663ffffffff1614156124a0576040805190810160405280600063ffffffff168152602001886fffffffffffffffffffffffffffffffff16815250925082601260008660000160059054906101000a900473ffffffffffffffffffffffffffffffffffffffff1673ffffffffffffffffffffffffffffffffffffffff1673ffffffffffffffffffffffffffffffffffffffff16815260200190815260200160002060008f63ffffffff1663ffffffff16815260200190815260200160002060008201518160000160006101000a81548163ffffffff021916908363ffffffff16021790555060208201518160000160046101000a8154816fffffffffffffffffffffffffffffffff02191690836fffffffffffffffffffffffffffffffff1602179055509050508c8460020160046101000a81548163ffffffff021916908363ffffffff1602179055506127b7565b8c63ffffffff168460020160049054906101000a900463ffffffff1663ffffffff1614156125bf57601260008560000160059054906101000a900473ffffffffffffffffffffffffffffffffffffffff1673ffffffffffffffffffffffffffffffffffffffff1673ffffffffffffffffffffffffffffffffffffffff16815260200190815260200160002060008560020160049054906101000a900463ffffffff1663ffffffff1663ffffffff1681526020019081526020016000209150868260000160048282829054906101000a90046fffffffffffffffffffffffffffffffff160192506101000a8154816fffffffffffffffffffffffffffffffff02191690836fffffffffffffffffffffffffffffffff1602179055506127b6565b601260008560000160059054906101000a900473ffffffffffffffffffffffffffffffffffffffff1673ffffffffffffffffffffffffffffffffffffffff1673ffffffffffffffffffffffffffffffffffffffff16815260200190815260200160002060008560020160049054906101000a900463ffffffff1663ffffffff1663ffffffff16815260200190815260200160002090506040805190810160405280600063ffffffff168152602001886fffffffffffffffffffffffffffffffff1681525092508c8160000160006101000a81548163ffffffff021916908363ffffffff16021790555082601260008660000160059054906101000a900473ffffffffffffffffffffffffffffffffffffffff1673ffffffffffffffffffffffffffffffffffffffff1673ffffffffffffffffffffffffffffffffffffffff16815260200190815260200160002060008f63ffffffff1663ffffffff16815260200190815260200160002060008201518160000160006101000a81548163ffffffff021916908363ffffffff16021790555060208201518160000160046101000a8154816fffffffffffffffffffffffffffffffff02191690836fffffffffffffffffffffffffffffffff1602179055509050508c8460020160046101000a81548163ffffffff021916908363ffffffff1602179055505b5b60008460020160009054906101000a900463ffffffff1663ffffffff1614156127fe578c8460020160006101000a81548163ffffffff021916908363ffffffff1602179055505b8c63ffffffff168460000160059054906101000a900473ffffffffffffffffffffffffffffffffffffffff1673ffffffffffffffffffffffffffffffffffffffff167f6030852c9631bc119530851caef56a18b04441ffde1a59c38e046ea25d001e7860405160405180910390a35b5b8480600101955050612242565b50505050505050505050505050565b612892613f4e565b60607f2806ceee6e1d1eb6f31ff675b92143dba13b3fbad614f843f5c3afd6568b205a826000600e811015156128c457fe5b6020020181815250507f122808a613a8f598c4b867f4b2ff0d43f0bb6d88eeb8ee75eb6f24d359bbf8e0826001600e811015156128fd57fe5b6020020181815250507f22448ceb94acf3cd1d15bcaa5b0fea9b93517c5845177e084089d9ee6d79ff50826002600e8110151561293657fe5b6020020181815250507f031a214677d973a795d26219598bb0512ea0dc76e75dbce39cbc9d9b17a2cc8c826003600e8110151561296f57fe5b6020020181815250507f0a9a3bef0fd1d79ae409f82733e8e462b75ff5f05bea6422066b95ca9e02c9dd826004600e811015156129a857fe5b6020020181815250507f0c6fa2f476a8f04a57dbcb68e2425440062630c908d6e198c875d875130025e9826005600e811015156129e157fe5b6020020181815250507f0ae5cc9692f99a91d35fe9abfd2e3786b3ad14b327d0fb9e51c514f0bd95959c826006600e81101515612a1a57fe5b6020020181815250507f1d3950dce5e030d612b1167e70c34ab4cf1d9c4320206047652747915ed67097826007600e81101515612a5357fe5b6020020181815250507f0a9138320c05f4c5d26da0bc8d508398b027cabffd4dd36fb65f29d9fa3cc3dd826008600e81101515612a8c57fe5b6020020181815250507f2a5daa065c803df8f429e946f2c5700026c2d12dc172e192d270dc73fdc8cc39826009600e81101515612ac557fe5b6020020181815250507f27863bde61126110d0d6f2f31947e2f63c3cdd6594caf3ec225babfa7afa4f2382600a600e81101515612afe57fe5b6020020181815250507f20fd57765a2d6a84f2bee03afefaf5bd42fb5804b8a5c0874762d19afafc1f4182600b600e81101515612b3757fe5b6020020181815250507f0b451a37fed071dd2ae876826a32f4fe0a58d990c624cfde92096cc2b3fd4a0882600c600e81101515612b7057fe5b6020020181815250507f2920445cbffbb49c761e20d864dccf560258c3cd7302773accaa7d78aa206ba982600d600e81101515612ba957fe5b6020020181815250506008604051908082528060200260200182016040528015612be25781602001602082028038833980820191505090505b5090507f2d8c931ff562a4d5a349685f6fdf2a30a0883e2cfcb8a27a642687a411895577816000815181101515612c1557fe5b90602001906020020181815250507f2530d4a3fcaea9d34725f2f02100be77a511c2a507e084e6e379e068d4cde559816001815181101515612c5357fe5b90602001906020020181815250507f01e3781d1f0a0f6beac8e3aa47a8c509d80406326c5c4594aa04f4c0f9b0138a816002815181101515612c9157fe5b90602001906020020181815250507f235683ea39dc02e4919b9f99e14c927399f26c3c24935caf3d7f745377fd7629816003815181101515612ccf57fe5b90602001906020020181815250507f2fbf7af8adca023e9744087f7845cc19f2bdb9cbba20c57dc77edaa6115625fb816004815181101515612d0d57fe5b90602001906020020181815250507f1c3ad616391a8022720659ceb30a65391117df3b0e501f0e19d99800fea0d662816005815181101515612d4b57fe5b90602001906020020181815250507f1bc9897f50972e9924dfcc9dc9c9104c50588c168b7e137526f9ab8cfdc62482816006815181101515612d8957fe5b90602001906020020181815250507f04f9efe4f42e792c6abffbb1b5431a71f8b7712a3e65011f07c7bb348914d0d0816007815181101515612dc757fe5b90602001906020020181815250509091565b612de1613f4e565b60607f20fabca7a936d76e2de75f334d12408a85a3038b2c748e884a7d10b6c8e785ae826000600e81101515612e1357fe5b6020020181815250507f05b7926cd85113320bdad329a22fa8a7bb13fee4e5ae784441c975f7be24b144826001600e81101515612e4c57fe5b6020020181815250507f17f95798ad37dc5d5842e0a25085bb7091525e5a19a4e664c4325d43996733bb826002600e81101515612e8557fe5b6020020181815250507f02943aa487fcc67df949c6e2481e6a61b992ce4ad6f5d92372f59b93d15c0d30826003600e81101515612ebe57fe5b6020020181815250507f0131b8773666df90359fdbe663c451881a09b24df4564be75dd86ceb485bc16c826004600e81101515612ef757fe5b6020020181815250507f091b92109b2c58ee59d43f1646b910e20203dcb95676b139509886a314e00806826005600e81101515612f3057fe5b6020020181815250507f18d2e27fdde751997e5ac3146a828702404f47c56072d5fd9e628bd9d00b5aac826006600e81101515612f6957fe5b6020020181815250507f0cf19a2bf4b4e09843df3cd201709e55ae3a5ff31d8b59cd89d7b6eb06b98703826007600e81101515612fa257fe5b6020020181815250507f14eaf5b1216b2adc72b75a80df5c202eb16953605656165177035432a6f88b8f826008600e81101515612fdb57fe5b6020020181815250507f0f19e2b9bb71cab73500652d5728fe94843dcef2e73a2fd97739f6e8fd83369a826009600e8110151561301457fe5b6020020181815250507f0135e689579dbf14165032a60d35c70c95fc8fcf56f16a5335c62ef49e4fdfc482600a600e8110151561304d57fe5b6020020181815250507f196c80c924953fae60eb1c57c03beed305ed22454b359ade4265a434f6aef11482600b600e8110151561308657fe5b6020020181815250507f0a282bf79f6d625029d9746a596c33e286ec52ba4fd14c87577b39cdbc656dbc82600c600e811015156130bf57fe5b6020020181815250507f216dd1c95ba7a7408e093cb8010c09addcb31e54d9ac23493341660ce3b9d74282600d600e811015156130f857fe5b60200201818152505060086040519080825280602002602001820160405280156131315781602001602082028038833980820191505090505b5090507f29c50e44a59741be3b553316fa0181329ec5275b046bb428eb3e041a1d6a401781600081518110151561316457fe5b90602001906020020181815250507f1f799ade5130abbb234abfaa536226b602cd2e2e77c3afb5c6c29bb7835117b18160018151811015156131a257fe5b90602001906020020181815250507f20ca58d0e2b5c393272802f45e7fef3d27efa2696c0be7bd7f31435b3403acbd8160028151811015156131e057fe5b90602001906020020181815250507f2b7f914981d405bc613a0c2c3accb5ac825b900ddbef5b7689567e0ffdf8406081600381518110151561321e57fe5b90602001906020020181815250507f0be03143ab86092d0872260b1ed87202fd2816e0ddc15e4dda842688ff3f8bba81600481518110151561325c57fe5b90602001906020020181815250507f1c4900581b3dc146c77b6bf15ceffd90ca3d34fd69b393ee562e8cc614decf9181600581518110151561329a57fe5b90602001906020020181815250507f1261a3e53a4815cb7237aa39113f0dd33d7464e80a317a1a35ed33a2170535848160068151811015156132d857fe5b90602001906020020181815250507f17599c2506b56e759ba24bf30920525cfd12337392ed0cebc0b851a142802ca081600781518110151561331657fe5b90602001906020020181815250509091565b613330613f4e565b60607f08730c8e1cbb3eb57ea2c4d8d5c48fc56aa910d331ef8723e74c9e5750fb943a826000600e8110151561336257fe5b6020020181815250507f29d8dc5dd6f9b1a692a37c4982faa894119b98dbc35fe5b0e20363ffce6c5fea826001600e8110151561339b57fe5b6020020181815250507f016411e5a45fa79352c47a455eeaddb12059d5bb5579487e8abb4ffd2f472c5a826002600e811015156133d457fe5b6020020181815250507f27084dc459b5dd6d1c60cccda8d78a80755ae23436dd44aca13d44962dea244a826003600e8110151561340d57fe5b6020020181815250507f16c4a816a173596179da516fcc694c68878da66042afe8c35f098742482ab0a0826004600e8110151561344657fe5b6020020181815250507f02318a621109b9e543cc09e7bcde9cfe15386429572fb31d08c88a42b418fe8e826005600e8110151561347f57fe5b6020020181815250507f0f10cfbdfaf1753d7214d6d0f2644458bddd10ab5619d19e7e41ac709b30b3ef826006600e811015156134b857fe5b6020020181815250507f21f68a12e4e0ce060910e1335703431d20ce5ac7109baa52e34423fdcc659c54826007600e811015156134f157fe5b6020020181815250507f2c505db2e660d4ea4e6f41e0f3b921c8358d6b3bcedaaf8349f01fbf56b03d4f826008600e8110151561352a57fe5b6020020181815250507f0733f6edbaef053203c0654afd9eea4b8909c88473b1f1aa72afdd5a4cded36e826009600e8110151561356357fe5b6020020181815250507f1a4c2e2c731b7de65f7b0cad686b5c7964fe162741385a33c72b08c903791e2982600a600e8110151561359c57fe5b6020020181815250507f1efc25b88bfac326220c61f7ab065be1c77af7b74f67f63262c2e66613eebdac82600b600e811015156135d557fe5b6020020181815250507f264f4171cfa70441d121f28ce3c8186fa9011a9a2611ce7c920cba0d8cb3f82682600c600e8110151561360e57fe5b6020020181815250507f126ba4be6253be58ceb3bb5bf94045b310baea07bc35d669283a10ffdf90853082600d600e8110151561364757fe5b60200201818152505060086040519080825280602002602001820160405280156136805781602001602082028038833980820191505090505b5090507f01b0002b9d1ceb70fe45b66103672ab9500327509572c1701d3250b00c299e888160008151811015156136b357fe5b90602001906020020181815250507f080c6552831b1c735ac286a537343522bd10083d3b3fed202ffae1e83ff87cc08160018151811015156136f157fe5b90602001906020020181815250507f2e13eae69b931076d3e4ce5a0764aabf54030b14f53653627d13def87840df0781600281518110151561372f57fe5b90602001906020020181815250507f0b2032652364ded806919e92594a508eafae7eabb42bb6e731c1bfc0b3918b6c81600381518110151561376d57fe5b90602001906020020181815250507f024ba284020edb04f39d1eeeccc5f826826086f2bac64e0b233114cd523043e48160048151811015156137ab57fe5b90602001906020020181815250507f082cb9dada50204406112d784129e28ce9fea7d999f0540fe36131aee46ad6328160058151811015156137e957fe5b90602001906020020181815250507f2b661ab87456646811a53fbb055addc96eef2396827889305bf2ce7ab8c1ea4481600681518110151561382757fe5b90602001906020020181815250507f118ee65eb15ec1db1b648d4c64e490977198de8a01580399d5a3835576d602b981600781518110151561386557fe5b90602001906020020181815250509091565b6000613881613fa4565b613889613fc7565b6000806000613896613fea565b61389e61400e565b8851600160028d518115156138af57fe5b0403141515613926576040517f08c379a000000000000000000000000000000000000000000000000000000000815260040180806020018281038252601f8152602001807f496e76616c6964206e756d626572206f66207075626c696320696e707574730081525060200191505060405180910390fd5b600293508a600081518110151561393957fe5b9060200190602002015186600060048110151561395257fe5b6020020181815250508a600181518110151561396a57fe5b9060200190602002015186600160048110151561398357fe5b602002018181525050600092505b8851831015613b4f578a848060010195508151811015156139ae57fe5b906020019060200201518760006003811015156139c757fe5b6020020181815250508a848060010195508151811015156139e457fe5b906020019060200201518760016003811015156139fd57fe5b6020020181815250508883815181101515613a1457fe5b90602001906020020151876002600381101515613a2d57fe5b602002018181525050604080870160608960076107d05a03fa9450841515613abd576040517f08c379a000000000000000000000000000000000000000000000000000000000815260040180806020018281038252601f8152602001807f4661696c656420746f2063616c6c2045434d554c20707265636f6d70696c650081525060200191505060405180910390fd5b60408660808860066107d05a03fa9450841515613b42576040517f08c379a000000000000000000000000000000000000000000000000000000000815260040180806020018281038252601f8152602001807f4661696c656420746f2063616c6c20454341444420707265636f6d70696c650081525060200191505060405180910390fd5b8280600101935050613991565b610300604051908101604052808b6000600881101515613b6b57fe5b602002015181526020018b6001600881101515613b8457fe5b602002015181526020018b6002600881101515613b9d57fe5b602002015181526020018b6003600881101515613bb657fe5b602002015181526020018b6004600881101515613bcf57fe5b602002015181526020018b6005600881101515613be857fe5b602002015181526020018d6000600e81101515613c0157fe5b60200201518152602001613c278e6001600e81101515613c1d57fe5b6020020151613ea0565b81526020018d6002600e81101515613c3b57fe5b602002015181526020018d6003600e81101515613c5457fe5b602002015181526020018d6004600e81101515613c6d57fe5b602002015181526020018d6005600e81101515613c8657fe5b60200201518152602001876000600481101515613c9f57fe5b60200201518152602001613cc5886001600481101515613cbb57fe5b6020020151613ea0565b81526020018d6006600e81101515613cd957fe5b602002015181526020018d6007600e81101515613cf257fe5b602002015181526020018d6008600e81101515613d0b57fe5b602002015181526020018d6009600e81101515613d2457fe5b602002015181526020018b6006600881101515613d3d57fe5b60200201518152602001613d638c6007600881101515613d5957fe5b6020020151613ea0565b81526020018d600a600e81101515613d7757fe5b602002015181526020018d600b600e81101515613d9057fe5b602002015181526020018d600c600e81101515613da957fe5b602002015181526020018d600d600e81101515613dc257fe5b602002015181525091506020816103008460086107d05a03fa9450841515613e78576040517f08c379a00000000000000000000000000000000000000000000000000000000081526004018080602001828103825260218152602001807f4661696c656420746f2063616c6c2070616972696e6720707265636f6d70696c81526020017f650000000000000000000000000000000000000000000000000000000000000081525060400191505060405180910390fd5b6001816000600181101515613e8957fe5b602002015114975050505050505050949350505050565b6000807f30644e72e131a029b85045b68181585d97816a916871ca8d3c208c16d87cfd4790508083811515613ed157fe5b068103915050919050565b60c060405190810160405280600060ff168152602001600067ffffffffffffffff16815260200160006fffffffffffffffffffffffffffffffff1681526020016000801916815260200160008019168152602001600073ffffffffffffffffffffffffffffffffffffffff1681525090565b6101c060405190810160405280600e90602082028038833980820191505090505090565b6040805190810160405280600063ffffffff16815260200160006fffffffffffffffffffffffffffffffff1681525090565b606060405190810160405280600390602082028038833980820191505090505090565b608060405190810160405280600490602082028038833980820191505090505090565b61030060405190810160405280601890602082028038833980820191505090505090565b6020604051908101604052806001906020820280388339808201915050905050905600a165627a7a72305820ebab7e9f322f18213c691bbbc5653f709c9f50d47f9ade760becac32ea28122f0029",
  "source": "pragma solidity ^0.4.24;\n\nimport {Plasma} from \"./Plasma.sol\";\n\ncontract PlasmaTransactor is Plasma {\n\n    function commitTransferBlock(\n        uint32 blockNumber, \n        uint128 totalFees, \n        bytes memory txDataPacked, \n        bytes32 newRoot\n    ) \n    public \n    operator_only \n    {\n        require(blockNumber == lastCommittedBlockNumber + 1, \"may only commit next block\");\n\n        // create now commitments and write to storage\n        bytes32 publicDataCommitment = createPublicDataCommitmentForTransfer(blockNumber, totalFees, txDataPacked);\n\n        blocks[blockNumber] = Block(\n            uint8(Circuit.TRANSFER), \n            uint64(block.timestamp + DEADLINE), \n            totalFees, \n            newRoot, \n            publicDataCommitment, \n            msg.sender\n        );\n        emit BlockCommitted(blockNumber);\n        parsePartialExitsBlock(blockNumber, txDataPacked);\n        lastCommittedBlockNumber++;\n    }\n\n    function verifyTransferBlock(uint32 blockNumber, uint256[8] memory proof) public operator_only {\n        require(lastVerifiedBlockNumber < lastCommittedBlockNumber, \"no committed block to verify\");\n        require(blockNumber == lastVerifiedBlockNumber + 1, \"may only verify next block\");\n        Block memory committed = blocks[blockNumber];\n        require(committed.circuit == uint8(Circuit.TRANSFER), \"trying to prove the invalid circuit for this block number\");\n        bool verification_success = verifyProof(\n            Circuit.TRANSFER, \n            proof, \n            lastVerifiedRoot, \n            committed.newRoot, \n            committed.publicDataCommitment\n        );\n        require(verification_success, \"invalid proof\");\n\n        emit BlockVerified(blockNumber);\n        lastVerifiedBlockNumber++;\n        lastVerifiedRoot = committed.newRoot;\n\n        balances[committed.prover] += committed.totalFees;\n    }\n\n    // pure functions to calculate commitment formats\n    function createPublicDataCommitmentForTransfer(uint32 blockNumber, uint128 totalFees, bytes memory txDataPacked)\n    public \n    pure\n    returns (bytes32 h) {\n\n        bytes32 initialHash = sha256(abi.encodePacked(uint256(blockNumber), uint256(totalFees)));\n        bytes32 finalHash = sha256(abi.encodePacked(initialHash, txDataPacked));\n\n        // // this can be used if inside of a SNARK the edge case of transfer \n        // // from 0 to 0 with zero amount and fee\n        // // is properly covered. Account number 0 does NOT have a public key\n        // if (txDataPacked.length / 9 == TRANSFER_BLOCK_SIZE) {\n        //     bytes32 finalHash = sha256(abi.encodePacked(initialHash, txDataPacked));\n        // } else {\n        //     // do the ad-hoc padding with zeroes\n        //     bytes32 finalHash = sha256(abi.encodePacked(initialHash, txDataPacked, new bytes(TRANSFER_BLOCK_SIZE * 9 - txDataPacked.length)));\n        // }\n        \n        return finalHash;\n    }\n\n    // parse every tx in a block and of destination == 0 - write a partial exit information\n    function parsePartialExitsBlock(\n        uint32 blockNumber,\n        bytes memory txDataPacked\n    )\n    internal\n    {\n        uint256 chunk;\n        uint256 pointer = 32;\n        uint24 to;\n        uint24 from;\n        uint128 scaledAmount;\n        uint16 floatValue;\n        // there is no check for a length of the public data because it's not provable if broken\n        // unless sha256 collision is found\n        for (uint256 i = 0; i < txDataPacked.length / 9; i++) { \n            assembly {\n                chunk := mload(add(txDataPacked, pointer))\n            }\n            pointer += 9;\n            to = uint24((chunk << 24) >> 232);\n            if (to == 0) {\n                from = uint24(chunk >> 232);\n                if (from == 0) {\n                    continue;\n                }\n                floatValue = uint16((chunk << 48) >> 240);\n                Account storage account = accounts[from];\n                if (account.owner == address(0)) {\n                    continue;\n                }\n\n                scaledAmount = parseFloat(floatValue);\n\n                ExitLeaf memory newLeaf;\n                if (account.exitListTail == 0) {\n                    // create a fresh list that is both head and tail\n                    newLeaf = ExitLeaf(0, scaledAmount);\n                    exitLeafs[account.owner][blockNumber] = newLeaf;\n                    account.exitListTail = blockNumber;\n                } else {\n                    // such global \"else\" is intentional, otherwise account.exitListTail == blockNumber will\n                    // happen after the assignment above\n                    if (account.exitListTail == blockNumber) {\n                        // to exits in the same block, happens\n                        ExitLeaf storage thisExitLeaf = exitLeafs[account.owner][account.exitListTail];\n                        thisExitLeaf.amount += scaledAmount;\n                    } else {\n                        // previous tail is somewhere in the past\n                        ExitLeaf storage previousExitLeaf = exitLeafs[account.owner][account.exitListTail];\n                        newLeaf = ExitLeaf(0, scaledAmount);\n                        previousExitLeaf.nextID = blockNumber;\n\n                        exitLeafs[account.owner][blockNumber] = newLeaf;\n                        account.exitListTail = blockNumber;\n                    }\n                }\n\n                // if there was no head - point to here\n                if (account.exitListHead == 0) {\n                    account.exitListHead = blockNumber;\n                }\n\n                // exitAmounts[userAddress][blockNumber] += scaledAmount;\n                emit LogExit(account.owner, blockNumber);\n            }\n        }\n    }\n\n    // parses 5 bits of exponent base 10 and 11 bits of mantissa\n    // there are no overflow checks here cause maximum float value < UINT128_MAX\n    function parseFloat(\n        uint16 float  \n    )\n    public \n    pure\n    returns (uint128 scaledValue)\n    {\n        uint128 exponent = 0;\n        uint128 powerOfTwo = 1;\n        for (uint256 i = 0; i < 5; i++) {\n            if (float & (1 << (15 - i)) > 0) {\n                exponent += powerOfTwo;\n            }\n            powerOfTwo = powerOfTwo * 2;\n        }\n        exponent = uint128(10) ** exponent;\n\n        uint128 mantissa = 0;\n        powerOfTwo = 1;\n        // TODO: change when 0.5.0 is used\n        for (i = 0; i < 11; i++) {\n            if (float & (1 << (10 - i)) > 0) {\n                mantissa += powerOfTwo;\n            }\n            powerOfTwo = powerOfTwo * 2;\n        }\n        return exponent * mantissa;\n    }\n\n    function () external payable {\n        address callee = exitor;\n        assembly {\n            let memoryPointer := mload(0x40)\n            calldatacopy(memoryPointer, 0, calldatasize)\n            let newFreeMemoryPointer := add(memoryPointer, calldatasize)\n            mstore(0x40, newFreeMemoryPointer)\n            let retVal := delegatecall(sub(gas, 2000), callee, memoryPointer, calldatasize, newFreeMemoryPointer, 0x40)\n            let retDataSize := returndatasize\n            returndatacopy(newFreeMemoryPointer, 0, retDataSize)\n            switch retVal case 0 { revert(0,0) } default { return(newFreeMemoryPointer, retDataSize) }\n        }\n    }\n}",
  "sourcePath": "/Users/alex/src/shamatar/zk_stuff/plasma/contracts/contracts/PlasmaTransactor.sol",
  "compiler": {
    "name": "solc",
    "version": "0.4.24+commit.e67f0147.Emscripten.clang"
  },
  "schemaVersion": "3.0.0",
  "updatedAt": "2019-03-29T10:10:40.485Z",
  "devdoc": {
    "methods": {}
  },
  "userdoc": {
    "methods": {}
  }
}