{
  "contractName": "PlasmaStorage",
  "abi": [
    {
      "constant": true,
      "inputs": [],
      "name": "lastVerifiedRoot",
      "outputs": [
        {
          "name": "",
          "type": "bytes32"
        }
      ],
      "payable": false,
      "stateMutability": "view",
      "type": "function"
    },
    {
      "constant": true,
      "inputs": [
        {
          "name": "",
          "type": "address"
        }
      ],
      "name": "operators",
      "outputs": [
        {
          "name": "",
          "type": "bool"
        }
      ],
      "payable": false,
      "stateMutability": "view",
      "type": "function"
    },
    {
      "constant": true,
      "inputs": [],
      "name": "SPECIAL_ACCOUNT_EXITS",
      "outputs": [
        {
          "name": "",
          "type": "uint24"
        }
      ],
      "payable": false,
      "stateMutability": "view",
      "type": "function"
    },
    {
      "constant": true,
      "inputs": [],
      "name": "totalDepositRequests",
      "outputs": [
        {
          "name": "",
          "type": "uint256"
        }
      ],
      "payable": false,
      "stateMutability": "view",
      "type": "function"
    },
    {
      "constant": true,
      "inputs": [],
      "name": "exitor",
      "outputs": [
        {
          "name": "",
          "type": "address"
        }
      ],
      "payable": false,
      "stateMutability": "view",
      "type": "function"
    },
    {
      "constant": true,
      "inputs": [
        {
          "name": "",
          "type": "address"
        }
      ],
      "name": "balances",
      "outputs": [
        {
          "name": "",
          "type": "uint256"
        }
      ],
      "payable": false,
      "stateMutability": "view",
      "type": "function"
    },
    {
      "constant": true,
      "inputs": [],
      "name": "totalExitRequests",
      "outputs": [
        {
          "name": "",
          "type": "uint256"
        }
      ],
      "payable": false,
      "stateMutability": "view",
      "type": "function"
    },
    {
      "constant": true,
      "inputs": [
        {
          "name": "",
          "type": "address"
        },
        {
          "name": "",
          "type": "uint32"
        }
      ],
      "name": "exitLeafs",
      "outputs": [
        {
          "name": "nextID",
          "type": "uint32"
        },
        {
          "name": "amount",
          "type": "uint128"
        }
      ],
      "payable": false,
      "stateMutability": "view",
      "type": "function"
    },
    {
      "constant": true,
      "inputs": [],
      "name": "DEPOSIT_BATCH_SIZE",
      "outputs": [
        {
          "name": "",
          "type": "uint256"
        }
      ],
      "payable": false,
      "stateMutability": "view",
      "type": "function"
    },
    {
      "constant": true,
      "inputs": [],
      "name": "MAX_DELAY",
      "outputs": [
        {
          "name": "",
          "type": "uint64"
        }
      ],
      "payable": false,
      "stateMutability": "view",
      "type": "function"
    },
    {
      "constant": true,
      "inputs": [],
      "name": "lastCommittedExitBatch",
      "outputs": [
        {
          "name": "",
          "type": "uint256"
        }
      ],
      "payable": false,
      "stateMutability": "view",
      "type": "function"
    },
    {
      "constant": true,
      "inputs": [
        {
          "name": "",
          "type": "uint256"
        },
        {
          "name": "",
          "type": "uint24"
        }
      ],
      "name": "depositRequests",
      "outputs": [
        {
          "name": "amount",
          "type": "uint128"
        }
      ],
      "payable": false,
      "stateMutability": "view",
      "type": "function"
    },
    {
      "constant": true,
      "inputs": [],
      "name": "currentExitBatchFee",
      "outputs": [
        {
          "name": "",
          "type": "uint128"
        }
      ],
      "payable": false,
      "stateMutability": "view",
      "type": "function"
    },
    {
      "constant": true,
      "inputs": [
        {
          "name": "",
          "type": "uint32"
        }
      ],
      "name": "blocks",
      "outputs": [
        {
          "name": "circuit",
          "type": "uint8"
        },
        {
          "name": "deadline",
          "type": "uint64"
        },
        {
          "name": "totalFees",
          "type": "uint128"
        },
        {
          "name": "newRoot",
          "type": "bytes32"
        },
        {
          "name": "publicDataCommitment",
          "type": "bytes32"
        },
        {
          "name": "prover",
          "type": "address"
        }
      ],
      "payable": false,
      "stateMutability": "view",
      "type": "function"
    },
    {
      "constant": true,
      "inputs": [],
      "name": "lastVerifiedDepositBatch",
      "outputs": [
        {
          "name": "",
          "type": "uint256"
        }
      ],
      "payable": false,
      "stateMutability": "view",
      "type": "function"
    },
    {
      "constant": true,
      "inputs": [],
      "name": "TRANSFER_BLOCK_SIZE",
      "outputs": [
        {
          "name": "",
          "type": "uint256"
        }
      ],
      "payable": false,
      "stateMutability": "view",
      "type": "function"
    },
    {
      "constant": true,
      "inputs": [],
      "name": "stopped",
      "outputs": [
        {
          "name": "",
          "type": "bool"
        }
      ],
      "payable": false,
      "stateMutability": "view",
      "type": "function"
    },
    {
      "constant": true,
      "inputs": [
        {
          "name": "",
          "type": "uint24"
        }
      ],
      "name": "accounts",
      "outputs": [
        {
          "name": "state",
          "type": "uint8"
        },
        {
          "name": "exitBatchNumber",
          "type": "uint32"
        },
        {
          "name": "owner",
          "type": "address"
        },
        {
          "name": "publicKey",
          "type": "uint256"
        },
        {
          "name": "exitListHead",
          "type": "uint32"
        },
        {
          "name": "exitListTail",
          "type": "uint32"
        }
      ],
      "payable": false,
      "stateMutability": "view",
      "type": "function"
    },
    {
      "constant": true,
      "inputs": [],
      "name": "lastCommittedBlockNumber",
      "outputs": [
        {
          "name": "",
          "type": "uint32"
        }
      ],
      "payable": false,
      "stateMutability": "view",
      "type": "function"
    },
    {
      "constant": true,
      "inputs": [
        {
          "name": "",
          "type": "address"
        }
      ],
      "name": "ethereumAddressToAccountID",
      "outputs": [
        {
          "name": "",
          "type": "uint24"
        }
      ],
      "payable": false,
      "stateMutability": "view",
      "type": "function"
    },
    {
      "constant": true,
      "inputs": [],
      "name": "transactor",
      "outputs": [
        {
          "name": "",
          "type": "address"
        }
      ],
      "payable": false,
      "stateMutability": "view",
      "type": "function"
    },
    {
      "constant": true,
      "inputs": [],
      "name": "DENOMINATOR",
      "outputs": [
        {
          "name": "",
          "type": "uint256"
        }
      ],
      "payable": false,
      "stateMutability": "view",
      "type": "function"
    },
    {
      "constant": true,
      "inputs": [
        {
          "name": "",
          "type": "uint256"
        }
      ],
      "name": "exitBatches",
      "outputs": [
        {
          "name": "state",
          "type": "uint8"
        },
        {
          "name": "blockNumber",
          "type": "uint32"
        },
        {
          "name": "timestamp",
          "type": "uint64"
        },
        {
          "name": "batchFee",
          "type": "uint128"
        }
      ],
      "payable": false,
      "stateMutability": "view",
      "type": "function"
    },
    {
      "constant": true,
      "inputs": [],
      "name": "DEADLINE",
      "outputs": [
        {
          "name": "",
          "type": "uint256"
        }
      ],
      "payable": false,
      "stateMutability": "view",
      "type": "function"
    },
    {
      "constant": true,
      "inputs": [],
      "name": "currentDepositBatchFee",
      "outputs": [
        {
          "name": "",
          "type": "uint128"
        }
      ],
      "payable": false,
      "stateMutability": "view",
      "type": "function"
    },
    {
      "constant": true,
      "inputs": [],
      "name": "SPECIAL_ACCOUNT_DEPOSITS",
      "outputs": [
        {
          "name": "",
          "type": "uint24"
        }
      ],
      "payable": false,
      "stateMutability": "view",
      "type": "function"
    },
    {
      "constant": true,
      "inputs": [],
      "name": "lastVerifiedExitBatch",
      "outputs": [
        {
          "name": "",
          "type": "uint256"
        }
      ],
      "payable": false,
      "stateMutability": "view",
      "type": "function"
    },
    {
      "constant": true,
      "inputs": [],
      "name": "nextAccountToRegister",
      "outputs": [
        {
          "name": "",
          "type": "uint24"
        }
      ],
      "payable": false,
      "stateMutability": "view",
      "type": "function"
    },
    {
      "constant": true,
      "inputs": [],
      "name": "lastVerifiedBlockNumber",
      "outputs": [
        {
          "name": "",
          "type": "uint32"
        }
      ],
      "payable": false,
      "stateMutability": "view",
      "type": "function"
    },
    {
      "constant": true,
      "inputs": [
        {
          "name": "",
          "type": "uint256"
        }
      ],
      "name": "depositBatches",
      "outputs": [
        {
          "name": "state",
          "type": "uint8"
        },
        {
          "name": "numRequests",
          "type": "uint24"
        },
        {
          "name": "blockNumber",
          "type": "uint32"
        },
        {
          "name": "timestamp",
          "type": "uint64"
        },
        {
          "name": "batchFee",
          "type": "uint128"
        }
      ],
      "payable": false,
      "stateMutability": "view",
      "type": "function"
    },
    {
      "constant": true,
      "inputs": [],
      "name": "lastCommittedDepositBatch",
      "outputs": [
        {
          "name": "",
          "type": "uint256"
        }
      ],
      "payable": false,
      "stateMutability": "view",
      "type": "function"
    },
    {
      "anonymous": false,
      "inputs": [
        {
          "indexed": true,
          "name": "blockNumber",
          "type": "uint32"
        }
      ],
      "name": "BlockCommitted",
      "type": "event"
    },
    {
      "anonymous": false,
      "inputs": [
        {
          "indexed": true,
          "name": "blockNumber",
          "type": "uint32"
        }
      ],
      "name": "BlockVerified",
      "type": "event"
    },
    {
      "anonymous": false,
      "inputs": [
        {
          "indexed": true,
          "name": "batchNumber",
          "type": "uint256"
        },
        {
          "indexed": true,
          "name": "accountID",
          "type": "uint24"
        },
        {
          "indexed": true,
          "name": "publicKey",
          "type": "uint256"
        },
        {
          "indexed": false,
          "name": "amount",
          "type": "uint128"
        }
      ],
      "name": "LogDepositRequest",
      "type": "event"
    },
    {
      "anonymous": false,
      "inputs": [
        {
          "indexed": true,
          "name": "batchNumber",
          "type": "uint256"
        },
        {
          "indexed": true,
          "name": "accountID",
          "type": "uint24"
        }
      ],
      "name": "LogCancelDepositRequest",
      "type": "event"
    },
    {
      "anonymous": false,
      "inputs": [
        {
          "indexed": true,
          "name": "batchNumber",
          "type": "uint256"
        },
        {
          "indexed": true,
          "name": "accountID",
          "type": "uint24"
        }
      ],
      "name": "LogExitRequest",
      "type": "event"
    },
    {
      "anonymous": false,
      "inputs": [
        {
          "indexed": true,
          "name": "batchNumber",
          "type": "uint256"
        },
        {
          "indexed": true,
          "name": "accountID",
          "type": "uint24"
        }
      ],
      "name": "LogCancelExitRequest",
      "type": "event"
    },
    {
      "anonymous": false,
      "inputs": [
        {
          "indexed": true,
          "name": "ethereumAddress",
          "type": "address"
        },
        {
          "indexed": true,
          "name": "blockNumber",
          "type": "uint32"
        }
      ],
      "name": "LogExit",
      "type": "event"
    },
    {
      "anonymous": false,
      "inputs": [
        {
          "indexed": true,
          "name": "ethereumAddress",
          "type": "address"
        },
        {
          "indexed": true,
          "name": "blockNumber",
          "type": "uint32"
        },
        {
          "indexed": false,
          "name": "accountID",
          "type": "uint24"
        }
      ],
      "name": "LogCompleteExit",
      "type": "event"
    }
  ],
  "bytecode": "0x608060405234801561001057600080fd5b50610ff3806100206000396000f30060806040526004361061018b576000357c0100000000000000000000000000000000000000000000000000000000900463ffffffff16806309b7f4971461019057806313e7c9d8146101c35780631e8072a21461021e578063254e88e2146102535780632713ad691461027e57806327e235e3146102d557806329a081ac1461032c5780632ad67a9614610357578063351eb751146103f55780634125ff90146104205780634c5ff6821461045f5780635300e4101461048a57806357d2ae24146104fe5780635cd0783e1461054d57806363d078aa1461063157806369935b691461065c57806375f12b21146106875780637dc38ab9146106b6578063838e2049146107755780638512153f146107ac5780638ecb72d11461080d578063918f8674146108645780639d9c94191461088f578063a082c86e1461092f578063a15ff0c31461095a578063cd7543c0146109a9578063ed03f563146109de578063f47932ad14610a09578063f4c163a414610a3e578063fb0cd20f14610a75578063fb1d501014610b26575b600080fd5b34801561019c57600080fd5b506101a5610b51565b60405180826000191660001916815260200191505060405180910390f35b3480156101cf57600080fd5b50610204600480360381019080803573ffffffffffffffffffffffffffffffffffffffff169060200190929190505050610b57565b604051808215151515815260200191505060405180910390f35b34801561022a57600080fd5b50610233610b77565b604051808262ffffff1662ffffff16815260200191505060405180910390f35b34801561025f57600080fd5b50610268610b7c565b6040518082815260200191505060405180910390f35b34801561028a57600080fd5b50610293610b82565b604051808273ffffffffffffffffffffffffffffffffffffffff1673ffffffffffffffffffffffffffffffffffffffff16815260200191505060405180910390f35b3480156102e157600080fd5b50610316600480360381019080803573ffffffffffffffffffffffffffffffffffffffff169060200190929190505050610ba8565b6040518082815260200191505060405180910390f35b34801561033857600080fd5b50610341610bc0565b6040518082815260200191505060405180910390f35b34801561036357600080fd5b506103a8600480360381019080803573ffffffffffffffffffffffffffffffffffffffff169060200190929190803563ffffffff169060200190929190505050610bc6565b604051808363ffffffff1663ffffffff168152602001826fffffffffffffffffffffffffffffffff166fffffffffffffffffffffffffffffffff1681526020019250505060405180910390f35b34801561040157600080fd5b5061040a610c23565b6040518082815260200191505060405180910390f35b34801561042c57600080fd5b50610435610c28565b604051808267ffffffffffffffff1667ffffffffffffffff16815260200191505060405180910390f35b34801561046b57600080fd5b50610474610c2f565b6040518082815260200191505060405180910390f35b34801561049657600080fd5b506104c460048036038101908080359060200190929190803562ffffff169060200190929190505050610c35565b60405180826fffffffffffffffffffffffffffffffff166fffffffffffffffffffffffffffffffff16815260200191505060405180910390f35b34801561050a57600080fd5b50610513610c7c565b60405180826fffffffffffffffffffffffffffffffff166fffffffffffffffffffffffffffffffff16815260200191505060405180910390f35b34801561055957600080fd5b5061057e600480360381019080803563ffffffff169060200190929190505050610c9e565b604051808760ff1660ff1681526020018667ffffffffffffffff1667ffffffffffffffff168152602001856fffffffffffffffffffffffffffffffff166fffffffffffffffffffffffffffffffff168152602001846000191660001916815260200183600019166000191681526020018273ffffffffffffffffffffffffffffffffffffffff1673ffffffffffffffffffffffffffffffffffffffff168152602001965050505050505060405180910390f35b34801561063d57600080fd5b50610646610d37565b6040518082815260200191505060405180910390f35b34801561066857600080fd5b50610671610d3d565b6040518082815260200191505060405180910390f35b34801561069357600080fd5b5061069c610d42565b604051808215151515815260200191505060405180910390f35b3480156106c257600080fd5b506106e6600480360381019080803562ffffff169060200190929190505050610d55565b604051808760ff1660ff1681526020018663ffffffff1663ffffffff1681526020018573ffffffffffffffffffffffffffffffffffffffff1673ffffffffffffffffffffffffffffffffffffffff1681526020018481526020018363ffffffff1663ffffffff1681526020018263ffffffff1663ffffffff168152602001965050505050505060405180910390f35b34801561078157600080fd5b5061078a610dee565b604051808263ffffffff1663ffffffff16815260200191505060405180910390f35b3480156107b857600080fd5b506107ed600480360381019080803573ffffffffffffffffffffffffffffffffffffffff169060200190929190505050610e04565b604051808262ffffff1662ffffff16815260200191505060405180910390f35b34801561081957600080fd5b50610822610e26565b604051808273ffffffffffffffffffffffffffffffffffffffff1673ffffffffffffffffffffffffffffffffffffffff16815260200191505060405180910390f35b34801561087057600080fd5b50610879610e4c565b6040518082815260200191505060405180910390f35b34801561089b57600080fd5b506108ba60048036038101908080359060200190929190505050610e55565b604051808560ff1660ff1681526020018463ffffffff1663ffffffff1681526020018367ffffffffffffffff1667ffffffffffffffff168152602001826fffffffffffffffffffffffffffffffff166fffffffffffffffffffffffffffffffff16815260200194505050505060405180910390f35b34801561093b57600080fd5b50610944610ed2565b6040518082815260200191505060405180910390f35b34801561096657600080fd5b5061096f610ed8565b60405180826fffffffffffffffffffffffffffffffff166fffffffffffffffffffffffffffffffff16815260200191505060405180910390f35b3480156109b557600080fd5b506109be610efa565b604051808262ffffff1662ffffff16815260200191505060405180910390f35b3480156109ea57600080fd5b506109f3610eff565b6040518082815260200191505060405180910390f35b348015610a1557600080fd5b50610a1e610f05565b604051808262ffffff1662ffffff16815260200191505060405180910390f35b348015610a4a57600080fd5b50610a53610f1a565b604051808263ffffffff1663ffffffff16815260200191505060405180910390f35b348015610a8157600080fd5b50610aa060048036038101908080359060200190929190505050610f2f565b604051808660ff1660ff1681526020018562ffffff1662ffffff1681526020018463ffffffff1663ffffffff1681526020018367ffffffffffffffff1667ffffffffffffffff168152602001826fffffffffffffffffffffffffffffffff166fffffffffffffffffffffffffffffffff1681526020019550505050505060405180910390f35b348015610b3257600080fd5b50610b3b610fc1565b6040518082815260200191505060405180910390f35b60065481565b60016020528060005260406000206000915054906101000a900460ff1681565b600081565b60075481565b601460009054906101000a900473ffffffffffffffffffffffffffffffffffffffff1681565b60026020528060005260406000206000915090505481565b600d5481565b6012602052816000526040600020602052806000526040600020600091509150508060000160009054906101000a900463ffffffff16908060000160049054906101000a90046fffffffffffffffffffffffffffffffff16905082565b600181565b6201518081565b600e5481565b600b602052816000526040600020602052806000526040600020600091509150508060000160009054906101000a90046fffffffffffffffffffffffffffffffff16905081565b601060009054906101000a90046fffffffffffffffffffffffffffffffff1681565b60006020528060005260406000206000915090508060000160009054906101000a900460ff16908060000160019054906101000a900467ffffffffffffffff16908060000160099054906101000a90046fffffffffffffffffffffffffffffffff16908060010154908060020154908060030160009054906101000a900473ffffffffffffffffffffffffffffffffffffffff16905086565b60095481565b608081565b600560009054906101000a900460ff1681565b60046020528060005260406000206000915090508060000160009054906101000a900460ff16908060000160019054906101000a900463ffffffff16908060000160059054906101000a900473ffffffffffffffffffffffffffffffffffffffff16908060010154908060020160009054906101000a900463ffffffff16908060020160049054906101000a900463ffffffff16905086565b600560019054906101000a900463ffffffff1681565b60036020528060005260406000206000915054906101000a900462ffffff1681565b601360009054906101000a900473ffffffffffffffffffffffffffffffffffffffff1681565b64e8d4a5100081565b60116020528060005260406000206000915090508060000160009054906101000a900460ff16908060000160019054906101000a900463ffffffff16908060000160059054906101000a900467ffffffffffffffff169080600001600d9054906101000a90046fffffffffffffffffffffffffffffffff16905084565b610e1081565b600a60009054906101000a90046fffffffffffffffffffffffffffffffff1681565b600181565b600f5481565b600a60109054906101000a900462ffffff1681565b6005809054906101000a900463ffffffff1681565b600c6020528060005260406000206000915090508060000160009054906101000a900460ff16908060000160019054906101000a900462ffffff16908060000160049054906101000a900463ffffffff16908060000160089054906101000a900467ffffffffffffffff16908060000160109054906101000a90046fffffffffffffffffffffffffffffffff16905085565b600854815600a165627a7a7230582003c9e438cbadbae400e23019cc5b305aec833b2f265dcf96f89f598781f33bcd0029",
  "source": "// This contract is generated programmatically\n\npragma solidity ^0.4.24;\n\n// storage variable to later use in delegates chain.\n// Also defines all structures\ncontract PlasmaStorage {\n\n    // For tree depth 24\n    bytes32 constant EMPTY_TREE_ROOT = 0x003f7e15e4de3453fe13e11fb4b007f1fce6a5b0f0353b3b8208910143aaa2f7;\n\n    // Plasma itself\n\n    uint256 public constant DEADLINE = 3600;\n\n    event BlockCommitted(uint32 indexed blockNumber);\n    event BlockVerified(uint32 indexed blockNumber);\n\n    enum Circuit {\n        DEPOSIT,\n        TRANSFER,\n        EXIT\n    }\n\n    enum AccountState {\n        NOT_REGISTERED,\n        REGISTERED,\n        PENDING_EXIT,\n        UNCONFIRMED_EXIT\n    }\n\n    struct Block {\n        uint8 circuit;\n        uint64  deadline;\n        uint128 totalFees;\n        bytes32 newRoot;\n        bytes32 publicDataCommitment;\n        address prover;\n    }\n\n    // Key is block number\n    mapping (uint32 => Block) public blocks;\n    // Only some addresses can send proofs\n    mapping (address => bool) public operators;\n    // Fee collection accounting\n    mapping (address => uint256) public balances;\n\n    struct Account {\n        uint8 state;\n        uint32 exitBatchNumber;\n        address owner;\n        uint256 publicKey;\n        uint32 exitListHead;\n        uint32 exitListTail;\n    }\n\n    // one Ethereum address should have one account\n    mapping (address => uint24) public ethereumAddressToAccountID;\n\n    // Plasma account => general information\n    mapping (uint24 => Account) public accounts;\n\n    // Public information for users\n    bool public stopped;\n    uint32 public lastCommittedBlockNumber;\n    uint32 public lastVerifiedBlockNumber;\n    bytes32 public lastVerifiedRoot;\n    uint64 public constant MAX_DELAY = 1 days;\n    uint256 public constant DENOMINATOR = 1000000000000;\n\n    // deposits\n\n    uint256 public constant DEPOSIT_BATCH_SIZE = 1;\n    uint256 public totalDepositRequests; // enumerates total number of deposit, starting from 0\n    uint256 public lastCommittedDepositBatch;\n    uint256 public lastVerifiedDepositBatch;\n    uint128 public currentDepositBatchFee; // deposit request fee scaled units\n\n    uint24 public constant SPECIAL_ACCOUNT_DEPOSITS = 1;\n\n    uint24 public nextAccountToRegister;\n\n    // some ideas for optimization of the deposit request information storage:\n    // store in a mapping: 20k gas to add, 5k to update a record + 5k to update the global counter per batch\n    // store in an array: 20k + 5k gas to add, 5k to update + up to DEPOSIT_BATCH_SIZE * SLOAD\n\n    // batch number => (plasma address => deposit information)\n    mapping (uint256 => mapping (uint24 => DepositRequest)) public depositRequests;\n    mapping (uint256 => DepositBatch) public depositBatches;\n\n    struct DepositRequest {\n        uint128 amount;\n    }\n\n    enum DepositBatchState {\n        CREATED,\n        COMMITTED,\n        VERIFIED\n    }\n\n    struct DepositBatch {\n        uint8 state;\n        uint24 numRequests;\n        uint32 blockNumber;\n        uint64 timestamp;\n        uint128 batchFee;\n    }\n\n    event LogDepositRequest(uint256 indexed batchNumber, uint24 indexed accountID, uint256 indexed publicKey, uint128 amount);\n    event LogCancelDepositRequest(uint256 indexed batchNumber, uint24 indexed accountID);\n\n    // Transfers\n\n    uint256 public constant TRANSFER_BLOCK_SIZE = 128;\n\n    // Exits \n\n    uint256 constant EXIT_BATCH_SIZE = 1;\n    uint256 public totalExitRequests; \n    uint256 public lastCommittedExitBatch;\n    uint256 public lastVerifiedExitBatch;\n    uint128 public currentExitBatchFee; \n\n    uint24 public constant SPECIAL_ACCOUNT_EXITS = 0;\n\n    // batches for complete exits\n    mapping (uint256 => ExitBatch) public exitBatches;\n\n    enum ExitBatchState {\n        CREATED,\n        COMMITTED,\n        VERIFIED\n    }\n\n    struct ExitBatch {\n        uint8 state;\n        uint32 blockNumber;\n        uint64 timestamp;\n        uint128 batchFee;\n    }\n\n    event LogExitRequest(uint256 indexed batchNumber, uint24 indexed accountID);\n    event LogCancelExitRequest(uint256 indexed batchNumber, uint24 indexed accountID);\n\n    event LogExit(address indexed ethereumAddress, uint32 indexed blockNumber);\n    event LogCompleteExit(address indexed ethereumAddress, uint32 indexed blockNumber, uint24 accountID);\n\n    struct ExitLeaf {\n        uint32 nextID;\n        uint128 amount;\n    }\n\n    mapping (address => mapping (uint32 => ExitLeaf)) public exitLeafs;\n\n    // mapping ethereum address => block number => balance\n    // mapping (address => mapping (uint32 => uint128)) public exitAmounts;\n    // Delegates chain\n    address public transactor;\n    address public exitor;\n}",
  "sourcePath": "/Users/alex/src/shamatar/zk_stuff/plasma/contracts/contracts/PlasmaStorage.sol",
  "compiler": {
    "name": "solc",
    "version": "0.4.24+commit.e67f0147.Emscripten.clang"
  },
  "schemaVersion": "3.0.0",
  "updatedAt": "2019-03-02T07:38:04.101Z",
  "devdoc": {
    "methods": {}
  },
  "userdoc": {
    "methods": {}
  }
}