{
  "_format": "hh-sol-artifact-1",
  "contractName": "ZkSyncProcessOpUnitTest",
  "sourceName": "cache/solpp-generated-contracts/dev-contracts/ZkSyncProcessOpUnitTest.sol",
  "abi": [
    {
      "anonymous": false,
      "inputs": [
        {
          "indexed": true,
          "internalType": "uint32",
          "name": "blockNumber",
          "type": "uint32"
        }
      ],
      "name": "BlockCommit",
      "type": "event"
    },
    {
      "anonymous": false,
      "inputs": [
        {
          "indexed": true,
          "internalType": "uint32",
          "name": "blockNumber",
          "type": "uint32"
        }
      ],
      "name": "BlockVerification",
      "type": "event"
    },
    {
      "anonymous": false,
      "inputs": [
        {
          "indexed": false,
          "internalType": "uint32",
          "name": "totalBlocksVerified",
          "type": "uint32"
        },
        {
          "indexed": false,
          "internalType": "uint32",
          "name": "totalBlocksCommitted",
          "type": "uint32"
        }
      ],
      "name": "BlocksRevert",
      "type": "event"
    },
    {
      "anonymous": false,
      "inputs": [
        {
          "indexed": true,
          "internalType": "uint32",
          "name": "zkSyncBlockId",
          "type": "uint32"
        },
        {
          "indexed": true,
          "internalType": "uint32",
          "name": "accountId",
          "type": "uint32"
        },
        {
          "indexed": false,
          "internalType": "address",
          "name": "owner",
          "type": "address"
        },
        {
          "indexed": true,
          "internalType": "uint16",
          "name": "tokenId",
          "type": "uint16"
        },
        {
          "indexed": false,
          "internalType": "uint128",
          "name": "amount",
          "type": "uint128"
        }
      ],
      "name": "DepositCommit",
      "type": "event"
    },
    {
      "anonymous": false,
      "inputs": [],
      "name": "ExodusMode",
      "type": "event"
    },
    {
      "anonymous": false,
      "inputs": [
        {
          "indexed": true,
          "internalType": "address",
          "name": "sender",
          "type": "address"
        },
        {
          "indexed": false,
          "internalType": "uint32",
          "name": "nonce",
          "type": "uint32"
        },
        {
          "indexed": false,
          "internalType": "bytes",
          "name": "fact",
          "type": "bytes"
        }
      ],
      "name": "FactAuth",
      "type": "event"
    },
    {
      "anonymous": false,
      "inputs": [
        {
          "indexed": true,
          "internalType": "uint32",
          "name": "zkSyncBlockId",
          "type": "uint32"
        },
        {
          "indexed": true,
          "internalType": "uint32",
          "name": "accountId",
          "type": "uint32"
        },
        {
          "indexed": false,
          "internalType": "address",
          "name": "owner",
          "type": "address"
        },
        {
          "indexed": true,
          "internalType": "uint16",
          "name": "tokenId",
          "type": "uint16"
        },
        {
          "indexed": false,
          "internalType": "uint128",
          "name": "amount",
          "type": "uint128"
        }
      ],
      "name": "FullExitCommit",
      "type": "event"
    },
    {
      "anonymous": false,
      "inputs": [
        {
          "indexed": false,
          "internalType": "address",
          "name": "sender",
          "type": "address"
        },
        {
          "indexed": false,
          "internalType": "uint64",
          "name": "serialId",
          "type": "uint64"
        },
        {
          "indexed": false,
          "internalType": "enum Operations.OpType",
          "name": "opType",
          "type": "uint8"
        },
        {
          "indexed": false,
          "internalType": "bytes",
          "name": "pubData",
          "type": "bytes"
        },
        {
          "indexed": false,
          "internalType": "uint256",
          "name": "expirationBlock",
          "type": "uint256"
        }
      ],
      "name": "NewPriorityRequest",
      "type": "event"
    },
    {
      "anonymous": false,
      "inputs": [
        {
          "indexed": true,
          "internalType": "address",
          "name": "sender",
          "type": "address"
        },
        {
          "indexed": true,
          "internalType": "uint16",
          "name": "tokenId",
          "type": "uint16"
        },
        {
          "indexed": false,
          "internalType": "uint128",
          "name": "amount",
          "type": "uint128"
        },
        {
          "indexed": true,
          "internalType": "address",
          "name": "owner",
          "type": "address"
        }
      ],
      "name": "OnchainDeposit",
      "type": "event"
    },
    {
      "anonymous": false,
      "inputs": [
        {
          "indexed": true,
          "internalType": "address",
          "name": "owner",
          "type": "address"
        },
        {
          "indexed": true,
          "internalType": "uint16",
          "name": "tokenId",
          "type": "uint16"
        },
        {
          "indexed": false,
          "internalType": "uint128",
          "name": "amount",
          "type": "uint128"
        }
      ],
      "name": "OnchainWithdrawal",
      "type": "event"
    },
    {
      "anonymous": false,
      "inputs": [
        {
          "indexed": false,
          "internalType": "uint32",
          "name": "queueStartIndex",
          "type": "uint32"
        },
        {
          "indexed": false,
          "internalType": "uint32",
          "name": "queueEndIndex",
          "type": "uint32"
        }
      ],
      "name": "PendingWithdrawalsAdd",
      "type": "event"
    },
    {
      "anonymous": false,
      "inputs": [
        {
          "indexed": false,
          "internalType": "uint32",
          "name": "queueStartIndex",
          "type": "uint32"
        },
        {
          "indexed": false,
          "internalType": "uint32",
          "name": "queueEndIndex",
          "type": "uint32"
        }
      ],
      "name": "PendingWithdrawalsComplete",
      "type": "event"
    },
    {
      "inputs": [
        {
          "internalType": "address",
          "name": "",
          "type": "address"
        },
        {
          "internalType": "uint32",
          "name": "",
          "type": "uint32"
        }
      ],
      "name": "authFacts",
      "outputs": [
        {
          "internalType": "bytes32",
          "name": "",
          "type": "bytes32"
        }
      ],
      "stateMutability": "view",
      "type": "function"
    },
    {
      "inputs": [
        {
          "internalType": "bytes22",
          "name": "",
          "type": "bytes22"
        }
      ],
      "name": "balancesToWithdraw",
      "outputs": [
        {
          "internalType": "uint128",
          "name": "balanceToWithdraw",
          "type": "uint128"
        },
        {
          "internalType": "uint8",
          "name": "gasReserveValue",
          "type": "uint8"
        }
      ],
      "stateMutability": "view",
      "type": "function"
    },
    {
      "inputs": [
        {
          "internalType": "uint32",
          "name": "",
          "type": "uint32"
        }
      ],
      "name": "blocks_DEPRECATED",
      "outputs": [
        {
          "internalType": "uint32",
          "name": "committedAtBlock",
          "type": "uint32"
        },
        {
          "internalType": "uint64",
          "name": "priorityOperations",
          "type": "uint64"
        },
        {
          "internalType": "uint32",
          "name": "chunks",
          "type": "uint32"
        },
        {
          "internalType": "bytes32",
          "name": "withdrawalsDataHash",
          "type": "bytes32"
        },
        {
          "internalType": "bytes32",
          "name": "commitment",
          "type": "bytes32"
        },
        {
          "internalType": "bytes32",
          "name": "stateRoot",
          "type": "bytes32"
        }
      ],
      "stateMutability": "view",
      "type": "function"
    },
    {
      "inputs": [
        {
          "internalType": "uint64",
          "name": "_n",
          "type": "uint64"
        }
      ],
      "name": "cancelOutstandingDepositsForExodusMode",
      "outputs": [],
      "stateMutability": "nonpayable",
      "type": "function"
    },
    {
      "inputs": [
        {
          "components": [
            {
              "internalType": "uint32",
              "name": "blockNumber",
              "type": "uint32"
            },
            {
              "internalType": "uint32",
              "name": "feeAccount",
              "type": "uint32"
            },
            {
              "internalType": "bytes32",
              "name": "newStateHash",
              "type": "bytes32"
            },
            {
              "internalType": "bytes",
              "name": "publicData",
              "type": "bytes"
            },
            {
              "internalType": "uint256",
              "name": "timestamp",
              "type": "uint256"
            },
            {
              "components": [
                {
                  "internalType": "uint32",
                  "name": "publicDataOffset",
                  "type": "uint32"
                },
                {
                  "internalType": "bytes",
                  "name": "ethWitness",
                  "type": "bytes"
                }
              ],
              "internalType": "struct ZkSync.OnchainOperationData[]",
              "name": "onchainOperations",
              "type": "tuple[]"
            }
          ],
          "internalType": "struct ZkSync.CommitBlockInfo",
          "name": "_newBlockData",
          "type": "tuple"
        },
        {
          "internalType": "bytes32",
          "name": "processableOperationsHash",
          "type": "bytes32"
        },
        {
          "internalType": "uint64",
          "name": "priorityOperationsProcessed",
          "type": "uint64"
        },
        {
          "internalType": "bytes",
          "name": "offsetsCommitment",
          "type": "bytes"
        }
      ],
      "name": "collectOnchainOpsExternal",
      "outputs": [],
      "stateMutability": "nonpayable",
      "type": "function"
    },
    {
      "inputs": [
        {
          "components": [
            {
              "internalType": "uint32",
              "name": "blockNumber",
              "type": "uint32"
            },
            {
              "internalType": "uint64",
              "name": "priorityOperations",
              "type": "uint64"
            },
            {
              "internalType": "bytes32",
              "name": "pendingOnchainOperationsHash",
              "type": "bytes32"
            },
            {
              "internalType": "uint256",
              "name": "timestamp",
              "type": "uint256"
            },
            {
              "internalType": "bytes32",
              "name": "stateHash",
              "type": "bytes32"
            },
            {
              "internalType": "bytes32",
              "name": "commitment",
              "type": "bytes32"
            }
          ],
          "internalType": "struct Storage.StoredBlockInfo",
          "name": "_lastCommittedBlockData",
          "type": "tuple"
        },
        {
          "components": [
            {
              "internalType": "uint32",
              "name": "blockNumber",
              "type": "uint32"
            },
            {
              "internalType": "uint32",
              "name": "feeAccount",
              "type": "uint32"
            },
            {
              "internalType": "bytes32",
              "name": "newStateHash",
              "type": "bytes32"
            },
            {
              "internalType": "bytes",
              "name": "publicData",
              "type": "bytes"
            },
            {
              "internalType": "uint256",
              "name": "timestamp",
              "type": "uint256"
            },
            {
              "components": [
                {
                  "internalType": "uint32",
                  "name": "publicDataOffset",
                  "type": "uint32"
                },
                {
                  "internalType": "bytes",
                  "name": "ethWitness",
                  "type": "bytes"
                }
              ],
              "internalType": "struct ZkSync.OnchainOperationData[]",
              "name": "onchainOperations",
              "type": "tuple[]"
            }
          ],
          "internalType": "struct ZkSync.CommitBlockInfo[]",
          "name": "_newBlocksData",
          "type": "tuple[]"
        }
      ],
      "name": "commitBlocks",
      "outputs": [],
      "stateMutability": "nonpayable",
      "type": "function"
    },
    {
      "inputs": [],
      "name": "commitPriorityRequests",
      "outputs": [],
      "stateMutability": "nonpayable",
      "type": "function"
    },
    {
      "inputs": [
        {
          "internalType": "contract IERC20",
          "name": "_token",
          "type": "address"
        },
        {
          "internalType": "uint104",
          "name": "_amount",
          "type": "uint104"
        },
        {
          "internalType": "address",
          "name": "_zkSyncAddress",
          "type": "address"
        }
      ],
      "name": "depositERC20",
      "outputs": [],
      "stateMutability": "nonpayable",
      "type": "function"
    },
    {
      "inputs": [
        {
          "internalType": "address",
          "name": "_zkSyncAddress",
          "type": "address"
        }
      ],
      "name": "depositETH",
      "outputs": [],
      "stateMutability": "payable",
      "type": "function"
    },
    {
      "inputs": [
        {
          "components": [
            {
              "components": [
                {
                  "internalType": "uint32",
                  "name": "blockNumber",
                  "type": "uint32"
                },
                {
                  "internalType": "uint64",
                  "name": "priorityOperations",
                  "type": "uint64"
                },
                {
                  "internalType": "bytes32",
                  "name": "pendingOnchainOperationsHash",
                  "type": "bytes32"
                },
                {
                  "internalType": "uint256",
                  "name": "timestamp",
                  "type": "uint256"
                },
                {
                  "internalType": "bytes32",
                  "name": "stateHash",
                  "type": "bytes32"
                },
                {
                  "internalType": "bytes32",
                  "name": "commitment",
                  "type": "bytes32"
                }
              ],
              "internalType": "struct Storage.StoredBlockInfo",
              "name": "storedBlock",
              "type": "tuple"
            },
            {
              "internalType": "bytes[]",
              "name": "pendingOnchainOpsPubdata",
              "type": "bytes[]"
            },
            {
              "internalType": "bytes32[]",
              "name": "commitmentsInSlot",
              "type": "bytes32[]"
            },
            {
              "internalType": "uint256",
              "name": "commitmentIdx",
              "type": "uint256"
            }
          ],
          "internalType": "struct ZkSync.ExecuteBlockInfo[]",
          "name": "_blocksData",
          "type": "tuple[]"
        }
      ],
      "name": "executeBlocks",
      "outputs": [],
      "stateMutability": "nonpayable",
      "type": "function"
    },
    {
      "inputs": [
        {
          "components": [
            {
              "internalType": "uint32",
              "name": "blockNumber",
              "type": "uint32"
            },
            {
              "internalType": "uint64",
              "name": "priorityOperations",
              "type": "uint64"
            },
            {
              "internalType": "bytes32",
              "name": "pendingOnchainOperationsHash",
              "type": "bytes32"
            },
            {
              "internalType": "uint256",
              "name": "timestamp",
              "type": "uint256"
            },
            {
              "internalType": "bytes32",
              "name": "stateHash",
              "type": "bytes32"
            },
            {
              "internalType": "bytes32",
              "name": "commitment",
              "type": "bytes32"
            }
          ],
          "internalType": "struct Storage.StoredBlockInfo",
          "name": "_storedBlockInfo",
          "type": "tuple"
        },
        {
          "internalType": "uint32",
          "name": "_accountId",
          "type": "uint32"
        },
        {
          "internalType": "uint16",
          "name": "_tokenId",
          "type": "uint16"
        },
        {
          "internalType": "uint128",
          "name": "_amount",
          "type": "uint128"
        },
        {
          "internalType": "uint256[]",
          "name": "_proof",
          "type": "uint256[]"
        }
      ],
      "name": "exit",
      "outputs": [],
      "stateMutability": "nonpayable",
      "type": "function"
    },
    {
      "inputs": [
        {
          "internalType": "uint32",
          "name": "",
          "type": "uint32"
        },
        {
          "internalType": "uint16",
          "name": "",
          "type": "uint16"
        }
      ],
      "name": "exited",
      "outputs": [
        {
          "internalType": "bool",
          "name": "",
          "type": "bool"
        }
      ],
      "stateMutability": "view",
      "type": "function"
    },
    {
      "inputs": [],
      "name": "exodusMode",
      "outputs": [
        {
          "internalType": "bool",
          "name": "",
          "type": "bool"
        }
      ],
      "stateMutability": "view",
      "type": "function"
    },
    {
      "inputs": [],
      "name": "firstPendingWithdrawalIndex_DEPRECATED",
      "outputs": [
        {
          "internalType": "uint32",
          "name": "",
          "type": "uint32"
        }
      ],
      "stateMutability": "view",
      "type": "function"
    },
    {
      "inputs": [],
      "name": "firstPriorityRequestId",
      "outputs": [
        {
          "internalType": "uint64",
          "name": "",
          "type": "uint64"
        }
      ],
      "stateMutability": "view",
      "type": "function"
    },
    {
      "inputs": [
        {
          "internalType": "uint32",
          "name": "_accountId",
          "type": "uint32"
        },
        {
          "internalType": "address",
          "name": "_token",
          "type": "address"
        }
      ],
      "name": "fullExit",
      "outputs": [],
      "stateMutability": "nonpayable",
      "type": "function"
    },
    {
      "inputs": [
        {
          "internalType": "address",
          "name": "_address",
          "type": "address"
        },
        {
          "internalType": "uint16",
          "name": "_tokenId",
          "type": "uint16"
        }
      ],
      "name": "getBalanceToWithdraw",
      "outputs": [
        {
          "internalType": "uint128",
          "name": "",
          "type": "uint128"
        }
      ],
      "stateMutability": "view",
      "type": "function"
    },
    {
      "inputs": [],
      "name": "getNoticePeriod",
      "outputs": [
        {
          "internalType": "uint256",
          "name": "",
          "type": "uint256"
        }
      ],
      "stateMutability": "pure",
      "type": "function"
    },
    {
      "inputs": [],
      "name": "governance",
      "outputs": [
        {
          "internalType": "contract Governance",
          "name": "",
          "type": "address"
        }
      ],
      "stateMutability": "view",
      "type": "function"
    },
    {
      "inputs": [
        {
          "internalType": "bytes",
          "name": "initializationParameters",
          "type": "bytes"
        }
      ],
      "name": "initialize",
      "outputs": [],
      "stateMutability": "nonpayable",
      "type": "function"
    },
    {
      "inputs": [],
      "name": "isReadyForUpgrade",
      "outputs": [
        {
          "internalType": "bool",
          "name": "",
          "type": "bool"
        }
      ],
      "stateMutability": "view",
      "type": "function"
    },
    {
      "inputs": [],
      "name": "numberOfPendingWithdrawals_DEPRECATED",
      "outputs": [
        {
          "internalType": "uint32",
          "name": "",
          "type": "uint32"
        }
      ],
      "stateMutability": "view",
      "type": "function"
    },
    {
      "inputs": [
        {
          "internalType": "uint32",
          "name": "",
          "type": "uint32"
        }
      ],
      "name": "pendingWithdrawals_DEPRECATED",
      "outputs": [
        {
          "internalType": "address",
          "name": "to",
          "type": "address"
        },
        {
          "internalType": "uint16",
          "name": "tokenId",
          "type": "uint16"
        }
      ],
      "stateMutability": "view",
      "type": "function"
    },
    {
      "inputs": [
        {
          "internalType": "uint64",
          "name": "",
          "type": "uint64"
        }
      ],
      "name": "priorityRequests",
      "outputs": [
        {
          "internalType": "enum Operations.OpType",
          "name": "opType",
          "type": "uint8"
        },
        {
          "internalType": "bytes",
          "name": "pubData",
          "type": "bytes"
        },
        {
          "internalType": "uint256",
          "name": "expirationBlock",
          "type": "uint256"
        }
      ],
      "stateMutability": "view",
      "type": "function"
    },
    {
      "inputs": [
        {
          "components": [
            {
              "internalType": "uint32",
              "name": "blockNumber",
              "type": "uint32"
            },
            {
              "internalType": "uint64",
              "name": "priorityOperations",
              "type": "uint64"
            },
            {
              "internalType": "bytes32",
              "name": "pendingOnchainOperationsHash",
              "type": "bytes32"
            },
            {
              "internalType": "uint256",
              "name": "timestamp",
              "type": "uint256"
            },
            {
              "internalType": "bytes32",
              "name": "stateHash",
              "type": "bytes32"
            },
            {
              "internalType": "bytes32",
              "name": "commitment",
              "type": "bytes32"
            }
          ],
          "internalType": "struct Storage.StoredBlockInfo[]",
          "name": "_blocksToRevert",
          "type": "tuple[]"
        }
      ],
      "name": "revertBlocks",
      "outputs": [],
      "stateMutability": "nonpayable",
      "type": "function"
    },
    {
      "inputs": [
        {
          "internalType": "bytes",
          "name": "_pubkey_hash",
          "type": "bytes"
        },
        {
          "internalType": "uint32",
          "name": "_nonce",
          "type": "uint32"
        }
      ],
      "name": "setAuthPubkeyHash",
      "outputs": [],
      "stateMutability": "nonpayable",
      "type": "function"
    },
    {
      "inputs": [
        {
          "internalType": "uint32",
          "name": "",
          "type": "uint32"
        }
      ],
      "name": "storedBlockHashes",
      "outputs": [
        {
          "internalType": "bytes32",
          "name": "",
          "type": "bytes32"
        }
      ],
      "stateMutability": "view",
      "type": "function"
    },
    {
      "inputs": [],
      "name": "totalBlocksCommitted",
      "outputs": [
        {
          "internalType": "uint32",
          "name": "",
          "type": "uint32"
        }
      ],
      "stateMutability": "view",
      "type": "function"
    },
    {
      "inputs": [],
      "name": "totalBlocksVerified",
      "outputs": [
        {
          "internalType": "uint32",
          "name": "",
          "type": "uint32"
        }
      ],
      "stateMutability": "view",
      "type": "function"
    },
    {
      "inputs": [],
      "name": "totalCommittedPriorityRequests",
      "outputs": [
        {
          "internalType": "uint64",
          "name": "",
          "type": "uint64"
        }
      ],
      "stateMutability": "view",
      "type": "function"
    },
    {
      "inputs": [],
      "name": "totalOpenPriorityRequests",
      "outputs": [
        {
          "internalType": "uint64",
          "name": "",
          "type": "uint64"
        }
      ],
      "stateMutability": "view",
      "type": "function"
    },
    {
      "inputs": [],
      "name": "triggerExodusIfNeeded",
      "outputs": [
        {
          "internalType": "bool",
          "name": "",
          "type": "bool"
        }
      ],
      "stateMutability": "nonpayable",
      "type": "function"
    },
    {
      "inputs": [
        {
          "internalType": "bytes",
          "name": "upgradeParameters",
          "type": "bytes"
        }
      ],
      "name": "upgrade",
      "outputs": [],
      "stateMutability": "nonpayable",
      "type": "function"
    },
    {
      "inputs": [],
      "name": "upgradeCanceled",
      "outputs": [],
      "stateMutability": "nonpayable",
      "type": "function"
    },
    {
      "inputs": [],
      "name": "upgradeFinishes",
      "outputs": [],
      "stateMutability": "nonpayable",
      "type": "function"
    },
    {
      "inputs": [],
      "name": "upgradeNoticePeriodStarted",
      "outputs": [],
      "stateMutability": "nonpayable",
      "type": "function"
    },
    {
      "inputs": [],
      "name": "upgradePreparationActivationTime",
      "outputs": [
        {
          "internalType": "uint256",
          "name": "",
          "type": "uint256"
        }
      ],
      "stateMutability": "view",
      "type": "function"
    },
    {
      "inputs": [],
      "name": "upgradePreparationActive",
      "outputs": [
        {
          "internalType": "bool",
          "name": "",
          "type": "bool"
        }
      ],
      "stateMutability": "view",
      "type": "function"
    },
    {
      "inputs": [],
      "name": "upgradePreparationStarted",
      "outputs": [],
      "stateMutability": "nonpayable",
      "type": "function"
    },
    {
      "inputs": [
        {
          "internalType": "bytes32",
          "name": "",
          "type": "bytes32"
        }
      ],
      "name": "verifiedCommitmentHashes",
      "outputs": [
        {
          "internalType": "bool",
          "name": "",
          "type": "bool"
        }
      ],
      "stateMutability": "view",
      "type": "function"
    },
    {
      "inputs": [],
      "name": "verifier",
      "outputs": [
        {
          "internalType": "contract Verifier",
          "name": "",
          "type": "address"
        }
      ],
      "stateMutability": "view",
      "type": "function"
    },
    {
      "inputs": [
        {
          "internalType": "uint256[]",
          "name": "_recursiveInput",
          "type": "uint256[]"
        },
        {
          "internalType": "uint256[]",
          "name": "_proof",
          "type": "uint256[]"
        },
        {
          "internalType": "uint8[]",
          "name": "_vkIndexes",
          "type": "uint8[]"
        },
        {
          "internalType": "uint256[]",
          "name": "_commitments",
          "type": "uint256[]"
        },
        {
          "internalType": "uint256[16]",
          "name": "_subproofsLibms",
          "type": "uint256[16]"
        }
      ],
      "name": "verifyCommitments",
      "outputs": [],
      "stateMutability": "nonpayable",
      "type": "function"
    },
    {
      "inputs": [
        {
          "internalType": "address",
          "name": "_token",
          "type": "address"
        },
        {
          "internalType": "uint128",
          "name": "_amount",
          "type": "uint128"
        }
      ],
      "name": "withdrawERC20",
      "outputs": [],
      "stateMutability": "nonpayable",
      "type": "function"
    },
    {
      "inputs": [
        {
          "internalType": "address",
          "name": "_tokenAddress",
          "type": "address"
        },
        {
          "internalType": "address",
          "name": "_to",
          "type": "address"
        },
        {
          "internalType": "uint128",
          "name": "_amount",
          "type": "uint128"
        },
        {
          "internalType": "uint128",
          "name": "_maxAmount",
          "type": "uint128"
        }
      ],
      "name": "withdrawERC20Guarded",
      "outputs": [
        {
          "internalType": "uint128",
          "name": "withdrawnAmount",
          "type": "uint128"
        }
      ],
      "stateMutability": "nonpayable",
      "type": "function"
    },
    {
      "inputs": [
        {
          "internalType": "uint128",
          "name": "_amount",
          "type": "uint128"
        }
      ],
      "name": "withdrawETH",
      "outputs": [],
      "stateMutability": "nonpayable",
      "type": "function"
    }
  ],
  "bytecode": "0x608060405234801561001057600080fd5b50615f6180620000216000396000f3fe60806040526004361061026f5760003560e01c806378b91e701161014f578063b269b9ae116100c1578063e17376b51161007a578063e17376b514610702578063fa0eb1c614610722578063fa6b53c314610742578063faf4d8cb14610762578063fb27a94d14610777578063ffeec237146107975761026f565b8063b269b9ae1461059a578063b4a8498c1461065b578063c488a09c1461067b578063c57b22be1461069b578063c8e3992b146106b0578063c94c5b7c146106e25761026f565b80638773334c116101135780638773334c146105af5780638ae20dc9146105c4578063922e1492146105e457806395d6ff19146105f95780639a83400d1461060e5780639ba0d1461461063b5761026f565b806378b91e70146105215780637d490798146105365780637e9ca9b114610565578063856f17db1461057a578063871b8ff11461059a5761026f565b806334f6bb1c116101e8578063439fab91116101ac578063439fab9114610482578063595a5ebc146104a25780635aa6e675146104c257806367708dae146104d75780636b27a044146104ec5780637583edff146105015761026f565b806334f6bb1c146103da5780633761804d146103fc5780633b154b731461042a5780633c6461a91461043f5780634321c6ec1461046d5761026f565b80632a3174f41161023a5780632a3174f4146103215780632b7ac3f3146103435780632b8c062a146103655780632d24006c146103855780632d2da806146103a75780632f804bd2146103ba5761026f565b8060e2146102745780630ee8f4d4146102965780631587ddfb146102b657806325394645146102d6578063264c0912146102f6575b600080fd5b34801561028057600080fd5b5061029461028f366004614f9e565b6107ac565b005b3480156102a257600080fd5b506102946102b1366004614e78565b610970565b3480156102c257600080fd5b506102946102d1366004614936565b610b6d565b3480156102e257600080fd5b506102946102f1366004614c76565b610d64565b34801561030257600080fd5b5061030b610f51565b6040516103189190615497565b60405180910390f35b34801561032d57600080fd5b50610336610f5a565b60405161031891906154a2565b34801561034f57600080fd5b50610358610f62565b604051610318919061528c565b34801561037157600080fd5b5061030b610380366004614fc9565b610f71565b34801561039157600080fd5b5061039a610f91565b6040516103189190615d8e565b6102946103b53660046147d3565b610fa4565b3480156103c657600080fd5b506102946103d5366004614fe4565b611015565b3480156103e657600080fd5b506103ef6112e5565b6040516103189190615e31565b34801561040857600080fd5b5061041c610417366004614f84565b6112fb565b60405161031892919061536a565b34801561043657600080fd5b50610294611323565b34801561044b57600080fd5b5061045f61045a366004614c1e565b611325565b604051610318929190615d63565b34801561047957600080fd5b5061029461134c565b34801561048e57600080fd5b5061029461049d366004614c76565b61137b565b3480156104ae57600080fd5b506102946104bd366004614cb5565b611451565b3480156104ce57600080fd5b5061035861157a565b3480156104e357600080fd5b506103ef611589565b3480156104f857600080fd5b5061030b611598565b34801561050d57600080fd5b5061029461051c366004614ae2565b611644565b34801561052d57600080fd5b5061029461173f565b34801561054257600080fd5b50610556610551366004614fe4565b611754565b60405161031893929190615543565b34801561057157600080fd5b5061039a611808565b34801561058657600080fd5b50610294610595366004614d61565b61181c565b3480156105a657600080fd5b506102946118b6565b3480156105bb57600080fd5b5061030b6118c5565b3480156105d057600080fd5b506103366105df36600461490b565b6118cf565b3480156105f057600080fd5b5061030b6118ec565b34801561060557600080fd5b5061039a6118f5565b34801561061a57600080fd5b5061062e61062936600461484b565b611901565b6040516103189190615d4f565b34801561064757600080fd5b50610336610656366004614f84565b611aa3565b34801561066757600080fd5b50610294610676366004614a45565b611ab5565b34801561068757600080fd5b50610294610696366004614f30565b611cdb565b3480156106a757600080fd5b506103ef611dc2565b3480156106bc57600080fd5b506106d06106cb366004614f84565b611dd8565b60405161031896959493929190615df2565b3480156106ee57600080fd5b506102946106fd3660046148a6565b611e22565b34801561070e57600080fd5b5061029461071d366004614d06565b611fbb565b34801561072e57600080fd5b5061030b61073d366004614c46565b6122a8565b34801561074e57600080fd5b5061062e61075d3660046148de565b6122bd565b34801561076e57600080fd5b5061039a6122fa565b34801561078357600080fd5b50610294610792366004614ddb565b61230d565b3480156107a357600080fd5b50610336612549565b600080516020615f0c83398151915254806107e25760405162461bcd60e51b81526004016107d990615c49565b60405180910390fd5b6000600080516020615f0c833981519152556107fc61254f565b62ffffff63ffffffff841611156108255760405162461bcd60e51b81526004016107d99061586d565b60006001600160a01b03831661083d575060006108c0565b6003546040516375698bb160e11b81526001600160a01b039091169063ead317629061086d90869060040161528c565b60206040518083038186803b15801561088557600080fd5b505afa158015610899573d6000803e3d6000fd5b505050506040513d601f19601f820116820180604052508101906108bd9190614f68565b90505b6108c8614280565b60405180608001604052808663ffffffff168152602001336001600160a01b031681526020018361ffff16815260200160006001600160801b03168152509050606061091382612572565b90506109206006826125b0565b600061092c33856126c4565b6001600160501b0319166000908152600460205260409020805460ff60801b191660ff60801b17905550506001600080516020615f0c833981519152555050505050565b600080516020615f0c833981519152548061099d5760405162461bcd60e51b81526004016107d990615c49565b6000600080516020615f0c8339815191525560006109bb33876126c4565b60095490915060ff166109e05760405162461bcd60e51b81526004016107d9906159a2565b63ffffffff8716600090815260086020908152604080832061ffff8a16845290915290205460ff1615610a255760405162461bcd60e51b81526004016107d990615b51565b610a2e886126e1565b600654600160401b900463ffffffff166000908152600d602052604090205414610a6a5760405162461bcd60e51b81526004016107d990615c9f565b600254608089015160405163c81a27ad60e01b81526001600160a01b039092169163c81a27ad91610aa9918b9033908c908c908c908c906004016154ab565b60206040518083038186803b158015610ac157600080fd5b505afa158015610ad5573d6000803e3d6000fd5b505050506040513d601f19601f82011682018060405250810190610af99190614bfe565b610b155760405162461bcd60e51b81526004016107d990615c9f565b610b1f8186612712565b50505063ffffffff909316600090815260086020908152604080832061ffff909516835293905291909120805460ff19166001908117909155600080516020615f0c83398151915255505050565b600080516020615f0c8339815191525480610b9a5760405162461bcd60e51b81526004016107d990615c49565b6000600080516020615f0c83398151915255610bb461254f565b600354604051634b18bd0f60e01b81526001600160a01b0390911690634b18bd0f90610be490339060040161528c565b60006040518083038186803b158015610bfc57600080fd5b505afa158015610c10573d6000803e3d6000fd5b50508351600092509050815b8163ffffffff168163ffffffff161015610cb357610c53858263ffffffff1681518110610c4557fe5b6020026020010151826127b0565b83019250848163ffffffff1681518110610c6957fe5b6020026020010151600001516000015163ffffffff167f0cdbd8bd7813095001c5fe7917bd69d834dc01db7c1dfcf52ca135bd2038441360405160405180910390a2600101610c1c565b50600c805463ffffffff938416600160401b600160801b6001600160401b038085168401811667ffffffffffffffff19909516949094178181048516849003851690910267ffffffffffffffff60801b1990911617818104841692909203909216820267ffffffffffffffff60401b1990911617909155600680548281048516909301909316026bffffffff00000000000000001990911617905550506001600080516020615f0c83398151915255565b8015610d825760405162461bcd60e51b81526004016107d9906155c4565b600654600160601b810463ffffffff908116600160401b9092041614610dba5760405162461bcd60e51b81526004016107d990615a3c565b600654640100000000900463ffffffff1615610de85760405162461bcd60e51b81526004016107d990615af5565b600c54600160401b90046001600160401b031615610e185760405162461bcd60e51b81526004016107d9906159c1565b610e206142a7565b5060065463ffffffff600160401b9091048116600090815260076020908152604091829020825160c081018452815480861682526001600160401b03640100000000820416938201849052600160601b900490941692840192909252600182015460608401526002820154608084015260039091015460a083015215610eb85760405162461bcd60e51b81526004016107d9906158e9565b610ec06142a7565b506040805160c081018252600654600160401b900463ffffffff1681526020838101516001600160401b031690820152600080516020615eec833981519152918101919091526000606082015260a08083015160808084019190915283015190820152610f2c816126e1565b600654600160401b900463ffffffff166000908152600d602052604090205550505050565b60095460ff1681565b620a8c005b90565b6002546001600160a01b031681565b600860209081526000928352604080842090915290825290205460ff1681565b600654600160401b900463ffffffff1681565b600080516020615f0c8339815191525480610fd15760405162461bcd60e51b81526004016107d990615c49565b6000600080516020615f0c83398151915255610feb61254f565b610fff6000610ff934612a34565b84612a59565b6001600080516020615f0c833981519152555050565b600080516020615f0c83398151915254806110425760405162461bcd60e51b81526004016107d990615c49565b6000600080516020615f0c8339815191525560095460ff166110765760405162461bcd60e51b81526004016107d99061582f565b600c5460009061109690600160401b90046001600160401b031684612b10565b90506000816001600160401b0316116110c15760405162461bcd60e51b81526004016107d990615945565b600c546001600160401b03165b600c546001600160401b039081168301811690821610156112855760016001600160401b0382166000908152600b602052604090205460ff16600981111561111257fe5b141561124557611120614280565b6111e9600b6000846001600160401b03166001600160401b031681526020019081526020016000206001018054600181600116156101000203166002900480601f0160208091040260200160405190810160405280929190818152602001828054600181600116156101000203166002900480156111df5780601f106111b4576101008083540402835291602001916111df565b820191906000526020600020905b8154815290600101906020018083116111c257829003601f168201915b5050505050612b3a565b905060006111ff826060015183602001516126c4565b6040928301516001600160501b031991909116600090815260046020529290922080546001600160801b031981166001600160801b039182169094011692909217909155505b6001600160401b0381166000908152600b60205260408120805460ff191681559061127360018301826142dc565b506000600291909101556001016110ce565b50600c805467ffffffffffffffff60401b1967ffffffffffffffff1982166001600160401b039283168501831617908116600160401b918290048316949094039091160291909117905550506001600080516020615f0c83398151915255565b600c54600160801b90046001600160401b031681565b6005602052600090815260409020546001600160a01b03811690600160a01b900461ffff1682565b565b6004602052600090815260409020546001600160801b03811690600160801b900460ff1682565b600c8054600160801b6001600160401b03600160401b8304160267ffffffffffffffff60801b19909116179055565b611383612bc7565b600080806113938486018661480b565b600280546001600160a01b038085166001600160a01b0319928316179092556003805492861692909116919091179055919450925090506113d26142a7565b506040805160c081018252600080825260208201819052600080516020615eec83398151915292820192909252606081018290526080810183905260a081019190915261141e816126e1565b60008052600d6020527f81955a0a11e65eac625c29e8882660bae4e165a75d72780094acae8ece9a29ee55505050505050565b600080516020615f0c833981519152548061147e5760405162461bcd60e51b81526004016107d990615c49565b6000600080516020615f0c83398151915255601483146114b05760405162461bcd60e51b81526004016107d990615964565b336000908152600a6020908152604080832063ffffffff86168452909152902054156114ee5760405162461bcd60e51b81526004016107d990615983565b83836040516114fe929190615109565b60408051918290038220336000818152600a602090815284822063ffffffff8916835290529290922055907f9ea39b45a0cc96a2139996ec8dd30326216111249750781e563ae27c31ae87669061155a90859088908890615d9f565b60405180910390a26001600080516020615f0c8339815191525550505050565b6003546001600160a01b031681565b600c546001600160401b031681565b600c546001600160401b03166000908152600b6020526040812060020154819043108015906115e35750600c546001600160401b03166000908152600b602052604090206002015415155b905080156116365760095460ff1661162c576009805460ff191660011790556040517fc71028c67eb0ef128ea270a59a674629e767d51c1af44ed6753fd2fad2c7b67790600090a15b6001915050610f5f565b6000915050610f5f565b5090565b60025460405163046cac9960e51b81526000916001600160a01b031690638d9593209061167d90899089908990899089906004016153eb565b60206040518083038186803b15801561169557600080fd5b505afa1580156116a9573d6000803e3d6000fd5b505050506040513d601f19601f820116820180604052508101906116cd9190614bfe565b9050806116ec5760405162461bcd60e51b81526004016107d990615730565b6001600e60008560405160200161170391906153d8565b60408051808303601f19018152918152815160209283012083529082019290925201600020805460ff1916911515919091179055505050505050565b6000805460ff19166001908117909155429055565b600b602090815260009182526040918290208054600180830180548651600261010094831615949094026000190190911692909204601f810186900486028301860190965285825260ff9092169492939092908301828280156117f85780601f106117cd576101008083540402835291602001916117f8565b820191906000526020600020905b8154815290600101906020018083116117db57829003601f168201915b5050505050908060020154905083565b600654640100000000900463ffffffff1681565b600080606061182a87612bdb565b92509250925085831461184f5760405162461bcd60e51b81526004016107d990615712565b846001600160401b0316826001600160401b0316146118805760405162461bcd60e51b81526004016107d99061569c565b83805190602001208180519060200120146118ad5760405162461bcd60e51b81526004016107d9906156ba565b50505050505050565b6000805460ff19168155600155565b60095460ff161590565b600a60209081526000928352604080842090915290825290205481565b60005460ff1681565b60065463ffffffff1681565b60003330146119225760405162461bcd60e51b81526004016107d9906155e2565b6040516370a0823160e01b815285906000906001600160a01b038316906370a082319061195390309060040161528c565b60206040518083038186803b15801561196b57600080fd5b505afa15801561197f573d6000803e3d6000fd5b505050506040513d601f19601f820116820180604052508101906119a39190614c5e565b90506119b98287876001600160801b0316612fa8565b6119d55760405162461bcd60e51b81526004016107d990615a1d565b6040516370a0823160e01b81526000906001600160a01b038416906370a0823190611a0490309060040161528c565b60206040518083038186803b158015611a1c57600080fd5b505afa158015611a30573d6000803e3d6000fd5b505050506040513d601f19601f82011682018060405250810190611a549190614c5e565b90506000611a62838361307e565b9050856001600160801b0316811115611a8d5760405162461bcd60e51b81526004016107d9906157f1565b611a9681612a34565b9998505050505050505050565b600d6020526000908152604090205481565b600080516020615f0c8339815191525480611ae25760405162461bcd60e51b81526004016107d990615c49565b6000600080516020615f0c83398151915255600354604051634b18bd0f60e01b81526001600160a01b0390911690634b18bd0f90611b2490339060040161528c565b60006040518083038186803b158015611b3c57600080fd5b505afa158015611b50573d6000803e3d6000fd5b5050600654845163ffffffff600160601b83048116945060009350611b7e92600160401b90041684036130c0565b90506000805b8263ffffffff168163ffffffff161015611c2957611ba06142a7565b868263ffffffff1681518110611bb257fe5b60200260200101519050611bc5816126e1565b63ffffffff86166000908152600d602052604090205414611bf85760405162461bcd60e51b81526004016107d990615b70565b63ffffffff85166000908152600d602090815260408220919091550151600019909401939190910190600101611b84565b506006805463ffffffff808616600160601b0263ffffffff60601b199092169190911791829055600c80546001600160401b03600160801b80830482168790039091160267ffffffffffffffff60801b199091161790556040517f6f3a8259cce1ea2680115053d21c971aa1764295a45850f520525f2bfdf3c9d392611cba92600160401b90910416908690615ddb565b60405180910390a15050506001600080516020615f0c833981519152555050565b600080516020615f0c8339815191525480611d085760405162461bcd60e51b81526004016107d990615c49565b6000600080516020615f0c83398151915255611d26600083336130db565b6000336001600160a01b0316836001600160801b0316604051611d4890610f5f565b60006040518083038185875af1925050503d8060008114611d85576040519150601f19603f3d011682016040523d82523d6000602084013e611d8a565b606091505b5050905080611dab5760405162461bcd60e51b81526004016107d9906158ca565b506001600080516020615f0c833981519152555050565b600c54600160401b90046001600160401b031681565b600760205260009081526040902080546001820154600283015460039093015463ffffffff808416946001600160401b0364010000000086041694600160601b9004909116929186565b600080516020615f0c8339815191525480611e4f5760405162461bcd60e51b81526004016107d990615c49565b6000600080516020615f0c8339815191528190556003546040516375698bb160e11b81526001600160a01b039091169063ead3176290611e9390879060040161528c565b60206040518083038186803b158015611eab57600080fd5b505afa158015611ebf573d6000803e3d6000fd5b505050506040513d601f19601f82011682018060405250810190611ee39190614f68565b90506000611ef133836126c4565b6001600160501b031981166000908152600460208190526040808320549051639a83400d60e01b81529394506001600160801b0316923091639a83400d91611f41918b9133918c918991016152f0565b602060405180830381600087803b158015611f5b57600080fd5b505af1158015611f6f573d6000803e3d6000fd5b505050506040513d601f19601f82011682018060405250810190611f939190614f4c565b9050611fa08482336130db565b505050506001600080516020615f0c83398151915255505050565b600080516020615f0c8339815191525480611fe85760405162461bcd60e51b81526004016107d990615c49565b6000600080516020615f0c8339815191525561200261254f565b6003546040516375698bb160e11b81526000916001600160a01b03169063ead317629061203390889060040161528c565b60206040518083038186803b15801561204b57600080fd5b505afa15801561205f573d6000803e3d6000fd5b505050506040513d601f19601f820116820180604052508101906120839190614f68565b60035460405163f3a65bf960e01b81529192506001600160a01b03169063f3a65bf9906120b4908490600401615d7f565b60206040518083038186803b1580156120cc57600080fd5b505afa1580156120e0573d6000803e3d6000fd5b505050506040513d601f19601f820116820180604052508101906121049190614bfe565b156121215760405162461bcd60e51b81526004016107d990615bec565b6040516370a0823160e01b81526000906001600160a01b038716906370a082319061215090309060040161528c565b60206040518083038186803b15801561216857600080fd5b505afa15801561217c573d6000803e3d6000fd5b505050506040513d601f19601f820116820180604052508101906121a09190614c5e565b90506121ce8633306121c0896cffffffffffffffffffffffffff16612a34565b6001600160801b031661319f565b6121ea5760405162461bcd60e51b81526004016107d9906159df565b6040516370a0823160e01b81526000906001600160a01b038816906370a082319061221990309060040161528c565b60206040518083038186803b15801561223157600080fd5b505afa158015612245573d6000803e3d6000fd5b505050506040513d601f19601f820116820180604052508101906122699190614c5e565b9050600061227f61227a838561307e565b612a34565b905061228c848288612a59565b505050506001600080516020615f0c8339815191525550505050565b600e6020526000908152604090205460ff1681565b6000600460006122cd85856126c4565b6001600160501b03191681526020810191909152604001600020546001600160801b031690505b92915050565b600654600160601b900463ffffffff1681565b600080516020615f0c833981519152548061233a5760405162461bcd60e51b81526004016107d990615c49565b6000600080516020615f0c8339815191525561235461254f565b600354604051634b18bd0f60e01b81526001600160a01b0390911690634b18bd0f9061238490339060040161528c565b60006040518083038186803b15801561239c57600080fd5b505afa1580156123b0573d6000803e3d6000fd5b505050506123bd836126e1565b600654600160601b900463ffffffff166000908152600d6020526040902054146123f95760405162461bcd60e51b81526004016107d990615a5a565b6124016142a7565b50826000805b84518163ffffffff16101561249f5761243983868363ffffffff168151811061242c57fe5b6020026020010151613278565b925082602001518201915061244d836126e1565b835163ffffffff9081166000908152600d6020526040808220939093558551925192909116917f81a92942d0f9c33b897a438384c9c3d88be397776138efa3ba1a4fc8b62684249190a2600101612407565b5083516006805463ffffffff600160601b80830482169094011690920263ffffffff60601b19909216919091179055600c80546001600160401b03600160801b808304821685018216810267ffffffffffffffff60801b199093169290921792839055600160401b830481169190920490911611156125305760405162461bcd60e51b81526004016107d990615bae565b50506001600080516020615f0c83398151915255505050565b60015481565b60095460ff16156113235760405162461bcd60e51b81526004016107d990615bcd565b6060600682516020808501516040808701516060880151915161259a96959491929101615226565b6040516020818303038152906040529050919050565b600c54604080516060810190915243606501916001600160401b03808216600160401b909204160190808560098111156125e657fe5b8152602080820186905260409182018590526001600160401b0384166000908152600b9091522081518154829060ff1916600183600981111561262557fe5b021790555060208281015180516126429260018501920190614323565b50604091820151600290910155517fd0943372c08b438a88d4b39d77216901079eda9ca59d45349841c099083b68309061268590339084908890889088906152a0565b60405180910390a15050600c805460016001600160401b03600160401b808404821692909201160267ffffffffffffffff60401b199091161790555050565b60a01b61ffff60a01b166001600160a01b03919091161760501b90565b6000816040516020016126f49190615cfc565b6040516020818303038152906040528051906020012090505b919050565b6001600160501b03198216600090815260046020526040908190205481518083019092526001600160801b0316908061274b8385613391565b6001600160801b03908116825260ff60209283018190526001600160501b031990961660009081526004835260409020835181549490930151909616600160801b0260ff60801b19929091166001600160801b03199093169290921716179092555050565b81515163ffffffff166000908152600d602052604081205483516127d3906126e1565b146127f05760405162461bcd60e51b81526004016107d99061588c565b600654835151600160401b90910463ffffffff9081168401600101811691161461282c5760405162461bcd60e51b81526004016107d990615620565b60065483515163ffffffff600160601b9092048216911611156128615760405162461bcd60e51b81526004016107d990615cbe565b61287c836000015160a00151846040015185606001516133c2565b6128985760405162461bcd60e51b81526004016107d990615cdd565b506000600080516020615eec833981519152815b8460200151518163ffffffff161015612a0857606085602001518263ffffffff16815181106128d757fe5b602002602001015190506000816000815181106128f057fe5b016020015160f81c600981111561290357fe5b9050600181600981111561291357fe5b1415612924578460010194506129ef565b600381600981111561293257fe5b14156129685761294061439d565b6129498361342d565b9050612962816000015182604001518360200151613486565b506129ef565b600881600981111561297657fe5b141561298d5761298461439d565b612949836135e2565b600681600981111561299b57fe5b14156129d7576129a9614280565b6129b2836135f6565b90506129cb816040015182602001518360600151613486565b856001019550506129ef565b60405162461bcd60e51b81526004016107d990615a79565b6129f9848361367d565b935050508060010190506128ac565b508351604001518114612a2d5760405162461bcd60e51b81526004016107d990615a79565b5092915050565b6000600160801b82106116405760405162461bcd60e51b81526004016107d9906157aa565b612a61614280565b6040518060800160405280600063ffffffff1681526020018561ffff168152602001846001600160801b03168152602001836001600160a01b031681525090506060612aac826136b0565b9050612ab96001826125b0565b826001600160a01b03168561ffff16336001600160a01b03167fb6866b029f3aa29cd9e2bff8159a8ccaa4389f7a087c710968e0b200c0c73b0887604051612b019190615d4f565b60405180910390a45050505050565b6000816001600160401b0316836001600160401b031610612b315781612b33565b825b9392505050565b612b42614280565b6001612b4e83826136d7565b63ffffffff1683529050612b6283826136f0565b61ffff1660208401529050612b778382613700565b6001600160801b031660408401529050612b918382613710565b6001600160a01b031660608401529050602b8114612bc15760405162461bcd60e51b81526004016107d990615c0b565b50919050565b6001600080516020615f0c83398151915255565b606081810151600c548151600080516020615eec83398151915293600093909290916001600160401b03808316600160801b9093041691909101906009900615612c375760405162461bcd60e51b81526004016107d990615586565b8151600990046001600160401b0381118015612c5257600080fd5b506040519080825280601f01601f191660200182016040528015612c7d576020820181803683370190505b50925060005b8660a00151518163ffffffff161015612f9e57612c9e6143bd565b8760a001518263ffffffff1681518110612cb457fe5b6020908102919091010151805190915063ffffffff166009810615612ceb5760405162461bcd60e51b81526004016107d9906159fe565b600160f81b866009830481518110612cff57fe5b60200101906001600160f81b031916908160001a9053506000858281518110612d2457fe5b016020015160f81c6009811115612d3757fe5b90506001816009811115612d4757fe5b1415612dc4576060612d5b87846036613720565b9050612d65614280565b612d6e82612b3a565b9050612d7e8c60000151826137c3565b612d866143bd565b604080518082019091528060015b81526020018490529050612daa81898d01613823565b6001909a0199612dba8c8461367d565b9b50505050612f90565b6003816009811115612dd257fe5b1415612dfa576060612de687846036613720565b9050612df28a8261367d565b995050612f90565b6008816009811115612e0857fe5b1415612e1c576060612de687846036613720565b6006816009811115612e2a57fe5b1415612e7b576060612e3e87846036613720565b9050612e48614280565b612e51826135f6565b9050612e618c60000151826139b0565b612e696143bd565b60408051808201909152806006612d94565b6007816009811115612e8957fe5b1415612f78576060612e9d87846036613720565b9050612ea7614280565b612eb082613a04565b9050846020015151600014612ef4576000612ecf866020015183613a74565b905080612eee5760405162461bcd60e51b81526004016107d9906155a5565b50612f71565b60008160200151604051602001612f0b91906150a6565b60408051601f198184030181529181528151602092830120848201516001600160a01b03166000908152600a8452828120606087015163ffffffff16825290935291205414905080612f6f5760405162461bcd60e51b81526004016107d99061576c565b505b5050612f90565b60405162461bcd60e51b81526004016107d990615c2a565b505050806001019050612c83565b5050509193909250565b6000806060856001600160a01b03168585604051602401612fca929190615387565b60408051601f198184030181529181526020820180516001600160e01b031663a9059cbb60e01b17905251612fff9190615119565b6000604051808303816000865af19150503d806000811461303c576040519150601f19603f3d011682016040523d82523d6000602084013e613041565b606091505b509150915060008151600014806130675750818060200190518101906130679190614bfe565b90508280156130735750805b979650505050505050565b6000612b3383836040518060400160405280601e81526020017f536166654d6174683a207375627472616374696f6e206f766572666c6f770000815250613af5565b60008163ffffffff168363ffffffff1610612b315781612b33565b60006130e782856126c4565b6001600160501b031981166000908152600460205260409020549091506001600160801b03166131178185613b21565b6001600160501b031983166000908152600460205260409081902080546001600160801b0319166001600160801b0393909316929092179091555161ffff8616906001600160a01b038516907f3ac065a1e69cd78fa12ba7269660a2894da2ec7f1ff1135ed5ca04de4b4e389e90613190908890615d4f565b60405180910390a35050505050565b6000806060866001600160a01b03168686866040516024016131c393929190615324565b60408051601f198184030181529181526020820180516001600160e01b03166323b872dd60e01b179052516131f89190615119565b6000604051808303816000865af19150503d8060008114613235576040519150601f19603f3d011682016040523d82523d6000602084013e61323a565b606091505b509150915060008151600014806132605750818060200190518101906132609190614bfe565b905082801561326c5750805b98975050505050505050565b6132806142a7565b8251825163ffffffff908116600190920116146132af5760405162461bcd60e51b81526004016107d990615bae565b8260600151826080015110156132d75760405162461bcd60e51b81526004016107d990615ad6565b60808201514261707f1981018210801592610384909201909111159082906132fc5750805b6133185760405162461bcd60e51b81526004016107d990615907565b5050600080606061332885612bdb565b925092509250600061333b878784613b63565b90506040518060c00160405280876000015163ffffffff168152602001846001600160401b0316815260200185815260200187608001518152602001876040015181526020018281525094505050505092915050565b60008282016001600160801b038085169082161015612b335760405162461bcd60e51b81526004016107d9906156db565b600080600e6000856040516020016133da91906153a0565b60408051601f198184030181529181528151602092830120835290820192909252016000205460ff16905080801561342457508484848151811061341a57fe5b6020026020010151145b95945050505050565b61343561439d565b600561344183826136f0565b61ffff16835290506134538382613700565b6001600160801b0316602084015260020190506134708382613710565b6001600160a01b03166040840152509092915050565b600061349283856126c4565b9050600061ffff85166134bb57836134b3816001600160801b038616613da8565b9150506135cc565b6003546040516310603dad60e01b81526000916001600160a01b0316906310603dad906134ec908990600401615d7f565b60206040518083038186803b15801561350457600080fd5b505afa158015613518573d6000803e3d6000fd5b505050506040513d601f19601f8201168201806040525081019061353c91906147ef565b604051639a83400d60e01b81529091503090639a83400d9061c3509061356c9085908a908a9081906004016152f0565b602060405180830381600088803b15801561358657600080fd5b5087f1935050505080156135b7575060408051601f3d908101601f191682019092526135b491810190614f4c565b60015b6135c457600091506135ca565b50600191505b505b806135db576135db8284612712565b5050505050565b6135ea61439d565b600961344183826136f0565b6135fe614280565b600161360a83826136d7565b63ffffffff168352905061361e8382613710565b6001600160a01b03166020840152905061363883826136f0565b61ffff166040840152905061364d8382613700565b6001600160801b031660608401529050602b8114612bc15760405162461bcd60e51b81526004016107d99061565e565b600082826040516020016136929291906150e3565b60405160208183030381529060405280519060200120905092915050565b606060016020808401516040808601516060870151915161259a95946000949391016151c3565b6004810160006136e78484613e19565b90509250929050565b6002810160006136e78484613e4e565b6010810160006136e78484613e78565b6014810160006136e78484613ea2565b6060818301845110156137455760405162461bcd60e51b81526004016107d99061584e565b6060826001600160401b038111801561375d57600080fd5b506040519080825280601f01601f191660200182016040528015613788576020820181803683370190505b50905082156137bb57602081018381016020860187015b818310156137b757805183526020928301920161379f565b5050505b949350505050565b806020015161ffff16816000015163ffffffff168363ffffffff167fc4e73a5b67a0594d06ea2b5c311c2aa44aa340dd4dd9ec5a1a718dc391b6447084606001518560400151604051613817929190615348565b60405180910390a45050565b6001600160401b0381166000908152600b60209081526040918290208054600191820180548551600261010095831615959095026000190190911693909304601f810185900485028401850190955284835260ff909116936060938301828280156138cf5780601f106138a4576101008083540402835291602001916138cf565b820191906000526020600020905b8154815290600101906020018083116138b257829003601f168201915b50505050509050836000015160098111156138e657fe5b8260098111156138f257fe5b1461390f5760405162461bcd60e51b81526004016107d990615ab7565b60018451600981111561391e57fe5b141561395357613932818560200151613ecc565b61394e5760405162461bcd60e51b81526004016107d990615a98565b6139aa565b60068451600981111561396257fe5b141561399257613976818560200151613f0f565b61394e5760405162461bcd60e51b81526004016107d99061563f565b60405162461bcd60e51b81526004016107d990615926565b50505050565b806040015161ffff16816000015163ffffffff168363ffffffff167f66fc63d751ecbefca61d4e2e7c534e4f29c61aed8ece23ed635277a7ea6f9bc484602001518560600151604051613817929190615348565b613a0c614280565b6001613a1883826136d7565b63ffffffff1683529050613a2c8382613f38565b6001600160601b03191660208401529050613a478382613710565b6001600160a01b031660408401529050613a6183826136d7565b63ffffffff166060840152509092915050565b60008083600081518110613a8457fe5b016020015160f81c6001811115613a9757fe5b90506000816001811115613aa757fe5b1415613abf57613ab78484613f48565b9150506122f4565b6001816001811115613acd57fe5b1415613add57613ab78484613fd6565b60405162461bcd60e51b81526004016107d99061567d565b60008184841115613b195760405162461bcd60e51b81526004016107d99190615573565b505050900390565b6000612b3383836040518060400160405280601e81526020017f536166654d6174683a207375627472616374696f6e206f766572666c6f7700008152506140b0565b6000806002846000015163ffffffff16856020015163ffffffff16604051602001613b8f9291906150d5565b60408051601f1981840301815290829052613ba991615119565b602060405180830381855afa158015613bc6573d6000803e3d6000fd5b5050506040513d601f19601f82011682018060405250810190613be99190614c5e565b90506002818660800151604051602001613c049291906150d5565b60408051601f1981840301815290829052613c1e91615119565b602060405180830381855afa158015613c3b573d6000803e3d6000fd5b5050506040513d601f19601f82011682018060405250810190613c5e9190614c5e565b90506002818560400151604051602001613c799291906150d5565b60408051601f1981840301815290829052613c9391615119565b602060405180830381855afa158015613cb0573d6000803e3d6000fd5b5050506040513d601f19601f82011682018060405250810190613cd39190614c5e565b90506002818560800151604051602001613cee9291906150d5565b60408051601f1981840301815290829052613d0891615119565b602060405180830381855afa158015613d25573d6000803e3d6000fd5b5050506040513d601f19601f82011682018060405250810190613d489190614c5e565b90506060846060015184604051602001613d63929190615135565b60405160208183030381529060405290506040518151838352602082602083018560025afa818452808015613d9757613d99565bfe5b50509051979650505050505050565b60008061271090506000846001600160a01b03168285604051613dca90610f5f565b600060405180830381858888f193505050503d8060008114613e08576040519150601f19603f3d011682016040523d82523d6000602084013e613e0d565b606091505b50909695505050505050565b6000808260040190508084511015613e435760405162461bcd60e51b81526004016107d990615810565b929092015192915050565b6000808260020190508084511015613e435760405162461bcd60e51b81526004016107d99061574d565b6000808260100190508084511015613e435760405162461bcd60e51b81526004016107d990615b8f565b6000808260140190508084511015613e435760405162461bcd60e51b81526004016107d990615c80565b600060056060613ede85836026613720565b90506060613ef18584602b819003613720565b90508080519060200120828051906020012014935050505092915050565b600080613f1d84601b6140e7565b90506000613f2c84601b6140e7565b91909114949350505050565b6014810160006136e7848461413b565b6000806060613f5a856001604161416a565b915091506000613f6a8684614185565b915050600085602001518660600151876000015184604051602001613f929493929190615164565b6040516020818303038152906040528051906020012090506000613fb68483614195565b60408801516001600160a01b039182169116149550505050505092915050565b60008080806001613fe78782613710565b94509050613ff58782614185565b935090506140038782614185565b809350819250505060008660200151846040516020016140249291906150bb565b60408051601f19818403018152908290528051602091820120925060009161405c916001600160f81b03199189918691899101615072565b6040516020818303038152906040528051906020012060001c905087604001516001600160a01b0316816001600160a01b0316148015611a965750606088015163ffffffff16159998505050505050505050565b6000836001600160801b0316836001600160801b031611158290613b195760405162461bcd60e51b81526004016107d99190615573565b6000602082111561410a5760405162461bcd60e51b81526004016107d990615601565b818351101561412b5760405162461bcd60e51b81526004016107d990615b32565b5060209182015191036008021c90565b600081601401835110156141615760405162461bcd60e51b81526004016107d990615b13565b50016020015190565b60006060614179858585613720565b93909201949293505050565b6020810160006136e78484614256565b600082516041146141b85760405162461bcd60e51b81526004016107d9906158ab565b60008060006141c78682614185565b935090506141d58682614185565b809350819250505060008682815181106141eb57fe5b602001015160f81c60f81b60f81c90506001868286866040516000815260200160405260405161421e9493929190615525565b6020604051602081039080840390855afa158015614240573d6000803e3d6000fd5b5050604051601f19015198975050505050505050565b6000808260200190508084511015613e435760405162461bcd60e51b81526004016107d99061578b565b60408051608081018252600080825260208201819052918101829052606081019190915290565b6040805160c081018252600080825260208201819052918101829052606081018290526080810182905260a081019190915290565b50805460018160011615610100020316600290046000825580601f106143025750614320565b601f01602090049060005260206000209081019061432091906143d5565b50565b828054600181600116156101000203166002900490600052602060002090601f016020900481019282601f1061436457805160ff1916838001178555614391565b82800160010185558215614391579182015b82811115614391578251825591602001919060010190614376565b506116409291506143d5565b604080516060810182526000808252602082018190529181019190915290565b60408051808201909152600081526060602082015290565b5b8082111561164057600081556001016143d6565b600082601f8301126143fa578081fd5b813561440d61440882615e68565b615e45565b81815291506020808301908481018184028601820187101561442e57600080fd5b60005b8481101561444d57813584529282019290820190600101614431565b505050505092915050565b600082601f830112614468578081fd5b813561447661440882615e68565b818152915060208083019084810160005b8481101561444d5761449e888484358a010161461f565b84529282019290820190600101614487565b600082601f8301126144c0578081fd5b81356144ce61440882615e68565b818152915060208083019084810160005b8481101561444d5781358701604080601f19838c0301121561450057600080fd5b80518181016001600160401b03828210818311171561451b57fe5b8184526145298886016147a8565b835292840135928084111561453d57600080fd5b505061454d8b878486010161461f565b818701528652505092820192908201906001016144df565b600082601f830112614575578081fd5b6040516102008082018281106001600160401b038211171561459357fe5b8060405250819250838582860111156145ab57600080fd5b600091505b60108210156145d0578035835260209283019260019290920191016145b0565b50505092915050565b60008083601f8401126145ea578182fd5b5081356001600160401b03811115614600578182fd5b60208301915083602082850101111561461857600080fd5b9250929050565b600082601f83011261462f578081fd5b81356001600160401b0381111561464257fe5b614655601f8201601f1916602001615e45565b915080825283602082850101111561466c57600080fd5b8060208401602084013760009082016020015292915050565b600060c08284031215614696578081fd5b6146a060c0615e45565b90506146ab826147a8565b81526146b9602083016147a8565b60208201526040820135604082015260608201356001600160401b03808211156146e257600080fd5b6146ee8583860161461f565b60608401526080840135608084015260a084013591508082111561471157600080fd5b5061471e848285016144b0565b60a08301525092915050565b600060c0828403121561473b578081fd5b60405160c081018181106001600160401b038211171561475757fe5b604052905080614766836147a8565b8152614774602084016147bc565b602082015260408301356040820152606083013560608201526080830135608082015260a083013560a08201525092915050565b803563ffffffff8116811461270d57600080fd5b80356001600160401b038116811461270d57600080fd5b6000602082840312156147e4578081fd5b8135612b3381615eb1565b600060208284031215614800578081fd5b8151612b3381615eb1565b60008060006060848603121561481f578182fd5b833561482a81615eb1565b9250602084013561483a81615eb1565b929592945050506040919091013590565b60008060008060808587031215614860578182fd5b843561486b81615eb1565b9350602085013561487b81615eb1565b9250604085013561488b81615ec6565b9150606085013561489b81615ec6565b939692955090935050565b600080604083850312156148b8578182fd5b82356148c381615eb1565b915060208301356148d381615ec6565b809150509250929050565b600080604083850312156148f0578182fd5b82356148fb81615eb1565b915060208301356148d381615edb565b6000806040838503121561491d578182fd5b823561492881615eb1565b91506136e7602084016147a8565b60006020808385031215614948578182fd5b82356001600160401b038082111561495e578384fd5b818501915085601f830112614971578384fd5b813561497f61440882615e68565b81815284810190848601875b84811015614a36578135870161012080601f19838f030112156149ac578a8bfd5b604051608081018181108a821117156149c157fe5b6040526149d08e848d0161472a565b815260e0830135898111156149e3578c8dfd5b6149f18f8d83870101614458565b8c8301525061010083013589811115614a08578c8dfd5b614a168f8d838701016143ea565b60408301525091013560608201528452928701929087019060010161498b565b50909998505050505050505050565b60006020808385031215614a57578182fd5b82356001600160401b03811115614a6c578283fd5b8301601f81018513614a7c578283fd5b8035614a8a61440882615e68565b8181528381019083850160c0808502860187018a1015614aa8578788fd5b8795505b84861015614ad457614abe8a8361472a565b8452600195909501949286019290810190614aac565b509098975050505050505050565b60008060008060006102808688031215614afa578283fd5b85356001600160401b0380821115614b10578485fd5b614b1c89838a016143ea565b9650602091508188013581811115614b32578586fd5b614b3e8a828b016143ea565b965050604088013581811115614b52578586fd5b8801601f81018a13614b62578586fd5b8035614b7061440882615e68565b81815284810190838601868402850187018e1015614b8c57898afd5b8994505b83851015614bbc57803560ff81168114614ba8578a8bfd5b835260019490940193918601918601614b90565b5097505050506060880135915080821115614bd5578283fd5b50614be2888289016143ea565b925050614bf28760808801614565565b90509295509295909350565b600060208284031215614c0f578081fd5b81518015158114612b33578182fd5b600060208284031215614c2f578081fd5b81356001600160501b031981168114612b33578182fd5b600060208284031215614c57578081fd5b5035919050565b600060208284031215614c6f578081fd5b5051919050565b60008060208385031215614c88578182fd5b82356001600160401b03811115614c9d578283fd5b614ca9858286016145d9565b90969095509350505050565b600080600060408486031215614cc9578081fd5b83356001600160401b03811115614cde578182fd5b614cea868287016145d9565b9094509250614cfd9050602085016147a8565b90509250925092565b600080600060608486031215614d1a578081fd5b8335614d2581615eb1565b925060208401356cffffffffffffffffffffffffff81168114614d46578182fd5b91506040840135614d5681615eb1565b809150509250925092565b60008060008060808587031215614d76578182fd5b84356001600160401b0380821115614d8c578384fd5b614d9888838901614685565b955060208701359450614dad604088016147bc565b93506060870135915080821115614dc2578283fd5b50614dcf8782880161461f565b91505092959194509250565b60008060e08385031215614ded578182fd5b614df7848461472a565b915060c08301356001600160401b03811115614e11578182fd5b8301601f81018513614e21578182fd5b8035614e2f61440882615e68565b81815260208082019190848101865b85811015614e6757614e558b8484358a0101614685565b85529382019390820190600101614e3e565b505050809450505050509250929050565b6000806000806000806101408789031215614e91578384fd5b614e9b888861472a565b9550614ea960c088016147a8565b945060e0870135614eb981615edb565b9350610100870135614eca81615ec6565b92506101208701356001600160401b0380821115614ee6578283fd5b818901915089601f830112614ef9578283fd5b813581811115614f07578384fd5b8a60208083028501011115614f1a578384fd5b6020830194508093505050509295509295509295565b600060208284031215614f41578081fd5b8135612b3381615ec6565b600060208284031215614f5d578081fd5b8151612b3381615ec6565b600060208284031215614f79578081fd5b8151612b3381615edb565b600060208284031215614f95578081fd5b612b33826147a8565b60008060408385031215614fb0578182fd5b614fb9836147a8565b915060208301356148d381615eb1565b60008060408385031215614fdb578182fd5b6148fb836147a8565b600060208284031215614ff5578081fd5b612b33826147bc565b6000815180845260208085019450808401835b8381101561502d57815187529582019590820190600101615011565b509495945050505050565b60008151808452615050816020860160208601615e85565b601f01601f19169290920160200192915050565b600a811061506e57fe5b9052565b6001600160f81b031994909416845260609290921b6001600160601b03191660018401526015830152603582015260550190565b6001600160601b031991909116815260140190565b6001600160601b0319929092168252601482015260340190565b918252602082015260400190565b600083825282516150fb816020850160208701615e85565b919091016020019392505050565b6000828483379101908152919050565b6000825161512b818460208701615e85565b9190910192915050565b60008351615147818460208801615e85565b83519083019061515b818360208801615e85565b01949350505050565b7f19457468657265756d205369676e6564204d6573736167653a0a36300000000081526001600160601b031994909416601c8501526001600160e01b031960e093841b811660308601529190921b166034830152603882015260580190565b60f89590951b6001600160f81b03191685526001600160e01b031993909316600185015260f09190911b6001600160f01b031916600584015260801b6001600160801b031916600783015260601b6001600160601b0319166017820152602b0190565b60f89590951b6001600160f81b031916855260e09390931b6001600160e01b031916600185015260609190911b6001600160601b031916600584015260f01b6001600160f01b031916601983015260801b6001600160801b031916601b820152602b0190565b6001600160a01b0391909116815260200190565b6001600160a01b03861681526001600160401b038516602082015260006152ca6040830186615064565b60a060608301526152de60a0830185615038565b90508260808301529695505050505050565b6001600160a01b0394851681529290931660208301526001600160801b039081166040830152909116606082015260800190565b6001600160a01b039384168152919092166020820152604081019190915260600190565b6001600160a01b039290921682526001600160801b0316602082015260400190565b6001600160a01b0392909216825261ffff16602082015260400190565b6001600160a01b03929092168252602082015260400190565b6020808252825182820181905260009190848201906040850190845b81811015613e0d578351835292840192918401916001016153bc565b600060208252612b336020830184614ffe565b60006102808083526153ff81840189614ffe565b90506020838203818501526154148289614ffe565b84810360408601528751808252828901935090820190845b8181101561544b57845160ff168352938301939183019160010161542c565b5050848103606086015261545f8188614ffe565b9350506080840191508460005b60108110156154895781518452928201929082019060010161546c565b505050509695505050505050565b901515815260200190565b90815260200190565b87815263ffffffff871660208201526001600160a01b038616604082015261ffff851660608201526001600160801b038416608082015260c060a08201819052810182905260006001600160fb1b03831115615505578081fd5b60208302808560e08501379190910160e001908152979650505050505050565b93845260ff9290921660208401526040830152606082015260800190565b600061554f8286615064565b606060208301526155636060830185615038565b9050826040830152949350505050565b600060208252612b336020830184615038565b602080825260059082015264666373313160d81b604082015260600190565b602080825260059082015264667070313560d81b604082015260600190565b6020808252600490820152637570673360e01b604082015260600190565b602080825260059082015264077746731360dc1b604082015260600190565b602080825260059082015264074726d31360dc1b604082015260600190565b602080825260059082015264657865313160d81b604082015260600190565b6020808252600590820152641d9b9c0c4d60da1b604082015260600190565b602080825260059082015264072667031360dc1b604082015260600190565b602080825260059082015264636870313360d81b604082015260600190565b602080825260049082015263070726f760e41b604082015260600190565b6020808252600790820152666f6666436f6d6d60c81b604082015260600190565b6020808252601b908201527f536166654d6174683a206164646974696f6e206f766572666c6f770000000000604082015260600190565b6020808252600490820152630d0c2e6d60e31b604082015260600190565b60208082526003908201526276663160e81b604082015260600190565b602080825260059082015264313a3a981960d91b604082015260600190565b602080825260059082015264333838189b60d91b604082015260600190565b602080825260059082015264313a31199960d91b604082015260600190565b60208082526027908201527f53616665436173743a2076616c756520646f65736e27742066697420696e20316040820152663238206269747360c81b606082015260800190565b6020808252600590820152643bba33989960d91b604082015260600190565b602080825260059082015264189d1d4c0d60da1b604082015260600190565b602080825260059082015264636f65303160d81b604082015260600190565b602080825260059082015264627365313160d81b604082015260600190565b602080825260059082015264666565313160d81b604082015260600190565b602080825260059082015264065786531360dc1b604082015260600190565b602080825260059082015264076657331360dc1b604082015260600190565b602080825260059082015264667765313160d81b604082015260600190565b6020808252600490820152633ab8339960e11b604082015260600190565b6020808252600590820152643a36b9989960d91b604082015260600190565b602080825260059082015264766e70313560d81b604082015260600190565b60208082526005908201526431b7b2981960d91b604082015260600190565b602080825260059082015264061686631360dc1b604082015260600190565b602080825260059082015264616866313160d81b604082015260600190565b602080825260059082015264666574313160d81b604082015260600190565b6020808252600490820152637570673560e01b604082015260600190565b602080825260059082015264333218189960d91b604082015260600190565b6020808252600590820152643331b9b79960d91b604082015260600190565b602080825260059082015264777467313160d81b604082015260600190565b6020808252600490820152637570673160e01b604082015260600190565b602080825260059082015264066636b31360dc1b604082015260600190565b602080825260059082015264657865313360d81b604082015260600190565b602080825260059082015264766e70313360d81b604082015260600190565b602080825260059082015264373b38189960d91b604082015260600190565b602080825260059082015264746d73313160d81b604082015260600190565b6020808252600490820152631d5c19cd60e21b604082015260600190565b602080825260059082015264062746232360dc1b604082015260600190565b60208082526005908201526474726d313160d81b604082015260600190565b6020808252600590820152643332ba189960d91b604082015260600190565b602080825260059082015264066726b31360dc1b604082015260600190565b602080825260059082015264313a3a989b60d91b604082015260600190565b60208082526005908201526466636b313160d81b604082015260600190565b602080825260059082015264667265313160d81b604082015260600190565b602080825260059082015264666430313160d81b604082015260600190565b602080825260059082015264072647031360dc1b604082015260600190565b602080825260059082015264199c1c0c4d60da1b604082015260600190565b6020808252601f908201527f5265656e7472616e637947756172643a207265656e7472616e742063616c6c00604082015260600190565b602080825260059082015264627461313160d81b604082015260600190565b602080825260059082015264666574313360d81b604082015260600190565b602080825260059082015264657865303360d81b604082015260600190565b60208082526005908201526432bc32989960d91b604082015260600190565b600060c08201905063ffffffff83511682526001600160401b03602084015116602083015260408301516040830152606083015160608301526080830151608083015260a083015160a083015292915050565b6001600160801b0391909116815260200190565b6001600160801b0392909216825260ff16602082015260400190565b61ffff91909116815260200190565b63ffffffff91909116815260200190565b600063ffffffff851682526040602083015282604083015282846060840137818301606090810191909152601f909201601f1916010192915050565b63ffffffff92831681529116602082015260400190565b63ffffffff96871681526001600160401b039590951660208601529290941660408401526060830152608082019290925260a081019190915260c00190565b6001600160401b0391909116815260200190565b6040518181016001600160401b0381118282101715615e6057fe5b604052919050565b60006001600160401b03821115615e7b57fe5b5060209081020190565b60005b83811015615ea0578181015183820152602001615e88565b838111156139aa5750506000910152565b6001600160a01b038116811461432057600080fd5b6001600160801b038116811461432057600080fd5b61ffff8116811461432057600080fdfec5d2460186f7233c927e7db2dcc703c0e500b653ca82273b7bfad8045d85a4708e94fed44239eb2314ab7a406345e6c5a8f0ccedf3b600de3d004e672c33abf4a264697066735822122095a63ac4bec4a993e4ecc6724c2f6a8c2734c5fafc11bc106c36c82f2289745864736f6c63430007030033",
  "linkReferences": {},
  "deployedLinkReferences": {}
}