{
  "_format": "hh-sol-artifact-1",
  "contractName": "ZkSyncProcessOpUnitTest",
  "sourceName": "cache/solpp-generated-contracts/dev-contracts/ZkSyncProcessOpUnitTest.sol",
  "abi": [
    {
      "anonymous": false,
      "inputs": [
        {
          "indexed": true,
          "internalType": "uint32",
          "name": "blockNumber",
          "type": "uint32"
        }
      ],
      "name": "BlockCommit",
      "type": "event"
    },
    {
      "anonymous": false,
      "inputs": [
        {
          "indexed": true,
          "internalType": "uint32",
          "name": "blockNumber",
          "type": "uint32"
        }
      ],
      "name": "BlockVerification",
      "type": "event"
    },
    {
      "anonymous": false,
      "inputs": [
        {
          "indexed": false,
          "internalType": "uint32",
          "name": "totalBlocksVerified",
          "type": "uint32"
        },
        {
          "indexed": false,
          "internalType": "uint32",
          "name": "totalBlocksCommitted",
          "type": "uint32"
        }
      ],
      "name": "BlocksRevert",
      "type": "event"
    },
    {
      "anonymous": false,
      "inputs": [
        {
          "indexed": true,
          "internalType": "uint32",
          "name": "zkSyncBlockId",
          "type": "uint32"
        },
        {
          "indexed": true,
          "internalType": "uint32",
          "name": "accountId",
          "type": "uint32"
        },
        {
          "indexed": false,
          "internalType": "address",
          "name": "owner",
          "type": "address"
        },
        {
          "indexed": true,
          "internalType": "uint16",
          "name": "tokenId",
          "type": "uint16"
        },
        {
          "indexed": false,
          "internalType": "uint128",
          "name": "amount",
          "type": "uint128"
        }
      ],
      "name": "DepositCommit",
      "type": "event"
    },
    {
      "anonymous": false,
      "inputs": [],
      "name": "ExodusMode",
      "type": "event"
    },
    {
      "anonymous": false,
      "inputs": [
        {
          "indexed": true,
          "internalType": "address",
          "name": "sender",
          "type": "address"
        },
        {
          "indexed": false,
          "internalType": "uint32",
          "name": "nonce",
          "type": "uint32"
        },
        {
          "indexed": false,
          "internalType": "bytes",
          "name": "fact",
          "type": "bytes"
        }
      ],
      "name": "FactAuth",
      "type": "event"
    },
    {
      "anonymous": false,
      "inputs": [
        {
          "indexed": true,
          "internalType": "uint32",
          "name": "zkSyncBlockId",
          "type": "uint32"
        },
        {
          "indexed": true,
          "internalType": "uint32",
          "name": "accountId",
          "type": "uint32"
        },
        {
          "indexed": false,
          "internalType": "address",
          "name": "owner",
          "type": "address"
        },
        {
          "indexed": true,
          "internalType": "uint16",
          "name": "tokenId",
          "type": "uint16"
        },
        {
          "indexed": false,
          "internalType": "uint128",
          "name": "amount",
          "type": "uint128"
        }
      ],
      "name": "FullExitCommit",
      "type": "event"
    },
    {
      "anonymous": false,
      "inputs": [
        {
          "indexed": false,
          "internalType": "address",
          "name": "sender",
          "type": "address"
        },
        {
          "indexed": false,
          "internalType": "uint64",
          "name": "serialId",
          "type": "uint64"
        },
        {
          "indexed": false,
          "internalType": "enum Operations.OpType",
          "name": "opType",
          "type": "uint8"
        },
        {
          "indexed": false,
          "internalType": "bytes",
          "name": "pubData",
          "type": "bytes"
        },
        {
          "indexed": false,
          "internalType": "uint256",
          "name": "expirationBlock",
          "type": "uint256"
        }
      ],
      "name": "NewPriorityRequest",
      "type": "event"
    },
    {
      "anonymous": false,
      "inputs": [
        {
          "indexed": true,
          "internalType": "address",
          "name": "sender",
          "type": "address"
        },
        {
          "indexed": true,
          "internalType": "uint16",
          "name": "tokenId",
          "type": "uint16"
        },
        {
          "indexed": false,
          "internalType": "uint128",
          "name": "amount",
          "type": "uint128"
        },
        {
          "indexed": true,
          "internalType": "address",
          "name": "owner",
          "type": "address"
        }
      ],
      "name": "OnchainDeposit",
      "type": "event"
    },
    {
      "anonymous": false,
      "inputs": [
        {
          "indexed": true,
          "internalType": "address",
          "name": "owner",
          "type": "address"
        },
        {
          "indexed": true,
          "internalType": "uint16",
          "name": "tokenId",
          "type": "uint16"
        },
        {
          "indexed": false,
          "internalType": "uint128",
          "name": "amount",
          "type": "uint128"
        }
      ],
      "name": "OnchainWithdrawal",
      "type": "event"
    },
    {
      "anonymous": false,
      "inputs": [
        {
          "indexed": false,
          "internalType": "uint32",
          "name": "queueStartIndex",
          "type": "uint32"
        },
        {
          "indexed": false,
          "internalType": "uint32",
          "name": "queueEndIndex",
          "type": "uint32"
        }
      ],
      "name": "PendingWithdrawalsAdd",
      "type": "event"
    },
    {
      "anonymous": false,
      "inputs": [
        {
          "indexed": false,
          "internalType": "uint32",
          "name": "queueStartIndex",
          "type": "uint32"
        },
        {
          "indexed": false,
          "internalType": "uint32",
          "name": "queueEndIndex",
          "type": "uint32"
        }
      ],
      "name": "PendingWithdrawalsComplete",
      "type": "event"
    },
    {
      "inputs": [
        {
          "internalType": "address",
          "name": "",
          "type": "address"
        },
        {
          "internalType": "uint32",
          "name": "",
          "type": "uint32"
        }
      ],
      "name": "authFacts",
      "outputs": [
        {
          "internalType": "bytes32",
          "name": "",
          "type": "bytes32"
        }
      ],
      "stateMutability": "view",
      "type": "function"
    },
    {
      "inputs": [
        {
          "internalType": "bytes22",
          "name": "",
          "type": "bytes22"
        }
      ],
      "name": "balancesToWithdraw",
      "outputs": [
        {
          "internalType": "uint128",
          "name": "balanceToWithdraw",
          "type": "uint128"
        },
        {
          "internalType": "uint8",
          "name": "gasReserveValue",
          "type": "uint8"
        }
      ],
      "stateMutability": "view",
      "type": "function"
    },
    {
      "inputs": [
        {
          "internalType": "uint32",
          "name": "",
          "type": "uint32"
        }
      ],
      "name": "blocks_DEPRECATED",
      "outputs": [
        {
          "internalType": "uint32",
          "name": "committedAtBlock",
          "type": "uint32"
        },
        {
          "internalType": "uint64",
          "name": "priorityOperations",
          "type": "uint64"
        },
        {
          "internalType": "uint32",
          "name": "chunks",
          "type": "uint32"
        },
        {
          "internalType": "bytes32",
          "name": "withdrawalsDataHash",
          "type": "bytes32"
        },
        {
          "internalType": "bytes32",
          "name": "commitment",
          "type": "bytes32"
        },
        {
          "internalType": "bytes32",
          "name": "stateRoot",
          "type": "bytes32"
        }
      ],
      "stateMutability": "view",
      "type": "function"
    },
    {
      "inputs": [
        {
          "internalType": "uint64",
          "name": "_n",
          "type": "uint64"
        }
      ],
      "name": "cancelOutstandingDepositsForExodusMode",
      "outputs": [],
      "stateMutability": "nonpayable",
      "type": "function"
    },
    {
      "inputs": [
        {
          "components": [
            {
              "internalType": "uint32",
              "name": "blockNumber",
              "type": "uint32"
            },
            {
              "internalType": "uint64",
              "name": "priorityOperations",
              "type": "uint64"
            },
            {
              "internalType": "bytes32",
              "name": "pendingOnchainOperationsHash",
              "type": "bytes32"
            },
            {
              "internalType": "uint256",
              "name": "timestamp",
              "type": "uint256"
            },
            {
              "internalType": "bytes32",
              "name": "stateHash",
              "type": "bytes32"
            },
            {
              "internalType": "bytes32",
              "name": "commitment",
              "type": "bytes32"
            }
          ],
          "internalType": "struct Storage.StoredBlockInfo",
          "name": "_lastCommittedBlockData",
          "type": "tuple"
        },
        {
          "components": [
            {
              "internalType": "uint32",
              "name": "blockNumber",
              "type": "uint32"
            },
            {
              "internalType": "uint32",
              "name": "feeAccount",
              "type": "uint32"
            },
            {
              "internalType": "bytes32",
              "name": "newStateHash",
              "type": "bytes32"
            },
            {
              "internalType": "bytes",
              "name": "publicData",
              "type": "bytes"
            },
            {
              "internalType": "uint256",
              "name": "timestamp",
              "type": "uint256"
            },
            {
              "components": [
                {
                  "internalType": "uint32",
                  "name": "publicDataOffset",
                  "type": "uint32"
                },
                {
                  "internalType": "bytes",
                  "name": "ethWitness",
                  "type": "bytes"
                }
              ],
              "internalType": "struct ZkSync.OnchainOperationData[]",
              "name": "onchainOperations",
              "type": "tuple[]"
            }
          ],
          "internalType": "struct ZkSync.CommitBlockInfo[]",
          "name": "_newBlocksData",
          "type": "tuple[]"
        }
      ],
      "name": "commitBlocks",
      "outputs": [],
      "stateMutability": "nonpayable",
      "type": "function"
    },
    {
      "inputs": [
        {
          "internalType": "contract IERC20",
          "name": "_token",
          "type": "address"
        },
        {
          "internalType": "uint104",
          "name": "_amount",
          "type": "uint104"
        },
        {
          "internalType": "address",
          "name": "_zkSyncAddress",
          "type": "address"
        }
      ],
      "name": "depositERC20",
      "outputs": [],
      "stateMutability": "nonpayable",
      "type": "function"
    },
    {
      "inputs": [
        {
          "internalType": "address",
          "name": "_zkSyncAddress",
          "type": "address"
        }
      ],
      "name": "depositETH",
      "outputs": [],
      "stateMutability": "payable",
      "type": "function"
    },
    {
      "inputs": [
        {
          "components": [
            {
              "components": [
                {
                  "internalType": "uint32",
                  "name": "blockNumber",
                  "type": "uint32"
                },
                {
                  "internalType": "uint64",
                  "name": "priorityOperations",
                  "type": "uint64"
                },
                {
                  "internalType": "bytes32",
                  "name": "pendingOnchainOperationsHash",
                  "type": "bytes32"
                },
                {
                  "internalType": "uint256",
                  "name": "timestamp",
                  "type": "uint256"
                },
                {
                  "internalType": "bytes32",
                  "name": "stateHash",
                  "type": "bytes32"
                },
                {
                  "internalType": "bytes32",
                  "name": "commitment",
                  "type": "bytes32"
                }
              ],
              "internalType": "struct Storage.StoredBlockInfo",
              "name": "storedBlock",
              "type": "tuple"
            },
            {
              "internalType": "bytes[]",
              "name": "pendingOnchainOpsPubdata",
              "type": "bytes[]"
            },
            {
              "internalType": "bytes32[]",
              "name": "commitmentsInSlot",
              "type": "bytes32[]"
            },
            {
              "internalType": "uint256",
              "name": "commitmentIdx",
              "type": "uint256"
            }
          ],
          "internalType": "struct ZkSync.ExecuteBlockInfo[]",
          "name": "_blocksData",
          "type": "tuple[]"
        }
      ],
      "name": "executeBlocks",
      "outputs": [],
      "stateMutability": "nonpayable",
      "type": "function"
    },
    {
      "inputs": [
        {
          "components": [
            {
              "internalType": "uint32",
              "name": "blockNumber",
              "type": "uint32"
            },
            {
              "internalType": "uint64",
              "name": "priorityOperations",
              "type": "uint64"
            },
            {
              "internalType": "bytes32",
              "name": "pendingOnchainOperationsHash",
              "type": "bytes32"
            },
            {
              "internalType": "uint256",
              "name": "timestamp",
              "type": "uint256"
            },
            {
              "internalType": "bytes32",
              "name": "stateHash",
              "type": "bytes32"
            },
            {
              "internalType": "bytes32",
              "name": "commitment",
              "type": "bytes32"
            }
          ],
          "internalType": "struct Storage.StoredBlockInfo",
          "name": "_storedBlockInfo",
          "type": "tuple"
        },
        {
          "internalType": "uint32",
          "name": "_accountId",
          "type": "uint32"
        },
        {
          "internalType": "uint16",
          "name": "_tokenId",
          "type": "uint16"
        },
        {
          "internalType": "uint128",
          "name": "_amount",
          "type": "uint128"
        },
        {
          "internalType": "uint256[]",
          "name": "_proof",
          "type": "uint256[]"
        }
      ],
      "name": "exit",
      "outputs": [],
      "stateMutability": "nonpayable",
      "type": "function"
    },
    {
      "inputs": [
        {
          "internalType": "uint32",
          "name": "",
          "type": "uint32"
        },
        {
          "internalType": "uint16",
          "name": "",
          "type": "uint16"
        }
      ],
      "name": "exited",
      "outputs": [
        {
          "internalType": "bool",
          "name": "",
          "type": "bool"
        }
      ],
      "stateMutability": "view",
      "type": "function"
    },
    {
      "inputs": [],
      "name": "exodusMode",
      "outputs": [
        {
          "internalType": "bool",
          "name": "",
          "type": "bool"
        }
      ],
      "stateMutability": "view",
      "type": "function"
    },
    {
      "inputs": [],
      "name": "firstPendingWithdrawalIndex_DEPRECATED",
      "outputs": [
        {
          "internalType": "uint32",
          "name": "",
          "type": "uint32"
        }
      ],
      "stateMutability": "view",
      "type": "function"
    },
    {
      "inputs": [],
      "name": "firstPriorityRequestId",
      "outputs": [
        {
          "internalType": "uint64",
          "name": "",
          "type": "uint64"
        }
      ],
      "stateMutability": "view",
      "type": "function"
    },
    {
      "inputs": [
        {
          "internalType": "uint32",
          "name": "_accountId",
          "type": "uint32"
        },
        {
          "internalType": "address",
          "name": "_token",
          "type": "address"
        }
      ],
      "name": "fullExit",
      "outputs": [],
      "stateMutability": "nonpayable",
      "type": "function"
    },
    {
      "inputs": [
        {
          "internalType": "address",
          "name": "_address",
          "type": "address"
        },
        {
          "internalType": "uint16",
          "name": "_tokenId",
          "type": "uint16"
        }
      ],
      "name": "getBalanceToWithdraw",
      "outputs": [
        {
          "internalType": "uint128",
          "name": "",
          "type": "uint128"
        }
      ],
      "stateMutability": "view",
      "type": "function"
    },
    {
      "inputs": [],
      "name": "getNoticePeriod",
      "outputs": [
        {
          "internalType": "uint256",
          "name": "",
          "type": "uint256"
        }
      ],
      "stateMutability": "pure",
      "type": "function"
    },
    {
      "inputs": [],
      "name": "governance",
      "outputs": [
        {
          "internalType": "contract Governance",
          "name": "",
          "type": "address"
        }
      ],
      "stateMutability": "view",
      "type": "function"
    },
    {
      "inputs": [
        {
          "internalType": "bytes",
          "name": "initializationParameters",
          "type": "bytes"
        }
      ],
      "name": "initialize",
      "outputs": [],
      "stateMutability": "nonpayable",
      "type": "function"
    },
    {
      "inputs": [],
      "name": "isReadyForUpgrade",
      "outputs": [
        {
          "internalType": "bool",
          "name": "",
          "type": "bool"
        }
      ],
      "stateMutability": "view",
      "type": "function"
    },
    {
      "inputs": [],
      "name": "numberOfPendingWithdrawals_DEPRECATED",
      "outputs": [
        {
          "internalType": "uint32",
          "name": "",
          "type": "uint32"
        }
      ],
      "stateMutability": "view",
      "type": "function"
    },
    {
      "inputs": [
        {
          "internalType": "uint32",
          "name": "",
          "type": "uint32"
        }
      ],
      "name": "pendingWithdrawals_DEPRECATED",
      "outputs": [
        {
          "internalType": "address",
          "name": "to",
          "type": "address"
        },
        {
          "internalType": "uint16",
          "name": "tokenId",
          "type": "uint16"
        }
      ],
      "stateMutability": "view",
      "type": "function"
    },
    {
      "inputs": [
        {
          "internalType": "uint64",
          "name": "",
          "type": "uint64"
        }
      ],
      "name": "priorityRequests",
      "outputs": [
        {
          "internalType": "enum Operations.OpType",
          "name": "opType",
          "type": "uint8"
        },
        {
          "internalType": "bytes",
          "name": "pubData",
          "type": "bytes"
        },
        {
          "internalType": "uint256",
          "name": "expirationBlock",
          "type": "uint256"
        }
      ],
      "stateMutability": "view",
      "type": "function"
    },
    {
      "inputs": [
        {
          "components": [
            {
              "internalType": "uint32",
              "name": "blockNumber",
              "type": "uint32"
            },
            {
              "internalType": "uint64",
              "name": "priorityOperations",
              "type": "uint64"
            },
            {
              "internalType": "bytes32",
              "name": "pendingOnchainOperationsHash",
              "type": "bytes32"
            },
            {
              "internalType": "uint256",
              "name": "timestamp",
              "type": "uint256"
            },
            {
              "internalType": "bytes32",
              "name": "stateHash",
              "type": "bytes32"
            },
            {
              "internalType": "bytes32",
              "name": "commitment",
              "type": "bytes32"
            }
          ],
          "internalType": "struct Storage.StoredBlockInfo[]",
          "name": "_blocksToRevert",
          "type": "tuple[]"
        }
      ],
      "name": "revertBlocks",
      "outputs": [],
      "stateMutability": "nonpayable",
      "type": "function"
    },
    {
      "inputs": [
        {
          "internalType": "bytes",
          "name": "_pubkey_hash",
          "type": "bytes"
        },
        {
          "internalType": "uint32",
          "name": "_nonce",
          "type": "uint32"
        }
      ],
      "name": "setAuthPubkeyHash",
      "outputs": [],
      "stateMutability": "nonpayable",
      "type": "function"
    },
    {
      "inputs": [
        {
          "internalType": "uint32",
          "name": "",
          "type": "uint32"
        }
      ],
      "name": "storedBlockHashes",
      "outputs": [
        {
          "internalType": "bytes32",
          "name": "",
          "type": "bytes32"
        }
      ],
      "stateMutability": "view",
      "type": "function"
    },
    {
      "inputs": [
        {
          "internalType": "bytes",
          "name": "_publicData",
          "type": "bytes"
        },
        {
          "internalType": "bytes",
          "name": "_ethWitness",
          "type": "bytes"
        },
        {
          "internalType": "uint32[]",
          "name": "_ethWitnessSizes",
          "type": "uint32[]"
        }
      ],
      "name": "testProcessOperation",
      "outputs": [],
      "stateMutability": "nonpayable",
      "type": "function"
    },
    {
      "inputs": [],
      "name": "totalBlocksCommitted",
      "outputs": [
        {
          "internalType": "uint32",
          "name": "",
          "type": "uint32"
        }
      ],
      "stateMutability": "view",
      "type": "function"
    },
    {
      "inputs": [],
      "name": "totalBlocksVerified",
      "outputs": [
        {
          "internalType": "uint32",
          "name": "",
          "type": "uint32"
        }
      ],
      "stateMutability": "view",
      "type": "function"
    },
    {
      "inputs": [],
      "name": "totalCommittedPriorityRequests",
      "outputs": [
        {
          "internalType": "uint64",
          "name": "",
          "type": "uint64"
        }
      ],
      "stateMutability": "view",
      "type": "function"
    },
    {
      "inputs": [],
      "name": "totalOpenPriorityRequests",
      "outputs": [
        {
          "internalType": "uint64",
          "name": "",
          "type": "uint64"
        }
      ],
      "stateMutability": "view",
      "type": "function"
    },
    {
      "inputs": [],
      "name": "triggerExodusIfNeeded",
      "outputs": [
        {
          "internalType": "bool",
          "name": "",
          "type": "bool"
        }
      ],
      "stateMutability": "nonpayable",
      "type": "function"
    },
    {
      "inputs": [
        {
          "internalType": "bytes",
          "name": "upgradeParameters",
          "type": "bytes"
        }
      ],
      "name": "upgrade",
      "outputs": [],
      "stateMutability": "nonpayable",
      "type": "function"
    },
    {
      "inputs": [],
      "name": "upgradeCanceled",
      "outputs": [],
      "stateMutability": "nonpayable",
      "type": "function"
    },
    {
      "inputs": [],
      "name": "upgradeFinishes",
      "outputs": [],
      "stateMutability": "nonpayable",
      "type": "function"
    },
    {
      "inputs": [],
      "name": "upgradeNoticePeriodStarted",
      "outputs": [],
      "stateMutability": "nonpayable",
      "type": "function"
    },
    {
      "inputs": [],
      "name": "upgradePreparationActivationTime",
      "outputs": [
        {
          "internalType": "uint256",
          "name": "",
          "type": "uint256"
        }
      ],
      "stateMutability": "view",
      "type": "function"
    },
    {
      "inputs": [],
      "name": "upgradePreparationActive",
      "outputs": [
        {
          "internalType": "bool",
          "name": "",
          "type": "bool"
        }
      ],
      "stateMutability": "view",
      "type": "function"
    },
    {
      "inputs": [],
      "name": "upgradePreparationStarted",
      "outputs": [],
      "stateMutability": "nonpayable",
      "type": "function"
    },
    {
      "inputs": [
        {
          "internalType": "bytes32",
          "name": "",
          "type": "bytes32"
        }
      ],
      "name": "verifiedCommitmentHashes",
      "outputs": [
        {
          "internalType": "bool",
          "name": "",
          "type": "bool"
        }
      ],
      "stateMutability": "view",
      "type": "function"
    },
    {
      "inputs": [],
      "name": "verifier",
      "outputs": [
        {
          "internalType": "contract Verifier",
          "name": "",
          "type": "address"
        }
      ],
      "stateMutability": "view",
      "type": "function"
    },
    {
      "inputs": [
        {
          "internalType": "uint256[]",
          "name": "_recursiveInput",
          "type": "uint256[]"
        },
        {
          "internalType": "uint256[]",
          "name": "_proof",
          "type": "uint256[]"
        },
        {
          "internalType": "uint8[]",
          "name": "_vkIndexes",
          "type": "uint8[]"
        },
        {
          "internalType": "uint256[]",
          "name": "_commitments",
          "type": "uint256[]"
        },
        {
          "internalType": "uint256[16]",
          "name": "_subproofsLibms",
          "type": "uint256[16]"
        }
      ],
      "name": "verifyCommitments",
      "outputs": [],
      "stateMutability": "nonpayable",
      "type": "function"
    },
    {
      "inputs": [
        {
          "internalType": "address",
          "name": "_token",
          "type": "address"
        },
        {
          "internalType": "uint128",
          "name": "_amount",
          "type": "uint128"
        }
      ],
      "name": "withdrawERC20",
      "outputs": [],
      "stateMutability": "nonpayable",
      "type": "function"
    },
    {
      "inputs": [
        {
          "internalType": "address",
          "name": "_tokenAddress",
          "type": "address"
        },
        {
          "internalType": "address",
          "name": "_to",
          "type": "address"
        },
        {
          "internalType": "uint128",
          "name": "_amount",
          "type": "uint128"
        },
        {
          "internalType": "uint128",
          "name": "_maxAmount",
          "type": "uint128"
        }
      ],
      "name": "withdrawERC20Guarded",
      "outputs": [
        {
          "internalType": "uint128",
          "name": "withdrawnAmount",
          "type": "uint128"
        }
      ],
      "stateMutability": "nonpayable",
      "type": "function"
    },
    {
      "inputs": [
        {
          "internalType": "uint128",
          "name": "_amount",
          "type": "uint128"
        }
      ],
      "name": "withdrawETH",
      "outputs": [],
      "stateMutability": "nonpayable",
      "type": "function"
    }
  ],
  "bytecode": "0x608060405234801561001057600080fd5b50615e2f80620000216000396000f3fe6080604052600436106102645760003560e01c806378b91e7011610144578063b4a8498c116100b6578063e17376b51161007a578063e17376b5146106e2578063fa0eb1c614610702578063fa6b53c314610722578063faf4d8cb14610742578063fb27a94d14610757578063ffeec2371461077757610264565b8063b4a8498c1461063b578063c488a09c1461065b578063c57b22be1461067b578063c8e3992b14610690578063c94c5b7c146106c257610264565b80638ae20dc9116101085780638ae20dc9146105a4578063922e1492146105c457806395d6ff19146105d95780639a83400d146105ee5780639ba0d1461461061b578063b269b9ae1461057a57610264565b806378b91e70146105215780637d490798146105365780637e9ca9b114610565578063871b8ff11461057a5780638773334c1461058f57610264565b80632f804bd2116101dd578063439fab91116101a1578063439fab9114610482578063595a5ebc146104a25780635aa6e675146104c257806367708dae146104d75780636b27a044146104ec5780637583edff1461050157610264565b80632f804bd2146103cf57806334f6bb1c146103ef5780633761804d146104115780633b154b731461043f5780633c6461a91461045457610264565b8063264c09121161022f578063264c09121461030b5780632a3174f4146103365780632b7ac3f3146103585780632b8c062a1461037a5780632d24006c1461039a5780632d2da806146103bc57610264565b8060e214610269578063035665f71461028b5780630ee8f4d4146102ab5780631587ddfb146102cb57806325394645146102eb575b600080fd5b34801561027557600080fd5b50610289610284366004614ec9565b61078c565b005b34801561029757600080fd5b506102896102a6366004614b71565b610950565b3480156102b757600080fd5b506102896102c6366004614de2565b610958565b3480156102d757600080fd5b506102896102e63660046147f2565b610b55565b3480156102f757600080fd5b50610289610306366004614b32565b610d4c565b34801561031757600080fd5b50610320610f39565b60405161032d91906153c2565b60405180910390f35b34801561034257600080fd5b5061034b610f42565b60405161032d91906153cd565b34801561036457600080fd5b5061036d610f4a565b60405161032d91906151b7565b34801561038657600080fd5b50610320610395366004614ef4565b610f59565b3480156103a657600080fd5b506103af610f79565b60405161032d9190615c5c565b6102896103ca36600461468f565b610f8c565b3480156103db57600080fd5b506102896103ea366004614f0f565b610ffd565b3480156103fb57600080fd5b506104046112cd565b60405161032d9190615cff565b34801561041d57600080fd5b5061043161042c366004614eaf565b6112e3565b60405161032d929190615295565b34801561044b57600080fd5b5061028961130b565b34801561046057600080fd5b5061047461046f366004614ada565b61130d565b60405161032d929190615c31565b34801561048e57600080fd5b5061028961049d366004614b32565b611334565b3480156104ae57600080fd5b506102896104bd366004614c06565b61140a565b3480156104ce57600080fd5b5061036d611533565b3480156104e357600080fd5b50610404611542565b3480156104f857600080fd5b50610320611551565b34801561050d57600080fd5b5061028961051c36600461499e565b6115fd565b34801561052d57600080fd5b506102896116f8565b34801561054257600080fd5b50610556610551366004614f0f565b61170d565b60405161032d9392919061546e565b34801561057157600080fd5b506103af6117c1565b34801561058657600080fd5b506102896117d5565b34801561059b57600080fd5b506103206117e4565b3480156105b057600080fd5b5061034b6105bf3660046147c7565b6117ee565b3480156105d057600080fd5b5061032061180b565b3480156105e557600080fd5b506103af611814565b3480156105fa57600080fd5b5061060e610609366004614707565b611820565b60405161032d9190615c1d565b34801561062757600080fd5b5061034b610636366004614eaf565b6119c2565b34801561064757600080fd5b50610289610656366004614901565b6119d4565b34801561066757600080fd5b50610289610676366004614e5b565b611bfa565b34801561068757600080fd5b50610404611ce1565b34801561069c57600080fd5b506106b06106ab366004614eaf565b611cf7565b60405161032d96959493929190615cc0565b3480156106ce57600080fd5b506102896106dd366004614762565b611d41565b3480156106ee57600080fd5b506102896106fd366004614c57565b611eda565b34801561070e57600080fd5b5061032061071d366004614b02565b6121c7565b34801561072e57600080fd5b5061060e61073d36600461479a565b6121dc565b34801561074e57600080fd5b506103af612219565b34801561076357600080fd5b50610289610772366004614cb2565b61222c565b34801561078357600080fd5b5061034b612468565b600080516020615dda83398151915254806107c25760405162461bcd60e51b81526004016107b990615b17565b60405180910390fd5b6000600080516020615dda833981519152556107dc61246e565b62ffffff63ffffffff841611156108055760405162461bcd60e51b81526004016107b99061573b565b60006001600160a01b03831661081d575060006108a0565b6003546040516375698bb160e11b81526001600160a01b039091169063ead317629061084d9086906004016151b7565b60206040518083038186803b15801561086557600080fd5b505afa158015610879573d6000803e3d6000fd5b505050506040513d601f19601f8201168201806040525081019061089d9190614e93565b90505b6108a86141a0565b60405180608001604052808663ffffffff168152602001336001600160a01b031681526020018361ffff16815260200160006001600160801b0316815250905060606108f382612491565b90506109006006826124cf565b600061090c33856125e4565b6001600160501b0319166000908152600460205260409020805460ff60801b191660ff60801b17905550506001600080516020615dda833981519152555050505050565b505050505050565b600080516020615dda83398151915254806109855760405162461bcd60e51b81526004016107b990615b17565b6000600080516020615dda8339815191525560006109a333876125e4565b60095490915060ff166109c85760405162461bcd60e51b81526004016107b990615870565b63ffffffff8716600090815260086020908152604080832061ffff8a16845290915290205460ff1615610a0d5760405162461bcd60e51b81526004016107b990615a1f565b610a1688612601565b600654600160401b900463ffffffff166000908152600d602052604090205414610a525760405162461bcd60e51b81526004016107b990615b6d565b600254608089015160405163c81a27ad60e01b81526001600160a01b039092169163c81a27ad91610a91918b9033908c908c908c908c906004016153d6565b60206040518083038186803b158015610aa957600080fd5b505afa158015610abd573d6000803e3d6000fd5b505050506040513d601f19601f82011682018060405250810190610ae19190614aba565b610afd5760405162461bcd60e51b81526004016107b990615b6d565b610b078186612632565b50505063ffffffff909316600090815260086020908152604080832061ffff909516835293905291909120805460ff19166001908117909155600080516020615dda83398151915255505050565b600080516020615dda8339815191525480610b825760405162461bcd60e51b81526004016107b990615b17565b6000600080516020615dda83398151915255610b9c61246e565b600354604051634b18bd0f60e01b81526001600160a01b0390911690634b18bd0f90610bcc9033906004016151b7565b60006040518083038186803b158015610be457600080fd5b505afa158015610bf8573d6000803e3d6000fd5b50508351600092509050815b8163ffffffff168163ffffffff161015610c9b57610c3b858263ffffffff1681518110610c2d57fe5b6020026020010151826126d0565b83019250848163ffffffff1681518110610c5157fe5b6020026020010151600001516000015163ffffffff167f0cdbd8bd7813095001c5fe7917bd69d834dc01db7c1dfcf52ca135bd2038441360405160405180910390a2600101610c04565b50600c805463ffffffff938416600160401b600160801b6001600160401b038085168401811667ffffffffffffffff19909516949094178181048516849003851690910267ffffffffffffffff60801b1990911617818104841692909203909216820267ffffffffffffffff60401b1990911617909155600680548281048516909301909316026bffffffff00000000000000001990911617905550506001600080516020615dda83398151915255565b8015610d6a5760405162461bcd60e51b81526004016107b9906154ef565b600654600160601b810463ffffffff908116600160401b9092041614610da25760405162461bcd60e51b81526004016107b99061590a565b600654640100000000900463ffffffff1615610dd05760405162461bcd60e51b81526004016107b9906159c3565b600c54600160401b90046001600160401b031615610e005760405162461bcd60e51b81526004016107b99061588f565b610e086141c7565b5060065463ffffffff600160401b9091048116600090815260076020908152604091829020825160c081018452815480861682526001600160401b03640100000000820416938201849052600160601b900490941692840192909252600182015460608401526002820154608084015260039091015460a083015215610ea05760405162461bcd60e51b81526004016107b9906157b7565b610ea86141c7565b506040805160c081018252600654600160401b900463ffffffff1681526020838101516001600160401b031690820152600080516020615dba833981519152918101919091526000606082015260a08083015160808084019190915283015190820152610f1481612601565b600654600160401b900463ffffffff166000908152600d602052604090205550505050565b60095460ff1681565b620a8c005b90565b6002546001600160a01b031681565b600860209081526000928352604080842090915290825290205460ff1681565b600654600160401b900463ffffffff1681565b600080516020615dda8339815191525480610fb95760405162461bcd60e51b81526004016107b990615b17565b6000600080516020615dda83398151915255610fd361246e565b610fe76000610fe134612954565b84612979565b6001600080516020615dda833981519152555050565b600080516020615dda833981519152548061102a5760405162461bcd60e51b81526004016107b990615b17565b6000600080516020615dda8339815191525560095460ff1661105e5760405162461bcd60e51b81526004016107b9906156fd565b600c5460009061107e90600160401b90046001600160401b031684612a30565b90506000816001600160401b0316116110a95760405162461bcd60e51b81526004016107b990615813565b600c546001600160401b03165b600c546001600160401b0390811683018116908216101561126d5760016001600160401b0382166000908152600b602052604090205460ff1660098111156110fa57fe5b141561122d576111086141a0565b6111d1600b6000846001600160401b03166001600160401b031681526020019081526020016000206001018054600181600116156101000203166002900480601f0160208091040260200160405190810160405280929190818152602001828054600181600116156101000203166002900480156111c75780601f1061119c576101008083540402835291602001916111c7565b820191906000526020600020905b8154815290600101906020018083116111aa57829003601f168201915b5050505050612a5a565b905060006111e7826060015183602001516125e4565b6040928301516001600160501b031991909116600090815260046020529290922080546001600160801b031981166001600160801b039182169094011692909217909155505b6001600160401b0381166000908152600b60205260408120805460ff191681559061125b60018301826141fc565b506000600291909101556001016110b6565b50600c805467ffffffffffffffff60401b1967ffffffffffffffff1982166001600160401b039283168501831617908116600160401b918290048316949094039091160291909117905550506001600080516020615dda83398151915255565b600c54600160801b90046001600160401b031681565b6005602052600090815260409020546001600160a01b03811690600160a01b900461ffff1682565b565b6004602052600090815260409020546001600160801b03811690600160801b900460ff1682565b61133c612ae7565b6000808061134c848601866146c7565b600280546001600160a01b038085166001600160a01b03199283161790925560038054928616929091169190911790559194509250905061138b6141c7565b506040805160c081018252600080825260208201819052600080516020615dba83398151915292820192909252606081018290526080810183905260a08101919091526113d781612601565b60008052600d6020527f81955a0a11e65eac625c29e8882660bae4e165a75d72780094acae8ece9a29ee55505050505050565b600080516020615dda83398151915254806114375760405162461bcd60e51b81526004016107b990615b17565b6000600080516020615dda83398151915255601483146114695760405162461bcd60e51b81526004016107b990615832565b336000908152600a6020908152604080832063ffffffff86168452909152902054156114a75760405162461bcd60e51b81526004016107b990615851565b83836040516114b7929190615034565b60408051918290038220336000818152600a602090815284822063ffffffff8916835290529290922055907f9ea39b45a0cc96a2139996ec8dd30326216111249750781e563ae27c31ae87669061151390859088908890615c6d565b60405180910390a26001600080516020615dda8339815191525550505050565b6003546001600160a01b031681565b600c546001600160401b031681565b600c546001600160401b03166000908152600b60205260408120600201548190431080159061159c5750600c546001600160401b03166000908152600b602052604090206002015415155b905080156115ef5760095460ff166115e5576009805460ff191660011790556040517fc71028c67eb0ef128ea270a59a674629e767d51c1af44ed6753fd2fad2c7b67790600090a15b6001915050610f47565b6000915050610f47565b5090565b60025460405163046cac9960e51b81526000916001600160a01b031690638d959320906116369089908990899089908990600401615316565b60206040518083038186803b15801561164e57600080fd5b505afa158015611662573d6000803e3d6000fd5b505050506040513d601f19601f820116820180604052508101906116869190614aba565b9050806116a55760405162461bcd60e51b81526004016107b9906155fe565b6001600e6000856040516020016116bc9190615303565b60408051808303601f19018152918152815160209283012083529082019290925201600020805460ff1916911515919091179055505050505050565b6000805460ff19166001908117909155429055565b600b602090815260009182526040918290208054600180830180548651600261010094831615949094026000190190911692909204601f810186900486028301860190965285825260ff9092169492939092908301828280156117b15780601f10611786576101008083540402835291602001916117b1565b820191906000526020600020905b81548152906001019060200180831161179457829003601f168201915b5050505050908060020154905083565b600654640100000000900463ffffffff1681565b6000805460ff19168155600155565b60095460ff161590565b600a60209081526000928352604080842090915290825290205481565b60005460ff1681565b60065463ffffffff1681565b60003330146118415760405162461bcd60e51b81526004016107b99061550d565b6040516370a0823160e01b815285906000906001600160a01b038316906370a08231906118729030906004016151b7565b60206040518083038186803b15801561188a57600080fd5b505afa15801561189e573d6000803e3d6000fd5b505050506040513d601f19601f820116820180604052508101906118c29190614b1a565b90506118d88287876001600160801b0316612afb565b6118f45760405162461bcd60e51b81526004016107b9906158eb565b6040516370a0823160e01b81526000906001600160a01b038416906370a08231906119239030906004016151b7565b60206040518083038186803b15801561193b57600080fd5b505afa15801561194f573d6000803e3d6000fd5b505050506040513d601f19601f820116820180604052508101906119739190614b1a565b905060006119818383612bd1565b9050856001600160801b03168111156119ac5760405162461bcd60e51b81526004016107b9906156bf565b6119b581612954565b9998505050505050505050565b600d6020526000908152604090205481565b600080516020615dda8339815191525480611a015760405162461bcd60e51b81526004016107b990615b17565b6000600080516020615dda83398151915255600354604051634b18bd0f60e01b81526001600160a01b0390911690634b18bd0f90611a439033906004016151b7565b60006040518083038186803b158015611a5b57600080fd5b505afa158015611a6f573d6000803e3d6000fd5b5050600654845163ffffffff600160601b83048116945060009350611a9d92600160401b9004168403612c13565b90506000805b8263ffffffff168163ffffffff161015611b4857611abf6141c7565b868263ffffffff1681518110611ad157fe5b60200260200101519050611ae481612601565b63ffffffff86166000908152600d602052604090205414611b175760405162461bcd60e51b81526004016107b990615a3e565b63ffffffff85166000908152600d602090815260408220919091550151600019909401939190910190600101611aa3565b506006805463ffffffff808616600160601b0263ffffffff60601b199092169190911791829055600c80546001600160401b03600160801b80830482168790039091160267ffffffffffffffff60801b199091161790556040517f6f3a8259cce1ea2680115053d21c971aa1764295a45850f520525f2bfdf3c9d392611bd992600160401b90910416908690615ca9565b60405180910390a15050506001600080516020615dda833981519152555050565b600080516020615dda8339815191525480611c275760405162461bcd60e51b81526004016107b990615b17565b6000600080516020615dda83398151915255611c4560008333612c2e565b6000336001600160a01b0316836001600160801b0316604051611c6790610f47565b60006040518083038185875af1925050503d8060008114611ca4576040519150601f19603f3d011682016040523d82523d6000602084013e611ca9565b606091505b5050905080611cca5760405162461bcd60e51b81526004016107b990615798565b506001600080516020615dda833981519152555050565b600c54600160401b90046001600160401b031681565b600760205260009081526040902080546001820154600283015460039093015463ffffffff808416946001600160401b0364010000000086041694600160601b9004909116929186565b600080516020615dda8339815191525480611d6e5760405162461bcd60e51b81526004016107b990615b17565b6000600080516020615dda8339815191528190556003546040516375698bb160e11b81526001600160a01b039091169063ead3176290611db29087906004016151b7565b60206040518083038186803b158015611dca57600080fd5b505afa158015611dde573d6000803e3d6000fd5b505050506040513d601f19601f82011682018060405250810190611e029190614e93565b90506000611e1033836125e4565b6001600160501b031981166000908152600460208190526040808320549051639a83400d60e01b81529394506001600160801b0316923091639a83400d91611e60918b9133918c9189910161521b565b602060405180830381600087803b158015611e7a57600080fd5b505af1158015611e8e573d6000803e3d6000fd5b505050506040513d601f19601f82011682018060405250810190611eb29190614e77565b9050611ebf848233612c2e565b505050506001600080516020615dda83398151915255505050565b600080516020615dda8339815191525480611f075760405162461bcd60e51b81526004016107b990615b17565b6000600080516020615dda83398151915255611f2161246e565b6003546040516375698bb160e11b81526000916001600160a01b03169063ead3176290611f529088906004016151b7565b60206040518083038186803b158015611f6a57600080fd5b505afa158015611f7e573d6000803e3d6000fd5b505050506040513d601f19601f82011682018060405250810190611fa29190614e93565b60035460405163f3a65bf960e01b81529192506001600160a01b03169063f3a65bf990611fd3908490600401615c4d565b60206040518083038186803b158015611feb57600080fd5b505afa158015611fff573d6000803e3d6000fd5b505050506040513d601f19601f820116820180604052508101906120239190614aba565b156120405760405162461bcd60e51b81526004016107b990615aba565b6040516370a0823160e01b81526000906001600160a01b038716906370a082319061206f9030906004016151b7565b60206040518083038186803b15801561208757600080fd5b505afa15801561209b573d6000803e3d6000fd5b505050506040513d601f19601f820116820180604052508101906120bf9190614b1a565b90506120ed8633306120df896cffffffffffffffffffffffffff16612954565b6001600160801b0316612cf2565b6121095760405162461bcd60e51b81526004016107b9906158ad565b6040516370a0823160e01b81526000906001600160a01b038816906370a08231906121389030906004016151b7565b60206040518083038186803b15801561215057600080fd5b505afa158015612164573d6000803e3d6000fd5b505050506040513d601f19601f820116820180604052508101906121889190614b1a565b9050600061219e6121998385612bd1565b612954565b90506121ab848288612979565b505050506001600080516020615dda8339815191525550505050565b600e6020526000908152604090205460ff1681565b6000600460006121ec85856125e4565b6001600160501b03191681526020810191909152604001600020546001600160801b031690505b92915050565b600654600160601b900463ffffffff1681565b600080516020615dda83398151915254806122595760405162461bcd60e51b81526004016107b990615b17565b6000600080516020615dda8339815191525561227361246e565b600354604051634b18bd0f60e01b81526001600160a01b0390911690634b18bd0f906122a39033906004016151b7565b60006040518083038186803b1580156122bb57600080fd5b505afa1580156122cf573d6000803e3d6000fd5b505050506122dc83612601565b600654600160601b900463ffffffff166000908152600d6020526040902054146123185760405162461bcd60e51b81526004016107b990615928565b6123206141c7565b50826000805b84518163ffffffff1610156123be5761235883868363ffffffff168151811061234b57fe5b6020026020010151612dcb565b925082602001518201915061236c83612601565b835163ffffffff9081166000908152600d6020526040808220939093558551925192909116917f81a92942d0f9c33b897a438384c9c3d88be397776138efa3ba1a4fc8b62684249190a2600101612326565b5083516006805463ffffffff600160601b80830482169094011690920263ffffffff60601b19909216919091179055600c80546001600160401b03600160801b808304821685018216810267ffffffffffffffff60801b199093169290921792839055600160401b8304811691909204909116111561244f5760405162461bcd60e51b81526004016107b990615a7c565b50506001600080516020615dda83398151915255505050565b60015481565b60095460ff161561130b5760405162461bcd60e51b81526004016107b990615a9b565b606060068251602080850151604080870151606088015191516124b996959491929101615151565b6040516020818303038152906040529050919050565b600c5460408051606081019091524361438001916001600160401b03808216600160401b9092041601908085600981111561250657fe5b8152602080820186905260409182018590526001600160401b0384166000908152600b9091522081518154829060ff1916600183600981111561254557fe5b021790555060208281015180516125629260018501920190614243565b50604091820151600290910155517fd0943372c08b438a88d4b39d77216901079eda9ca59d45349841c099083b6830906125a590339084908890889088906151cb565b60405180910390a15050600c805460016001600160401b03600160401b808404821692909201160267ffffffffffffffff60401b199091161790555050565b60a01b61ffff60a01b166001600160a01b03919091161760501b90565b6000816040516020016126149190615bca565b6040516020818303038152906040528051906020012090505b919050565b6001600160501b03198216600090815260046020526040908190205481518083019092526001600160801b0316908061266b8385612ee4565b6001600160801b03908116825260ff60209283018190526001600160501b031990961660009081526004835260409020835181549490930151909616600160801b0260ff60801b19929091166001600160801b03199093169290921716179092555050565b81515163ffffffff166000908152600d602052604081205483516126f390612601565b146127105760405162461bcd60e51b81526004016107b99061575a565b600654835151600160401b90910463ffffffff9081168401600101811691161461274c5760405162461bcd60e51b81526004016107b99061554b565b60065483515163ffffffff600160601b9092048216911611156127815760405162461bcd60e51b81526004016107b990615b8c565b61279c836000015160a0015184604001518560600151612f15565b6127b85760405162461bcd60e51b81526004016107b990615bab565b506000600080516020615dba833981519152815b8460200151518163ffffffff16101561292857606085602001518263ffffffff16815181106127f757fe5b6020026020010151905060008160008151811061281057fe5b016020015160f81c600981111561282357fe5b9050600181600981111561283357fe5b14156128445784600101945061290f565b600381600981111561285257fe5b1415612888576128606142bd565b61286983612f80565b9050612882816000015182604001518360200151612fd9565b5061290f565b600881600981111561289657fe5b14156128ad576128a46142bd565b61286983613135565b60068160098111156128bb57fe5b14156128f7576128c96141a0565b6128d283613149565b90506128eb816040015182602001518360600151612fd9565b8560010195505061290f565b60405162461bcd60e51b81526004016107b990615947565b61291984836131d0565b935050508060010190506127cc565b50835160400151811461294d5760405162461bcd60e51b81526004016107b990615947565b5092915050565b6000600160801b82106115f95760405162461bcd60e51b81526004016107b990615678565b6129816141a0565b6040518060800160405280600063ffffffff1681526020018561ffff168152602001846001600160801b03168152602001836001600160a01b0316815250905060606129cc82613203565b90506129d96001826124cf565b826001600160a01b03168561ffff16336001600160a01b03167fb6866b029f3aa29cd9e2bff8159a8ccaa4389f7a087c710968e0b200c0c73b0887604051612a219190615c1d565b60405180910390a45050505050565b6000816001600160401b0316836001600160401b031610612a515781612a53565b825b9392505050565b612a626141a0565b6001612a6e838261322a565b63ffffffff1683529050612a828382613243565b61ffff1660208401529050612a978382613253565b6001600160801b031660408401529050612ab18382613263565b6001600160a01b031660608401529050602b8114612ae15760405162461bcd60e51b81526004016107b990615ad9565b50919050565b6001600080516020615dda83398151915255565b6000806060856001600160a01b03168585604051602401612b1d9291906152b2565b60408051601f198184030181529181526020820180516001600160e01b031663a9059cbb60e01b17905251612b529190615044565b6000604051808303816000865af19150503d8060008114612b8f576040519150601f19603f3d011682016040523d82523d6000602084013e612b94565b606091505b50915091506000815160001480612bba575081806020019051810190612bba9190614aba565b9050828015612bc65750805b979650505050505050565b6000612a5383836040518060400160405280601e81526020017f536166654d6174683a207375627472616374696f6e206f766572666c6f770000815250613273565b60008163ffffffff168363ffffffff1610612a515781612a53565b6000612c3a82856125e4565b6001600160501b031981166000908152600460205260409020549091506001600160801b0316612c6a818561329f565b6001600160501b031983166000908152600460205260409081902080546001600160801b0319166001600160801b0393909316929092179091555161ffff8616906001600160a01b038516907f3ac065a1e69cd78fa12ba7269660a2894da2ec7f1ff1135ed5ca04de4b4e389e90612ce3908890615c1d565b60405180910390a35050505050565b6000806060866001600160a01b0316868686604051602401612d169392919061524f565b60408051601f198184030181529181526020820180516001600160e01b03166323b872dd60e01b17905251612d4b9190615044565b6000604051808303816000865af19150503d8060008114612d88576040519150601f19603f3d011682016040523d82523d6000602084013e612d8d565b606091505b50915091506000815160001480612db3575081806020019051810190612db39190614aba565b9050828015612dbf5750805b98975050505050505050565b612dd36141c7565b8251825163ffffffff90811660019092011614612e025760405162461bcd60e51b81526004016107b990615a7c565b826060015182608001511015612e2a5760405162461bcd60e51b81526004016107b9906159a4565b60808201514261707f198101821080159261038490920190911115908290612e4f5750805b612e6b5760405162461bcd60e51b81526004016107b9906157d5565b50506000806060612e7b856132e1565b9250925092506000612e8e8787846136ae565b90506040518060c00160405280876000015163ffffffff168152602001846001600160401b0316815260200185815260200187608001518152602001876040015181526020018281525094505050505092915050565b60008282016001600160801b038085169082161015612a535760405162461bcd60e51b81526004016107b9906155c7565b600080600e600085604051602001612f2d91906152cb565b60408051601f198184030181529181528151602092830120835290820192909252016000205460ff169050808015612f77575084848481518110612f6d57fe5b6020026020010151145b95945050505050565b612f886142bd565b6005612f948382613243565b61ffff1683529050612fa68382613253565b6001600160801b031660208401526002019050612fc38382613263565b6001600160a01b03166040840152509092915050565b6000612fe583856125e4565b9050600061ffff851661300e5783613006816001600160801b0386166138f3565b91505061311f565b6003546040516310603dad60e01b81526000916001600160a01b0316906310603dad9061303f908990600401615c4d565b60206040518083038186803b15801561305757600080fd5b505afa15801561306b573d6000803e3d6000fd5b505050506040513d601f19601f8201168201806040525081019061308f91906146ab565b604051639a83400d60e01b81529091503090639a83400d9061c350906130bf9085908a908a90819060040161521b565b602060405180830381600088803b1580156130d957600080fd5b5087f19350505050801561310a575060408051601f3d908101601f1916820190925261310791810190614e77565b60015b613117576000915061311d565b50600191505b505b8061312e5761312e8284612632565b5050505050565b61313d6142bd565b6009612f948382613243565b6131516141a0565b600161315d838261322a565b63ffffffff16835290506131718382613263565b6001600160a01b03166020840152905061318b8382613243565b61ffff16604084015290506131a08382613253565b6001600160801b031660608401529050602b8114612ae15760405162461bcd60e51b81526004016107b990615589565b600082826040516020016131e592919061500e565b60405160208183030381529060405280519060200120905092915050565b60606001602080840151604080860151606087015191516124b995946000949391016150ee565b60048101600061323a8484613964565b90509250929050565b60028101600061323a8484613999565b60108101600061323a84846139c3565b60148101600061323a84846139ed565b600081848411156132975760405162461bcd60e51b81526004016107b9919061549e565b505050900390565b6000612a5383836040518060400160405280601e81526020017f536166654d6174683a207375627472616374696f6e206f766572666c6f770000815250613a17565b606081810151600c548151600080516020615dba83398151915293600093909290916001600160401b03808316600160801b909304169190910190600990061561333d5760405162461bcd60e51b81526004016107b9906154b1565b8151600990046001600160401b038111801561335857600080fd5b506040519080825280601f01601f191660200182016040528015613383576020820181803683370190505b50925060005b8660a00151518163ffffffff1610156136a4576133a46142dd565b8760a001518263ffffffff16815181106133ba57fe5b6020908102919091010151805190915063ffffffff1660098106156133f15760405162461bcd60e51b81526004016107b9906158cc565b600160f81b86600983048151811061340557fe5b60200101906001600160f81b031916908160001a905350600085828151811061342a57fe5b016020015160f81c600981111561343d57fe5b9050600181600981111561344d57fe5b14156134ca57606061346187846036613a4e565b905061346b6141a0565b61347482612a5a565b90506134848c6000015182613af1565b61348c6142dd565b604080518082019091528060015b815260200184905290506134b081898d01613b51565b6001909a01996134c08c846131d0565b9b50505050613696565b60038160098111156134d857fe5b14156135005760606134ec87846036613a4e565b90506134f88a826131d0565b995050613696565b600881600981111561350e57fe5b14156135225760606134ec87846036613a4e565b600681600981111561353057fe5b141561358157606061354487846036613a4e565b905061354e6141a0565b61355782613149565b90506135678c6000015182613cde565b61356f6142dd565b6040805180820190915280600661349a565b600781600981111561358f57fe5b141561367e5760606135a387846036613a4e565b90506135ad6141a0565b6135b682613d32565b90508460200151516000146135fa5760006135d5866020015183613da2565b9050806135f45760405162461bcd60e51b81526004016107b9906154d0565b50613677565b600081602001516040516020016136119190614fd1565b60408051601f198184030181529181528151602092830120848201516001600160a01b03166000908152600a8452828120606087015163ffffffff168252909352912054149050806136755760405162461bcd60e51b81526004016107b99061563a565b505b5050613696565b60405162461bcd60e51b81526004016107b990615af8565b505050806001019050613389565b5050509193909250565b6000806002846000015163ffffffff16856020015163ffffffff166040516020016136da929190615000565b60408051601f19818403018152908290526136f491615044565b602060405180830381855afa158015613711573d6000803e3d6000fd5b5050506040513d601f19601f820116820180604052508101906137349190614b1a565b9050600281866080015160405160200161374f929190615000565b60408051601f198184030181529082905261376991615044565b602060405180830381855afa158015613786573d6000803e3d6000fd5b5050506040513d601f19601f820116820180604052508101906137a99190614b1a565b905060028185604001516040516020016137c4929190615000565b60408051601f19818403018152908290526137de91615044565b602060405180830381855afa1580156137fb573d6000803e3d6000fd5b5050506040513d601f19601f8201168201806040525081019061381e9190614b1a565b90506002818560800151604051602001613839929190615000565b60408051601f198184030181529082905261385391615044565b602060405180830381855afa158015613870573d6000803e3d6000fd5b5050506040513d601f19601f820116820180604052508101906138939190614b1a565b905060608460600151846040516020016138ae929190615060565b60405160208183030381529060405290506040518151838352602082602083018560025afa8184528080156138e2576138e4565bfe5b50509051979650505050505050565b60008061271090506000846001600160a01b0316828560405161391590610f47565b600060405180830381858888f193505050503d8060008114613953576040519150601f19603f3d011682016040523d82523d6000602084013e613958565b606091505b50909695505050505050565b600080826004019050808451101561398e5760405162461bcd60e51b81526004016107b9906156de565b929092015192915050565b600080826002019050808451101561398e5760405162461bcd60e51b81526004016107b99061561b565b600080826010019050808451101561398e5760405162461bcd60e51b81526004016107b990615a5d565b600080826014019050808451101561398e5760405162461bcd60e51b81526004016107b990615b4e565b6000836001600160801b0316836001600160801b0316111582906132975760405162461bcd60e51b81526004016107b9919061549e565b606081830184511015613a735760405162461bcd60e51b81526004016107b99061571c565b6060826001600160401b0381118015613a8b57600080fd5b506040519080825280601f01601f191660200182016040528015613ab6576020820181803683370190505b5090508215613ae957602081018381016020860187015b81831015613ae5578051835260209283019201613acd565b5050505b949350505050565b806020015161ffff16816000015163ffffffff168363ffffffff167fc4e73a5b67a0594d06ea2b5c311c2aa44aa340dd4dd9ec5a1a718dc391b6447084606001518560400151604051613b45929190615273565b60405180910390a45050565b6001600160401b0381166000908152600b60209081526040918290208054600191820180548551600261010095831615959095026000190190911693909304601f810185900485028401850190955284835260ff90911693606093830182828015613bfd5780601f10613bd257610100808354040283529160200191613bfd565b820191906000526020600020905b815481529060010190602001808311613be057829003601f168201915b5050505050905083600001516009811115613c1457fe5b826009811115613c2057fe5b14613c3d5760405162461bcd60e51b81526004016107b990615985565b600184516009811115613c4c57fe5b1415613c8157613c60818560200151613e23565b613c7c5760405162461bcd60e51b81526004016107b990615966565b613cd8565b600684516009811115613c9057fe5b1415613cc057613ca4818560200151613e66565b613c7c5760405162461bcd60e51b81526004016107b99061556a565b60405162461bcd60e51b81526004016107b9906157f4565b50505050565b806040015161ffff16816000015163ffffffff168363ffffffff167f66fc63d751ecbefca61d4e2e7c534e4f29c61aed8ece23ed635277a7ea6f9bc484602001518560600151604051613b45929190615273565b613d3a6141a0565b6001613d46838261322a565b63ffffffff1683529050613d5a8382613e8f565b6001600160601b03191660208401529050613d758382613263565b6001600160a01b031660408401529050613d8f838261322a565b63ffffffff166060840152509092915050565b60008083600081518110613db257fe5b016020015160f81c6001811115613dc557fe5b90506000816001811115613dd557fe5b1415613ded57613de58484613e9f565b915050612213565b6001816001811115613dfb57fe5b1415613e0b57613de58484613f2d565b60405162461bcd60e51b81526004016107b9906155a8565b600060056060613e3585836026613a4e565b90506060613e488584602b819003613a4e565b90508080519060200120828051906020012014935050505092915050565b600080613e7484601b614007565b90506000613e8384601b614007565b91909114949350505050565b60148101600061323a848461405b565b6000806060613eb1856001604161408a565b915091506000613ec186846140a5565b915050600085602001518660600151876000015184604051602001613ee9949392919061508f565b6040516020818303038152906040528051906020012090506000613f0d84836140b5565b60408801516001600160a01b039182169116149550505050505092915050565b60008080806001613f3e8782613263565b94509050613f4c87826140a5565b93509050613f5a87826140a5565b80935081925050506000866020015184604051602001613f7b929190614fe6565b60408051601f198184030181529082905280516020918201209250600091613fb3916001600160f81b03199189918691899101614f9d565b6040516020818303038152906040528051906020012060001c905087604001516001600160a01b0316816001600160a01b03161480156119b55750606088015163ffffffff16159998505050505050505050565b6000602082111561402a5760405162461bcd60e51b81526004016107b99061552c565b818351101561404b5760405162461bcd60e51b81526004016107b990615a00565b5060209182015191036008021c90565b600081601401835110156140815760405162461bcd60e51b81526004016107b9906159e1565b50016020015190565b60006060614099858585613a4e565b93909201949293505050565b60208101600061323a8484614176565b600082516041146140d85760405162461bcd60e51b81526004016107b990615779565b60008060006140e786826140a5565b935090506140f586826140a5565b8093508192505050600086828151811061410b57fe5b602001015160f81c60f81b60f81c90506001868286866040516000815260200160405260405161413e9493929190615450565b6020604051602081039080840390855afa158015614160573d6000803e3d6000fd5b5050604051601f19015198975050505050505050565b600080826020019050808451101561398e5760405162461bcd60e51b81526004016107b990615659565b60408051608081018252600080825260208201819052918101829052606081019190915290565b6040805160c081018252600080825260208201819052918101829052606081018290526080810182905260a081019190915290565b50805460018160011615610100020316600290046000825580601f106142225750614240565b601f01602090049060005260206000209081019061424091906142f5565b50565b828054600181600116156101000203166002900490600052602060002090601f016020900481019282601f1061428457805160ff19168380011785556142b1565b828001600101855582156142b1579182015b828111156142b1578251825591602001919060010190614296565b506115f99291506142f5565b604080516060810182526000808252602082018190529181019190915290565b60408051808201909152600081526060602082015290565b5b808211156115f957600081556001016142f6565b600082601f83011261431a578081fd5b813561432d61432882615d36565b615d13565b81815291506020808301908481018184028601820187101561434e57600080fd5b60005b8481101561436d57813584529282019290820190600101614351565b505050505092915050565b600082601f830112614388578081fd5b813561439661432882615d36565b818152915060208083019084810160005b8481101561436d576143be888484358a0101614580565b845292820192908201906001016143a7565b600082601f8301126143e0578081fd5b81356143ee61432882615d36565b818152915060208083019084810160005b8481101561436d5781358701604080601f19838c0301121561442057600080fd5b80518181016001600160401b03828210818311171561443b57fe5b818452614449888601614664565b835292840135928084111561445d57600080fd5b505061446d8b8784860101614580565b818701528652505092820192908201906001016143ff565b600082601f830112614495578081fd5b6040516102008082018281106001600160401b03821117156144b357fe5b8060405250819250838582860111156144cb57600080fd5b600091505b60108210156144f0578035835260209283019260019290920191016144d0565b50505092915050565b60008083601f84011261450a578182fd5b5081356001600160401b03811115614520578182fd5b602083019150836020808302850101111561453a57600080fd5b9250929050565b60008083601f840112614552578182fd5b5081356001600160401b03811115614568578182fd5b60208301915083602082850101111561453a57600080fd5b600082601f830112614590578081fd5b81356001600160401b038111156145a357fe5b6145b6601f8201601f1916602001615d13565b91508082528360208285010111156145cd57600080fd5b8060208401602084013760009082016020015292915050565b600060c082840312156145f7578081fd5b60405160c081018181106001600160401b038211171561461357fe5b60405290508061462283614664565b815261463060208401614678565b602082015260408301356040820152606083013560608201526080830135608082015260a083013560a08201525092915050565b803563ffffffff8116811461262d57600080fd5b80356001600160401b038116811461262d57600080fd5b6000602082840312156146a0578081fd5b8135612a5381615d7f565b6000602082840312156146bc578081fd5b8151612a5381615d7f565b6000806000606084860312156146db578182fd5b83356146e681615d7f565b925060208401356146f681615d7f565b929592945050506040919091013590565b6000806000806080858703121561471c578182fd5b843561472781615d7f565b9350602085013561473781615d7f565b9250604085013561474781615d94565b9150606085013561475781615d94565b939692955090935050565b60008060408385031215614774578182fd5b823561477f81615d7f565b9150602083013561478f81615d94565b809150509250929050565b600080604083850312156147ac578182fd5b82356147b781615d7f565b9150602083013561478f81615da9565b600080604083850312156147d9578182fd5b82356147e481615d7f565b915061323a60208401614664565b60006020808385031215614804578182fd5b82356001600160401b038082111561481a578384fd5b818501915085601f83011261482d578384fd5b813561483b61432882615d36565b81815284810190848601875b848110156148f2578135870161012080601f19838f03011215614868578a8bfd5b604051608081018181108a8211171561487d57fe5b60405261488c8e848d016145e6565b815260e08301358981111561489f578c8dfd5b6148ad8f8d83870101614378565b8c83015250610100830135898111156148c4578c8dfd5b6148d28f8d8387010161430a565b604083015250910135606082015284529287019290870190600101614847565b50909998505050505050505050565b60006020808385031215614913578182fd5b82356001600160401b03811115614928578283fd5b8301601f81018513614938578283fd5b803561494661432882615d36565b8181528381019083850160c0808502860187018a1015614964578788fd5b8795505b848610156149905761497a8a836145e6565b8452600195909501949286019290810190614968565b509098975050505050505050565b600080600080600061028086880312156149b6578283fd5b85356001600160401b03808211156149cc578485fd5b6149d889838a0161430a565b96506020915081880135818111156149ee578586fd5b6149fa8a828b0161430a565b965050604088013581811115614a0e578586fd5b8801601f81018a13614a1e578586fd5b8035614a2c61432882615d36565b81815284810190838601868402850187018e1015614a4857898afd5b8994505b83851015614a7857803560ff81168114614a64578a8bfd5b835260019490940193918601918601614a4c565b5097505050506060880135915080821115614a91578283fd5b50614a9e8882890161430a565b925050614aae8760808801614485565b90509295509295909350565b600060208284031215614acb578081fd5b81518015158114612a53578182fd5b600060208284031215614aeb578081fd5b81356001600160501b031981168114612a53578182fd5b600060208284031215614b13578081fd5b5035919050565b600060208284031215614b2b578081fd5b5051919050565b60008060208385031215614b44578182fd5b82356001600160401b03811115614b59578283fd5b614b6585828601614541565b90969095509350505050565b60008060008060008060608789031215614b89578384fd5b86356001600160401b0380821115614b9f578586fd5b614bab8a838b01614541565b90985096506020890135915080821115614bc3578586fd5b614bcf8a838b01614541565b90965094506040890135915080821115614be7578283fd5b50614bf489828a016144f9565b979a9699509497509295939492505050565b600080600060408486031215614c1a578081fd5b83356001600160401b03811115614c2f578182fd5b614c3b86828701614541565b9094509250614c4e905060208501614664565b90509250925092565b600080600060608486031215614c6b578081fd5b8335614c7681615d7f565b925060208401356cffffffffffffffffffffffffff81168114614c97578182fd5b91506040840135614ca781615d7f565b809150509250925092565b60008060e08385031215614cc4578182fd5b614cce84846145e6565b915060c08301356001600160401b0380821115614ce9578283fd5b818501915085601f830112614cfc578283fd5b8135614d0a61432882615d36565b81815260208082019190858101875b85811015614dd0578135880160c0818e03601f19011215614d3857898afd5b614d4260c0615d13565b614d4d858301614664565b8152614d5b60408301614664565b8582015260608201356040820152608082013589811115614d7a578b8cfd5b614d888f8783860101614580565b60608301525060a0820135608082015260c082013589811115614da9578b8cfd5b614db78f87838601016143d0565b60a0830152508652509382019390820190600101614d19565b50505080955050505050509250929050565b6000806000806000806101408789031215614dfb578384fd5b614e0588886145e6565b9550614e1360c08801614664565b945060e0870135614e2381615da9565b9350610100870135614e3481615d94565b92506101208701356001600160401b03811115614e4f578283fd5b614bf489828a016144f9565b600060208284031215614e6c578081fd5b8135612a5381615d94565b600060208284031215614e88578081fd5b8151612a5381615d94565b600060208284031215614ea4578081fd5b8151612a5381615da9565b600060208284031215614ec0578081fd5b612a5382614664565b60008060408385031215614edb578182fd5b614ee483614664565b9150602083013561478f81615d7f565b60008060408385031215614f06578182fd5b6147b783614664565b600060208284031215614f20578081fd5b612a5382614678565b6000815180845260208085019450808401835b83811015614f5857815187529582019590820190600101614f3c565b509495945050505050565b60008151808452614f7b816020860160208601615d53565b601f01601f19169290920160200192915050565b600a8110614f9957fe5b9052565b6001600160f81b031994909416845260609290921b6001600160601b03191660018401526015830152603582015260550190565b6001600160601b031991909116815260140190565b6001600160601b0319929092168252601482015260340190565b918252602082015260400190565b60008382528251615026816020850160208701615d53565b919091016020019392505050565b6000828483379101908152919050565b60008251615056818460208701615d53565b9190910192915050565b60008351615072818460208801615d53565b835190830190615086818360208801615d53565b01949350505050565b7f19457468657265756d205369676e6564204d6573736167653a0a36300000000081526001600160601b031994909416601c8501526001600160e01b031960e093841b811660308601529190921b166034830152603882015260580190565b60f89590951b6001600160f81b03191685526001600160e01b031993909316600185015260f09190911b6001600160f01b031916600584015260801b6001600160801b031916600783015260601b6001600160601b0319166017820152602b0190565b60f89590951b6001600160f81b031916855260e09390931b6001600160e01b031916600185015260609190911b6001600160601b031916600584015260f01b6001600160f01b031916601983015260801b6001600160801b031916601b820152602b0190565b6001600160a01b0391909116815260200190565b6001600160a01b03861681526001600160401b038516602082015260006151f56040830186614f8f565b60a0606083015261520960a0830185614f63565b90508260808301529695505050505050565b6001600160a01b0394851681529290931660208301526001600160801b039081166040830152909116606082015260800190565b6001600160a01b039384168152919092166020820152604081019190915260600190565b6001600160a01b039290921682526001600160801b0316602082015260400190565b6001600160a01b0392909216825261ffff16602082015260400190565b6001600160a01b03929092168252602082015260400190565b6020808252825182820181905260009190848201906040850190845b81811015613958578351835292840192918401916001016152e7565b600060208252612a536020830184614f29565b600061028080835261532a81840189614f29565b905060208382038185015261533f8289614f29565b84810360408601528751808252828901935090820190845b8181101561537657845160ff1683529383019391830191600101615357565b5050848103606086015261538a8188614f29565b9350506080840191508460005b60108110156153b457815184529282019290820190600101615397565b505050509695505050505050565b901515815260200190565b90815260200190565b87815263ffffffff871660208201526001600160a01b038616604082015261ffff851660608201526001600160801b038416608082015260c060a08201819052810182905260006001600160fb1b03831115615430578081fd5b60208302808560e08501379190910160e001908152979650505050505050565b93845260ff9290921660208401526040830152606082015260800190565b600061547a8286614f8f565b6060602083015261548e6060830185614f63565b9050826040830152949350505050565b600060208252612a536020830184614f63565b602080825260059082015264666373313160d81b604082015260600190565b602080825260059082015264667070313560d81b604082015260600190565b6020808252600490820152637570673360e01b604082015260600190565b602080825260059082015264077746731360dc1b604082015260600190565b602080825260059082015264074726d31360dc1b604082015260600190565b602080825260059082015264657865313160d81b604082015260600190565b6020808252600590820152641d9b9c0c4d60da1b604082015260600190565b602080825260059082015264072667031360dc1b604082015260600190565b602080825260059082015264636870313360d81b604082015260600190565b6020808252601b908201527f536166654d6174683a206164646974696f6e206f766572666c6f770000000000604082015260600190565b60208082526003908201526276663160e81b604082015260600190565b602080825260059082015264313a3a981960d91b604082015260600190565b602080825260059082015264333838189b60d91b604082015260600190565b602080825260059082015264313a31199960d91b604082015260600190565b60208082526027908201527f53616665436173743a2076616c756520646f65736e27742066697420696e20316040820152663238206269747360c81b606082015260800190565b6020808252600590820152643bba33989960d91b604082015260600190565b602080825260059082015264189d1d4c0d60da1b604082015260600190565b602080825260059082015264636f65303160d81b604082015260600190565b602080825260059082015264627365313160d81b604082015260600190565b602080825260059082015264666565313160d81b604082015260600190565b602080825260059082015264065786531360dc1b604082015260600190565b602080825260059082015264076657331360dc1b604082015260600190565b602080825260059082015264667765313160d81b604082015260600190565b6020808252600490820152633ab8339960e11b604082015260600190565b6020808252600590820152643a36b9989960d91b604082015260600190565b602080825260059082015264766e70313560d81b604082015260600190565b60208082526005908201526431b7b2981960d91b604082015260600190565b602080825260059082015264061686631360dc1b604082015260600190565b602080825260059082015264616866313160d81b604082015260600190565b602080825260059082015264666574313160d81b604082015260600190565b6020808252600490820152637570673560e01b604082015260600190565b602080825260059082015264333218189960d91b604082015260600190565b6020808252600590820152643331b9b79960d91b604082015260600190565b602080825260059082015264777467313160d81b604082015260600190565b6020808252600490820152637570673160e01b604082015260600190565b602080825260059082015264066636b31360dc1b604082015260600190565b602080825260059082015264657865313360d81b604082015260600190565b602080825260059082015264766e70313360d81b604082015260600190565b602080825260059082015264373b38189960d91b604082015260600190565b602080825260059082015264746d73313160d81b604082015260600190565b6020808252600490820152631d5c19cd60e21b604082015260600190565b602080825260059082015264062746232360dc1b604082015260600190565b60208082526005908201526474726d313160d81b604082015260600190565b6020808252600590820152643332ba189960d91b604082015260600190565b602080825260059082015264066726b31360dc1b604082015260600190565b602080825260059082015264313a3a989b60d91b604082015260600190565b60208082526005908201526466636b313160d81b604082015260600190565b602080825260059082015264667265313160d81b604082015260600190565b602080825260059082015264666430313160d81b604082015260600190565b602080825260059082015264072647031360dc1b604082015260600190565b602080825260059082015264199c1c0c4d60da1b604082015260600190565b6020808252601f908201527f5265656e7472616e637947756172643a207265656e7472616e742063616c6c00604082015260600190565b602080825260059082015264627461313160d81b604082015260600190565b602080825260059082015264666574313360d81b604082015260600190565b602080825260059082015264657865303360d81b604082015260600190565b60208082526005908201526432bc32989960d91b604082015260600190565b600060c08201905063ffffffff83511682526001600160401b03602084015116602083015260408301516040830152606083015160608301526080830151608083015260a083015160a083015292915050565b6001600160801b0391909116815260200190565b6001600160801b0392909216825260ff16602082015260400190565b61ffff91909116815260200190565b63ffffffff91909116815260200190565b600063ffffffff851682526040602083015282604083015282846060840137818301606090810191909152601f909201601f1916010192915050565b63ffffffff92831681529116602082015260400190565b63ffffffff96871681526001600160401b039590951660208601529290941660408401526060830152608082019290925260a081019190915260c00190565b6001600160401b0391909116815260200190565b6040518181016001600160401b0381118282101715615d2e57fe5b604052919050565b60006001600160401b03821115615d4957fe5b5060209081020190565b60005b83811015615d6e578181015183820152602001615d56565b83811115613cd85750506000910152565b6001600160a01b038116811461424057600080fd5b6001600160801b038116811461424057600080fd5b61ffff8116811461424057600080fdfec5d2460186f7233c927e7db2dcc703c0e500b653ca82273b7bfad8045d85a4708e94fed44239eb2314ab7a406345e6c5a8f0ccedf3b600de3d004e672c33abf4a264697066735822122099fd637e92eaae9facef29e91d85c81a99062bedc94d6a0eed751e7c75d8ab5064736f6c63430007030033",
  "linkReferences": {},
  "deployedLinkReferences": {}
}