{
  "_format": "hh-sol-artifact-1",
  "contractName": "EIP1271",
  "sourceName": "cache/solpp-generated-contracts/dev-contracts/EIP1271.sol",
  "abi": [
    {
      "inputs": [
        {
          "internalType": "bytes32",
          "name": "",
          "type": "bytes32"
        },
        {
          "internalType": "bytes",
          "name": "",
          "type": "bytes"
        }
      ],
      "name": "isValidSignature",
      "outputs": [
        {
          "internalType": "bytes4",
          "name": "",
          "type": "bytes4"
        }
      ],
      "stateMutability": "pure",
      "type": "function"
    }
  ],
  "bytecode": "0x608060405234801561001057600080fd5b5061013e806100206000396000f3fe608060405234801561001057600080fd5b506004361061002b5760003560e01c80631626ba7e14610030575b600080fd5b6100dd6004803603604081101561004657600080fd5b8135919081019060408101602082013564010000000081111561006857600080fd5b82018360208201111561007a57600080fd5b8035906020019184600183028401116401000000008311171561009c57600080fd5b91908080601f0160208091040260200160405190810160405280939291908181526020018383808284376000920191909152509295506100fa945050505050565b604080516001600160e01b03199092168252519081900360200190f35b6320c13b0b60e01b9291505056fea264697066735822122042a30d035833cf14d98ac6dfa53016ee9e389e1ac1266e1b0b4f5cde5b00b11164736f6c63430007030033",
  "linkReferences": {},
  "deployedLinkReferences": {}
}