{
  "contractName": "PlasmaContract",
  "abi": [
    {
      "constant": true,
      "inputs": [],
      "name": "lastVerifiedRoot",
      "outputs": [
        {
          "name": "",
          "type": "bytes32"
        }
      ],
      "payable": false,
      "stateMutability": "view",
      "type": "function",
      "signature": "0x09b7f497"
    },
    {
      "constant": true,
      "inputs": [
        {
          "name": "",
          "type": "address"
        }
      ],
      "name": "operators",
      "outputs": [
        {
          "name": "",
          "type": "bool"
        }
      ],
      "payable": false,
      "stateMutability": "view",
      "type": "function",
      "signature": "0x13e7c9d8"
    },
    {
      "constant": false,
      "inputs": [],
      "name": "startNextDepositBatch",
      "outputs": [],
      "payable": false,
      "stateMutability": "nonpayable",
      "type": "function",
      "signature": "0x18a63d9c"
    },
    {
      "constant": true,
      "inputs": [],
      "name": "SPECIAL_ACCOUNT_EXITS",
      "outputs": [
        {
          "name": "",
          "type": "uint24"
        }
      ],
      "payable": false,
      "stateMutability": "view",
      "type": "function",
      "signature": "0x1e8072a2"
    },
    {
      "constant": true,
      "inputs": [],
      "name": "totalDepositRequests",
      "outputs": [
        {
          "name": "",
          "type": "uint256"
        }
      ],
      "payable": false,
      "stateMutability": "view",
      "type": "function",
      "signature": "0x254e88e2"
    },
    {
      "constant": true,
      "inputs": [],
      "name": "exitor",
      "outputs": [
        {
          "name": "",
          "type": "address"
        }
      ],
      "payable": false,
      "stateMutability": "view",
      "type": "function",
      "signature": "0x2713ad69"
    },
    {
      "constant": true,
      "inputs": [
        {
          "name": "",
          "type": "address"
        }
      ],
      "name": "balances",
      "outputs": [
        {
          "name": "",
          "type": "uint256"
        }
      ],
      "payable": false,
      "stateMutability": "view",
      "type": "function",
      "signature": "0x27e235e3"
    },
    {
      "constant": true,
      "inputs": [],
      "name": "totalExitRequests",
      "outputs": [
        {
          "name": "",
          "type": "uint256"
        }
      ],
      "payable": false,
      "stateMutability": "view",
      "type": "function",
      "signature": "0x29a081ac"
    },
    {
      "constant": true,
      "inputs": [
        {
          "name": "",
          "type": "address"
        },
        {
          "name": "",
          "type": "uint32"
        }
      ],
      "name": "exitLeafs",
      "outputs": [
        {
          "name": "nextID",
          "type": "uint32"
        },
        {
          "name": "amount",
          "type": "uint128"
        }
      ],
      "payable": false,
      "stateMutability": "view",
      "type": "function",
      "signature": "0x2ad67a96"
    },
    {
      "constant": true,
      "inputs": [
        {
          "name": "value",
          "type": "uint256"
        }
      ],
      "name": "scaleIntoPlasmaUnitsFromWei",
      "outputs": [
        {
          "name": "",
          "type": "uint128"
        }
      ],
      "payable": false,
      "stateMutability": "pure",
      "type": "function",
      "signature": "0x2c87c6c9"
    },
    {
      "constant": true,
      "inputs": [],
      "name": "DEPOSIT_BATCH_SIZE",
      "outputs": [
        {
          "name": "",
          "type": "uint256"
        }
      ],
      "payable": false,
      "stateMutability": "view",
      "type": "function",
      "signature": "0x351eb751"
    },
    {
      "constant": false,
      "inputs": [],
      "name": "cancelDeposit",
      "outputs": [],
      "payable": false,
      "stateMutability": "nonpayable",
      "type": "function",
      "signature": "0x3d561602"
    },
    {
      "constant": true,
      "inputs": [],
      "name": "MAX_DELAY",
      "outputs": [
        {
          "name": "",
          "type": "uint64"
        }
      ],
      "payable": false,
      "stateMutability": "view",
      "type": "function",
      "signature": "0x4125ff90"
    },
    {
      "constant": true,
      "inputs": [],
      "name": "lastCommittedExitBatch",
      "outputs": [
        {
          "name": "",
          "type": "uint256"
        }
      ],
      "payable": false,
      "stateMutability": "view",
      "type": "function",
      "signature": "0x4c5ff682"
    },
    {
      "constant": true,
      "inputs": [
        {
          "name": "",
          "type": "uint256"
        },
        {
          "name": "",
          "type": "uint24"
        }
      ],
      "name": "depositRequests",
      "outputs": [
        {
          "name": "amount",
          "type": "uint128"
        }
      ],
      "payable": false,
      "stateMutability": "view",
      "type": "function",
      "signature": "0x5300e410"
    },
    {
      "constant": false,
      "inputs": [
        {
          "name": "batchNumber",
          "type": "uint256"
        },
        {
          "name": "accoundIDs",
          "type": "uint24[1]"
        },
        {
          "name": "blockNumber",
          "type": "uint32"
        },
        {
          "name": "newRoot",
          "type": "bytes32"
        }
      ],
      "name": "commitDepositBlock",
      "outputs": [],
      "payable": false,
      "stateMutability": "nonpayable",
      "type": "function",
      "signature": "0x533de30a"
    },
    {
      "constant": true,
      "inputs": [],
      "name": "currentExitBatchFee",
      "outputs": [
        {
          "name": "",
          "type": "uint128"
        }
      ],
      "payable": false,
      "stateMutability": "view",
      "type": "function",
      "signature": "0x57d2ae24"
    },
    {
      "constant": true,
      "inputs": [
        {
          "name": "",
          "type": "uint32"
        }
      ],
      "name": "blocks",
      "outputs": [
        {
          "name": "circuit",
          "type": "uint8"
        },
        {
          "name": "deadline",
          "type": "uint64"
        },
        {
          "name": "totalFees",
          "type": "uint128"
        },
        {
          "name": "newRoot",
          "type": "bytes32"
        },
        {
          "name": "publicDataCommitment",
          "type": "bytes32"
        },
        {
          "name": "prover",
          "type": "address"
        }
      ],
      "payable": false,
      "stateMutability": "view",
      "type": "function",
      "signature": "0x5cd0783e"
    },
    {
      "constant": false,
      "inputs": [
        {
          "name": "accountID",
          "type": "uint24"
        },
        {
          "name": "maxFee",
          "type": "uint128"
        }
      ],
      "name": "depositInto",
      "outputs": [],
      "payable": true,
      "stateMutability": "payable",
      "type": "function",
      "signature": "0x5df1b433"
    },
    {
      "constant": true,
      "inputs": [
        {
          "name": "blockNumber",
          "type": "uint32"
        },
        {
          "name": "txDataPacked",
          "type": "bytes"
        }
      ],
      "name": "createPublicDataCommitmentForDeposit",
      "outputs": [
        {
          "name": "h",
          "type": "bytes32"
        }
      ],
      "payable": false,
      "stateMutability": "pure",
      "type": "function",
      "signature": "0x609293b7"
    },
    {
      "constant": true,
      "inputs": [],
      "name": "lastVerifiedDepositBatch",
      "outputs": [
        {
          "name": "",
          "type": "uint256"
        }
      ],
      "payable": false,
      "stateMutability": "view",
      "type": "function",
      "signature": "0x63d078aa"
    },
    {
      "constant": true,
      "inputs": [],
      "name": "TRANSFER_BLOCK_SIZE",
      "outputs": [
        {
          "name": "",
          "type": "uint256"
        }
      ],
      "payable": false,
      "stateMutability": "view",
      "type": "function",
      "signature": "0x69935b69"
    },
    {
      "constant": true,
      "inputs": [],
      "name": "stopped",
      "outputs": [
        {
          "name": "",
          "type": "bool"
        }
      ],
      "payable": false,
      "stateMutability": "view",
      "type": "function",
      "signature": "0x75f12b21"
    },
    {
      "constant": true,
      "inputs": [
        {
          "name": "",
          "type": "uint24"
        }
      ],
      "name": "accounts",
      "outputs": [
        {
          "name": "state",
          "type": "uint8"
        },
        {
          "name": "exitBatchNumber",
          "type": "uint32"
        },
        {
          "name": "owner",
          "type": "address"
        },
        {
          "name": "publicKey",
          "type": "uint256"
        },
        {
          "name": "exitListHead",
          "type": "uint32"
        },
        {
          "name": "exitListTail",
          "type": "uint32"
        }
      ],
      "payable": false,
      "stateMutability": "view",
      "type": "function",
      "signature": "0x7dc38ab9"
    },
    {
      "constant": true,
      "inputs": [],
      "name": "lastCommittedBlockNumber",
      "outputs": [
        {
          "name": "",
          "type": "uint32"
        }
      ],
      "payable": false,
      "stateMutability": "view",
      "type": "function",
      "signature": "0x838e2049"
    },
    {
      "constant": true,
      "inputs": [
        {
          "name": "",
          "type": "address"
        }
      ],
      "name": "ethereumAddressToAccountID",
      "outputs": [
        {
          "name": "",
          "type": "uint24"
        }
      ],
      "payable": false,
      "stateMutability": "view",
      "type": "function",
      "signature": "0x8512153f"
    },
    {
      "constant": false,
      "inputs": [
        {
          "name": "publicKey",
          "type": "uint256[2]"
        },
        {
          "name": "maxFee",
          "type": "uint128"
        }
      ],
      "name": "deposit",
      "outputs": [],
      "payable": true,
      "stateMutability": "payable",
      "type": "function",
      "signature": "0x85611d26"
    },
    {
      "constant": true,
      "inputs": [],
      "name": "transactor",
      "outputs": [
        {
          "name": "",
          "type": "address"
        }
      ],
      "payable": false,
      "stateMutability": "view",
      "type": "function",
      "signature": "0x8ecb72d1"
    },
    {
      "constant": true,
      "inputs": [],
      "name": "DENOMINATOR",
      "outputs": [
        {
          "name": "",
          "type": "uint256"
        }
      ],
      "payable": false,
      "stateMutability": "view",
      "type": "function",
      "signature": "0x918f8674"
    },
    {
      "constant": false,
      "inputs": [
        {
          "name": "batchNumber",
          "type": "uint256"
        },
        {
          "name": "accoundIDs",
          "type": "uint24[1]"
        },
        {
          "name": "blockNumber",
          "type": "uint32"
        },
        {
          "name": "proof",
          "type": "uint256[8]"
        }
      ],
      "name": "verifyDepositBlock",
      "outputs": [],
      "payable": false,
      "stateMutability": "nonpayable",
      "type": "function",
      "signature": "0x95b5d617"
    },
    {
      "constant": true,
      "inputs": [
        {
          "name": "",
          "type": "uint256"
        }
      ],
      "name": "exitBatches",
      "outputs": [
        {
          "name": "state",
          "type": "uint8"
        },
        {
          "name": "blockNumber",
          "type": "uint32"
        },
        {
          "name": "timestamp",
          "type": "uint64"
        },
        {
          "name": "batchFee",
          "type": "uint128"
        }
      ],
      "payable": false,
      "stateMutability": "view",
      "type": "function",
      "signature": "0x9d9c9419"
    },
    {
      "constant": true,
      "inputs": [],
      "name": "DEADLINE",
      "outputs": [
        {
          "name": "",
          "type": "uint256"
        }
      ],
      "payable": false,
      "stateMutability": "view",
      "type": "function",
      "signature": "0xa082c86e"
    },
    {
      "constant": true,
      "inputs": [],
      "name": "currentDepositBatchFee",
      "outputs": [
        {
          "name": "",
          "type": "uint128"
        }
      ],
      "payable": false,
      "stateMutability": "view",
      "type": "function",
      "signature": "0xa15ff0c3"
    },
    {
      "constant": true,
      "inputs": [
        {
          "name": "value",
          "type": "uint128"
        }
      ],
      "name": "scaleFromPlasmaUnitsIntoWei",
      "outputs": [
        {
          "name": "",
          "type": "uint256"
        }
      ],
      "payable": false,
      "stateMutability": "pure",
      "type": "function",
      "signature": "0xa315c91b"
    },
    {
      "constant": true,
      "inputs": [
        {
          "name": "publicKey",
          "type": "uint256[2]"
        }
      ],
      "name": "packAndValidatePublicKey",
      "outputs": [
        {
          "name": "packed",
          "type": "uint256"
        }
      ],
      "payable": false,
      "stateMutability": "pure",
      "type": "function",
      "signature": "0xc47ba19d"
    },
    {
      "constant": true,
      "inputs": [],
      "name": "SPECIAL_ACCOUNT_DEPOSITS",
      "outputs": [
        {
          "name": "",
          "type": "uint24"
        }
      ],
      "payable": false,
      "stateMutability": "view",
      "type": "function",
      "signature": "0xcd7543c0"
    },
    {
      "constant": true,
      "inputs": [],
      "name": "lastVerifiedExitBatch",
      "outputs": [
        {
          "name": "",
          "type": "uint256"
        }
      ],
      "payable": false,
      "stateMutability": "view",
      "type": "function",
      "signature": "0xed03f563"
    },
    {
      "constant": true,
      "inputs": [],
      "name": "nextAccountToRegister",
      "outputs": [
        {
          "name": "",
          "type": "uint24"
        }
      ],
      "payable": false,
      "stateMutability": "view",
      "type": "function",
      "signature": "0xf47932ad"
    },
    {
      "constant": true,
      "inputs": [],
      "name": "lastVerifiedBlockNumber",
      "outputs": [
        {
          "name": "",
          "type": "uint32"
        }
      ],
      "payable": false,
      "stateMutability": "view",
      "type": "function",
      "signature": "0xf4c163a4"
    },
    {
      "constant": false,
      "inputs": [
        {
          "name": "newBatchFee",
          "type": "uint128"
        }
      ],
      "name": "changeDepositBatchFee",
      "outputs": [],
      "payable": false,
      "stateMutability": "nonpayable",
      "type": "function",
      "signature": "0xf648a6c7"
    },
    {
      "constant": true,
      "inputs": [
        {
          "name": "",
          "type": "uint256"
        }
      ],
      "name": "depositBatches",
      "outputs": [
        {
          "name": "state",
          "type": "uint8"
        },
        {
          "name": "numRequests",
          "type": "uint24"
        },
        {
          "name": "blockNumber",
          "type": "uint32"
        },
        {
          "name": "timestamp",
          "type": "uint64"
        },
        {
          "name": "batchFee",
          "type": "uint128"
        }
      ],
      "payable": false,
      "stateMutability": "view",
      "type": "function",
      "signature": "0xfb0cd20f"
    },
    {
      "constant": true,
      "inputs": [],
      "name": "lastCommittedDepositBatch",
      "outputs": [
        {
          "name": "",
          "type": "uint256"
        }
      ],
      "payable": false,
      "stateMutability": "view",
      "type": "function",
      "signature": "0xfb1d5010"
    },
    {
      "inputs": [
        {
          "name": "_transactor",
          "type": "address"
        },
        {
          "name": "_exitor",
          "type": "address"
        },
        {
          "name": "_paddingPubKey",
          "type": "uint256[2]"
        }
      ],
      "payable": false,
      "stateMutability": "nonpayable",
      "type": "constructor",
      "signature": "constructor"
    },
    {
      "payable": true,
      "stateMutability": "payable",
      "type": "fallback"
    },
    {
      "anonymous": false,
      "inputs": [
        {
          "indexed": true,
          "name": "blockNumber",
          "type": "uint32"
        }
      ],
      "name": "BlockCommitted",
      "type": "event",
      "signature": "0xdf39762be389bd636a9efb2e4f3b26ac7d22eda4f0840f389209987a09e50fc9"
    },
    {
      "anonymous": false,
      "inputs": [
        {
          "indexed": true,
          "name": "blockNumber",
          "type": "uint32"
        }
      ],
      "name": "BlockVerified",
      "type": "event",
      "signature": "0xca558d7524956f89ce1ec833efe8a265ed2b1e92b20ff4fe2fb87fb1a042e524"
    },
    {
      "anonymous": false,
      "inputs": [
        {
          "indexed": true,
          "name": "batchNumber",
          "type": "uint256"
        },
        {
          "indexed": true,
          "name": "accountID",
          "type": "uint24"
        },
        {
          "indexed": true,
          "name": "publicKey",
          "type": "uint256"
        },
        {
          "indexed": false,
          "name": "amount",
          "type": "uint128"
        }
      ],
      "name": "LogDepositRequest",
      "type": "event",
      "signature": "0x77576c82d939ce0a49902463e0dd51c0257e560ff4f55a51a702af4ed7691266"
    },
    {
      "anonymous": false,
      "inputs": [
        {
          "indexed": true,
          "name": "batchNumber",
          "type": "uint256"
        },
        {
          "indexed": true,
          "name": "accountID",
          "type": "uint24"
        }
      ],
      "name": "LogCancelDepositRequest",
      "type": "event",
      "signature": "0xd99f8eb80f2e84189fe41fb9bed3506f73da9be70a0df39e2b4a997e92dbd61a"
    },
    {
      "anonymous": false,
      "inputs": [
        {
          "indexed": true,
          "name": "batchNumber",
          "type": "uint256"
        },
        {
          "indexed": true,
          "name": "accountID",
          "type": "uint24"
        }
      ],
      "name": "LogExitRequest",
      "type": "event",
      "signature": "0x236e3f00e03d1484fd608958ad56082729315788fd4541cc50b5cdac4bce07f0"
    },
    {
      "anonymous": false,
      "inputs": [
        {
          "indexed": true,
          "name": "batchNumber",
          "type": "uint256"
        },
        {
          "indexed": true,
          "name": "accountID",
          "type": "uint24"
        }
      ],
      "name": "LogCancelExitRequest",
      "type": "event",
      "signature": "0x09754f168d20bdac07b81b649e49ed48fe35f1a08ea551c1ae0366f324d6a3b4"
    },
    {
      "anonymous": false,
      "inputs": [
        {
          "indexed": true,
          "name": "ethereumAddress",
          "type": "address"
        },
        {
          "indexed": true,
          "name": "blockNumber",
          "type": "uint32"
        }
      ],
      "name": "LogExit",
      "type": "event",
      "signature": "0x6030852c9631bc119530851caef56a18b04441ffde1a59c38e046ea25d001e78"
    },
    {
      "anonymous": false,
      "inputs": [
        {
          "indexed": true,
          "name": "ethereumAddress",
          "type": "address"
        },
        {
          "indexed": true,
          "name": "blockNumber",
          "type": "uint32"
        },
        {
          "indexed": false,
          "name": "accountID",
          "type": "uint24"
        }
      ],
      "name": "LogCompleteExit",
      "type": "event",
      "signature": "0xbd4f8ad55cac8b7705cb6fbc17b28e416d8e82c39b33e21cc95965d23fc906e6"
    }
  ],
  "bytecode": "0x60806040523480156200001157600080fd5b5060405160808062006d088339810180604052810190808051906020019092919080519060200190929190919050506002600a60106101000a81548162ffffff021916908362ffffff1602179055507e3f7e15e4de3453fe13e11fb4b007f1fce6a5b0f0353b3b8208910143aaa2f76001026006816000191690555060018060003373ffffffffffffffffffffffffffffffffffffffff1673ffffffffffffffffffffffffffffffffffffffff16815260200190815260200160002060006101000a81548160ff02191690831515021790555082601360006101000a81548173ffffffffffffffffffffffffffffffffffffffff021916908373ffffffffffffffffffffffffffffffffffffffff16021790555081601460006101000a81548173ffffffffffffffffffffffffffffffffffffffff021916908373ffffffffffffffffffffffffffffffffffffffff160217905550620001828160006200018b640100000000026401000000009004565b50505062001187565b600080620001986200110b565b600560009054906101000a900460ff1615151562000244576040517f08c379a00000000000000000000000000000000000000000000000000000000081526004018080602001828103825260278152602001807f636f6e74726163742073686f756c64206e6f7420626520676c6f62616c6c792081526020017f73746f707065640000000000000000000000000000000000000000000000000081525060400191505060405180910390fd5b600360003373ffffffffffffffffffffffffffffffffffffffff1673ffffffffffffffffffffffffffffffffffffffff16815260200190815260200160002060009054906101000a900462ffffff16925060008362ffffff161415620004e957620002be856200050b640100000000026401000000009004565b9150600a60109054906101000a900462ffffff16600360003373ffffffffffffffffffffffffffffffffffffffff1673ffffffffffffffffffffffffffffffffffffffff16815260200190815260200160002060006101000a81548162ffffff021916908362ffffff16021790555060c060405190810160405280600160038111156200034757fe5b60ff168152602001600063ffffffff1681526020013373ffffffffffffffffffffffffffffffffffffffff168152602001838152602001600063ffffffff168152602001600063ffffffff168152509050600a60109054906101000a900462ffffff16925080600460008562ffffff1662ffffff16815260200190815260200160002060008201518160000160006101000a81548160ff021916908360ff16021790555060208201518160000160016101000a81548163ffffffff021916908363ffffffff16021790555060408201518160000160056101000a81548173ffffffffffffffffffffffffffffffffffffffff021916908373ffffffffffffffffffffffffffffffffffffffff1602179055506060820151816001015560808201518160020160006101000a81548163ffffffff021916908363ffffffff16021790555060a08201518160020160046101000a81548163ffffffff021916908363ffffffff1602179055509050506001600a60108282829054906101000a900462ffffff160192506101000a81548162ffffff021916908362ffffff1602179055505b620005048385620005e0640100000000026401000000009004565b5050505050565b60006200052c8262000def640100000000026200424a176401000000009004565b1515620005a1576040517f08c379a000000000000000000000000000000000000000000000000000000000815260040180806020018281038252601f8152602001807f7075626c6963206b6579206d757374206265206f6e207468652063757276650081525060200191505060405180910390fd5b60ff6001836000600281101515620005b557fe5b6020020151169060020a02826001600281101515620005d057fe5b6020020151019050809050919050565b6000620005ec6200110b565b6000806000600560009054906101000a900460ff161515156200069d576040517f08c379a00000000000000000000000000000000000000000000000000000000081526004018080602001828103825260278152602001807f636f6e74726163742073686f756c64206e6f7420626520676c6f62616c6c792081526020017f73746f707065640000000000000000000000000000000000000000000000000081525060400191505060405180910390fd5b600a60009054906101000a90046fffffffffffffffffffffffffffffffff166fffffffffffffffffffffffffffffffff16866fffffffffffffffffffffffffffffffff16101515156200077e576040517f08c379a00000000000000000000000000000000000000000000000000000000081526004018080602001828103825260218152602001807f6465706f73697420666565206973206c657373207468616e207265717569726581526020017f640000000000000000000000000000000000000000000000000000000000000081525060400191505060405180910390fd5b620007983462000e5c640100000000026401000000009004565b9450600a60009054906101000a90046fffffffffffffffffffffffffffffffff166fffffffffffffffffffffffffffffffff16856fffffffffffffffffffffffffffffffff16101515156200087b576040517f08c379a00000000000000000000000000000000000000000000000000000000081526004018080602001828103825260238152602001807f6465706f73697420616d6f756e742073686f756c6420636f766572207468652081526020017f666565000000000000000000000000000000000000000000000000000000000081525060400191505060405180910390fd5b600a60109054906101000a900462ffffff1662ffffff168762ffffff1610151562000934576040517f08c379a00000000000000000000000000000000000000000000000000000000081526004018080602001828103825260358152602001807f666f72206e6f77206f6e6c7920616c6c6f7720746f206465706f73697420696e81526020017f746f206e6f6e2d656d707479206163636f756e7473000000000000000000000081525060400191505060405180910390fd5b600460008862ffffff1662ffffff16815260200190815260200160002060c060405190810160405290816000820160009054906101000a900460ff1660ff1660ff1681526020016000820160019054906101000a900463ffffffff1663ffffffff1663ffffffff1681526020016000820160059054906101000a900473ffffffffffffffffffffffffffffffffffffffff1673ffffffffffffffffffffffffffffffffffffffff1673ffffffffffffffffffffffffffffffffffffffff168152602001600182015481526020016002820160009054906101000a900463ffffffff1663ffffffff1663ffffffff1681526020016002820160049054906101000a900463ffffffff1663ffffffff1663ffffffff168152505093506001600381111562000a5c57fe5b60ff16846000015160ff1614151562000b03576040517f08c379a00000000000000000000000000000000000000000000000000000000081526004018080602001828103825260288152602001807f63616e206f6e6c79206465706f73697420696e746f207265676973746572656481526020017f206163636f756e7400000000000000000000000000000000000000000000000081525060400191505060405180910390fd5b600160075481151562000b1257fe5b049250600c6000848152602001908152602001600020915060008260000160089054906101000a900467ffffffffffffffff1667ffffffffffffffff16141562000c27576000600281111562000b6457fe5b8260000160006101000a81548160ff021916908360ff16021790555060008260000160016101000a81548162ffffff021916908362ffffff160217905550428260000160086101000a81548167ffffffffffffffff021916908367ffffffffffffffff160217905550600a60009054906101000a90046fffffffffffffffffffffffffffffffff168260000160106101000a8154816fffffffffffffffffffffffffffffffff02191690836fffffffffffffffffffffffffffffffff1602179055505b600a60009054906101000a90046fffffffffffffffffffffffffffffffff1685039450600b600084815260200190815260200160002060008862ffffff1662ffffff168152602001908152602001600020905060008160000160009054906101000a90046fffffffffffffffffffffffffffffffff166fffffffffffffffffffffffffffffffff16141562000d035781600001600181819054906101000a900462ffffff168092919060010191906101000a81548162ffffff021916908362ffffff160217905550506007600081548092919060010191905055505b848160000160008282829054906101000a90046fffffffffffffffffffffffffffffffff160192506101000a8154816fffffffffffffffffffffffffffffffff02191690836fffffffffffffffffffffffffffffffff16021790555083606001518762ffffff16847f77576c82d939ce0a49902463e0dd51c0257e560ff4f55a51a702af4ed76912668460000160009054906101000a90046fffffffffffffffffffffffffffffffff1660405180826fffffffffffffffffffffffffffffffff166fffffffffffffffffffffffffffffffff16815260200191505060405180910390a450505050505050565b600062000dfb6200116d565b604080519081016040528084600060028110151562000e1657fe5b6020020151815260200184600160028110151562000e3057fe5b6020020151815250905062000e548162000fad640100000000026401000000009004565b915050919050565b600080600064e8d4a5100091506000828581151562000e7757fe5b0614151562000f14576040517f08c379a00000000000000000000000000000000000000000000000000000000081526004018080602001828103825260298152602001807f616d6f756e74206861732068696768657220707265636973696f6e207468616e81526020017f20706f737369626c65000000000000000000000000000000000000000000000081525060400191505060405180910390fd5b818481151562000f2057fe5b049050608060019060020a028110151562000fa3576040517f08c379a000000000000000000000000000000000000000000000000000000000815260040180806020018281038252601a8152602001807f6465706f73697420616d6f756e7420697320746f6f206869676800000000000081525060200191505060405180910390fd5b8092505050919050565b60008060008060008060008062000fd262001093640100000000026401000000009004565b965062000fed620010bb640100000000026401000000009004565b955062001008620010e3640100000000026401000000009004565b9450868015156200101557fe5b89600001518a60000151099350868015156200102d57fe5b89602001518a60200151099250868015156200104557fe5b83888015156200105157fe5b868909089150868015156200106257fe5b878015156200106d57fe5b888015156200107857fe5b85870987096001089050808214975050505050505050919050565b60007f30644e72e131a029b85045b68181585d2833e84879b9709143e1f593f0000001905090565b60007f30644e72e131a029b85045b68181585d2833e84879b9709143e1f593f0000000905090565b60007f1aee90f15f2189693df072d799fd11fc039b2959ebb7c867d075ca8cf4d7eb8e905090565b60c060405190810160405280600060ff168152602001600063ffffffff168152602001600073ffffffffffffffffffffffffffffffffffffffff16815260200160008152602001600063ffffffff168152602001600063ffffffff1681525090565b604080519081016040528060008152602001600081525090565b615b7180620011976000396000f300608060405260043610610204576000357c0100000000000000000000000000000000000000000000000000000000900463ffffffff16806309b7f4971461025e57806313e7c9d81461029157806318a63d9c146102ec5780631e8072a214610303578063254e88e2146103385780632713ad691461036357806327e235e3146103ba57806329a081ac146104115780632ad67a961461043c5780632c87c6c9146104da578063351eb7511461053f5780633d5616021461056a5780634125ff90146105815780634c5ff682146105c05780635300e410146105eb578063533de30a1461065f57806357d2ae24146106d95780635cd0783e146107285780635df1b4331461080c578063609293b71461084d57806363d078aa146108e257806369935b691461090d57806375f12b21146109385780637dc38ab914610967578063838e204914610a265780638512153f14610a5d57806385611d2614610abe5780638ecb72d114610b1f578063918f867414610b7657806395b5d61714610ba15780639d9c941914610c3d578063a082c86e14610cdd578063a15ff0c314610d08578063a315c91b14610d57578063c47ba19d14610daa578063cd7543c014610e10578063ed03f56314610e45578063f47932ad14610e70578063f4c163a414610ea5578063f648a6c714610edc578063fb0cd20f14610f1b578063fb1d501014610fcc575b6000601360009054906101000a900473ffffffffffffffffffffffffffffffffffffffff1690506040513660008237368101806040526040813684866107d05a03f43d806000843e8160008114610259578184f35b600080fd5b34801561026a57600080fd5b50610273610ff7565b60405180826000191660001916815260200191505060405180910390f35b34801561029d57600080fd5b506102d2600480360381019080803573ffffffffffffffffffffffffffffffffffffffff169060200190929190505050610ffd565b604051808215151515815260200191505060405180910390f35b3480156102f857600080fd5b5061030161101d565b005b34801561030f57600080fd5b5061031861128e565b604051808262ffffff1662ffffff16815260200191505060405180910390f35b34801561034457600080fd5b5061034d611293565b6040518082815260200191505060405180910390f35b34801561036f57600080fd5b50610378611299565b604051808273ffffffffffffffffffffffffffffffffffffffff1673ffffffffffffffffffffffffffffffffffffffff16815260200191505060405180910390f35b3480156103c657600080fd5b506103fb600480360381019080803573ffffffffffffffffffffffffffffffffffffffff1690602001909291905050506112bf565b6040518082815260200191505060405180910390f35b34801561041d57600080fd5b506104266112d7565b6040518082815260200191505060405180910390f35b34801561044857600080fd5b5061048d600480360381019080803573ffffffffffffffffffffffffffffffffffffffff169060200190929190803563ffffffff1690602001909291905050506112dd565b604051808363ffffffff1663ffffffff168152602001826fffffffffffffffffffffffffffffffff166fffffffffffffffffffffffffffffffff1681526020019250505060405180910390f35b3480156104e657600080fd5b506105056004803603810190808035906020019092919050505061133a565b60405180826fffffffffffffffffffffffffffffffff166fffffffffffffffffffffffffffffffff16815260200191505060405180910390f35b34801561054b57600080fd5b50610554611487565b6040518082815260200191505060405180910390f35b34801561057657600080fd5b5061057f61148c565b005b34801561058d57600080fd5b50610596611974565b604051808267ffffffffffffffff1667ffffffffffffffff16815260200191505060405180910390f35b3480156105cc57600080fd5b506105d561197b565b6040518082815260200191505060405180910390f35b3480156105f757600080fd5b5061062560048036038101908080359060200190929190803562ffffff169060200190929190505050611981565b60405180826fffffffffffffffffffffffffffffffff166fffffffffffffffffffffffffffffffff16815260200191505060405180910390f35b34801561066b57600080fd5b506106d7600480360381019080803590602001909291908060200190600180602002604051908101604052809291908260016020028082843782019150505050509192919290803563ffffffff16906020019092919080356000191690602001909291905050506119c8565b005b3480156106e557600080fd5b506106ee611f69565b60405180826fffffffffffffffffffffffffffffffff166fffffffffffffffffffffffffffffffff16815260200191505060405180910390f35b34801561073457600080fd5b50610759600480360381019080803563ffffffff169060200190929190505050611f8b565b604051808760ff1660ff1681526020018667ffffffffffffffff1667ffffffffffffffff168152602001856fffffffffffffffffffffffffffffffff166fffffffffffffffffffffffffffffffff168152602001846000191660001916815260200183600019166000191681526020018273ffffffffffffffffffffffffffffffffffffffff1673ffffffffffffffffffffffffffffffffffffffff168152602001965050505050505060405180910390f35b61084b600480360381019080803562ffffff16906020019092919080356fffffffffffffffffffffffffffffffff169060200190929190505050612024565b005b34801561085957600080fd5b506108c4600480360381019080803563ffffffff169060200190929190803590602001908201803590602001908080601f0160208091040260200160405190810160405280939291908181526020018383808284378201915050505050509192919290505050612816565b60405180826000191660001916815260200191505060405180910390f35b3480156108ee57600080fd5b506108f7612a0f565b6040518082815260200191505060405180910390f35b34801561091957600080fd5b50610922612a15565b6040518082815260200191505060405180910390f35b34801561094457600080fd5b5061094d612a1a565b604051808215151515815260200191505060405180910390f35b34801561097357600080fd5b50610997600480360381019080803562ffffff169060200190929190505050612a2d565b604051808760ff1660ff1681526020018663ffffffff1663ffffffff1681526020018573ffffffffffffffffffffffffffffffffffffffff1673ffffffffffffffffffffffffffffffffffffffff1681526020018481526020018363ffffffff1663ffffffff1681526020018263ffffffff1663ffffffff168152602001965050505050505060405180910390f35b348015610a3257600080fd5b50610a3b612ac6565b604051808263ffffffff1663ffffffff16815260200191505060405180910390f35b348015610a6957600080fd5b50610a9e600480360381019080803573ffffffffffffffffffffffffffffffffffffffff169060200190929190505050612adc565b604051808262ffffff1662ffffff16815260200191505060405180910390f35b610b1d600480360381019080806040019060028060200260405190810160405280929190826002602002808284378201915050505050919291929080356fffffffffffffffffffffffffffffffff169060200190929190505050612afe565b005b348015610b2b57600080fd5b50610b34612e57565b604051808273ffffffffffffffffffffffffffffffffffffffff1673ffffffffffffffffffffffffffffffffffffffff16815260200191505060405180910390f35b348015610b8257600080fd5b50610b8b612e7d565b6040518082815260200191505060405180910390f35b348015610bad57600080fd5b50610c3b600480360381019080803590602001909291908060200190600180602002604051908101604052809291908260016020028082843782019150505050509192919290803563ffffffff169060200190929190806101000190600880602002604051908101604052809291908260086020028082843782019150505050509192919290505050612e86565b005b348015610c4957600080fd5b50610c68600480360381019080803590602001909291905050506135d1565b604051808560ff1660ff1681526020018463ffffffff1663ffffffff1681526020018367ffffffffffffffff1667ffffffffffffffff168152602001826fffffffffffffffffffffffffffffffff166fffffffffffffffffffffffffffffffff16815260200194505050505060405180910390f35b348015610ce957600080fd5b50610cf261364e565b6040518082815260200191505060405180910390f35b348015610d1457600080fd5b50610d1d613654565b60405180826fffffffffffffffffffffffffffffffff166fffffffffffffffffffffffffffffffff16815260200191505060405180910390f35b348015610d6357600080fd5b50610d9460048036038101908080356fffffffffffffffffffffffffffffffff169060200190929190505050613676565b6040518082815260200191505060405180910390f35b348015610db657600080fd5b50610dfa6004803603810190808060400190600280602002604051908101604052809291908260026020028082843782019150505050509192919290505050613699565b6040518082815260200191505060405180910390f35b348015610e1c57600080fd5b50610e25613755565b604051808262ffffff1662ffffff16815260200191505060405180910390f35b348015610e5157600080fd5b50610e5a61375a565b6040518082815260200191505060405180910390f35b348015610e7c57600080fd5b50610e85613760565b604051808262ffffff1662ffffff16815260200191505060405180910390f35b348015610eb157600080fd5b50610eba613775565b604051808263ffffffff1663ffffffff16815260200191505060405180910390f35b348015610ee857600080fd5b50610f1960048036038101908080356fffffffffffffffffffffffffffffffff16906020019092919050505061378a565b005b348015610f2757600080fd5b50610f4660048036038101908080359060200190929190505050613a1d565b604051808660ff1660ff1681526020018562ffffff1662ffffff1681526020018463ffffffff1663ffffffff1681526020018367ffffffffffffffff1667ffffffffffffffff168152602001826fffffffffffffffffffffffffffffffff166fffffffffffffffffffffffffffffffff1681526020019550505050505060405180910390f35b348015610fd857600080fd5b50610fe1613aaf565b6040518082815260200191505060405180910390f35b60065481565b60016020528060005260406000206000915054906101000a900460ff1681565b600080600560009054906101000a900460ff161515156110cb576040517f08c379a00000000000000000000000000000000000000000000000000000000081526004018080602001828103825260278152602001807f636f6e74726163742073686f756c64206e6f7420626520676c6f62616c6c792081526020017f73746f707065640000000000000000000000000000000000000000000000000081525060400191505060405180910390fd5b60011515600160003373ffffffffffffffffffffffffffffffffffffffff1673ffffffffffffffffffffffffffffffffffffffff16815260200190815260200160002060009054906101000a900460ff1615151415156111b9576040517f08c379a00000000000000000000000000000000000000000000000000000000081526004018080602001828103825260258152602001807f73656e6465722073686f756c64206265206f6e65206f6620746865206f70657281526020017f61746f727300000000000000000000000000000000000000000000000000000081525060400191505060405180910390fd5b60016007548115156111c757fe5b04915060016007548115156111d857fe5b0690506000811415156111f65760018083010260078190555061128a565b6040517f08c379a000000000000000000000000000000000000000000000000000000000815260040180806020018281038252602b8152602001807f69742773206e6f74206e656365737361727920746f2062756d7020746865206281526020017f61746368206e756d62657200000000000000000000000000000000000000000081525060400191505060405180910390fd5b5050565b600081565b60075481565b601460009054906101000a900473ffffffffffffffffffffffffffffffffffffffff1681565b60026020528060005260406000206000915090505481565b600d5481565b6012602052816000526040600020602052806000526040600020600091509150508060000160009054906101000a900463ffffffff16908060000160049054906101000a90046fffffffffffffffffffffffffffffffff16905082565b600080600064e8d4a5100091506000828581151561135457fe5b061415156113f0576040517f08c379a00000000000000000000000000000000000000000000000000000000081526004018080602001828103825260298152602001807f616d6f756e74206861732068696768657220707265636973696f6e207468616e81526020017f20706f737369626c65000000000000000000000000000000000000000000000081525060400191505060405180910390fd5b81848115156113fb57fe5b049050608060019060020a028110151561147d576040517f08c379a000000000000000000000000000000000000000000000000000000000815260040180806020018281038252601a8152602001807f6465706f73697420616d6f756e7420697320746f6f206869676800000000000081525060200191505060405180910390fd5b8092505050919050565b600181565b600080600080600080600360003373ffffffffffffffffffffffffffffffffffffffff1673ffffffffffffffffffffffffffffffffffffffff16815260200190815260200160002060009054906101000a900462ffffff16955060008662ffffff161415151561158a576040517f08c379a00000000000000000000000000000000000000000000000000000000081526004018080602001828103825260338152602001807f747279696e6720746f2063616e63656c2061206465706f73697420666f72206e81526020017f6f6e2d6578697374696e67206163636f756e740000000000000000000000000081525060400191505060405180910390fd5b600160075481151561159857fe5b04945060016007548115156115a957fe5b069350600c60008681526020019081526020016000209250600060028111156115ce57fe5b60ff168360000160009054906101000a900460ff1660ff16141515611681576040517f08c379a00000000000000000000000000000000000000000000000000000000081526004018080602001828103825260408152602001807f63616e63656c696e67206973206f6e6c7920616c6c6f77656420666f7220626181526020017f7463686573207468617420617265206e6f742079657420636f6d6d697474656481525060400191505060405180910390fd5b600b600086815260200190815260200160002060008762ffffff1662ffffff16815260200190815260200160002091508160000160009054906101000a90046fffffffffffffffffffffffffffffffff1690506000816fffffffffffffffffffffffffffffffff16111515611784576040517f08c379a00000000000000000000000000000000000000000000000000000000081526004018080602001828103825260218152602001807f747279696e6720746f2063616e63656c20616e20656d707479206465706f736981526020017f740000000000000000000000000000000000000000000000000000000000000081525060400191505060405180910390fd5b8260000160109054906101000a90046fffffffffffffffffffffffffffffffff16810190508562ffffff16857fd99f8eb80f2e84189fe41fb9bed3506f73da9be70a0df39e2b4a997e92dbd61a60405160405180910390a3600084141561187b57600c6000868152602001908152602001600020600080820160006101000a81549060ff02191690556000820160016101000a81549062ffffff02191690556000820160046101000a81549063ffffffff02191690556000820160086101000a81549067ffffffffffffffff02191690556000820160106101000a8154906fffffffffffffffffffffffffffffffff021916905550505b600b600086815260200190815260200160002060008762ffffff1662ffffff168152602001908152602001600020600080820160006101000a8154906fffffffffffffffffffffffffffffffff021916905550506007600081548092919060019003919050555082600001600181819054906101000a900462ffffff16809291906001900391906101000a81548162ffffff021916908362ffffff160217905550503373ffffffffffffffffffffffffffffffffffffffff166108fc61194083613676565b9081150290604051600060405180830381858888f1935050505015801561196b573d6000803e3d6000fd5b50505050505050565b6201518081565b600e5481565b600b602052816000526040600020602052806000526040600020600091509150508060000160009054906101000a90046fffffffffffffffffffffffffffffffff16905081565b600060606000600560009054906101000a900460ff16151515611a79576040517f08c379a00000000000000000000000000000000000000000000000000000000081526004018080602001828103825260278152602001807f636f6e74726163742073686f756c64206e6f7420626520676c6f62616c6c792081526020017f73746f707065640000000000000000000000000000000000000000000000000081525060400191505060405180910390fd5b60011515600160003373ffffffffffffffffffffffffffffffffffffffff1673ffffffffffffffffffffffffffffffffffffffff16815260200190815260200160002060009054906101000a900460ff161515141515611b67576040517f08c379a00000000000000000000000000000000000000000000000000000000081526004018080602001828103825260258152602001807f73656e6465722073686f756c64206265206f6e65206f6620746865206f70657281526020017f61746f727300000000000000000000000000000000000000000000000000000081525060400191505060405180910390fd5b6001600560019054906101000a900463ffffffff160163ffffffff168563ffffffff16141515611bff576040517f08c379a000000000000000000000000000000000000000000000000000000000815260040180806020018281038252601a8152602001807f6d6179206f6e6c7920636f6d6d6974206e65787420626c6f636b00000000000081525060200191505060405180910390fd5b60085487141515611c9e576040517f08c379a00000000000000000000000000000000000000000000000000000000081526004018080602001828103825260238152602001807f747279696e6720746f20636f6d6d6974206261746368206f7574206f66206f7281526020017f646572000000000000000000000000000000000000000000000000000000000081525060400191505060405180910390fd5b600c6000888152602001908152602001600020925060016002811115611cc057fe5b8360000160006101000a81548160ff021916908360ff160217905550848360000160046101000a81548163ffffffff021916908363ffffffff160217905550428360000160086101000a81548167ffffffffffffffff021916908367ffffffffffffffff160217905550611d348787613ab5565b9150611d408583612816565b905060c06040519081016040528060006002811115611d5b57fe5b60ff1681526020016201518067ffffffffffffffff16420167ffffffffffffffff16815260200160006fffffffffffffffffffffffffffffffff16815260200185600019168152602001826000191681526020013373ffffffffffffffffffffffffffffffffffffffff168152506000808763ffffffff1663ffffffff16815260200190815260200160002060008201518160000160006101000a81548160ff021916908360ff16021790555060208201518160000160016101000a81548167ffffffffffffffff021916908367ffffffffffffffff16021790555060408201518160000160096101000a8154816fffffffffffffffffffffffffffffffff02191690836fffffffffffffffffffffffffffffffff160217905550606082015181600101906000191690556080820151816002019060001916905560a08201518160030160006101000a81548173ffffffffffffffffffffffffffffffffffffffff021916908373ffffffffffffffffffffffffffffffffffffffff1602179055509050508463ffffffff167fdf39762be389bd636a9efb2e4f3b26ac7d22eda4f0840f389209987a09e50fc960405160405180910390a26005600181819054906101000a900463ffffffff168092919060010191906101000a81548163ffffffff021916908363ffffffff1602179055505060086000815480929190600101919050555050505050505050565b601060009054906101000a90046fffffffffffffffffffffffffffffffff1681565b60006020528060005260406000206000915090508060000160009054906101000a900460ff16908060000160019054906101000a900467ffffffffffffffff16908060000160099054906101000a90046fffffffffffffffffffffffffffffffff16908060010154908060020154908060030160009054906101000a900473ffffffffffffffffffffffffffffffffffffffff16905086565b600061202e615a18565b6000806000600560009054906101000a900460ff161515156120de576040517f08c379a00000000000000000000000000000000000000000000000000000000081526004018080602001828103825260278152602001807f636f6e74726163742073686f756c64206e6f7420626520676c6f62616c6c792081526020017f73746f707065640000000000000000000000000000000000000000000000000081525060400191505060405180910390fd5b600a60009054906101000a90046fffffffffffffffffffffffffffffffff166fffffffffffffffffffffffffffffffff16866fffffffffffffffffffffffffffffffff16101515156121be576040517f08c379a00000000000000000000000000000000000000000000000000000000081526004018080602001828103825260218152602001807f6465706f73697420666565206973206c657373207468616e207265717569726581526020017f640000000000000000000000000000000000000000000000000000000000000081525060400191505060405180910390fd5b6121c73461133a565b9450600a60009054906101000a90046fffffffffffffffffffffffffffffffff166fffffffffffffffffffffffffffffffff16856fffffffffffffffffffffffffffffffff16101515156122a9576040517f08c379a00000000000000000000000000000000000000000000000000000000081526004018080602001828103825260238152602001807f6465706f73697420616d6f756e742073686f756c6420636f766572207468652081526020017f666565000000000000000000000000000000000000000000000000000000000081525060400191505060405180910390fd5b600a60109054906101000a900462ffffff1662ffffff168762ffffff16101515612361576040517f08c379a00000000000000000000000000000000000000000000000000000000081526004018080602001828103825260358152602001807f666f72206e6f77206f6e6c7920616c6c6f7720746f206465706f73697420696e81526020017f746f206e6f6e2d656d707479206163636f756e7473000000000000000000000081525060400191505060405180910390fd5b600460008862ffffff1662ffffff16815260200190815260200160002060c060405190810160405290816000820160009054906101000a900460ff1660ff1660ff1681526020016000820160019054906101000a900463ffffffff1663ffffffff1663ffffffff1681526020016000820160059054906101000a900473ffffffffffffffffffffffffffffffffffffffff1673ffffffffffffffffffffffffffffffffffffffff1673ffffffffffffffffffffffffffffffffffffffff168152602001600182015481526020016002820160009054906101000a900463ffffffff1663ffffffff1663ffffffff1681526020016002820160049054906101000a900463ffffffff1663ffffffff1663ffffffff168152505093506001600381111561248857fe5b60ff16846000015160ff1614151561252e576040517f08c379a00000000000000000000000000000000000000000000000000000000081526004018080602001828103825260288152602001807f63616e206f6e6c79206465706f73697420696e746f207265676973746572656481526020017f206163636f756e7400000000000000000000000000000000000000000000000081525060400191505060405180910390fd5b600160075481151561253c57fe5b049250600c6000848152602001908152602001600020915060008260000160089054906101000a900467ffffffffffffffff1667ffffffffffffffff16141561264f576000600281111561258c57fe5b8260000160006101000a81548160ff021916908360ff16021790555060008260000160016101000a81548162ffffff021916908362ffffff160217905550428260000160086101000a81548167ffffffffffffffff021916908367ffffffffffffffff160217905550600a60009054906101000a90046fffffffffffffffffffffffffffffffff168260000160106101000a8154816fffffffffffffffffffffffffffffffff02191690836fffffffffffffffffffffffffffffffff1602179055505b600a60009054906101000a90046fffffffffffffffffffffffffffffffff1685039450600b600084815260200190815260200160002060008862ffffff1662ffffff168152602001908152602001600020905060008160000160009054906101000a90046fffffffffffffffffffffffffffffffff166fffffffffffffffffffffffffffffffff16141561272a5781600001600181819054906101000a900462ffffff168092919060010191906101000a81548162ffffff021916908362ffffff160217905550506007600081548092919060010191905055505b848160000160008282829054906101000a90046fffffffffffffffffffffffffffffffff160192506101000a8154816fffffffffffffffffffffffffffffffff02191690836fffffffffffffffffffffffffffffffff16021790555083606001518762ffffff16847f77576c82d939ce0a49902463e0dd51c0257e560ff4f55a51a702af4ed76912668460000160009054906101000a90046fffffffffffffffffffffffffffffffff1660405180826fffffffffffffffffffffffffffffffff166fffffffffffffffffffffffffffffffff16815260200191505060405180910390a450505050505050565b600080600060028563ffffffff16604051602001808281526020019150506040516020818303038152906040526040518082805190602001908083835b6020831015156128785780518252602082019150602081019050602083039250612853565b6001836020036101000a0380198251168184511680821785525050505050509050019150506020604051808303816000865af11580156128bc573d6000803e3d6000fd5b5050506040513d60208110156128d157600080fd5b810190808051906020019092919050505091506002828560405160200180836000191660001916815260200182805190602001908083835b60208310151561292e5780518252602082019150602081019050602083039250612909565b6001836020036101000a038019825116818451168082178552505050505050905001925050506040516020818303038152906040526040518082805190602001908083835b6020831015156129985780518252602082019150602081019050602083039250612973565b6001836020036101000a0380198251168184511680821785525050505050509050019150506020604051808303816000865af11580156129dc573d6000803e3d6000fd5b5050506040513d60208110156129f157600080fd5b81019080805190602001909291905050509050809250505092915050565b60095481565b608081565b600560009054906101000a900460ff1681565b60046020528060005260406000206000915090508060000160009054906101000a900460ff16908060000160019054906101000a900463ffffffff16908060000160059054906101000a900473ffffffffffffffffffffffffffffffffffffffff16908060010154908060020160009054906101000a900463ffffffff16908060020160049054906101000a900463ffffffff16905086565b600560019054906101000a900463ffffffff1681565b60036020528060005260406000206000915054906101000a900462ffffff1681565b600080612b09615a18565b600560009054906101000a900460ff16151515612bb4576040517f08c379a00000000000000000000000000000000000000000000000000000000081526004018080602001828103825260278152602001807f636f6e74726163742073686f756c64206e6f7420626520676c6f62616c6c792081526020017f73746f707065640000000000000000000000000000000000000000000000000081525060400191505060405180910390fd5b600360003373ffffffffffffffffffffffffffffffffffffffff1673ffffffffffffffffffffffffffffffffffffffff16815260200190815260200160002060009054906101000a900462ffffff16925060008362ffffff161415612e4657612c1c85613699565b9150600a60109054906101000a900462ffffff16600360003373ffffffffffffffffffffffffffffffffffffffff1673ffffffffffffffffffffffffffffffffffffffff16815260200190815260200160002060006101000a81548162ffffff021916908362ffffff16021790555060c06040519081016040528060016003811115612ca457fe5b60ff168152602001600063ffffffff1681526020013373ffffffffffffffffffffffffffffffffffffffff168152602001838152602001600063ffffffff168152602001600063ffffffff168152509050600a60109054906101000a900462ffffff16925080600460008562ffffff1662ffffff16815260200190815260200160002060008201518160000160006101000a81548160ff021916908360ff16021790555060208201518160000160016101000a81548163ffffffff021916908363ffffffff16021790555060408201518160000160056101000a81548173ffffffffffffffffffffffffffffffffffffffff021916908373ffffffffffffffffffffffffffffffffffffffff1602179055506060820151816001015560808201518160020160006101000a81548163ffffffff021916908363ffffffff16021790555060a08201518160020160046101000a81548163ffffffff021916908363ffffffff1602179055509050506001600a60108282829054906101000a900462ffffff160192506101000a81548162ffffff021916908362ffffff1602179055505b612e508385612024565b5050505050565b601360009054906101000a900473ffffffffffffffffffffffffffffffffffffffff1681565b64e8d4a5100081565b600080600080600560009054906101000a900460ff16151515612f37576040517f08c379a00000000000000000000000000000000000000000000000000000000081526004018080602001828103825260278152602001807f636f6e74726163742073686f756c64206e6f7420626520676c6f62616c6c792081526020017f73746f707065640000000000000000000000000000000000000000000000000081525060400191505060405180910390fd5b60011515600160003373ffffffffffffffffffffffffffffffffffffffff1673ffffffffffffffffffffffffffffffffffffffff16815260200190815260200160002060009054906101000a900460ff161515141515613025576040517f08c379a00000000000000000000000000000000000000000000000000000000081526004018080602001828103825260258152602001807f73656e6465722073686f756c64206265206f6e65206f6620746865206f70657281526020017f61746f727300000000000000000000000000000000000000000000000000000081525060400191505060405180910390fd5b600560019054906101000a900463ffffffff1663ffffffff166005809054906101000a900463ffffffff1663ffffffff161015156130cb576040517f08c379a000000000000000000000000000000000000000000000000000000000815260040180806020018281038252601c8152602001807f6e6f20636f6d6d697474656420626c6f636b20746f207665726966790000000081525060200191505060405180910390fd5b60016005809054906101000a900463ffffffff160163ffffffff168663ffffffff16141515613162576040517f08c379a000000000000000000000000000000000000000000000000000000000815260040180806020018281038252601a8152602001807f6d6179206f6e6c7920766572696679206e65787420626c6f636b00000000000081525060200191505060405180910390fd5b600954881415156131db576040517f08c379a000000000000000000000000000000000000000000000000000000000815260040180806020018281038252601c8152602001807f6d75737420766572696679206261746368657320696e206f726465720000000081525060200191505060405180910390fd5b6000808763ffffffff1663ffffffff16815260200190815260200160002093506000600281111561320857fe5b60ff168460000160009054906101000a900460ff1660ff161415156132bb576040517f08c379a00000000000000000000000000000000000000000000000000000000081526004018080602001828103825260398152602001807f747279696e6720746f2070726f76652074686520696e76616c6964206369726381526020017f75697420666f72207468697320626c6f636b206e756d6265720000000000000081525060400191505060405180910390fd5b600c600089815260200190815260200160002092508563ffffffff168360000160049054906101000a900463ffffffff1663ffffffff1614151561338d576040517f08c379a00000000000000000000000000000000000000000000000000000000081526004018080602001828103825260308152602001807f626c6f636b206e756d62657220696e207265666572656e63696e6720696e766181526020017f6c6964206261746368206e756d6265720000000000000000000000000000000081525060400191505060405180910390fd5b60028081111561339957fe5b8360000160006101000a81548160ff021916908360ff160217905550428360000160086101000a81548167ffffffffffffffff021916908367ffffffffffffffff1602179055506133f860008660065487600101548860020154613ec4565b915081151561346f576040517f08c379a000000000000000000000000000000000000000000000000000000000815260040180806020018281038252600d8152602001807f696e76616c69642070726f6f660000000000000000000000000000000000000081525060200191505060405180910390fd5b8563ffffffff167fca558d7524956f89ce1ec833efe8a265ed2b1e92b20ff4fe2fb87fb1a042e52460405160405180910390a260058081819054906101000a900463ffffffff168092919060010191906101000a81548163ffffffff021916908363ffffffff16021790555050600960008154809291906001019190505550836001015460068160001916905550613507888861403c565b9050808460000160096101000a8154816fffffffffffffffffffffffffffffffff02191690836fffffffffffffffffffffffffffffffff160217905550806fffffffffffffffffffffffffffffffff16600260008660030160009054906101000a900473ffffffffffffffffffffffffffffffffffffffff1673ffffffffffffffffffffffffffffffffffffffff1673ffffffffffffffffffffffffffffffffffffffff168152602001908152602001600020600082825401925050819055505050505050505050565b60116020528060005260406000206000915090508060000160009054906101000a900460ff16908060000160019054906101000a900463ffffffff16908060000160059054906101000a900467ffffffffffffffff169080600001600d9054906101000a90046fffffffffffffffffffffffffffffffff16905084565b610e1081565b600a60009054906101000a90046fffffffffffffffffffffffffffffffff1681565b600064e8d4a51000826fffffffffffffffffffffffffffffffff16029050919050565b60006136a48261424a565b1515613718576040517f08c379a000000000000000000000000000000000000000000000000000000000815260040180806020018281038252601f8152602001807f7075626c6963206b6579206d757374206265206f6e207468652063757276650081525060200191505060405180910390fd5b60ff600183600060028110151561372b57fe5b6020020151169060020a0282600160028110151561374557fe5b6020020151019050809050919050565b600181565b600f5481565b600a60109054906101000a900462ffffff1681565b6005809054906101000a900463ffffffff1681565b600560009054906101000a900460ff16151515613835576040517f08c379a00000000000000000000000000000000000000000000000000000000081526004018080602001828103825260278152602001807f636f6e74726163742073686f756c64206e6f7420626520676c6f62616c6c792081526020017f73746f707065640000000000000000000000000000000000000000000000000081525060400191505060405180910390fd5b60011515600160003373ffffffffffffffffffffffffffffffffffffffff1673ffffffffffffffffffffffffffffffffffffffff16815260200190815260200160002060009054906101000a900460ff161515141515613923576040517f08c379a00000000000000000000000000000000000000000000000000000000081526004018080602001828103825260258152602001807f73656e6465722073686f756c64206265206f6e65206f6620746865206f70657281526020017f61746f727300000000000000000000000000000000000000000000000000000081525060400191505060405180910390fd5b806fffffffffffffffffffffffffffffffff16600a60009054906101000a90046fffffffffffffffffffffffffffffffff166fffffffffffffffffffffffffffffffff161415156139ac5780600a60006101000a8154816fffffffffffffffffffffffffffffffff02191690836fffffffffffffffffffffffffffffffff160217905550613a1a565b6040517f08c379a000000000000000000000000000000000000000000000000000000000815260040180806020018281038252601d8152602001807f6665652061646a7573746d656e74206d616b6573206e6f2073656e736500000081525060200191505060405180910390fd5b50565b600c6020528060005260406000206000915090508060000160009054906101000a900460ff16908060000160019054906101000a900462ffffff16908060000160049054906101000a900463ffffffff16908060000160089054906101000a900467ffffffffffffffff16908060000160109054906101000a90046fffffffffffffffffffffffffffffffff16905085565b60085481565b606060008060008060008060008060336001026040519080825280601f01601f191660200182016040528015613afa5781602001602082028038833980820191505090505b5098506020945060019350600c60008c815260200190815260200160002060000160019054906101000a900462ffffff1662ffffff169250600090505b82811015613d95576000811480613b7e57508960018203600181101515613b5a57fe5b602002015162ffffff168a82600181101515613b7257fe5b602002015162ffffff16115b1515613c18576040517f08c379a00000000000000000000000000000000000000000000000000000000081526004018080602001828103825260228152602001807f6163636f756e74494420617265206e6f742070726f7065726c79206f7264657281526020017f656400000000000000000000000000000000000000000000000000000000000081525060400191505060405180910390fd5b8981600181101515613c2657fe5b602002015191508362ffffff168262ffffff1614151515613cd5576040517f08c379a000000000000000000000000000000000000000000000000000000000815260040180806020018281038252602f8152602001807f62617463682073686f756c6420636f6e7461696e206e6f6e2d70616464696e6781526020017f206163636f756e7473206669727374000000000000000000000000000000000081525060400191505060405180910390fd5b600b60008c815260200190815260200160002060008362ffffff1662ffffff16815260200190815260200160002060000160009054906101000a90046fffffffffffffffffffffffffffffffff169650600460008362ffffff1662ffffff1681526020019081526020016000206001015495506068876fffffffffffffffffffffffffffffffff1660808462ffffff169060020a02019060020a02975087858a015260138501945085858a01526020850194508080600101915050613b37565b60e88462ffffff169060020a029750600460008562ffffff1662ffffff1681526020019081526020016000206001015495508290505b6001811015613eb3578981600181101515613de257fe5b602002015191508362ffffff168262ffffff16141515613e90576040517f08c379a00000000000000000000000000000000000000000000000000000000081526004018080602001828103825260328152602001807f70616464696e672073686f756c6420626520646f6e652077697468207370656381526020017f69616c206163636f756e74206e756d626572000000000000000000000000000081525060400191505060405180910390fd5b87858a015260138501945085858a01526020850194508080600101915050613dcb565b889850505050505050505092915050565b600080613ecf615a7a565b60608060036000199060020a9004935060006002811115613eec57fe5b8a6002811115613ef857fe5b1415613f1357613f066142a2565b8093508194505050613f85565b60016002811115613f2057fe5b8a6002811115613f2c57fe5b1415613f4757613f3a6147f1565b8093508194505050613f84565b600280811115613f5357fe5b8a6002811115613f5f57fe5b1415613f7a57613f6d614d40565b8093508194505050613f83565b6000945061402f565b5b5b6003604051908082528060200260200182016040528015613fb55781602001602082028038833980820191505090505b5090508760019004816000815181101515613fcc57fe5b90602001906020020181815250508660019004816001815181101515613fee57fe5b90602001906020020181815250508386600190041681600281518110151561401257fe5b906020019060200201818152505061402c83838b8461528f565b94505b5050505095945050505050565b600080600080600c600087815260200190815260200160002060000160109054906101000a90046fffffffffffffffffffffffffffffffff169250600091505b600182101561423e576000858360018110151561409557fe5b602002015162ffffff1614156140aa57614231565b60008214806140e9575084600183036001811015156140c557fe5b602002015162ffffff1685836001811015156140dd57fe5b602002015162ffffff16115b1515614183576040517f08c379a00000000000000000000000000000000000000000000000000000000081526004018080602001828103825260228152602001807f6163636f756e74494420617265206e6f742070726f7065726c79206f7264657281526020017f656400000000000000000000000000000000000000000000000000000000000081525060400191505060405180910390fd5b600b6000878152602001908152602001600020600086846001811015156141a657fe5b602002015162ffffff1662ffffff1681526020019081526020016000209050600b6000878152602001908152602001600020600086846001811015156141e857fe5b602002015162ffffff1662ffffff168152602001908152602001600020600080820160006101000a8154906fffffffffffffffffffffffffffffffff0219169055505082840193505b818060010192505061407c565b83935050505092915050565b6000614254615a9e565b604080519081016040528084600060028110151561426e57fe5b6020020151815260200184600160028110151561428757fe5b6020020151815250905061429a816158b8565b915050919050565b6142aa615a7a565b60607f2806ceee6e1d1eb6f31ff675b92143dba13b3fbad614f843f5c3afd6568b205a826000600e811015156142dc57fe5b6020020181815250507f122808a613a8f598c4b867f4b2ff0d43f0bb6d88eeb8ee75eb6f24d359bbf8e0826001600e8110151561431557fe5b6020020181815250507f22448ceb94acf3cd1d15bcaa5b0fea9b93517c5845177e084089d9ee6d79ff50826002600e8110151561434e57fe5b6020020181815250507f031a214677d973a795d26219598bb0512ea0dc76e75dbce39cbc9d9b17a2cc8c826003600e8110151561438757fe5b6020020181815250507f0a9a3bef0fd1d79ae409f82733e8e462b75ff5f05bea6422066b95ca9e02c9dd826004600e811015156143c057fe5b6020020181815250507f0c6fa2f476a8f04a57dbcb68e2425440062630c908d6e198c875d875130025e9826005600e811015156143f957fe5b6020020181815250507f0ae5cc9692f99a91d35fe9abfd2e3786b3ad14b327d0fb9e51c514f0bd95959c826006600e8110151561443257fe5b6020020181815250507f1d3950dce5e030d612b1167e70c34ab4cf1d9c4320206047652747915ed67097826007600e8110151561446b57fe5b6020020181815250507f0a9138320c05f4c5d26da0bc8d508398b027cabffd4dd36fb65f29d9fa3cc3dd826008600e811015156144a457fe5b6020020181815250507f2a5daa065c803df8f429e946f2c5700026c2d12dc172e192d270dc73fdc8cc39826009600e811015156144dd57fe5b6020020181815250507f27863bde61126110d0d6f2f31947e2f63c3cdd6594caf3ec225babfa7afa4f2382600a600e8110151561451657fe5b6020020181815250507f20fd57765a2d6a84f2bee03afefaf5bd42fb5804b8a5c0874762d19afafc1f4182600b600e8110151561454f57fe5b6020020181815250507f0b451a37fed071dd2ae876826a32f4fe0a58d990c624cfde92096cc2b3fd4a0882600c600e8110151561458857fe5b6020020181815250507f2920445cbffbb49c761e20d864dccf560258c3cd7302773accaa7d78aa206ba982600d600e811015156145c157fe5b60200201818152505060086040519080825280602002602001820160405280156145fa5781602001602082028038833980820191505090505b5090507f2d8c931ff562a4d5a349685f6fdf2a30a0883e2cfcb8a27a642687a41189557781600081518110151561462d57fe5b90602001906020020181815250507f2530d4a3fcaea9d34725f2f02100be77a511c2a507e084e6e379e068d4cde55981600181518110151561466b57fe5b90602001906020020181815250507f01e3781d1f0a0f6beac8e3aa47a8c509d80406326c5c4594aa04f4c0f9b0138a8160028151811015156146a957fe5b90602001906020020181815250507f235683ea39dc02e4919b9f99e14c927399f26c3c24935caf3d7f745377fd76298160038151811015156146e757fe5b90602001906020020181815250507f2fbf7af8adca023e9744087f7845cc19f2bdb9cbba20c57dc77edaa6115625fb81600481518110151561472557fe5b90602001906020020181815250507f1c3ad616391a8022720659ceb30a65391117df3b0e501f0e19d99800fea0d66281600581518110151561476357fe5b90602001906020020181815250507f1bc9897f50972e9924dfcc9dc9c9104c50588c168b7e137526f9ab8cfdc624828160068151811015156147a157fe5b90602001906020020181815250507f04f9efe4f42e792c6abffbb1b5431a71f8b7712a3e65011f07c7bb348914d0d08160078151811015156147df57fe5b90602001906020020181815250509091565b6147f9615a7a565b60607f20fabca7a936d76e2de75f334d12408a85a3038b2c748e884a7d10b6c8e785ae826000600e8110151561482b57fe5b6020020181815250507f05b7926cd85113320bdad329a22fa8a7bb13fee4e5ae784441c975f7be24b144826001600e8110151561486457fe5b6020020181815250507f17f95798ad37dc5d5842e0a25085bb7091525e5a19a4e664c4325d43996733bb826002600e8110151561489d57fe5b6020020181815250507f02943aa487fcc67df949c6e2481e6a61b992ce4ad6f5d92372f59b93d15c0d30826003600e811015156148d657fe5b6020020181815250507f0131b8773666df90359fdbe663c451881a09b24df4564be75dd86ceb485bc16c826004600e8110151561490f57fe5b6020020181815250507f091b92109b2c58ee59d43f1646b910e20203dcb95676b139509886a314e00806826005600e8110151561494857fe5b6020020181815250507f18d2e27fdde751997e5ac3146a828702404f47c56072d5fd9e628bd9d00b5aac826006600e8110151561498157fe5b6020020181815250507f0cf19a2bf4b4e09843df3cd201709e55ae3a5ff31d8b59cd89d7b6eb06b98703826007600e811015156149ba57fe5b6020020181815250507f14eaf5b1216b2adc72b75a80df5c202eb16953605656165177035432a6f88b8f826008600e811015156149f357fe5b6020020181815250507f0f19e2b9bb71cab73500652d5728fe94843dcef2e73a2fd97739f6e8fd83369a826009600e81101515614a2c57fe5b6020020181815250507f0135e689579dbf14165032a60d35c70c95fc8fcf56f16a5335c62ef49e4fdfc482600a600e81101515614a6557fe5b6020020181815250507f196c80c924953fae60eb1c57c03beed305ed22454b359ade4265a434f6aef11482600b600e81101515614a9e57fe5b6020020181815250507f0a282bf79f6d625029d9746a596c33e286ec52ba4fd14c87577b39cdbc656dbc82600c600e81101515614ad757fe5b6020020181815250507f216dd1c95ba7a7408e093cb8010c09addcb31e54d9ac23493341660ce3b9d74282600d600e81101515614b1057fe5b6020020181815250506008604051908082528060200260200182016040528015614b495781602001602082028038833980820191505090505b5090507f29c50e44a59741be3b553316fa0181329ec5275b046bb428eb3e041a1d6a4017816000815181101515614b7c57fe5b90602001906020020181815250507f1f799ade5130abbb234abfaa536226b602cd2e2e77c3afb5c6c29bb7835117b1816001815181101515614bba57fe5b90602001906020020181815250507f20ca58d0e2b5c393272802f45e7fef3d27efa2696c0be7bd7f31435b3403acbd816002815181101515614bf857fe5b90602001906020020181815250507f2b7f914981d405bc613a0c2c3accb5ac825b900ddbef5b7689567e0ffdf84060816003815181101515614c3657fe5b90602001906020020181815250507f0be03143ab86092d0872260b1ed87202fd2816e0ddc15e4dda842688ff3f8bba816004815181101515614c7457fe5b90602001906020020181815250507f1c4900581b3dc146c77b6bf15ceffd90ca3d34fd69b393ee562e8cc614decf91816005815181101515614cb257fe5b90602001906020020181815250507f1261a3e53a4815cb7237aa39113f0dd33d7464e80a317a1a35ed33a217053584816006815181101515614cf057fe5b90602001906020020181815250507f17599c2506b56e759ba24bf30920525cfd12337392ed0cebc0b851a142802ca0816007815181101515614d2e57fe5b90602001906020020181815250509091565b614d48615a7a565b60607f08730c8e1cbb3eb57ea2c4d8d5c48fc56aa910d331ef8723e74c9e5750fb943a826000600e81101515614d7a57fe5b6020020181815250507f29d8dc5dd6f9b1a692a37c4982faa894119b98dbc35fe5b0e20363ffce6c5fea826001600e81101515614db357fe5b6020020181815250507f016411e5a45fa79352c47a455eeaddb12059d5bb5579487e8abb4ffd2f472c5a826002600e81101515614dec57fe5b6020020181815250507f27084dc459b5dd6d1c60cccda8d78a80755ae23436dd44aca13d44962dea244a826003600e81101515614e2557fe5b6020020181815250507f16c4a816a173596179da516fcc694c68878da66042afe8c35f098742482ab0a0826004600e81101515614e5e57fe5b6020020181815250507f02318a621109b9e543cc09e7bcde9cfe15386429572fb31d08c88a42b418fe8e826005600e81101515614e9757fe5b6020020181815250507f0f10cfbdfaf1753d7214d6d0f2644458bddd10ab5619d19e7e41ac709b30b3ef826006600e81101515614ed057fe5b6020020181815250507f21f68a12e4e0ce060910e1335703431d20ce5ac7109baa52e34423fdcc659c54826007600e81101515614f0957fe5b6020020181815250507f2c505db2e660d4ea4e6f41e0f3b921c8358d6b3bcedaaf8349f01fbf56b03d4f826008600e81101515614f4257fe5b6020020181815250507f0733f6edbaef053203c0654afd9eea4b8909c88473b1f1aa72afdd5a4cded36e826009600e81101515614f7b57fe5b6020020181815250507f1a4c2e2c731b7de65f7b0cad686b5c7964fe162741385a33c72b08c903791e2982600a600e81101515614fb457fe5b6020020181815250507f1efc25b88bfac326220c61f7ab065be1c77af7b74f67f63262c2e66613eebdac82600b600e81101515614fed57fe5b6020020181815250507f264f4171cfa70441d121f28ce3c8186fa9011a9a2611ce7c920cba0d8cb3f82682600c600e8110151561502657fe5b6020020181815250507f126ba4be6253be58ceb3bb5bf94045b310baea07bc35d669283a10ffdf90853082600d600e8110151561505f57fe5b60200201818152505060086040519080825280602002602001820160405280156150985781602001602082028038833980820191505090505b5090507f01b0002b9d1ceb70fe45b66103672ab9500327509572c1701d3250b00c299e888160008151811015156150cb57fe5b90602001906020020181815250507f080c6552831b1c735ac286a537343522bd10083d3b3fed202ffae1e83ff87cc081600181518110151561510957fe5b90602001906020020181815250507f2e13eae69b931076d3e4ce5a0764aabf54030b14f53653627d13def87840df0781600281518110151561514757fe5b90602001906020020181815250507f0b2032652364ded806919e92594a508eafae7eabb42bb6e731c1bfc0b3918b6c81600381518110151561518557fe5b90602001906020020181815250507f024ba284020edb04f39d1eeeccc5f826826086f2bac64e0b233114cd523043e48160048151811015156151c357fe5b90602001906020020181815250507f082cb9dada50204406112d784129e28ce9fea7d999f0540fe36131aee46ad63281600581518110151561520157fe5b90602001906020020181815250507f2b661ab87456646811a53fbb055addc96eef2396827889305bf2ce7ab8c1ea4481600681518110151561523f57fe5b90602001906020020181815250507f118ee65eb15ec1db1b648d4c64e490977198de8a01580399d5a3835576d602b981600781518110151561527d57fe5b90602001906020020181815250509091565b6000615299615ab8565b6152a1615adb565b60008060006152ae615afe565b6152b6615b22565b8851600160028d518115156152c757fe5b040314151561533e576040517f08c379a000000000000000000000000000000000000000000000000000000000815260040180806020018281038252601f8152602001807f496e76616c6964206e756d626572206f66207075626c696320696e707574730081525060200191505060405180910390fd5b600293508a600081518110151561535157fe5b9060200190602002015186600060048110151561536a57fe5b6020020181815250508a600181518110151561538257fe5b9060200190602002015186600160048110151561539b57fe5b602002018181525050600092505b8851831015615567578a848060010195508151811015156153c657fe5b906020019060200201518760006003811015156153df57fe5b6020020181815250508a848060010195508151811015156153fc57fe5b9060200190602002015187600160038110151561541557fe5b602002018181525050888381518110151561542c57fe5b9060200190602002015187600260038110151561544557fe5b602002018181525050604080870160608960076107d05a03fa94508415156154d5576040517f08c379a000000000000000000000000000000000000000000000000000000000815260040180806020018281038252601f8152602001807f4661696c656420746f2063616c6c2045434d554c20707265636f6d70696c650081525060200191505060405180910390fd5b60408660808860066107d05a03fa945084151561555a576040517f08c379a000000000000000000000000000000000000000000000000000000000815260040180806020018281038252601f8152602001807f4661696c656420746f2063616c6c20454341444420707265636f6d70696c650081525060200191505060405180910390fd5b82806001019350506153a9565b610300604051908101604052808b600060088110151561558357fe5b602002015181526020018b600160088110151561559c57fe5b602002015181526020018b60026008811015156155b557fe5b602002015181526020018b60036008811015156155ce57fe5b602002015181526020018b60046008811015156155e757fe5b602002015181526020018b600560088110151561560057fe5b602002015181526020018d6000600e8110151561561957fe5b6020020151815260200161563f8e6001600e8110151561563557fe5b6020020151615964565b81526020018d6002600e8110151561565357fe5b602002015181526020018d6003600e8110151561566c57fe5b602002015181526020018d6004600e8110151561568557fe5b602002015181526020018d6005600e8110151561569e57fe5b602002015181526020018760006004811015156156b757fe5b602002015181526020016156dd8860016004811015156156d357fe5b6020020151615964565b81526020018d6006600e811015156156f157fe5b602002015181526020018d6007600e8110151561570a57fe5b602002015181526020018d6008600e8110151561572357fe5b602002015181526020018d6009600e8110151561573c57fe5b602002015181526020018b600660088110151561575557fe5b6020020151815260200161577b8c600760088110151561577157fe5b6020020151615964565b81526020018d600a600e8110151561578f57fe5b602002015181526020018d600b600e811015156157a857fe5b602002015181526020018d600c600e811015156157c157fe5b602002015181526020018d600d600e811015156157da57fe5b602002015181525091506020816103008460086107d05a03fa9450841515615890576040517f08c379a00000000000000000000000000000000000000000000000000000000081526004018080602001828103825260218152602001807f4661696c656420746f2063616c6c2070616972696e6720707265636f6d70696c81526020017f650000000000000000000000000000000000000000000000000000000000000081525060400191505060405180910390fd5b60018160006001811015156158a157fe5b602002015114975050505050505050949350505050565b6000806000806000806000806158cc6159a0565b96506158d66159c8565b95506158e06159f0565b9450868015156158ec57fe5b89600001518a600001510993508680151561590357fe5b89602001518a602001510992508680151561591a57fe5b838880151561592557fe5b8689090891508680151561593557fe5b8780151561593f57fe5b8880151561594957fe5b85870987096001089050808214975050505050505050919050565b6000807f30644e72e131a029b85045b68181585d97816a916871ca8d3c208c16d87cfd479050808381151561599557fe5b068103915050919050565b60007f30644e72e131a029b85045b68181585d2833e84879b9709143e1f593f0000001905090565b60007f30644e72e131a029b85045b68181585d2833e84879b9709143e1f593f0000000905090565b60007f1aee90f15f2189693df072d799fd11fc039b2959ebb7c867d075ca8cf4d7eb8e905090565b60c060405190810160405280600060ff168152602001600063ffffffff168152602001600073ffffffffffffffffffffffffffffffffffffffff16815260200160008152602001600063ffffffff168152602001600063ffffffff1681525090565b6101c060405190810160405280600e90602082028038833980820191505090505090565b604080519081016040528060008152602001600081525090565b606060405190810160405280600390602082028038833980820191505090505090565b608060405190810160405280600490602082028038833980820191505090505090565b61030060405190810160405280601890602082028038833980820191505090505090565b6020604051908101604052806001906020820280388339808201915050905050905600a165627a7a72305820c5ede43cb997718873f6fe837cc8a4ed96ef0a278e14a6696e3c793b71ec01990029",
  "source": "pragma solidity ^0.4.24;\n\nimport {PlasmaDepositor} from \"./PlasmaDepositor.sol\";\n\ncontract PlasmaContract is PlasmaDepositor {\n    // uint24 constant operatorsAccounts = 4;\n    // uint24 public nextAccountToRegister = operatorsAccounts;\n\n    // // create technological accounts for an operator. \n    // constructor(uint256[operatorsAccounts - 1] memory defaultPublicKeys, address _transactor, address _exitor) public {\n    //     lastVerifiedRoot = EMPTY_TREE_ROOT;\n    //     operators[msg.sender] = true;\n    //     // account number 0 is NEVER registered\n    //     Account memory freshAccount;\n    //     for (uint24 i = 1; i < operatorsAccounts; i++) {\n    //         freshAccount = Account(\n    //             uint8(AccountState.REGISTERED),\n    //             0,\n    //             msg.sender,\n    //             defaultPublicKeys[i-1]\n    //         );\n    //         accounts[i] = freshAccount;\n    //     }\n    //     transactor = _transactor;\n    //     exitor = _exitor;\n    // }\n\n    constructor(address _transactor, address _exitor, uint256[2] _paddingPubKey) public {\n        nextAccountToRegister = 2;\n        lastVerifiedRoot = EMPTY_TREE_ROOT;\n        operators[msg.sender] = true;\n        transactor = _transactor;\n        exitor = _exitor;\n\n        // make the first deposit to install pub_key for padding\n        deposit(_paddingPubKey, 0);\n    }\n}",
  "sourcePath": "/Users/alex/src/shamatar/franklin/contracts/contracts/PlasmaContract.sol",
  "compiler": {
    "name": "solc",
    "version": "0.4.24+commit.e67f0147.Emscripten.clang"
  },
  "schemaVersion": "3.0.0",
  "updatedAt": "2019-04-21T05:51:32.621Z",
  "devdoc": {
    "methods": {}
  },
  "userdoc": {
    "methods": {}
  }
}