{
  "_format": "hh-sol-artifact-1",
  "contractName": "ZkSyncWithdrawalUnitTest",
  "sourceName": "cache/solpp-generated-contracts/dev-contracts/ZkSyncWithdrawalUnitTest.sol",
  "abi": [
    {
      "anonymous": false,
      "inputs": [
        {
          "indexed": true,
          "internalType": "uint32",
          "name": "blockNumber",
          "type": "uint32"
        }
      ],
      "name": "BlockCommit",
      "type": "event"
    },
    {
      "anonymous": false,
      "inputs": [
        {
          "indexed": true,
          "internalType": "uint32",
          "name": "blockNumber",
          "type": "uint32"
        }
      ],
      "name": "BlockVerification",
      "type": "event"
    },
    {
      "anonymous": false,
      "inputs": [
        {
          "indexed": false,
          "internalType": "uint32",
          "name": "totalBlocksVerified",
          "type": "uint32"
        },
        {
          "indexed": false,
          "internalType": "uint32",
          "name": "totalBlocksCommitted",
          "type": "uint32"
        }
      ],
      "name": "BlocksRevert",
      "type": "event"
    },
    {
      "anonymous": false,
      "inputs": [
        {
          "indexed": true,
          "internalType": "uint32",
          "name": "zkSyncBlockId",
          "type": "uint32"
        },
        {
          "indexed": true,
          "internalType": "uint32",
          "name": "accountId",
          "type": "uint32"
        },
        {
          "indexed": false,
          "internalType": "address",
          "name": "owner",
          "type": "address"
        },
        {
          "indexed": true,
          "internalType": "uint16",
          "name": "tokenId",
          "type": "uint16"
        },
        {
          "indexed": false,
          "internalType": "uint128",
          "name": "amount",
          "type": "uint128"
        }
      ],
      "name": "DepositCommit",
      "type": "event"
    },
    {
      "anonymous": false,
      "inputs": [],
      "name": "ExodusMode",
      "type": "event"
    },
    {
      "anonymous": false,
      "inputs": [
        {
          "indexed": true,
          "internalType": "address",
          "name": "sender",
          "type": "address"
        },
        {
          "indexed": false,
          "internalType": "uint32",
          "name": "nonce",
          "type": "uint32"
        },
        {
          "indexed": false,
          "internalType": "bytes",
          "name": "fact",
          "type": "bytes"
        }
      ],
      "name": "FactAuth",
      "type": "event"
    },
    {
      "anonymous": false,
      "inputs": [
        {
          "indexed": true,
          "internalType": "uint32",
          "name": "zkSyncBlockId",
          "type": "uint32"
        },
        {
          "indexed": true,
          "internalType": "uint32",
          "name": "accountId",
          "type": "uint32"
        },
        {
          "indexed": false,
          "internalType": "address",
          "name": "owner",
          "type": "address"
        },
        {
          "indexed": true,
          "internalType": "uint16",
          "name": "tokenId",
          "type": "uint16"
        },
        {
          "indexed": false,
          "internalType": "uint128",
          "name": "amount",
          "type": "uint128"
        }
      ],
      "name": "FullExitCommit",
      "type": "event"
    },
    {
      "anonymous": false,
      "inputs": [
        {
          "indexed": false,
          "internalType": "address",
          "name": "sender",
          "type": "address"
        },
        {
          "indexed": false,
          "internalType": "uint64",
          "name": "serialId",
          "type": "uint64"
        },
        {
          "indexed": false,
          "internalType": "enum Operations.OpType",
          "name": "opType",
          "type": "uint8"
        },
        {
          "indexed": false,
          "internalType": "bytes",
          "name": "pubData",
          "type": "bytes"
        },
        {
          "indexed": false,
          "internalType": "uint256",
          "name": "expirationBlock",
          "type": "uint256"
        }
      ],
      "name": "NewPriorityRequest",
      "type": "event"
    },
    {
      "anonymous": false,
      "inputs": [
        {
          "indexed": true,
          "internalType": "address",
          "name": "sender",
          "type": "address"
        },
        {
          "indexed": true,
          "internalType": "uint16",
          "name": "tokenId",
          "type": "uint16"
        },
        {
          "indexed": false,
          "internalType": "uint128",
          "name": "amount",
          "type": "uint128"
        },
        {
          "indexed": true,
          "internalType": "address",
          "name": "owner",
          "type": "address"
        }
      ],
      "name": "OnchainDeposit",
      "type": "event"
    },
    {
      "anonymous": false,
      "inputs": [
        {
          "indexed": true,
          "internalType": "address",
          "name": "owner",
          "type": "address"
        },
        {
          "indexed": true,
          "internalType": "uint16",
          "name": "tokenId",
          "type": "uint16"
        },
        {
          "indexed": false,
          "internalType": "uint128",
          "name": "amount",
          "type": "uint128"
        }
      ],
      "name": "OnchainWithdrawal",
      "type": "event"
    },
    {
      "anonymous": false,
      "inputs": [
        {
          "indexed": false,
          "internalType": "uint32",
          "name": "queueStartIndex",
          "type": "uint32"
        },
        {
          "indexed": false,
          "internalType": "uint32",
          "name": "queueEndIndex",
          "type": "uint32"
        }
      ],
      "name": "PendingWithdrawalsAdd",
      "type": "event"
    },
    {
      "anonymous": false,
      "inputs": [
        {
          "indexed": false,
          "internalType": "uint32",
          "name": "queueStartIndex",
          "type": "uint32"
        },
        {
          "indexed": false,
          "internalType": "uint32",
          "name": "queueEndIndex",
          "type": "uint32"
        }
      ],
      "name": "PendingWithdrawalsComplete",
      "type": "event"
    },
    {
      "inputs": [
        {
          "internalType": "address",
          "name": "",
          "type": "address"
        },
        {
          "internalType": "uint32",
          "name": "",
          "type": "uint32"
        }
      ],
      "name": "authFacts",
      "outputs": [
        {
          "internalType": "bytes32",
          "name": "",
          "type": "bytes32"
        }
      ],
      "stateMutability": "view",
      "type": "function"
    },
    {
      "inputs": [
        {
          "internalType": "bytes22",
          "name": "",
          "type": "bytes22"
        }
      ],
      "name": "balancesToWithdraw",
      "outputs": [
        {
          "internalType": "uint128",
          "name": "balanceToWithdraw",
          "type": "uint128"
        },
        {
          "internalType": "uint8",
          "name": "gasReserveValue",
          "type": "uint8"
        }
      ],
      "stateMutability": "view",
      "type": "function"
    },
    {
      "inputs": [
        {
          "internalType": "uint32",
          "name": "",
          "type": "uint32"
        }
      ],
      "name": "blocks_DEPRECATED",
      "outputs": [
        {
          "internalType": "uint32",
          "name": "committedAtBlock",
          "type": "uint32"
        },
        {
          "internalType": "uint64",
          "name": "priorityOperations",
          "type": "uint64"
        },
        {
          "internalType": "uint32",
          "name": "chunks",
          "type": "uint32"
        },
        {
          "internalType": "bytes32",
          "name": "withdrawalsDataHash",
          "type": "bytes32"
        },
        {
          "internalType": "bytes32",
          "name": "commitment",
          "type": "bytes32"
        },
        {
          "internalType": "bytes32",
          "name": "stateRoot",
          "type": "bytes32"
        }
      ],
      "stateMutability": "view",
      "type": "function"
    },
    {
      "inputs": [
        {
          "internalType": "uint64",
          "name": "_n",
          "type": "uint64"
        }
      ],
      "name": "cancelOutstandingDepositsForExodusMode",
      "outputs": [],
      "stateMutability": "nonpayable",
      "type": "function"
    },
    {
      "inputs": [
        {
          "components": [
            {
              "internalType": "uint32",
              "name": "blockNumber",
              "type": "uint32"
            },
            {
              "internalType": "uint64",
              "name": "priorityOperations",
              "type": "uint64"
            },
            {
              "internalType": "bytes32",
              "name": "pendingOnchainOperationsHash",
              "type": "bytes32"
            },
            {
              "internalType": "uint256",
              "name": "timestamp",
              "type": "uint256"
            },
            {
              "internalType": "bytes32",
              "name": "stateHash",
              "type": "bytes32"
            },
            {
              "internalType": "bytes32",
              "name": "commitment",
              "type": "bytes32"
            }
          ],
          "internalType": "struct Storage.StoredBlockInfo",
          "name": "_lastCommittedBlockData",
          "type": "tuple"
        },
        {
          "components": [
            {
              "internalType": "uint32",
              "name": "blockNumber",
              "type": "uint32"
            },
            {
              "internalType": "uint32",
              "name": "feeAccount",
              "type": "uint32"
            },
            {
              "internalType": "bytes32",
              "name": "newStateHash",
              "type": "bytes32"
            },
            {
              "internalType": "bytes",
              "name": "publicData",
              "type": "bytes"
            },
            {
              "internalType": "uint256",
              "name": "timestamp",
              "type": "uint256"
            },
            {
              "components": [
                {
                  "internalType": "uint32",
                  "name": "publicDataOffset",
                  "type": "uint32"
                },
                {
                  "internalType": "bytes",
                  "name": "ethWitness",
                  "type": "bytes"
                }
              ],
              "internalType": "struct ZkSync.OnchainOperationData[]",
              "name": "onchainOperations",
              "type": "tuple[]"
            }
          ],
          "internalType": "struct ZkSync.CommitBlockInfo[]",
          "name": "_newBlocksData",
          "type": "tuple[]"
        }
      ],
      "name": "commitBlocks",
      "outputs": [],
      "stateMutability": "nonpayable",
      "type": "function"
    },
    {
      "inputs": [
        {
          "internalType": "contract IERC20",
          "name": "_token",
          "type": "address"
        },
        {
          "internalType": "uint104",
          "name": "_amount",
          "type": "uint104"
        },
        {
          "internalType": "address",
          "name": "_zkSyncAddress",
          "type": "address"
        }
      ],
      "name": "depositERC20",
      "outputs": [],
      "stateMutability": "nonpayable",
      "type": "function"
    },
    {
      "inputs": [
        {
          "internalType": "address",
          "name": "_zkSyncAddress",
          "type": "address"
        }
      ],
      "name": "depositETH",
      "outputs": [],
      "stateMutability": "payable",
      "type": "function"
    },
    {
      "inputs": [
        {
          "components": [
            {
              "components": [
                {
                  "internalType": "uint32",
                  "name": "blockNumber",
                  "type": "uint32"
                },
                {
                  "internalType": "uint64",
                  "name": "priorityOperations",
                  "type": "uint64"
                },
                {
                  "internalType": "bytes32",
                  "name": "pendingOnchainOperationsHash",
                  "type": "bytes32"
                },
                {
                  "internalType": "uint256",
                  "name": "timestamp",
                  "type": "uint256"
                },
                {
                  "internalType": "bytes32",
                  "name": "stateHash",
                  "type": "bytes32"
                },
                {
                  "internalType": "bytes32",
                  "name": "commitment",
                  "type": "bytes32"
                }
              ],
              "internalType": "struct Storage.StoredBlockInfo",
              "name": "storedBlock",
              "type": "tuple"
            },
            {
              "internalType": "bytes[]",
              "name": "pendingOnchainOpsPubdata",
              "type": "bytes[]"
            },
            {
              "internalType": "bytes32[]",
              "name": "commitmentsInSlot",
              "type": "bytes32[]"
            },
            {
              "internalType": "uint256",
              "name": "commitmentIdx",
              "type": "uint256"
            }
          ],
          "internalType": "struct ZkSync.ExecuteBlockInfo[]",
          "name": "_blocksData",
          "type": "tuple[]"
        }
      ],
      "name": "executeBlocks",
      "outputs": [],
      "stateMutability": "nonpayable",
      "type": "function"
    },
    {
      "inputs": [
        {
          "components": [
            {
              "internalType": "uint32",
              "name": "blockNumber",
              "type": "uint32"
            },
            {
              "internalType": "uint64",
              "name": "priorityOperations",
              "type": "uint64"
            },
            {
              "internalType": "bytes32",
              "name": "pendingOnchainOperationsHash",
              "type": "bytes32"
            },
            {
              "internalType": "uint256",
              "name": "timestamp",
              "type": "uint256"
            },
            {
              "internalType": "bytes32",
              "name": "stateHash",
              "type": "bytes32"
            },
            {
              "internalType": "bytes32",
              "name": "commitment",
              "type": "bytes32"
            }
          ],
          "internalType": "struct Storage.StoredBlockInfo",
          "name": "_storedBlockInfo",
          "type": "tuple"
        },
        {
          "internalType": "uint32",
          "name": "_accountId",
          "type": "uint32"
        },
        {
          "internalType": "uint16",
          "name": "_tokenId",
          "type": "uint16"
        },
        {
          "internalType": "uint128",
          "name": "_amount",
          "type": "uint128"
        },
        {
          "internalType": "uint256[]",
          "name": "_proof",
          "type": "uint256[]"
        }
      ],
      "name": "exit",
      "outputs": [],
      "stateMutability": "nonpayable",
      "type": "function"
    },
    {
      "inputs": [
        {
          "internalType": "uint32",
          "name": "",
          "type": "uint32"
        },
        {
          "internalType": "uint16",
          "name": "",
          "type": "uint16"
        }
      ],
      "name": "exited",
      "outputs": [
        {
          "internalType": "bool",
          "name": "",
          "type": "bool"
        }
      ],
      "stateMutability": "view",
      "type": "function"
    },
    {
      "inputs": [],
      "name": "exodusMode",
      "outputs": [
        {
          "internalType": "bool",
          "name": "",
          "type": "bool"
        }
      ],
      "stateMutability": "view",
      "type": "function"
    },
    {
      "inputs": [],
      "name": "firstPendingWithdrawalIndex_DEPRECATED",
      "outputs": [
        {
          "internalType": "uint32",
          "name": "",
          "type": "uint32"
        }
      ],
      "stateMutability": "view",
      "type": "function"
    },
    {
      "inputs": [],
      "name": "firstPriorityRequestId",
      "outputs": [
        {
          "internalType": "uint64",
          "name": "",
          "type": "uint64"
        }
      ],
      "stateMutability": "view",
      "type": "function"
    },
    {
      "inputs": [
        {
          "internalType": "uint32",
          "name": "_accountId",
          "type": "uint32"
        },
        {
          "internalType": "address",
          "name": "_token",
          "type": "address"
        }
      ],
      "name": "fullExit",
      "outputs": [],
      "stateMutability": "nonpayable",
      "type": "function"
    },
    {
      "inputs": [
        {
          "internalType": "address",
          "name": "_address",
          "type": "address"
        },
        {
          "internalType": "uint16",
          "name": "_tokenId",
          "type": "uint16"
        }
      ],
      "name": "getBalanceToWithdraw",
      "outputs": [
        {
          "internalType": "uint128",
          "name": "",
          "type": "uint128"
        }
      ],
      "stateMutability": "view",
      "type": "function"
    },
    {
      "inputs": [],
      "name": "getNoticePeriod",
      "outputs": [
        {
          "internalType": "uint256",
          "name": "",
          "type": "uint256"
        }
      ],
      "stateMutability": "pure",
      "type": "function"
    },
    {
      "inputs": [],
      "name": "governance",
      "outputs": [
        {
          "internalType": "contract Governance",
          "name": "",
          "type": "address"
        }
      ],
      "stateMutability": "view",
      "type": "function"
    },
    {
      "inputs": [
        {
          "internalType": "bytes",
          "name": "initializationParameters",
          "type": "bytes"
        }
      ],
      "name": "initialize",
      "outputs": [],
      "stateMutability": "nonpayable",
      "type": "function"
    },
    {
      "inputs": [],
      "name": "isReadyForUpgrade",
      "outputs": [
        {
          "internalType": "bool",
          "name": "",
          "type": "bool"
        }
      ],
      "stateMutability": "view",
      "type": "function"
    },
    {
      "inputs": [],
      "name": "numberOfPendingWithdrawals_DEPRECATED",
      "outputs": [
        {
          "internalType": "uint32",
          "name": "",
          "type": "uint32"
        }
      ],
      "stateMutability": "view",
      "type": "function"
    },
    {
      "inputs": [
        {
          "internalType": "uint32",
          "name": "",
          "type": "uint32"
        }
      ],
      "name": "pendingWithdrawals_DEPRECATED",
      "outputs": [
        {
          "internalType": "address",
          "name": "to",
          "type": "address"
        },
        {
          "internalType": "uint16",
          "name": "tokenId",
          "type": "uint16"
        }
      ],
      "stateMutability": "view",
      "type": "function"
    },
    {
      "inputs": [
        {
          "internalType": "uint64",
          "name": "",
          "type": "uint64"
        }
      ],
      "name": "priorityRequests",
      "outputs": [
        {
          "internalType": "enum Operations.OpType",
          "name": "opType",
          "type": "uint8"
        },
        {
          "internalType": "bytes",
          "name": "pubData",
          "type": "bytes"
        },
        {
          "internalType": "uint256",
          "name": "expirationBlock",
          "type": "uint256"
        }
      ],
      "stateMutability": "view",
      "type": "function"
    },
    {
      "inputs": [],
      "name": "receiveETH",
      "outputs": [],
      "stateMutability": "payable",
      "type": "function"
    },
    {
      "inputs": [
        {
          "components": [
            {
              "internalType": "uint32",
              "name": "blockNumber",
              "type": "uint32"
            },
            {
              "internalType": "uint64",
              "name": "priorityOperations",
              "type": "uint64"
            },
            {
              "internalType": "bytes32",
              "name": "pendingOnchainOperationsHash",
              "type": "bytes32"
            },
            {
              "internalType": "uint256",
              "name": "timestamp",
              "type": "uint256"
            },
            {
              "internalType": "bytes32",
              "name": "stateHash",
              "type": "bytes32"
            },
            {
              "internalType": "bytes32",
              "name": "commitment",
              "type": "bytes32"
            }
          ],
          "internalType": "struct Storage.StoredBlockInfo[]",
          "name": "_blocksToRevert",
          "type": "tuple[]"
        }
      ],
      "name": "revertBlocks",
      "outputs": [],
      "stateMutability": "nonpayable",
      "type": "function"
    },
    {
      "inputs": [
        {
          "internalType": "bytes",
          "name": "_pubkey_hash",
          "type": "bytes"
        },
        {
          "internalType": "uint32",
          "name": "_nonce",
          "type": "uint32"
        }
      ],
      "name": "setAuthPubkeyHash",
      "outputs": [],
      "stateMutability": "nonpayable",
      "type": "function"
    },
    {
      "inputs": [
        {
          "internalType": "address",
          "name": "_owner",
          "type": "address"
        },
        {
          "internalType": "uint16",
          "name": "_token",
          "type": "uint16"
        },
        {
          "internalType": "uint128",
          "name": "_amount",
          "type": "uint128"
        }
      ],
      "name": "setBalanceToWithdraw",
      "outputs": [],
      "stateMutability": "nonpayable",
      "type": "function"
    },
    {
      "inputs": [
        {
          "internalType": "uint32",
          "name": "",
          "type": "uint32"
        }
      ],
      "name": "storedBlockHashes",
      "outputs": [
        {
          "internalType": "bytes32",
          "name": "",
          "type": "bytes32"
        }
      ],
      "stateMutability": "view",
      "type": "function"
    },
    {
      "inputs": [],
      "name": "totalBlocksCommitted",
      "outputs": [
        {
          "internalType": "uint32",
          "name": "",
          "type": "uint32"
        }
      ],
      "stateMutability": "view",
      "type": "function"
    },
    {
      "inputs": [],
      "name": "totalBlocksVerified",
      "outputs": [
        {
          "internalType": "uint32",
          "name": "",
          "type": "uint32"
        }
      ],
      "stateMutability": "view",
      "type": "function"
    },
    {
      "inputs": [],
      "name": "totalCommittedPriorityRequests",
      "outputs": [
        {
          "internalType": "uint64",
          "name": "",
          "type": "uint64"
        }
      ],
      "stateMutability": "view",
      "type": "function"
    },
    {
      "inputs": [],
      "name": "totalOpenPriorityRequests",
      "outputs": [
        {
          "internalType": "uint64",
          "name": "",
          "type": "uint64"
        }
      ],
      "stateMutability": "view",
      "type": "function"
    },
    {
      "inputs": [],
      "name": "triggerExodusIfNeeded",
      "outputs": [
        {
          "internalType": "bool",
          "name": "",
          "type": "bool"
        }
      ],
      "stateMutability": "nonpayable",
      "type": "function"
    },
    {
      "inputs": [
        {
          "internalType": "bytes",
          "name": "upgradeParameters",
          "type": "bytes"
        }
      ],
      "name": "upgrade",
      "outputs": [],
      "stateMutability": "nonpayable",
      "type": "function"
    },
    {
      "inputs": [],
      "name": "upgradeCanceled",
      "outputs": [],
      "stateMutability": "nonpayable",
      "type": "function"
    },
    {
      "inputs": [],
      "name": "upgradeFinishes",
      "outputs": [],
      "stateMutability": "nonpayable",
      "type": "function"
    },
    {
      "inputs": [],
      "name": "upgradeNoticePeriodStarted",
      "outputs": [],
      "stateMutability": "nonpayable",
      "type": "function"
    },
    {
      "inputs": [],
      "name": "upgradePreparationActivationTime",
      "outputs": [
        {
          "internalType": "uint256",
          "name": "",
          "type": "uint256"
        }
      ],
      "stateMutability": "view",
      "type": "function"
    },
    {
      "inputs": [],
      "name": "upgradePreparationActive",
      "outputs": [
        {
          "internalType": "bool",
          "name": "",
          "type": "bool"
        }
      ],
      "stateMutability": "view",
      "type": "function"
    },
    {
      "inputs": [],
      "name": "upgradePreparationStarted",
      "outputs": [],
      "stateMutability": "nonpayable",
      "type": "function"
    },
    {
      "inputs": [
        {
          "internalType": "bytes32",
          "name": "",
          "type": "bytes32"
        }
      ],
      "name": "verifiedCommitmentHashes",
      "outputs": [
        {
          "internalType": "bool",
          "name": "",
          "type": "bool"
        }
      ],
      "stateMutability": "view",
      "type": "function"
    },
    {
      "inputs": [],
      "name": "verifier",
      "outputs": [
        {
          "internalType": "contract Verifier",
          "name": "",
          "type": "address"
        }
      ],
      "stateMutability": "view",
      "type": "function"
    },
    {
      "inputs": [
        {
          "internalType": "uint256[]",
          "name": "_recursiveInput",
          "type": "uint256[]"
        },
        {
          "internalType": "uint256[]",
          "name": "_proof",
          "type": "uint256[]"
        },
        {
          "internalType": "uint8[]",
          "name": "_vkIndexes",
          "type": "uint8[]"
        },
        {
          "internalType": "uint256[]",
          "name": "_commitments",
          "type": "uint256[]"
        },
        {
          "internalType": "uint256[16]",
          "name": "_subproofsLibms",
          "type": "uint256[16]"
        }
      ],
      "name": "verifyCommitments",
      "outputs": [],
      "stateMutability": "nonpayable",
      "type": "function"
    },
    {
      "inputs": [
        {
          "internalType": "address",
          "name": "_token",
          "type": "address"
        },
        {
          "internalType": "uint128",
          "name": "_amount",
          "type": "uint128"
        }
      ],
      "name": "withdrawERC20",
      "outputs": [],
      "stateMutability": "nonpayable",
      "type": "function"
    },
    {
      "inputs": [
        {
          "internalType": "address",
          "name": "_tokenAddress",
          "type": "address"
        },
        {
          "internalType": "address",
          "name": "_to",
          "type": "address"
        },
        {
          "internalType": "uint128",
          "name": "_amount",
          "type": "uint128"
        },
        {
          "internalType": "uint128",
          "name": "_maxAmount",
          "type": "uint128"
        }
      ],
      "name": "withdrawERC20Guarded",
      "outputs": [
        {
          "internalType": "uint128",
          "name": "withdrawnAmount",
          "type": "uint128"
        }
      ],
      "stateMutability": "nonpayable",
      "type": "function"
    },
    {
      "inputs": [
        {
          "internalType": "uint128",
          "name": "_amount",
          "type": "uint128"
        }
      ],
      "name": "withdrawETH",
      "outputs": [],
      "stateMutability": "nonpayable",
      "type": "function"
    }
  ],
  "bytecode": "0x608060405234801561001057600080fd5b50615e2e80620000216000396000f3fe60806040526004361061026f5760003560e01c806378b91e701161014f578063b269b9ae116100c1578063e17376b51161007a578063e17376b5146106f5578063fa0eb1c614610715578063fa6b53c314610735578063faf4d8cb14610755578063fb27a94d1461076a578063ffeec2371461078a5761026f565b8063b269b9ae1461056d578063b4a8498c1461064e578063c488a09c1461066e578063c57b22be1461068e578063c8e3992b146106a3578063c94c5b7c146106d55761026f565b80638ae20dc9116101135780638ae20dc914610597578063922e1492146105b757806395d6ff19146105cc5780639a83400d146105e15780639ba0d1461461060e578063a22a9f081461062e5761026f565b806378b91e70146105145780637d490798146105295780637e9ca9b114610558578063871b8ff11461056d5780638773334c146105825761026f565b806334f6bb1c116101e8578063439fab91116101ac578063439fab9114610475578063595a5ebc146104955780635aa6e675146104b557806367708dae146104ca5780636b27a044146104df5780637583edff146104f45761026f565b806334f6bb1c146103da5780633761804d146103fc5780633b154b731461042a5780633c6461a91461043f5780633ecfd51e1461046d5761026f565b80632a3174f41161023a5780632a3174f4146103215780632b7ac3f3146103435780632b8c062a146103655780632d24006c146103855780632d2da806146103a75780632f804bd2146103ba5761026f565b8060e2146102745780630ee8f4d4146102965780631587ddfb146102b657806325394645146102d6578063264c0912146102f6575b600080fd5b34801561028057600080fd5b5061029461028f366004614ec8565b61079f565b005b3480156102a257600080fd5b506102946102b1366004614da2565b610963565b3480156102c257600080fd5b506102946102d1366004614852565b610b60565b3480156102e257600080fd5b506102946102f1366004614b92565b610d57565b34801561030257600080fd5b5061030b610f44565b60405161031891906153c1565b60405180910390f35b34801561032d57600080fd5b50610336610f4d565b60405161031891906153cc565b34801561034f57600080fd5b50610358610f55565b60405161031891906151b6565b34801561037157600080fd5b5061030b610380366004614ef3565b610f64565b34801561039157600080fd5b5061039a610f84565b6040516103189190615c5b565b6102946103b53660046146a5565b610f97565b3480156103c657600080fd5b506102946103d5366004614f0e565b611008565b3480156103e657600080fd5b506103ef6112d8565b6040516103189190615cfe565b34801561040857600080fd5b5061041c610417366004614eae565b6112ee565b604051610318929190615294565b34801561043657600080fd5b50610294611316565b34801561044b57600080fd5b5061045f61045a366004614b3a565b611318565b604051610318929190615c30565b610294611316565b34801561048157600080fd5b50610294610490366004614b92565b61133f565b3480156104a157600080fd5b506102946104b0366004614bd1565b611415565b3480156104c157600080fd5b5061035861153e565b3480156104d657600080fd5b506103ef61154d565b3480156104eb57600080fd5b5061030b61155c565b34801561050057600080fd5b5061029461050f3660046149fe565b611608565b34801561052057600080fd5b50610294611703565b34801561053557600080fd5b50610549610544366004614f0e565b611718565b6040516103189392919061546d565b34801561056457600080fd5b5061039a6117cc565b34801561057957600080fd5b506102946117e0565b34801561058e57600080fd5b5061030b6117ef565b3480156105a357600080fd5b506103366105b2366004614827565b6117f9565b3480156105c357600080fd5b5061030b611816565b3480156105d857600080fd5b5061039a61181f565b3480156105ed57600080fd5b506106016105fc36600461471d565b61182b565b6040516103189190615c1c565b34801561061a57600080fd5b50610336610629366004614eae565b6119cd565b34801561063a57600080fd5b506102946106493660046147dd565b6119df565b34801561065a57600080fd5b50610294610669366004614961565b611a2b565b34801561067a57600080fd5b50610294610689366004614e5a565b611c51565b34801561069a57600080fd5b506103ef611d38565b3480156106af57600080fd5b506106c36106be366004614eae565b611d4e565b60405161031896959493929190615cbf565b3480156106e157600080fd5b506102946106f0366004614778565b611d98565b34801561070157600080fd5b50610294610710366004614c22565b611f31565b34801561072157600080fd5b5061030b610730366004614b62565b61221e565b34801561074157600080fd5b506106016107503660046147b0565b612233565b34801561076157600080fd5b5061039a612270565b34801561077657600080fd5b50610294610785366004614c72565b612283565b34801561079657600080fd5b506103366124bf565b600080516020615dd983398151915254806107d55760405162461bcd60e51b81526004016107cc90615b16565b60405180910390fd5b6000600080516020615dd9833981519152556107ef6124c5565b62ffffff63ffffffff841611156108185760405162461bcd60e51b81526004016107cc9061573a565b60006001600160a01b038316610830575060006108b3565b6003546040516375698bb160e11b81526001600160a01b039091169063ead31762906108609086906004016151b6565b60206040518083038186803b15801561087857600080fd5b505afa15801561088c573d6000803e3d6000fd5b505050506040513d601f19601f820116820180604052508101906108b09190614e92565b90505b6108bb6141f7565b60405180608001604052808663ffffffff168152602001336001600160a01b031681526020018361ffff16815260200160006001600160801b031681525090506060610906826124e8565b9050610913600682612526565b600061091f338561263b565b6001600160501b0319166000908152600460205260409020805460ff60801b191660ff60801b17905550506001600080516020615dd9833981519152555050505050565b600080516020615dd983398151915254806109905760405162461bcd60e51b81526004016107cc90615b16565b6000600080516020615dd98339815191525560006109ae338761263b565b60095490915060ff166109d35760405162461bcd60e51b81526004016107cc9061586f565b63ffffffff8716600090815260086020908152604080832061ffff8a16845290915290205460ff1615610a185760405162461bcd60e51b81526004016107cc90615a1e565b610a2188612658565b600654600160401b900463ffffffff166000908152600d602052604090205414610a5d5760405162461bcd60e51b81526004016107cc90615b6c565b600254608089015160405163c81a27ad60e01b81526001600160a01b039092169163c81a27ad91610a9c918b9033908c908c908c908c906004016153d5565b60206040518083038186803b158015610ab457600080fd5b505afa158015610ac8573d6000803e3d6000fd5b505050506040513d601f19601f82011682018060405250810190610aec9190614b1a565b610b085760405162461bcd60e51b81526004016107cc90615b6c565b610b128186612689565b50505063ffffffff909316600090815260086020908152604080832061ffff909516835293905291909120805460ff19166001908117909155600080516020615dd983398151915255505050565b600080516020615dd98339815191525480610b8d5760405162461bcd60e51b81526004016107cc90615b16565b6000600080516020615dd983398151915255610ba76124c5565b600354604051634b18bd0f60e01b81526001600160a01b0390911690634b18bd0f90610bd79033906004016151b6565b60006040518083038186803b158015610bef57600080fd5b505afa158015610c03573d6000803e3d6000fd5b50508351600092509050815b8163ffffffff168163ffffffff161015610ca657610c46858263ffffffff1681518110610c3857fe5b602002602001015182612727565b83019250848163ffffffff1681518110610c5c57fe5b6020026020010151600001516000015163ffffffff167f0cdbd8bd7813095001c5fe7917bd69d834dc01db7c1dfcf52ca135bd2038441360405160405180910390a2600101610c0f565b50600c805463ffffffff938416600160401b600160801b6001600160401b038085168401811667ffffffffffffffff19909516949094178181048516849003851690910267ffffffffffffffff60801b1990911617818104841692909203909216820267ffffffffffffffff60401b1990911617909155600680548281048516909301909316026bffffffff00000000000000001990911617905550506001600080516020615dd983398151915255565b8015610d755760405162461bcd60e51b81526004016107cc906154ee565b600654600160601b810463ffffffff908116600160401b9092041614610dad5760405162461bcd60e51b81526004016107cc90615909565b600654640100000000900463ffffffff1615610ddb5760405162461bcd60e51b81526004016107cc906159c2565b600c54600160401b90046001600160401b031615610e0b5760405162461bcd60e51b81526004016107cc9061588e565b610e1361421e565b5060065463ffffffff600160401b9091048116600090815260076020908152604091829020825160c081018452815480861682526001600160401b03640100000000820416938201849052600160601b900490941692840192909252600182015460608401526002820154608084015260039091015460a083015215610eab5760405162461bcd60e51b81526004016107cc906157b6565b610eb361421e565b506040805160c081018252600654600160401b900463ffffffff1681526020838101516001600160401b031690820152600080516020615db9833981519152918101919091526000606082015260a08083015160808084019190915283015190820152610f1f81612658565b600654600160401b900463ffffffff166000908152600d602052604090205550505050565b60095460ff1681565b620a8c005b90565b6002546001600160a01b031681565b600860209081526000928352604080842090915290825290205460ff1681565b600654600160401b900463ffffffff1681565b600080516020615dd98339815191525480610fc45760405162461bcd60e51b81526004016107cc90615b16565b6000600080516020615dd983398151915255610fde6124c5565b610ff26000610fec346129ab565b846129d0565b6001600080516020615dd9833981519152555050565b600080516020615dd983398151915254806110355760405162461bcd60e51b81526004016107cc90615b16565b6000600080516020615dd98339815191525560095460ff166110695760405162461bcd60e51b81526004016107cc906156fc565b600c5460009061108990600160401b90046001600160401b031684612a87565b90506000816001600160401b0316116110b45760405162461bcd60e51b81526004016107cc90615812565b600c546001600160401b03165b600c546001600160401b039081168301811690821610156112785760016001600160401b0382166000908152600b602052604090205460ff16600981111561110557fe5b1415611238576111136141f7565b6111dc600b6000846001600160401b03166001600160401b031681526020019081526020016000206001018054600181600116156101000203166002900480601f0160208091040260200160405190810160405280929190818152602001828054600181600116156101000203166002900480156111d25780601f106111a7576101008083540402835291602001916111d2565b820191906000526020600020905b8154815290600101906020018083116111b557829003601f168201915b5050505050612ab1565b905060006111f28260600151836020015161263b565b6040928301516001600160501b031991909116600090815260046020529290922080546001600160801b031981166001600160801b039182169094011692909217909155505b6001600160401b0381166000908152600b60205260408120805460ff19168155906112666001830182614253565b506000600291909101556001016110c1565b50600c805467ffffffffffffffff60401b1967ffffffffffffffff1982166001600160401b039283168501831617908116600160401b918290048316949094039091160291909117905550506001600080516020615dd983398151915255565b600c54600160801b90046001600160401b031681565b6005602052600090815260409020546001600160a01b03811690600160a01b900461ffff1682565b565b6004602052600090815260409020546001600160801b03811690600160801b900460ff1682565b611347612b3e565b60008080611357848601866146dd565b600280546001600160a01b038085166001600160a01b03199283161790925560038054928616929091169190911790559194509250905061139661421e565b506040805160c081018252600080825260208201819052600080516020615db983398151915292820192909252606081018290526080810183905260a08101919091526113e281612658565b60008052600d6020527f81955a0a11e65eac625c29e8882660bae4e165a75d72780094acae8ece9a29ee55505050505050565b600080516020615dd983398151915254806114425760405162461bcd60e51b81526004016107cc90615b16565b6000600080516020615dd983398151915255601483146114745760405162461bcd60e51b81526004016107cc90615831565b336000908152600a6020908152604080832063ffffffff86168452909152902054156114b25760405162461bcd60e51b81526004016107cc90615850565b83836040516114c2929190615033565b60408051918290038220336000818152600a602090815284822063ffffffff8916835290529290922055907f9ea39b45a0cc96a2139996ec8dd30326216111249750781e563ae27c31ae87669061151e90859088908890615c6c565b60405180910390a26001600080516020615dd98339815191525550505050565b6003546001600160a01b031681565b600c546001600160401b031681565b600c546001600160401b03166000908152600b6020526040812060020154819043108015906115a75750600c546001600160401b03166000908152600b602052604090206002015415155b905080156115fa5760095460ff166115f0576009805460ff191660011790556040517fc71028c67eb0ef128ea270a59a674629e767d51c1af44ed6753fd2fad2c7b67790600090a15b6001915050610f52565b6000915050610f52565b5090565b60025460405163046cac9960e51b81526000916001600160a01b031690638d959320906116419089908990899089908990600401615315565b60206040518083038186803b15801561165957600080fd5b505afa15801561166d573d6000803e3d6000fd5b505050506040513d601f19601f820116820180604052508101906116919190614b1a565b9050806116b05760405162461bcd60e51b81526004016107cc906155fd565b6001600e6000856040516020016116c79190615302565b60408051808303601f19018152918152815160209283012083529082019290925201600020805460ff1916911515919091179055505050505050565b6000805460ff19166001908117909155429055565b600b602090815260009182526040918290208054600180830180548651600261010094831615949094026000190190911692909204601f810186900486028301860190965285825260ff9092169492939092908301828280156117bc5780601f10611791576101008083540402835291602001916117bc565b820191906000526020600020905b81548152906001019060200180831161179f57829003601f168201915b5050505050908060020154905083565b600654640100000000900463ffffffff1681565b6000805460ff19168155600155565b60095460ff161590565b600a60209081526000928352604080842090915290825290205481565b60005460ff1681565b60065463ffffffff1681565b600033301461184c5760405162461bcd60e51b81526004016107cc9061550c565b6040516370a0823160e01b815285906000906001600160a01b038316906370a082319061187d9030906004016151b6565b60206040518083038186803b15801561189557600080fd5b505afa1580156118a9573d6000803e3d6000fd5b505050506040513d601f19601f820116820180604052508101906118cd9190614b7a565b90506118e38287876001600160801b0316612b52565b6118ff5760405162461bcd60e51b81526004016107cc906158ea565b6040516370a0823160e01b81526000906001600160a01b038416906370a082319061192e9030906004016151b6565b60206040518083038186803b15801561194657600080fd5b505afa15801561195a573d6000803e3d6000fd5b505050506040513d601f19601f8201168201806040525081019061197e9190614b7a565b9050600061198c8383612c28565b9050856001600160801b03168111156119b75760405162461bcd60e51b81526004016107cc906156be565b6119c0816129ab565b9998505050505050505050565b600d6020526000908152604090205481565b80600460006119ee868661263b565b6001600160501b0319168152602081019190915260400160002080546001600160801b0319166001600160801b0392909216919091179055505050565b600080516020615dd98339815191525480611a585760405162461bcd60e51b81526004016107cc90615b16565b6000600080516020615dd983398151915255600354604051634b18bd0f60e01b81526001600160a01b0390911690634b18bd0f90611a9a9033906004016151b6565b60006040518083038186803b158015611ab257600080fd5b505afa158015611ac6573d6000803e3d6000fd5b5050600654845163ffffffff600160601b83048116945060009350611af492600160401b9004168403612c6a565b90506000805b8263ffffffff168163ffffffff161015611b9f57611b1661421e565b868263ffffffff1681518110611b2857fe5b60200260200101519050611b3b81612658565b63ffffffff86166000908152600d602052604090205414611b6e5760405162461bcd60e51b81526004016107cc90615a3d565b63ffffffff85166000908152600d602090815260408220919091550151600019909401939190910190600101611afa565b506006805463ffffffff808616600160601b0263ffffffff60601b199092169190911791829055600c80546001600160401b03600160801b80830482168790039091160267ffffffffffffffff60801b199091161790556040517f6f3a8259cce1ea2680115053d21c971aa1764295a45850f520525f2bfdf3c9d392611c3092600160401b90910416908690615ca8565b60405180910390a15050506001600080516020615dd9833981519152555050565b600080516020615dd98339815191525480611c7e5760405162461bcd60e51b81526004016107cc90615b16565b6000600080516020615dd983398151915255611c9c60008333612c85565b6000336001600160a01b0316836001600160801b0316604051611cbe90610f52565b60006040518083038185875af1925050503d8060008114611cfb576040519150601f19603f3d011682016040523d82523d6000602084013e611d00565b606091505b5050905080611d215760405162461bcd60e51b81526004016107cc90615797565b506001600080516020615dd9833981519152555050565b600c54600160401b90046001600160401b031681565b600760205260009081526040902080546001820154600283015460039093015463ffffffff808416946001600160401b0364010000000086041694600160601b9004909116929186565b600080516020615dd98339815191525480611dc55760405162461bcd60e51b81526004016107cc90615b16565b6000600080516020615dd98339815191528190556003546040516375698bb160e11b81526001600160a01b039091169063ead3176290611e099087906004016151b6565b60206040518083038186803b158015611e2157600080fd5b505afa158015611e35573d6000803e3d6000fd5b505050506040513d601f19601f82011682018060405250810190611e599190614e92565b90506000611e67338361263b565b6001600160501b031981166000908152600460208190526040808320549051639a83400d60e01b81529394506001600160801b0316923091639a83400d91611eb7918b9133918c9189910161521a565b602060405180830381600087803b158015611ed157600080fd5b505af1158015611ee5573d6000803e3d6000fd5b505050506040513d601f19601f82011682018060405250810190611f099190614e76565b9050611f16848233612c85565b505050506001600080516020615dd983398151915255505050565b600080516020615dd98339815191525480611f5e5760405162461bcd60e51b81526004016107cc90615b16565b6000600080516020615dd983398151915255611f786124c5565b6003546040516375698bb160e11b81526000916001600160a01b03169063ead3176290611fa99088906004016151b6565b60206040518083038186803b158015611fc157600080fd5b505afa158015611fd5573d6000803e3d6000fd5b505050506040513d601f19601f82011682018060405250810190611ff99190614e92565b60035460405163f3a65bf960e01b81529192506001600160a01b03169063f3a65bf99061202a908490600401615c4c565b60206040518083038186803b15801561204257600080fd5b505afa158015612056573d6000803e3d6000fd5b505050506040513d601f19601f8201168201806040525081019061207a9190614b1a565b156120975760405162461bcd60e51b81526004016107cc90615ab9565b6040516370a0823160e01b81526000906001600160a01b038716906370a08231906120c69030906004016151b6565b60206040518083038186803b1580156120de57600080fd5b505afa1580156120f2573d6000803e3d6000fd5b505050506040513d601f19601f820116820180604052508101906121169190614b7a565b9050612144863330612136896cffffffffffffffffffffffffff166129ab565b6001600160801b0316612d49565b6121605760405162461bcd60e51b81526004016107cc906158ac565b6040516370a0823160e01b81526000906001600160a01b038816906370a082319061218f9030906004016151b6565b60206040518083038186803b1580156121a757600080fd5b505afa1580156121bb573d6000803e3d6000fd5b505050506040513d601f19601f820116820180604052508101906121df9190614b7a565b905060006121f56121f08385612c28565b6129ab565b90506122028482886129d0565b505050506001600080516020615dd98339815191525550505050565b600e6020526000908152604090205460ff1681565b600060046000612243858561263b565b6001600160501b03191681526020810191909152604001600020546001600160801b031690505b92915050565b600654600160601b900463ffffffff1681565b600080516020615dd983398151915254806122b05760405162461bcd60e51b81526004016107cc90615b16565b6000600080516020615dd9833981519152556122ca6124c5565b600354604051634b18bd0f60e01b81526001600160a01b0390911690634b18bd0f906122fa9033906004016151b6565b60006040518083038186803b15801561231257600080fd5b505afa158015612326573d6000803e3d6000fd5b5050505061233383612658565b600654600160601b900463ffffffff166000908152600d60205260409020541461236f5760405162461bcd60e51b81526004016107cc90615927565b61237761421e565b50826000805b84518163ffffffff161015612415576123af83868363ffffffff16815181106123a257fe5b6020026020010151612e22565b92508260200151820191506123c383612658565b835163ffffffff9081166000908152600d6020526040808220939093558551925192909116917f81a92942d0f9c33b897a438384c9c3d88be397776138efa3ba1a4fc8b62684249190a260010161237d565b5083516006805463ffffffff600160601b80830482169094011690920263ffffffff60601b19909216919091179055600c80546001600160401b03600160801b808304821685018216810267ffffffffffffffff60801b199093169290921792839055600160401b830481169190920490911611156124a65760405162461bcd60e51b81526004016107cc90615a7b565b50506001600080516020615dd983398151915255505050565b60015481565b60095460ff16156113165760405162461bcd60e51b81526004016107cc90615a9a565b6060600682516020808501516040808701516060880151915161251096959491929101615150565b6040516020818303038152906040529050919050565b600c5460408051606081019091524361438001916001600160401b03808216600160401b9092041601908085600981111561255d57fe5b8152602080820186905260409182018590526001600160401b0384166000908152600b9091522081518154829060ff1916600183600981111561259c57fe5b021790555060208281015180516125b9926001850192019061429a565b50604091820151600290910155517fd0943372c08b438a88d4b39d77216901079eda9ca59d45349841c099083b6830906125fc90339084908890889088906151ca565b60405180910390a15050600c805460016001600160401b03600160401b808404821692909201160267ffffffffffffffff60401b199091161790555050565b60a01b61ffff60a01b166001600160a01b03919091161760501b90565b60008160405160200161266b9190615bc9565b6040516020818303038152906040528051906020012090505b919050565b6001600160501b03198216600090815260046020526040908190205481518083019092526001600160801b031690806126c28385612f3b565b6001600160801b03908116825260ff60209283018190526001600160501b031990961660009081526004835260409020835181549490930151909616600160801b0260ff60801b19929091166001600160801b03199093169290921716179092555050565b81515163ffffffff166000908152600d6020526040812054835161274a90612658565b146127675760405162461bcd60e51b81526004016107cc90615759565b600654835151600160401b90910463ffffffff908116840160010181169116146127a35760405162461bcd60e51b81526004016107cc9061554a565b60065483515163ffffffff600160601b9092048216911611156127d85760405162461bcd60e51b81526004016107cc90615b8b565b6127f3836000015160a0015184604001518560600151612f6c565b61280f5760405162461bcd60e51b81526004016107cc90615baa565b506000600080516020615db9833981519152815b8460200151518163ffffffff16101561297f57606085602001518263ffffffff168151811061284e57fe5b6020026020010151905060008160008151811061286757fe5b016020015160f81c600981111561287a57fe5b9050600181600981111561288a57fe5b141561289b57846001019450612966565b60038160098111156128a957fe5b14156128df576128b7614314565b6128c083612fd7565b90506128d9816000015182604001518360200151613030565b50612966565b60088160098111156128ed57fe5b1415612904576128fb614314565b6128c08361318c565b600681600981111561291257fe5b141561294e576129206141f7565b612929836131a0565b9050612942816040015182602001518360600151613030565b85600101955050612966565b60405162461bcd60e51b81526004016107cc90615946565b6129708483613227565b93505050806001019050612823565b5083516040015181146129a45760405162461bcd60e51b81526004016107cc90615946565b5092915050565b6000600160801b82106116045760405162461bcd60e51b81526004016107cc90615677565b6129d86141f7565b6040518060800160405280600063ffffffff1681526020018561ffff168152602001846001600160801b03168152602001836001600160a01b031681525090506060612a238261325a565b9050612a30600182612526565b826001600160a01b03168561ffff16336001600160a01b03167fb6866b029f3aa29cd9e2bff8159a8ccaa4389f7a087c710968e0b200c0c73b0887604051612a789190615c1c565b60405180910390a45050505050565b6000816001600160401b0316836001600160401b031610612aa85781612aaa565b825b9392505050565b612ab96141f7565b6001612ac58382613281565b63ffffffff1683529050612ad9838261329a565b61ffff1660208401529050612aee83826132aa565b6001600160801b031660408401529050612b0883826132ba565b6001600160a01b031660608401529050602b8114612b385760405162461bcd60e51b81526004016107cc90615ad8565b50919050565b6001600080516020615dd983398151915255565b6000806060856001600160a01b03168585604051602401612b749291906152b1565b60408051601f198184030181529181526020820180516001600160e01b031663a9059cbb60e01b17905251612ba99190615043565b6000604051808303816000865af19150503d8060008114612be6576040519150601f19603f3d011682016040523d82523d6000602084013e612beb565b606091505b50915091506000815160001480612c11575081806020019051810190612c119190614b1a565b9050828015612c1d5750805b979650505050505050565b6000612aaa83836040518060400160405280601e81526020017f536166654d6174683a207375627472616374696f6e206f766572666c6f7700008152506132ca565b60008163ffffffff168363ffffffff1610612aa85781612aaa565b6000612c91828561263b565b6001600160501b031981166000908152600460205260409020549091506001600160801b0316612cc181856132f6565b6001600160501b031983166000908152600460205260409081902080546001600160801b0319166001600160801b0393909316929092179091555161ffff8616906001600160a01b038516907f3ac065a1e69cd78fa12ba7269660a2894da2ec7f1ff1135ed5ca04de4b4e389e90612d3a908890615c1c565b60405180910390a35050505050565b6000806060866001600160a01b0316868686604051602401612d6d9392919061524e565b60408051601f198184030181529181526020820180516001600160e01b03166323b872dd60e01b17905251612da29190615043565b6000604051808303816000865af19150503d8060008114612ddf576040519150601f19603f3d011682016040523d82523d6000602084013e612de4565b606091505b50915091506000815160001480612e0a575081806020019051810190612e0a9190614b1a565b9050828015612e165750805b98975050505050505050565b612e2a61421e565b8251825163ffffffff90811660019092011614612e595760405162461bcd60e51b81526004016107cc90615a7b565b826060015182608001511015612e815760405162461bcd60e51b81526004016107cc906159a3565b60808201514261707f198101821080159261038490920190911115908290612ea65750805b612ec25760405162461bcd60e51b81526004016107cc906157d4565b50506000806060612ed285613338565b9250925092506000612ee5878784613705565b90506040518060c00160405280876000015163ffffffff168152602001846001600160401b0316815260200185815260200187608001518152602001876040015181526020018281525094505050505092915050565b60008282016001600160801b038085169082161015612aaa5760405162461bcd60e51b81526004016107cc906155c6565b600080600e600085604051602001612f8491906152ca565b60408051601f198184030181529181528151602092830120835290820192909252016000205460ff169050808015612fce575084848481518110612fc457fe5b6020026020010151145b95945050505050565b612fdf614314565b6005612feb838261329a565b61ffff1683529050612ffd83826132aa565b6001600160801b03166020840152600201905061301a83826132ba565b6001600160a01b03166040840152509092915050565b600061303c838561263b565b9050600061ffff8516613065578361305d816001600160801b03861661394a565b915050613176565b6003546040516310603dad60e01b81526000916001600160a01b0316906310603dad90613096908990600401615c4c565b60206040518083038186803b1580156130ae57600080fd5b505afa1580156130c2573d6000803e3d6000fd5b505050506040513d601f19601f820116820180604052508101906130e691906146c1565b604051639a83400d60e01b81529091503090639a83400d9061c350906131169085908a908a90819060040161521a565b602060405180830381600088803b15801561313057600080fd5b5087f193505050508015613161575060408051601f3d908101601f1916820190925261315e91810190614e76565b60015b61316e5760009150613174565b50600191505b505b80613185576131858284612689565b5050505050565b613194614314565b6009612feb838261329a565b6131a86141f7565b60016131b48382613281565b63ffffffff16835290506131c883826132ba565b6001600160a01b0316602084015290506131e2838261329a565b61ffff16604084015290506131f783826132aa565b6001600160801b031660608401529050602b8114612b385760405162461bcd60e51b81526004016107cc90615588565b6000828260405160200161323c92919061500d565b60405160208183030381529060405280519060200120905092915050565b606060016020808401516040808601516060870151915161251095946000949391016150ed565b60048101600061329184846139bb565b90509250929050565b60028101600061329184846139f0565b6010810160006132918484613a1a565b6014810160006132918484613a44565b600081848411156132ee5760405162461bcd60e51b81526004016107cc919061549d565b505050900390565b6000612aaa83836040518060400160405280601e81526020017f536166654d6174683a207375627472616374696f6e206f766572666c6f770000815250613a6e565b606081810151600c548151600080516020615db983398151915293600093909290916001600160401b03808316600160801b90930416919091019060099006156133945760405162461bcd60e51b81526004016107cc906154b0565b8151600990046001600160401b03811180156133af57600080fd5b506040519080825280601f01601f1916602001820160405280156133da576020820181803683370190505b50925060005b8660a00151518163ffffffff1610156136fb576133fb614334565b8760a001518263ffffffff168151811061341157fe5b6020908102919091010151805190915063ffffffff1660098106156134485760405162461bcd60e51b81526004016107cc906158cb565b600160f81b86600983048151811061345c57fe5b60200101906001600160f81b031916908160001a905350600085828151811061348157fe5b016020015160f81c600981111561349457fe5b905060018160098111156134a457fe5b14156135215760606134b887846036613aa5565b90506134c26141f7565b6134cb82612ab1565b90506134db8c6000015182613b48565b6134e3614334565b604080518082019091528060015b8152602001849052905061350781898d01613ba8565b6001909a01996135178c84613227565b9b505050506136ed565b600381600981111561352f57fe5b141561355757606061354387846036613aa5565b905061354f8a82613227565b9950506136ed565b600881600981111561356557fe5b141561357957606061354387846036613aa5565b600681600981111561358757fe5b14156135d857606061359b87846036613aa5565b90506135a56141f7565b6135ae826131a0565b90506135be8c6000015182613d35565b6135c6614334565b604080518082019091528060066134f1565b60078160098111156135e657fe5b14156136d55760606135fa87846036613aa5565b90506136046141f7565b61360d82613d89565b905084602001515160001461365157600061362c866020015183613df9565b90508061364b5760405162461bcd60e51b81526004016107cc906154cf565b506136ce565b600081602001516040516020016136689190614fd0565b60408051601f198184030181529181528151602092830120848201516001600160a01b03166000908152600a8452828120606087015163ffffffff168252909352912054149050806136cc5760405162461bcd60e51b81526004016107cc90615639565b505b50506136ed565b60405162461bcd60e51b81526004016107cc90615af7565b5050508060010190506133e0565b5050509193909250565b6000806002846000015163ffffffff16856020015163ffffffff16604051602001613731929190614fff565b60408051601f198184030181529082905261374b91615043565b602060405180830381855afa158015613768573d6000803e3d6000fd5b5050506040513d601f19601f8201168201806040525081019061378b9190614b7a565b905060028186608001516040516020016137a6929190614fff565b60408051601f19818403018152908290526137c091615043565b602060405180830381855afa1580156137dd573d6000803e3d6000fd5b5050506040513d601f19601f820116820180604052508101906138009190614b7a565b9050600281856040015160405160200161381b929190614fff565b60408051601f198184030181529082905261383591615043565b602060405180830381855afa158015613852573d6000803e3d6000fd5b5050506040513d601f19601f820116820180604052508101906138759190614b7a565b90506002818560800151604051602001613890929190614fff565b60408051601f19818403018152908290526138aa91615043565b602060405180830381855afa1580156138c7573d6000803e3d6000fd5b5050506040513d601f19601f820116820180604052508101906138ea9190614b7a565b9050606084606001518460405160200161390592919061505f565b60405160208183030381529060405290506040518151838352602082602083018560025afa8184528080156139395761393b565bfe5b50509051979650505050505050565b60008061271090506000846001600160a01b0316828560405161396c90610f52565b600060405180830381858888f193505050503d80600081146139aa576040519150601f19603f3d011682016040523d82523d6000602084013e6139af565b606091505b50909695505050505050565b60008082600401905080845110156139e55760405162461bcd60e51b81526004016107cc906156dd565b929092015192915050565b60008082600201905080845110156139e55760405162461bcd60e51b81526004016107cc9061561a565b60008082601001905080845110156139e55760405162461bcd60e51b81526004016107cc90615a5c565b60008082601401905080845110156139e55760405162461bcd60e51b81526004016107cc90615b4d565b6000836001600160801b0316836001600160801b0316111582906132ee5760405162461bcd60e51b81526004016107cc919061549d565b606081830184511015613aca5760405162461bcd60e51b81526004016107cc9061571b565b6060826001600160401b0381118015613ae257600080fd5b506040519080825280601f01601f191660200182016040528015613b0d576020820181803683370190505b5090508215613b4057602081018381016020860187015b81831015613b3c578051835260209283019201613b24565b5050505b949350505050565b806020015161ffff16816000015163ffffffff168363ffffffff167fc4e73a5b67a0594d06ea2b5c311c2aa44aa340dd4dd9ec5a1a718dc391b6447084606001518560400151604051613b9c929190615272565b60405180910390a45050565b6001600160401b0381166000908152600b60209081526040918290208054600191820180548551600261010095831615959095026000190190911693909304601f810185900485028401850190955284835260ff90911693606093830182828015613c545780601f10613c2957610100808354040283529160200191613c54565b820191906000526020600020905b815481529060010190602001808311613c3757829003601f168201915b5050505050905083600001516009811115613c6b57fe5b826009811115613c7757fe5b14613c945760405162461bcd60e51b81526004016107cc90615984565b600184516009811115613ca357fe5b1415613cd857613cb7818560200151613e7a565b613cd35760405162461bcd60e51b81526004016107cc90615965565b613d2f565b600684516009811115613ce757fe5b1415613d1757613cfb818560200151613ebd565b613cd35760405162461bcd60e51b81526004016107cc90615569565b60405162461bcd60e51b81526004016107cc906157f3565b50505050565b806040015161ffff16816000015163ffffffff168363ffffffff167f66fc63d751ecbefca61d4e2e7c534e4f29c61aed8ece23ed635277a7ea6f9bc484602001518560600151604051613b9c929190615272565b613d916141f7565b6001613d9d8382613281565b63ffffffff1683529050613db18382613ee6565b6001600160601b03191660208401529050613dcc83826132ba565b6001600160a01b031660408401529050613de68382613281565b63ffffffff166060840152509092915050565b60008083600081518110613e0957fe5b016020015160f81c6001811115613e1c57fe5b90506000816001811115613e2c57fe5b1415613e4457613e3c8484613ef6565b91505061226a565b6001816001811115613e5257fe5b1415613e6257613e3c8484613f84565b60405162461bcd60e51b81526004016107cc906155a7565b600060056060613e8c85836026613aa5565b90506060613e9f8584602b819003613aa5565b90508080519060200120828051906020012014935050505092915050565b600080613ecb84601b61405e565b90506000613eda84601b61405e565b91909114949350505050565b60148101600061329184846140b2565b6000806060613f0885600160416140e1565b915091506000613f1886846140fc565b915050600085602001518660600151876000015184604051602001613f40949392919061508e565b6040516020818303038152906040528051906020012090506000613f64848361410c565b60408801516001600160a01b039182169116149550505050505092915050565b60008080806001613f9587826132ba565b94509050613fa387826140fc565b93509050613fb187826140fc565b80935081925050506000866020015184604051602001613fd2929190614fe5565b60408051601f19818403018152908290528051602091820120925060009161400a916001600160f81b03199189918691899101614f9c565b6040516020818303038152906040528051906020012060001c905087604001516001600160a01b0316816001600160a01b03161480156119c05750606088015163ffffffff16159998505050505050505050565b600060208211156140815760405162461bcd60e51b81526004016107cc9061552b565b81835110156140a25760405162461bcd60e51b81526004016107cc906159ff565b5060209182015191036008021c90565b600081601401835110156140d85760405162461bcd60e51b81526004016107cc906159e0565b50016020015190565b600060606140f0858585613aa5565b93909201949293505050565b60208101600061329184846141cd565b6000825160411461412f5760405162461bcd60e51b81526004016107cc90615778565b600080600061413e86826140fc565b9350905061414c86826140fc565b8093508192505050600086828151811061416257fe5b602001015160f81c60f81b60f81c905060018682868660405160008152602001604052604051614195949392919061544f565b6020604051602081039080840390855afa1580156141b7573d6000803e3d6000fd5b5050604051601f19015198975050505050505050565b60008082602001905080845110156139e55760405162461bcd60e51b81526004016107cc90615658565b60408051608081018252600080825260208201819052918101829052606081019190915290565b6040805160c081018252600080825260208201819052918101829052606081018290526080810182905260a081019190915290565b50805460018160011615610100020316600290046000825580601f106142795750614297565b601f016020900490600052602060002090810190614297919061434c565b50565b828054600181600116156101000203166002900490600052602060002090601f016020900481019282601f106142db57805160ff1916838001178555614308565b82800160010185558215614308579182015b828111156143085782518255916020019190600101906142ed565b5061160492915061434c565b604080516060810182526000808252602082018190529181019190915290565b60408051808201909152600081526060602082015290565b5b80821115611604576000815560010161434d565b600082601f830112614371578081fd5b813561438461437f82615d35565b615d12565b8181529150602080830190848101818402860182018710156143a557600080fd5b60005b848110156143c4578135845292820192908201906001016143a8565b505050505092915050565b600082601f8301126143df578081fd5b81356143ed61437f82615d35565b818152915060208083019084810160005b848110156143c457614415888484358a0101614596565b845292820192908201906001016143fe565b600082601f830112614437578081fd5b813561444561437f82615d35565b818152915060208083019084810160005b848110156143c45781358701604080601f19838c0301121561447757600080fd5b80518181016001600160401b03828210818311171561449257fe5b8184526144a088860161467a565b83529284013592808411156144b457600080fd5b50506144c48b8784860101614596565b81870152865250509282019290820190600101614456565b600082601f8301126144ec578081fd5b6040516102008082018281106001600160401b038211171561450a57fe5b80604052508192508385828601111561452257600080fd5b600091505b601082101561454757803583526020928301926001929092019101614527565b50505092915050565b60008083601f840112614561578182fd5b5081356001600160401b03811115614577578182fd5b60208301915083602082850101111561458f57600080fd5b9250929050565b600082601f8301126145a6578081fd5b81356001600160401b038111156145b957fe5b6145cc601f8201601f1916602001615d12565b91508082528360208285010111156145e357600080fd5b8060208401602084013760009082016020015292915050565b600060c0828403121561460d578081fd5b60405160c081018181106001600160401b038211171561462957fe5b6040529050806146388361467a565b81526146466020840161468e565b602082015260408301356040820152606083013560608201526080830135608082015260a083013560a08201525092915050565b803563ffffffff8116811461268457600080fd5b80356001600160401b038116811461268457600080fd5b6000602082840312156146b6578081fd5b8135612aaa81615d7e565b6000602082840312156146d2578081fd5b8151612aaa81615d7e565b6000806000606084860312156146f1578182fd5b83356146fc81615d7e565b9250602084013561470c81615d7e565b929592945050506040919091013590565b60008060008060808587031215614732578182fd5b843561473d81615d7e565b9350602085013561474d81615d7e565b9250604085013561475d81615d93565b9150606085013561476d81615d93565b939692955090935050565b6000806040838503121561478a578182fd5b823561479581615d7e565b915060208301356147a581615d93565b809150509250929050565b600080604083850312156147c2578182fd5b82356147cd81615d7e565b915060208301356147a581615da8565b6000806000606084860312156147f1578081fd5b83356147fc81615d7e565b9250602084013561480c81615da8565b9150604084013561481c81615d93565b809150509250925092565b60008060408385031215614839578182fd5b823561484481615d7e565b91506132916020840161467a565b60006020808385031215614864578182fd5b82356001600160401b038082111561487a578384fd5b818501915085601f83011261488d578384fd5b813561489b61437f82615d35565b81815284810190848601875b84811015614952578135870161012080601f19838f030112156148c8578a8bfd5b604051608081018181108a821117156148dd57fe5b6040526148ec8e848d016145fc565b815260e0830135898111156148ff578c8dfd5b61490d8f8d838701016143cf565b8c8301525061010083013589811115614924578c8dfd5b6149328f8d83870101614361565b6040830152509101356060820152845292870192908701906001016148a7565b50909998505050505050505050565b60006020808385031215614973578182fd5b82356001600160401b03811115614988578283fd5b8301601f81018513614998578283fd5b80356149a661437f82615d35565b8181528381019083850160c0808502860187018a10156149c4578788fd5b8795505b848610156149f0576149da8a836145fc565b84526001959095019492860192908101906149c8565b509098975050505050505050565b60008060008060006102808688031215614a16578283fd5b85356001600160401b0380821115614a2c578485fd5b614a3889838a01614361565b9650602091508188013581811115614a4e578586fd5b614a5a8a828b01614361565b965050604088013581811115614a6e578586fd5b8801601f81018a13614a7e578586fd5b8035614a8c61437f82615d35565b81815284810190838601868402850187018e1015614aa857898afd5b8994505b83851015614ad857803560ff81168114614ac4578a8bfd5b835260019490940193918601918601614aac565b5097505050506060880135915080821115614af1578283fd5b50614afe88828901614361565b925050614b0e87608088016144dc565b90509295509295909350565b600060208284031215614b2b578081fd5b81518015158114612aaa578182fd5b600060208284031215614b4b578081fd5b81356001600160501b031981168114612aaa578182fd5b600060208284031215614b73578081fd5b5035919050565b600060208284031215614b8b578081fd5b5051919050565b60008060208385031215614ba4578182fd5b82356001600160401b03811115614bb9578283fd5b614bc585828601614550565b90969095509350505050565b600080600060408486031215614be5578081fd5b83356001600160401b03811115614bfa578182fd5b614c0686828701614550565b9094509250614c1990506020850161467a565b90509250925092565b600080600060608486031215614c36578081fd5b8335614c4181615d7e565b925060208401356cffffffffffffffffffffffffff81168114614c62578182fd5b9150604084013561481c81615d7e565b60008060e08385031215614c84578182fd5b614c8e84846145fc565b915060c08301356001600160401b0380821115614ca9578283fd5b818501915085601f830112614cbc578283fd5b8135614cca61437f82615d35565b81815260208082019190858101875b85811015614d90578135880160c0818e03601f19011215614cf857898afd5b614d0260c0615d12565b614d0d85830161467a565b8152614d1b6040830161467a565b8582015260608201356040820152608082013589811115614d3a578b8cfd5b614d488f8783860101614596565b60608301525060a0820135608082015260c082013589811115614d69578b8cfd5b614d778f8783860101614427565b60a0830152508652509382019390820190600101614cd9565b50505080955050505050509250929050565b6000806000806000806101408789031215614dbb578384fd5b614dc588886145fc565b9550614dd360c0880161467a565b945060e0870135614de381615da8565b9350610100870135614df481615d93565b92506101208701356001600160401b0380821115614e10578283fd5b818901915089601f830112614e23578283fd5b813581811115614e31578384fd5b8a60208083028501011115614e44578384fd5b6020830194508093505050509295509295509295565b600060208284031215614e6b578081fd5b8135612aaa81615d93565b600060208284031215614e87578081fd5b8151612aaa81615d93565b600060208284031215614ea3578081fd5b8151612aaa81615da8565b600060208284031215614ebf578081fd5b612aaa8261467a565b60008060408385031215614eda578182fd5b614ee38361467a565b915060208301356147a581615d7e565b60008060408385031215614f05578182fd5b6147cd8361467a565b600060208284031215614f1f578081fd5b612aaa8261468e565b6000815180845260208085019450808401835b83811015614f5757815187529582019590820190600101614f3b565b509495945050505050565b60008151808452614f7a816020860160208601615d52565b601f01601f19169290920160200192915050565b600a8110614f9857fe5b9052565b6001600160f81b031994909416845260609290921b6001600160601b03191660018401526015830152603582015260550190565b6001600160601b031991909116815260140190565b6001600160601b0319929092168252601482015260340190565b918252602082015260400190565b60008382528251615025816020850160208701615d52565b919091016020019392505050565b6000828483379101908152919050565b60008251615055818460208701615d52565b9190910192915050565b60008351615071818460208801615d52565b835190830190615085818360208801615d52565b01949350505050565b7f19457468657265756d205369676e6564204d6573736167653a0a36300000000081526001600160601b031994909416601c8501526001600160e01b031960e093841b811660308601529190921b166034830152603882015260580190565b60f89590951b6001600160f81b03191685526001600160e01b031993909316600185015260f09190911b6001600160f01b031916600584015260801b6001600160801b031916600783015260601b6001600160601b0319166017820152602b0190565b60f89590951b6001600160f81b031916855260e09390931b6001600160e01b031916600185015260609190911b6001600160601b031916600584015260f01b6001600160f01b031916601983015260801b6001600160801b031916601b820152602b0190565b6001600160a01b0391909116815260200190565b6001600160a01b03861681526001600160401b038516602082015260006151f46040830186614f8e565b60a0606083015261520860a0830185614f62565b90508260808301529695505050505050565b6001600160a01b0394851681529290931660208301526001600160801b039081166040830152909116606082015260800190565b6001600160a01b039384168152919092166020820152604081019190915260600190565b6001600160a01b039290921682526001600160801b0316602082015260400190565b6001600160a01b0392909216825261ffff16602082015260400190565b6001600160a01b03929092168252602082015260400190565b6020808252825182820181905260009190848201906040850190845b818110156139af578351835292840192918401916001016152e6565b600060208252612aaa6020830184614f28565b600061028080835261532981840189614f28565b905060208382038185015261533e8289614f28565b84810360408601528751808252828901935090820190845b8181101561537557845160ff1683529383019391830191600101615356565b505084810360608601526153898188614f28565b9350506080840191508460005b60108110156153b357815184529282019290820190600101615396565b505050509695505050505050565b901515815260200190565b90815260200190565b87815263ffffffff871660208201526001600160a01b038616604082015261ffff851660608201526001600160801b038416608082015260c060a08201819052810182905260006001600160fb1b0383111561542f578081fd5b60208302808560e08501379190910160e001908152979650505050505050565b93845260ff9290921660208401526040830152606082015260800190565b60006154798286614f8e565b6060602083015261548d6060830185614f62565b9050826040830152949350505050565b600060208252612aaa6020830184614f62565b602080825260059082015264666373313160d81b604082015260600190565b602080825260059082015264667070313560d81b604082015260600190565b6020808252600490820152637570673360e01b604082015260600190565b602080825260059082015264077746731360dc1b604082015260600190565b602080825260059082015264074726d31360dc1b604082015260600190565b602080825260059082015264657865313160d81b604082015260600190565b6020808252600590820152641d9b9c0c4d60da1b604082015260600190565b602080825260059082015264072667031360dc1b604082015260600190565b602080825260059082015264636870313360d81b604082015260600190565b6020808252601b908201527f536166654d6174683a206164646974696f6e206f766572666c6f770000000000604082015260600190565b60208082526003908201526276663160e81b604082015260600190565b602080825260059082015264313a3a981960d91b604082015260600190565b602080825260059082015264333838189b60d91b604082015260600190565b602080825260059082015264313a31199960d91b604082015260600190565b60208082526027908201527f53616665436173743a2076616c756520646f65736e27742066697420696e20316040820152663238206269747360c81b606082015260800190565b6020808252600590820152643bba33989960d91b604082015260600190565b602080825260059082015264189d1d4c0d60da1b604082015260600190565b602080825260059082015264636f65303160d81b604082015260600190565b602080825260059082015264627365313160d81b604082015260600190565b602080825260059082015264666565313160d81b604082015260600190565b602080825260059082015264065786531360dc1b604082015260600190565b602080825260059082015264076657331360dc1b604082015260600190565b602080825260059082015264667765313160d81b604082015260600190565b6020808252600490820152633ab8339960e11b604082015260600190565b6020808252600590820152643a36b9989960d91b604082015260600190565b602080825260059082015264766e70313560d81b604082015260600190565b60208082526005908201526431b7b2981960d91b604082015260600190565b602080825260059082015264061686631360dc1b604082015260600190565b602080825260059082015264616866313160d81b604082015260600190565b602080825260059082015264666574313160d81b604082015260600190565b6020808252600490820152637570673560e01b604082015260600190565b602080825260059082015264333218189960d91b604082015260600190565b6020808252600590820152643331b9b79960d91b604082015260600190565b602080825260059082015264777467313160d81b604082015260600190565b6020808252600490820152637570673160e01b604082015260600190565b602080825260059082015264066636b31360dc1b604082015260600190565b602080825260059082015264657865313360d81b604082015260600190565b602080825260059082015264766e70313360d81b604082015260600190565b602080825260059082015264373b38189960d91b604082015260600190565b602080825260059082015264746d73313160d81b604082015260600190565b6020808252600490820152631d5c19cd60e21b604082015260600190565b602080825260059082015264062746232360dc1b604082015260600190565b60208082526005908201526474726d313160d81b604082015260600190565b6020808252600590820152643332ba189960d91b604082015260600190565b602080825260059082015264066726b31360dc1b604082015260600190565b602080825260059082015264313a3a989b60d91b604082015260600190565b60208082526005908201526466636b313160d81b604082015260600190565b602080825260059082015264667265313160d81b604082015260600190565b602080825260059082015264666430313160d81b604082015260600190565b602080825260059082015264072647031360dc1b604082015260600190565b602080825260059082015264199c1c0c4d60da1b604082015260600190565b6020808252601f908201527f5265656e7472616e637947756172643a207265656e7472616e742063616c6c00604082015260600190565b602080825260059082015264627461313160d81b604082015260600190565b602080825260059082015264666574313360d81b604082015260600190565b602080825260059082015264657865303360d81b604082015260600190565b60208082526005908201526432bc32989960d91b604082015260600190565b600060c08201905063ffffffff83511682526001600160401b03602084015116602083015260408301516040830152606083015160608301526080830151608083015260a083015160a083015292915050565b6001600160801b0391909116815260200190565b6001600160801b0392909216825260ff16602082015260400190565b61ffff91909116815260200190565b63ffffffff91909116815260200190565b600063ffffffff851682526040602083015282604083015282846060840137818301606090810191909152601f909201601f1916010192915050565b63ffffffff92831681529116602082015260400190565b63ffffffff96871681526001600160401b039590951660208601529290941660408401526060830152608082019290925260a081019190915260c00190565b6001600160401b0391909116815260200190565b6040518181016001600160401b0381118282101715615d2d57fe5b604052919050565b60006001600160401b03821115615d4857fe5b5060209081020190565b60005b83811015615d6d578181015183820152602001615d55565b83811115613d2f5750506000910152565b6001600160a01b038116811461429757600080fd5b6001600160801b038116811461429757600080fd5b61ffff8116811461429757600080fdfec5d2460186f7233c927e7db2dcc703c0e500b653ca82273b7bfad8045d85a4708e94fed44239eb2314ab7a406345e6c5a8f0ccedf3b600de3d004e672c33abf4a2646970667358221220dd86a151ea0148352764f04ac2e3d4e9f5e617f8871d70cf8a2d8fe8c652250c64736f6c63430007030033",
  "linkReferences": {},
  "deployedLinkReferences": {}
}